
HSEM_CM7.elf:     file format elf32-littlearm

Sections:
Idx Name          Size      VMA       LMA       File off  Algn
  0 .isr_vector   00000298  08000000  08000000  00010000  2**0
                  CONTENTS, ALLOC, LOAD, READONLY, DATA
  1 .text         00004b28  08000298  08000298  00010298  2**2
                  CONTENTS, ALLOC, LOAD, READONLY, CODE
  2 .rodata       00000040  08004dc0  08004dc0  00014dc0  2**2
                  CONTENTS, ALLOC, LOAD, READONLY, DATA
  3 .ARM.extab    00000000  08004e00  08004e00  00020010  2**0
                  CONTENTS
  4 .ARM          00000008  08004e00  08004e00  00014e00  2**2
                  CONTENTS, ALLOC, LOAD, READONLY, DATA
  5 .preinit_array 00000000  08004e08  08004e08  00020010  2**0
                  CONTENTS, ALLOC, LOAD, DATA
  6 .init_array   00000004  08004e08  08004e08  00014e08  2**2
                  CONTENTS, ALLOC, LOAD, DATA
  7 .fini_array   00000004  08004e0c  08004e0c  00014e0c  2**2
                  CONTENTS, ALLOC, LOAD, DATA
  8 .data         00000010  24000000  08004e10  00020000  2**2
                  CONTENTS, ALLOC, LOAD, DATA
  9 .bss          000000b4  24000010  08004e20  00020010  2**2
                  ALLOC
 10 ._user_heap_stack 00000604  240000c4  08004e20  000200c4  2**0
                  ALLOC
 11 .ARM.attributes 0000002e  00000000  00000000  00020010  2**0
                  CONTENTS, READONLY
 12 .debug_info   000107d3  00000000  00000000  0002003e  2**0
                  CONTENTS, READONLY, DEBUGGING, OCTETS
 13 .debug_abbrev 00001dd1  00000000  00000000  00030811  2**0
                  CONTENTS, READONLY, DEBUGGING, OCTETS
 14 .debug_aranges 00000af8  00000000  00000000  000325e8  2**3
                  CONTENTS, READONLY, DEBUGGING, OCTETS
 15 .debug_ranges 00000a50  00000000  00000000  000330e0  2**3
                  CONTENTS, READONLY, DEBUGGING, OCTETS
 16 .debug_macro  000384d0  00000000  00000000  00033b30  2**0
                  CONTENTS, READONLY, DEBUGGING, OCTETS
 17 .debug_line   0000e5d1  00000000  00000000  0006c000  2**0
                  CONTENTS, READONLY, DEBUGGING, OCTETS
 18 .debug_str    00176db3  00000000  00000000  0007a5d1  2**0
                  CONTENTS, READONLY, DEBUGGING, OCTETS
 19 .comment      00000050  00000000  00000000  001f1384  2**0
                  CONTENTS, READONLY
 20 .debug_frame  00002cb4  00000000  00000000  001f13d4  2**2
                  CONTENTS, READONLY, DEBUGGING, OCTETS

Disassembly of section .text:

08000298 <__do_global_dtors_aux>:
 8000298:	b510      	push	{r4, lr}
 800029a:	4c05      	ldr	r4, [pc, #20]	; (80002b0 <__do_global_dtors_aux+0x18>)
 800029c:	7823      	ldrb	r3, [r4, #0]
 800029e:	b933      	cbnz	r3, 80002ae <__do_global_dtors_aux+0x16>
 80002a0:	4b04      	ldr	r3, [pc, #16]	; (80002b4 <__do_global_dtors_aux+0x1c>)
 80002a2:	b113      	cbz	r3, 80002aa <__do_global_dtors_aux+0x12>
 80002a4:	4804      	ldr	r0, [pc, #16]	; (80002b8 <__do_global_dtors_aux+0x20>)
 80002a6:	f3af 8000 	nop.w
 80002aa:	2301      	movs	r3, #1
 80002ac:	7023      	strb	r3, [r4, #0]
 80002ae:	bd10      	pop	{r4, pc}
 80002b0:	24000010 	.word	0x24000010
 80002b4:	00000000 	.word	0x00000000
 80002b8:	08004da8 	.word	0x08004da8

080002bc <frame_dummy>:
 80002bc:	b508      	push	{r3, lr}
 80002be:	4b03      	ldr	r3, [pc, #12]	; (80002cc <frame_dummy+0x10>)
 80002c0:	b11b      	cbz	r3, 80002ca <frame_dummy+0xe>
 80002c2:	4903      	ldr	r1, [pc, #12]	; (80002d0 <frame_dummy+0x14>)
 80002c4:	4803      	ldr	r0, [pc, #12]	; (80002d4 <frame_dummy+0x18>)
 80002c6:	f3af 8000 	nop.w
 80002ca:	bd08      	pop	{r3, pc}
 80002cc:	00000000 	.word	0x00000000
 80002d0:	24000014 	.word	0x24000014
 80002d4:	08004da8 	.word	0x08004da8

080002d8 <__aeabi_uldivmod>:
 80002d8:	b953      	cbnz	r3, 80002f0 <__aeabi_uldivmod+0x18>
 80002da:	b94a      	cbnz	r2, 80002f0 <__aeabi_uldivmod+0x18>
 80002dc:	2900      	cmp	r1, #0
 80002de:	bf08      	it	eq
 80002e0:	2800      	cmpeq	r0, #0
 80002e2:	bf1c      	itt	ne
 80002e4:	f04f 31ff 	movne.w	r1, #4294967295
 80002e8:	f04f 30ff 	movne.w	r0, #4294967295
 80002ec:	f000 b974 	b.w	80005d8 <__aeabi_idiv0>
 80002f0:	f1ad 0c08 	sub.w	ip, sp, #8
 80002f4:	e96d ce04 	strd	ip, lr, [sp, #-16]!
 80002f8:	f000 f806 	bl	8000308 <__udivmoddi4>
 80002fc:	f8dd e004 	ldr.w	lr, [sp, #4]
 8000300:	e9dd 2302 	ldrd	r2, r3, [sp, #8]
 8000304:	b004      	add	sp, #16
 8000306:	4770      	bx	lr

08000308 <__udivmoddi4>:
 8000308:	e92d 47f0 	stmdb	sp!, {r4, r5, r6, r7, r8, r9, sl, lr}
 800030c:	9d08      	ldr	r5, [sp, #32]
 800030e:	4604      	mov	r4, r0
 8000310:	468e      	mov	lr, r1
 8000312:	2b00      	cmp	r3, #0
 8000314:	d14d      	bne.n	80003b2 <__udivmoddi4+0xaa>
 8000316:	428a      	cmp	r2, r1
 8000318:	4694      	mov	ip, r2
 800031a:	d969      	bls.n	80003f0 <__udivmoddi4+0xe8>
 800031c:	fab2 f282 	clz	r2, r2
 8000320:	b152      	cbz	r2, 8000338 <__udivmoddi4+0x30>
 8000322:	fa01 f302 	lsl.w	r3, r1, r2
 8000326:	f1c2 0120 	rsb	r1, r2, #32
 800032a:	fa20 f101 	lsr.w	r1, r0, r1
 800032e:	fa0c fc02 	lsl.w	ip, ip, r2
 8000332:	ea41 0e03 	orr.w	lr, r1, r3
 8000336:	4094      	lsls	r4, r2
 8000338:	ea4f 481c 	mov.w	r8, ip, lsr #16
 800033c:	0c21      	lsrs	r1, r4, #16
 800033e:	fbbe f6f8 	udiv	r6, lr, r8
 8000342:	fa1f f78c 	uxth.w	r7, ip
 8000346:	fb08 e316 	mls	r3, r8, r6, lr
 800034a:	ea41 4303 	orr.w	r3, r1, r3, lsl #16
 800034e:	fb06 f107 	mul.w	r1, r6, r7
 8000352:	4299      	cmp	r1, r3
 8000354:	d90a      	bls.n	800036c <__udivmoddi4+0x64>
 8000356:	eb1c 0303 	adds.w	r3, ip, r3
 800035a:	f106 30ff 	add.w	r0, r6, #4294967295
 800035e:	f080 811f 	bcs.w	80005a0 <__udivmoddi4+0x298>
 8000362:	4299      	cmp	r1, r3
 8000364:	f240 811c 	bls.w	80005a0 <__udivmoddi4+0x298>
 8000368:	3e02      	subs	r6, #2
 800036a:	4463      	add	r3, ip
 800036c:	1a5b      	subs	r3, r3, r1
 800036e:	b2a4      	uxth	r4, r4
 8000370:	fbb3 f0f8 	udiv	r0, r3, r8
 8000374:	fb08 3310 	mls	r3, r8, r0, r3
 8000378:	ea44 4403 	orr.w	r4, r4, r3, lsl #16
 800037c:	fb00 f707 	mul.w	r7, r0, r7
 8000380:	42a7      	cmp	r7, r4
 8000382:	d90a      	bls.n	800039a <__udivmoddi4+0x92>
 8000384:	eb1c 0404 	adds.w	r4, ip, r4
 8000388:	f100 33ff 	add.w	r3, r0, #4294967295
 800038c:	f080 810a 	bcs.w	80005a4 <__udivmoddi4+0x29c>
 8000390:	42a7      	cmp	r7, r4
 8000392:	f240 8107 	bls.w	80005a4 <__udivmoddi4+0x29c>
 8000396:	4464      	add	r4, ip
 8000398:	3802      	subs	r0, #2
 800039a:	ea40 4006 	orr.w	r0, r0, r6, lsl #16
 800039e:	1be4      	subs	r4, r4, r7
 80003a0:	2600      	movs	r6, #0
 80003a2:	b11d      	cbz	r5, 80003ac <__udivmoddi4+0xa4>
 80003a4:	40d4      	lsrs	r4, r2
 80003a6:	2300      	movs	r3, #0
 80003a8:	e9c5 4300 	strd	r4, r3, [r5]
 80003ac:	4631      	mov	r1, r6
 80003ae:	e8bd 87f0 	ldmia.w	sp!, {r4, r5, r6, r7, r8, r9, sl, pc}
 80003b2:	428b      	cmp	r3, r1
 80003b4:	d909      	bls.n	80003ca <__udivmoddi4+0xc2>
 80003b6:	2d00      	cmp	r5, #0
 80003b8:	f000 80ef 	beq.w	800059a <__udivmoddi4+0x292>
 80003bc:	2600      	movs	r6, #0
 80003be:	e9c5 0100 	strd	r0, r1, [r5]
 80003c2:	4630      	mov	r0, r6
 80003c4:	4631      	mov	r1, r6
 80003c6:	e8bd 87f0 	ldmia.w	sp!, {r4, r5, r6, r7, r8, r9, sl, pc}
 80003ca:	fab3 f683 	clz	r6, r3
 80003ce:	2e00      	cmp	r6, #0
 80003d0:	d14a      	bne.n	8000468 <__udivmoddi4+0x160>
 80003d2:	428b      	cmp	r3, r1
 80003d4:	d302      	bcc.n	80003dc <__udivmoddi4+0xd4>
 80003d6:	4282      	cmp	r2, r0
 80003d8:	f200 80f9 	bhi.w	80005ce <__udivmoddi4+0x2c6>
 80003dc:	1a84      	subs	r4, r0, r2
 80003de:	eb61 0303 	sbc.w	r3, r1, r3
 80003e2:	2001      	movs	r0, #1
 80003e4:	469e      	mov	lr, r3
 80003e6:	2d00      	cmp	r5, #0
 80003e8:	d0e0      	beq.n	80003ac <__udivmoddi4+0xa4>
 80003ea:	e9c5 4e00 	strd	r4, lr, [r5]
 80003ee:	e7dd      	b.n	80003ac <__udivmoddi4+0xa4>
 80003f0:	b902      	cbnz	r2, 80003f4 <__udivmoddi4+0xec>
 80003f2:	deff      	udf	#255	; 0xff
 80003f4:	fab2 f282 	clz	r2, r2
 80003f8:	2a00      	cmp	r2, #0
 80003fa:	f040 8092 	bne.w	8000522 <__udivmoddi4+0x21a>
 80003fe:	eba1 010c 	sub.w	r1, r1, ip
 8000402:	ea4f 471c 	mov.w	r7, ip, lsr #16
 8000406:	fa1f fe8c 	uxth.w	lr, ip
 800040a:	2601      	movs	r6, #1
 800040c:	0c20      	lsrs	r0, r4, #16
 800040e:	fbb1 f3f7 	udiv	r3, r1, r7
 8000412:	fb07 1113 	mls	r1, r7, r3, r1
 8000416:	ea40 4101 	orr.w	r1, r0, r1, lsl #16
 800041a:	fb0e f003 	mul.w	r0, lr, r3
 800041e:	4288      	cmp	r0, r1
 8000420:	d908      	bls.n	8000434 <__udivmoddi4+0x12c>
 8000422:	eb1c 0101 	adds.w	r1, ip, r1
 8000426:	f103 38ff 	add.w	r8, r3, #4294967295
 800042a:	d202      	bcs.n	8000432 <__udivmoddi4+0x12a>
 800042c:	4288      	cmp	r0, r1
 800042e:	f200 80cb 	bhi.w	80005c8 <__udivmoddi4+0x2c0>
 8000432:	4643      	mov	r3, r8
 8000434:	1a09      	subs	r1, r1, r0
 8000436:	b2a4      	uxth	r4, r4
 8000438:	fbb1 f0f7 	udiv	r0, r1, r7
 800043c:	fb07 1110 	mls	r1, r7, r0, r1
 8000440:	ea44 4401 	orr.w	r4, r4, r1, lsl #16
 8000444:	fb0e fe00 	mul.w	lr, lr, r0
 8000448:	45a6      	cmp	lr, r4
 800044a:	d908      	bls.n	800045e <__udivmoddi4+0x156>
 800044c:	eb1c 0404 	adds.w	r4, ip, r4
 8000450:	f100 31ff 	add.w	r1, r0, #4294967295
 8000454:	d202      	bcs.n	800045c <__udivmoddi4+0x154>
 8000456:	45a6      	cmp	lr, r4
 8000458:	f200 80bb 	bhi.w	80005d2 <__udivmoddi4+0x2ca>
 800045c:	4608      	mov	r0, r1
 800045e:	eba4 040e 	sub.w	r4, r4, lr
 8000462:	ea40 4003 	orr.w	r0, r0, r3, lsl #16
 8000466:	e79c      	b.n	80003a2 <__udivmoddi4+0x9a>
 8000468:	f1c6 0720 	rsb	r7, r6, #32
 800046c:	40b3      	lsls	r3, r6
 800046e:	fa22 fc07 	lsr.w	ip, r2, r7
 8000472:	ea4c 0c03 	orr.w	ip, ip, r3
 8000476:	fa20 f407 	lsr.w	r4, r0, r7
 800047a:	fa01 f306 	lsl.w	r3, r1, r6
 800047e:	431c      	orrs	r4, r3
 8000480:	40f9      	lsrs	r1, r7
 8000482:	ea4f 491c 	mov.w	r9, ip, lsr #16
 8000486:	fa00 f306 	lsl.w	r3, r0, r6
 800048a:	fbb1 f8f9 	udiv	r8, r1, r9
 800048e:	0c20      	lsrs	r0, r4, #16
 8000490:	fa1f fe8c 	uxth.w	lr, ip
 8000494:	fb09 1118 	mls	r1, r9, r8, r1
 8000498:	ea40 4101 	orr.w	r1, r0, r1, lsl #16
 800049c:	fb08 f00e 	mul.w	r0, r8, lr
 80004a0:	4288      	cmp	r0, r1
 80004a2:	fa02 f206 	lsl.w	r2, r2, r6
 80004a6:	d90b      	bls.n	80004c0 <__udivmoddi4+0x1b8>
 80004a8:	eb1c 0101 	adds.w	r1, ip, r1
 80004ac:	f108 3aff 	add.w	sl, r8, #4294967295
 80004b0:	f080 8088 	bcs.w	80005c4 <__udivmoddi4+0x2bc>
 80004b4:	4288      	cmp	r0, r1
 80004b6:	f240 8085 	bls.w	80005c4 <__udivmoddi4+0x2bc>
 80004ba:	f1a8 0802 	sub.w	r8, r8, #2
 80004be:	4461      	add	r1, ip
 80004c0:	1a09      	subs	r1, r1, r0
 80004c2:	b2a4      	uxth	r4, r4
 80004c4:	fbb1 f0f9 	udiv	r0, r1, r9
 80004c8:	fb09 1110 	mls	r1, r9, r0, r1
 80004cc:	ea44 4101 	orr.w	r1, r4, r1, lsl #16
 80004d0:	fb00 fe0e 	mul.w	lr, r0, lr
 80004d4:	458e      	cmp	lr, r1
 80004d6:	d908      	bls.n	80004ea <__udivmoddi4+0x1e2>
 80004d8:	eb1c 0101 	adds.w	r1, ip, r1
 80004dc:	f100 34ff 	add.w	r4, r0, #4294967295
 80004e0:	d26c      	bcs.n	80005bc <__udivmoddi4+0x2b4>
 80004e2:	458e      	cmp	lr, r1
 80004e4:	d96a      	bls.n	80005bc <__udivmoddi4+0x2b4>
 80004e6:	3802      	subs	r0, #2
 80004e8:	4461      	add	r1, ip
 80004ea:	ea40 4008 	orr.w	r0, r0, r8, lsl #16
 80004ee:	fba0 9402 	umull	r9, r4, r0, r2
 80004f2:	eba1 010e 	sub.w	r1, r1, lr
 80004f6:	42a1      	cmp	r1, r4
 80004f8:	46c8      	mov	r8, r9
 80004fa:	46a6      	mov	lr, r4
 80004fc:	d356      	bcc.n	80005ac <__udivmoddi4+0x2a4>
 80004fe:	d053      	beq.n	80005a8 <__udivmoddi4+0x2a0>
 8000500:	b15d      	cbz	r5, 800051a <__udivmoddi4+0x212>
 8000502:	ebb3 0208 	subs.w	r2, r3, r8
 8000506:	eb61 010e 	sbc.w	r1, r1, lr
 800050a:	fa01 f707 	lsl.w	r7, r1, r7
 800050e:	fa22 f306 	lsr.w	r3, r2, r6
 8000512:	40f1      	lsrs	r1, r6
 8000514:	431f      	orrs	r7, r3
 8000516:	e9c5 7100 	strd	r7, r1, [r5]
 800051a:	2600      	movs	r6, #0
 800051c:	4631      	mov	r1, r6
 800051e:	e8bd 87f0 	ldmia.w	sp!, {r4, r5, r6, r7, r8, r9, sl, pc}
 8000522:	f1c2 0320 	rsb	r3, r2, #32
 8000526:	40d8      	lsrs	r0, r3
 8000528:	fa0c fc02 	lsl.w	ip, ip, r2
 800052c:	fa21 f303 	lsr.w	r3, r1, r3
 8000530:	4091      	lsls	r1, r2
 8000532:	4301      	orrs	r1, r0
 8000534:	ea4f 471c 	mov.w	r7, ip, lsr #16
 8000538:	fa1f fe8c 	uxth.w	lr, ip
 800053c:	fbb3 f0f7 	udiv	r0, r3, r7
 8000540:	fb07 3610 	mls	r6, r7, r0, r3
 8000544:	0c0b      	lsrs	r3, r1, #16
 8000546:	ea43 4306 	orr.w	r3, r3, r6, lsl #16
 800054a:	fb00 f60e 	mul.w	r6, r0, lr
 800054e:	429e      	cmp	r6, r3
 8000550:	fa04 f402 	lsl.w	r4, r4, r2
 8000554:	d908      	bls.n	8000568 <__udivmoddi4+0x260>
 8000556:	eb1c 0303 	adds.w	r3, ip, r3
 800055a:	f100 38ff 	add.w	r8, r0, #4294967295
 800055e:	d22f      	bcs.n	80005c0 <__udivmoddi4+0x2b8>
 8000560:	429e      	cmp	r6, r3
 8000562:	d92d      	bls.n	80005c0 <__udivmoddi4+0x2b8>
 8000564:	3802      	subs	r0, #2
 8000566:	4463      	add	r3, ip
 8000568:	1b9b      	subs	r3, r3, r6
 800056a:	b289      	uxth	r1, r1
 800056c:	fbb3 f6f7 	udiv	r6, r3, r7
 8000570:	fb07 3316 	mls	r3, r7, r6, r3
 8000574:	ea41 4103 	orr.w	r1, r1, r3, lsl #16
 8000578:	fb06 f30e 	mul.w	r3, r6, lr
 800057c:	428b      	cmp	r3, r1
 800057e:	d908      	bls.n	8000592 <__udivmoddi4+0x28a>
 8000580:	eb1c 0101 	adds.w	r1, ip, r1
 8000584:	f106 38ff 	add.w	r8, r6, #4294967295
 8000588:	d216      	bcs.n	80005b8 <__udivmoddi4+0x2b0>
 800058a:	428b      	cmp	r3, r1
 800058c:	d914      	bls.n	80005b8 <__udivmoddi4+0x2b0>
 800058e:	3e02      	subs	r6, #2
 8000590:	4461      	add	r1, ip
 8000592:	1ac9      	subs	r1, r1, r3
 8000594:	ea46 4600 	orr.w	r6, r6, r0, lsl #16
 8000598:	e738      	b.n	800040c <__udivmoddi4+0x104>
 800059a:	462e      	mov	r6, r5
 800059c:	4628      	mov	r0, r5
 800059e:	e705      	b.n	80003ac <__udivmoddi4+0xa4>
 80005a0:	4606      	mov	r6, r0
 80005a2:	e6e3      	b.n	800036c <__udivmoddi4+0x64>
 80005a4:	4618      	mov	r0, r3
 80005a6:	e6f8      	b.n	800039a <__udivmoddi4+0x92>
 80005a8:	454b      	cmp	r3, r9
 80005aa:	d2a9      	bcs.n	8000500 <__udivmoddi4+0x1f8>
 80005ac:	ebb9 0802 	subs.w	r8, r9, r2
 80005b0:	eb64 0e0c 	sbc.w	lr, r4, ip
 80005b4:	3801      	subs	r0, #1
 80005b6:	e7a3      	b.n	8000500 <__udivmoddi4+0x1f8>
 80005b8:	4646      	mov	r6, r8
 80005ba:	e7ea      	b.n	8000592 <__udivmoddi4+0x28a>
 80005bc:	4620      	mov	r0, r4
 80005be:	e794      	b.n	80004ea <__udivmoddi4+0x1e2>
 80005c0:	4640      	mov	r0, r8
 80005c2:	e7d1      	b.n	8000568 <__udivmoddi4+0x260>
 80005c4:	46d0      	mov	r8, sl
 80005c6:	e77b      	b.n	80004c0 <__udivmoddi4+0x1b8>
 80005c8:	3b02      	subs	r3, #2
 80005ca:	4461      	add	r1, ip
 80005cc:	e732      	b.n	8000434 <__udivmoddi4+0x12c>
 80005ce:	4630      	mov	r0, r6
 80005d0:	e709      	b.n	80003e6 <__udivmoddi4+0xde>
 80005d2:	4464      	add	r4, ip
 80005d4:	3802      	subs	r0, #2
 80005d6:	e742      	b.n	800045e <__udivmoddi4+0x156>

080005d8 <__aeabi_idiv0>:
 80005d8:	4770      	bx	lr
 80005da:	bf00      	nop

080005dc <SystemInit>:
  *         configuration.
  * @param  None
  * @retval None
  */
void SystemInit (void)
{
 80005dc:	b480      	push	{r7}
 80005de:	af00      	add	r7, sp, #0
  /* FPU settings ------------------------------------------------------------*/
  #if (__FPU_PRESENT == 1) && (__FPU_USED == 1)
    SCB->CPACR |= ((3UL << (10*2))|(3UL << (11*2)));  /* set CP10 and CP11 Full Access */
 80005e0:	4b3d      	ldr	r3, [pc, #244]	; (80006d8 <SystemInit+0xfc>)
 80005e2:	f8d3 3088 	ldr.w	r3, [r3, #136]	; 0x88
 80005e6:	4a3c      	ldr	r2, [pc, #240]	; (80006d8 <SystemInit+0xfc>)
 80005e8:	f443 0370 	orr.w	r3, r3, #15728640	; 0xf00000
 80005ec:	f8c2 3088 	str.w	r3, [r2, #136]	; 0x88
  #endif

    /*SEVONPEND enabled so that an interrupt coming from the CPU(n) interrupt signal is
     detectable by the CPU after a WFI/WFE instruction.*/
 SCB->SCR |= SCB_SCR_SEVONPEND_Msk;
 80005f0:	4b39      	ldr	r3, [pc, #228]	; (80006d8 <SystemInit+0xfc>)
 80005f2:	691b      	ldr	r3, [r3, #16]
 80005f4:	4a38      	ldr	r2, [pc, #224]	; (80006d8 <SystemInit+0xfc>)
 80005f6:	f043 0310 	orr.w	r3, r3, #16
 80005fa:	6113      	str	r3, [r2, #16]

#if defined(CORE_CM7)
  /* Reset the RCC clock configuration to the default reset state ------------*/
   /* Increasing the CPU frequency */
  if(FLASH_LATENCY_DEFAULT  > (READ_BIT((FLASH->ACR), FLASH_ACR_LATENCY)))
 80005fc:	4b37      	ldr	r3, [pc, #220]	; (80006dc <SystemInit+0x100>)
 80005fe:	681b      	ldr	r3, [r3, #0]
 8000600:	f003 030f 	and.w	r3, r3, #15
 8000604:	2b06      	cmp	r3, #6
 8000606:	d807      	bhi.n	8000618 <SystemInit+0x3c>
  {
    /* Program the new number of wait states to the LATENCY bits in the FLASH_ACR register */
    MODIFY_REG(FLASH->ACR, FLASH_ACR_LATENCY, (uint32_t)(FLASH_LATENCY_DEFAULT));
 8000608:	4b34      	ldr	r3, [pc, #208]	; (80006dc <SystemInit+0x100>)
 800060a:	681b      	ldr	r3, [r3, #0]
 800060c:	f023 030f 	bic.w	r3, r3, #15
 8000610:	4a32      	ldr	r2, [pc, #200]	; (80006dc <SystemInit+0x100>)
 8000612:	f043 0307 	orr.w	r3, r3, #7
 8000616:	6013      	str	r3, [r2, #0]
  }

  /* Set HSION bit */
  RCC->CR |= RCC_CR_HSION;
 8000618:	4b31      	ldr	r3, [pc, #196]	; (80006e0 <SystemInit+0x104>)
 800061a:	681b      	ldr	r3, [r3, #0]
 800061c:	4a30      	ldr	r2, [pc, #192]	; (80006e0 <SystemInit+0x104>)
 800061e:	f043 0301 	orr.w	r3, r3, #1
 8000622:	6013      	str	r3, [r2, #0]

  /* Reset CFGR register */
  RCC->CFGR = 0x00000000;
 8000624:	4b2e      	ldr	r3, [pc, #184]	; (80006e0 <SystemInit+0x104>)
 8000626:	2200      	movs	r2, #0
 8000628:	611a      	str	r2, [r3, #16]

  /* Reset HSEON, HSECSSON, CSION, HSI48ON, CSIKERON, PLL1ON, PLL2ON and PLL3ON bits */
  RCC->CR &= 0xEAF6ED7FU;
 800062a:	4b2d      	ldr	r3, [pc, #180]	; (80006e0 <SystemInit+0x104>)
 800062c:	681a      	ldr	r2, [r3, #0]
 800062e:	492c      	ldr	r1, [pc, #176]	; (80006e0 <SystemInit+0x104>)
 8000630:	4b2c      	ldr	r3, [pc, #176]	; (80006e4 <SystemInit+0x108>)
 8000632:	4013      	ands	r3, r2
 8000634:	600b      	str	r3, [r1, #0]

   /* Decreasing the number of wait states because of lower CPU frequency */
  if(FLASH_LATENCY_DEFAULT  < (READ_BIT((FLASH->ACR), FLASH_ACR_LATENCY)))
 8000636:	4b29      	ldr	r3, [pc, #164]	; (80006dc <SystemInit+0x100>)
 8000638:	681b      	ldr	r3, [r3, #0]
 800063a:	f003 0308 	and.w	r3, r3, #8
 800063e:	2b00      	cmp	r3, #0
 8000640:	d007      	beq.n	8000652 <SystemInit+0x76>
  {
    /* Program the new number of wait states to the LATENCY bits in the FLASH_ACR register */
    MODIFY_REG(FLASH->ACR, FLASH_ACR_LATENCY, (uint32_t)(FLASH_LATENCY_DEFAULT));
 8000642:	4b26      	ldr	r3, [pc, #152]	; (80006dc <SystemInit+0x100>)
 8000644:	681b      	ldr	r3, [r3, #0]
 8000646:	f023 030f 	bic.w	r3, r3, #15
 800064a:	4a24      	ldr	r2, [pc, #144]	; (80006dc <SystemInit+0x100>)
 800064c:	f043 0307 	orr.w	r3, r3, #7
 8000650:	6013      	str	r3, [r2, #0]
  }

  /* Reset D1CFGR register */
  RCC->D1CFGR = 0x00000000;
 8000652:	4b23      	ldr	r3, [pc, #140]	; (80006e0 <SystemInit+0x104>)
 8000654:	2200      	movs	r2, #0
 8000656:	619a      	str	r2, [r3, #24]

  /* Reset D2CFGR register */
  RCC->D2CFGR = 0x00000000;
 8000658:	4b21      	ldr	r3, [pc, #132]	; (80006e0 <SystemInit+0x104>)
 800065a:	2200      	movs	r2, #0
 800065c:	61da      	str	r2, [r3, #28]

  /* Reset D3CFGR register */
  RCC->D3CFGR = 0x00000000;
 800065e:	4b20      	ldr	r3, [pc, #128]	; (80006e0 <SystemInit+0x104>)
 8000660:	2200      	movs	r2, #0
 8000662:	621a      	str	r2, [r3, #32]

  /* Reset PLLCKSELR register */
  RCC->PLLCKSELR = 0x02020200;
 8000664:	4b1e      	ldr	r3, [pc, #120]	; (80006e0 <SystemInit+0x104>)
 8000666:	4a20      	ldr	r2, [pc, #128]	; (80006e8 <SystemInit+0x10c>)
 8000668:	629a      	str	r2, [r3, #40]	; 0x28

  /* Reset PLLCFGR register */
  RCC->PLLCFGR = 0x01FF0000;
 800066a:	4b1d      	ldr	r3, [pc, #116]	; (80006e0 <SystemInit+0x104>)
 800066c:	4a1f      	ldr	r2, [pc, #124]	; (80006ec <SystemInit+0x110>)
 800066e:	62da      	str	r2, [r3, #44]	; 0x2c
  /* Reset PLL1DIVR register */
  RCC->PLL1DIVR = 0x01010280;
 8000670:	4b1b      	ldr	r3, [pc, #108]	; (80006e0 <SystemInit+0x104>)
 8000672:	4a1f      	ldr	r2, [pc, #124]	; (80006f0 <SystemInit+0x114>)
 8000674:	631a      	str	r2, [r3, #48]	; 0x30
  /* Reset PLL1FRACR register */
  RCC->PLL1FRACR = 0x00000000;
 8000676:	4b1a      	ldr	r3, [pc, #104]	; (80006e0 <SystemInit+0x104>)
 8000678:	2200      	movs	r2, #0
 800067a:	635a      	str	r2, [r3, #52]	; 0x34

  /* Reset PLL2DIVR register */
  RCC->PLL2DIVR = 0x01010280;
 800067c:	4b18      	ldr	r3, [pc, #96]	; (80006e0 <SystemInit+0x104>)
 800067e:	4a1c      	ldr	r2, [pc, #112]	; (80006f0 <SystemInit+0x114>)
 8000680:	639a      	str	r2, [r3, #56]	; 0x38

  /* Reset PLL2FRACR register */

  RCC->PLL2FRACR = 0x00000000;
 8000682:	4b17      	ldr	r3, [pc, #92]	; (80006e0 <SystemInit+0x104>)
 8000684:	2200      	movs	r2, #0
 8000686:	63da      	str	r2, [r3, #60]	; 0x3c
  /* Reset PLL3DIVR register */
  RCC->PLL3DIVR = 0x01010280;
 8000688:	4b15      	ldr	r3, [pc, #84]	; (80006e0 <SystemInit+0x104>)
 800068a:	4a19      	ldr	r2, [pc, #100]	; (80006f0 <SystemInit+0x114>)
 800068c:	641a      	str	r2, [r3, #64]	; 0x40

  /* Reset PLL3FRACR register */
  RCC->PLL3FRACR = 0x00000000;
 800068e:	4b14      	ldr	r3, [pc, #80]	; (80006e0 <SystemInit+0x104>)
 8000690:	2200      	movs	r2, #0
 8000692:	645a      	str	r2, [r3, #68]	; 0x44

  /* Reset HSEBYP bit */
  RCC->CR &= 0xFFFBFFFFU;
 8000694:	4b12      	ldr	r3, [pc, #72]	; (80006e0 <SystemInit+0x104>)
 8000696:	681b      	ldr	r3, [r3, #0]
 8000698:	4a11      	ldr	r2, [pc, #68]	; (80006e0 <SystemInit+0x104>)
 800069a:	f423 2380 	bic.w	r3, r3, #262144	; 0x40000
 800069e:	6013      	str	r3, [r2, #0]

  /* Disable all interrupts */
  RCC->CIER = 0x00000000;
 80006a0:	4b0f      	ldr	r3, [pc, #60]	; (80006e0 <SystemInit+0x104>)
 80006a2:	2200      	movs	r2, #0
 80006a4:	661a      	str	r2, [r3, #96]	; 0x60

  /* Enable CortexM7 HSEM EXTI line (line 78)*/
  EXTI_D2->EMR3 |= 0x4000UL;
 80006a6:	4b13      	ldr	r3, [pc, #76]	; (80006f4 <SystemInit+0x118>)
 80006a8:	6a5b      	ldr	r3, [r3, #36]	; 0x24
 80006aa:	4a12      	ldr	r2, [pc, #72]	; (80006f4 <SystemInit+0x118>)
 80006ac:	f443 4380 	orr.w	r3, r3, #16384	; 0x4000
 80006b0:	6253      	str	r3, [r2, #36]	; 0x24

  if((DBGMCU->IDCODE & 0xFFFF0000U) < 0x20000000U)
 80006b2:	4b11      	ldr	r3, [pc, #68]	; (80006f8 <SystemInit+0x11c>)
 80006b4:	681a      	ldr	r2, [r3, #0]
 80006b6:	4b11      	ldr	r3, [pc, #68]	; (80006fc <SystemInit+0x120>)
 80006b8:	4013      	ands	r3, r2
 80006ba:	f1b3 5f00 	cmp.w	r3, #536870912	; 0x20000000
 80006be:	d202      	bcs.n	80006c6 <SystemInit+0xea>
  {
    /* if stm32h7 revY*/
    /* Change  the switch matrix read issuing capability to 1 for the AXI SRAM target (Target 7) */
    *((__IO uint32_t*)0x51008108) = 0x000000001U;
 80006c0:	4b0f      	ldr	r3, [pc, #60]	; (8000700 <SystemInit+0x124>)
 80006c2:	2201      	movs	r2, #1
 80006c4:	601a      	str	r2, [r3, #0]
  /*
   * Disable the FMC bank1 (enabled after reset).
   * This, prevents CPU speculation access on this bank which blocks the use of FMC during
   * 24us. During this time the others FMC master (such as LTDC) cannot use it!
   */
  FMC_Bank1_R->BTCR[0] = 0x000030D2;
 80006c6:	4b0f      	ldr	r3, [pc, #60]	; (8000704 <SystemInit+0x128>)
 80006c8:	f243 02d2 	movw	r2, #12498	; 0x30d2
 80006cc:	601a      	str	r2, [r3, #0]
#endif /* USER_VECT_TAB_ADDRESS */

#else
#error Please #define CORE_CM4 or CORE_CM7
#endif /* CORE_CM4 */
}
 80006ce:	bf00      	nop
 80006d0:	46bd      	mov	sp, r7
 80006d2:	f85d 7b04 	ldr.w	r7, [sp], #4
 80006d6:	4770      	bx	lr
 80006d8:	e000ed00 	.word	0xe000ed00
 80006dc:	52002000 	.word	0x52002000
 80006e0:	58024400 	.word	0x58024400
 80006e4:	eaf6ed7f 	.word	0xeaf6ed7f
 80006e8:	02020200 	.word	0x02020200
 80006ec:	01ff0000 	.word	0x01ff0000
 80006f0:	01010280 	.word	0x01010280
 80006f4:	580000c0 	.word	0x580000c0
 80006f8:	5c001000 	.word	0x5c001000
 80006fc:	ffff0000 	.word	0xffff0000
 8000700:	51008108 	.word	0x51008108
 8000704:	52004000 	.word	0x52004000

08000708 <main>:
/**
  * @brief  The application entry point.
  * @retval int
  */
int main(void)
{
 8000708:	b580      	push	{r7, lr}
 800070a:	b082      	sub	sp, #8
 800070c:	af00      	add	r7, sp, #0
  int32_t timeout;
/* USER CODE END Boot_Mode_Sequence_0 */

/* USER CODE BEGIN Boot_Mode_Sequence_1 */
  /* Wait until CPU2 boots and enters in stop mode or timeout*/
  timeout = 0xFFFF;
 800070e:	f64f 73ff 	movw	r3, #65535	; 0xffff
 8000712:	607b      	str	r3, [r7, #4]
  while((__HAL_RCC_GET_FLAG(RCC_FLAG_D2CKRDY) != RESET) && (timeout-- > 0));
 8000714:	bf00      	nop
 8000716:	4b35      	ldr	r3, [pc, #212]	; (80007ec <main+0xe4>)
 8000718:	681b      	ldr	r3, [r3, #0]
 800071a:	f403 4300 	and.w	r3, r3, #32768	; 0x8000
 800071e:	2b00      	cmp	r3, #0
 8000720:	d004      	beq.n	800072c <main+0x24>
 8000722:	687b      	ldr	r3, [r7, #4]
 8000724:	1e5a      	subs	r2, r3, #1
 8000726:	607a      	str	r2, [r7, #4]
 8000728:	2b00      	cmp	r3, #0
 800072a:	dcf4      	bgt.n	8000716 <main+0xe>
  if ( timeout < 0 )
 800072c:	687b      	ldr	r3, [r7, #4]
 800072e:	2b00      	cmp	r3, #0
 8000730:	da01      	bge.n	8000736 <main+0x2e>
  {
  Error_Handler();
 8000732:	f000 f975 	bl	8000a20 <Error_Handler>
  }
/* USER CODE END Boot_Mode_Sequence_1 */
  /* MCU Configuration--------------------------------------------------------*/

  /* Reset of all peripherals, Initializes the Flash interface and the Systick. */
  HAL_Init();
 8000736:	f000 fa59 	bl	8000bec <HAL_Init>
  /* USER CODE BEGIN Init */

  /* USER CODE END Init */

  /* Configure the system clock */
  SystemClock_Config();
 800073a:	f000 f85f 	bl	80007fc <SystemClock_Config>
/* USER CODE BEGIN Boot_Mode_Sequence_2 */
/* When system initialization is finished, Cortex-M7 will release Cortex-M4 by means of
HSEM notification */
/*HW semaphore Clock enable*/
__HAL_RCC_HSEM_CLK_ENABLE();
 800073e:	4b2b      	ldr	r3, [pc, #172]	; (80007ec <main+0xe4>)
 8000740:	f8d3 30e0 	ldr.w	r3, [r3, #224]	; 0xe0
 8000744:	4a29      	ldr	r2, [pc, #164]	; (80007ec <main+0xe4>)
 8000746:	f043 7300 	orr.w	r3, r3, #33554432	; 0x2000000
 800074a:	f8c2 30e0 	str.w	r3, [r2, #224]	; 0xe0
 800074e:	4b27      	ldr	r3, [pc, #156]	; (80007ec <main+0xe4>)
 8000750:	f8d3 30e0 	ldr.w	r3, [r3, #224]	; 0xe0
 8000754:	f003 7300 	and.w	r3, r3, #33554432	; 0x2000000
 8000758:	603b      	str	r3, [r7, #0]
 800075a:	683b      	ldr	r3, [r7, #0]
/*Take HSEM */
HAL_HSEM_FastTake(HSEM_ID_0);
 800075c:	2000      	movs	r0, #0
 800075e:	f000 fe1b 	bl	8001398 <HAL_HSEM_FastTake>
/*Release HSEM in order to notify the CPU2(CM4)*/
HAL_HSEM_Release(HSEM_ID_0,0);
 8000762:	2100      	movs	r1, #0
 8000764:	2000      	movs	r0, #0
 8000766:	f000 fe31 	bl	80013cc <HAL_HSEM_Release>
/* wait until CPU2 wakes up from stop mode */
timeout = 0xFFFF;
 800076a:	f64f 73ff 	movw	r3, #65535	; 0xffff
 800076e:	607b      	str	r3, [r7, #4]
while((__HAL_RCC_GET_FLAG(RCC_FLAG_D2CKRDY) == RESET) && (timeout-- > 0));
 8000770:	bf00      	nop
 8000772:	4b1e      	ldr	r3, [pc, #120]	; (80007ec <main+0xe4>)
 8000774:	681b      	ldr	r3, [r3, #0]
 8000776:	f403 4300 	and.w	r3, r3, #32768	; 0x8000
 800077a:	2b00      	cmp	r3, #0
 800077c:	d104      	bne.n	8000788 <main+0x80>
 800077e:	687b      	ldr	r3, [r7, #4]
 8000780:	1e5a      	subs	r2, r3, #1
 8000782:	607a      	str	r2, [r7, #4]
 8000784:	2b00      	cmp	r3, #0
 8000786:	dcf4      	bgt.n	8000772 <main+0x6a>
if ( timeout < 0 )
 8000788:	687b      	ldr	r3, [r7, #4]
 800078a:	2b00      	cmp	r3, #0
 800078c:	da01      	bge.n	8000792 <main+0x8a>
{
Error_Handler();
 800078e:	f000 f947 	bl	8000a20 <Error_Handler>
  /* USER CODE BEGIN SysInit */

  /* USER CODE END SysInit */

  /* Initialize all configured peripherals */
  MX_GPIO_Init();
 8000792:	f000 f8f9 	bl	8000988 <MX_GPIO_Init>
  MX_USART3_UART_Init();
 8000796:	f000 f8ab 	bl	80008f0 <MX_USART3_UART_Init>
  /* USER CODE BEGIN 2 */
HAL_HSEM_ActivateNotification(__HAL_HSEM_SEMID_TO_MASK(HSEM_ID));
 800079a:	f44f 7000 	mov.w	r0, #512	; 0x200
 800079e:	f000 fe29 	bl	80013f4 <HAL_HSEM_ActivateNotification>

  /* Infinite loop */
  /* USER CODE BEGIN WHILE */
  while (1)
  {
	  if(HAL_HSEM_Take(HSEM_ID,HSEM_PROCESS )==HAL_OK)
 80007a2:	2104      	movs	r1, #4
 80007a4:	2009      	movs	r0, #9
 80007a6:	f000 fdd5 	bl	8001354 <HAL_HSEM_Take>
 80007aa:	4603      	mov	r3, r0
 80007ac:	2b00      	cmp	r3, #0
 80007ae:	d110      	bne.n	80007d2 <main+0xca>
	  {
		  semaphore_status=0;
 80007b0:	4b0f      	ldr	r3, [pc, #60]	; (80007f0 <main+0xe8>)
 80007b2:	2200      	movs	r2, #0
 80007b4:	701a      	strb	r2, [r3, #0]
		  HAL_NVIC_DisableIRQ(HSEM1_IRQn);
 80007b6:	207d      	movs	r0, #125	; 0x7d
 80007b8:	f000 fc01 	bl	8000fbe <HAL_NVIC_DisableIRQ>
		  HAL_UART_Transmit(&huart3, "CM7\r\n",6, 200);
 80007bc:	23c8      	movs	r3, #200	; 0xc8
 80007be:	2206      	movs	r2, #6
 80007c0:	490c      	ldr	r1, [pc, #48]	; (80007f4 <main+0xec>)
 80007c2:	480d      	ldr	r0, [pc, #52]	; (80007f8 <main+0xf0>)
 80007c4:	f003 fa0e 	bl	8003be4 <HAL_UART_Transmit>
		  HAL_HSEM_Release(HSEM_ID,HSEM_PROCESS );
 80007c8:	2104      	movs	r1, #4
 80007ca:	2009      	movs	r0, #9
 80007cc:	f000 fdfe 	bl	80013cc <HAL_HSEM_Release>
 80007d0:	e007      	b.n	80007e2 <main+0xda>
	  }
	  else
	  {
		  HAL_NVIC_EnableIRQ(HSEM1_IRQn);
 80007d2:	207d      	movs	r0, #125	; 0x7d
 80007d4:	f000 fbe5 	bl	8000fa2 <HAL_NVIC_EnableIRQ>
		  while(semaphore_status==0);
 80007d8:	bf00      	nop
 80007da:	4b05      	ldr	r3, [pc, #20]	; (80007f0 <main+0xe8>)
 80007dc:	781b      	ldrb	r3, [r3, #0]
 80007de:	2b00      	cmp	r3, #0
 80007e0:	d0fb      	beq.n	80007da <main+0xd2>
	  }
	  HAL_Delay(800);
 80007e2:	f44f 7048 	mov.w	r0, #800	; 0x320
 80007e6:	f000 fa93 	bl	8000d10 <HAL_Delay>
	  if(HAL_HSEM_Take(HSEM_ID,HSEM_PROCESS )==HAL_OK)
 80007ea:	e7da      	b.n	80007a2 <main+0x9a>
 80007ec:	58024400 	.word	0x58024400
 80007f0:	240000bc 	.word	0x240000bc
 80007f4:	08004dc0 	.word	0x08004dc0
 80007f8:	2400002c 	.word	0x2400002c

080007fc <SystemClock_Config>:
/**
  * @brief System Clock Configuration
  * @retval None
  */
void SystemClock_Config(void)
{
 80007fc:	b580      	push	{r7, lr}
 80007fe:	b09c      	sub	sp, #112	; 0x70
 8000800:	af00      	add	r7, sp, #0
  RCC_OscInitTypeDef RCC_OscInitStruct = {0};
 8000802:	f107 0324 	add.w	r3, r7, #36	; 0x24
 8000806:	224c      	movs	r2, #76	; 0x4c
 8000808:	2100      	movs	r1, #0
 800080a:	4618      	mov	r0, r3
 800080c:	f004 fac4 	bl	8004d98 <memset>
  RCC_ClkInitTypeDef RCC_ClkInitStruct = {0};
 8000810:	1d3b      	adds	r3, r7, #4
 8000812:	2220      	movs	r2, #32
 8000814:	2100      	movs	r1, #0
 8000816:	4618      	mov	r0, r3
 8000818:	f004 fabe 	bl	8004d98 <memset>

  /** Supply configuration update enable
  */
  HAL_PWREx_ConfigSupply(PWR_DIRECT_SMPS_SUPPLY);
 800081c:	2004      	movs	r0, #4
 800081e:	f000 fe15 	bl	800144c <HAL_PWREx_ConfigSupply>

  /** Configure the main internal regulator output voltage
  */
  __HAL_PWR_VOLTAGESCALING_CONFIG(PWR_REGULATOR_VOLTAGE_SCALE0);
 8000822:	2300      	movs	r3, #0
 8000824:	603b      	str	r3, [r7, #0]
 8000826:	4b30      	ldr	r3, [pc, #192]	; (80008e8 <SystemClock_Config+0xec>)
 8000828:	699b      	ldr	r3, [r3, #24]
 800082a:	4a2f      	ldr	r2, [pc, #188]	; (80008e8 <SystemClock_Config+0xec>)
 800082c:	f443 4340 	orr.w	r3, r3, #49152	; 0xc000
 8000830:	6193      	str	r3, [r2, #24]
 8000832:	4b2d      	ldr	r3, [pc, #180]	; (80008e8 <SystemClock_Config+0xec>)
 8000834:	699b      	ldr	r3, [r3, #24]
 8000836:	f403 4340 	and.w	r3, r3, #49152	; 0xc000
 800083a:	603b      	str	r3, [r7, #0]
 800083c:	4b2b      	ldr	r3, [pc, #172]	; (80008ec <SystemClock_Config+0xf0>)
 800083e:	6adb      	ldr	r3, [r3, #44]	; 0x2c
 8000840:	4a2a      	ldr	r2, [pc, #168]	; (80008ec <SystemClock_Config+0xf0>)
 8000842:	f043 0301 	orr.w	r3, r3, #1
 8000846:	62d3      	str	r3, [r2, #44]	; 0x2c
 8000848:	4b28      	ldr	r3, [pc, #160]	; (80008ec <SystemClock_Config+0xf0>)
 800084a:	6adb      	ldr	r3, [r3, #44]	; 0x2c
 800084c:	f003 0301 	and.w	r3, r3, #1
 8000850:	603b      	str	r3, [r7, #0]
 8000852:	683b      	ldr	r3, [r7, #0]

  while(!__HAL_PWR_GET_FLAG(PWR_FLAG_VOSRDY)) {}
 8000854:	bf00      	nop
 8000856:	4b24      	ldr	r3, [pc, #144]	; (80008e8 <SystemClock_Config+0xec>)
 8000858:	699b      	ldr	r3, [r3, #24]
 800085a:	f403 5300 	and.w	r3, r3, #8192	; 0x2000
 800085e:	f5b3 5f00 	cmp.w	r3, #8192	; 0x2000
 8000862:	d1f8      	bne.n	8000856 <SystemClock_Config+0x5a>

  /** Initializes the RCC Oscillators according to the specified parameters
  * in the RCC_OscInitTypeDef structure.
  */
  RCC_OscInitStruct.OscillatorType = RCC_OSCILLATORTYPE_HSE;
 8000864:	2301      	movs	r3, #1
 8000866:	627b      	str	r3, [r7, #36]	; 0x24
  RCC_OscInitStruct.HSEState = RCC_HSE_ON;
 8000868:	f44f 3380 	mov.w	r3, #65536	; 0x10000
 800086c:	62bb      	str	r3, [r7, #40]	; 0x28
  RCC_OscInitStruct.PLL.PLLState = RCC_PLL_ON;
 800086e:	2302      	movs	r3, #2
 8000870:	64bb      	str	r3, [r7, #72]	; 0x48
  RCC_OscInitStruct.PLL.PLLSource = RCC_PLLSOURCE_HSE;
 8000872:	2302      	movs	r3, #2
 8000874:	64fb      	str	r3, [r7, #76]	; 0x4c
  RCC_OscInitStruct.PLL.PLLM = 1;
 8000876:	2301      	movs	r3, #1
 8000878:	653b      	str	r3, [r7, #80]	; 0x50
  RCC_OscInitStruct.PLL.PLLN = 120;
 800087a:	2378      	movs	r3, #120	; 0x78
 800087c:	657b      	str	r3, [r7, #84]	; 0x54
  RCC_OscInitStruct.PLL.PLLP = 2;
 800087e:	2302      	movs	r3, #2
 8000880:	65bb      	str	r3, [r7, #88]	; 0x58
  RCC_OscInitStruct.PLL.PLLQ = 2;
 8000882:	2302      	movs	r3, #2
 8000884:	65fb      	str	r3, [r7, #92]	; 0x5c
  RCC_OscInitStruct.PLL.PLLR = 2;
 8000886:	2302      	movs	r3, #2
 8000888:	663b      	str	r3, [r7, #96]	; 0x60
  RCC_OscInitStruct.PLL.PLLRGE = RCC_PLL1VCIRANGE_3;
 800088a:	230c      	movs	r3, #12
 800088c:	667b      	str	r3, [r7, #100]	; 0x64
  RCC_OscInitStruct.PLL.PLLVCOSEL = RCC_PLL1VCOWIDE;
 800088e:	2300      	movs	r3, #0
 8000890:	66bb      	str	r3, [r7, #104]	; 0x68
  RCC_OscInitStruct.PLL.PLLFRACN = 0;
 8000892:	2300      	movs	r3, #0
 8000894:	66fb      	str	r3, [r7, #108]	; 0x6c
  if (HAL_RCC_OscConfig(&RCC_OscInitStruct) != HAL_OK)
 8000896:	f107 0324 	add.w	r3, r7, #36	; 0x24
 800089a:	4618      	mov	r0, r3
 800089c:	f000 fe30 	bl	8001500 <HAL_RCC_OscConfig>
 80008a0:	4603      	mov	r3, r0
 80008a2:	2b00      	cmp	r3, #0
 80008a4:	d001      	beq.n	80008aa <SystemClock_Config+0xae>
  {
    Error_Handler();
 80008a6:	f000 f8bb 	bl	8000a20 <Error_Handler>
  }

  /** Initializes the CPU, AHB and APB buses clocks
  */
  RCC_ClkInitStruct.ClockType = RCC_CLOCKTYPE_HCLK|RCC_CLOCKTYPE_SYSCLK
 80008aa:	233f      	movs	r3, #63	; 0x3f
 80008ac:	607b      	str	r3, [r7, #4]
                              |RCC_CLOCKTYPE_PCLK1|RCC_CLOCKTYPE_PCLK2
                              |RCC_CLOCKTYPE_D3PCLK1|RCC_CLOCKTYPE_D1PCLK1;
  RCC_ClkInitStruct.SYSCLKSource = RCC_SYSCLKSOURCE_PLLCLK;
 80008ae:	2303      	movs	r3, #3
 80008b0:	60bb      	str	r3, [r7, #8]
  RCC_ClkInitStruct.SYSCLKDivider = RCC_SYSCLK_DIV1;
 80008b2:	2300      	movs	r3, #0
 80008b4:	60fb      	str	r3, [r7, #12]
  RCC_ClkInitStruct.AHBCLKDivider = RCC_HCLK_DIV2;
 80008b6:	2308      	movs	r3, #8
 80008b8:	613b      	str	r3, [r7, #16]
  RCC_ClkInitStruct.APB3CLKDivider = RCC_APB3_DIV2;
 80008ba:	2340      	movs	r3, #64	; 0x40
 80008bc:	617b      	str	r3, [r7, #20]
  RCC_ClkInitStruct.APB1CLKDivider = RCC_APB1_DIV2;
 80008be:	2340      	movs	r3, #64	; 0x40
 80008c0:	61bb      	str	r3, [r7, #24]
  RCC_ClkInitStruct.APB2CLKDivider = RCC_APB2_DIV2;
 80008c2:	f44f 6380 	mov.w	r3, #1024	; 0x400
 80008c6:	61fb      	str	r3, [r7, #28]
  RCC_ClkInitStruct.APB4CLKDivider = RCC_APB4_DIV2;
 80008c8:	2340      	movs	r3, #64	; 0x40
 80008ca:	623b      	str	r3, [r7, #32]

  if (HAL_RCC_ClockConfig(&RCC_ClkInitStruct, FLASH_LATENCY_4) != HAL_OK)
 80008cc:	1d3b      	adds	r3, r7, #4
 80008ce:	2104      	movs	r1, #4
 80008d0:	4618      	mov	r0, r3
 80008d2:	f001 fa43 	bl	8001d5c <HAL_RCC_ClockConfig>
 80008d6:	4603      	mov	r3, r0
 80008d8:	2b00      	cmp	r3, #0
 80008da:	d001      	beq.n	80008e0 <SystemClock_Config+0xe4>
  {
    Error_Handler();
 80008dc:	f000 f8a0 	bl	8000a20 <Error_Handler>
  }
}
 80008e0:	bf00      	nop
 80008e2:	3770      	adds	r7, #112	; 0x70
 80008e4:	46bd      	mov	sp, r7
 80008e6:	bd80      	pop	{r7, pc}
 80008e8:	58024800 	.word	0x58024800
 80008ec:	58000400 	.word	0x58000400

080008f0 <MX_USART3_UART_Init>:
  * @brief USART3 Initialization Function
  * @param None
  * @retval None
  */
static void MX_USART3_UART_Init(void)
{
 80008f0:	b580      	push	{r7, lr}
 80008f2:	af00      	add	r7, sp, #0
  /* USER CODE END USART3_Init 0 */

  /* USER CODE BEGIN USART3_Init 1 */

  /* USER CODE END USART3_Init 1 */
  huart3.Instance = USART3;
 80008f4:	4b22      	ldr	r3, [pc, #136]	; (8000980 <MX_USART3_UART_Init+0x90>)
 80008f6:	4a23      	ldr	r2, [pc, #140]	; (8000984 <MX_USART3_UART_Init+0x94>)
 80008f8:	601a      	str	r2, [r3, #0]
  huart3.Init.BaudRate = 115200;
 80008fa:	4b21      	ldr	r3, [pc, #132]	; (8000980 <MX_USART3_UART_Init+0x90>)
 80008fc:	f44f 32e1 	mov.w	r2, #115200	; 0x1c200
 8000900:	605a      	str	r2, [r3, #4]
  huart3.Init.WordLength = UART_WORDLENGTH_8B;
 8000902:	4b1f      	ldr	r3, [pc, #124]	; (8000980 <MX_USART3_UART_Init+0x90>)
 8000904:	2200      	movs	r2, #0
 8000906:	609a      	str	r2, [r3, #8]
  huart3.Init.StopBits = UART_STOPBITS_1;
 8000908:	4b1d      	ldr	r3, [pc, #116]	; (8000980 <MX_USART3_UART_Init+0x90>)
 800090a:	2200      	movs	r2, #0
 800090c:	60da      	str	r2, [r3, #12]
  huart3.Init.Parity = UART_PARITY_NONE;
 800090e:	4b1c      	ldr	r3, [pc, #112]	; (8000980 <MX_USART3_UART_Init+0x90>)
 8000910:	2200      	movs	r2, #0
 8000912:	611a      	str	r2, [r3, #16]
  huart3.Init.Mode = UART_MODE_TX_RX;
 8000914:	4b1a      	ldr	r3, [pc, #104]	; (8000980 <MX_USART3_UART_Init+0x90>)
 8000916:	220c      	movs	r2, #12
 8000918:	615a      	str	r2, [r3, #20]
  huart3.Init.HwFlowCtl = UART_HWCONTROL_NONE;
 800091a:	4b19      	ldr	r3, [pc, #100]	; (8000980 <MX_USART3_UART_Init+0x90>)
 800091c:	2200      	movs	r2, #0
 800091e:	619a      	str	r2, [r3, #24]
  huart3.Init.OverSampling = UART_OVERSAMPLING_16;
 8000920:	4b17      	ldr	r3, [pc, #92]	; (8000980 <MX_USART3_UART_Init+0x90>)
 8000922:	2200      	movs	r2, #0
 8000924:	61da      	str	r2, [r3, #28]
  huart3.Init.OneBitSampling = UART_ONE_BIT_SAMPLE_DISABLE;
 8000926:	4b16      	ldr	r3, [pc, #88]	; (8000980 <MX_USART3_UART_Init+0x90>)
 8000928:	2200      	movs	r2, #0
 800092a:	621a      	str	r2, [r3, #32]
  huart3.Init.ClockPrescaler = UART_PRESCALER_DIV1;
 800092c:	4b14      	ldr	r3, [pc, #80]	; (8000980 <MX_USART3_UART_Init+0x90>)
 800092e:	2200      	movs	r2, #0
 8000930:	625a      	str	r2, [r3, #36]	; 0x24
  huart3.AdvancedInit.AdvFeatureInit = UART_ADVFEATURE_NO_INIT;
 8000932:	4b13      	ldr	r3, [pc, #76]	; (8000980 <MX_USART3_UART_Init+0x90>)
 8000934:	2200      	movs	r2, #0
 8000936:	629a      	str	r2, [r3, #40]	; 0x28
  if (HAL_UART_Init(&huart3) != HAL_OK)
 8000938:	4811      	ldr	r0, [pc, #68]	; (8000980 <MX_USART3_UART_Init+0x90>)
 800093a:	f003 f903 	bl	8003b44 <HAL_UART_Init>
 800093e:	4603      	mov	r3, r0
 8000940:	2b00      	cmp	r3, #0
 8000942:	d001      	beq.n	8000948 <MX_USART3_UART_Init+0x58>
  {
    Error_Handler();
 8000944:	f000 f86c 	bl	8000a20 <Error_Handler>
  }
  if (HAL_UARTEx_SetTxFifoThreshold(&huart3, UART_TXFIFO_THRESHOLD_1_8) != HAL_OK)
 8000948:	2100      	movs	r1, #0
 800094a:	480d      	ldr	r0, [pc, #52]	; (8000980 <MX_USART3_UART_Init+0x90>)
 800094c:	f004 f936 	bl	8004bbc <HAL_UARTEx_SetTxFifoThreshold>
 8000950:	4603      	mov	r3, r0
 8000952:	2b00      	cmp	r3, #0
 8000954:	d001      	beq.n	800095a <MX_USART3_UART_Init+0x6a>
  {
    Error_Handler();
 8000956:	f000 f863 	bl	8000a20 <Error_Handler>
  }
  if (HAL_UARTEx_SetRxFifoThreshold(&huart3, UART_RXFIFO_THRESHOLD_1_8) != HAL_OK)
 800095a:	2100      	movs	r1, #0
 800095c:	4808      	ldr	r0, [pc, #32]	; (8000980 <MX_USART3_UART_Init+0x90>)
 800095e:	f004 f96b 	bl	8004c38 <HAL_UARTEx_SetRxFifoThreshold>
 8000962:	4603      	mov	r3, r0
 8000964:	2b00      	cmp	r3, #0
 8000966:	d001      	beq.n	800096c <MX_USART3_UART_Init+0x7c>
  {
    Error_Handler();
 8000968:	f000 f85a 	bl	8000a20 <Error_Handler>
  }
  if (HAL_UARTEx_DisableFifoMode(&huart3) != HAL_OK)
 800096c:	4804      	ldr	r0, [pc, #16]	; (8000980 <MX_USART3_UART_Init+0x90>)
 800096e:	f004 f8ec 	bl	8004b4a <HAL_UARTEx_DisableFifoMode>
 8000972:	4603      	mov	r3, r0
 8000974:	2b00      	cmp	r3, #0
 8000976:	d001      	beq.n	800097c <MX_USART3_UART_Init+0x8c>
  {
    Error_Handler();
 8000978:	f000 f852 	bl	8000a20 <Error_Handler>
  }
  /* USER CODE BEGIN USART3_Init 2 */

  /* USER CODE END USART3_Init 2 */

}
 800097c:	bf00      	nop
 800097e:	bd80      	pop	{r7, pc}
 8000980:	2400002c 	.word	0x2400002c
 8000984:	40004800 	.word	0x40004800

08000988 <MX_GPIO_Init>:
  * @brief GPIO Initialization Function
  * @param None
  * @retval None
  */
static void MX_GPIO_Init(void)
{
 8000988:	b480      	push	{r7}
 800098a:	b085      	sub	sp, #20
 800098c:	af00      	add	r7, sp, #0

  /* GPIO Ports Clock Enable */
  __HAL_RCC_GPIOH_CLK_ENABLE();
 800098e:	4b19      	ldr	r3, [pc, #100]	; (80009f4 <MX_GPIO_Init+0x6c>)
 8000990:	f8d3 30e0 	ldr.w	r3, [r3, #224]	; 0xe0
 8000994:	4a17      	ldr	r2, [pc, #92]	; (80009f4 <MX_GPIO_Init+0x6c>)
 8000996:	f043 0380 	orr.w	r3, r3, #128	; 0x80
 800099a:	f8c2 30e0 	str.w	r3, [r2, #224]	; 0xe0
 800099e:	4b15      	ldr	r3, [pc, #84]	; (80009f4 <MX_GPIO_Init+0x6c>)
 80009a0:	f8d3 30e0 	ldr.w	r3, [r3, #224]	; 0xe0
 80009a4:	f003 0380 	and.w	r3, r3, #128	; 0x80
 80009a8:	60fb      	str	r3, [r7, #12]
 80009aa:	68fb      	ldr	r3, [r7, #12]
  __HAL_RCC_GPIOD_CLK_ENABLE();
 80009ac:	4b11      	ldr	r3, [pc, #68]	; (80009f4 <MX_GPIO_Init+0x6c>)
 80009ae:	f8d3 30e0 	ldr.w	r3, [r3, #224]	; 0xe0
 80009b2:	4a10      	ldr	r2, [pc, #64]	; (80009f4 <MX_GPIO_Init+0x6c>)
 80009b4:	f043 0308 	orr.w	r3, r3, #8
 80009b8:	f8c2 30e0 	str.w	r3, [r2, #224]	; 0xe0
 80009bc:	4b0d      	ldr	r3, [pc, #52]	; (80009f4 <MX_GPIO_Init+0x6c>)
 80009be:	f8d3 30e0 	ldr.w	r3, [r3, #224]	; 0xe0
 80009c2:	f003 0308 	and.w	r3, r3, #8
 80009c6:	60bb      	str	r3, [r7, #8]
 80009c8:	68bb      	ldr	r3, [r7, #8]
  __HAL_RCC_GPIOA_CLK_ENABLE();
 80009ca:	4b0a      	ldr	r3, [pc, #40]	; (80009f4 <MX_GPIO_Init+0x6c>)
 80009cc:	f8d3 30e0 	ldr.w	r3, [r3, #224]	; 0xe0
 80009d0:	4a08      	ldr	r2, [pc, #32]	; (80009f4 <MX_GPIO_Init+0x6c>)
 80009d2:	f043 0301 	orr.w	r3, r3, #1
 80009d6:	f8c2 30e0 	str.w	r3, [r2, #224]	; 0xe0
 80009da:	4b06      	ldr	r3, [pc, #24]	; (80009f4 <MX_GPIO_Init+0x6c>)
 80009dc:	f8d3 30e0 	ldr.w	r3, [r3, #224]	; 0xe0
 80009e0:	f003 0301 	and.w	r3, r3, #1
 80009e4:	607b      	str	r3, [r7, #4]
 80009e6:	687b      	ldr	r3, [r7, #4]

}
 80009e8:	bf00      	nop
 80009ea:	3714      	adds	r7, #20
 80009ec:	46bd      	mov	sp, r7
 80009ee:	f85d 7b04 	ldr.w	r7, [sp], #4
 80009f2:	4770      	bx	lr
 80009f4:	58024400 	.word	0x58024400

080009f8 <HAL_HSEM_FreeCallback>:

/* USER CODE BEGIN 4 */
void HAL_HSEM_FreeCallback(uint32_t SemMask)
{
 80009f8:	b480      	push	{r7}
 80009fa:	b083      	sub	sp, #12
 80009fc:	af00      	add	r7, sp, #0
 80009fe:	6078      	str	r0, [r7, #4]
	if((SemMask &__HAL_HSEM_SEMID_TO_MASK(HSEM_ID))!=0)
 8000a00:	687b      	ldr	r3, [r7, #4]
 8000a02:	f403 7300 	and.w	r3, r3, #512	; 0x200
 8000a06:	2b00      	cmp	r3, #0
 8000a08:	d002      	beq.n	8000a10 <HAL_HSEM_FreeCallback+0x18>
	semaphore_status=1;
 8000a0a:	4b04      	ldr	r3, [pc, #16]	; (8000a1c <HAL_HSEM_FreeCallback+0x24>)
 8000a0c:	2201      	movs	r2, #1
 8000a0e:	701a      	strb	r2, [r3, #0]
}
 8000a10:	bf00      	nop
 8000a12:	370c      	adds	r7, #12
 8000a14:	46bd      	mov	sp, r7
 8000a16:	f85d 7b04 	ldr.w	r7, [sp], #4
 8000a1a:	4770      	bx	lr
 8000a1c:	240000bc 	.word	0x240000bc

08000a20 <Error_Handler>:
/**
  * @brief  This function is executed in case of error occurrence.
  * @retval None
  */
void Error_Handler(void)
{
 8000a20:	b480      	push	{r7}
 8000a22:	af00      	add	r7, sp, #0
  \details Disables IRQ interrupts by setting the I-bit in the CPSR.
           Can only be executed in Privileged modes.
 */
__STATIC_FORCEINLINE void __disable_irq(void)
{
  __ASM volatile ("cpsid i" : : : "memory");
 8000a24:	b672      	cpsid	i
}
 8000a26:	bf00      	nop
  /* USER CODE BEGIN Error_Handler_Debug */
  /* User can add his own implementation to report the HAL error return state */
  __disable_irq();
  while (1)
 8000a28:	e7fe      	b.n	8000a28 <Error_Handler+0x8>
	...

08000a2c <HAL_MspInit>:
/* USER CODE END 0 */
/**
  * Initializes the Global MSP.
  */
void HAL_MspInit(void)
{
 8000a2c:	b580      	push	{r7, lr}
 8000a2e:	b082      	sub	sp, #8
 8000a30:	af00      	add	r7, sp, #0
  /* USER CODE BEGIN MspInit 0 */

  /* USER CODE END MspInit 0 */

  __HAL_RCC_SYSCFG_CLK_ENABLE();
 8000a32:	4b0d      	ldr	r3, [pc, #52]	; (8000a68 <HAL_MspInit+0x3c>)
 8000a34:	f8d3 30f4 	ldr.w	r3, [r3, #244]	; 0xf4
 8000a38:	4a0b      	ldr	r2, [pc, #44]	; (8000a68 <HAL_MspInit+0x3c>)
 8000a3a:	f043 0302 	orr.w	r3, r3, #2
 8000a3e:	f8c2 30f4 	str.w	r3, [r2, #244]	; 0xf4
 8000a42:	4b09      	ldr	r3, [pc, #36]	; (8000a68 <HAL_MspInit+0x3c>)
 8000a44:	f8d3 30f4 	ldr.w	r3, [r3, #244]	; 0xf4
 8000a48:	f003 0302 	and.w	r3, r3, #2
 8000a4c:	607b      	str	r3, [r7, #4]
 8000a4e:	687b      	ldr	r3, [r7, #4]

  /* System interrupt init*/

  /* Peripheral interrupt init */
  /* HSEM1_IRQn interrupt configuration */
  HAL_NVIC_SetPriority(HSEM1_IRQn, 0, 0);
 8000a50:	2200      	movs	r2, #0
 8000a52:	2100      	movs	r1, #0
 8000a54:	207d      	movs	r0, #125	; 0x7d
 8000a56:	f000 fa8a 	bl	8000f6e <HAL_NVIC_SetPriority>
  /* HSEM1_IRQn interrupt configuration */
  HAL_NVIC_EnableIRQ(HSEM1_IRQn);
 8000a5a:	207d      	movs	r0, #125	; 0x7d
 8000a5c:	f000 faa1 	bl	8000fa2 <HAL_NVIC_EnableIRQ>

  /* USER CODE BEGIN MspInit 1 */

  /* USER CODE END MspInit 1 */
}
 8000a60:	bf00      	nop
 8000a62:	3708      	adds	r7, #8
 8000a64:	46bd      	mov	sp, r7
 8000a66:	bd80      	pop	{r7, pc}
 8000a68:	58024400 	.word	0x58024400

08000a6c <HAL_UART_MspInit>:
* This function configures the hardware resources used in this example
* @param huart: UART handle pointer
* @retval None
*/
void HAL_UART_MspInit(UART_HandleTypeDef* huart)
{
 8000a6c:	b580      	push	{r7, lr}
 8000a6e:	b0b8      	sub	sp, #224	; 0xe0
 8000a70:	af00      	add	r7, sp, #0
 8000a72:	6078      	str	r0, [r7, #4]
  GPIO_InitTypeDef GPIO_InitStruct = {0};
 8000a74:	f107 03cc 	add.w	r3, r7, #204	; 0xcc
 8000a78:	2200      	movs	r2, #0
 8000a7a:	601a      	str	r2, [r3, #0]
 8000a7c:	605a      	str	r2, [r3, #4]
 8000a7e:	609a      	str	r2, [r3, #8]
 8000a80:	60da      	str	r2, [r3, #12]
 8000a82:	611a      	str	r2, [r3, #16]
  RCC_PeriphCLKInitTypeDef PeriphClkInitStruct = {0};
 8000a84:	f107 0310 	add.w	r3, r7, #16
 8000a88:	22bc      	movs	r2, #188	; 0xbc
 8000a8a:	2100      	movs	r1, #0
 8000a8c:	4618      	mov	r0, r3
 8000a8e:	f004 f983 	bl	8004d98 <memset>
  if(huart->Instance==USART3)
 8000a92:	687b      	ldr	r3, [r7, #4]
 8000a94:	681b      	ldr	r3, [r3, #0]
 8000a96:	4a25      	ldr	r2, [pc, #148]	; (8000b2c <HAL_UART_MspInit+0xc0>)
 8000a98:	4293      	cmp	r3, r2
 8000a9a:	d142      	bne.n	8000b22 <HAL_UART_MspInit+0xb6>

  /* USER CODE END USART3_MspInit 0 */

  /** Initializes the peripherals clock
  */
    PeriphClkInitStruct.PeriphClockSelection = RCC_PERIPHCLK_USART3;
 8000a9c:	2302      	movs	r3, #2
 8000a9e:	613b      	str	r3, [r7, #16]
    PeriphClkInitStruct.Usart234578ClockSelection = RCC_USART234578CLKSOURCE_D2PCLK1;
 8000aa0:	2300      	movs	r3, #0
 8000aa2:	f8c7 3084 	str.w	r3, [r7, #132]	; 0x84
    if (HAL_RCCEx_PeriphCLKConfig(&PeriphClkInitStruct) != HAL_OK)
 8000aa6:	f107 0310 	add.w	r3, r7, #16
 8000aaa:	4618      	mov	r0, r3
 8000aac:	f001 fce2 	bl	8002474 <HAL_RCCEx_PeriphCLKConfig>
 8000ab0:	4603      	mov	r3, r0
 8000ab2:	2b00      	cmp	r3, #0
 8000ab4:	d001      	beq.n	8000aba <HAL_UART_MspInit+0x4e>
    {
      Error_Handler();
 8000ab6:	f7ff ffb3 	bl	8000a20 <Error_Handler>
    }

    /* Peripheral clock enable */
    __HAL_RCC_USART3_CLK_ENABLE();
 8000aba:	4b1d      	ldr	r3, [pc, #116]	; (8000b30 <HAL_UART_MspInit+0xc4>)
 8000abc:	f8d3 30e8 	ldr.w	r3, [r3, #232]	; 0xe8
 8000ac0:	4a1b      	ldr	r2, [pc, #108]	; (8000b30 <HAL_UART_MspInit+0xc4>)
 8000ac2:	f443 2380 	orr.w	r3, r3, #262144	; 0x40000
 8000ac6:	f8c2 30e8 	str.w	r3, [r2, #232]	; 0xe8
 8000aca:	4b19      	ldr	r3, [pc, #100]	; (8000b30 <HAL_UART_MspInit+0xc4>)
 8000acc:	f8d3 30e8 	ldr.w	r3, [r3, #232]	; 0xe8
 8000ad0:	f403 2380 	and.w	r3, r3, #262144	; 0x40000
 8000ad4:	60fb      	str	r3, [r7, #12]
 8000ad6:	68fb      	ldr	r3, [r7, #12]

    __HAL_RCC_GPIOD_CLK_ENABLE();
 8000ad8:	4b15      	ldr	r3, [pc, #84]	; (8000b30 <HAL_UART_MspInit+0xc4>)
 8000ada:	f8d3 30e0 	ldr.w	r3, [r3, #224]	; 0xe0
 8000ade:	4a14      	ldr	r2, [pc, #80]	; (8000b30 <HAL_UART_MspInit+0xc4>)
 8000ae0:	f043 0308 	orr.w	r3, r3, #8
 8000ae4:	f8c2 30e0 	str.w	r3, [r2, #224]	; 0xe0
 8000ae8:	4b11      	ldr	r3, [pc, #68]	; (8000b30 <HAL_UART_MspInit+0xc4>)
 8000aea:	f8d3 30e0 	ldr.w	r3, [r3, #224]	; 0xe0
 8000aee:	f003 0308 	and.w	r3, r3, #8
 8000af2:	60bb      	str	r3, [r7, #8]
 8000af4:	68bb      	ldr	r3, [r7, #8]
    /**USART3 GPIO Configuration
    PD8     ------> USART3_TX
    PD9     ------> USART3_RX
    */
    GPIO_InitStruct.Pin = GPIO_PIN_8|GPIO_PIN_9;
 8000af6:	f44f 7340 	mov.w	r3, #768	; 0x300
 8000afa:	f8c7 30cc 	str.w	r3, [r7, #204]	; 0xcc
    GPIO_InitStruct.Mode = GPIO_MODE_AF_PP;
 8000afe:	2302      	movs	r3, #2
 8000b00:	f8c7 30d0 	str.w	r3, [r7, #208]	; 0xd0
    GPIO_InitStruct.Pull = GPIO_NOPULL;
 8000b04:	2300      	movs	r3, #0
 8000b06:	f8c7 30d4 	str.w	r3, [r7, #212]	; 0xd4
    GPIO_InitStruct.Speed = GPIO_SPEED_FREQ_LOW;
 8000b0a:	2300      	movs	r3, #0
 8000b0c:	f8c7 30d8 	str.w	r3, [r7, #216]	; 0xd8
    GPIO_InitStruct.Alternate = GPIO_AF7_USART3;
 8000b10:	2307      	movs	r3, #7
 8000b12:	f8c7 30dc 	str.w	r3, [r7, #220]	; 0xdc
    HAL_GPIO_Init(GPIOD, &GPIO_InitStruct);
 8000b16:	f107 03cc 	add.w	r3, r7, #204	; 0xcc
 8000b1a:	4619      	mov	r1, r3
 8000b1c:	4805      	ldr	r0, [pc, #20]	; (8000b34 <HAL_UART_MspInit+0xc8>)
 8000b1e:	f000 fa69 	bl	8000ff4 <HAL_GPIO_Init>
  /* USER CODE BEGIN USART3_MspInit 1 */

  /* USER CODE END USART3_MspInit 1 */
  }

}
 8000b22:	bf00      	nop
 8000b24:	37e0      	adds	r7, #224	; 0xe0
 8000b26:	46bd      	mov	sp, r7
 8000b28:	bd80      	pop	{r7, pc}
 8000b2a:	bf00      	nop
 8000b2c:	40004800 	.word	0x40004800
 8000b30:	58024400 	.word	0x58024400
 8000b34:	58020c00 	.word	0x58020c00

08000b38 <NMI_Handler>:
/******************************************************************************/
/**
  * @brief This function handles Non maskable interrupt.
  */
void NMI_Handler(void)
{
 8000b38:	b480      	push	{r7}
 8000b3a:	af00      	add	r7, sp, #0
  /* USER CODE BEGIN NonMaskableInt_IRQn 0 */

  /* USER CODE END NonMaskableInt_IRQn 0 */
  /* USER CODE BEGIN NonMaskableInt_IRQn 1 */
  while (1)
 8000b3c:	e7fe      	b.n	8000b3c <NMI_Handler+0x4>

08000b3e <HardFault_Handler>:

/**
  * @brief This function handles Hard fault interrupt.
  */
void HardFault_Handler(void)
{
 8000b3e:	b480      	push	{r7}
 8000b40:	af00      	add	r7, sp, #0
  /* USER CODE BEGIN HardFault_IRQn 0 */

  /* USER CODE END HardFault_IRQn 0 */
  while (1)
 8000b42:	e7fe      	b.n	8000b42 <HardFault_Handler+0x4>

08000b44 <MemManage_Handler>:

/**
  * @brief This function handles Memory management fault.
  */
void MemManage_Handler(void)
{
 8000b44:	b480      	push	{r7}
 8000b46:	af00      	add	r7, sp, #0
  /* USER CODE BEGIN MemoryManagement_IRQn 0 */

  /* USER CODE END MemoryManagement_IRQn 0 */
  while (1)
 8000b48:	e7fe      	b.n	8000b48 <MemManage_Handler+0x4>

08000b4a <BusFault_Handler>:

/**
  * @brief This function handles Pre-fetch fault, memory access fault.
  */
void BusFault_Handler(void)
{
 8000b4a:	b480      	push	{r7}
 8000b4c:	af00      	add	r7, sp, #0
  /* USER CODE BEGIN BusFault_IRQn 0 */

  /* USER CODE END BusFault_IRQn 0 */
  while (1)
 8000b4e:	e7fe      	b.n	8000b4e <BusFault_Handler+0x4>

08000b50 <UsageFault_Handler>:

/**
  * @brief This function handles Undefined instruction or illegal state.
  */
void UsageFault_Handler(void)
{
 8000b50:	b480      	push	{r7}
 8000b52:	af00      	add	r7, sp, #0
  /* USER CODE BEGIN UsageFault_IRQn 0 */

  /* USER CODE END UsageFault_IRQn 0 */
  while (1)
 8000b54:	e7fe      	b.n	8000b54 <UsageFault_Handler+0x4>

08000b56 <SVC_Handler>:

/**
  * @brief This function handles System service call via SWI instruction.
  */
void SVC_Handler(void)
{
 8000b56:	b480      	push	{r7}
 8000b58:	af00      	add	r7, sp, #0

  /* USER CODE END SVCall_IRQn 0 */
  /* USER CODE BEGIN SVCall_IRQn 1 */

  /* USER CODE END SVCall_IRQn 1 */
}
 8000b5a:	bf00      	nop
 8000b5c:	46bd      	mov	sp, r7
 8000b5e:	f85d 7b04 	ldr.w	r7, [sp], #4
 8000b62:	4770      	bx	lr

08000b64 <DebugMon_Handler>:

/**
  * @brief This function handles Debug monitor.
  */
void DebugMon_Handler(void)
{
 8000b64:	b480      	push	{r7}
 8000b66:	af00      	add	r7, sp, #0

  /* USER CODE END DebugMonitor_IRQn 0 */
  /* USER CODE BEGIN DebugMonitor_IRQn 1 */

  /* USER CODE END DebugMonitor_IRQn 1 */
}
 8000b68:	bf00      	nop
 8000b6a:	46bd      	mov	sp, r7
 8000b6c:	f85d 7b04 	ldr.w	r7, [sp], #4
 8000b70:	4770      	bx	lr

08000b72 <PendSV_Handler>:

/**
  * @brief This function handles Pendable request for system service.
  */
void PendSV_Handler(void)
{
 8000b72:	b480      	push	{r7}
 8000b74:	af00      	add	r7, sp, #0

  /* USER CODE END PendSV_IRQn 0 */
  /* USER CODE BEGIN PendSV_IRQn 1 */

  /* USER CODE END PendSV_IRQn 1 */
}
 8000b76:	bf00      	nop
 8000b78:	46bd      	mov	sp, r7
 8000b7a:	f85d 7b04 	ldr.w	r7, [sp], #4
 8000b7e:	4770      	bx	lr

08000b80 <SysTick_Handler>:

/**
  * @brief This function handles System tick timer.
  */
void SysTick_Handler(void)
{
 8000b80:	b580      	push	{r7, lr}
 8000b82:	af00      	add	r7, sp, #0
  /* USER CODE BEGIN SysTick_IRQn 0 */

  /* USER CODE END SysTick_IRQn 0 */
  HAL_IncTick();
 8000b84:	f000 f8a4 	bl	8000cd0 <HAL_IncTick>
  /* USER CODE BEGIN SysTick_IRQn 1 */

  /* USER CODE END SysTick_IRQn 1 */
}
 8000b88:	bf00      	nop
 8000b8a:	bd80      	pop	{r7, pc}

08000b8c <HSEM1_IRQHandler>:

/**
  * @brief This function handles HSEM1 global interrupt.
  */
void HSEM1_IRQHandler(void)
{
 8000b8c:	b580      	push	{r7, lr}
 8000b8e:	af00      	add	r7, sp, #0
  /* USER CODE BEGIN HSEM1_IRQn 0 */

  /* USER CODE END HSEM1_IRQn 0 */
  HAL_HSEM_IRQHandler();
 8000b90:	f000 fc42 	bl	8001418 <HAL_HSEM_IRQHandler>
  /* USER CODE BEGIN HSEM1_IRQn 1 */

  /* USER CODE END HSEM1_IRQn 1 */
}
 8000b94:	bf00      	nop
 8000b96:	bd80      	pop	{r7, pc}

08000b98 <Reset_Handler>:

    .section  .text.Reset_Handler
  .weak  Reset_Handler
  .type  Reset_Handler, %function
Reset_Handler:
  ldr   sp, =_estack      /* set stack pointer */
 8000b98:	f8df d034 	ldr.w	sp, [pc, #52]	; 8000bd0 <LoopFillZerobss+0xe>

/* Call the clock system initialization function.*/
  bl  SystemInit
 8000b9c:	f7ff fd1e 	bl	80005dc <SystemInit>

/* Copy the data segment initializers from flash to SRAM */
  ldr r0, =_sdata
 8000ba0:	480c      	ldr	r0, [pc, #48]	; (8000bd4 <LoopFillZerobss+0x12>)
  ldr r1, =_edata
 8000ba2:	490d      	ldr	r1, [pc, #52]	; (8000bd8 <LoopFillZerobss+0x16>)
  ldr r2, =_sidata
 8000ba4:	4a0d      	ldr	r2, [pc, #52]	; (8000bdc <LoopFillZerobss+0x1a>)
  movs r3, #0
 8000ba6:	2300      	movs	r3, #0
  b LoopCopyDataInit
 8000ba8:	e002      	b.n	8000bb0 <LoopCopyDataInit>

08000baa <CopyDataInit>:

CopyDataInit:
  ldr r4, [r2, r3]
 8000baa:	58d4      	ldr	r4, [r2, r3]
  str r4, [r0, r3]
 8000bac:	50c4      	str	r4, [r0, r3]
  adds r3, r3, #4
 8000bae:	3304      	adds	r3, #4

08000bb0 <LoopCopyDataInit>:

LoopCopyDataInit:
  adds r4, r0, r3
 8000bb0:	18c4      	adds	r4, r0, r3
  cmp r4, r1
 8000bb2:	428c      	cmp	r4, r1
  bcc CopyDataInit
 8000bb4:	d3f9      	bcc.n	8000baa <CopyDataInit>
/* Zero fill the bss segment. */
  ldr r2, =_sbss
 8000bb6:	4a0a      	ldr	r2, [pc, #40]	; (8000be0 <LoopFillZerobss+0x1e>)
  ldr r4, =_ebss
 8000bb8:	4c0a      	ldr	r4, [pc, #40]	; (8000be4 <LoopFillZerobss+0x22>)
  movs r3, #0
 8000bba:	2300      	movs	r3, #0
  b LoopFillZerobss
 8000bbc:	e001      	b.n	8000bc2 <LoopFillZerobss>

08000bbe <FillZerobss>:

FillZerobss:
  str  r3, [r2]
 8000bbe:	6013      	str	r3, [r2, #0]
  adds r2, r2, #4
 8000bc0:	3204      	adds	r2, #4

08000bc2 <LoopFillZerobss>:

LoopFillZerobss:
  cmp r2, r4
 8000bc2:	42a2      	cmp	r2, r4
  bcc FillZerobss
 8000bc4:	d3fb      	bcc.n	8000bbe <FillZerobss>

/* Call static constructors */
    bl __libc_init_array
 8000bc6:	f004 f8c3 	bl	8004d50 <__libc_init_array>
/* Call the application's entry point.*/
  bl  main
 8000bca:	f7ff fd9d 	bl	8000708 <main>
  bx  lr
 8000bce:	4770      	bx	lr
  ldr   sp, =_estack      /* set stack pointer */
 8000bd0:	24080000 	.word	0x24080000
  ldr r0, =_sdata
 8000bd4:	24000000 	.word	0x24000000
  ldr r1, =_edata
 8000bd8:	24000010 	.word	0x24000010
  ldr r2, =_sidata
 8000bdc:	08004e10 	.word	0x08004e10
  ldr r2, =_sbss
 8000be0:	24000010 	.word	0x24000010
  ldr r4, =_ebss
 8000be4:	240000c4 	.word	0x240000c4

08000be8 <ADC3_IRQHandler>:
 * @retval None
*/
    .section  .text.Default_Handler,"ax",%progbits
Default_Handler:
Infinite_Loop:
  b  Infinite_Loop
 8000be8:	e7fe      	b.n	8000be8 <ADC3_IRQHandler>
	...

08000bec <HAL_Init>:
  *         need to ensure that the SysTick time base is always set to 1 millisecond
  *         to have correct HAL operation.
  * @retval HAL status
  */
HAL_StatusTypeDef HAL_Init(void)
{
 8000bec:	b580      	push	{r7, lr}
 8000bee:	b082      	sub	sp, #8
 8000bf0:	af00      	add	r7, sp, #0
   __HAL_ART_CONFIG_BASE_ADDRESS(0x08100000UL);  /* Configure the Cortex-M4 ART Base address to the Flash Bank 2 : */
   __HAL_ART_ENABLE();                           /* Enable the Cortex-M4 ART */
#endif /* DUAL_CORE &&  CORE_CM4 */

  /* Set Interrupt Group Priority */
  HAL_NVIC_SetPriorityGrouping(NVIC_PRIORITYGROUP_4);
 8000bf2:	2003      	movs	r0, #3
 8000bf4:	f000 f9b0 	bl	8000f58 <HAL_NVIC_SetPriorityGrouping>

  /* Update the SystemCoreClock global variable */
#if defined(RCC_D1CFGR_D1CPRE)
  common_system_clock = HAL_RCC_GetSysClockFreq() >> ((D1CorePrescTable[(RCC->D1CFGR & RCC_D1CFGR_D1CPRE)>> RCC_D1CFGR_D1CPRE_Pos]) & 0x1FU);
 8000bf8:	f001 fa66 	bl	80020c8 <HAL_RCC_GetSysClockFreq>
 8000bfc:	4602      	mov	r2, r0
 8000bfe:	4b15      	ldr	r3, [pc, #84]	; (8000c54 <HAL_Init+0x68>)
 8000c00:	699b      	ldr	r3, [r3, #24]
 8000c02:	0a1b      	lsrs	r3, r3, #8
 8000c04:	f003 030f 	and.w	r3, r3, #15
 8000c08:	4913      	ldr	r1, [pc, #76]	; (8000c58 <HAL_Init+0x6c>)
 8000c0a:	5ccb      	ldrb	r3, [r1, r3]
 8000c0c:	f003 031f 	and.w	r3, r3, #31
 8000c10:	fa22 f303 	lsr.w	r3, r2, r3
 8000c14:	607b      	str	r3, [r7, #4]
  common_system_clock = HAL_RCC_GetSysClockFreq() >> ((D1CorePrescTable[(RCC->CDCFGR1 & RCC_CDCFGR1_CDCPRE)>> RCC_CDCFGR1_CDCPRE_Pos]) & 0x1FU);
#endif

  /* Update the SystemD2Clock global variable */
#if defined(RCC_D1CFGR_HPRE)
  SystemD2Clock = (common_system_clock >> ((D1CorePrescTable[(RCC->D1CFGR & RCC_D1CFGR_HPRE)>> RCC_D1CFGR_HPRE_Pos]) & 0x1FU));
 8000c16:	4b0f      	ldr	r3, [pc, #60]	; (8000c54 <HAL_Init+0x68>)
 8000c18:	699b      	ldr	r3, [r3, #24]
 8000c1a:	f003 030f 	and.w	r3, r3, #15
 8000c1e:	4a0e      	ldr	r2, [pc, #56]	; (8000c58 <HAL_Init+0x6c>)
 8000c20:	5cd3      	ldrb	r3, [r2, r3]
 8000c22:	f003 031f 	and.w	r3, r3, #31
 8000c26:	687a      	ldr	r2, [r7, #4]
 8000c28:	fa22 f303 	lsr.w	r3, r2, r3
 8000c2c:	4a0b      	ldr	r2, [pc, #44]	; (8000c5c <HAL_Init+0x70>)
 8000c2e:	6013      	str	r3, [r2, #0]
#endif

#if defined(DUAL_CORE) && defined(CORE_CM4)
  SystemCoreClock = SystemD2Clock;
#else
  SystemCoreClock = common_system_clock;
 8000c30:	4a0b      	ldr	r2, [pc, #44]	; (8000c60 <HAL_Init+0x74>)
 8000c32:	687b      	ldr	r3, [r7, #4]
 8000c34:	6013      	str	r3, [r2, #0]
#endif /* DUAL_CORE && CORE_CM4 */

  /* Use systick as time base source and configure 1ms tick (default clock after Reset is HSI) */
  if(HAL_InitTick(TICK_INT_PRIORITY) != HAL_OK)
 8000c36:	2000      	movs	r0, #0
 8000c38:	f000 f814 	bl	8000c64 <HAL_InitTick>
 8000c3c:	4603      	mov	r3, r0
 8000c3e:	2b00      	cmp	r3, #0
 8000c40:	d001      	beq.n	8000c46 <HAL_Init+0x5a>
  {
    return HAL_ERROR;
 8000c42:	2301      	movs	r3, #1
 8000c44:	e002      	b.n	8000c4c <HAL_Init+0x60>
  }

  /* Init the low level hardware */
  HAL_MspInit();
 8000c46:	f7ff fef1 	bl	8000a2c <HAL_MspInit>

  /* Return function status */
  return HAL_OK;
 8000c4a:	2300      	movs	r3, #0
}
 8000c4c:	4618      	mov	r0, r3
 8000c4e:	3708      	adds	r7, #8
 8000c50:	46bd      	mov	sp, r7
 8000c52:	bd80      	pop	{r7, pc}
 8000c54:	58024400 	.word	0x58024400
 8000c58:	08004dc8 	.word	0x08004dc8
 8000c5c:	24000004 	.word	0x24000004
 8000c60:	24000000 	.word	0x24000000

08000c64 <HAL_InitTick>:
  *       implementation  in user file.
  * @param TickPriority: Tick interrupt priority.
  * @retval HAL status
  */
__weak HAL_StatusTypeDef HAL_InitTick(uint32_t TickPriority)
{
 8000c64:	b580      	push	{r7, lr}
 8000c66:	b082      	sub	sp, #8
 8000c68:	af00      	add	r7, sp, #0
 8000c6a:	6078      	str	r0, [r7, #4]
  /* Check uwTickFreq for MisraC 2012 (even if uwTickFreq is a enum type that don't take the value zero)*/
  if((uint32_t)uwTickFreq == 0UL)
 8000c6c:	4b15      	ldr	r3, [pc, #84]	; (8000cc4 <HAL_InitTick+0x60>)
 8000c6e:	781b      	ldrb	r3, [r3, #0]
 8000c70:	2b00      	cmp	r3, #0
 8000c72:	d101      	bne.n	8000c78 <HAL_InitTick+0x14>
  {
    return HAL_ERROR;
 8000c74:	2301      	movs	r3, #1
 8000c76:	e021      	b.n	8000cbc <HAL_InitTick+0x58>
  }

    /* Configure the SysTick to have interrupt in 1ms time basis*/
    if (HAL_SYSTICK_Config(SystemCoreClock / (1000UL / (uint32_t)uwTickFreq)) > 0U)
 8000c78:	4b13      	ldr	r3, [pc, #76]	; (8000cc8 <HAL_InitTick+0x64>)
 8000c7a:	681a      	ldr	r2, [r3, #0]
 8000c7c:	4b11      	ldr	r3, [pc, #68]	; (8000cc4 <HAL_InitTick+0x60>)
 8000c7e:	781b      	ldrb	r3, [r3, #0]
 8000c80:	4619      	mov	r1, r3
 8000c82:	f44f 737a 	mov.w	r3, #1000	; 0x3e8
 8000c86:	fbb3 f3f1 	udiv	r3, r3, r1
 8000c8a:	fbb2 f3f3 	udiv	r3, r2, r3
 8000c8e:	4618      	mov	r0, r3
 8000c90:	f000 f9a3 	bl	8000fda <HAL_SYSTICK_Config>
 8000c94:	4603      	mov	r3, r0
 8000c96:	2b00      	cmp	r3, #0
 8000c98:	d001      	beq.n	8000c9e <HAL_InitTick+0x3a>
    {
      return HAL_ERROR;
 8000c9a:	2301      	movs	r3, #1
 8000c9c:	e00e      	b.n	8000cbc <HAL_InitTick+0x58>
    }

  /* Configure the SysTick IRQ priority */
  if (TickPriority < (1UL << __NVIC_PRIO_BITS))
 8000c9e:	687b      	ldr	r3, [r7, #4]
 8000ca0:	2b0f      	cmp	r3, #15
 8000ca2:	d80a      	bhi.n	8000cba <HAL_InitTick+0x56>
  {
    HAL_NVIC_SetPriority(SysTick_IRQn, TickPriority, 0U);
 8000ca4:	2200      	movs	r2, #0
 8000ca6:	6879      	ldr	r1, [r7, #4]
 8000ca8:	f04f 30ff 	mov.w	r0, #4294967295
 8000cac:	f000 f95f 	bl	8000f6e <HAL_NVIC_SetPriority>
    uwTickPrio = TickPriority;
 8000cb0:	4a06      	ldr	r2, [pc, #24]	; (8000ccc <HAL_InitTick+0x68>)
 8000cb2:	687b      	ldr	r3, [r7, #4]
 8000cb4:	6013      	str	r3, [r2, #0]
  {
    return HAL_ERROR;
  }

  /* Return function status */
  return HAL_OK;
 8000cb6:	2300      	movs	r3, #0
 8000cb8:	e000      	b.n	8000cbc <HAL_InitTick+0x58>
    return HAL_ERROR;
 8000cba:	2301      	movs	r3, #1
}
 8000cbc:	4618      	mov	r0, r3
 8000cbe:	3708      	adds	r7, #8
 8000cc0:	46bd      	mov	sp, r7
 8000cc2:	bd80      	pop	{r7, pc}
 8000cc4:	2400000c 	.word	0x2400000c
 8000cc8:	24000000 	.word	0x24000000
 8000ccc:	24000008 	.word	0x24000008

08000cd0 <HAL_IncTick>:
 * @note This function is declared as __weak to be overwritten in case of other
  *      implementations in user file.
  * @retval None
  */
__weak void HAL_IncTick(void)
{
 8000cd0:	b480      	push	{r7}
 8000cd2:	af00      	add	r7, sp, #0
  uwTick += (uint32_t)uwTickFreq;
 8000cd4:	4b06      	ldr	r3, [pc, #24]	; (8000cf0 <HAL_IncTick+0x20>)
 8000cd6:	781b      	ldrb	r3, [r3, #0]
 8000cd8:	461a      	mov	r2, r3
 8000cda:	4b06      	ldr	r3, [pc, #24]	; (8000cf4 <HAL_IncTick+0x24>)
 8000cdc:	681b      	ldr	r3, [r3, #0]
 8000cde:	4413      	add	r3, r2
 8000ce0:	4a04      	ldr	r2, [pc, #16]	; (8000cf4 <HAL_IncTick+0x24>)
 8000ce2:	6013      	str	r3, [r2, #0]
}
 8000ce4:	bf00      	nop
 8000ce6:	46bd      	mov	sp, r7
 8000ce8:	f85d 7b04 	ldr.w	r7, [sp], #4
 8000cec:	4770      	bx	lr
 8000cee:	bf00      	nop
 8000cf0:	2400000c 	.word	0x2400000c
 8000cf4:	240000c0 	.word	0x240000c0

08000cf8 <HAL_GetTick>:
  * @note This function is declared as __weak to be overwritten in case of other
  *       implementations in user file.
  * @retval tick value
  */
__weak uint32_t HAL_GetTick(void)
{
 8000cf8:	b480      	push	{r7}
 8000cfa:	af00      	add	r7, sp, #0
  return uwTick;
 8000cfc:	4b03      	ldr	r3, [pc, #12]	; (8000d0c <HAL_GetTick+0x14>)
 8000cfe:	681b      	ldr	r3, [r3, #0]
}
 8000d00:	4618      	mov	r0, r3
 8000d02:	46bd      	mov	sp, r7
 8000d04:	f85d 7b04 	ldr.w	r7, [sp], #4
 8000d08:	4770      	bx	lr
 8000d0a:	bf00      	nop
 8000d0c:	240000c0 	.word	0x240000c0

08000d10 <HAL_Delay>:
  *       implementations in user file.
  * @param Delay  specifies the delay time length, in milliseconds.
  * @retval None
  */
__weak void HAL_Delay(uint32_t Delay)
{
 8000d10:	b580      	push	{r7, lr}
 8000d12:	b084      	sub	sp, #16
 8000d14:	af00      	add	r7, sp, #0
 8000d16:	6078      	str	r0, [r7, #4]
  uint32_t tickstart = HAL_GetTick();
 8000d18:	f7ff ffee 	bl	8000cf8 <HAL_GetTick>
 8000d1c:	60b8      	str	r0, [r7, #8]
  uint32_t wait = Delay;
 8000d1e:	687b      	ldr	r3, [r7, #4]
 8000d20:	60fb      	str	r3, [r7, #12]

  /* Add a freq to guarantee minimum wait */
  if (wait < HAL_MAX_DELAY)
 8000d22:	68fb      	ldr	r3, [r7, #12]
 8000d24:	f1b3 3fff 	cmp.w	r3, #4294967295
 8000d28:	d005      	beq.n	8000d36 <HAL_Delay+0x26>
  {
    wait += (uint32_t)(uwTickFreq);
 8000d2a:	4b0a      	ldr	r3, [pc, #40]	; (8000d54 <HAL_Delay+0x44>)
 8000d2c:	781b      	ldrb	r3, [r3, #0]
 8000d2e:	461a      	mov	r2, r3
 8000d30:	68fb      	ldr	r3, [r7, #12]
 8000d32:	4413      	add	r3, r2
 8000d34:	60fb      	str	r3, [r7, #12]
  }

  while ((HAL_GetTick() - tickstart) < wait)
 8000d36:	bf00      	nop
 8000d38:	f7ff ffde 	bl	8000cf8 <HAL_GetTick>
 8000d3c:	4602      	mov	r2, r0
 8000d3e:	68bb      	ldr	r3, [r7, #8]
 8000d40:	1ad3      	subs	r3, r2, r3
 8000d42:	68fa      	ldr	r2, [r7, #12]
 8000d44:	429a      	cmp	r2, r3
 8000d46:	d8f7      	bhi.n	8000d38 <HAL_Delay+0x28>
  {
  }
}
 8000d48:	bf00      	nop
 8000d4a:	bf00      	nop
 8000d4c:	3710      	adds	r7, #16
 8000d4e:	46bd      	mov	sp, r7
 8000d50:	bd80      	pop	{r7, pc}
 8000d52:	bf00      	nop
 8000d54:	2400000c 	.word	0x2400000c

08000d58 <HAL_GetREVID>:
/**
  * @brief  Returns the device revision identifier.
  * @retval Device revision identifier
  */
uint32_t HAL_GetREVID(void)
{
 8000d58:	b480      	push	{r7}
 8000d5a:	af00      	add	r7, sp, #0
   return((DBGMCU->IDCODE) >> 16);
 8000d5c:	4b03      	ldr	r3, [pc, #12]	; (8000d6c <HAL_GetREVID+0x14>)
 8000d5e:	681b      	ldr	r3, [r3, #0]
 8000d60:	0c1b      	lsrs	r3, r3, #16
}
 8000d62:	4618      	mov	r0, r3
 8000d64:	46bd      	mov	sp, r7
 8000d66:	f85d 7b04 	ldr.w	r7, [sp], #4
 8000d6a:	4770      	bx	lr
 8000d6c:	5c001000 	.word	0x5c001000

08000d70 <__NVIC_SetPriorityGrouping>:
           In case of a conflict between priority grouping and available
           priority bits (__NVIC_PRIO_BITS), the smallest possible priority group is set.
  \param [in]      PriorityGroup  Priority grouping field.
 */
__STATIC_INLINE void __NVIC_SetPriorityGrouping(uint32_t PriorityGroup)
{
 8000d70:	b480      	push	{r7}
 8000d72:	b085      	sub	sp, #20
 8000d74:	af00      	add	r7, sp, #0
 8000d76:	6078      	str	r0, [r7, #4]
  uint32_t reg_value;
  uint32_t PriorityGroupTmp = (PriorityGroup & (uint32_t)0x07UL);             /* only values 0..7 are used          */
 8000d78:	687b      	ldr	r3, [r7, #4]
 8000d7a:	f003 0307 	and.w	r3, r3, #7
 8000d7e:	60fb      	str	r3, [r7, #12]

  reg_value  =  SCB->AIRCR;                                                   /* read old register configuration    */
 8000d80:	4b0b      	ldr	r3, [pc, #44]	; (8000db0 <__NVIC_SetPriorityGrouping+0x40>)
 8000d82:	68db      	ldr	r3, [r3, #12]
 8000d84:	60bb      	str	r3, [r7, #8]
  reg_value &= ~((uint32_t)(SCB_AIRCR_VECTKEY_Msk | SCB_AIRCR_PRIGROUP_Msk)); /* clear bits to change               */
 8000d86:	68ba      	ldr	r2, [r7, #8]
 8000d88:	f64f 03ff 	movw	r3, #63743	; 0xf8ff
 8000d8c:	4013      	ands	r3, r2
 8000d8e:	60bb      	str	r3, [r7, #8]
  reg_value  =  (reg_value                                   |
                ((uint32_t)0x5FAUL << SCB_AIRCR_VECTKEY_Pos) |
                (PriorityGroupTmp << SCB_AIRCR_PRIGROUP_Pos)  );              /* Insert write key and priority group */
 8000d90:	68fb      	ldr	r3, [r7, #12]
 8000d92:	021a      	lsls	r2, r3, #8
                ((uint32_t)0x5FAUL << SCB_AIRCR_VECTKEY_Pos) |
 8000d94:	68bb      	ldr	r3, [r7, #8]
 8000d96:	431a      	orrs	r2, r3
  reg_value  =  (reg_value                                   |
 8000d98:	4b06      	ldr	r3, [pc, #24]	; (8000db4 <__NVIC_SetPriorityGrouping+0x44>)
 8000d9a:	4313      	orrs	r3, r2
 8000d9c:	60bb      	str	r3, [r7, #8]
  SCB->AIRCR =  reg_value;
 8000d9e:	4a04      	ldr	r2, [pc, #16]	; (8000db0 <__NVIC_SetPriorityGrouping+0x40>)
 8000da0:	68bb      	ldr	r3, [r7, #8]
 8000da2:	60d3      	str	r3, [r2, #12]
}
 8000da4:	bf00      	nop
 8000da6:	3714      	adds	r7, #20
 8000da8:	46bd      	mov	sp, r7
 8000daa:	f85d 7b04 	ldr.w	r7, [sp], #4
 8000dae:	4770      	bx	lr
 8000db0:	e000ed00 	.word	0xe000ed00
 8000db4:	05fa0000 	.word	0x05fa0000

08000db8 <__NVIC_GetPriorityGrouping>:
  \brief   Get Priority Grouping
  \details Reads the priority grouping field from the NVIC Interrupt Controller.
  \return                Priority grouping field (SCB->AIRCR [10:8] PRIGROUP field).
 */
__STATIC_INLINE uint32_t __NVIC_GetPriorityGrouping(void)
{
 8000db8:	b480      	push	{r7}
 8000dba:	af00      	add	r7, sp, #0
  return ((uint32_t)((SCB->AIRCR & SCB_AIRCR_PRIGROUP_Msk) >> SCB_AIRCR_PRIGROUP_Pos));
 8000dbc:	4b04      	ldr	r3, [pc, #16]	; (8000dd0 <__NVIC_GetPriorityGrouping+0x18>)
 8000dbe:	68db      	ldr	r3, [r3, #12]
 8000dc0:	0a1b      	lsrs	r3, r3, #8
 8000dc2:	f003 0307 	and.w	r3, r3, #7
}
 8000dc6:	4618      	mov	r0, r3
 8000dc8:	46bd      	mov	sp, r7
 8000dca:	f85d 7b04 	ldr.w	r7, [sp], #4
 8000dce:	4770      	bx	lr
 8000dd0:	e000ed00 	.word	0xe000ed00

08000dd4 <__NVIC_EnableIRQ>:
  \details Enables a device specific interrupt in the NVIC interrupt controller.
  \param [in]      IRQn  Device specific interrupt number.
  \note    IRQn must not be negative.
 */
__STATIC_INLINE void __NVIC_EnableIRQ(IRQn_Type IRQn)
{
 8000dd4:	b480      	push	{r7}
 8000dd6:	b083      	sub	sp, #12
 8000dd8:	af00      	add	r7, sp, #0
 8000dda:	4603      	mov	r3, r0
 8000ddc:	80fb      	strh	r3, [r7, #6]
  if ((int32_t)(IRQn) >= 0)
 8000dde:	f9b7 3006 	ldrsh.w	r3, [r7, #6]
 8000de2:	2b00      	cmp	r3, #0
 8000de4:	db0b      	blt.n	8000dfe <__NVIC_EnableIRQ+0x2a>
  {
    __COMPILER_BARRIER();
    NVIC->ISER[(((uint32_t)IRQn) >> 5UL)] = (uint32_t)(1UL << (((uint32_t)IRQn) & 0x1FUL));
 8000de6:	88fb      	ldrh	r3, [r7, #6]
 8000de8:	f003 021f 	and.w	r2, r3, #31
 8000dec:	4907      	ldr	r1, [pc, #28]	; (8000e0c <__NVIC_EnableIRQ+0x38>)
 8000dee:	f9b7 3006 	ldrsh.w	r3, [r7, #6]
 8000df2:	095b      	lsrs	r3, r3, #5
 8000df4:	2001      	movs	r0, #1
 8000df6:	fa00 f202 	lsl.w	r2, r0, r2
 8000dfa:	f841 2023 	str.w	r2, [r1, r3, lsl #2]
    __COMPILER_BARRIER();
  }
}
 8000dfe:	bf00      	nop
 8000e00:	370c      	adds	r7, #12
 8000e02:	46bd      	mov	sp, r7
 8000e04:	f85d 7b04 	ldr.w	r7, [sp], #4
 8000e08:	4770      	bx	lr
 8000e0a:	bf00      	nop
 8000e0c:	e000e100 	.word	0xe000e100

08000e10 <__NVIC_DisableIRQ>:
  \details Disables a device specific interrupt in the NVIC interrupt controller.
  \param [in]      IRQn  Device specific interrupt number.
  \note    IRQn must not be negative.
 */
__STATIC_INLINE void __NVIC_DisableIRQ(IRQn_Type IRQn)
{
 8000e10:	b480      	push	{r7}
 8000e12:	b083      	sub	sp, #12
 8000e14:	af00      	add	r7, sp, #0
 8000e16:	4603      	mov	r3, r0
 8000e18:	80fb      	strh	r3, [r7, #6]
  if ((int32_t)(IRQn) >= 0)
 8000e1a:	f9b7 3006 	ldrsh.w	r3, [r7, #6]
 8000e1e:	2b00      	cmp	r3, #0
 8000e20:	db12      	blt.n	8000e48 <__NVIC_DisableIRQ+0x38>
  {
    NVIC->ICER[(((uint32_t)IRQn) >> 5UL)] = (uint32_t)(1UL << (((uint32_t)IRQn) & 0x1FUL));
 8000e22:	88fb      	ldrh	r3, [r7, #6]
 8000e24:	f003 021f 	and.w	r2, r3, #31
 8000e28:	490a      	ldr	r1, [pc, #40]	; (8000e54 <__NVIC_DisableIRQ+0x44>)
 8000e2a:	f9b7 3006 	ldrsh.w	r3, [r7, #6]
 8000e2e:	095b      	lsrs	r3, r3, #5
 8000e30:	2001      	movs	r0, #1
 8000e32:	fa00 f202 	lsl.w	r2, r0, r2
 8000e36:	3320      	adds	r3, #32
 8000e38:	f841 2023 	str.w	r2, [r1, r3, lsl #2]
  \details Acts as a special kind of Data Memory Barrier.
           It completes when all explicit memory accesses before this instruction complete.
 */
__STATIC_FORCEINLINE void __DSB(void)
{
  __ASM volatile ("dsb 0xF":::"memory");
 8000e3c:	f3bf 8f4f 	dsb	sy
}
 8000e40:	bf00      	nop
  __ASM volatile ("isb 0xF":::"memory");
 8000e42:	f3bf 8f6f 	isb	sy
}
 8000e46:	bf00      	nop
    __DSB();
    __ISB();
  }
}
 8000e48:	bf00      	nop
 8000e4a:	370c      	adds	r7, #12
 8000e4c:	46bd      	mov	sp, r7
 8000e4e:	f85d 7b04 	ldr.w	r7, [sp], #4
 8000e52:	4770      	bx	lr
 8000e54:	e000e100 	.word	0xe000e100

08000e58 <__NVIC_SetPriority>:
  \param [in]      IRQn  Interrupt number.
  \param [in]  priority  Priority to set.
  \note    The priority cannot be set for every processor exception.
 */
__STATIC_INLINE void __NVIC_SetPriority(IRQn_Type IRQn, uint32_t priority)
{
 8000e58:	b480      	push	{r7}
 8000e5a:	b083      	sub	sp, #12
 8000e5c:	af00      	add	r7, sp, #0
 8000e5e:	4603      	mov	r3, r0
 8000e60:	6039      	str	r1, [r7, #0]
 8000e62:	80fb      	strh	r3, [r7, #6]
  if ((int32_t)(IRQn) >= 0)
 8000e64:	f9b7 3006 	ldrsh.w	r3, [r7, #6]
 8000e68:	2b00      	cmp	r3, #0
 8000e6a:	db0a      	blt.n	8000e82 <__NVIC_SetPriority+0x2a>
  {
    NVIC->IP[((uint32_t)IRQn)]                = (uint8_t)((priority << (8U - __NVIC_PRIO_BITS)) & (uint32_t)0xFFUL);
 8000e6c:	683b      	ldr	r3, [r7, #0]
 8000e6e:	b2da      	uxtb	r2, r3
 8000e70:	490c      	ldr	r1, [pc, #48]	; (8000ea4 <__NVIC_SetPriority+0x4c>)
 8000e72:	f9b7 3006 	ldrsh.w	r3, [r7, #6]
 8000e76:	0112      	lsls	r2, r2, #4
 8000e78:	b2d2      	uxtb	r2, r2
 8000e7a:	440b      	add	r3, r1
 8000e7c:	f883 2300 	strb.w	r2, [r3, #768]	; 0x300
  }
  else
  {
    SCB->SHPR[(((uint32_t)IRQn) & 0xFUL)-4UL] = (uint8_t)((priority << (8U - __NVIC_PRIO_BITS)) & (uint32_t)0xFFUL);
  }
}
 8000e80:	e00a      	b.n	8000e98 <__NVIC_SetPriority+0x40>
    SCB->SHPR[(((uint32_t)IRQn) & 0xFUL)-4UL] = (uint8_t)((priority << (8U - __NVIC_PRIO_BITS)) & (uint32_t)0xFFUL);
 8000e82:	683b      	ldr	r3, [r7, #0]
 8000e84:	b2da      	uxtb	r2, r3
 8000e86:	4908      	ldr	r1, [pc, #32]	; (8000ea8 <__NVIC_SetPriority+0x50>)
 8000e88:	88fb      	ldrh	r3, [r7, #6]
 8000e8a:	f003 030f 	and.w	r3, r3, #15
 8000e8e:	3b04      	subs	r3, #4
 8000e90:	0112      	lsls	r2, r2, #4
 8000e92:	b2d2      	uxtb	r2, r2
 8000e94:	440b      	add	r3, r1
 8000e96:	761a      	strb	r2, [r3, #24]
}
 8000e98:	bf00      	nop
 8000e9a:	370c      	adds	r7, #12
 8000e9c:	46bd      	mov	sp, r7
 8000e9e:	f85d 7b04 	ldr.w	r7, [sp], #4
 8000ea2:	4770      	bx	lr
 8000ea4:	e000e100 	.word	0xe000e100
 8000ea8:	e000ed00 	.word	0xe000ed00

08000eac <NVIC_EncodePriority>:
  \param [in]   PreemptPriority  Preemptive priority value (starting from 0).
  \param [in]       SubPriority  Subpriority value (starting from 0).
  \return                        Encoded priority. Value can be used in the function \ref NVIC_SetPriority().
 */
__STATIC_INLINE uint32_t NVIC_EncodePriority (uint32_t PriorityGroup, uint32_t PreemptPriority, uint32_t SubPriority)
{
 8000eac:	b480      	push	{r7}
 8000eae:	b089      	sub	sp, #36	; 0x24
 8000eb0:	af00      	add	r7, sp, #0
 8000eb2:	60f8      	str	r0, [r7, #12]
 8000eb4:	60b9      	str	r1, [r7, #8]
 8000eb6:	607a      	str	r2, [r7, #4]
  uint32_t PriorityGroupTmp = (PriorityGroup & (uint32_t)0x07UL);   /* only values 0..7 are used          */
 8000eb8:	68fb      	ldr	r3, [r7, #12]
 8000eba:	f003 0307 	and.w	r3, r3, #7
 8000ebe:	61fb      	str	r3, [r7, #28]
  uint32_t PreemptPriorityBits;
  uint32_t SubPriorityBits;

  PreemptPriorityBits = ((7UL - PriorityGroupTmp) > (uint32_t)(__NVIC_PRIO_BITS)) ? (uint32_t)(__NVIC_PRIO_BITS) : (uint32_t)(7UL - PriorityGroupTmp);
 8000ec0:	69fb      	ldr	r3, [r7, #28]
 8000ec2:	f1c3 0307 	rsb	r3, r3, #7
 8000ec6:	2b04      	cmp	r3, #4
 8000ec8:	bf28      	it	cs
 8000eca:	2304      	movcs	r3, #4
 8000ecc:	61bb      	str	r3, [r7, #24]
  SubPriorityBits     = ((PriorityGroupTmp + (uint32_t)(__NVIC_PRIO_BITS)) < (uint32_t)7UL) ? (uint32_t)0UL : (uint32_t)((PriorityGroupTmp - 7UL) + (uint32_t)(__NVIC_PRIO_BITS));
 8000ece:	69fb      	ldr	r3, [r7, #28]
 8000ed0:	3304      	adds	r3, #4
 8000ed2:	2b06      	cmp	r3, #6
 8000ed4:	d902      	bls.n	8000edc <NVIC_EncodePriority+0x30>
 8000ed6:	69fb      	ldr	r3, [r7, #28]
 8000ed8:	3b03      	subs	r3, #3
 8000eda:	e000      	b.n	8000ede <NVIC_EncodePriority+0x32>
 8000edc:	2300      	movs	r3, #0
 8000ede:	617b      	str	r3, [r7, #20]

  return (
           ((PreemptPriority & (uint32_t)((1UL << (PreemptPriorityBits)) - 1UL)) << SubPriorityBits) |
 8000ee0:	f04f 32ff 	mov.w	r2, #4294967295
 8000ee4:	69bb      	ldr	r3, [r7, #24]
 8000ee6:	fa02 f303 	lsl.w	r3, r2, r3
 8000eea:	43da      	mvns	r2, r3
 8000eec:	68bb      	ldr	r3, [r7, #8]
 8000eee:	401a      	ands	r2, r3
 8000ef0:	697b      	ldr	r3, [r7, #20]
 8000ef2:	409a      	lsls	r2, r3
           ((SubPriority     & (uint32_t)((1UL << (SubPriorityBits    )) - 1UL)))
 8000ef4:	f04f 31ff 	mov.w	r1, #4294967295
 8000ef8:	697b      	ldr	r3, [r7, #20]
 8000efa:	fa01 f303 	lsl.w	r3, r1, r3
 8000efe:	43d9      	mvns	r1, r3
 8000f00:	687b      	ldr	r3, [r7, #4]
 8000f02:	400b      	ands	r3, r1
           ((PreemptPriority & (uint32_t)((1UL << (PreemptPriorityBits)) - 1UL)) << SubPriorityBits) |
 8000f04:	4313      	orrs	r3, r2
         );
}
 8000f06:	4618      	mov	r0, r3
 8000f08:	3724      	adds	r7, #36	; 0x24
 8000f0a:	46bd      	mov	sp, r7
 8000f0c:	f85d 7b04 	ldr.w	r7, [sp], #4
 8000f10:	4770      	bx	lr
	...

08000f14 <SysTick_Config>:
  \note    When the variable <b>__Vendor_SysTickConfig</b> is set to 1, then the
           function <b>SysTick_Config</b> is not included. In this case, the file <b><i>device</i>.h</b>
           must contain a vendor-specific implementation of this function.
 */
__STATIC_INLINE uint32_t SysTick_Config(uint32_t ticks)
{
 8000f14:	b580      	push	{r7, lr}
 8000f16:	b082      	sub	sp, #8
 8000f18:	af00      	add	r7, sp, #0
 8000f1a:	6078      	str	r0, [r7, #4]
  if ((ticks - 1UL) > SysTick_LOAD_RELOAD_Msk)
 8000f1c:	687b      	ldr	r3, [r7, #4]
 8000f1e:	3b01      	subs	r3, #1
 8000f20:	f1b3 7f80 	cmp.w	r3, #16777216	; 0x1000000
 8000f24:	d301      	bcc.n	8000f2a <SysTick_Config+0x16>
  {
    return (1UL);                                                   /* Reload value impossible */
 8000f26:	2301      	movs	r3, #1
 8000f28:	e00f      	b.n	8000f4a <SysTick_Config+0x36>
  }

  SysTick->LOAD  = (uint32_t)(ticks - 1UL);                         /* set reload register */
 8000f2a:	4a0a      	ldr	r2, [pc, #40]	; (8000f54 <SysTick_Config+0x40>)
 8000f2c:	687b      	ldr	r3, [r7, #4]
 8000f2e:	3b01      	subs	r3, #1
 8000f30:	6053      	str	r3, [r2, #4]
  NVIC_SetPriority (SysTick_IRQn, (1UL << __NVIC_PRIO_BITS) - 1UL); /* set Priority for Systick Interrupt */
 8000f32:	210f      	movs	r1, #15
 8000f34:	f04f 30ff 	mov.w	r0, #4294967295
 8000f38:	f7ff ff8e 	bl	8000e58 <__NVIC_SetPriority>
  SysTick->VAL   = 0UL;                                             /* Load the SysTick Counter Value */
 8000f3c:	4b05      	ldr	r3, [pc, #20]	; (8000f54 <SysTick_Config+0x40>)
 8000f3e:	2200      	movs	r2, #0
 8000f40:	609a      	str	r2, [r3, #8]
  SysTick->CTRL  = SysTick_CTRL_CLKSOURCE_Msk |
 8000f42:	4b04      	ldr	r3, [pc, #16]	; (8000f54 <SysTick_Config+0x40>)
 8000f44:	2207      	movs	r2, #7
 8000f46:	601a      	str	r2, [r3, #0]
                   SysTick_CTRL_TICKINT_Msk   |
                   SysTick_CTRL_ENABLE_Msk;                         /* Enable SysTick IRQ and SysTick Timer */
  return (0UL);                                                     /* Function successful */
 8000f48:	2300      	movs	r3, #0
}
 8000f4a:	4618      	mov	r0, r3
 8000f4c:	3708      	adds	r7, #8
 8000f4e:	46bd      	mov	sp, r7
 8000f50:	bd80      	pop	{r7, pc}
 8000f52:	bf00      	nop
 8000f54:	e000e010 	.word	0xe000e010

08000f58 <HAL_NVIC_SetPriorityGrouping>:
  * @note   When the NVIC_PriorityGroup_0 is selected, IRQ preemption is no more possible.
  *         The pending IRQ priority will be managed only by the subpriority.
  * @retval None
  */
void HAL_NVIC_SetPriorityGrouping(uint32_t PriorityGroup)
{
 8000f58:	b580      	push	{r7, lr}
 8000f5a:	b082      	sub	sp, #8
 8000f5c:	af00      	add	r7, sp, #0
 8000f5e:	6078      	str	r0, [r7, #4]
  /* Check the parameters */
  assert_param(IS_NVIC_PRIORITY_GROUP(PriorityGroup));

  /* Set the PRIGROUP[10:8] bits according to the PriorityGroup parameter value */
  NVIC_SetPriorityGrouping(PriorityGroup);
 8000f60:	6878      	ldr	r0, [r7, #4]
 8000f62:	f7ff ff05 	bl	8000d70 <__NVIC_SetPriorityGrouping>
}
 8000f66:	bf00      	nop
 8000f68:	3708      	adds	r7, #8
 8000f6a:	46bd      	mov	sp, r7
 8000f6c:	bd80      	pop	{r7, pc}

08000f6e <HAL_NVIC_SetPriority>:
  *         This parameter can be a value between 0 and 15
  *         A lower priority value indicates a higher priority.
  * @retval None
  */
void HAL_NVIC_SetPriority(IRQn_Type IRQn, uint32_t PreemptPriority, uint32_t SubPriority)
{
 8000f6e:	b580      	push	{r7, lr}
 8000f70:	b086      	sub	sp, #24
 8000f72:	af00      	add	r7, sp, #0
 8000f74:	4603      	mov	r3, r0
 8000f76:	60b9      	str	r1, [r7, #8]
 8000f78:	607a      	str	r2, [r7, #4]
 8000f7a:	81fb      	strh	r3, [r7, #14]

  /* Check the parameters */
  assert_param(IS_NVIC_SUB_PRIORITY(SubPriority));
  assert_param(IS_NVIC_PREEMPTION_PRIORITY(PreemptPriority));

  prioritygroup = NVIC_GetPriorityGrouping();
 8000f7c:	f7ff ff1c 	bl	8000db8 <__NVIC_GetPriorityGrouping>
 8000f80:	6178      	str	r0, [r7, #20]

  NVIC_SetPriority(IRQn, NVIC_EncodePriority(prioritygroup, PreemptPriority, SubPriority));
 8000f82:	687a      	ldr	r2, [r7, #4]
 8000f84:	68b9      	ldr	r1, [r7, #8]
 8000f86:	6978      	ldr	r0, [r7, #20]
 8000f88:	f7ff ff90 	bl	8000eac <NVIC_EncodePriority>
 8000f8c:	4602      	mov	r2, r0
 8000f8e:	f9b7 300e 	ldrsh.w	r3, [r7, #14]
 8000f92:	4611      	mov	r1, r2
 8000f94:	4618      	mov	r0, r3
 8000f96:	f7ff ff5f 	bl	8000e58 <__NVIC_SetPriority>
}
 8000f9a:	bf00      	nop
 8000f9c:	3718      	adds	r7, #24
 8000f9e:	46bd      	mov	sp, r7
 8000fa0:	bd80      	pop	{r7, pc}

08000fa2 <HAL_NVIC_EnableIRQ>:
  *         This parameter can be an enumerator of IRQn_Type enumeration
  *         (For the complete STM32 Devices IRQ Channels list, please refer to the appropriate CMSIS device file (stm32h7xxxx.h))
  * @retval None
  */
void HAL_NVIC_EnableIRQ(IRQn_Type IRQn)
{
 8000fa2:	b580      	push	{r7, lr}
 8000fa4:	b082      	sub	sp, #8
 8000fa6:	af00      	add	r7, sp, #0
 8000fa8:	4603      	mov	r3, r0
 8000faa:	80fb      	strh	r3, [r7, #6]
  /* Check the parameters */
  assert_param(IS_NVIC_DEVICE_IRQ(IRQn));

  /* Enable interrupt */
  NVIC_EnableIRQ(IRQn);
 8000fac:	f9b7 3006 	ldrsh.w	r3, [r7, #6]
 8000fb0:	4618      	mov	r0, r3
 8000fb2:	f7ff ff0f 	bl	8000dd4 <__NVIC_EnableIRQ>
}
 8000fb6:	bf00      	nop
 8000fb8:	3708      	adds	r7, #8
 8000fba:	46bd      	mov	sp, r7
 8000fbc:	bd80      	pop	{r7, pc}

08000fbe <HAL_NVIC_DisableIRQ>:
  *         This parameter can be an enumerator of IRQn_Type enumeration
  *         (For the complete STM32 Devices IRQ Channels list, please refer to the appropriate CMSIS device file (stm32h7xxxx.h))
  * @retval None
  */
void HAL_NVIC_DisableIRQ(IRQn_Type IRQn)
{
 8000fbe:	b580      	push	{r7, lr}
 8000fc0:	b082      	sub	sp, #8
 8000fc2:	af00      	add	r7, sp, #0
 8000fc4:	4603      	mov	r3, r0
 8000fc6:	80fb      	strh	r3, [r7, #6]
  /* Check the parameters */
  assert_param(IS_NVIC_DEVICE_IRQ(IRQn));

  /* Disable interrupt */
  NVIC_DisableIRQ(IRQn);
 8000fc8:	f9b7 3006 	ldrsh.w	r3, [r7, #6]
 8000fcc:	4618      	mov	r0, r3
 8000fce:	f7ff ff1f 	bl	8000e10 <__NVIC_DisableIRQ>
}
 8000fd2:	bf00      	nop
 8000fd4:	3708      	adds	r7, #8
 8000fd6:	46bd      	mov	sp, r7
 8000fd8:	bd80      	pop	{r7, pc}

08000fda <HAL_SYSTICK_Config>:
  * @param  TicksNumb Specifies the ticks Number of ticks between two interrupts.
  * @retval status   - 0  Function succeeded.
  *                  - 1  Function failed.
  */
uint32_t HAL_SYSTICK_Config(uint32_t TicksNumb)
{
 8000fda:	b580      	push	{r7, lr}
 8000fdc:	b082      	sub	sp, #8
 8000fde:	af00      	add	r7, sp, #0
 8000fe0:	6078      	str	r0, [r7, #4]
   return SysTick_Config(TicksNumb);
 8000fe2:	6878      	ldr	r0, [r7, #4]
 8000fe4:	f7ff ff96 	bl	8000f14 <SysTick_Config>
 8000fe8:	4603      	mov	r3, r0
}
 8000fea:	4618      	mov	r0, r3
 8000fec:	3708      	adds	r7, #8
 8000fee:	46bd      	mov	sp, r7
 8000ff0:	bd80      	pop	{r7, pc}
	...

08000ff4 <HAL_GPIO_Init>:
  * @param  GPIO_Init: pointer to a GPIO_InitTypeDef structure that contains
  *         the configuration information for the specified GPIO peripheral.
  * @retval None
  */
void HAL_GPIO_Init(GPIO_TypeDef  *GPIOx, GPIO_InitTypeDef *GPIO_Init)
{
 8000ff4:	b480      	push	{r7}
 8000ff6:	b089      	sub	sp, #36	; 0x24
 8000ff8:	af00      	add	r7, sp, #0
 8000ffa:	6078      	str	r0, [r7, #4]
 8000ffc:	6039      	str	r1, [r7, #0]
  uint32_t position = 0x00U;
 8000ffe:	2300      	movs	r3, #0
 8001000:	61fb      	str	r3, [r7, #28]
  EXTI_Core_TypeDef *EXTI_CurrentCPU;

#if defined(DUAL_CORE) && defined(CORE_CM4)
  EXTI_CurrentCPU = EXTI_D2; /* EXTI for CM4 CPU */
#else
  EXTI_CurrentCPU = EXTI_D1; /* EXTI for CM7 CPU */
 8001002:	4b89      	ldr	r3, [pc, #548]	; (8001228 <HAL_GPIO_Init+0x234>)
 8001004:	617b      	str	r3, [r7, #20]
  assert_param(IS_GPIO_ALL_INSTANCE(GPIOx));
  assert_param(IS_GPIO_PIN(GPIO_Init->Pin));
  assert_param(IS_GPIO_MODE(GPIO_Init->Mode));

  /* Configure the port pins */
  while (((GPIO_Init->Pin) >> position) != 0x00U)
 8001006:	e194      	b.n	8001332 <HAL_GPIO_Init+0x33e>
  {
    /* Get current io position */
    iocurrent = (GPIO_Init->Pin) & (1UL << position);
 8001008:	683b      	ldr	r3, [r7, #0]
 800100a:	681a      	ldr	r2, [r3, #0]
 800100c:	2101      	movs	r1, #1
 800100e:	69fb      	ldr	r3, [r7, #28]
 8001010:	fa01 f303 	lsl.w	r3, r1, r3
 8001014:	4013      	ands	r3, r2
 8001016:	613b      	str	r3, [r7, #16]

    if (iocurrent != 0x00U)
 8001018:	693b      	ldr	r3, [r7, #16]
 800101a:	2b00      	cmp	r3, #0
 800101c:	f000 8186 	beq.w	800132c <HAL_GPIO_Init+0x338>
    {
      /*--------------------- GPIO Mode Configuration ------------------------*/
      /* In case of Output or Alternate function mode selection */
      if (((GPIO_Init->Mode & GPIO_MODE) == MODE_OUTPUT) || ((GPIO_Init->Mode & GPIO_MODE) == MODE_AF))
 8001020:	683b      	ldr	r3, [r7, #0]
 8001022:	685b      	ldr	r3, [r3, #4]
 8001024:	f003 0303 	and.w	r3, r3, #3
 8001028:	2b01      	cmp	r3, #1
 800102a:	d005      	beq.n	8001038 <HAL_GPIO_Init+0x44>
 800102c:	683b      	ldr	r3, [r7, #0]
 800102e:	685b      	ldr	r3, [r3, #4]
 8001030:	f003 0303 	and.w	r3, r3, #3
 8001034:	2b02      	cmp	r3, #2
 8001036:	d130      	bne.n	800109a <HAL_GPIO_Init+0xa6>
      {
        /* Check the Speed parameter */
        assert_param(IS_GPIO_SPEED(GPIO_Init->Speed));

        /* Configure the IO Speed */
        temp = GPIOx->OSPEEDR;
 8001038:	687b      	ldr	r3, [r7, #4]
 800103a:	689b      	ldr	r3, [r3, #8]
 800103c:	61bb      	str	r3, [r7, #24]
        temp &= ~(GPIO_OSPEEDR_OSPEED0 << (position * 2U));
 800103e:	69fb      	ldr	r3, [r7, #28]
 8001040:	005b      	lsls	r3, r3, #1
 8001042:	2203      	movs	r2, #3
 8001044:	fa02 f303 	lsl.w	r3, r2, r3
 8001048:	43db      	mvns	r3, r3
 800104a:	69ba      	ldr	r2, [r7, #24]
 800104c:	4013      	ands	r3, r2
 800104e:	61bb      	str	r3, [r7, #24]
        temp |= (GPIO_Init->Speed << (position * 2U));
 8001050:	683b      	ldr	r3, [r7, #0]
 8001052:	68da      	ldr	r2, [r3, #12]
 8001054:	69fb      	ldr	r3, [r7, #28]
 8001056:	005b      	lsls	r3, r3, #1
 8001058:	fa02 f303 	lsl.w	r3, r2, r3
 800105c:	69ba      	ldr	r2, [r7, #24]
 800105e:	4313      	orrs	r3, r2
 8001060:	61bb      	str	r3, [r7, #24]
        GPIOx->OSPEEDR = temp;
 8001062:	687b      	ldr	r3, [r7, #4]
 8001064:	69ba      	ldr	r2, [r7, #24]
 8001066:	609a      	str	r2, [r3, #8]

        /* Configure the IO Output Type */
        temp = GPIOx->OTYPER;
 8001068:	687b      	ldr	r3, [r7, #4]
 800106a:	685b      	ldr	r3, [r3, #4]
 800106c:	61bb      	str	r3, [r7, #24]
        temp &= ~(GPIO_OTYPER_OT0 << position) ;
 800106e:	2201      	movs	r2, #1
 8001070:	69fb      	ldr	r3, [r7, #28]
 8001072:	fa02 f303 	lsl.w	r3, r2, r3
 8001076:	43db      	mvns	r3, r3
 8001078:	69ba      	ldr	r2, [r7, #24]
 800107a:	4013      	ands	r3, r2
 800107c:	61bb      	str	r3, [r7, #24]
        temp |= (((GPIO_Init->Mode & OUTPUT_TYPE) >> OUTPUT_TYPE_Pos) << position);
 800107e:	683b      	ldr	r3, [r7, #0]
 8001080:	685b      	ldr	r3, [r3, #4]
 8001082:	091b      	lsrs	r3, r3, #4
 8001084:	f003 0201 	and.w	r2, r3, #1
 8001088:	69fb      	ldr	r3, [r7, #28]
 800108a:	fa02 f303 	lsl.w	r3, r2, r3
 800108e:	69ba      	ldr	r2, [r7, #24]
 8001090:	4313      	orrs	r3, r2
 8001092:	61bb      	str	r3, [r7, #24]
        GPIOx->OTYPER = temp;
 8001094:	687b      	ldr	r3, [r7, #4]
 8001096:	69ba      	ldr	r2, [r7, #24]
 8001098:	605a      	str	r2, [r3, #4]
      }

      if ((GPIO_Init->Mode & GPIO_MODE) != MODE_ANALOG)
 800109a:	683b      	ldr	r3, [r7, #0]
 800109c:	685b      	ldr	r3, [r3, #4]
 800109e:	f003 0303 	and.w	r3, r3, #3
 80010a2:	2b03      	cmp	r3, #3
 80010a4:	d017      	beq.n	80010d6 <HAL_GPIO_Init+0xe2>
      {
       /* Check the Pull parameter */
       assert_param(IS_GPIO_PULL(GPIO_Init->Pull));

      /* Activate the Pull-up or Pull down resistor for the current IO */
      temp = GPIOx->PUPDR;
 80010a6:	687b      	ldr	r3, [r7, #4]
 80010a8:	68db      	ldr	r3, [r3, #12]
 80010aa:	61bb      	str	r3, [r7, #24]
      temp &= ~(GPIO_PUPDR_PUPD0 << (position * 2U));
 80010ac:	69fb      	ldr	r3, [r7, #28]
 80010ae:	005b      	lsls	r3, r3, #1
 80010b0:	2203      	movs	r2, #3
 80010b2:	fa02 f303 	lsl.w	r3, r2, r3
 80010b6:	43db      	mvns	r3, r3
 80010b8:	69ba      	ldr	r2, [r7, #24]
 80010ba:	4013      	ands	r3, r2
 80010bc:	61bb      	str	r3, [r7, #24]
      temp |= ((GPIO_Init->Pull) << (position * 2U));
 80010be:	683b      	ldr	r3, [r7, #0]
 80010c0:	689a      	ldr	r2, [r3, #8]
 80010c2:	69fb      	ldr	r3, [r7, #28]
 80010c4:	005b      	lsls	r3, r3, #1
 80010c6:	fa02 f303 	lsl.w	r3, r2, r3
 80010ca:	69ba      	ldr	r2, [r7, #24]
 80010cc:	4313      	orrs	r3, r2
 80010ce:	61bb      	str	r3, [r7, #24]
      GPIOx->PUPDR = temp;
 80010d0:	687b      	ldr	r3, [r7, #4]
 80010d2:	69ba      	ldr	r2, [r7, #24]
 80010d4:	60da      	str	r2, [r3, #12]
      }

      /* In case of Alternate function mode selection */
      if ((GPIO_Init->Mode & GPIO_MODE) == MODE_AF)
 80010d6:	683b      	ldr	r3, [r7, #0]
 80010d8:	685b      	ldr	r3, [r3, #4]
 80010da:	f003 0303 	and.w	r3, r3, #3
 80010de:	2b02      	cmp	r3, #2
 80010e0:	d123      	bne.n	800112a <HAL_GPIO_Init+0x136>
        /* Check the Alternate function parameters */
        assert_param(IS_GPIO_AF_INSTANCE(GPIOx));
        assert_param(IS_GPIO_AF(GPIO_Init->Alternate));

        /* Configure Alternate function mapped with the current IO */
        temp = GPIOx->AFR[position >> 3U];
 80010e2:	69fb      	ldr	r3, [r7, #28]
 80010e4:	08da      	lsrs	r2, r3, #3
 80010e6:	687b      	ldr	r3, [r7, #4]
 80010e8:	3208      	adds	r2, #8
 80010ea:	f853 3022 	ldr.w	r3, [r3, r2, lsl #2]
 80010ee:	61bb      	str	r3, [r7, #24]
        temp &= ~(0xFU << ((position & 0x07U) * 4U));
 80010f0:	69fb      	ldr	r3, [r7, #28]
 80010f2:	f003 0307 	and.w	r3, r3, #7
 80010f6:	009b      	lsls	r3, r3, #2
 80010f8:	220f      	movs	r2, #15
 80010fa:	fa02 f303 	lsl.w	r3, r2, r3
 80010fe:	43db      	mvns	r3, r3
 8001100:	69ba      	ldr	r2, [r7, #24]
 8001102:	4013      	ands	r3, r2
 8001104:	61bb      	str	r3, [r7, #24]
        temp |= ((GPIO_Init->Alternate) << ((position & 0x07U) * 4U));
 8001106:	683b      	ldr	r3, [r7, #0]
 8001108:	691a      	ldr	r2, [r3, #16]
 800110a:	69fb      	ldr	r3, [r7, #28]
 800110c:	f003 0307 	and.w	r3, r3, #7
 8001110:	009b      	lsls	r3, r3, #2
 8001112:	fa02 f303 	lsl.w	r3, r2, r3
 8001116:	69ba      	ldr	r2, [r7, #24]
 8001118:	4313      	orrs	r3, r2
 800111a:	61bb      	str	r3, [r7, #24]
        GPIOx->AFR[position >> 3U] = temp;
 800111c:	69fb      	ldr	r3, [r7, #28]
 800111e:	08da      	lsrs	r2, r3, #3
 8001120:	687b      	ldr	r3, [r7, #4]
 8001122:	3208      	adds	r2, #8
 8001124:	69b9      	ldr	r1, [r7, #24]
 8001126:	f843 1022 	str.w	r1, [r3, r2, lsl #2]
      }

      /* Configure IO Direction mode (Input, Output, Alternate or Analog) */
      temp = GPIOx->MODER;
 800112a:	687b      	ldr	r3, [r7, #4]
 800112c:	681b      	ldr	r3, [r3, #0]
 800112e:	61bb      	str	r3, [r7, #24]
      temp &= ~(GPIO_MODER_MODE0 << (position * 2U));
 8001130:	69fb      	ldr	r3, [r7, #28]
 8001132:	005b      	lsls	r3, r3, #1
 8001134:	2203      	movs	r2, #3
 8001136:	fa02 f303 	lsl.w	r3, r2, r3
 800113a:	43db      	mvns	r3, r3
 800113c:	69ba      	ldr	r2, [r7, #24]
 800113e:	4013      	ands	r3, r2
 8001140:	61bb      	str	r3, [r7, #24]
      temp |= ((GPIO_Init->Mode & GPIO_MODE) << (position * 2U));
 8001142:	683b      	ldr	r3, [r7, #0]
 8001144:	685b      	ldr	r3, [r3, #4]
 8001146:	f003 0203 	and.w	r2, r3, #3
 800114a:	69fb      	ldr	r3, [r7, #28]
 800114c:	005b      	lsls	r3, r3, #1
 800114e:	fa02 f303 	lsl.w	r3, r2, r3
 8001152:	69ba      	ldr	r2, [r7, #24]
 8001154:	4313      	orrs	r3, r2
 8001156:	61bb      	str	r3, [r7, #24]
      GPIOx->MODER = temp;
 8001158:	687b      	ldr	r3, [r7, #4]
 800115a:	69ba      	ldr	r2, [r7, #24]
 800115c:	601a      	str	r2, [r3, #0]

      /*--------------------- EXTI Mode Configuration ------------------------*/
      /* Configure the External Interrupt or event for the current IO */
      if ((GPIO_Init->Mode & EXTI_MODE) != 0x00U)
 800115e:	683b      	ldr	r3, [r7, #0]
 8001160:	685b      	ldr	r3, [r3, #4]
 8001162:	f403 3340 	and.w	r3, r3, #196608	; 0x30000
 8001166:	2b00      	cmp	r3, #0
 8001168:	f000 80e0 	beq.w	800132c <HAL_GPIO_Init+0x338>
      {
        /* Enable SYSCFG Clock */
        __HAL_RCC_SYSCFG_CLK_ENABLE();
 800116c:	4b2f      	ldr	r3, [pc, #188]	; (800122c <HAL_GPIO_Init+0x238>)
 800116e:	f8d3 30f4 	ldr.w	r3, [r3, #244]	; 0xf4
 8001172:	4a2e      	ldr	r2, [pc, #184]	; (800122c <HAL_GPIO_Init+0x238>)
 8001174:	f043 0302 	orr.w	r3, r3, #2
 8001178:	f8c2 30f4 	str.w	r3, [r2, #244]	; 0xf4
 800117c:	4b2b      	ldr	r3, [pc, #172]	; (800122c <HAL_GPIO_Init+0x238>)
 800117e:	f8d3 30f4 	ldr.w	r3, [r3, #244]	; 0xf4
 8001182:	f003 0302 	and.w	r3, r3, #2
 8001186:	60fb      	str	r3, [r7, #12]
 8001188:	68fb      	ldr	r3, [r7, #12]

        temp = SYSCFG->EXTICR[position >> 2U];
 800118a:	4a29      	ldr	r2, [pc, #164]	; (8001230 <HAL_GPIO_Init+0x23c>)
 800118c:	69fb      	ldr	r3, [r7, #28]
 800118e:	089b      	lsrs	r3, r3, #2
 8001190:	3302      	adds	r3, #2
 8001192:	f852 3023 	ldr.w	r3, [r2, r3, lsl #2]
 8001196:	61bb      	str	r3, [r7, #24]
        temp &= ~(0x0FUL << (4U * (position & 0x03U)));
 8001198:	69fb      	ldr	r3, [r7, #28]
 800119a:	f003 0303 	and.w	r3, r3, #3
 800119e:	009b      	lsls	r3, r3, #2
 80011a0:	220f      	movs	r2, #15
 80011a2:	fa02 f303 	lsl.w	r3, r2, r3
 80011a6:	43db      	mvns	r3, r3
 80011a8:	69ba      	ldr	r2, [r7, #24]
 80011aa:	4013      	ands	r3, r2
 80011ac:	61bb      	str	r3, [r7, #24]
        temp |= (GPIO_GET_INDEX(GPIOx) << (4U * (position & 0x03U)));
 80011ae:	687b      	ldr	r3, [r7, #4]
 80011b0:	4a20      	ldr	r2, [pc, #128]	; (8001234 <HAL_GPIO_Init+0x240>)
 80011b2:	4293      	cmp	r3, r2
 80011b4:	d052      	beq.n	800125c <HAL_GPIO_Init+0x268>
 80011b6:	687b      	ldr	r3, [r7, #4]
 80011b8:	4a1f      	ldr	r2, [pc, #124]	; (8001238 <HAL_GPIO_Init+0x244>)
 80011ba:	4293      	cmp	r3, r2
 80011bc:	d031      	beq.n	8001222 <HAL_GPIO_Init+0x22e>
 80011be:	687b      	ldr	r3, [r7, #4]
 80011c0:	4a1e      	ldr	r2, [pc, #120]	; (800123c <HAL_GPIO_Init+0x248>)
 80011c2:	4293      	cmp	r3, r2
 80011c4:	d02b      	beq.n	800121e <HAL_GPIO_Init+0x22a>
 80011c6:	687b      	ldr	r3, [r7, #4]
 80011c8:	4a1d      	ldr	r2, [pc, #116]	; (8001240 <HAL_GPIO_Init+0x24c>)
 80011ca:	4293      	cmp	r3, r2
 80011cc:	d025      	beq.n	800121a <HAL_GPIO_Init+0x226>
 80011ce:	687b      	ldr	r3, [r7, #4]
 80011d0:	4a1c      	ldr	r2, [pc, #112]	; (8001244 <HAL_GPIO_Init+0x250>)
 80011d2:	4293      	cmp	r3, r2
 80011d4:	d01f      	beq.n	8001216 <HAL_GPIO_Init+0x222>
 80011d6:	687b      	ldr	r3, [r7, #4]
 80011d8:	4a1b      	ldr	r2, [pc, #108]	; (8001248 <HAL_GPIO_Init+0x254>)
 80011da:	4293      	cmp	r3, r2
 80011dc:	d019      	beq.n	8001212 <HAL_GPIO_Init+0x21e>
 80011de:	687b      	ldr	r3, [r7, #4]
 80011e0:	4a1a      	ldr	r2, [pc, #104]	; (800124c <HAL_GPIO_Init+0x258>)
 80011e2:	4293      	cmp	r3, r2
 80011e4:	d013      	beq.n	800120e <HAL_GPIO_Init+0x21a>
 80011e6:	687b      	ldr	r3, [r7, #4]
 80011e8:	4a19      	ldr	r2, [pc, #100]	; (8001250 <HAL_GPIO_Init+0x25c>)
 80011ea:	4293      	cmp	r3, r2
 80011ec:	d00d      	beq.n	800120a <HAL_GPIO_Init+0x216>
 80011ee:	687b      	ldr	r3, [r7, #4]
 80011f0:	4a18      	ldr	r2, [pc, #96]	; (8001254 <HAL_GPIO_Init+0x260>)
 80011f2:	4293      	cmp	r3, r2
 80011f4:	d007      	beq.n	8001206 <HAL_GPIO_Init+0x212>
 80011f6:	687b      	ldr	r3, [r7, #4]
 80011f8:	4a17      	ldr	r2, [pc, #92]	; (8001258 <HAL_GPIO_Init+0x264>)
 80011fa:	4293      	cmp	r3, r2
 80011fc:	d101      	bne.n	8001202 <HAL_GPIO_Init+0x20e>
 80011fe:	2309      	movs	r3, #9
 8001200:	e02d      	b.n	800125e <HAL_GPIO_Init+0x26a>
 8001202:	230a      	movs	r3, #10
 8001204:	e02b      	b.n	800125e <HAL_GPIO_Init+0x26a>
 8001206:	2308      	movs	r3, #8
 8001208:	e029      	b.n	800125e <HAL_GPIO_Init+0x26a>
 800120a:	2307      	movs	r3, #7
 800120c:	e027      	b.n	800125e <HAL_GPIO_Init+0x26a>
 800120e:	2306      	movs	r3, #6
 8001210:	e025      	b.n	800125e <HAL_GPIO_Init+0x26a>
 8001212:	2305      	movs	r3, #5
 8001214:	e023      	b.n	800125e <HAL_GPIO_Init+0x26a>
 8001216:	2304      	movs	r3, #4
 8001218:	e021      	b.n	800125e <HAL_GPIO_Init+0x26a>
 800121a:	2303      	movs	r3, #3
 800121c:	e01f      	b.n	800125e <HAL_GPIO_Init+0x26a>
 800121e:	2302      	movs	r3, #2
 8001220:	e01d      	b.n	800125e <HAL_GPIO_Init+0x26a>
 8001222:	2301      	movs	r3, #1
 8001224:	e01b      	b.n	800125e <HAL_GPIO_Init+0x26a>
 8001226:	bf00      	nop
 8001228:	58000080 	.word	0x58000080
 800122c:	58024400 	.word	0x58024400
 8001230:	58000400 	.word	0x58000400
 8001234:	58020000 	.word	0x58020000
 8001238:	58020400 	.word	0x58020400
 800123c:	58020800 	.word	0x58020800
 8001240:	58020c00 	.word	0x58020c00
 8001244:	58021000 	.word	0x58021000
 8001248:	58021400 	.word	0x58021400
 800124c:	58021800 	.word	0x58021800
 8001250:	58021c00 	.word	0x58021c00
 8001254:	58022000 	.word	0x58022000
 8001258:	58022400 	.word	0x58022400
 800125c:	2300      	movs	r3, #0
 800125e:	69fa      	ldr	r2, [r7, #28]
 8001260:	f002 0203 	and.w	r2, r2, #3
 8001264:	0092      	lsls	r2, r2, #2
 8001266:	4093      	lsls	r3, r2
 8001268:	69ba      	ldr	r2, [r7, #24]
 800126a:	4313      	orrs	r3, r2
 800126c:	61bb      	str	r3, [r7, #24]
        SYSCFG->EXTICR[position >> 2U] = temp;
 800126e:	4938      	ldr	r1, [pc, #224]	; (8001350 <HAL_GPIO_Init+0x35c>)
 8001270:	69fb      	ldr	r3, [r7, #28]
 8001272:	089b      	lsrs	r3, r3, #2
 8001274:	3302      	adds	r3, #2
 8001276:	69ba      	ldr	r2, [r7, #24]
 8001278:	f841 2023 	str.w	r2, [r1, r3, lsl #2]

        /* Clear Rising Falling edge configuration */
        temp = EXTI->RTSR1;
 800127c:	f04f 43b0 	mov.w	r3, #1476395008	; 0x58000000
 8001280:	681b      	ldr	r3, [r3, #0]
 8001282:	61bb      	str	r3, [r7, #24]
        temp &= ~(iocurrent);
 8001284:	693b      	ldr	r3, [r7, #16]
 8001286:	43db      	mvns	r3, r3
 8001288:	69ba      	ldr	r2, [r7, #24]
 800128a:	4013      	ands	r3, r2
 800128c:	61bb      	str	r3, [r7, #24]
        if ((GPIO_Init->Mode & TRIGGER_RISING) != 0x00U)
 800128e:	683b      	ldr	r3, [r7, #0]
 8001290:	685b      	ldr	r3, [r3, #4]
 8001292:	f403 1380 	and.w	r3, r3, #1048576	; 0x100000
 8001296:	2b00      	cmp	r3, #0
 8001298:	d003      	beq.n	80012a2 <HAL_GPIO_Init+0x2ae>
        {
          temp |= iocurrent;
 800129a:	69ba      	ldr	r2, [r7, #24]
 800129c:	693b      	ldr	r3, [r7, #16]
 800129e:	4313      	orrs	r3, r2
 80012a0:	61bb      	str	r3, [r7, #24]
        }
        EXTI->RTSR1 = temp;
 80012a2:	f04f 42b0 	mov.w	r2, #1476395008	; 0x58000000
 80012a6:	69bb      	ldr	r3, [r7, #24]
 80012a8:	6013      	str	r3, [r2, #0]

        temp = EXTI->FTSR1;
 80012aa:	f04f 43b0 	mov.w	r3, #1476395008	; 0x58000000
 80012ae:	685b      	ldr	r3, [r3, #4]
 80012b0:	61bb      	str	r3, [r7, #24]
        temp &= ~(iocurrent);
 80012b2:	693b      	ldr	r3, [r7, #16]
 80012b4:	43db      	mvns	r3, r3
 80012b6:	69ba      	ldr	r2, [r7, #24]
 80012b8:	4013      	ands	r3, r2
 80012ba:	61bb      	str	r3, [r7, #24]
        if ((GPIO_Init->Mode & TRIGGER_FALLING) != 0x00U)
 80012bc:	683b      	ldr	r3, [r7, #0]
 80012be:	685b      	ldr	r3, [r3, #4]
 80012c0:	f403 1300 	and.w	r3, r3, #2097152	; 0x200000
 80012c4:	2b00      	cmp	r3, #0
 80012c6:	d003      	beq.n	80012d0 <HAL_GPIO_Init+0x2dc>
        {
          temp |= iocurrent;
 80012c8:	69ba      	ldr	r2, [r7, #24]
 80012ca:	693b      	ldr	r3, [r7, #16]
 80012cc:	4313      	orrs	r3, r2
 80012ce:	61bb      	str	r3, [r7, #24]
        }
        EXTI->FTSR1 = temp;
 80012d0:	f04f 42b0 	mov.w	r2, #1476395008	; 0x58000000
 80012d4:	69bb      	ldr	r3, [r7, #24]
 80012d6:	6053      	str	r3, [r2, #4]

        temp = EXTI_CurrentCPU->EMR1;
 80012d8:	697b      	ldr	r3, [r7, #20]
 80012da:	685b      	ldr	r3, [r3, #4]
 80012dc:	61bb      	str	r3, [r7, #24]
        temp &= ~(iocurrent);
 80012de:	693b      	ldr	r3, [r7, #16]
 80012e0:	43db      	mvns	r3, r3
 80012e2:	69ba      	ldr	r2, [r7, #24]
 80012e4:	4013      	ands	r3, r2
 80012e6:	61bb      	str	r3, [r7, #24]
        if ((GPIO_Init->Mode & EXTI_EVT) != 0x00U)
 80012e8:	683b      	ldr	r3, [r7, #0]
 80012ea:	685b      	ldr	r3, [r3, #4]
 80012ec:	f403 3300 	and.w	r3, r3, #131072	; 0x20000
 80012f0:	2b00      	cmp	r3, #0
 80012f2:	d003      	beq.n	80012fc <HAL_GPIO_Init+0x308>
        {
          temp |= iocurrent;
 80012f4:	69ba      	ldr	r2, [r7, #24]
 80012f6:	693b      	ldr	r3, [r7, #16]
 80012f8:	4313      	orrs	r3, r2
 80012fa:	61bb      	str	r3, [r7, #24]
        }
        EXTI_CurrentCPU->EMR1 = temp;
 80012fc:	697b      	ldr	r3, [r7, #20]
 80012fe:	69ba      	ldr	r2, [r7, #24]
 8001300:	605a      	str	r2, [r3, #4]

        /* Clear EXTI line configuration */
        temp = EXTI_CurrentCPU->IMR1;
 8001302:	697b      	ldr	r3, [r7, #20]
 8001304:	681b      	ldr	r3, [r3, #0]
 8001306:	61bb      	str	r3, [r7, #24]
        temp &= ~(iocurrent);
 8001308:	693b      	ldr	r3, [r7, #16]
 800130a:	43db      	mvns	r3, r3
 800130c:	69ba      	ldr	r2, [r7, #24]
 800130e:	4013      	ands	r3, r2
 8001310:	61bb      	str	r3, [r7, #24]
        if ((GPIO_Init->Mode & EXTI_IT) != 0x00U)
 8001312:	683b      	ldr	r3, [r7, #0]
 8001314:	685b      	ldr	r3, [r3, #4]
 8001316:	f403 3380 	and.w	r3, r3, #65536	; 0x10000
 800131a:	2b00      	cmp	r3, #0
 800131c:	d003      	beq.n	8001326 <HAL_GPIO_Init+0x332>
        {
          temp |= iocurrent;
 800131e:	69ba      	ldr	r2, [r7, #24]
 8001320:	693b      	ldr	r3, [r7, #16]
 8001322:	4313      	orrs	r3, r2
 8001324:	61bb      	str	r3, [r7, #24]
        }
        EXTI_CurrentCPU->IMR1 = temp;
 8001326:	697b      	ldr	r3, [r7, #20]
 8001328:	69ba      	ldr	r2, [r7, #24]
 800132a:	601a      	str	r2, [r3, #0]
      }
    }

    position++;
 800132c:	69fb      	ldr	r3, [r7, #28]
 800132e:	3301      	adds	r3, #1
 8001330:	61fb      	str	r3, [r7, #28]
  while (((GPIO_Init->Pin) >> position) != 0x00U)
 8001332:	683b      	ldr	r3, [r7, #0]
 8001334:	681a      	ldr	r2, [r3, #0]
 8001336:	69fb      	ldr	r3, [r7, #28]
 8001338:	fa22 f303 	lsr.w	r3, r2, r3
 800133c:	2b00      	cmp	r3, #0
 800133e:	f47f ae63 	bne.w	8001008 <HAL_GPIO_Init+0x14>
  }
}
 8001342:	bf00      	nop
 8001344:	bf00      	nop
 8001346:	3724      	adds	r7, #36	; 0x24
 8001348:	46bd      	mov	sp, r7
 800134a:	f85d 7b04 	ldr.w	r7, [sp], #4
 800134e:	4770      	bx	lr
 8001350:	58000400 	.word	0x58000400

08001354 <HAL_HSEM_Take>:
  * @param  SemID: semaphore ID from 0 to 31
  * @param  ProcessID: Process ID from 0 to 255
  * @retval HAL status
  */
HAL_StatusTypeDef  HAL_HSEM_Take(uint32_t SemID, uint32_t ProcessID)
{
 8001354:	b480      	push	{r7}
 8001356:	b083      	sub	sp, #12
 8001358:	af00      	add	r7, sp, #0
 800135a:	6078      	str	r0, [r7, #4]
 800135c:	6039      	str	r1, [r7, #0]
    /*take success when MasterID and ProcessID match and take bit set*/
    return HAL_OK;
  }
#else
  /* First step  write R register with MasterID, processID and take bit=1*/
  HSEM->R[SemID] = (ProcessID | HSEM_CR_COREID_CURRENT | HSEM_R_LOCK);
 800135e:	490c      	ldr	r1, [pc, #48]	; (8001390 <HAL_HSEM_Take+0x3c>)
 8001360:	683a      	ldr	r2, [r7, #0]
 8001362:	4b0c      	ldr	r3, [pc, #48]	; (8001394 <HAL_HSEM_Take+0x40>)
 8001364:	4313      	orrs	r3, r2
 8001366:	687a      	ldr	r2, [r7, #4]
 8001368:	f841 3022 	str.w	r3, [r1, r2, lsl #2]

  /* second step : read the R register . Take achieved if MasterID and processID match and take bit set to 1 */
  if (HSEM->R[SemID] == (ProcessID | HSEM_CR_COREID_CURRENT | HSEM_R_LOCK))
 800136c:	4a08      	ldr	r2, [pc, #32]	; (8001390 <HAL_HSEM_Take+0x3c>)
 800136e:	687b      	ldr	r3, [r7, #4]
 8001370:	f852 2023 	ldr.w	r2, [r2, r3, lsl #2]
 8001374:	6839      	ldr	r1, [r7, #0]
 8001376:	4b07      	ldr	r3, [pc, #28]	; (8001394 <HAL_HSEM_Take+0x40>)
 8001378:	430b      	orrs	r3, r1
 800137a:	429a      	cmp	r2, r3
 800137c:	d101      	bne.n	8001382 <HAL_HSEM_Take+0x2e>
  {
    /*take success when MasterID and ProcessID match and take bit set*/
    return HAL_OK;
 800137e:	2300      	movs	r3, #0
 8001380:	e000      	b.n	8001384 <HAL_HSEM_Take+0x30>
  }
#endif

  /* Semaphore take fails*/
  return HAL_ERROR;
 8001382:	2301      	movs	r3, #1
}
 8001384:	4618      	mov	r0, r3
 8001386:	370c      	adds	r7, #12
 8001388:	46bd      	mov	sp, r7
 800138a:	f85d 7b04 	ldr.w	r7, [sp], #4
 800138e:	4770      	bx	lr
 8001390:	58026400 	.word	0x58026400
 8001394:	80000300 	.word	0x80000300

08001398 <HAL_HSEM_FastTake>:
  * @brief  Fast Take a semaphore with 1 Step mode.
  * @param  SemID: semaphore ID from 0 to 31
  * @retval HAL status
  */
HAL_StatusTypeDef HAL_HSEM_FastTake(uint32_t SemID)
{
 8001398:	b480      	push	{r7}
 800139a:	b083      	sub	sp, #12
 800139c:	af00      	add	r7, sp, #0
 800139e:	6078      	str	r0, [r7, #4]
    /*take success when MasterID match and take bit set*/
    return HAL_OK;
  }
#else  
  /* Read the RLR register to take the semaphore */
  if (HSEM->RLR[SemID] == (HSEM_CR_COREID_CURRENT | HSEM_RLR_LOCK))
 80013a0:	4a08      	ldr	r2, [pc, #32]	; (80013c4 <HAL_HSEM_FastTake+0x2c>)
 80013a2:	687b      	ldr	r3, [r7, #4]
 80013a4:	3320      	adds	r3, #32
 80013a6:	f852 3023 	ldr.w	r3, [r2, r3, lsl #2]
 80013aa:	4a07      	ldr	r2, [pc, #28]	; (80013c8 <HAL_HSEM_FastTake+0x30>)
 80013ac:	4293      	cmp	r3, r2
 80013ae:	d101      	bne.n	80013b4 <HAL_HSEM_FastTake+0x1c>
  {
    /*take success when MasterID match and take bit set*/
    return HAL_OK;
 80013b0:	2300      	movs	r3, #0
 80013b2:	e000      	b.n	80013b6 <HAL_HSEM_FastTake+0x1e>
  }
#endif

  /* Semaphore take fails */
  return HAL_ERROR;
 80013b4:	2301      	movs	r3, #1
}
 80013b6:	4618      	mov	r0, r3
 80013b8:	370c      	adds	r7, #12
 80013ba:	46bd      	mov	sp, r7
 80013bc:	f85d 7b04 	ldr.w	r7, [sp], #4
 80013c0:	4770      	bx	lr
 80013c2:	bf00      	nop
 80013c4:	58026400 	.word	0x58026400
 80013c8:	80000300 	.word	0x80000300

080013cc <HAL_HSEM_Release>:
  * @param  SemID: semaphore ID from 0 to 31
  * @param  ProcessID: Process ID from 0 to 255
  * @retval None
  */
void  HAL_HSEM_Release(uint32_t SemID, uint32_t ProcessID)
{
 80013cc:	b480      	push	{r7}
 80013ce:	b083      	sub	sp, #12
 80013d0:	af00      	add	r7, sp, #0
 80013d2:	6078      	str	r0, [r7, #4]
 80013d4:	6039      	str	r1, [r7, #0]

  /* Clear the semaphore by writing to the R register : the MasterID , the processID and take bit = 0  */
#if  USE_MULTI_CORE_SHARED_CODE != 0U
  HSEM->R[SemID] = (ProcessID | ((HAL_GetCurrentCPUID() << POSITION_VAL(HSEM_R_MASTERID)) & HSEM_R_MASTERID));
#else
  HSEM->R[SemID] = (ProcessID | HSEM_CR_COREID_CURRENT);
 80013d6:	4906      	ldr	r1, [pc, #24]	; (80013f0 <HAL_HSEM_Release+0x24>)
 80013d8:	683b      	ldr	r3, [r7, #0]
 80013da:	f443 7240 	orr.w	r2, r3, #768	; 0x300
 80013de:	687b      	ldr	r3, [r7, #4]
 80013e0:	f841 2023 	str.w	r2, [r1, r3, lsl #2]
#endif

}
 80013e4:	bf00      	nop
 80013e6:	370c      	adds	r7, #12
 80013e8:	46bd      	mov	sp, r7
 80013ea:	f85d 7b04 	ldr.w	r7, [sp], #4
 80013ee:	4770      	bx	lr
 80013f0:	58026400 	.word	0x58026400

080013f4 <HAL_HSEM_ActivateNotification>:
  * @brief  Activate Semaphore release Notification for a given Semaphores Mask .
  * @param  SemMask: Mask of Released semaphores
  * @retval Semaphore Key
  */
void HAL_HSEM_ActivateNotification(uint32_t SemMask)
{
 80013f4:	b480      	push	{r7}
 80013f6:	b083      	sub	sp, #12
 80013f8:	af00      	add	r7, sp, #0
 80013fa:	6078      	str	r0, [r7, #4]
  {
    /*Use interrupt line 1 for CPU2 Master*/
    HSEM->C2IER |= SemMask;
  }
#else
  HSEM_COMMON->IER |= SemMask;
 80013fc:	4b05      	ldr	r3, [pc, #20]	; (8001414 <HAL_HSEM_ActivateNotification+0x20>)
 80013fe:	681a      	ldr	r2, [r3, #0]
 8001400:	4904      	ldr	r1, [pc, #16]	; (8001414 <HAL_HSEM_ActivateNotification+0x20>)
 8001402:	687b      	ldr	r3, [r7, #4]
 8001404:	4313      	orrs	r3, r2
 8001406:	600b      	str	r3, [r1, #0]
#endif
}
 8001408:	bf00      	nop
 800140a:	370c      	adds	r7, #12
 800140c:	46bd      	mov	sp, r7
 800140e:	f85d 7b04 	ldr.w	r7, [sp], #4
 8001412:	4770      	bx	lr
 8001414:	58026500 	.word	0x58026500

08001418 <HAL_HSEM_IRQHandler>:
/**
  * @brief  This function handles HSEM interrupt request
  * @retval None
  */
void HAL_HSEM_IRQHandler(void)
{
 8001418:	b580      	push	{r7, lr}
 800141a:	b082      	sub	sp, #8
 800141c:	af00      	add	r7, sp, #0
    /*Clear Flags*/
    HSEM->C2ICR = ((uint32_t)statusreg);
  }
#else
  /* Get the list of masked freed semaphores*/
  statusreg = HSEM_COMMON->MISR;
 800141e:	4b0a      	ldr	r3, [pc, #40]	; (8001448 <HAL_HSEM_IRQHandler+0x30>)
 8001420:	68db      	ldr	r3, [r3, #12]
 8001422:	607b      	str	r3, [r7, #4]

  /*Disable Interrupts*/
  HSEM_COMMON->IER &= ~((uint32_t)statusreg);
 8001424:	4b08      	ldr	r3, [pc, #32]	; (8001448 <HAL_HSEM_IRQHandler+0x30>)
 8001426:	681a      	ldr	r2, [r3, #0]
 8001428:	687b      	ldr	r3, [r7, #4]
 800142a:	43db      	mvns	r3, r3
 800142c:	4906      	ldr	r1, [pc, #24]	; (8001448 <HAL_HSEM_IRQHandler+0x30>)
 800142e:	4013      	ands	r3, r2
 8001430:	600b      	str	r3, [r1, #0]

  /*Clear Flags*/
  HSEM_COMMON->ICR = ((uint32_t)statusreg);
 8001432:	4a05      	ldr	r2, [pc, #20]	; (8001448 <HAL_HSEM_IRQHandler+0x30>)
 8001434:	687b      	ldr	r3, [r7, #4]
 8001436:	6053      	str	r3, [r2, #4]

#endif
  /* Call FreeCallback */
  HAL_HSEM_FreeCallback(statusreg);
 8001438:	6878      	ldr	r0, [r7, #4]
 800143a:	f7ff fadd 	bl	80009f8 <HAL_HSEM_FreeCallback>
}
 800143e:	bf00      	nop
 8001440:	3708      	adds	r7, #8
 8001442:	46bd      	mov	sp, r7
 8001444:	bd80      	pop	{r7, pc}
 8001446:	bf00      	nop
 8001448:	58026500 	.word	0x58026500

0800144c <HAL_PWREx_ConfigSupply>:
  *         PWR_SMPS_2V5_SUPPLIES_EXT are used only for lines that supports SMPS
  *         regulator.
  * @retval HAL status.
  */
HAL_StatusTypeDef HAL_PWREx_ConfigSupply (uint32_t SupplySource)
{
 800144c:	b580      	push	{r7, lr}
 800144e:	b084      	sub	sp, #16
 8001450:	af00      	add	r7, sp, #0
 8001452:	6078      	str	r0, [r7, #4]

  /* Check if supply source was configured */
#if defined (PWR_FLAG_SCUEN)
  if (__HAL_PWR_GET_FLAG (PWR_FLAG_SCUEN) == 0U)
#else
  if ((PWR->CR3 & (PWR_CR3_SMPSEN | PWR_CR3_LDOEN | PWR_CR3_BYPASS)) != (PWR_CR3_SMPSEN | PWR_CR3_LDOEN))
 8001454:	4b29      	ldr	r3, [pc, #164]	; (80014fc <HAL_PWREx_ConfigSupply+0xb0>)
 8001456:	68db      	ldr	r3, [r3, #12]
 8001458:	f003 0307 	and.w	r3, r3, #7
 800145c:	2b06      	cmp	r3, #6
 800145e:	d00a      	beq.n	8001476 <HAL_PWREx_ConfigSupply+0x2a>
#endif /* defined (PWR_FLAG_SCUEN) */
  {
    /* Check supply configuration */
    if ((PWR->CR3 & PWR_SUPPLY_CONFIG_MASK) != SupplySource)
 8001460:	4b26      	ldr	r3, [pc, #152]	; (80014fc <HAL_PWREx_ConfigSupply+0xb0>)
 8001462:	68db      	ldr	r3, [r3, #12]
 8001464:	f003 033f 	and.w	r3, r3, #63	; 0x3f
 8001468:	687a      	ldr	r2, [r7, #4]
 800146a:	429a      	cmp	r2, r3
 800146c:	d001      	beq.n	8001472 <HAL_PWREx_ConfigSupply+0x26>
    {
      /* Supply configuration update locked, can't apply a new supply config */
      return HAL_ERROR;
 800146e:	2301      	movs	r3, #1
 8001470:	e040      	b.n	80014f4 <HAL_PWREx_ConfigSupply+0xa8>
    else
    {
      /* Supply configuration update locked, but new supply configuration
         matches with old supply configuration : nothing to do
      */
      return HAL_OK;
 8001472:	2300      	movs	r3, #0
 8001474:	e03e      	b.n	80014f4 <HAL_PWREx_ConfigSupply+0xa8>
    }
  }

  /* Set the power supply configuration */
  MODIFY_REG (PWR->CR3, PWR_SUPPLY_CONFIG_MASK, SupplySource);
 8001476:	4b21      	ldr	r3, [pc, #132]	; (80014fc <HAL_PWREx_ConfigSupply+0xb0>)
 8001478:	68db      	ldr	r3, [r3, #12]
 800147a:	f023 023f 	bic.w	r2, r3, #63	; 0x3f
 800147e:	491f      	ldr	r1, [pc, #124]	; (80014fc <HAL_PWREx_ConfigSupply+0xb0>)
 8001480:	687b      	ldr	r3, [r7, #4]
 8001482:	4313      	orrs	r3, r2
 8001484:	60cb      	str	r3, [r1, #12]

  /* Get tick */
  tickstart = HAL_GetTick ();
 8001486:	f7ff fc37 	bl	8000cf8 <HAL_GetTick>
 800148a:	60f8      	str	r0, [r7, #12]

  /* Wait till voltage level flag is set */
  while (__HAL_PWR_GET_FLAG (PWR_FLAG_ACTVOSRDY) == 0U)
 800148c:	e009      	b.n	80014a2 <HAL_PWREx_ConfigSupply+0x56>
  {
    if ((HAL_GetTick () - tickstart) > PWR_FLAG_SETTING_DELAY)
 800148e:	f7ff fc33 	bl	8000cf8 <HAL_GetTick>
 8001492:	4602      	mov	r2, r0
 8001494:	68fb      	ldr	r3, [r7, #12]
 8001496:	1ad3      	subs	r3, r2, r3
 8001498:	f5b3 7f7a 	cmp.w	r3, #1000	; 0x3e8
 800149c:	d901      	bls.n	80014a2 <HAL_PWREx_ConfigSupply+0x56>
    {
      return HAL_ERROR;
 800149e:	2301      	movs	r3, #1
 80014a0:	e028      	b.n	80014f4 <HAL_PWREx_ConfigSupply+0xa8>
  while (__HAL_PWR_GET_FLAG (PWR_FLAG_ACTVOSRDY) == 0U)
 80014a2:	4b16      	ldr	r3, [pc, #88]	; (80014fc <HAL_PWREx_ConfigSupply+0xb0>)
 80014a4:	685b      	ldr	r3, [r3, #4]
 80014a6:	f403 5300 	and.w	r3, r3, #8192	; 0x2000
 80014aa:	f5b3 5f00 	cmp.w	r3, #8192	; 0x2000
 80014ae:	d1ee      	bne.n	800148e <HAL_PWREx_ConfigSupply+0x42>
    }
  }

#if defined (SMPS)
  /* When the SMPS supplies external circuits verify that SDEXTRDY flag is set */
  if ((SupplySource == PWR_SMPS_1V8_SUPPLIES_EXT_AND_LDO) ||
 80014b0:	687b      	ldr	r3, [r7, #4]
 80014b2:	2b1e      	cmp	r3, #30
 80014b4:	d008      	beq.n	80014c8 <HAL_PWREx_ConfigSupply+0x7c>
 80014b6:	687b      	ldr	r3, [r7, #4]
 80014b8:	2b2e      	cmp	r3, #46	; 0x2e
 80014ba:	d005      	beq.n	80014c8 <HAL_PWREx_ConfigSupply+0x7c>
      (SupplySource == PWR_SMPS_2V5_SUPPLIES_EXT_AND_LDO) ||
 80014bc:	687b      	ldr	r3, [r7, #4]
 80014be:	2b1d      	cmp	r3, #29
 80014c0:	d002      	beq.n	80014c8 <HAL_PWREx_ConfigSupply+0x7c>
      (SupplySource == PWR_SMPS_1V8_SUPPLIES_EXT)         ||
 80014c2:	687b      	ldr	r3, [r7, #4]
 80014c4:	2b2d      	cmp	r3, #45	; 0x2d
 80014c6:	d114      	bne.n	80014f2 <HAL_PWREx_ConfigSupply+0xa6>
      (SupplySource == PWR_SMPS_2V5_SUPPLIES_EXT))
  {
    /* Get the current tick number */
    tickstart = HAL_GetTick ();
 80014c8:	f7ff fc16 	bl	8000cf8 <HAL_GetTick>
 80014cc:	60f8      	str	r0, [r7, #12]

    /* Wait till SMPS external supply ready flag is set */
    while (__HAL_PWR_GET_FLAG (PWR_FLAG_SMPSEXTRDY) == 0U)
 80014ce:	e009      	b.n	80014e4 <HAL_PWREx_ConfigSupply+0x98>
    {
      if ((HAL_GetTick () - tickstart) > PWR_FLAG_SETTING_DELAY)
 80014d0:	f7ff fc12 	bl	8000cf8 <HAL_GetTick>
 80014d4:	4602      	mov	r2, r0
 80014d6:	68fb      	ldr	r3, [r7, #12]
 80014d8:	1ad3      	subs	r3, r2, r3
 80014da:	f5b3 7f7a 	cmp.w	r3, #1000	; 0x3e8
 80014de:	d901      	bls.n	80014e4 <HAL_PWREx_ConfigSupply+0x98>
      {
        return HAL_ERROR;
 80014e0:	2301      	movs	r3, #1
 80014e2:	e007      	b.n	80014f4 <HAL_PWREx_ConfigSupply+0xa8>
    while (__HAL_PWR_GET_FLAG (PWR_FLAG_SMPSEXTRDY) == 0U)
 80014e4:	4b05      	ldr	r3, [pc, #20]	; (80014fc <HAL_PWREx_ConfigSupply+0xb0>)
 80014e6:	68db      	ldr	r3, [r3, #12]
 80014e8:	f403 3380 	and.w	r3, r3, #65536	; 0x10000
 80014ec:	f5b3 3f80 	cmp.w	r3, #65536	; 0x10000
 80014f0:	d1ee      	bne.n	80014d0 <HAL_PWREx_ConfigSupply+0x84>
      }
    }
  }
#endif /* defined (SMPS) */

  return HAL_OK;
 80014f2:	2300      	movs	r3, #0
}
 80014f4:	4618      	mov	r0, r3
 80014f6:	3710      	adds	r7, #16
 80014f8:	46bd      	mov	sp, r7
 80014fa:	bd80      	pop	{r7, pc}
 80014fc:	58024800 	.word	0x58024800

08001500 <HAL_RCC_OscConfig>:
  *         supported by this function. User should request a transition to HSE Off
  *         first and then HSE On or HSE Bypass.
  * @retval HAL status
  */
__weak HAL_StatusTypeDef HAL_RCC_OscConfig(RCC_OscInitTypeDef  *RCC_OscInitStruct)
{
 8001500:	b580      	push	{r7, lr}
 8001502:	b08c      	sub	sp, #48	; 0x30
 8001504:	af00      	add	r7, sp, #0
 8001506:	6078      	str	r0, [r7, #4]
  uint32_t tickstart;
  uint32_t temp1_pllckcfg, temp2_pllckcfg;

    /* Check Null pointer */
  if(RCC_OscInitStruct == NULL)
 8001508:	687b      	ldr	r3, [r7, #4]
 800150a:	2b00      	cmp	r3, #0
 800150c:	d102      	bne.n	8001514 <HAL_RCC_OscConfig+0x14>
  {
    return HAL_ERROR;
 800150e:	2301      	movs	r3, #1
 8001510:	f000 bc1d 	b.w	8001d4e <HAL_RCC_OscConfig+0x84e>
  }

  /* Check the parameters */
  assert_param(IS_RCC_OSCILLATORTYPE(RCC_OscInitStruct->OscillatorType));
  /*------------------------------- HSE Configuration ------------------------*/
  if(((RCC_OscInitStruct->OscillatorType) & RCC_OSCILLATORTYPE_HSE) == RCC_OSCILLATORTYPE_HSE)
 8001514:	687b      	ldr	r3, [r7, #4]
 8001516:	681b      	ldr	r3, [r3, #0]
 8001518:	f003 0301 	and.w	r3, r3, #1
 800151c:	2b00      	cmp	r3, #0
 800151e:	f000 8087 	beq.w	8001630 <HAL_RCC_OscConfig+0x130>
  {
    /* Check the parameters */
    assert_param(IS_RCC_HSE(RCC_OscInitStruct->HSEState));

    const uint32_t temp_sysclksrc = __HAL_RCC_GET_SYSCLK_SOURCE();
 8001522:	4b99      	ldr	r3, [pc, #612]	; (8001788 <HAL_RCC_OscConfig+0x288>)
 8001524:	691b      	ldr	r3, [r3, #16]
 8001526:	f003 0338 	and.w	r3, r3, #56	; 0x38
 800152a:	62fb      	str	r3, [r7, #44]	; 0x2c
    const uint32_t temp_pllckselr = RCC->PLLCKSELR;
 800152c:	4b96      	ldr	r3, [pc, #600]	; (8001788 <HAL_RCC_OscConfig+0x288>)
 800152e:	6a9b      	ldr	r3, [r3, #40]	; 0x28
 8001530:	62bb      	str	r3, [r7, #40]	; 0x28
    /* When the HSE is used as system clock or clock source for PLL in these cases HSE will not disabled */
    if((temp_sysclksrc == RCC_CFGR_SWS_HSE) || ((temp_sysclksrc == RCC_CFGR_SWS_PLL1) && ((temp_pllckselr & RCC_PLLCKSELR_PLLSRC) == RCC_PLLCKSELR_PLLSRC_HSE)))
 8001532:	6afb      	ldr	r3, [r7, #44]	; 0x2c
 8001534:	2b10      	cmp	r3, #16
 8001536:	d007      	beq.n	8001548 <HAL_RCC_OscConfig+0x48>
 8001538:	6afb      	ldr	r3, [r7, #44]	; 0x2c
 800153a:	2b18      	cmp	r3, #24
 800153c:	d110      	bne.n	8001560 <HAL_RCC_OscConfig+0x60>
 800153e:	6abb      	ldr	r3, [r7, #40]	; 0x28
 8001540:	f003 0303 	and.w	r3, r3, #3
 8001544:	2b02      	cmp	r3, #2
 8001546:	d10b      	bne.n	8001560 <HAL_RCC_OscConfig+0x60>
    {
      if((__HAL_RCC_GET_FLAG(RCC_FLAG_HSERDY) != 0U) && (RCC_OscInitStruct->HSEState == RCC_HSE_OFF))
 8001548:	4b8f      	ldr	r3, [pc, #572]	; (8001788 <HAL_RCC_OscConfig+0x288>)
 800154a:	681b      	ldr	r3, [r3, #0]
 800154c:	f403 3300 	and.w	r3, r3, #131072	; 0x20000
 8001550:	2b00      	cmp	r3, #0
 8001552:	d06c      	beq.n	800162e <HAL_RCC_OscConfig+0x12e>
 8001554:	687b      	ldr	r3, [r7, #4]
 8001556:	685b      	ldr	r3, [r3, #4]
 8001558:	2b00      	cmp	r3, #0
 800155a:	d168      	bne.n	800162e <HAL_RCC_OscConfig+0x12e>
      {
        return HAL_ERROR;
 800155c:	2301      	movs	r3, #1
 800155e:	e3f6      	b.n	8001d4e <HAL_RCC_OscConfig+0x84e>
      }
    }
    else
    {
      /* Set the new HSE configuration ---------------------------------------*/
      __HAL_RCC_HSE_CONFIG(RCC_OscInitStruct->HSEState);
 8001560:	687b      	ldr	r3, [r7, #4]
 8001562:	685b      	ldr	r3, [r3, #4]
 8001564:	f5b3 3f80 	cmp.w	r3, #65536	; 0x10000
 8001568:	d106      	bne.n	8001578 <HAL_RCC_OscConfig+0x78>
 800156a:	4b87      	ldr	r3, [pc, #540]	; (8001788 <HAL_RCC_OscConfig+0x288>)
 800156c:	681b      	ldr	r3, [r3, #0]
 800156e:	4a86      	ldr	r2, [pc, #536]	; (8001788 <HAL_RCC_OscConfig+0x288>)
 8001570:	f443 3380 	orr.w	r3, r3, #65536	; 0x10000
 8001574:	6013      	str	r3, [r2, #0]
 8001576:	e02e      	b.n	80015d6 <HAL_RCC_OscConfig+0xd6>
 8001578:	687b      	ldr	r3, [r7, #4]
 800157a:	685b      	ldr	r3, [r3, #4]
 800157c:	2b00      	cmp	r3, #0
 800157e:	d10c      	bne.n	800159a <HAL_RCC_OscConfig+0x9a>
 8001580:	4b81      	ldr	r3, [pc, #516]	; (8001788 <HAL_RCC_OscConfig+0x288>)
 8001582:	681b      	ldr	r3, [r3, #0]
 8001584:	4a80      	ldr	r2, [pc, #512]	; (8001788 <HAL_RCC_OscConfig+0x288>)
 8001586:	f423 3380 	bic.w	r3, r3, #65536	; 0x10000
 800158a:	6013      	str	r3, [r2, #0]
 800158c:	4b7e      	ldr	r3, [pc, #504]	; (8001788 <HAL_RCC_OscConfig+0x288>)
 800158e:	681b      	ldr	r3, [r3, #0]
 8001590:	4a7d      	ldr	r2, [pc, #500]	; (8001788 <HAL_RCC_OscConfig+0x288>)
 8001592:	f423 2380 	bic.w	r3, r3, #262144	; 0x40000
 8001596:	6013      	str	r3, [r2, #0]
 8001598:	e01d      	b.n	80015d6 <HAL_RCC_OscConfig+0xd6>
 800159a:	687b      	ldr	r3, [r7, #4]
 800159c:	685b      	ldr	r3, [r3, #4]
 800159e:	f5b3 2fa0 	cmp.w	r3, #327680	; 0x50000
 80015a2:	d10c      	bne.n	80015be <HAL_RCC_OscConfig+0xbe>
 80015a4:	4b78      	ldr	r3, [pc, #480]	; (8001788 <HAL_RCC_OscConfig+0x288>)
 80015a6:	681b      	ldr	r3, [r3, #0]
 80015a8:	4a77      	ldr	r2, [pc, #476]	; (8001788 <HAL_RCC_OscConfig+0x288>)
 80015aa:	f443 2380 	orr.w	r3, r3, #262144	; 0x40000
 80015ae:	6013      	str	r3, [r2, #0]
 80015b0:	4b75      	ldr	r3, [pc, #468]	; (8001788 <HAL_RCC_OscConfig+0x288>)
 80015b2:	681b      	ldr	r3, [r3, #0]
 80015b4:	4a74      	ldr	r2, [pc, #464]	; (8001788 <HAL_RCC_OscConfig+0x288>)
 80015b6:	f443 3380 	orr.w	r3, r3, #65536	; 0x10000
 80015ba:	6013      	str	r3, [r2, #0]
 80015bc:	e00b      	b.n	80015d6 <HAL_RCC_OscConfig+0xd6>
 80015be:	4b72      	ldr	r3, [pc, #456]	; (8001788 <HAL_RCC_OscConfig+0x288>)
 80015c0:	681b      	ldr	r3, [r3, #0]
 80015c2:	4a71      	ldr	r2, [pc, #452]	; (8001788 <HAL_RCC_OscConfig+0x288>)
 80015c4:	f423 3380 	bic.w	r3, r3, #65536	; 0x10000
 80015c8:	6013      	str	r3, [r2, #0]
 80015ca:	4b6f      	ldr	r3, [pc, #444]	; (8001788 <HAL_RCC_OscConfig+0x288>)
 80015cc:	681b      	ldr	r3, [r3, #0]
 80015ce:	4a6e      	ldr	r2, [pc, #440]	; (8001788 <HAL_RCC_OscConfig+0x288>)
 80015d0:	f423 2380 	bic.w	r3, r3, #262144	; 0x40000
 80015d4:	6013      	str	r3, [r2, #0]

      /* Check the HSE State */
      if(RCC_OscInitStruct->HSEState != RCC_HSE_OFF)
 80015d6:	687b      	ldr	r3, [r7, #4]
 80015d8:	685b      	ldr	r3, [r3, #4]
 80015da:	2b00      	cmp	r3, #0
 80015dc:	d013      	beq.n	8001606 <HAL_RCC_OscConfig+0x106>
      {
        /* Get Start Tick*/
        tickstart = HAL_GetTick();
 80015de:	f7ff fb8b 	bl	8000cf8 <HAL_GetTick>
 80015e2:	6278      	str	r0, [r7, #36]	; 0x24

        /* Wait till HSE is ready */
        while(__HAL_RCC_GET_FLAG(RCC_FLAG_HSERDY) == 0U)
 80015e4:	e008      	b.n	80015f8 <HAL_RCC_OscConfig+0xf8>
        {
          if((uint32_t) (HAL_GetTick() - tickstart ) > HSE_TIMEOUT_VALUE)
 80015e6:	f7ff fb87 	bl	8000cf8 <HAL_GetTick>
 80015ea:	4602      	mov	r2, r0
 80015ec:	6a7b      	ldr	r3, [r7, #36]	; 0x24
 80015ee:	1ad3      	subs	r3, r2, r3
 80015f0:	2b64      	cmp	r3, #100	; 0x64
 80015f2:	d901      	bls.n	80015f8 <HAL_RCC_OscConfig+0xf8>
          {
            return HAL_TIMEOUT;
 80015f4:	2303      	movs	r3, #3
 80015f6:	e3aa      	b.n	8001d4e <HAL_RCC_OscConfig+0x84e>
        while(__HAL_RCC_GET_FLAG(RCC_FLAG_HSERDY) == 0U)
 80015f8:	4b63      	ldr	r3, [pc, #396]	; (8001788 <HAL_RCC_OscConfig+0x288>)
 80015fa:	681b      	ldr	r3, [r3, #0]
 80015fc:	f403 3300 	and.w	r3, r3, #131072	; 0x20000
 8001600:	2b00      	cmp	r3, #0
 8001602:	d0f0      	beq.n	80015e6 <HAL_RCC_OscConfig+0xe6>
 8001604:	e014      	b.n	8001630 <HAL_RCC_OscConfig+0x130>
        }
      }
      else
      {
        /* Get Start Tick*/
        tickstart = HAL_GetTick();
 8001606:	f7ff fb77 	bl	8000cf8 <HAL_GetTick>
 800160a:	6278      	str	r0, [r7, #36]	; 0x24

        /* Wait till HSE is disabled */
        while(__HAL_RCC_GET_FLAG(RCC_FLAG_HSERDY) != 0U)
 800160c:	e008      	b.n	8001620 <HAL_RCC_OscConfig+0x120>
        {
          if((uint32_t) (HAL_GetTick() - tickstart ) > HSE_TIMEOUT_VALUE)
 800160e:	f7ff fb73 	bl	8000cf8 <HAL_GetTick>
 8001612:	4602      	mov	r2, r0
 8001614:	6a7b      	ldr	r3, [r7, #36]	; 0x24
 8001616:	1ad3      	subs	r3, r2, r3
 8001618:	2b64      	cmp	r3, #100	; 0x64
 800161a:	d901      	bls.n	8001620 <HAL_RCC_OscConfig+0x120>
          {
            return HAL_TIMEOUT;
 800161c:	2303      	movs	r3, #3
 800161e:	e396      	b.n	8001d4e <HAL_RCC_OscConfig+0x84e>
        while(__HAL_RCC_GET_FLAG(RCC_FLAG_HSERDY) != 0U)
 8001620:	4b59      	ldr	r3, [pc, #356]	; (8001788 <HAL_RCC_OscConfig+0x288>)
 8001622:	681b      	ldr	r3, [r3, #0]
 8001624:	f403 3300 	and.w	r3, r3, #131072	; 0x20000
 8001628:	2b00      	cmp	r3, #0
 800162a:	d1f0      	bne.n	800160e <HAL_RCC_OscConfig+0x10e>
 800162c:	e000      	b.n	8001630 <HAL_RCC_OscConfig+0x130>
      if((__HAL_RCC_GET_FLAG(RCC_FLAG_HSERDY) != 0U) && (RCC_OscInitStruct->HSEState == RCC_HSE_OFF))
 800162e:	bf00      	nop
        }
      }
    }
  }
  /*----------------------------- HSI Configuration --------------------------*/
  if(((RCC_OscInitStruct->OscillatorType) & RCC_OSCILLATORTYPE_HSI) == RCC_OSCILLATORTYPE_HSI)
 8001630:	687b      	ldr	r3, [r7, #4]
 8001632:	681b      	ldr	r3, [r3, #0]
 8001634:	f003 0302 	and.w	r3, r3, #2
 8001638:	2b00      	cmp	r3, #0
 800163a:	f000 80cb 	beq.w	80017d4 <HAL_RCC_OscConfig+0x2d4>
    /* Check the parameters */
    assert_param(IS_RCC_HSI(RCC_OscInitStruct->HSIState));
    assert_param(IS_RCC_HSICALIBRATION_VALUE(RCC_OscInitStruct->HSICalibrationValue));

    /* When the HSI is used as system clock it will not be disabled */
    const uint32_t temp_sysclksrc = __HAL_RCC_GET_SYSCLK_SOURCE();
 800163e:	4b52      	ldr	r3, [pc, #328]	; (8001788 <HAL_RCC_OscConfig+0x288>)
 8001640:	691b      	ldr	r3, [r3, #16]
 8001642:	f003 0338 	and.w	r3, r3, #56	; 0x38
 8001646:	623b      	str	r3, [r7, #32]
    const uint32_t temp_pllckselr = RCC->PLLCKSELR;
 8001648:	4b4f      	ldr	r3, [pc, #316]	; (8001788 <HAL_RCC_OscConfig+0x288>)
 800164a:	6a9b      	ldr	r3, [r3, #40]	; 0x28
 800164c:	61fb      	str	r3, [r7, #28]
    if((temp_sysclksrc == RCC_CFGR_SWS_HSI) || ((temp_sysclksrc == RCC_CFGR_SWS_PLL1) && ((temp_pllckselr & RCC_PLLCKSELR_PLLSRC) == RCC_PLLCKSELR_PLLSRC_HSI)))
 800164e:	6a3b      	ldr	r3, [r7, #32]
 8001650:	2b00      	cmp	r3, #0
 8001652:	d007      	beq.n	8001664 <HAL_RCC_OscConfig+0x164>
 8001654:	6a3b      	ldr	r3, [r7, #32]
 8001656:	2b18      	cmp	r3, #24
 8001658:	d156      	bne.n	8001708 <HAL_RCC_OscConfig+0x208>
 800165a:	69fb      	ldr	r3, [r7, #28]
 800165c:	f003 0303 	and.w	r3, r3, #3
 8001660:	2b00      	cmp	r3, #0
 8001662:	d151      	bne.n	8001708 <HAL_RCC_OscConfig+0x208>
    {
      /* When HSI is used as system clock it will not be disabled */
      if((__HAL_RCC_GET_FLAG(RCC_FLAG_HSIRDY) != 0U) && (RCC_OscInitStruct->HSIState == RCC_HSI_OFF))
 8001664:	4b48      	ldr	r3, [pc, #288]	; (8001788 <HAL_RCC_OscConfig+0x288>)
 8001666:	681b      	ldr	r3, [r3, #0]
 8001668:	f003 0304 	and.w	r3, r3, #4
 800166c:	2b00      	cmp	r3, #0
 800166e:	d005      	beq.n	800167c <HAL_RCC_OscConfig+0x17c>
 8001670:	687b      	ldr	r3, [r7, #4]
 8001672:	68db      	ldr	r3, [r3, #12]
 8001674:	2b00      	cmp	r3, #0
 8001676:	d101      	bne.n	800167c <HAL_RCC_OscConfig+0x17c>
      {
        return HAL_ERROR;
 8001678:	2301      	movs	r3, #1
 800167a:	e368      	b.n	8001d4e <HAL_RCC_OscConfig+0x84e>
      }
      /* Otherwise, only HSI division and calibration are allowed */
      else
      {
          /* Enable the Internal High Speed oscillator (HSI, HSIDIV2, HSIDIV4, or HSIDIV8) */
          __HAL_RCC_HSI_CONFIG(RCC_OscInitStruct->HSIState);
 800167c:	4b42      	ldr	r3, [pc, #264]	; (8001788 <HAL_RCC_OscConfig+0x288>)
 800167e:	681b      	ldr	r3, [r3, #0]
 8001680:	f023 0219 	bic.w	r2, r3, #25
 8001684:	687b      	ldr	r3, [r7, #4]
 8001686:	68db      	ldr	r3, [r3, #12]
 8001688:	493f      	ldr	r1, [pc, #252]	; (8001788 <HAL_RCC_OscConfig+0x288>)
 800168a:	4313      	orrs	r3, r2
 800168c:	600b      	str	r3, [r1, #0]

          /* Get Start Tick*/
          tickstart = HAL_GetTick();
 800168e:	f7ff fb33 	bl	8000cf8 <HAL_GetTick>
 8001692:	6278      	str	r0, [r7, #36]	; 0x24

          /* Wait till HSI is ready */
          while(__HAL_RCC_GET_FLAG(RCC_FLAG_HSIRDY) == 0U)
 8001694:	e008      	b.n	80016a8 <HAL_RCC_OscConfig+0x1a8>
          {
            if((uint32_t) (HAL_GetTick() - tickstart ) > HSI_TIMEOUT_VALUE)
 8001696:	f7ff fb2f 	bl	8000cf8 <HAL_GetTick>
 800169a:	4602      	mov	r2, r0
 800169c:	6a7b      	ldr	r3, [r7, #36]	; 0x24
 800169e:	1ad3      	subs	r3, r2, r3
 80016a0:	2b02      	cmp	r3, #2
 80016a2:	d901      	bls.n	80016a8 <HAL_RCC_OscConfig+0x1a8>
            {
              return HAL_TIMEOUT;
 80016a4:	2303      	movs	r3, #3
 80016a6:	e352      	b.n	8001d4e <HAL_RCC_OscConfig+0x84e>
          while(__HAL_RCC_GET_FLAG(RCC_FLAG_HSIRDY) == 0U)
 80016a8:	4b37      	ldr	r3, [pc, #220]	; (8001788 <HAL_RCC_OscConfig+0x288>)
 80016aa:	681b      	ldr	r3, [r3, #0]
 80016ac:	f003 0304 	and.w	r3, r3, #4
 80016b0:	2b00      	cmp	r3, #0
 80016b2:	d0f0      	beq.n	8001696 <HAL_RCC_OscConfig+0x196>
            }
          }
        /* Adjusts the Internal High Speed oscillator (HSI) calibration value.*/
        __HAL_RCC_HSI_CALIBRATIONVALUE_ADJUST(RCC_OscInitStruct->HSICalibrationValue);
 80016b4:	f7ff fb50 	bl	8000d58 <HAL_GetREVID>
 80016b8:	4603      	mov	r3, r0
 80016ba:	f241 0203 	movw	r2, #4099	; 0x1003
 80016be:	4293      	cmp	r3, r2
 80016c0:	d817      	bhi.n	80016f2 <HAL_RCC_OscConfig+0x1f2>
 80016c2:	687b      	ldr	r3, [r7, #4]
 80016c4:	691b      	ldr	r3, [r3, #16]
 80016c6:	2b40      	cmp	r3, #64	; 0x40
 80016c8:	d108      	bne.n	80016dc <HAL_RCC_OscConfig+0x1dc>
 80016ca:	4b2f      	ldr	r3, [pc, #188]	; (8001788 <HAL_RCC_OscConfig+0x288>)
 80016cc:	685b      	ldr	r3, [r3, #4]
 80016ce:	f423 337c 	bic.w	r3, r3, #258048	; 0x3f000
 80016d2:	4a2d      	ldr	r2, [pc, #180]	; (8001788 <HAL_RCC_OscConfig+0x288>)
 80016d4:	f443 3300 	orr.w	r3, r3, #131072	; 0x20000
 80016d8:	6053      	str	r3, [r2, #4]
      if((__HAL_RCC_GET_FLAG(RCC_FLAG_HSIRDY) != 0U) && (RCC_OscInitStruct->HSIState == RCC_HSI_OFF))
 80016da:	e07b      	b.n	80017d4 <HAL_RCC_OscConfig+0x2d4>
        __HAL_RCC_HSI_CALIBRATIONVALUE_ADJUST(RCC_OscInitStruct->HSICalibrationValue);
 80016dc:	4b2a      	ldr	r3, [pc, #168]	; (8001788 <HAL_RCC_OscConfig+0x288>)
 80016de:	685b      	ldr	r3, [r3, #4]
 80016e0:	f423 327c 	bic.w	r2, r3, #258048	; 0x3f000
 80016e4:	687b      	ldr	r3, [r7, #4]
 80016e6:	691b      	ldr	r3, [r3, #16]
 80016e8:	031b      	lsls	r3, r3, #12
 80016ea:	4927      	ldr	r1, [pc, #156]	; (8001788 <HAL_RCC_OscConfig+0x288>)
 80016ec:	4313      	orrs	r3, r2
 80016ee:	604b      	str	r3, [r1, #4]
      if((__HAL_RCC_GET_FLAG(RCC_FLAG_HSIRDY) != 0U) && (RCC_OscInitStruct->HSIState == RCC_HSI_OFF))
 80016f0:	e070      	b.n	80017d4 <HAL_RCC_OscConfig+0x2d4>
        __HAL_RCC_HSI_CALIBRATIONVALUE_ADJUST(RCC_OscInitStruct->HSICalibrationValue);
 80016f2:	4b25      	ldr	r3, [pc, #148]	; (8001788 <HAL_RCC_OscConfig+0x288>)
 80016f4:	685b      	ldr	r3, [r3, #4]
 80016f6:	f023 42fe 	bic.w	r2, r3, #2130706432	; 0x7f000000
 80016fa:	687b      	ldr	r3, [r7, #4]
 80016fc:	691b      	ldr	r3, [r3, #16]
 80016fe:	061b      	lsls	r3, r3, #24
 8001700:	4921      	ldr	r1, [pc, #132]	; (8001788 <HAL_RCC_OscConfig+0x288>)
 8001702:	4313      	orrs	r3, r2
 8001704:	604b      	str	r3, [r1, #4]
      if((__HAL_RCC_GET_FLAG(RCC_FLAG_HSIRDY) != 0U) && (RCC_OscInitStruct->HSIState == RCC_HSI_OFF))
 8001706:	e065      	b.n	80017d4 <HAL_RCC_OscConfig+0x2d4>
    }

    else
    {
      /* Check the HSI State */
      if((RCC_OscInitStruct->HSIState)!= RCC_HSI_OFF)
 8001708:	687b      	ldr	r3, [r7, #4]
 800170a:	68db      	ldr	r3, [r3, #12]
 800170c:	2b00      	cmp	r3, #0
 800170e:	d048      	beq.n	80017a2 <HAL_RCC_OscConfig+0x2a2>
      {
     /* Enable the Internal High Speed oscillator (HSI, HSIDIV2,HSIDIV4, or HSIDIV8) */
        __HAL_RCC_HSI_CONFIG(RCC_OscInitStruct->HSIState);
 8001710:	4b1d      	ldr	r3, [pc, #116]	; (8001788 <HAL_RCC_OscConfig+0x288>)
 8001712:	681b      	ldr	r3, [r3, #0]
 8001714:	f023 0219 	bic.w	r2, r3, #25
 8001718:	687b      	ldr	r3, [r7, #4]
 800171a:	68db      	ldr	r3, [r3, #12]
 800171c:	491a      	ldr	r1, [pc, #104]	; (8001788 <HAL_RCC_OscConfig+0x288>)
 800171e:	4313      	orrs	r3, r2
 8001720:	600b      	str	r3, [r1, #0]

        /* Get Start Tick*/
        tickstart = HAL_GetTick();
 8001722:	f7ff fae9 	bl	8000cf8 <HAL_GetTick>
 8001726:	6278      	str	r0, [r7, #36]	; 0x24

        /* Wait till HSI is ready */
        while(__HAL_RCC_GET_FLAG(RCC_FLAG_HSIRDY) == 0U)
 8001728:	e008      	b.n	800173c <HAL_RCC_OscConfig+0x23c>
        {
          if((HAL_GetTick() - tickstart ) > HSI_TIMEOUT_VALUE)
 800172a:	f7ff fae5 	bl	8000cf8 <HAL_GetTick>
 800172e:	4602      	mov	r2, r0
 8001730:	6a7b      	ldr	r3, [r7, #36]	; 0x24
 8001732:	1ad3      	subs	r3, r2, r3
 8001734:	2b02      	cmp	r3, #2
 8001736:	d901      	bls.n	800173c <HAL_RCC_OscConfig+0x23c>
          {
            return HAL_TIMEOUT;
 8001738:	2303      	movs	r3, #3
 800173a:	e308      	b.n	8001d4e <HAL_RCC_OscConfig+0x84e>
        while(__HAL_RCC_GET_FLAG(RCC_FLAG_HSIRDY) == 0U)
 800173c:	4b12      	ldr	r3, [pc, #72]	; (8001788 <HAL_RCC_OscConfig+0x288>)
 800173e:	681b      	ldr	r3, [r3, #0]
 8001740:	f003 0304 	and.w	r3, r3, #4
 8001744:	2b00      	cmp	r3, #0
 8001746:	d0f0      	beq.n	800172a <HAL_RCC_OscConfig+0x22a>
          }
        }

        /* Adjusts the Internal High Speed oscillator (HSI) calibration value.*/
        __HAL_RCC_HSI_CALIBRATIONVALUE_ADJUST(RCC_OscInitStruct->HSICalibrationValue);
 8001748:	f7ff fb06 	bl	8000d58 <HAL_GetREVID>
 800174c:	4603      	mov	r3, r0
 800174e:	f241 0203 	movw	r2, #4099	; 0x1003
 8001752:	4293      	cmp	r3, r2
 8001754:	d81a      	bhi.n	800178c <HAL_RCC_OscConfig+0x28c>
 8001756:	687b      	ldr	r3, [r7, #4]
 8001758:	691b      	ldr	r3, [r3, #16]
 800175a:	2b40      	cmp	r3, #64	; 0x40
 800175c:	d108      	bne.n	8001770 <HAL_RCC_OscConfig+0x270>
 800175e:	4b0a      	ldr	r3, [pc, #40]	; (8001788 <HAL_RCC_OscConfig+0x288>)
 8001760:	685b      	ldr	r3, [r3, #4]
 8001762:	f423 337c 	bic.w	r3, r3, #258048	; 0x3f000
 8001766:	4a08      	ldr	r2, [pc, #32]	; (8001788 <HAL_RCC_OscConfig+0x288>)
 8001768:	f443 3300 	orr.w	r3, r3, #131072	; 0x20000
 800176c:	6053      	str	r3, [r2, #4]
 800176e:	e031      	b.n	80017d4 <HAL_RCC_OscConfig+0x2d4>
 8001770:	4b05      	ldr	r3, [pc, #20]	; (8001788 <HAL_RCC_OscConfig+0x288>)
 8001772:	685b      	ldr	r3, [r3, #4]
 8001774:	f423 327c 	bic.w	r2, r3, #258048	; 0x3f000
 8001778:	687b      	ldr	r3, [r7, #4]
 800177a:	691b      	ldr	r3, [r3, #16]
 800177c:	031b      	lsls	r3, r3, #12
 800177e:	4902      	ldr	r1, [pc, #8]	; (8001788 <HAL_RCC_OscConfig+0x288>)
 8001780:	4313      	orrs	r3, r2
 8001782:	604b      	str	r3, [r1, #4]
 8001784:	e026      	b.n	80017d4 <HAL_RCC_OscConfig+0x2d4>
 8001786:	bf00      	nop
 8001788:	58024400 	.word	0x58024400
 800178c:	4b9a      	ldr	r3, [pc, #616]	; (80019f8 <HAL_RCC_OscConfig+0x4f8>)
 800178e:	685b      	ldr	r3, [r3, #4]
 8001790:	f023 42fe 	bic.w	r2, r3, #2130706432	; 0x7f000000
 8001794:	687b      	ldr	r3, [r7, #4]
 8001796:	691b      	ldr	r3, [r3, #16]
 8001798:	061b      	lsls	r3, r3, #24
 800179a:	4997      	ldr	r1, [pc, #604]	; (80019f8 <HAL_RCC_OscConfig+0x4f8>)
 800179c:	4313      	orrs	r3, r2
 800179e:	604b      	str	r3, [r1, #4]
 80017a0:	e018      	b.n	80017d4 <HAL_RCC_OscConfig+0x2d4>
      }
      else
      {
        /* Disable the Internal High Speed oscillator (HSI). */
        __HAL_RCC_HSI_DISABLE();
 80017a2:	4b95      	ldr	r3, [pc, #596]	; (80019f8 <HAL_RCC_OscConfig+0x4f8>)
 80017a4:	681b      	ldr	r3, [r3, #0]
 80017a6:	4a94      	ldr	r2, [pc, #592]	; (80019f8 <HAL_RCC_OscConfig+0x4f8>)
 80017a8:	f023 0301 	bic.w	r3, r3, #1
 80017ac:	6013      	str	r3, [r2, #0]

        /* Get Start Tick*/
        tickstart = HAL_GetTick();
 80017ae:	f7ff faa3 	bl	8000cf8 <HAL_GetTick>
 80017b2:	6278      	str	r0, [r7, #36]	; 0x24

        /* Wait till HSI is disabled */
        while(__HAL_RCC_GET_FLAG(RCC_FLAG_HSIRDY) != 0U)
 80017b4:	e008      	b.n	80017c8 <HAL_RCC_OscConfig+0x2c8>
        {
          if((HAL_GetTick() - tickstart ) > HSI_TIMEOUT_VALUE)
 80017b6:	f7ff fa9f 	bl	8000cf8 <HAL_GetTick>
 80017ba:	4602      	mov	r2, r0
 80017bc:	6a7b      	ldr	r3, [r7, #36]	; 0x24
 80017be:	1ad3      	subs	r3, r2, r3
 80017c0:	2b02      	cmp	r3, #2
 80017c2:	d901      	bls.n	80017c8 <HAL_RCC_OscConfig+0x2c8>
          {
            return HAL_TIMEOUT;
 80017c4:	2303      	movs	r3, #3
 80017c6:	e2c2      	b.n	8001d4e <HAL_RCC_OscConfig+0x84e>
        while(__HAL_RCC_GET_FLAG(RCC_FLAG_HSIRDY) != 0U)
 80017c8:	4b8b      	ldr	r3, [pc, #556]	; (80019f8 <HAL_RCC_OscConfig+0x4f8>)
 80017ca:	681b      	ldr	r3, [r3, #0]
 80017cc:	f003 0304 	and.w	r3, r3, #4
 80017d0:	2b00      	cmp	r3, #0
 80017d2:	d1f0      	bne.n	80017b6 <HAL_RCC_OscConfig+0x2b6>
        }
      }
    }
  }
  /*----------------------------- CSI Configuration --------------------------*/
  if(((RCC_OscInitStruct->OscillatorType) & RCC_OSCILLATORTYPE_CSI) == RCC_OSCILLATORTYPE_CSI)
 80017d4:	687b      	ldr	r3, [r7, #4]
 80017d6:	681b      	ldr	r3, [r3, #0]
 80017d8:	f003 0310 	and.w	r3, r3, #16
 80017dc:	2b00      	cmp	r3, #0
 80017de:	f000 80a9 	beq.w	8001934 <HAL_RCC_OscConfig+0x434>
    /* Check the parameters */
    assert_param(IS_RCC_CSI(RCC_OscInitStruct->CSIState));
    assert_param(IS_RCC_CSICALIBRATION_VALUE(RCC_OscInitStruct->CSICalibrationValue));

    /* When the CSI is used as system clock it will not disabled */
    const uint32_t temp_sysclksrc = __HAL_RCC_GET_SYSCLK_SOURCE();
 80017e2:	4b85      	ldr	r3, [pc, #532]	; (80019f8 <HAL_RCC_OscConfig+0x4f8>)
 80017e4:	691b      	ldr	r3, [r3, #16]
 80017e6:	f003 0338 	and.w	r3, r3, #56	; 0x38
 80017ea:	61bb      	str	r3, [r7, #24]
    const uint32_t temp_pllckselr = RCC->PLLCKSELR;
 80017ec:	4b82      	ldr	r3, [pc, #520]	; (80019f8 <HAL_RCC_OscConfig+0x4f8>)
 80017ee:	6a9b      	ldr	r3, [r3, #40]	; 0x28
 80017f0:	617b      	str	r3, [r7, #20]
    if((temp_sysclksrc == RCC_CFGR_SWS_CSI) || ((temp_sysclksrc == RCC_CFGR_SWS_PLL1) && ((temp_pllckselr & RCC_PLLCKSELR_PLLSRC) == RCC_PLLCKSELR_PLLSRC_CSI)))
 80017f2:	69bb      	ldr	r3, [r7, #24]
 80017f4:	2b08      	cmp	r3, #8
 80017f6:	d007      	beq.n	8001808 <HAL_RCC_OscConfig+0x308>
 80017f8:	69bb      	ldr	r3, [r7, #24]
 80017fa:	2b18      	cmp	r3, #24
 80017fc:	d13a      	bne.n	8001874 <HAL_RCC_OscConfig+0x374>
 80017fe:	697b      	ldr	r3, [r7, #20]
 8001800:	f003 0303 	and.w	r3, r3, #3
 8001804:	2b01      	cmp	r3, #1
 8001806:	d135      	bne.n	8001874 <HAL_RCC_OscConfig+0x374>
    {
      /* When CSI is used as system clock it will not disabled */
      if((__HAL_RCC_GET_FLAG(RCC_FLAG_CSIRDY) != 0U) && (RCC_OscInitStruct->CSIState != RCC_CSI_ON))
 8001808:	4b7b      	ldr	r3, [pc, #492]	; (80019f8 <HAL_RCC_OscConfig+0x4f8>)
 800180a:	681b      	ldr	r3, [r3, #0]
 800180c:	f403 7380 	and.w	r3, r3, #256	; 0x100
 8001810:	2b00      	cmp	r3, #0
 8001812:	d005      	beq.n	8001820 <HAL_RCC_OscConfig+0x320>
 8001814:	687b      	ldr	r3, [r7, #4]
 8001816:	69db      	ldr	r3, [r3, #28]
 8001818:	2b80      	cmp	r3, #128	; 0x80
 800181a:	d001      	beq.n	8001820 <HAL_RCC_OscConfig+0x320>
      {
        return HAL_ERROR;
 800181c:	2301      	movs	r3, #1
 800181e:	e296      	b.n	8001d4e <HAL_RCC_OscConfig+0x84e>
      }
      /* Otherwise, just the calibration is allowed */
      else
      {
        /* Adjusts the Internal High Speed oscillator (CSI) calibration value.*/
        __HAL_RCC_CSI_CALIBRATIONVALUE_ADJUST(RCC_OscInitStruct->CSICalibrationValue);
 8001820:	f7ff fa9a 	bl	8000d58 <HAL_GetREVID>
 8001824:	4603      	mov	r3, r0
 8001826:	f241 0203 	movw	r2, #4099	; 0x1003
 800182a:	4293      	cmp	r3, r2
 800182c:	d817      	bhi.n	800185e <HAL_RCC_OscConfig+0x35e>
 800182e:	687b      	ldr	r3, [r7, #4]
 8001830:	6a1b      	ldr	r3, [r3, #32]
 8001832:	2b20      	cmp	r3, #32
 8001834:	d108      	bne.n	8001848 <HAL_RCC_OscConfig+0x348>
 8001836:	4b70      	ldr	r3, [pc, #448]	; (80019f8 <HAL_RCC_OscConfig+0x4f8>)
 8001838:	685b      	ldr	r3, [r3, #4]
 800183a:	f023 43f8 	bic.w	r3, r3, #2080374784	; 0x7c000000
 800183e:	4a6e      	ldr	r2, [pc, #440]	; (80019f8 <HAL_RCC_OscConfig+0x4f8>)
 8001840:	f043 4380 	orr.w	r3, r3, #1073741824	; 0x40000000
 8001844:	6053      	str	r3, [r2, #4]
      if((__HAL_RCC_GET_FLAG(RCC_FLAG_CSIRDY) != 0U) && (RCC_OscInitStruct->CSIState != RCC_CSI_ON))
 8001846:	e075      	b.n	8001934 <HAL_RCC_OscConfig+0x434>
        __HAL_RCC_CSI_CALIBRATIONVALUE_ADJUST(RCC_OscInitStruct->CSICalibrationValue);
 8001848:	4b6b      	ldr	r3, [pc, #428]	; (80019f8 <HAL_RCC_OscConfig+0x4f8>)
 800184a:	685b      	ldr	r3, [r3, #4]
 800184c:	f023 42f8 	bic.w	r2, r3, #2080374784	; 0x7c000000
 8001850:	687b      	ldr	r3, [r7, #4]
 8001852:	6a1b      	ldr	r3, [r3, #32]
 8001854:	069b      	lsls	r3, r3, #26
 8001856:	4968      	ldr	r1, [pc, #416]	; (80019f8 <HAL_RCC_OscConfig+0x4f8>)
 8001858:	4313      	orrs	r3, r2
 800185a:	604b      	str	r3, [r1, #4]
      if((__HAL_RCC_GET_FLAG(RCC_FLAG_CSIRDY) != 0U) && (RCC_OscInitStruct->CSIState != RCC_CSI_ON))
 800185c:	e06a      	b.n	8001934 <HAL_RCC_OscConfig+0x434>
        __HAL_RCC_CSI_CALIBRATIONVALUE_ADJUST(RCC_OscInitStruct->CSICalibrationValue);
 800185e:	4b66      	ldr	r3, [pc, #408]	; (80019f8 <HAL_RCC_OscConfig+0x4f8>)
 8001860:	68db      	ldr	r3, [r3, #12]
 8001862:	f023 527c 	bic.w	r2, r3, #1056964608	; 0x3f000000
 8001866:	687b      	ldr	r3, [r7, #4]
 8001868:	6a1b      	ldr	r3, [r3, #32]
 800186a:	061b      	lsls	r3, r3, #24
 800186c:	4962      	ldr	r1, [pc, #392]	; (80019f8 <HAL_RCC_OscConfig+0x4f8>)
 800186e:	4313      	orrs	r3, r2
 8001870:	60cb      	str	r3, [r1, #12]
      if((__HAL_RCC_GET_FLAG(RCC_FLAG_CSIRDY) != 0U) && (RCC_OscInitStruct->CSIState != RCC_CSI_ON))
 8001872:	e05f      	b.n	8001934 <HAL_RCC_OscConfig+0x434>
      }
    }
    else
    {
      /* Check the CSI State */
      if((RCC_OscInitStruct->CSIState)!= RCC_CSI_OFF)
 8001874:	687b      	ldr	r3, [r7, #4]
 8001876:	69db      	ldr	r3, [r3, #28]
 8001878:	2b00      	cmp	r3, #0
 800187a:	d042      	beq.n	8001902 <HAL_RCC_OscConfig+0x402>
      {
        /* Enable the Internal High Speed oscillator (CSI). */
        __HAL_RCC_CSI_ENABLE();
 800187c:	4b5e      	ldr	r3, [pc, #376]	; (80019f8 <HAL_RCC_OscConfig+0x4f8>)
 800187e:	681b      	ldr	r3, [r3, #0]
 8001880:	4a5d      	ldr	r2, [pc, #372]	; (80019f8 <HAL_RCC_OscConfig+0x4f8>)
 8001882:	f043 0380 	orr.w	r3, r3, #128	; 0x80
 8001886:	6013      	str	r3, [r2, #0]

        /* Get Start Tick*/
        tickstart = HAL_GetTick();
 8001888:	f7ff fa36 	bl	8000cf8 <HAL_GetTick>
 800188c:	6278      	str	r0, [r7, #36]	; 0x24

        /* Wait till CSI is ready */
        while(__HAL_RCC_GET_FLAG(RCC_FLAG_CSIRDY) == 0U)
 800188e:	e008      	b.n	80018a2 <HAL_RCC_OscConfig+0x3a2>
        {
          if((HAL_GetTick() - tickstart ) > CSI_TIMEOUT_VALUE)
 8001890:	f7ff fa32 	bl	8000cf8 <HAL_GetTick>
 8001894:	4602      	mov	r2, r0
 8001896:	6a7b      	ldr	r3, [r7, #36]	; 0x24
 8001898:	1ad3      	subs	r3, r2, r3
 800189a:	2b02      	cmp	r3, #2
 800189c:	d901      	bls.n	80018a2 <HAL_RCC_OscConfig+0x3a2>
          {
            return HAL_TIMEOUT;
 800189e:	2303      	movs	r3, #3
 80018a0:	e255      	b.n	8001d4e <HAL_RCC_OscConfig+0x84e>
        while(__HAL_RCC_GET_FLAG(RCC_FLAG_CSIRDY) == 0U)
 80018a2:	4b55      	ldr	r3, [pc, #340]	; (80019f8 <HAL_RCC_OscConfig+0x4f8>)
 80018a4:	681b      	ldr	r3, [r3, #0]
 80018a6:	f403 7380 	and.w	r3, r3, #256	; 0x100
 80018aa:	2b00      	cmp	r3, #0
 80018ac:	d0f0      	beq.n	8001890 <HAL_RCC_OscConfig+0x390>
          }
        }

        /* Adjusts the Internal High Speed oscillator (CSI) calibration value.*/
        __HAL_RCC_CSI_CALIBRATIONVALUE_ADJUST(RCC_OscInitStruct->CSICalibrationValue);
 80018ae:	f7ff fa53 	bl	8000d58 <HAL_GetREVID>
 80018b2:	4603      	mov	r3, r0
 80018b4:	f241 0203 	movw	r2, #4099	; 0x1003
 80018b8:	4293      	cmp	r3, r2
 80018ba:	d817      	bhi.n	80018ec <HAL_RCC_OscConfig+0x3ec>
 80018bc:	687b      	ldr	r3, [r7, #4]
 80018be:	6a1b      	ldr	r3, [r3, #32]
 80018c0:	2b20      	cmp	r3, #32
 80018c2:	d108      	bne.n	80018d6 <HAL_RCC_OscConfig+0x3d6>
 80018c4:	4b4c      	ldr	r3, [pc, #304]	; (80019f8 <HAL_RCC_OscConfig+0x4f8>)
 80018c6:	685b      	ldr	r3, [r3, #4]
 80018c8:	f023 43f8 	bic.w	r3, r3, #2080374784	; 0x7c000000
 80018cc:	4a4a      	ldr	r2, [pc, #296]	; (80019f8 <HAL_RCC_OscConfig+0x4f8>)
 80018ce:	f043 4380 	orr.w	r3, r3, #1073741824	; 0x40000000
 80018d2:	6053      	str	r3, [r2, #4]
 80018d4:	e02e      	b.n	8001934 <HAL_RCC_OscConfig+0x434>
 80018d6:	4b48      	ldr	r3, [pc, #288]	; (80019f8 <HAL_RCC_OscConfig+0x4f8>)
 80018d8:	685b      	ldr	r3, [r3, #4]
 80018da:	f023 42f8 	bic.w	r2, r3, #2080374784	; 0x7c000000
 80018de:	687b      	ldr	r3, [r7, #4]
 80018e0:	6a1b      	ldr	r3, [r3, #32]
 80018e2:	069b      	lsls	r3, r3, #26
 80018e4:	4944      	ldr	r1, [pc, #272]	; (80019f8 <HAL_RCC_OscConfig+0x4f8>)
 80018e6:	4313      	orrs	r3, r2
 80018e8:	604b      	str	r3, [r1, #4]
 80018ea:	e023      	b.n	8001934 <HAL_RCC_OscConfig+0x434>
 80018ec:	4b42      	ldr	r3, [pc, #264]	; (80019f8 <HAL_RCC_OscConfig+0x4f8>)
 80018ee:	68db      	ldr	r3, [r3, #12]
 80018f0:	f023 527c 	bic.w	r2, r3, #1056964608	; 0x3f000000
 80018f4:	687b      	ldr	r3, [r7, #4]
 80018f6:	6a1b      	ldr	r3, [r3, #32]
 80018f8:	061b      	lsls	r3, r3, #24
 80018fa:	493f      	ldr	r1, [pc, #252]	; (80019f8 <HAL_RCC_OscConfig+0x4f8>)
 80018fc:	4313      	orrs	r3, r2
 80018fe:	60cb      	str	r3, [r1, #12]
 8001900:	e018      	b.n	8001934 <HAL_RCC_OscConfig+0x434>
      }
      else
      {
        /* Disable the Internal High Speed oscillator (CSI). */
        __HAL_RCC_CSI_DISABLE();
 8001902:	4b3d      	ldr	r3, [pc, #244]	; (80019f8 <HAL_RCC_OscConfig+0x4f8>)
 8001904:	681b      	ldr	r3, [r3, #0]
 8001906:	4a3c      	ldr	r2, [pc, #240]	; (80019f8 <HAL_RCC_OscConfig+0x4f8>)
 8001908:	f023 0380 	bic.w	r3, r3, #128	; 0x80
 800190c:	6013      	str	r3, [r2, #0]

        /* Get Start Tick*/
        tickstart = HAL_GetTick();
 800190e:	f7ff f9f3 	bl	8000cf8 <HAL_GetTick>
 8001912:	6278      	str	r0, [r7, #36]	; 0x24

        /* Wait till CSI is disabled */
        while(__HAL_RCC_GET_FLAG(RCC_FLAG_CSIRDY) != 0U)
 8001914:	e008      	b.n	8001928 <HAL_RCC_OscConfig+0x428>
        {
          if((HAL_GetTick() - tickstart ) > CSI_TIMEOUT_VALUE)
 8001916:	f7ff f9ef 	bl	8000cf8 <HAL_GetTick>
 800191a:	4602      	mov	r2, r0
 800191c:	6a7b      	ldr	r3, [r7, #36]	; 0x24
 800191e:	1ad3      	subs	r3, r2, r3
 8001920:	2b02      	cmp	r3, #2
 8001922:	d901      	bls.n	8001928 <HAL_RCC_OscConfig+0x428>
          {
            return HAL_TIMEOUT;
 8001924:	2303      	movs	r3, #3
 8001926:	e212      	b.n	8001d4e <HAL_RCC_OscConfig+0x84e>
        while(__HAL_RCC_GET_FLAG(RCC_FLAG_CSIRDY) != 0U)
 8001928:	4b33      	ldr	r3, [pc, #204]	; (80019f8 <HAL_RCC_OscConfig+0x4f8>)
 800192a:	681b      	ldr	r3, [r3, #0]
 800192c:	f403 7380 	and.w	r3, r3, #256	; 0x100
 8001930:	2b00      	cmp	r3, #0
 8001932:	d1f0      	bne.n	8001916 <HAL_RCC_OscConfig+0x416>
        }
      }
    }
  }
  /*------------------------------ LSI Configuration -------------------------*/
  if(((RCC_OscInitStruct->OscillatorType) & RCC_OSCILLATORTYPE_LSI) == RCC_OSCILLATORTYPE_LSI)
 8001934:	687b      	ldr	r3, [r7, #4]
 8001936:	681b      	ldr	r3, [r3, #0]
 8001938:	f003 0308 	and.w	r3, r3, #8
 800193c:	2b00      	cmp	r3, #0
 800193e:	d036      	beq.n	80019ae <HAL_RCC_OscConfig+0x4ae>
  {
    /* Check the parameters */
    assert_param(IS_RCC_LSI(RCC_OscInitStruct->LSIState));

    /* Check the LSI State */
    if((RCC_OscInitStruct->LSIState)!= RCC_LSI_OFF)
 8001940:	687b      	ldr	r3, [r7, #4]
 8001942:	695b      	ldr	r3, [r3, #20]
 8001944:	2b00      	cmp	r3, #0
 8001946:	d019      	beq.n	800197c <HAL_RCC_OscConfig+0x47c>
    {
      /* Enable the Internal Low Speed oscillator (LSI). */
      __HAL_RCC_LSI_ENABLE();
 8001948:	4b2b      	ldr	r3, [pc, #172]	; (80019f8 <HAL_RCC_OscConfig+0x4f8>)
 800194a:	6f5b      	ldr	r3, [r3, #116]	; 0x74
 800194c:	4a2a      	ldr	r2, [pc, #168]	; (80019f8 <HAL_RCC_OscConfig+0x4f8>)
 800194e:	f043 0301 	orr.w	r3, r3, #1
 8001952:	6753      	str	r3, [r2, #116]	; 0x74

      /* Get Start Tick*/
      tickstart = HAL_GetTick();
 8001954:	f7ff f9d0 	bl	8000cf8 <HAL_GetTick>
 8001958:	6278      	str	r0, [r7, #36]	; 0x24

      /* Wait till LSI is ready */
      while(__HAL_RCC_GET_FLAG(RCC_FLAG_LSIRDY) == 0U)
 800195a:	e008      	b.n	800196e <HAL_RCC_OscConfig+0x46e>
      {
        if((HAL_GetTick() - tickstart ) > LSI_TIMEOUT_VALUE)
 800195c:	f7ff f9cc 	bl	8000cf8 <HAL_GetTick>
 8001960:	4602      	mov	r2, r0
 8001962:	6a7b      	ldr	r3, [r7, #36]	; 0x24
 8001964:	1ad3      	subs	r3, r2, r3
 8001966:	2b02      	cmp	r3, #2
 8001968:	d901      	bls.n	800196e <HAL_RCC_OscConfig+0x46e>
        {
          return HAL_TIMEOUT;
 800196a:	2303      	movs	r3, #3
 800196c:	e1ef      	b.n	8001d4e <HAL_RCC_OscConfig+0x84e>
      while(__HAL_RCC_GET_FLAG(RCC_FLAG_LSIRDY) == 0U)
 800196e:	4b22      	ldr	r3, [pc, #136]	; (80019f8 <HAL_RCC_OscConfig+0x4f8>)
 8001970:	6f5b      	ldr	r3, [r3, #116]	; 0x74
 8001972:	f003 0302 	and.w	r3, r3, #2
 8001976:	2b00      	cmp	r3, #0
 8001978:	d0f0      	beq.n	800195c <HAL_RCC_OscConfig+0x45c>
 800197a:	e018      	b.n	80019ae <HAL_RCC_OscConfig+0x4ae>
      }
    }
    else
    {
      /* Disable the Internal Low Speed oscillator (LSI). */
      __HAL_RCC_LSI_DISABLE();
 800197c:	4b1e      	ldr	r3, [pc, #120]	; (80019f8 <HAL_RCC_OscConfig+0x4f8>)
 800197e:	6f5b      	ldr	r3, [r3, #116]	; 0x74
 8001980:	4a1d      	ldr	r2, [pc, #116]	; (80019f8 <HAL_RCC_OscConfig+0x4f8>)
 8001982:	f023 0301 	bic.w	r3, r3, #1
 8001986:	6753      	str	r3, [r2, #116]	; 0x74

      /* Get Start Tick*/
      tickstart = HAL_GetTick();
 8001988:	f7ff f9b6 	bl	8000cf8 <HAL_GetTick>
 800198c:	6278      	str	r0, [r7, #36]	; 0x24

      /* Wait till LSI is ready */
      while(__HAL_RCC_GET_FLAG(RCC_FLAG_LSIRDY) != 0U)
 800198e:	e008      	b.n	80019a2 <HAL_RCC_OscConfig+0x4a2>
      {
        if((HAL_GetTick() - tickstart ) > LSI_TIMEOUT_VALUE)
 8001990:	f7ff f9b2 	bl	8000cf8 <HAL_GetTick>
 8001994:	4602      	mov	r2, r0
 8001996:	6a7b      	ldr	r3, [r7, #36]	; 0x24
 8001998:	1ad3      	subs	r3, r2, r3
 800199a:	2b02      	cmp	r3, #2
 800199c:	d901      	bls.n	80019a2 <HAL_RCC_OscConfig+0x4a2>
        {
          return HAL_TIMEOUT;
 800199e:	2303      	movs	r3, #3
 80019a0:	e1d5      	b.n	8001d4e <HAL_RCC_OscConfig+0x84e>
      while(__HAL_RCC_GET_FLAG(RCC_FLAG_LSIRDY) != 0U)
 80019a2:	4b15      	ldr	r3, [pc, #84]	; (80019f8 <HAL_RCC_OscConfig+0x4f8>)
 80019a4:	6f5b      	ldr	r3, [r3, #116]	; 0x74
 80019a6:	f003 0302 	and.w	r3, r3, #2
 80019aa:	2b00      	cmp	r3, #0
 80019ac:	d1f0      	bne.n	8001990 <HAL_RCC_OscConfig+0x490>
      }
    }
  }

  /*------------------------------ HSI48 Configuration -------------------------*/
  if(((RCC_OscInitStruct->OscillatorType) & RCC_OSCILLATORTYPE_HSI48) == RCC_OSCILLATORTYPE_HSI48)
 80019ae:	687b      	ldr	r3, [r7, #4]
 80019b0:	681b      	ldr	r3, [r3, #0]
 80019b2:	f003 0320 	and.w	r3, r3, #32
 80019b6:	2b00      	cmp	r3, #0
 80019b8:	d039      	beq.n	8001a2e <HAL_RCC_OscConfig+0x52e>
  {
    /* Check the parameters */
    assert_param(IS_RCC_HSI48(RCC_OscInitStruct->HSI48State));

    /* Check the HSI48 State */
    if((RCC_OscInitStruct->HSI48State)!= RCC_HSI48_OFF)
 80019ba:	687b      	ldr	r3, [r7, #4]
 80019bc:	699b      	ldr	r3, [r3, #24]
 80019be:	2b00      	cmp	r3, #0
 80019c0:	d01c      	beq.n	80019fc <HAL_RCC_OscConfig+0x4fc>
    {
      /* Enable the Internal Low Speed oscillator (HSI48). */
      __HAL_RCC_HSI48_ENABLE();
 80019c2:	4b0d      	ldr	r3, [pc, #52]	; (80019f8 <HAL_RCC_OscConfig+0x4f8>)
 80019c4:	681b      	ldr	r3, [r3, #0]
 80019c6:	4a0c      	ldr	r2, [pc, #48]	; (80019f8 <HAL_RCC_OscConfig+0x4f8>)
 80019c8:	f443 5380 	orr.w	r3, r3, #4096	; 0x1000
 80019cc:	6013      	str	r3, [r2, #0]

      /* Get time-out */
      tickstart = HAL_GetTick();
 80019ce:	f7ff f993 	bl	8000cf8 <HAL_GetTick>
 80019d2:	6278      	str	r0, [r7, #36]	; 0x24

      /* Wait till HSI48 is ready */
      while(__HAL_RCC_GET_FLAG(RCC_FLAG_HSI48RDY) == 0U)
 80019d4:	e008      	b.n	80019e8 <HAL_RCC_OscConfig+0x4e8>
      {
        if((HAL_GetTick() - tickstart ) > HSI48_TIMEOUT_VALUE)
 80019d6:	f7ff f98f 	bl	8000cf8 <HAL_GetTick>
 80019da:	4602      	mov	r2, r0
 80019dc:	6a7b      	ldr	r3, [r7, #36]	; 0x24
 80019de:	1ad3      	subs	r3, r2, r3
 80019e0:	2b02      	cmp	r3, #2
 80019e2:	d901      	bls.n	80019e8 <HAL_RCC_OscConfig+0x4e8>
        {
          return HAL_TIMEOUT;
 80019e4:	2303      	movs	r3, #3
 80019e6:	e1b2      	b.n	8001d4e <HAL_RCC_OscConfig+0x84e>
      while(__HAL_RCC_GET_FLAG(RCC_FLAG_HSI48RDY) == 0U)
 80019e8:	4b03      	ldr	r3, [pc, #12]	; (80019f8 <HAL_RCC_OscConfig+0x4f8>)
 80019ea:	681b      	ldr	r3, [r3, #0]
 80019ec:	f403 5300 	and.w	r3, r3, #8192	; 0x2000
 80019f0:	2b00      	cmp	r3, #0
 80019f2:	d0f0      	beq.n	80019d6 <HAL_RCC_OscConfig+0x4d6>
 80019f4:	e01b      	b.n	8001a2e <HAL_RCC_OscConfig+0x52e>
 80019f6:	bf00      	nop
 80019f8:	58024400 	.word	0x58024400
      }
    }
    else
    {
      /* Disable the Internal Low Speed oscillator (HSI48). */
      __HAL_RCC_HSI48_DISABLE();
 80019fc:	4b9b      	ldr	r3, [pc, #620]	; (8001c6c <HAL_RCC_OscConfig+0x76c>)
 80019fe:	681b      	ldr	r3, [r3, #0]
 8001a00:	4a9a      	ldr	r2, [pc, #616]	; (8001c6c <HAL_RCC_OscConfig+0x76c>)
 8001a02:	f423 5380 	bic.w	r3, r3, #4096	; 0x1000
 8001a06:	6013      	str	r3, [r2, #0]

      /* Get time-out */
      tickstart = HAL_GetTick();
 8001a08:	f7ff f976 	bl	8000cf8 <HAL_GetTick>
 8001a0c:	6278      	str	r0, [r7, #36]	; 0x24

      /* Wait till HSI48 is ready */
      while(__HAL_RCC_GET_FLAG(RCC_FLAG_HSI48RDY) != 0U)
 8001a0e:	e008      	b.n	8001a22 <HAL_RCC_OscConfig+0x522>
      {
        if((HAL_GetTick() - tickstart ) > HSI48_TIMEOUT_VALUE)
 8001a10:	f7ff f972 	bl	8000cf8 <HAL_GetTick>
 8001a14:	4602      	mov	r2, r0
 8001a16:	6a7b      	ldr	r3, [r7, #36]	; 0x24
 8001a18:	1ad3      	subs	r3, r2, r3
 8001a1a:	2b02      	cmp	r3, #2
 8001a1c:	d901      	bls.n	8001a22 <HAL_RCC_OscConfig+0x522>
        {
          return HAL_TIMEOUT;
 8001a1e:	2303      	movs	r3, #3
 8001a20:	e195      	b.n	8001d4e <HAL_RCC_OscConfig+0x84e>
      while(__HAL_RCC_GET_FLAG(RCC_FLAG_HSI48RDY) != 0U)
 8001a22:	4b92      	ldr	r3, [pc, #584]	; (8001c6c <HAL_RCC_OscConfig+0x76c>)
 8001a24:	681b      	ldr	r3, [r3, #0]
 8001a26:	f403 5300 	and.w	r3, r3, #8192	; 0x2000
 8001a2a:	2b00      	cmp	r3, #0
 8001a2c:	d1f0      	bne.n	8001a10 <HAL_RCC_OscConfig+0x510>
        }
      }
    }
  }
  /*------------------------------ LSE Configuration -------------------------*/
  if(((RCC_OscInitStruct->OscillatorType) & RCC_OSCILLATORTYPE_LSE) == RCC_OSCILLATORTYPE_LSE)
 8001a2e:	687b      	ldr	r3, [r7, #4]
 8001a30:	681b      	ldr	r3, [r3, #0]
 8001a32:	f003 0304 	and.w	r3, r3, #4
 8001a36:	2b00      	cmp	r3, #0
 8001a38:	f000 8081 	beq.w	8001b3e <HAL_RCC_OscConfig+0x63e>
  {
    /* Check the parameters */
    assert_param(IS_RCC_LSE(RCC_OscInitStruct->LSEState));

    /* Enable write access to Backup domain */
    PWR->CR1 |= PWR_CR1_DBP;
 8001a3c:	4b8c      	ldr	r3, [pc, #560]	; (8001c70 <HAL_RCC_OscConfig+0x770>)
 8001a3e:	681b      	ldr	r3, [r3, #0]
 8001a40:	4a8b      	ldr	r2, [pc, #556]	; (8001c70 <HAL_RCC_OscConfig+0x770>)
 8001a42:	f443 7380 	orr.w	r3, r3, #256	; 0x100
 8001a46:	6013      	str	r3, [r2, #0]

    /* Wait for Backup domain Write protection disable */
    tickstart = HAL_GetTick();
 8001a48:	f7ff f956 	bl	8000cf8 <HAL_GetTick>
 8001a4c:	6278      	str	r0, [r7, #36]	; 0x24

    while((PWR->CR1 & PWR_CR1_DBP) == 0U)
 8001a4e:	e008      	b.n	8001a62 <HAL_RCC_OscConfig+0x562>
    {
      if((HAL_GetTick() - tickstart ) > RCC_DBP_TIMEOUT_VALUE)
 8001a50:	f7ff f952 	bl	8000cf8 <HAL_GetTick>
 8001a54:	4602      	mov	r2, r0
 8001a56:	6a7b      	ldr	r3, [r7, #36]	; 0x24
 8001a58:	1ad3      	subs	r3, r2, r3
 8001a5a:	2b64      	cmp	r3, #100	; 0x64
 8001a5c:	d901      	bls.n	8001a62 <HAL_RCC_OscConfig+0x562>
      {
        return HAL_TIMEOUT;
 8001a5e:	2303      	movs	r3, #3
 8001a60:	e175      	b.n	8001d4e <HAL_RCC_OscConfig+0x84e>
    while((PWR->CR1 & PWR_CR1_DBP) == 0U)
 8001a62:	4b83      	ldr	r3, [pc, #524]	; (8001c70 <HAL_RCC_OscConfig+0x770>)
 8001a64:	681b      	ldr	r3, [r3, #0]
 8001a66:	f403 7380 	and.w	r3, r3, #256	; 0x100
 8001a6a:	2b00      	cmp	r3, #0
 8001a6c:	d0f0      	beq.n	8001a50 <HAL_RCC_OscConfig+0x550>
      }
    }

    /* Set the new LSE configuration -----------------------------------------*/
    __HAL_RCC_LSE_CONFIG(RCC_OscInitStruct->LSEState);
 8001a6e:	687b      	ldr	r3, [r7, #4]
 8001a70:	689b      	ldr	r3, [r3, #8]
 8001a72:	2b01      	cmp	r3, #1
 8001a74:	d106      	bne.n	8001a84 <HAL_RCC_OscConfig+0x584>
 8001a76:	4b7d      	ldr	r3, [pc, #500]	; (8001c6c <HAL_RCC_OscConfig+0x76c>)
 8001a78:	6f1b      	ldr	r3, [r3, #112]	; 0x70
 8001a7a:	4a7c      	ldr	r2, [pc, #496]	; (8001c6c <HAL_RCC_OscConfig+0x76c>)
 8001a7c:	f043 0301 	orr.w	r3, r3, #1
 8001a80:	6713      	str	r3, [r2, #112]	; 0x70
 8001a82:	e02d      	b.n	8001ae0 <HAL_RCC_OscConfig+0x5e0>
 8001a84:	687b      	ldr	r3, [r7, #4]
 8001a86:	689b      	ldr	r3, [r3, #8]
 8001a88:	2b00      	cmp	r3, #0
 8001a8a:	d10c      	bne.n	8001aa6 <HAL_RCC_OscConfig+0x5a6>
 8001a8c:	4b77      	ldr	r3, [pc, #476]	; (8001c6c <HAL_RCC_OscConfig+0x76c>)
 8001a8e:	6f1b      	ldr	r3, [r3, #112]	; 0x70
 8001a90:	4a76      	ldr	r2, [pc, #472]	; (8001c6c <HAL_RCC_OscConfig+0x76c>)
 8001a92:	f023 0301 	bic.w	r3, r3, #1
 8001a96:	6713      	str	r3, [r2, #112]	; 0x70
 8001a98:	4b74      	ldr	r3, [pc, #464]	; (8001c6c <HAL_RCC_OscConfig+0x76c>)
 8001a9a:	6f1b      	ldr	r3, [r3, #112]	; 0x70
 8001a9c:	4a73      	ldr	r2, [pc, #460]	; (8001c6c <HAL_RCC_OscConfig+0x76c>)
 8001a9e:	f023 0304 	bic.w	r3, r3, #4
 8001aa2:	6713      	str	r3, [r2, #112]	; 0x70
 8001aa4:	e01c      	b.n	8001ae0 <HAL_RCC_OscConfig+0x5e0>
 8001aa6:	687b      	ldr	r3, [r7, #4]
 8001aa8:	689b      	ldr	r3, [r3, #8]
 8001aaa:	2b05      	cmp	r3, #5
 8001aac:	d10c      	bne.n	8001ac8 <HAL_RCC_OscConfig+0x5c8>
 8001aae:	4b6f      	ldr	r3, [pc, #444]	; (8001c6c <HAL_RCC_OscConfig+0x76c>)
 8001ab0:	6f1b      	ldr	r3, [r3, #112]	; 0x70
 8001ab2:	4a6e      	ldr	r2, [pc, #440]	; (8001c6c <HAL_RCC_OscConfig+0x76c>)
 8001ab4:	f043 0304 	orr.w	r3, r3, #4
 8001ab8:	6713      	str	r3, [r2, #112]	; 0x70
 8001aba:	4b6c      	ldr	r3, [pc, #432]	; (8001c6c <HAL_RCC_OscConfig+0x76c>)
 8001abc:	6f1b      	ldr	r3, [r3, #112]	; 0x70
 8001abe:	4a6b      	ldr	r2, [pc, #428]	; (8001c6c <HAL_RCC_OscConfig+0x76c>)
 8001ac0:	f043 0301 	orr.w	r3, r3, #1
 8001ac4:	6713      	str	r3, [r2, #112]	; 0x70
 8001ac6:	e00b      	b.n	8001ae0 <HAL_RCC_OscConfig+0x5e0>
 8001ac8:	4b68      	ldr	r3, [pc, #416]	; (8001c6c <HAL_RCC_OscConfig+0x76c>)
 8001aca:	6f1b      	ldr	r3, [r3, #112]	; 0x70
 8001acc:	4a67      	ldr	r2, [pc, #412]	; (8001c6c <HAL_RCC_OscConfig+0x76c>)
 8001ace:	f023 0301 	bic.w	r3, r3, #1
 8001ad2:	6713      	str	r3, [r2, #112]	; 0x70
 8001ad4:	4b65      	ldr	r3, [pc, #404]	; (8001c6c <HAL_RCC_OscConfig+0x76c>)
 8001ad6:	6f1b      	ldr	r3, [r3, #112]	; 0x70
 8001ad8:	4a64      	ldr	r2, [pc, #400]	; (8001c6c <HAL_RCC_OscConfig+0x76c>)
 8001ada:	f023 0304 	bic.w	r3, r3, #4
 8001ade:	6713      	str	r3, [r2, #112]	; 0x70
    /* Check the LSE State */
    if((RCC_OscInitStruct->LSEState) != RCC_LSE_OFF)
 8001ae0:	687b      	ldr	r3, [r7, #4]
 8001ae2:	689b      	ldr	r3, [r3, #8]
 8001ae4:	2b00      	cmp	r3, #0
 8001ae6:	d015      	beq.n	8001b14 <HAL_RCC_OscConfig+0x614>
    {
      /* Get Start Tick*/
      tickstart = HAL_GetTick();
 8001ae8:	f7ff f906 	bl	8000cf8 <HAL_GetTick>
 8001aec:	6278      	str	r0, [r7, #36]	; 0x24

      /* Wait till LSE is ready */
      while(__HAL_RCC_GET_FLAG(RCC_FLAG_LSERDY) == 0U)
 8001aee:	e00a      	b.n	8001b06 <HAL_RCC_OscConfig+0x606>
      {
        if((HAL_GetTick() - tickstart ) > RCC_LSE_TIMEOUT_VALUE)
 8001af0:	f7ff f902 	bl	8000cf8 <HAL_GetTick>
 8001af4:	4602      	mov	r2, r0
 8001af6:	6a7b      	ldr	r3, [r7, #36]	; 0x24
 8001af8:	1ad3      	subs	r3, r2, r3
 8001afa:	f241 3288 	movw	r2, #5000	; 0x1388
 8001afe:	4293      	cmp	r3, r2
 8001b00:	d901      	bls.n	8001b06 <HAL_RCC_OscConfig+0x606>
        {
          return HAL_TIMEOUT;
 8001b02:	2303      	movs	r3, #3
 8001b04:	e123      	b.n	8001d4e <HAL_RCC_OscConfig+0x84e>
      while(__HAL_RCC_GET_FLAG(RCC_FLAG_LSERDY) == 0U)
 8001b06:	4b59      	ldr	r3, [pc, #356]	; (8001c6c <HAL_RCC_OscConfig+0x76c>)
 8001b08:	6f1b      	ldr	r3, [r3, #112]	; 0x70
 8001b0a:	f003 0302 	and.w	r3, r3, #2
 8001b0e:	2b00      	cmp	r3, #0
 8001b10:	d0ee      	beq.n	8001af0 <HAL_RCC_OscConfig+0x5f0>
 8001b12:	e014      	b.n	8001b3e <HAL_RCC_OscConfig+0x63e>
      }
    }
    else
    {
      /* Get Start Tick*/
      tickstart = HAL_GetTick();
 8001b14:	f7ff f8f0 	bl	8000cf8 <HAL_GetTick>
 8001b18:	6278      	str	r0, [r7, #36]	; 0x24

      /* Wait till LSE is disabled */
      while(__HAL_RCC_GET_FLAG(RCC_FLAG_LSERDY) != 0U)
 8001b1a:	e00a      	b.n	8001b32 <HAL_RCC_OscConfig+0x632>
      {
        if((HAL_GetTick() - tickstart ) > RCC_LSE_TIMEOUT_VALUE)
 8001b1c:	f7ff f8ec 	bl	8000cf8 <HAL_GetTick>
 8001b20:	4602      	mov	r2, r0
 8001b22:	6a7b      	ldr	r3, [r7, #36]	; 0x24
 8001b24:	1ad3      	subs	r3, r2, r3
 8001b26:	f241 3288 	movw	r2, #5000	; 0x1388
 8001b2a:	4293      	cmp	r3, r2
 8001b2c:	d901      	bls.n	8001b32 <HAL_RCC_OscConfig+0x632>
        {
          return HAL_TIMEOUT;
 8001b2e:	2303      	movs	r3, #3
 8001b30:	e10d      	b.n	8001d4e <HAL_RCC_OscConfig+0x84e>
      while(__HAL_RCC_GET_FLAG(RCC_FLAG_LSERDY) != 0U)
 8001b32:	4b4e      	ldr	r3, [pc, #312]	; (8001c6c <HAL_RCC_OscConfig+0x76c>)
 8001b34:	6f1b      	ldr	r3, [r3, #112]	; 0x70
 8001b36:	f003 0302 	and.w	r3, r3, #2
 8001b3a:	2b00      	cmp	r3, #0
 8001b3c:	d1ee      	bne.n	8001b1c <HAL_RCC_OscConfig+0x61c>
    }
  }
  /*-------------------------------- PLL Configuration -----------------------*/
  /* Check the parameters */
  assert_param(IS_RCC_PLL(RCC_OscInitStruct->PLL.PLLState));
  if ((RCC_OscInitStruct->PLL.PLLState) != RCC_PLL_NONE)
 8001b3e:	687b      	ldr	r3, [r7, #4]
 8001b40:	6a5b      	ldr	r3, [r3, #36]	; 0x24
 8001b42:	2b00      	cmp	r3, #0
 8001b44:	f000 8102 	beq.w	8001d4c <HAL_RCC_OscConfig+0x84c>
  {
    /* Check if the PLL is used as system clock or not */
    if(__HAL_RCC_GET_SYSCLK_SOURCE() != RCC_CFGR_SWS_PLL1)
 8001b48:	4b48      	ldr	r3, [pc, #288]	; (8001c6c <HAL_RCC_OscConfig+0x76c>)
 8001b4a:	691b      	ldr	r3, [r3, #16]
 8001b4c:	f003 0338 	and.w	r3, r3, #56	; 0x38
 8001b50:	2b18      	cmp	r3, #24
 8001b52:	f000 80bd 	beq.w	8001cd0 <HAL_RCC_OscConfig+0x7d0>
    {
      if((RCC_OscInitStruct->PLL.PLLState) == RCC_PLL_ON)
 8001b56:	687b      	ldr	r3, [r7, #4]
 8001b58:	6a5b      	ldr	r3, [r3, #36]	; 0x24
 8001b5a:	2b02      	cmp	r3, #2
 8001b5c:	f040 809e 	bne.w	8001c9c <HAL_RCC_OscConfig+0x79c>
        assert_param(IS_RCC_PLLQ_VALUE(RCC_OscInitStruct->PLL.PLLQ));
        assert_param(IS_RCC_PLLR_VALUE(RCC_OscInitStruct->PLL.PLLR));
        assert_param(IS_RCC_PLLFRACN_VALUE(RCC_OscInitStruct->PLL.PLLFRACN));

        /* Disable the main PLL. */
        __HAL_RCC_PLL_DISABLE();
 8001b60:	4b42      	ldr	r3, [pc, #264]	; (8001c6c <HAL_RCC_OscConfig+0x76c>)
 8001b62:	681b      	ldr	r3, [r3, #0]
 8001b64:	4a41      	ldr	r2, [pc, #260]	; (8001c6c <HAL_RCC_OscConfig+0x76c>)
 8001b66:	f023 7380 	bic.w	r3, r3, #16777216	; 0x1000000
 8001b6a:	6013      	str	r3, [r2, #0]

        /* Get Start Tick*/
        tickstart = HAL_GetTick();
 8001b6c:	f7ff f8c4 	bl	8000cf8 <HAL_GetTick>
 8001b70:	6278      	str	r0, [r7, #36]	; 0x24

        /* Wait till PLL is disabled */
        while(__HAL_RCC_GET_FLAG(RCC_FLAG_PLLRDY) != 0U)
 8001b72:	e008      	b.n	8001b86 <HAL_RCC_OscConfig+0x686>
        {
          if((HAL_GetTick() - tickstart ) > PLL_TIMEOUT_VALUE)
 8001b74:	f7ff f8c0 	bl	8000cf8 <HAL_GetTick>
 8001b78:	4602      	mov	r2, r0
 8001b7a:	6a7b      	ldr	r3, [r7, #36]	; 0x24
 8001b7c:	1ad3      	subs	r3, r2, r3
 8001b7e:	2b02      	cmp	r3, #2
 8001b80:	d901      	bls.n	8001b86 <HAL_RCC_OscConfig+0x686>
          {
            return HAL_TIMEOUT;
 8001b82:	2303      	movs	r3, #3
 8001b84:	e0e3      	b.n	8001d4e <HAL_RCC_OscConfig+0x84e>
        while(__HAL_RCC_GET_FLAG(RCC_FLAG_PLLRDY) != 0U)
 8001b86:	4b39      	ldr	r3, [pc, #228]	; (8001c6c <HAL_RCC_OscConfig+0x76c>)
 8001b88:	681b      	ldr	r3, [r3, #0]
 8001b8a:	f003 7300 	and.w	r3, r3, #33554432	; 0x2000000
 8001b8e:	2b00      	cmp	r3, #0
 8001b90:	d1f0      	bne.n	8001b74 <HAL_RCC_OscConfig+0x674>
          }
        }

        /* Configure the main PLL clock source, multiplication and division factors. */
        __HAL_RCC_PLL_CONFIG(RCC_OscInitStruct->PLL.PLLSource,
 8001b92:	4b36      	ldr	r3, [pc, #216]	; (8001c6c <HAL_RCC_OscConfig+0x76c>)
 8001b94:	6a9a      	ldr	r2, [r3, #40]	; 0x28
 8001b96:	4b37      	ldr	r3, [pc, #220]	; (8001c74 <HAL_RCC_OscConfig+0x774>)
 8001b98:	4013      	ands	r3, r2
 8001b9a:	687a      	ldr	r2, [r7, #4]
 8001b9c:	6a91      	ldr	r1, [r2, #40]	; 0x28
 8001b9e:	687a      	ldr	r2, [r7, #4]
 8001ba0:	6ad2      	ldr	r2, [r2, #44]	; 0x2c
 8001ba2:	0112      	lsls	r2, r2, #4
 8001ba4:	430a      	orrs	r2, r1
 8001ba6:	4931      	ldr	r1, [pc, #196]	; (8001c6c <HAL_RCC_OscConfig+0x76c>)
 8001ba8:	4313      	orrs	r3, r2
 8001baa:	628b      	str	r3, [r1, #40]	; 0x28
 8001bac:	687b      	ldr	r3, [r7, #4]
 8001bae:	6b1b      	ldr	r3, [r3, #48]	; 0x30
 8001bb0:	3b01      	subs	r3, #1
 8001bb2:	f3c3 0208 	ubfx	r2, r3, #0, #9
 8001bb6:	687b      	ldr	r3, [r7, #4]
 8001bb8:	6b5b      	ldr	r3, [r3, #52]	; 0x34
 8001bba:	3b01      	subs	r3, #1
 8001bbc:	025b      	lsls	r3, r3, #9
 8001bbe:	b29b      	uxth	r3, r3
 8001bc0:	431a      	orrs	r2, r3
 8001bc2:	687b      	ldr	r3, [r7, #4]
 8001bc4:	6b9b      	ldr	r3, [r3, #56]	; 0x38
 8001bc6:	3b01      	subs	r3, #1
 8001bc8:	041b      	lsls	r3, r3, #16
 8001bca:	f403 03fe 	and.w	r3, r3, #8323072	; 0x7f0000
 8001bce:	431a      	orrs	r2, r3
 8001bd0:	687b      	ldr	r3, [r7, #4]
 8001bd2:	6bdb      	ldr	r3, [r3, #60]	; 0x3c
 8001bd4:	3b01      	subs	r3, #1
 8001bd6:	061b      	lsls	r3, r3, #24
 8001bd8:	f003 43fe 	and.w	r3, r3, #2130706432	; 0x7f000000
 8001bdc:	4923      	ldr	r1, [pc, #140]	; (8001c6c <HAL_RCC_OscConfig+0x76c>)
 8001bde:	4313      	orrs	r3, r2
 8001be0:	630b      	str	r3, [r1, #48]	; 0x30
                             RCC_OscInitStruct->PLL.PLLP,
                             RCC_OscInitStruct->PLL.PLLQ,
                             RCC_OscInitStruct->PLL.PLLR);

         /* Disable PLLFRACN . */
         __HAL_RCC_PLLFRACN_DISABLE();
 8001be2:	4b22      	ldr	r3, [pc, #136]	; (8001c6c <HAL_RCC_OscConfig+0x76c>)
 8001be4:	6adb      	ldr	r3, [r3, #44]	; 0x2c
 8001be6:	4a21      	ldr	r2, [pc, #132]	; (8001c6c <HAL_RCC_OscConfig+0x76c>)
 8001be8:	f023 0301 	bic.w	r3, r3, #1
 8001bec:	62d3      	str	r3, [r2, #44]	; 0x2c

         /* Configure PLL PLL1FRACN */
         __HAL_RCC_PLLFRACN_CONFIG(RCC_OscInitStruct->PLL.PLLFRACN);
 8001bee:	4b1f      	ldr	r3, [pc, #124]	; (8001c6c <HAL_RCC_OscConfig+0x76c>)
 8001bf0:	6b5a      	ldr	r2, [r3, #52]	; 0x34
 8001bf2:	4b21      	ldr	r3, [pc, #132]	; (8001c78 <HAL_RCC_OscConfig+0x778>)
 8001bf4:	4013      	ands	r3, r2
 8001bf6:	687a      	ldr	r2, [r7, #4]
 8001bf8:	6c92      	ldr	r2, [r2, #72]	; 0x48
 8001bfa:	00d2      	lsls	r2, r2, #3
 8001bfc:	491b      	ldr	r1, [pc, #108]	; (8001c6c <HAL_RCC_OscConfig+0x76c>)
 8001bfe:	4313      	orrs	r3, r2
 8001c00:	634b      	str	r3, [r1, #52]	; 0x34

        /* Select PLL1 input reference frequency range: VCI */
        __HAL_RCC_PLL_VCIRANGE(RCC_OscInitStruct->PLL.PLLRGE) ;
 8001c02:	4b1a      	ldr	r3, [pc, #104]	; (8001c6c <HAL_RCC_OscConfig+0x76c>)
 8001c04:	6adb      	ldr	r3, [r3, #44]	; 0x2c
 8001c06:	f023 020c 	bic.w	r2, r3, #12
 8001c0a:	687b      	ldr	r3, [r7, #4]
 8001c0c:	6c1b      	ldr	r3, [r3, #64]	; 0x40
 8001c0e:	4917      	ldr	r1, [pc, #92]	; (8001c6c <HAL_RCC_OscConfig+0x76c>)
 8001c10:	4313      	orrs	r3, r2
 8001c12:	62cb      	str	r3, [r1, #44]	; 0x2c

        /* Select PLL1 output frequency range : VCO */
        __HAL_RCC_PLL_VCORANGE(RCC_OscInitStruct->PLL.PLLVCOSEL) ;
 8001c14:	4b15      	ldr	r3, [pc, #84]	; (8001c6c <HAL_RCC_OscConfig+0x76c>)
 8001c16:	6adb      	ldr	r3, [r3, #44]	; 0x2c
 8001c18:	f023 0202 	bic.w	r2, r3, #2
 8001c1c:	687b      	ldr	r3, [r7, #4]
 8001c1e:	6c5b      	ldr	r3, [r3, #68]	; 0x44
 8001c20:	4912      	ldr	r1, [pc, #72]	; (8001c6c <HAL_RCC_OscConfig+0x76c>)
 8001c22:	4313      	orrs	r3, r2
 8001c24:	62cb      	str	r3, [r1, #44]	; 0x2c

        /* Enable PLL System Clock output. */
         __HAL_RCC_PLLCLKOUT_ENABLE(RCC_PLL1_DIVP);
 8001c26:	4b11      	ldr	r3, [pc, #68]	; (8001c6c <HAL_RCC_OscConfig+0x76c>)
 8001c28:	6adb      	ldr	r3, [r3, #44]	; 0x2c
 8001c2a:	4a10      	ldr	r2, [pc, #64]	; (8001c6c <HAL_RCC_OscConfig+0x76c>)
 8001c2c:	f443 3380 	orr.w	r3, r3, #65536	; 0x10000
 8001c30:	62d3      	str	r3, [r2, #44]	; 0x2c

        /* Enable PLL1Q Clock output. */
         __HAL_RCC_PLLCLKOUT_ENABLE(RCC_PLL1_DIVQ);
 8001c32:	4b0e      	ldr	r3, [pc, #56]	; (8001c6c <HAL_RCC_OscConfig+0x76c>)
 8001c34:	6adb      	ldr	r3, [r3, #44]	; 0x2c
 8001c36:	4a0d      	ldr	r2, [pc, #52]	; (8001c6c <HAL_RCC_OscConfig+0x76c>)
 8001c38:	f443 3300 	orr.w	r3, r3, #131072	; 0x20000
 8001c3c:	62d3      	str	r3, [r2, #44]	; 0x2c

        /* Enable PLL1R  Clock output. */
         __HAL_RCC_PLLCLKOUT_ENABLE(RCC_PLL1_DIVR);
 8001c3e:	4b0b      	ldr	r3, [pc, #44]	; (8001c6c <HAL_RCC_OscConfig+0x76c>)
 8001c40:	6adb      	ldr	r3, [r3, #44]	; 0x2c
 8001c42:	4a0a      	ldr	r2, [pc, #40]	; (8001c6c <HAL_RCC_OscConfig+0x76c>)
 8001c44:	f443 2380 	orr.w	r3, r3, #262144	; 0x40000
 8001c48:	62d3      	str	r3, [r2, #44]	; 0x2c

        /* Enable PLL1FRACN . */
         __HAL_RCC_PLLFRACN_ENABLE();
 8001c4a:	4b08      	ldr	r3, [pc, #32]	; (8001c6c <HAL_RCC_OscConfig+0x76c>)
 8001c4c:	6adb      	ldr	r3, [r3, #44]	; 0x2c
 8001c4e:	4a07      	ldr	r2, [pc, #28]	; (8001c6c <HAL_RCC_OscConfig+0x76c>)
 8001c50:	f043 0301 	orr.w	r3, r3, #1
 8001c54:	62d3      	str	r3, [r2, #44]	; 0x2c

        /* Enable the main PLL. */
        __HAL_RCC_PLL_ENABLE();
 8001c56:	4b05      	ldr	r3, [pc, #20]	; (8001c6c <HAL_RCC_OscConfig+0x76c>)
 8001c58:	681b      	ldr	r3, [r3, #0]
 8001c5a:	4a04      	ldr	r2, [pc, #16]	; (8001c6c <HAL_RCC_OscConfig+0x76c>)
 8001c5c:	f043 7380 	orr.w	r3, r3, #16777216	; 0x1000000
 8001c60:	6013      	str	r3, [r2, #0]

        /* Get Start Tick*/
        tickstart = HAL_GetTick();
 8001c62:	f7ff f849 	bl	8000cf8 <HAL_GetTick>
 8001c66:	6278      	str	r0, [r7, #36]	; 0x24

        /* Wait till PLL is ready */
        while(__HAL_RCC_GET_FLAG(RCC_FLAG_PLLRDY) == 0U)
 8001c68:	e011      	b.n	8001c8e <HAL_RCC_OscConfig+0x78e>
 8001c6a:	bf00      	nop
 8001c6c:	58024400 	.word	0x58024400
 8001c70:	58024800 	.word	0x58024800
 8001c74:	fffffc0c 	.word	0xfffffc0c
 8001c78:	ffff0007 	.word	0xffff0007
        {
          if((HAL_GetTick() - tickstart ) > PLL_TIMEOUT_VALUE)
 8001c7c:	f7ff f83c 	bl	8000cf8 <HAL_GetTick>
 8001c80:	4602      	mov	r2, r0
 8001c82:	6a7b      	ldr	r3, [r7, #36]	; 0x24
 8001c84:	1ad3      	subs	r3, r2, r3
 8001c86:	2b02      	cmp	r3, #2
 8001c88:	d901      	bls.n	8001c8e <HAL_RCC_OscConfig+0x78e>
          {
            return HAL_TIMEOUT;
 8001c8a:	2303      	movs	r3, #3
 8001c8c:	e05f      	b.n	8001d4e <HAL_RCC_OscConfig+0x84e>
        while(__HAL_RCC_GET_FLAG(RCC_FLAG_PLLRDY) == 0U)
 8001c8e:	4b32      	ldr	r3, [pc, #200]	; (8001d58 <HAL_RCC_OscConfig+0x858>)
 8001c90:	681b      	ldr	r3, [r3, #0]
 8001c92:	f003 7300 	and.w	r3, r3, #33554432	; 0x2000000
 8001c96:	2b00      	cmp	r3, #0
 8001c98:	d0f0      	beq.n	8001c7c <HAL_RCC_OscConfig+0x77c>
 8001c9a:	e057      	b.n	8001d4c <HAL_RCC_OscConfig+0x84c>
        }
      }
      else
      {
        /* Disable the main PLL. */
        __HAL_RCC_PLL_DISABLE();
 8001c9c:	4b2e      	ldr	r3, [pc, #184]	; (8001d58 <HAL_RCC_OscConfig+0x858>)
 8001c9e:	681b      	ldr	r3, [r3, #0]
 8001ca0:	4a2d      	ldr	r2, [pc, #180]	; (8001d58 <HAL_RCC_OscConfig+0x858>)
 8001ca2:	f023 7380 	bic.w	r3, r3, #16777216	; 0x1000000
 8001ca6:	6013      	str	r3, [r2, #0]

        /* Get Start Tick*/
        tickstart = HAL_GetTick();
 8001ca8:	f7ff f826 	bl	8000cf8 <HAL_GetTick>
 8001cac:	6278      	str	r0, [r7, #36]	; 0x24

        /* Wait till PLL is disabled */
        while(__HAL_RCC_GET_FLAG(RCC_FLAG_PLLRDY) != 0U)
 8001cae:	e008      	b.n	8001cc2 <HAL_RCC_OscConfig+0x7c2>
        {
          if((HAL_GetTick() - tickstart ) > PLL_TIMEOUT_VALUE)
 8001cb0:	f7ff f822 	bl	8000cf8 <HAL_GetTick>
 8001cb4:	4602      	mov	r2, r0
 8001cb6:	6a7b      	ldr	r3, [r7, #36]	; 0x24
 8001cb8:	1ad3      	subs	r3, r2, r3
 8001cba:	2b02      	cmp	r3, #2
 8001cbc:	d901      	bls.n	8001cc2 <HAL_RCC_OscConfig+0x7c2>
          {
            return HAL_TIMEOUT;
 8001cbe:	2303      	movs	r3, #3
 8001cc0:	e045      	b.n	8001d4e <HAL_RCC_OscConfig+0x84e>
        while(__HAL_RCC_GET_FLAG(RCC_FLAG_PLLRDY) != 0U)
 8001cc2:	4b25      	ldr	r3, [pc, #148]	; (8001d58 <HAL_RCC_OscConfig+0x858>)
 8001cc4:	681b      	ldr	r3, [r3, #0]
 8001cc6:	f003 7300 	and.w	r3, r3, #33554432	; 0x2000000
 8001cca:	2b00      	cmp	r3, #0
 8001ccc:	d1f0      	bne.n	8001cb0 <HAL_RCC_OscConfig+0x7b0>
 8001cce:	e03d      	b.n	8001d4c <HAL_RCC_OscConfig+0x84c>
      }
    }
    else
    {
      /* Do not return HAL_ERROR if request repeats the current configuration */
      temp1_pllckcfg = RCC->PLLCKSELR;
 8001cd0:	4b21      	ldr	r3, [pc, #132]	; (8001d58 <HAL_RCC_OscConfig+0x858>)
 8001cd2:	6a9b      	ldr	r3, [r3, #40]	; 0x28
 8001cd4:	613b      	str	r3, [r7, #16]
      temp2_pllckcfg = RCC->PLL1DIVR;
 8001cd6:	4b20      	ldr	r3, [pc, #128]	; (8001d58 <HAL_RCC_OscConfig+0x858>)
 8001cd8:	6b1b      	ldr	r3, [r3, #48]	; 0x30
 8001cda:	60fb      	str	r3, [r7, #12]
      if(((RCC_OscInitStruct->PLL.PLLState) == RCC_PLL_OFF) ||
 8001cdc:	687b      	ldr	r3, [r7, #4]
 8001cde:	6a5b      	ldr	r3, [r3, #36]	; 0x24
 8001ce0:	2b01      	cmp	r3, #1
 8001ce2:	d031      	beq.n	8001d48 <HAL_RCC_OscConfig+0x848>
	 (READ_BIT(temp1_pllckcfg, RCC_PLLCKSELR_PLLSRC) != RCC_OscInitStruct->PLL.PLLSource) ||
 8001ce4:	693b      	ldr	r3, [r7, #16]
 8001ce6:	f003 0203 	and.w	r2, r3, #3
 8001cea:	687b      	ldr	r3, [r7, #4]
 8001cec:	6a9b      	ldr	r3, [r3, #40]	; 0x28
      if(((RCC_OscInitStruct->PLL.PLLState) == RCC_PLL_OFF) ||
 8001cee:	429a      	cmp	r2, r3
 8001cf0:	d12a      	bne.n	8001d48 <HAL_RCC_OscConfig+0x848>
         ((READ_BIT(temp1_pllckcfg, RCC_PLLCKSELR_DIVM1) >> RCC_PLLCKSELR_DIVM1_Pos) != RCC_OscInitStruct->PLL.PLLM) ||
 8001cf2:	693b      	ldr	r3, [r7, #16]
 8001cf4:	091b      	lsrs	r3, r3, #4
 8001cf6:	f003 023f 	and.w	r2, r3, #63	; 0x3f
 8001cfa:	687b      	ldr	r3, [r7, #4]
 8001cfc:	6adb      	ldr	r3, [r3, #44]	; 0x2c
	 (READ_BIT(temp1_pllckcfg, RCC_PLLCKSELR_PLLSRC) != RCC_OscInitStruct->PLL.PLLSource) ||
 8001cfe:	429a      	cmp	r2, r3
 8001d00:	d122      	bne.n	8001d48 <HAL_RCC_OscConfig+0x848>
         (READ_BIT(temp2_pllckcfg, RCC_PLL1DIVR_N1) != (RCC_OscInitStruct->PLL.PLLN - 1U)) ||
 8001d02:	68fb      	ldr	r3, [r7, #12]
 8001d04:	f3c3 0208 	ubfx	r2, r3, #0, #9
 8001d08:	687b      	ldr	r3, [r7, #4]
 8001d0a:	6b1b      	ldr	r3, [r3, #48]	; 0x30
 8001d0c:	3b01      	subs	r3, #1
         ((READ_BIT(temp1_pllckcfg, RCC_PLLCKSELR_DIVM1) >> RCC_PLLCKSELR_DIVM1_Pos) != RCC_OscInitStruct->PLL.PLLM) ||
 8001d0e:	429a      	cmp	r2, r3
 8001d10:	d11a      	bne.n	8001d48 <HAL_RCC_OscConfig+0x848>
         ((READ_BIT(temp2_pllckcfg, RCC_PLL1DIVR_P1) >> RCC_PLL1DIVR_P1_Pos) != (RCC_OscInitStruct->PLL.PLLP - 1U)) ||
 8001d12:	68fb      	ldr	r3, [r7, #12]
 8001d14:	0a5b      	lsrs	r3, r3, #9
 8001d16:	f003 027f 	and.w	r2, r3, #127	; 0x7f
 8001d1a:	687b      	ldr	r3, [r7, #4]
 8001d1c:	6b5b      	ldr	r3, [r3, #52]	; 0x34
 8001d1e:	3b01      	subs	r3, #1
         (READ_BIT(temp2_pllckcfg, RCC_PLL1DIVR_N1) != (RCC_OscInitStruct->PLL.PLLN - 1U)) ||
 8001d20:	429a      	cmp	r2, r3
 8001d22:	d111      	bne.n	8001d48 <HAL_RCC_OscConfig+0x848>
         ((READ_BIT(temp2_pllckcfg, RCC_PLL1DIVR_Q1) >> RCC_PLL1DIVR_Q1_Pos) != (RCC_OscInitStruct->PLL.PLLQ - 1U)) ||
 8001d24:	68fb      	ldr	r3, [r7, #12]
 8001d26:	0c1b      	lsrs	r3, r3, #16
 8001d28:	f003 027f 	and.w	r2, r3, #127	; 0x7f
 8001d2c:	687b      	ldr	r3, [r7, #4]
 8001d2e:	6b9b      	ldr	r3, [r3, #56]	; 0x38
 8001d30:	3b01      	subs	r3, #1
         ((READ_BIT(temp2_pllckcfg, RCC_PLL1DIVR_P1) >> RCC_PLL1DIVR_P1_Pos) != (RCC_OscInitStruct->PLL.PLLP - 1U)) ||
 8001d32:	429a      	cmp	r2, r3
 8001d34:	d108      	bne.n	8001d48 <HAL_RCC_OscConfig+0x848>
         ((READ_BIT(temp2_pllckcfg, RCC_PLL1DIVR_R1) >> RCC_PLL1DIVR_R1_Pos) != (RCC_OscInitStruct->PLL.PLLR - 1U)))
 8001d36:	68fb      	ldr	r3, [r7, #12]
 8001d38:	0e1b      	lsrs	r3, r3, #24
 8001d3a:	f003 027f 	and.w	r2, r3, #127	; 0x7f
 8001d3e:	687b      	ldr	r3, [r7, #4]
 8001d40:	6bdb      	ldr	r3, [r3, #60]	; 0x3c
 8001d42:	3b01      	subs	r3, #1
         ((READ_BIT(temp2_pllckcfg, RCC_PLL1DIVR_Q1) >> RCC_PLL1DIVR_Q1_Pos) != (RCC_OscInitStruct->PLL.PLLQ - 1U)) ||
 8001d44:	429a      	cmp	r2, r3
 8001d46:	d001      	beq.n	8001d4c <HAL_RCC_OscConfig+0x84c>
      {
        return HAL_ERROR;
 8001d48:	2301      	movs	r3, #1
 8001d4a:	e000      	b.n	8001d4e <HAL_RCC_OscConfig+0x84e>
      }
    }
  }
  return HAL_OK;
 8001d4c:	2300      	movs	r3, #0
}
 8001d4e:	4618      	mov	r0, r3
 8001d50:	3730      	adds	r7, #48	; 0x30
 8001d52:	46bd      	mov	sp, r7
 8001d54:	bd80      	pop	{r7, pc}
 8001d56:	bf00      	nop
 8001d58:	58024400 	.word	0x58024400

08001d5c <HAL_RCC_ClockConfig>:
  *         D1CPRE[3:0] bits to ensure that  Domain1 core clock not exceed the maximum allowed frequency
  *         (for more details refer to section above "Initialization/de-initialization functions")
  * @retval None
  */
HAL_StatusTypeDef HAL_RCC_ClockConfig(RCC_ClkInitTypeDef  *RCC_ClkInitStruct, uint32_t FLatency)
{
 8001d5c:	b580      	push	{r7, lr}
 8001d5e:	b086      	sub	sp, #24
 8001d60:	af00      	add	r7, sp, #0
 8001d62:	6078      	str	r0, [r7, #4]
 8001d64:	6039      	str	r1, [r7, #0]
  HAL_StatusTypeDef halstatus;
  uint32_t tickstart;
  uint32_t common_system_clock;

   /* Check Null pointer */
  if(RCC_ClkInitStruct == NULL)
 8001d66:	687b      	ldr	r3, [r7, #4]
 8001d68:	2b00      	cmp	r3, #0
 8001d6a:	d101      	bne.n	8001d70 <HAL_RCC_ClockConfig+0x14>
  {
    return HAL_ERROR;
 8001d6c:	2301      	movs	r3, #1
 8001d6e:	e19c      	b.n	80020aa <HAL_RCC_ClockConfig+0x34e>
  /* To correctly read data from FLASH memory, the number of wait states (LATENCY)
    must be correctly programmed according to the frequency of the CPU clock
    (HCLK) and the supply voltage of the device. */

  /* Increasing the CPU frequency */
  if(FLatency > __HAL_FLASH_GET_LATENCY())
 8001d70:	4b8a      	ldr	r3, [pc, #552]	; (8001f9c <HAL_RCC_ClockConfig+0x240>)
 8001d72:	681b      	ldr	r3, [r3, #0]
 8001d74:	f003 030f 	and.w	r3, r3, #15
 8001d78:	683a      	ldr	r2, [r7, #0]
 8001d7a:	429a      	cmp	r2, r3
 8001d7c:	d910      	bls.n	8001da0 <HAL_RCC_ClockConfig+0x44>
  {
    /* Program the new number of wait states to the LATENCY bits in the FLASH_ACR register */
    __HAL_FLASH_SET_LATENCY(FLatency);
 8001d7e:	4b87      	ldr	r3, [pc, #540]	; (8001f9c <HAL_RCC_ClockConfig+0x240>)
 8001d80:	681b      	ldr	r3, [r3, #0]
 8001d82:	f023 020f 	bic.w	r2, r3, #15
 8001d86:	4985      	ldr	r1, [pc, #532]	; (8001f9c <HAL_RCC_ClockConfig+0x240>)
 8001d88:	683b      	ldr	r3, [r7, #0]
 8001d8a:	4313      	orrs	r3, r2
 8001d8c:	600b      	str	r3, [r1, #0]

    /* Check that the new number of wait states is taken into account to access the Flash
    memory by reading the FLASH_ACR register */
    if(__HAL_FLASH_GET_LATENCY() != FLatency)
 8001d8e:	4b83      	ldr	r3, [pc, #524]	; (8001f9c <HAL_RCC_ClockConfig+0x240>)
 8001d90:	681b      	ldr	r3, [r3, #0]
 8001d92:	f003 030f 	and.w	r3, r3, #15
 8001d96:	683a      	ldr	r2, [r7, #0]
 8001d98:	429a      	cmp	r2, r3
 8001d9a:	d001      	beq.n	8001da0 <HAL_RCC_ClockConfig+0x44>
    {
      return HAL_ERROR;
 8001d9c:	2301      	movs	r3, #1
 8001d9e:	e184      	b.n	80020aa <HAL_RCC_ClockConfig+0x34e>

  }

  /* Increasing the BUS frequency divider */
  /*-------------------------- D1PCLK1/CDPCLK1 Configuration ---------------------------*/
  if(((RCC_ClkInitStruct->ClockType) & RCC_CLOCKTYPE_D1PCLK1) == RCC_CLOCKTYPE_D1PCLK1)
 8001da0:	687b      	ldr	r3, [r7, #4]
 8001da2:	681b      	ldr	r3, [r3, #0]
 8001da4:	f003 0304 	and.w	r3, r3, #4
 8001da8:	2b00      	cmp	r3, #0
 8001daa:	d010      	beq.n	8001dce <HAL_RCC_ClockConfig+0x72>
  {
#if defined (RCC_D1CFGR_D1PPRE)
    if((RCC_ClkInitStruct->APB3CLKDivider) > (RCC->D1CFGR & RCC_D1CFGR_D1PPRE))
 8001dac:	687b      	ldr	r3, [r7, #4]
 8001dae:	691a      	ldr	r2, [r3, #16]
 8001db0:	4b7b      	ldr	r3, [pc, #492]	; (8001fa0 <HAL_RCC_ClockConfig+0x244>)
 8001db2:	699b      	ldr	r3, [r3, #24]
 8001db4:	f003 0370 	and.w	r3, r3, #112	; 0x70
 8001db8:	429a      	cmp	r2, r3
 8001dba:	d908      	bls.n	8001dce <HAL_RCC_ClockConfig+0x72>
    {
      assert_param(IS_RCC_D1PCLK1(RCC_ClkInitStruct->APB3CLKDivider));
      MODIFY_REG(RCC->D1CFGR, RCC_D1CFGR_D1PPRE, RCC_ClkInitStruct->APB3CLKDivider);
 8001dbc:	4b78      	ldr	r3, [pc, #480]	; (8001fa0 <HAL_RCC_ClockConfig+0x244>)
 8001dbe:	699b      	ldr	r3, [r3, #24]
 8001dc0:	f023 0270 	bic.w	r2, r3, #112	; 0x70
 8001dc4:	687b      	ldr	r3, [r7, #4]
 8001dc6:	691b      	ldr	r3, [r3, #16]
 8001dc8:	4975      	ldr	r1, [pc, #468]	; (8001fa0 <HAL_RCC_ClockConfig+0x244>)
 8001dca:	4313      	orrs	r3, r2
 8001dcc:	618b      	str	r3, [r1, #24]
    }
#endif
  }

  /*-------------------------- PCLK1 Configuration ---------------------------*/
  if(((RCC_ClkInitStruct->ClockType) & RCC_CLOCKTYPE_PCLK1) == RCC_CLOCKTYPE_PCLK1)
 8001dce:	687b      	ldr	r3, [r7, #4]
 8001dd0:	681b      	ldr	r3, [r3, #0]
 8001dd2:	f003 0308 	and.w	r3, r3, #8
 8001dd6:	2b00      	cmp	r3, #0
 8001dd8:	d010      	beq.n	8001dfc <HAL_RCC_ClockConfig+0xa0>
  {
#if defined (RCC_D2CFGR_D2PPRE1)
    if((RCC_ClkInitStruct->APB1CLKDivider) > (RCC->D2CFGR & RCC_D2CFGR_D2PPRE1))
 8001dda:	687b      	ldr	r3, [r7, #4]
 8001ddc:	695a      	ldr	r2, [r3, #20]
 8001dde:	4b70      	ldr	r3, [pc, #448]	; (8001fa0 <HAL_RCC_ClockConfig+0x244>)
 8001de0:	69db      	ldr	r3, [r3, #28]
 8001de2:	f003 0370 	and.w	r3, r3, #112	; 0x70
 8001de6:	429a      	cmp	r2, r3
 8001de8:	d908      	bls.n	8001dfc <HAL_RCC_ClockConfig+0xa0>
    {
      assert_param(IS_RCC_PCLK1(RCC_ClkInitStruct->APB1CLKDivider));
      MODIFY_REG(RCC->D2CFGR, RCC_D2CFGR_D2PPRE1, (RCC_ClkInitStruct->APB1CLKDivider));
 8001dea:	4b6d      	ldr	r3, [pc, #436]	; (8001fa0 <HAL_RCC_ClockConfig+0x244>)
 8001dec:	69db      	ldr	r3, [r3, #28]
 8001dee:	f023 0270 	bic.w	r2, r3, #112	; 0x70
 8001df2:	687b      	ldr	r3, [r7, #4]
 8001df4:	695b      	ldr	r3, [r3, #20]
 8001df6:	496a      	ldr	r1, [pc, #424]	; (8001fa0 <HAL_RCC_ClockConfig+0x244>)
 8001df8:	4313      	orrs	r3, r2
 8001dfa:	61cb      	str	r3, [r1, #28]
      MODIFY_REG(RCC->CDCFGR2, RCC_CDCFGR2_CDPPRE1, (RCC_ClkInitStruct->APB1CLKDivider));
  }
#endif
    }
  /*-------------------------- PCLK2 Configuration ---------------------------*/
  if(((RCC_ClkInitStruct->ClockType) & RCC_CLOCKTYPE_PCLK2) == RCC_CLOCKTYPE_PCLK2)
 8001dfc:	687b      	ldr	r3, [r7, #4]
 8001dfe:	681b      	ldr	r3, [r3, #0]
 8001e00:	f003 0310 	and.w	r3, r3, #16
 8001e04:	2b00      	cmp	r3, #0
 8001e06:	d010      	beq.n	8001e2a <HAL_RCC_ClockConfig+0xce>
  {
#if defined(RCC_D2CFGR_D2PPRE2)
    if((RCC_ClkInitStruct->APB2CLKDivider) > (RCC->D2CFGR & RCC_D2CFGR_D2PPRE2))
 8001e08:	687b      	ldr	r3, [r7, #4]
 8001e0a:	699a      	ldr	r2, [r3, #24]
 8001e0c:	4b64      	ldr	r3, [pc, #400]	; (8001fa0 <HAL_RCC_ClockConfig+0x244>)
 8001e0e:	69db      	ldr	r3, [r3, #28]
 8001e10:	f403 63e0 	and.w	r3, r3, #1792	; 0x700
 8001e14:	429a      	cmp	r2, r3
 8001e16:	d908      	bls.n	8001e2a <HAL_RCC_ClockConfig+0xce>
    {
      assert_param(IS_RCC_PCLK2(RCC_ClkInitStruct->APB2CLKDivider));
      MODIFY_REG(RCC->D2CFGR, RCC_D2CFGR_D2PPRE2, (RCC_ClkInitStruct->APB2CLKDivider));
 8001e18:	4b61      	ldr	r3, [pc, #388]	; (8001fa0 <HAL_RCC_ClockConfig+0x244>)
 8001e1a:	69db      	ldr	r3, [r3, #28]
 8001e1c:	f423 62e0 	bic.w	r2, r3, #1792	; 0x700
 8001e20:	687b      	ldr	r3, [r7, #4]
 8001e22:	699b      	ldr	r3, [r3, #24]
 8001e24:	495e      	ldr	r1, [pc, #376]	; (8001fa0 <HAL_RCC_ClockConfig+0x244>)
 8001e26:	4313      	orrs	r3, r2
 8001e28:	61cb      	str	r3, [r1, #28]
    }
#endif
  }

  /*-------------------------- D3PCLK1 Configuration ---------------------------*/
  if(((RCC_ClkInitStruct->ClockType) & RCC_CLOCKTYPE_D3PCLK1) == RCC_CLOCKTYPE_D3PCLK1)
 8001e2a:	687b      	ldr	r3, [r7, #4]
 8001e2c:	681b      	ldr	r3, [r3, #0]
 8001e2e:	f003 0320 	and.w	r3, r3, #32
 8001e32:	2b00      	cmp	r3, #0
 8001e34:	d010      	beq.n	8001e58 <HAL_RCC_ClockConfig+0xfc>
  {
#if defined(RCC_D3CFGR_D3PPRE)
    if((RCC_ClkInitStruct->APB4CLKDivider) > (RCC->D3CFGR & RCC_D3CFGR_D3PPRE))
 8001e36:	687b      	ldr	r3, [r7, #4]
 8001e38:	69da      	ldr	r2, [r3, #28]
 8001e3a:	4b59      	ldr	r3, [pc, #356]	; (8001fa0 <HAL_RCC_ClockConfig+0x244>)
 8001e3c:	6a1b      	ldr	r3, [r3, #32]
 8001e3e:	f003 0370 	and.w	r3, r3, #112	; 0x70
 8001e42:	429a      	cmp	r2, r3
 8001e44:	d908      	bls.n	8001e58 <HAL_RCC_ClockConfig+0xfc>
    {
      assert_param(IS_RCC_D3PCLK1(RCC_ClkInitStruct->APB4CLKDivider));
      MODIFY_REG(RCC->D3CFGR, RCC_D3CFGR_D3PPRE, (RCC_ClkInitStruct->APB4CLKDivider) );
 8001e46:	4b56      	ldr	r3, [pc, #344]	; (8001fa0 <HAL_RCC_ClockConfig+0x244>)
 8001e48:	6a1b      	ldr	r3, [r3, #32]
 8001e4a:	f023 0270 	bic.w	r2, r3, #112	; 0x70
 8001e4e:	687b      	ldr	r3, [r7, #4]
 8001e50:	69db      	ldr	r3, [r3, #28]
 8001e52:	4953      	ldr	r1, [pc, #332]	; (8001fa0 <HAL_RCC_ClockConfig+0x244>)
 8001e54:	4313      	orrs	r3, r2
 8001e56:	620b      	str	r3, [r1, #32]
    }
#endif
  }

   /*-------------------------- HCLK Configuration --------------------------*/
  if(((RCC_ClkInitStruct->ClockType) & RCC_CLOCKTYPE_HCLK) == RCC_CLOCKTYPE_HCLK)
 8001e58:	687b      	ldr	r3, [r7, #4]
 8001e5a:	681b      	ldr	r3, [r3, #0]
 8001e5c:	f003 0302 	and.w	r3, r3, #2
 8001e60:	2b00      	cmp	r3, #0
 8001e62:	d010      	beq.n	8001e86 <HAL_RCC_ClockConfig+0x12a>
  {
#if defined (RCC_D1CFGR_HPRE)
    if((RCC_ClkInitStruct->AHBCLKDivider) > (RCC->D1CFGR & RCC_D1CFGR_HPRE))
 8001e64:	687b      	ldr	r3, [r7, #4]
 8001e66:	68da      	ldr	r2, [r3, #12]
 8001e68:	4b4d      	ldr	r3, [pc, #308]	; (8001fa0 <HAL_RCC_ClockConfig+0x244>)
 8001e6a:	699b      	ldr	r3, [r3, #24]
 8001e6c:	f003 030f 	and.w	r3, r3, #15
 8001e70:	429a      	cmp	r2, r3
 8001e72:	d908      	bls.n	8001e86 <HAL_RCC_ClockConfig+0x12a>
    {
      /* Set the new HCLK clock divider */
      assert_param(IS_RCC_HCLK(RCC_ClkInitStruct->AHBCLKDivider));
      MODIFY_REG(RCC->D1CFGR, RCC_D1CFGR_HPRE, RCC_ClkInitStruct->AHBCLKDivider);
 8001e74:	4b4a      	ldr	r3, [pc, #296]	; (8001fa0 <HAL_RCC_ClockConfig+0x244>)
 8001e76:	699b      	ldr	r3, [r3, #24]
 8001e78:	f023 020f 	bic.w	r2, r3, #15
 8001e7c:	687b      	ldr	r3, [r7, #4]
 8001e7e:	68db      	ldr	r3, [r3, #12]
 8001e80:	4947      	ldr	r1, [pc, #284]	; (8001fa0 <HAL_RCC_ClockConfig+0x244>)
 8001e82:	4313      	orrs	r3, r2
 8001e84:	618b      	str	r3, [r1, #24]
    }
#endif
  }

    /*------------------------- SYSCLK Configuration -------------------------*/
    if(((RCC_ClkInitStruct->ClockType) & RCC_CLOCKTYPE_SYSCLK) == RCC_CLOCKTYPE_SYSCLK)
 8001e86:	687b      	ldr	r3, [r7, #4]
 8001e88:	681b      	ldr	r3, [r3, #0]
 8001e8a:	f003 0301 	and.w	r3, r3, #1
 8001e8e:	2b00      	cmp	r3, #0
 8001e90:	d055      	beq.n	8001f3e <HAL_RCC_ClockConfig+0x1e2>
    {
      assert_param(IS_RCC_SYSCLK(RCC_ClkInitStruct->SYSCLKDivider));
      assert_param(IS_RCC_SYSCLKSOURCE(RCC_ClkInitStruct->SYSCLKSource));
#if defined(RCC_D1CFGR_D1CPRE)
      MODIFY_REG(RCC->D1CFGR, RCC_D1CFGR_D1CPRE, RCC_ClkInitStruct->SYSCLKDivider);
 8001e92:	4b43      	ldr	r3, [pc, #268]	; (8001fa0 <HAL_RCC_ClockConfig+0x244>)
 8001e94:	699b      	ldr	r3, [r3, #24]
 8001e96:	f423 6270 	bic.w	r2, r3, #3840	; 0xf00
 8001e9a:	687b      	ldr	r3, [r7, #4]
 8001e9c:	689b      	ldr	r3, [r3, #8]
 8001e9e:	4940      	ldr	r1, [pc, #256]	; (8001fa0 <HAL_RCC_ClockConfig+0x244>)
 8001ea0:	4313      	orrs	r3, r2
 8001ea2:	618b      	str	r3, [r1, #24]
#else
      MODIFY_REG(RCC->CDCFGR1, RCC_CDCFGR1_CDCPRE, RCC_ClkInitStruct->SYSCLKDivider);
#endif
      /* HSE is selected as System Clock Source */
      if(RCC_ClkInitStruct->SYSCLKSource == RCC_SYSCLKSOURCE_HSE)
 8001ea4:	687b      	ldr	r3, [r7, #4]
 8001ea6:	685b      	ldr	r3, [r3, #4]
 8001ea8:	2b02      	cmp	r3, #2
 8001eaa:	d107      	bne.n	8001ebc <HAL_RCC_ClockConfig+0x160>
      {
        /* Check the HSE ready flag */
        if(__HAL_RCC_GET_FLAG(RCC_FLAG_HSERDY) == 0U)
 8001eac:	4b3c      	ldr	r3, [pc, #240]	; (8001fa0 <HAL_RCC_ClockConfig+0x244>)
 8001eae:	681b      	ldr	r3, [r3, #0]
 8001eb0:	f403 3300 	and.w	r3, r3, #131072	; 0x20000
 8001eb4:	2b00      	cmp	r3, #0
 8001eb6:	d121      	bne.n	8001efc <HAL_RCC_ClockConfig+0x1a0>
        {
          return HAL_ERROR;
 8001eb8:	2301      	movs	r3, #1
 8001eba:	e0f6      	b.n	80020aa <HAL_RCC_ClockConfig+0x34e>
        }
      }
      /* PLL is selected as System Clock Source */
      else if(RCC_ClkInitStruct->SYSCLKSource == RCC_SYSCLKSOURCE_PLLCLK)
 8001ebc:	687b      	ldr	r3, [r7, #4]
 8001ebe:	685b      	ldr	r3, [r3, #4]
 8001ec0:	2b03      	cmp	r3, #3
 8001ec2:	d107      	bne.n	8001ed4 <HAL_RCC_ClockConfig+0x178>
      {
        /* Check the PLL ready flag */
        if(__HAL_RCC_GET_FLAG(RCC_FLAG_PLLRDY) == 0U)
 8001ec4:	4b36      	ldr	r3, [pc, #216]	; (8001fa0 <HAL_RCC_ClockConfig+0x244>)
 8001ec6:	681b      	ldr	r3, [r3, #0]
 8001ec8:	f003 7300 	and.w	r3, r3, #33554432	; 0x2000000
 8001ecc:	2b00      	cmp	r3, #0
 8001ece:	d115      	bne.n	8001efc <HAL_RCC_ClockConfig+0x1a0>
        {
          return HAL_ERROR;
 8001ed0:	2301      	movs	r3, #1
 8001ed2:	e0ea      	b.n	80020aa <HAL_RCC_ClockConfig+0x34e>
        }
      }
      /* CSI is selected as System Clock Source */
      else if(RCC_ClkInitStruct->SYSCLKSource == RCC_SYSCLKSOURCE_CSI)
 8001ed4:	687b      	ldr	r3, [r7, #4]
 8001ed6:	685b      	ldr	r3, [r3, #4]
 8001ed8:	2b01      	cmp	r3, #1
 8001eda:	d107      	bne.n	8001eec <HAL_RCC_ClockConfig+0x190>
      {
        /* Check the PLL ready flag */
        if(__HAL_RCC_GET_FLAG(RCC_FLAG_CSIRDY) == 0U)
 8001edc:	4b30      	ldr	r3, [pc, #192]	; (8001fa0 <HAL_RCC_ClockConfig+0x244>)
 8001ede:	681b      	ldr	r3, [r3, #0]
 8001ee0:	f403 7380 	and.w	r3, r3, #256	; 0x100
 8001ee4:	2b00      	cmp	r3, #0
 8001ee6:	d109      	bne.n	8001efc <HAL_RCC_ClockConfig+0x1a0>
        {
          return HAL_ERROR;
 8001ee8:	2301      	movs	r3, #1
 8001eea:	e0de      	b.n	80020aa <HAL_RCC_ClockConfig+0x34e>
      }
      /* HSI is selected as System Clock Source */
      else
      {
        /* Check the HSI ready flag */
        if(__HAL_RCC_GET_FLAG(RCC_FLAG_HSIRDY) == 0U)
 8001eec:	4b2c      	ldr	r3, [pc, #176]	; (8001fa0 <HAL_RCC_ClockConfig+0x244>)
 8001eee:	681b      	ldr	r3, [r3, #0]
 8001ef0:	f003 0304 	and.w	r3, r3, #4
 8001ef4:	2b00      	cmp	r3, #0
 8001ef6:	d101      	bne.n	8001efc <HAL_RCC_ClockConfig+0x1a0>
        {
          return HAL_ERROR;
 8001ef8:	2301      	movs	r3, #1
 8001efa:	e0d6      	b.n	80020aa <HAL_RCC_ClockConfig+0x34e>
        }
      }
      MODIFY_REG(RCC->CFGR, RCC_CFGR_SW, RCC_ClkInitStruct->SYSCLKSource);
 8001efc:	4b28      	ldr	r3, [pc, #160]	; (8001fa0 <HAL_RCC_ClockConfig+0x244>)
 8001efe:	691b      	ldr	r3, [r3, #16]
 8001f00:	f023 0207 	bic.w	r2, r3, #7
 8001f04:	687b      	ldr	r3, [r7, #4]
 8001f06:	685b      	ldr	r3, [r3, #4]
 8001f08:	4925      	ldr	r1, [pc, #148]	; (8001fa0 <HAL_RCC_ClockConfig+0x244>)
 8001f0a:	4313      	orrs	r3, r2
 8001f0c:	610b      	str	r3, [r1, #16]

      /* Get Start Tick*/
      tickstart = HAL_GetTick();
 8001f0e:	f7fe fef3 	bl	8000cf8 <HAL_GetTick>
 8001f12:	6178      	str	r0, [r7, #20]

        while (__HAL_RCC_GET_SYSCLK_SOURCE() !=  (RCC_ClkInitStruct->SYSCLKSource << RCC_CFGR_SWS_Pos))
 8001f14:	e00a      	b.n	8001f2c <HAL_RCC_ClockConfig+0x1d0>
        {
          if((HAL_GetTick() - tickstart ) > CLOCKSWITCH_TIMEOUT_VALUE)
 8001f16:	f7fe feef 	bl	8000cf8 <HAL_GetTick>
 8001f1a:	4602      	mov	r2, r0
 8001f1c:	697b      	ldr	r3, [r7, #20]
 8001f1e:	1ad3      	subs	r3, r2, r3
 8001f20:	f241 3288 	movw	r2, #5000	; 0x1388
 8001f24:	4293      	cmp	r3, r2
 8001f26:	d901      	bls.n	8001f2c <HAL_RCC_ClockConfig+0x1d0>
          {
            return HAL_TIMEOUT;
 8001f28:	2303      	movs	r3, #3
 8001f2a:	e0be      	b.n	80020aa <HAL_RCC_ClockConfig+0x34e>
        while (__HAL_RCC_GET_SYSCLK_SOURCE() !=  (RCC_ClkInitStruct->SYSCLKSource << RCC_CFGR_SWS_Pos))
 8001f2c:	4b1c      	ldr	r3, [pc, #112]	; (8001fa0 <HAL_RCC_ClockConfig+0x244>)
 8001f2e:	691b      	ldr	r3, [r3, #16]
