
LED ON OFF thr USB_CM7.elf:     file format elf32-littlearm

Sections:
Idx Name          Size      VMA       LMA       File off  Algn
  0 .isr_vector   00000298  08000000  08000000  00010000  2**0
                  CONTENTS, ALLOC, LOAD, READONLY, DATA
  1 .text         0000b98c  080002a0  080002a0  000102a0  2**4
                  CONTENTS, ALLOC, LOAD, READONLY, CODE
  2 .rodata       0000031c  0800bc2c  0800bc2c  0001bc2c  2**2
                  CONTENTS, ALLOC, LOAD, READONLY, DATA
  3 .ARM.extab    00000000  0800bf48  0800bf48  00020164  2**0
                  CONTENTS
  4 .ARM          00000008  0800bf48  0800bf48  0001bf48  2**2
                  CONTENTS, ALLOC, LOAD, READONLY, DATA
  5 .preinit_array 00000000  0800bf50  0800bf50  00020164  2**0
                  CONTENTS, ALLOC, LOAD, DATA
  6 .init_array   00000004  0800bf50  0800bf50  0001bf50  2**2
                  CONTENTS, ALLOC, LOAD, DATA
  7 .fini_array   00000004  0800bf54  0800bf54  0001bf54  2**2
                  CONTENTS, ALLOC, LOAD, DATA
  8 .data         00000164  24000000  0800bf58  00020000  2**2
                  CONTENTS, ALLOC, LOAD, DATA
  9 .bss          00001d1c  24000164  0800c0bc  00020164  2**2
                  ALLOC
 10 ._user_heap_stack 00000600  24001e80  0800c0bc  00021e80  2**0
                  ALLOC
 11 .ARM.attributes 0000002e  00000000  00000000  00020164  2**0
                  CONTENTS, READONLY
 12 .debug_info   0001bf22  00000000  00000000  00020192  2**0
                  CONTENTS, READONLY, DEBUGGING, OCTETS
 13 .debug_abbrev 00003bfc  00000000  00000000  0003c0b4  2**0
                  CONTENTS, READONLY, DEBUGGING, OCTETS
 14 .debug_aranges 00001320  00000000  00000000  0003fcb0  2**3
                  CONTENTS, READONLY, DEBUGGING, OCTETS
 15 .debug_ranges 000011a8  00000000  00000000  00040fd0  2**3
                  CONTENTS, READONLY, DEBUGGING, OCTETS
 16 .debug_macro  0003ce1e  00000000  00000000  00042178  2**0
                  CONTENTS, READONLY, DEBUGGING, OCTETS
 17 .debug_line   0001a2b6  00000000  00000000  0007ef96  2**0
                  CONTENTS, READONLY, DEBUGGING, OCTETS
 18 .debug_str    0017d702  00000000  00000000  0009924c  2**0
                  CONTENTS, READONLY, DEBUGGING, OCTETS
 19 .comment      00000050  00000000  00000000  0021694e  2**0
                  CONTENTS, READONLY
 20 .debug_frame  00005920  00000000  00000000  002169a0  2**2
                  CONTENTS, READONLY, DEBUGGING, OCTETS

Disassembly of section .text:

080002a0 <__do_global_dtors_aux>:
 80002a0:	b510      	push	{r4, lr}
 80002a2:	4c05      	ldr	r4, [pc, #20]	; (80002b8 <__do_global_dtors_aux+0x18>)
 80002a4:	7823      	ldrb	r3, [r4, #0]
 80002a6:	b933      	cbnz	r3, 80002b6 <__do_global_dtors_aux+0x16>
 80002a8:	4b04      	ldr	r3, [pc, #16]	; (80002bc <__do_global_dtors_aux+0x1c>)
 80002aa:	b113      	cbz	r3, 80002b2 <__do_global_dtors_aux+0x12>
 80002ac:	4804      	ldr	r0, [pc, #16]	; (80002c0 <__do_global_dtors_aux+0x20>)
 80002ae:	f3af 8000 	nop.w
 80002b2:	2301      	movs	r3, #1
 80002b4:	7023      	strb	r3, [r4, #0]
 80002b6:	bd10      	pop	{r4, pc}
 80002b8:	24000164 	.word	0x24000164
 80002bc:	00000000 	.word	0x00000000
 80002c0:	0800bc14 	.word	0x0800bc14

080002c4 <frame_dummy>:
 80002c4:	b508      	push	{r3, lr}
 80002c6:	4b03      	ldr	r3, [pc, #12]	; (80002d4 <frame_dummy+0x10>)
 80002c8:	b11b      	cbz	r3, 80002d2 <frame_dummy+0xe>
 80002ca:	4903      	ldr	r1, [pc, #12]	; (80002d8 <frame_dummy+0x14>)
 80002cc:	4803      	ldr	r0, [pc, #12]	; (80002dc <frame_dummy+0x18>)
 80002ce:	f3af 8000 	nop.w
 80002d2:	bd08      	pop	{r3, pc}
 80002d4:	00000000 	.word	0x00000000
 80002d8:	24000168 	.word	0x24000168
 80002dc:	0800bc14 	.word	0x0800bc14

080002e0 <strcmp>:
 80002e0:	f810 2b01 	ldrb.w	r2, [r0], #1
 80002e4:	f811 3b01 	ldrb.w	r3, [r1], #1
 80002e8:	2a01      	cmp	r2, #1
 80002ea:	bf28      	it	cs
 80002ec:	429a      	cmpcs	r2, r3
 80002ee:	d0f7      	beq.n	80002e0 <strcmp>
 80002f0:	1ad0      	subs	r0, r2, r3
 80002f2:	4770      	bx	lr

080002f4 <strlen>:
 80002f4:	4603      	mov	r3, r0
 80002f6:	f813 2b01 	ldrb.w	r2, [r3], #1
 80002fa:	2a00      	cmp	r2, #0
 80002fc:	d1fb      	bne.n	80002f6 <strlen+0x2>
 80002fe:	1a18      	subs	r0, r3, r0
 8000300:	3801      	subs	r0, #1
 8000302:	4770      	bx	lr
	...

08000310 <memchr>:
 8000310:	f001 01ff 	and.w	r1, r1, #255	; 0xff
 8000314:	2a10      	cmp	r2, #16
 8000316:	db2b      	blt.n	8000370 <memchr+0x60>
 8000318:	f010 0f07 	tst.w	r0, #7
 800031c:	d008      	beq.n	8000330 <memchr+0x20>
 800031e:	f810 3b01 	ldrb.w	r3, [r0], #1
 8000322:	3a01      	subs	r2, #1
 8000324:	428b      	cmp	r3, r1
 8000326:	d02d      	beq.n	8000384 <memchr+0x74>
 8000328:	f010 0f07 	tst.w	r0, #7
 800032c:	b342      	cbz	r2, 8000380 <memchr+0x70>
 800032e:	d1f6      	bne.n	800031e <memchr+0xe>
 8000330:	b4f0      	push	{r4, r5, r6, r7}
 8000332:	ea41 2101 	orr.w	r1, r1, r1, lsl #8
 8000336:	ea41 4101 	orr.w	r1, r1, r1, lsl #16
 800033a:	f022 0407 	bic.w	r4, r2, #7
 800033e:	f07f 0700 	mvns.w	r7, #0
 8000342:	2300      	movs	r3, #0
 8000344:	e8f0 5602 	ldrd	r5, r6, [r0], #8
 8000348:	3c08      	subs	r4, #8
 800034a:	ea85 0501 	eor.w	r5, r5, r1
 800034e:	ea86 0601 	eor.w	r6, r6, r1
 8000352:	fa85 f547 	uadd8	r5, r5, r7
 8000356:	faa3 f587 	sel	r5, r3, r7
 800035a:	fa86 f647 	uadd8	r6, r6, r7
 800035e:	faa5 f687 	sel	r6, r5, r7
 8000362:	b98e      	cbnz	r6, 8000388 <memchr+0x78>
 8000364:	d1ee      	bne.n	8000344 <memchr+0x34>
 8000366:	bcf0      	pop	{r4, r5, r6, r7}
 8000368:	f001 01ff 	and.w	r1, r1, #255	; 0xff
 800036c:	f002 0207 	and.w	r2, r2, #7
 8000370:	b132      	cbz	r2, 8000380 <memchr+0x70>
 8000372:	f810 3b01 	ldrb.w	r3, [r0], #1
 8000376:	3a01      	subs	r2, #1
 8000378:	ea83 0301 	eor.w	r3, r3, r1
 800037c:	b113      	cbz	r3, 8000384 <memchr+0x74>
 800037e:	d1f8      	bne.n	8000372 <memchr+0x62>
 8000380:	2000      	movs	r0, #0
 8000382:	4770      	bx	lr
 8000384:	3801      	subs	r0, #1
 8000386:	4770      	bx	lr
 8000388:	2d00      	cmp	r5, #0
 800038a:	bf06      	itte	eq
 800038c:	4635      	moveq	r5, r6
 800038e:	3803      	subeq	r0, #3
 8000390:	3807      	subne	r0, #7
 8000392:	f015 0f01 	tst.w	r5, #1
 8000396:	d107      	bne.n	80003a8 <memchr+0x98>
 8000398:	3001      	adds	r0, #1
 800039a:	f415 7f80 	tst.w	r5, #256	; 0x100
 800039e:	bf02      	ittt	eq
 80003a0:	3001      	addeq	r0, #1
 80003a2:	f415 3fc0 	tsteq.w	r5, #98304	; 0x18000
 80003a6:	3001      	addeq	r0, #1
 80003a8:	bcf0      	pop	{r4, r5, r6, r7}
 80003aa:	3801      	subs	r0, #1
 80003ac:	4770      	bx	lr
 80003ae:	bf00      	nop

080003b0 <__aeabi_uldivmod>:
 80003b0:	b953      	cbnz	r3, 80003c8 <__aeabi_uldivmod+0x18>
 80003b2:	b94a      	cbnz	r2, 80003c8 <__aeabi_uldivmod+0x18>
 80003b4:	2900      	cmp	r1, #0
 80003b6:	bf08      	it	eq
 80003b8:	2800      	cmpeq	r0, #0
 80003ba:	bf1c      	itt	ne
 80003bc:	f04f 31ff 	movne.w	r1, #4294967295
 80003c0:	f04f 30ff 	movne.w	r0, #4294967295
 80003c4:	f000 b974 	b.w	80006b0 <__aeabi_idiv0>
 80003c8:	f1ad 0c08 	sub.w	ip, sp, #8
 80003cc:	e96d ce04 	strd	ip, lr, [sp, #-16]!
 80003d0:	f000 f806 	bl	80003e0 <__udivmoddi4>
 80003d4:	f8dd e004 	ldr.w	lr, [sp, #4]
 80003d8:	e9dd 2302 	ldrd	r2, r3, [sp, #8]
 80003dc:	b004      	add	sp, #16
 80003de:	4770      	bx	lr

080003e0 <__udivmoddi4>:
 80003e0:	e92d 47f0 	stmdb	sp!, {r4, r5, r6, r7, r8, r9, sl, lr}
 80003e4:	9d08      	ldr	r5, [sp, #32]
 80003e6:	4604      	mov	r4, r0
 80003e8:	468e      	mov	lr, r1
 80003ea:	2b00      	cmp	r3, #0
 80003ec:	d14d      	bne.n	800048a <__udivmoddi4+0xaa>
 80003ee:	428a      	cmp	r2, r1
 80003f0:	4694      	mov	ip, r2
 80003f2:	d969      	bls.n	80004c8 <__udivmoddi4+0xe8>
 80003f4:	fab2 f282 	clz	r2, r2
 80003f8:	b152      	cbz	r2, 8000410 <__udivmoddi4+0x30>
 80003fa:	fa01 f302 	lsl.w	r3, r1, r2
 80003fe:	f1c2 0120 	rsb	r1, r2, #32
 8000402:	fa20 f101 	lsr.w	r1, r0, r1
 8000406:	fa0c fc02 	lsl.w	ip, ip, r2
 800040a:	ea41 0e03 	orr.w	lr, r1, r3
 800040e:	4094      	lsls	r4, r2
 8000410:	ea4f 481c 	mov.w	r8, ip, lsr #16
 8000414:	0c21      	lsrs	r1, r4, #16
 8000416:	fbbe f6f8 	udiv	r6, lr, r8
 800041a:	fa1f f78c 	uxth.w	r7, ip
 800041e:	fb08 e316 	mls	r3, r8, r6, lr
 8000422:	ea41 4303 	orr.w	r3, r1, r3, lsl #16
 8000426:	fb06 f107 	mul.w	r1, r6, r7
 800042a:	4299      	cmp	r1, r3
 800042c:	d90a      	bls.n	8000444 <__udivmoddi4+0x64>
 800042e:	eb1c 0303 	adds.w	r3, ip, r3
 8000432:	f106 30ff 	add.w	r0, r6, #4294967295
 8000436:	f080 811f 	bcs.w	8000678 <__udivmoddi4+0x298>
 800043a:	4299      	cmp	r1, r3
 800043c:	f240 811c 	bls.w	8000678 <__udivmoddi4+0x298>
 8000440:	3e02      	subs	r6, #2
 8000442:	4463      	add	r3, ip
 8000444:	1a5b      	subs	r3, r3, r1
 8000446:	b2a4      	uxth	r4, r4
 8000448:	fbb3 f0f8 	udiv	r0, r3, r8
 800044c:	fb08 3310 	mls	r3, r8, r0, r3
 8000450:	ea44 4403 	orr.w	r4, r4, r3, lsl #16
 8000454:	fb00 f707 	mul.w	r7, r0, r7
 8000458:	42a7      	cmp	r7, r4
 800045a:	d90a      	bls.n	8000472 <__udivmoddi4+0x92>
 800045c:	eb1c 0404 	adds.w	r4, ip, r4
 8000460:	f100 33ff 	add.w	r3, r0, #4294967295
 8000464:	f080 810a 	bcs.w	800067c <__udivmoddi4+0x29c>
 8000468:	42a7      	cmp	r7, r4
 800046a:	f240 8107 	bls.w	800067c <__udivmoddi4+0x29c>
 800046e:	4464      	add	r4, ip
 8000470:	3802      	subs	r0, #2
 8000472:	ea40 4006 	orr.w	r0, r0, r6, lsl #16
 8000476:	1be4      	subs	r4, r4, r7
 8000478:	2600      	movs	r6, #0
 800047a:	b11d      	cbz	r5, 8000484 <__udivmoddi4+0xa4>
 800047c:	40d4      	lsrs	r4, r2
 800047e:	2300      	movs	r3, #0
 8000480:	e9c5 4300 	strd	r4, r3, [r5]
 8000484:	4631      	mov	r1, r6
 8000486:	e8bd 87f0 	ldmia.w	sp!, {r4, r5, r6, r7, r8, r9, sl, pc}
 800048a:	428b      	cmp	r3, r1
 800048c:	d909      	bls.n	80004a2 <__udivmoddi4+0xc2>
 800048e:	2d00      	cmp	r5, #0
 8000490:	f000 80ef 	beq.w	8000672 <__udivmoddi4+0x292>
 8000494:	2600      	movs	r6, #0
 8000496:	e9c5 0100 	strd	r0, r1, [r5]
 800049a:	4630      	mov	r0, r6
 800049c:	4631      	mov	r1, r6
 800049e:	e8bd 87f0 	ldmia.w	sp!, {r4, r5, r6, r7, r8, r9, sl, pc}
 80004a2:	fab3 f683 	clz	r6, r3
 80004a6:	2e00      	cmp	r6, #0
 80004a8:	d14a      	bne.n	8000540 <__udivmoddi4+0x160>
 80004aa:	428b      	cmp	r3, r1
 80004ac:	d302      	bcc.n	80004b4 <__udivmoddi4+0xd4>
 80004ae:	4282      	cmp	r2, r0
 80004b0:	f200 80f9 	bhi.w	80006a6 <__udivmoddi4+0x2c6>
 80004b4:	1a84      	subs	r4, r0, r2
 80004b6:	eb61 0303 	sbc.w	r3, r1, r3
 80004ba:	2001      	movs	r0, #1
 80004bc:	469e      	mov	lr, r3
 80004be:	2d00      	cmp	r5, #0
 80004c0:	d0e0      	beq.n	8000484 <__udivmoddi4+0xa4>
 80004c2:	e9c5 4e00 	strd	r4, lr, [r5]
 80004c6:	e7dd      	b.n	8000484 <__udivmoddi4+0xa4>
 80004c8:	b902      	cbnz	r2, 80004cc <__udivmoddi4+0xec>
 80004ca:	deff      	udf	#255	; 0xff
 80004cc:	fab2 f282 	clz	r2, r2
 80004d0:	2a00      	cmp	r2, #0
 80004d2:	f040 8092 	bne.w	80005fa <__udivmoddi4+0x21a>
 80004d6:	eba1 010c 	sub.w	r1, r1, ip
 80004da:	ea4f 471c 	mov.w	r7, ip, lsr #16
 80004de:	fa1f fe8c 	uxth.w	lr, ip
 80004e2:	2601      	movs	r6, #1
 80004e4:	0c20      	lsrs	r0, r4, #16
 80004e6:	fbb1 f3f7 	udiv	r3, r1, r7
 80004ea:	fb07 1113 	mls	r1, r7, r3, r1
 80004ee:	ea40 4101 	orr.w	r1, r0, r1, lsl #16
 80004f2:	fb0e f003 	mul.w	r0, lr, r3
 80004f6:	4288      	cmp	r0, r1
 80004f8:	d908      	bls.n	800050c <__udivmoddi4+0x12c>
 80004fa:	eb1c 0101 	adds.w	r1, ip, r1
 80004fe:	f103 38ff 	add.w	r8, r3, #4294967295
 8000502:	d202      	bcs.n	800050a <__udivmoddi4+0x12a>
 8000504:	4288      	cmp	r0, r1
 8000506:	f200 80cb 	bhi.w	80006a0 <__udivmoddi4+0x2c0>
 800050a:	4643      	mov	r3, r8
 800050c:	1a09      	subs	r1, r1, r0
 800050e:	b2a4      	uxth	r4, r4
 8000510:	fbb1 f0f7 	udiv	r0, r1, r7
 8000514:	fb07 1110 	mls	r1, r7, r0, r1
 8000518:	ea44 4401 	orr.w	r4, r4, r1, lsl #16
 800051c:	fb0e fe00 	mul.w	lr, lr, r0
 8000520:	45a6      	cmp	lr, r4
 8000522:	d908      	bls.n	8000536 <__udivmoddi4+0x156>
 8000524:	eb1c 0404 	adds.w	r4, ip, r4
 8000528:	f100 31ff 	add.w	r1, r0, #4294967295
 800052c:	d202      	bcs.n	8000534 <__udivmoddi4+0x154>
 800052e:	45a6      	cmp	lr, r4
 8000530:	f200 80bb 	bhi.w	80006aa <__udivmoddi4+0x2ca>
 8000534:	4608      	mov	r0, r1
 8000536:	eba4 040e 	sub.w	r4, r4, lr
 800053a:	ea40 4003 	orr.w	r0, r0, r3, lsl #16
 800053e:	e79c      	b.n	800047a <__udivmoddi4+0x9a>
 8000540:	f1c6 0720 	rsb	r7, r6, #32
 8000544:	40b3      	lsls	r3, r6
 8000546:	fa22 fc07 	lsr.w	ip, r2, r7
 800054a:	ea4c 0c03 	orr.w	ip, ip, r3
 800054e:	fa20 f407 	lsr.w	r4, r0, r7
 8000552:	fa01 f306 	lsl.w	r3, r1, r6
 8000556:	431c      	orrs	r4, r3
 8000558:	40f9      	lsrs	r1, r7
 800055a:	ea4f 491c 	mov.w	r9, ip, lsr #16
 800055e:	fa00 f306 	lsl.w	r3, r0, r6
 8000562:	fbb1 f8f9 	udiv	r8, r1, r9
 8000566:	0c20      	lsrs	r0, r4, #16
 8000568:	fa1f fe8c 	uxth.w	lr, ip
 800056c:	fb09 1118 	mls	r1, r9, r8, r1
 8000570:	ea40 4101 	orr.w	r1, r0, r1, lsl #16
 8000574:	fb08 f00e 	mul.w	r0, r8, lr
 8000578:	4288      	cmp	r0, r1
 800057a:	fa02 f206 	lsl.w	r2, r2, r6
 800057e:	d90b      	bls.n	8000598 <__udivmoddi4+0x1b8>
 8000580:	eb1c 0101 	adds.w	r1, ip, r1
 8000584:	f108 3aff 	add.w	sl, r8, #4294967295
 8000588:	f080 8088 	bcs.w	800069c <__udivmoddi4+0x2bc>
 800058c:	4288      	cmp	r0, r1
 800058e:	f240 8085 	bls.w	800069c <__udivmoddi4+0x2bc>
 8000592:	f1a8 0802 	sub.w	r8, r8, #2
 8000596:	4461      	add	r1, ip
 8000598:	1a09      	subs	r1, r1, r0
 800059a:	b2a4      	uxth	r4, r4
 800059c:	fbb1 f0f9 	udiv	r0, r1, r9
 80005a0:	fb09 1110 	mls	r1, r9, r0, r1
 80005a4:	ea44 4101 	orr.w	r1, r4, r1, lsl #16
 80005a8:	fb00 fe0e 	mul.w	lr, r0, lr
 80005ac:	458e      	cmp	lr, r1
 80005ae:	d908      	bls.n	80005c2 <__udivmoddi4+0x1e2>
 80005b0:	eb1c 0101 	adds.w	r1, ip, r1
 80005b4:	f100 34ff 	add.w	r4, r0, #4294967295
 80005b8:	d26c      	bcs.n	8000694 <__udivmoddi4+0x2b4>
 80005ba:	458e      	cmp	lr, r1
 80005bc:	d96a      	bls.n	8000694 <__udivmoddi4+0x2b4>
 80005be:	3802      	subs	r0, #2
 80005c0:	4461      	add	r1, ip
 80005c2:	ea40 4008 	orr.w	r0, r0, r8, lsl #16
 80005c6:	fba0 9402 	umull	r9, r4, r0, r2
 80005ca:	eba1 010e 	sub.w	r1, r1, lr
 80005ce:	42a1      	cmp	r1, r4
 80005d0:	46c8      	mov	r8, r9
 80005d2:	46a6      	mov	lr, r4
 80005d4:	d356      	bcc.n	8000684 <__udivmoddi4+0x2a4>
 80005d6:	d053      	beq.n	8000680 <__udivmoddi4+0x2a0>
 80005d8:	b15d      	cbz	r5, 80005f2 <__udivmoddi4+0x212>
 80005da:	ebb3 0208 	subs.w	r2, r3, r8
 80005de:	eb61 010e 	sbc.w	r1, r1, lr
 80005e2:	fa01 f707 	lsl.w	r7, r1, r7
 80005e6:	fa22 f306 	lsr.w	r3, r2, r6
 80005ea:	40f1      	lsrs	r1, r6
 80005ec:	431f      	orrs	r7, r3
 80005ee:	e9c5 7100 	strd	r7, r1, [r5]
 80005f2:	2600      	movs	r6, #0
 80005f4:	4631      	mov	r1, r6
 80005f6:	e8bd 87f0 	ldmia.w	sp!, {r4, r5, r6, r7, r8, r9, sl, pc}
 80005fa:	f1c2 0320 	rsb	r3, r2, #32
 80005fe:	40d8      	lsrs	r0, r3
 8000600:	fa0c fc02 	lsl.w	ip, ip, r2
 8000604:	fa21 f303 	lsr.w	r3, r1, r3
 8000608:	4091      	lsls	r1, r2
 800060a:	4301      	orrs	r1, r0
 800060c:	ea4f 471c 	mov.w	r7, ip, lsr #16
 8000610:	fa1f fe8c 	uxth.w	lr, ip
 8000614:	fbb3 f0f7 	udiv	r0, r3, r7
 8000618:	fb07 3610 	mls	r6, r7, r0, r3
 800061c:	0c0b      	lsrs	r3, r1, #16
 800061e:	ea43 4306 	orr.w	r3, r3, r6, lsl #16
 8000622:	fb00 f60e 	mul.w	r6, r0, lr
 8000626:	429e      	cmp	r6, r3
 8000628:	fa04 f402 	lsl.w	r4, r4, r2
 800062c:	d908      	bls.n	8000640 <__udivmoddi4+0x260>
 800062e:	eb1c 0303 	adds.w	r3, ip, r3
 8000632:	f100 38ff 	add.w	r8, r0, #4294967295
 8000636:	d22f      	bcs.n	8000698 <__udivmoddi4+0x2b8>
 8000638:	429e      	cmp	r6, r3
 800063a:	d92d      	bls.n	8000698 <__udivmoddi4+0x2b8>
 800063c:	3802      	subs	r0, #2
 800063e:	4463      	add	r3, ip
 8000640:	1b9b      	subs	r3, r3, r6
 8000642:	b289      	uxth	r1, r1
 8000644:	fbb3 f6f7 	udiv	r6, r3, r7
 8000648:	fb07 3316 	mls	r3, r7, r6, r3
 800064c:	ea41 4103 	orr.w	r1, r1, r3, lsl #16
 8000650:	fb06 f30e 	mul.w	r3, r6, lr
 8000654:	428b      	cmp	r3, r1
 8000656:	d908      	bls.n	800066a <__udivmoddi4+0x28a>
 8000658:	eb1c 0101 	adds.w	r1, ip, r1
 800065c:	f106 38ff 	add.w	r8, r6, #4294967295
 8000660:	d216      	bcs.n	8000690 <__udivmoddi4+0x2b0>
 8000662:	428b      	cmp	r3, r1
 8000664:	d914      	bls.n	8000690 <__udivmoddi4+0x2b0>
 8000666:	3e02      	subs	r6, #2
 8000668:	4461      	add	r1, ip
 800066a:	1ac9      	subs	r1, r1, r3
 800066c:	ea46 4600 	orr.w	r6, r6, r0, lsl #16
 8000670:	e738      	b.n	80004e4 <__udivmoddi4+0x104>
 8000672:	462e      	mov	r6, r5
 8000674:	4628      	mov	r0, r5
 8000676:	e705      	b.n	8000484 <__udivmoddi4+0xa4>
 8000678:	4606      	mov	r6, r0
 800067a:	e6e3      	b.n	8000444 <__udivmoddi4+0x64>
 800067c:	4618      	mov	r0, r3
 800067e:	e6f8      	b.n	8000472 <__udivmoddi4+0x92>
 8000680:	454b      	cmp	r3, r9
 8000682:	d2a9      	bcs.n	80005d8 <__udivmoddi4+0x1f8>
 8000684:	ebb9 0802 	subs.w	r8, r9, r2
 8000688:	eb64 0e0c 	sbc.w	lr, r4, ip
 800068c:	3801      	subs	r0, #1
 800068e:	e7a3      	b.n	80005d8 <__udivmoddi4+0x1f8>
 8000690:	4646      	mov	r6, r8
 8000692:	e7ea      	b.n	800066a <__udivmoddi4+0x28a>
 8000694:	4620      	mov	r0, r4
 8000696:	e794      	b.n	80005c2 <__udivmoddi4+0x1e2>
 8000698:	4640      	mov	r0, r8
 800069a:	e7d1      	b.n	8000640 <__udivmoddi4+0x260>
 800069c:	46d0      	mov	r8, sl
 800069e:	e77b      	b.n	8000598 <__udivmoddi4+0x1b8>
 80006a0:	3b02      	subs	r3, #2
 80006a2:	4461      	add	r1, ip
 80006a4:	e732      	b.n	800050c <__udivmoddi4+0x12c>
 80006a6:	4630      	mov	r0, r6
 80006a8:	e709      	b.n	80004be <__udivmoddi4+0xde>
 80006aa:	4464      	add	r4, ip
 80006ac:	3802      	subs	r0, #2
 80006ae:	e742      	b.n	8000536 <__udivmoddi4+0x156>

080006b0 <__aeabi_idiv0>:
 80006b0:	4770      	bx	lr
 80006b2:	bf00      	nop

080006b4 <SystemInit>:
  *         configuration.
  * @param  None
  * @retval None
  */
void SystemInit (void)
{
 80006b4:	b480      	push	{r7}
 80006b6:	af00      	add	r7, sp, #0
  /* FPU settings ------------------------------------------------------------*/
  #if (__FPU_PRESENT == 1) && (__FPU_USED == 1)
    SCB->CPACR |= ((3UL << (10*2))|(3UL << (11*2)));  /* set CP10 and CP11 Full Access */
 80006b8:	4b3d      	ldr	r3, [pc, #244]	; (80007b0 <SystemInit+0xfc>)
 80006ba:	f8d3 3088 	ldr.w	r3, [r3, #136]	; 0x88
 80006be:	4a3c      	ldr	r2, [pc, #240]	; (80007b0 <SystemInit+0xfc>)
 80006c0:	f443 0370 	orr.w	r3, r3, #15728640	; 0xf00000
 80006c4:	f8c2 3088 	str.w	r3, [r2, #136]	; 0x88
  #endif

    /*SEVONPEND enabled so that an interrupt coming from the CPU(n) interrupt signal is
     detectable by the CPU after a WFI/WFE instruction.*/
 SCB->SCR |= SCB_SCR_SEVONPEND_Msk;
 80006c8:	4b39      	ldr	r3, [pc, #228]	; (80007b0 <SystemInit+0xfc>)
 80006ca:	691b      	ldr	r3, [r3, #16]
 80006cc:	4a38      	ldr	r2, [pc, #224]	; (80007b0 <SystemInit+0xfc>)
 80006ce:	f043 0310 	orr.w	r3, r3, #16
 80006d2:	6113      	str	r3, [r2, #16]

#if defined(CORE_CM7)
  /* Reset the RCC clock configuration to the default reset state ------------*/
   /* Increasing the CPU frequency */
  if(FLASH_LATENCY_DEFAULT  > (READ_BIT((FLASH->ACR), FLASH_ACR_LATENCY)))
 80006d4:	4b37      	ldr	r3, [pc, #220]	; (80007b4 <SystemInit+0x100>)
 80006d6:	681b      	ldr	r3, [r3, #0]
 80006d8:	f003 030f 	and.w	r3, r3, #15
 80006dc:	2b06      	cmp	r3, #6
 80006de:	d807      	bhi.n	80006f0 <SystemInit+0x3c>
  {
    /* Program the new number of wait states to the LATENCY bits in the FLASH_ACR register */
    MODIFY_REG(FLASH->ACR, FLASH_ACR_LATENCY, (uint32_t)(FLASH_LATENCY_DEFAULT));
 80006e0:	4b34      	ldr	r3, [pc, #208]	; (80007b4 <SystemInit+0x100>)
 80006e2:	681b      	ldr	r3, [r3, #0]
 80006e4:	f023 030f 	bic.w	r3, r3, #15
 80006e8:	4a32      	ldr	r2, [pc, #200]	; (80007b4 <SystemInit+0x100>)
 80006ea:	f043 0307 	orr.w	r3, r3, #7
 80006ee:	6013      	str	r3, [r2, #0]
  }

  /* Set HSION bit */
  RCC->CR |= RCC_CR_HSION;
 80006f0:	4b31      	ldr	r3, [pc, #196]	; (80007b8 <SystemInit+0x104>)
 80006f2:	681b      	ldr	r3, [r3, #0]
 80006f4:	4a30      	ldr	r2, [pc, #192]	; (80007b8 <SystemInit+0x104>)
 80006f6:	f043 0301 	orr.w	r3, r3, #1
 80006fa:	6013      	str	r3, [r2, #0]

  /* Reset CFGR register */
  RCC->CFGR = 0x00000000;
 80006fc:	4b2e      	ldr	r3, [pc, #184]	; (80007b8 <SystemInit+0x104>)
 80006fe:	2200      	movs	r2, #0
 8000700:	611a      	str	r2, [r3, #16]

  /* Reset HSEON, HSECSSON, CSION, HSI48ON, CSIKERON, PLL1ON, PLL2ON and PLL3ON bits */
  RCC->CR &= 0xEAF6ED7FU;
 8000702:	4b2d      	ldr	r3, [pc, #180]	; (80007b8 <SystemInit+0x104>)
 8000704:	681a      	ldr	r2, [r3, #0]
 8000706:	492c      	ldr	r1, [pc, #176]	; (80007b8 <SystemInit+0x104>)
 8000708:	4b2c      	ldr	r3, [pc, #176]	; (80007bc <SystemInit+0x108>)
 800070a:	4013      	ands	r3, r2
 800070c:	600b      	str	r3, [r1, #0]

   /* Decreasing the number of wait states because of lower CPU frequency */
  if(FLASH_LATENCY_DEFAULT  < (READ_BIT((FLASH->ACR), FLASH_ACR_LATENCY)))
 800070e:	4b29      	ldr	r3, [pc, #164]	; (80007b4 <SystemInit+0x100>)
 8000710:	681b      	ldr	r3, [r3, #0]
 8000712:	f003 0308 	and.w	r3, r3, #8
 8000716:	2b00      	cmp	r3, #0
 8000718:	d007      	beq.n	800072a <SystemInit+0x76>
  {
    /* Program the new number of wait states to the LATENCY bits in the FLASH_ACR register */
    MODIFY_REG(FLASH->ACR, FLASH_ACR_LATENCY, (uint32_t)(FLASH_LATENCY_DEFAULT));
 800071a:	4b26      	ldr	r3, [pc, #152]	; (80007b4 <SystemInit+0x100>)
 800071c:	681b      	ldr	r3, [r3, #0]
 800071e:	f023 030f 	bic.w	r3, r3, #15
 8000722:	4a24      	ldr	r2, [pc, #144]	; (80007b4 <SystemInit+0x100>)
 8000724:	f043 0307 	orr.w	r3, r3, #7
 8000728:	6013      	str	r3, [r2, #0]
  }

  /* Reset D1CFGR register */
  RCC->D1CFGR = 0x00000000;
 800072a:	4b23      	ldr	r3, [pc, #140]	; (80007b8 <SystemInit+0x104>)
 800072c:	2200      	movs	r2, #0
 800072e:	619a      	str	r2, [r3, #24]

  /* Reset D2CFGR register */
  RCC->D2CFGR = 0x00000000;
 8000730:	4b21      	ldr	r3, [pc, #132]	; (80007b8 <SystemInit+0x104>)
 8000732:	2200      	movs	r2, #0
 8000734:	61da      	str	r2, [r3, #28]

  /* Reset D3CFGR register */
  RCC->D3CFGR = 0x00000000;
 8000736:	4b20      	ldr	r3, [pc, #128]	; (80007b8 <SystemInit+0x104>)
 8000738:	2200      	movs	r2, #0
 800073a:	621a      	str	r2, [r3, #32]

  /* Reset PLLCKSELR register */
  RCC->PLLCKSELR = 0x02020200;
 800073c:	4b1e      	ldr	r3, [pc, #120]	; (80007b8 <SystemInit+0x104>)
 800073e:	4a20      	ldr	r2, [pc, #128]	; (80007c0 <SystemInit+0x10c>)
 8000740:	629a      	str	r2, [r3, #40]	; 0x28

  /* Reset PLLCFGR register */
  RCC->PLLCFGR = 0x01FF0000;
 8000742:	4b1d      	ldr	r3, [pc, #116]	; (80007b8 <SystemInit+0x104>)
 8000744:	4a1f      	ldr	r2, [pc, #124]	; (80007c4 <SystemInit+0x110>)
 8000746:	62da      	str	r2, [r3, #44]	; 0x2c
  /* Reset PLL1DIVR register */
  RCC->PLL1DIVR = 0x01010280;
 8000748:	4b1b      	ldr	r3, [pc, #108]	; (80007b8 <SystemInit+0x104>)
 800074a:	4a1f      	ldr	r2, [pc, #124]	; (80007c8 <SystemInit+0x114>)
 800074c:	631a      	str	r2, [r3, #48]	; 0x30
  /* Reset PLL1FRACR register */
  RCC->PLL1FRACR = 0x00000000;
 800074e:	4b1a      	ldr	r3, [pc, #104]	; (80007b8 <SystemInit+0x104>)
 8000750:	2200      	movs	r2, #0
 8000752:	635a      	str	r2, [r3, #52]	; 0x34

  /* Reset PLL2DIVR register */
  RCC->PLL2DIVR = 0x01010280;
 8000754:	4b18      	ldr	r3, [pc, #96]	; (80007b8 <SystemInit+0x104>)
 8000756:	4a1c      	ldr	r2, [pc, #112]	; (80007c8 <SystemInit+0x114>)
 8000758:	639a      	str	r2, [r3, #56]	; 0x38

  /* Reset PLL2FRACR register */

  RCC->PLL2FRACR = 0x00000000;
 800075a:	4b17      	ldr	r3, [pc, #92]	; (80007b8 <SystemInit+0x104>)
 800075c:	2200      	movs	r2, #0
 800075e:	63da      	str	r2, [r3, #60]	; 0x3c
  /* Reset PLL3DIVR register */
  RCC->PLL3DIVR = 0x01010280;
 8000760:	4b15      	ldr	r3, [pc, #84]	; (80007b8 <SystemInit+0x104>)
 8000762:	4a19      	ldr	r2, [pc, #100]	; (80007c8 <SystemInit+0x114>)
 8000764:	641a      	str	r2, [r3, #64]	; 0x40

  /* Reset PLL3FRACR register */
  RCC->PLL3FRACR = 0x00000000;
 8000766:	4b14      	ldr	r3, [pc, #80]	; (80007b8 <SystemInit+0x104>)
 8000768:	2200      	movs	r2, #0
 800076a:	645a      	str	r2, [r3, #68]	; 0x44

  /* Reset HSEBYP bit */
  RCC->CR &= 0xFFFBFFFFU;
 800076c:	4b12      	ldr	r3, [pc, #72]	; (80007b8 <SystemInit+0x104>)
 800076e:	681b      	ldr	r3, [r3, #0]
 8000770:	4a11      	ldr	r2, [pc, #68]	; (80007b8 <SystemInit+0x104>)
 8000772:	f423 2380 	bic.w	r3, r3, #262144	; 0x40000
 8000776:	6013      	str	r3, [r2, #0]

  /* Disable all interrupts */
  RCC->CIER = 0x00000000;
 8000778:	4b0f      	ldr	r3, [pc, #60]	; (80007b8 <SystemInit+0x104>)
 800077a:	2200      	movs	r2, #0
 800077c:	661a      	str	r2, [r3, #96]	; 0x60

  /* Enable CortexM7 HSEM EXTI line (line 78)*/
  EXTI_D2->EMR3 |= 0x4000UL;
 800077e:	4b13      	ldr	r3, [pc, #76]	; (80007cc <SystemInit+0x118>)
 8000780:	6a5b      	ldr	r3, [r3, #36]	; 0x24
 8000782:	4a12      	ldr	r2, [pc, #72]	; (80007cc <SystemInit+0x118>)
 8000784:	f443 4380 	orr.w	r3, r3, #16384	; 0x4000
 8000788:	6253      	str	r3, [r2, #36]	; 0x24

  if((DBGMCU->IDCODE & 0xFFFF0000U) < 0x20000000U)
 800078a:	4b11      	ldr	r3, [pc, #68]	; (80007d0 <SystemInit+0x11c>)
 800078c:	681a      	ldr	r2, [r3, #0]
 800078e:	4b11      	ldr	r3, [pc, #68]	; (80007d4 <SystemInit+0x120>)
 8000790:	4013      	ands	r3, r2
 8000792:	f1b3 5f00 	cmp.w	r3, #536870912	; 0x20000000
 8000796:	d202      	bcs.n	800079e <SystemInit+0xea>
  {
    /* if stm32h7 revY*/
    /* Change  the switch matrix read issuing capability to 1 for the AXI SRAM target (Target 7) */
    *((__IO uint32_t*)0x51008108) = 0x000000001U;
 8000798:	4b0f      	ldr	r3, [pc, #60]	; (80007d8 <SystemInit+0x124>)
 800079a:	2201      	movs	r2, #1
 800079c:	601a      	str	r2, [r3, #0]
  /*
   * Disable the FMC bank1 (enabled after reset).
   * This, prevents CPU speculation access on this bank which blocks the use of FMC during
   * 24us. During this time the others FMC master (such as LTDC) cannot use it!
   */
  FMC_Bank1_R->BTCR[0] = 0x000030D2;
 800079e:	4b0f      	ldr	r3, [pc, #60]	; (80007dc <SystemInit+0x128>)
 80007a0:	f243 02d2 	movw	r2, #12498	; 0x30d2
 80007a4:	601a      	str	r2, [r3, #0]
#endif /* USER_VECT_TAB_ADDRESS */

#else
#error Please #define CORE_CM4 or CORE_CM7
#endif /* CORE_CM4 */
}
 80007a6:	bf00      	nop
 80007a8:	46bd      	mov	sp, r7
 80007aa:	f85d 7b04 	ldr.w	r7, [sp], #4
 80007ae:	4770      	bx	lr
 80007b0:	e000ed00 	.word	0xe000ed00
 80007b4:	52002000 	.word	0x52002000
 80007b8:	58024400 	.word	0x58024400
 80007bc:	eaf6ed7f 	.word	0xeaf6ed7f
 80007c0:	02020200 	.word	0x02020200
 80007c4:	01ff0000 	.word	0x01ff0000
 80007c8:	01010280 	.word	0x01010280
 80007cc:	580000c0 	.word	0x580000c0
 80007d0:	5c001000 	.word	0x5c001000
 80007d4:	ffff0000 	.word	0xffff0000
 80007d8:	51008108 	.word	0x51008108
 80007dc:	52004000 	.word	0x52004000

080007e0 <main>:
/**
  * @brief  The application entry point.
  * @retval int
  */
int main(void)
{
 80007e0:	b590      	push	{r4, r7, lr}
 80007e2:	b083      	sub	sp, #12
 80007e4:	af00      	add	r7, sp, #0
  int32_t timeout;
/* USER CODE END Boot_Mode_Sequence_0 */

/* USER CODE BEGIN Boot_Mode_Sequence_1 */
  /* Wait until CPU2 boots and enters in stop mode or timeout*/
  timeout = 0xFFFF;
 80007e6:	f64f 73ff 	movw	r3, #65535	; 0xffff
 80007ea:	607b      	str	r3, [r7, #4]
  while((__HAL_RCC_GET_FLAG(RCC_FLAG_D2CKRDY) != RESET) && (timeout-- > 0));
 80007ec:	bf00      	nop
 80007ee:	4b32      	ldr	r3, [pc, #200]	; (80008b8 <main+0xd8>)
 80007f0:	681b      	ldr	r3, [r3, #0]
 80007f2:	f403 4300 	and.w	r3, r3, #32768	; 0x8000
 80007f6:	2b00      	cmp	r3, #0
 80007f8:	d004      	beq.n	8000804 <main+0x24>
 80007fa:	687b      	ldr	r3, [r7, #4]
 80007fc:	1e5a      	subs	r2, r3, #1
 80007fe:	607a      	str	r2, [r7, #4]
 8000800:	2b00      	cmp	r3, #0
 8000802:	dcf4      	bgt.n	80007ee <main+0xe>
  if ( timeout < 0 )
 8000804:	687b      	ldr	r3, [r7, #4]
 8000806:	2b00      	cmp	r3, #0
 8000808:	da01      	bge.n	800080e <main+0x2e>
  {
  Error_Handler();
 800080a:	f000 f9c3 	bl	8000b94 <Error_Handler>
  }
/* USER CODE END Boot_Mode_Sequence_1 */
  /* MCU Configuration--------------------------------------------------------*/

  /* Reset of all peripherals, Initializes the Flash interface and the Systick. */
  HAL_Init();
 800080e:	f000 fb6b 	bl	8000ee8 <HAL_Init>
  /* USER CODE BEGIN Init */

  /* USER CODE END Init */

  /* Configure the system clock */
  SystemClock_Config();
 8000812:	f000 f857 	bl	80008c4 <SystemClock_Config>
/* USER CODE BEGIN Boot_Mode_Sequence_2 */
/* When system initialization is finished, Cortex-M7 will release Cortex-M4 by means of
HSEM notification */
/*HW semaphore Clock enable*/
__HAL_RCC_HSEM_CLK_ENABLE();
 8000816:	4b28      	ldr	r3, [pc, #160]	; (80008b8 <main+0xd8>)
 8000818:	f8d3 30e0 	ldr.w	r3, [r3, #224]	; 0xe0
 800081c:	4a26      	ldr	r2, [pc, #152]	; (80008b8 <main+0xd8>)
 800081e:	f043 7300 	orr.w	r3, r3, #33554432	; 0x2000000
 8000822:	f8c2 30e0 	str.w	r3, [r2, #224]	; 0xe0
 8000826:	4b24      	ldr	r3, [pc, #144]	; (80008b8 <main+0xd8>)
 8000828:	f8d3 30e0 	ldr.w	r3, [r3, #224]	; 0xe0
 800082c:	f003 7300 	and.w	r3, r3, #33554432	; 0x2000000
 8000830:	603b      	str	r3, [r7, #0]
 8000832:	683b      	ldr	r3, [r7, #0]
/*Take HSEM */
HAL_HSEM_FastTake(HSEM_ID_0);
 8000834:	2000      	movs	r0, #0
 8000836:	f000 fef3 	bl	8001620 <HAL_HSEM_FastTake>
/*Release HSEM in order to notify the CPU2(CM4)*/
HAL_HSEM_Release(HSEM_ID_0,0);
 800083a:	2100      	movs	r1, #0
 800083c:	2000      	movs	r0, #0
 800083e:	f000 ff09 	bl	8001654 <HAL_HSEM_Release>
/* wait until CPU2 wakes up from stop mode */
timeout = 0xFFFF;
 8000842:	f64f 73ff 	movw	r3, #65535	; 0xffff
 8000846:	607b      	str	r3, [r7, #4]
while((__HAL_RCC_GET_FLAG(RCC_FLAG_D2CKRDY) == RESET) && (timeout-- > 0));
 8000848:	bf00      	nop
 800084a:	4b1b      	ldr	r3, [pc, #108]	; (80008b8 <main+0xd8>)
 800084c:	681b      	ldr	r3, [r3, #0]
 800084e:	f403 4300 	and.w	r3, r3, #32768	; 0x8000
 8000852:	2b00      	cmp	r3, #0
 8000854:	d104      	bne.n	8000860 <main+0x80>
 8000856:	687b      	ldr	r3, [r7, #4]
 8000858:	1e5a      	subs	r2, r3, #1
 800085a:	607a      	str	r2, [r7, #4]
 800085c:	2b00      	cmp	r3, #0
 800085e:	dcf4      	bgt.n	800084a <main+0x6a>
if ( timeout < 0 )
 8000860:	687b      	ldr	r3, [r7, #4]
 8000862:	2b00      	cmp	r3, #0
 8000864:	da01      	bge.n	800086a <main+0x8a>
{
Error_Handler();
 8000866:	f000 f995 	bl	8000b94 <Error_Handler>
  /* USER CODE BEGIN SysInit */

  /* USER CODE END SysInit */

  /* Initialize all configured peripherals */
  MX_GPIO_Init();
 800086a:	f000 f8fb 	bl	8000a64 <MX_GPIO_Init>
  MX_USART3_UART_Init();
 800086e:	f000 f8ad 	bl	80009cc <MX_USART3_UART_Init>
  MX_USB_DEVICE_Init();
 8000872:	f009 fa95 	bl	8009da0 <MX_USB_DEVICE_Init>
  while (1)
  {
    /* USER CODE END WHILE */

    /* USER CODE BEGIN 3 */
	  if(status==1)
 8000876:	4b11      	ldr	r3, [pc, #68]	; (80008bc <main+0xdc>)
 8000878:	781b      	ldrb	r3, [r3, #0]
 800087a:	2b01      	cmp	r3, #1
 800087c:	d1fb      	bne.n	8000876 <main+0x96>
	  {

	  CDC_Transmit_FS((uint8_t*)data, strlen(data));
 800087e:	4b10      	ldr	r3, [pc, #64]	; (80008c0 <main+0xe0>)
 8000880:	681c      	ldr	r4, [r3, #0]
 8000882:	4b0f      	ldr	r3, [pc, #60]	; (80008c0 <main+0xe0>)
 8000884:	681b      	ldr	r3, [r3, #0]
 8000886:	4618      	mov	r0, r3
 8000888:	f7ff fd34 	bl	80002f4 <strlen>
 800088c:	4603      	mov	r3, r0
 800088e:	b29b      	uxth	r3, r3
 8000890:	4619      	mov	r1, r3
 8000892:	4620      	mov	r0, r4
 8000894:	f009 fc0c 	bl	800a0b0 <CDC_Transmit_FS>
	  HAL_Delay(500);
 8000898:	f44f 70fa 	mov.w	r0, #500	; 0x1f4
 800089c:	f000 fbb6 	bl	800100c <HAL_Delay>
	  status=0;
 80008a0:	4b06      	ldr	r3, [pc, #24]	; (80008bc <main+0xdc>)
 80008a2:	2200      	movs	r2, #0
 80008a4:	701a      	strb	r2, [r3, #0]
	  memset(data,'\0',sizeof(data));
 80008a6:	4b06      	ldr	r3, [pc, #24]	; (80008c0 <main+0xe0>)
 80008a8:	681b      	ldr	r3, [r3, #0]
 80008aa:	2204      	movs	r2, #4
 80008ac:	2100      	movs	r1, #0
 80008ae:	4618      	mov	r0, r3
 80008b0:	f00a f8c6 	bl	800aa40 <memset>
	  if(status==1)
 80008b4:	e7df      	b.n	8000876 <main+0x96>
 80008b6:	bf00      	nop
 80008b8:	58024400 	.word	0x58024400
 80008bc:	2400053c 	.word	0x2400053c
 80008c0:	24000210 	.word	0x24000210

080008c4 <SystemClock_Config>:
/**
  * @brief System Clock Configuration
  * @retval None
  */
void SystemClock_Config(void)
{
 80008c4:	b580      	push	{r7, lr}
 80008c6:	b09c      	sub	sp, #112	; 0x70
 80008c8:	af00      	add	r7, sp, #0
  RCC_OscInitTypeDef RCC_OscInitStruct = {0};
 80008ca:	f107 0324 	add.w	r3, r7, #36	; 0x24
 80008ce:	224c      	movs	r2, #76	; 0x4c
 80008d0:	2100      	movs	r1, #0
 80008d2:	4618      	mov	r0, r3
 80008d4:	f00a f8b4 	bl	800aa40 <memset>
  RCC_ClkInitTypeDef RCC_ClkInitStruct = {0};
 80008d8:	1d3b      	adds	r3, r7, #4
 80008da:	2220      	movs	r2, #32
 80008dc:	2100      	movs	r1, #0
 80008de:	4618      	mov	r0, r3
 80008e0:	f00a f8ae 	bl	800aa40 <memset>

  /** Supply configuration update enable
  */
  HAL_PWREx_ConfigSupply(PWR_DIRECT_SMPS_SUPPLY);
 80008e4:	2004      	movs	r0, #4
 80008e6:	f002 f99f 	bl	8002c28 <HAL_PWREx_ConfigSupply>

  /** Configure the main internal regulator output voltage
  */
  __HAL_PWR_VOLTAGESCALING_CONFIG(PWR_REGULATOR_VOLTAGE_SCALE0);
 80008ea:	2300      	movs	r3, #0
 80008ec:	603b      	str	r3, [r7, #0]
 80008ee:	4b34      	ldr	r3, [pc, #208]	; (80009c0 <SystemClock_Config+0xfc>)
 80008f0:	699b      	ldr	r3, [r3, #24]
 80008f2:	4a33      	ldr	r2, [pc, #204]	; (80009c0 <SystemClock_Config+0xfc>)
 80008f4:	f443 4340 	orr.w	r3, r3, #49152	; 0xc000
 80008f8:	6193      	str	r3, [r2, #24]
 80008fa:	4b31      	ldr	r3, [pc, #196]	; (80009c0 <SystemClock_Config+0xfc>)
 80008fc:	699b      	ldr	r3, [r3, #24]
 80008fe:	f403 4340 	and.w	r3, r3, #49152	; 0xc000
 8000902:	603b      	str	r3, [r7, #0]
 8000904:	4b2f      	ldr	r3, [pc, #188]	; (80009c4 <SystemClock_Config+0x100>)
 8000906:	6adb      	ldr	r3, [r3, #44]	; 0x2c
 8000908:	4a2e      	ldr	r2, [pc, #184]	; (80009c4 <SystemClock_Config+0x100>)
 800090a:	f043 0301 	orr.w	r3, r3, #1
 800090e:	62d3      	str	r3, [r2, #44]	; 0x2c
 8000910:	4b2c      	ldr	r3, [pc, #176]	; (80009c4 <SystemClock_Config+0x100>)
 8000912:	6adb      	ldr	r3, [r3, #44]	; 0x2c
 8000914:	f003 0301 	and.w	r3, r3, #1
 8000918:	603b      	str	r3, [r7, #0]
 800091a:	683b      	ldr	r3, [r7, #0]

  while(!__HAL_PWR_GET_FLAG(PWR_FLAG_VOSRDY)) {}
 800091c:	bf00      	nop
 800091e:	4b28      	ldr	r3, [pc, #160]	; (80009c0 <SystemClock_Config+0xfc>)
 8000920:	699b      	ldr	r3, [r3, #24]
 8000922:	f403 5300 	and.w	r3, r3, #8192	; 0x2000
 8000926:	f5b3 5f00 	cmp.w	r3, #8192	; 0x2000
 800092a:	d1f8      	bne.n	800091e <SystemClock_Config+0x5a>

  /** Macro to configure the PLL clock source
  */
  __HAL_RCC_PLL_PLLSOURCE_CONFIG(RCC_PLLSOURCE_HSE);
 800092c:	4b26      	ldr	r3, [pc, #152]	; (80009c8 <SystemClock_Config+0x104>)
 800092e:	6a9b      	ldr	r3, [r3, #40]	; 0x28
 8000930:	f023 0303 	bic.w	r3, r3, #3
 8000934:	4a24      	ldr	r2, [pc, #144]	; (80009c8 <SystemClock_Config+0x104>)
 8000936:	f043 0302 	orr.w	r3, r3, #2
 800093a:	6293      	str	r3, [r2, #40]	; 0x28

  /** Initializes the RCC Oscillators according to the specified parameters
  * in the RCC_OscInitTypeDef structure.
  */
  RCC_OscInitStruct.OscillatorType = RCC_OSCILLATORTYPE_HSE;
 800093c:	2301      	movs	r3, #1
 800093e:	627b      	str	r3, [r7, #36]	; 0x24
  RCC_OscInitStruct.HSEState = RCC_HSE_ON;
 8000940:	f44f 3380 	mov.w	r3, #65536	; 0x10000
 8000944:	62bb      	str	r3, [r7, #40]	; 0x28
  RCC_OscInitStruct.PLL.PLLState = RCC_PLL_ON;
 8000946:	2302      	movs	r3, #2
 8000948:	64bb      	str	r3, [r7, #72]	; 0x48
  RCC_OscInitStruct.PLL.PLLSource = RCC_PLLSOURCE_HSE;
 800094a:	2302      	movs	r3, #2
 800094c:	64fb      	str	r3, [r7, #76]	; 0x4c
  RCC_OscInitStruct.PLL.PLLM = 1;
 800094e:	2301      	movs	r3, #1
 8000950:	653b      	str	r3, [r7, #80]	; 0x50
  RCC_OscInitStruct.PLL.PLLN = 120;
 8000952:	2378      	movs	r3, #120	; 0x78
 8000954:	657b      	str	r3, [r7, #84]	; 0x54
  RCC_OscInitStruct.PLL.PLLP = 2;
 8000956:	2302      	movs	r3, #2
 8000958:	65bb      	str	r3, [r7, #88]	; 0x58
  RCC_OscInitStruct.PLL.PLLQ = 2;
 800095a:	2302      	movs	r3, #2
 800095c:	65fb      	str	r3, [r7, #92]	; 0x5c
  RCC_OscInitStruct.PLL.PLLR = 2;
 800095e:	2302      	movs	r3, #2
 8000960:	663b      	str	r3, [r7, #96]	; 0x60
  RCC_OscInitStruct.PLL.PLLRGE = RCC_PLL1VCIRANGE_3;
 8000962:	230c      	movs	r3, #12
 8000964:	667b      	str	r3, [r7, #100]	; 0x64
  RCC_OscInitStruct.PLL.PLLVCOSEL = RCC_PLL1VCOWIDE;
 8000966:	2300      	movs	r3, #0
 8000968:	66bb      	str	r3, [r7, #104]	; 0x68
  RCC_OscInitStruct.PLL.PLLFRACN = 0;
 800096a:	2300      	movs	r3, #0
 800096c:	66fb      	str	r3, [r7, #108]	; 0x6c
  if (HAL_RCC_OscConfig(&RCC_OscInitStruct) != HAL_OK)
 800096e:	f107 0324 	add.w	r3, r7, #36	; 0x24
 8000972:	4618      	mov	r0, r3
 8000974:	f002 f9c2 	bl	8002cfc <HAL_RCC_OscConfig>
 8000978:	4603      	mov	r3, r0
 800097a:	2b00      	cmp	r3, #0
 800097c:	d001      	beq.n	8000982 <SystemClock_Config+0xbe>
  {
    Error_Handler();
 800097e:	f000 f909 	bl	8000b94 <Error_Handler>
  }

  /** Initializes the CPU, AHB and APB buses clocks
  */
  RCC_ClkInitStruct.ClockType = RCC_CLOCKTYPE_HCLK|RCC_CLOCKTYPE_SYSCLK
 8000982:	233f      	movs	r3, #63	; 0x3f
 8000984:	607b      	str	r3, [r7, #4]
                              |RCC_CLOCKTYPE_PCLK1|RCC_CLOCKTYPE_PCLK2
                              |RCC_CLOCKTYPE_D3PCLK1|RCC_CLOCKTYPE_D1PCLK1;
  RCC_ClkInitStruct.SYSCLKSource = RCC_SYSCLKSOURCE_PLLCLK;
 8000986:	2303      	movs	r3, #3
 8000988:	60bb      	str	r3, [r7, #8]
  RCC_ClkInitStruct.SYSCLKDivider = RCC_SYSCLK_DIV1;
 800098a:	2300      	movs	r3, #0
 800098c:	60fb      	str	r3, [r7, #12]
  RCC_ClkInitStruct.AHBCLKDivider = RCC_HCLK_DIV2;
 800098e:	2308      	movs	r3, #8
 8000990:	613b      	str	r3, [r7, #16]
  RCC_ClkInitStruct.APB3CLKDivider = RCC_APB3_DIV2;
 8000992:	2340      	movs	r3, #64	; 0x40
 8000994:	617b      	str	r3, [r7, #20]
  RCC_ClkInitStruct.APB1CLKDivider = RCC_APB1_DIV2;
 8000996:	2340      	movs	r3, #64	; 0x40
 8000998:	61bb      	str	r3, [r7, #24]
  RCC_ClkInitStruct.APB2CLKDivider = RCC_APB2_DIV2;
 800099a:	f44f 6380 	mov.w	r3, #1024	; 0x400
 800099e:	61fb      	str	r3, [r7, #28]
  RCC_ClkInitStruct.APB4CLKDivider = RCC_APB4_DIV2;
 80009a0:	2340      	movs	r3, #64	; 0x40
 80009a2:	623b      	str	r3, [r7, #32]

  if (HAL_RCC_ClockConfig(&RCC_ClkInitStruct, FLASH_LATENCY_4) != HAL_OK)
 80009a4:	1d3b      	adds	r3, r7, #4
 80009a6:	2104      	movs	r1, #4
 80009a8:	4618      	mov	r0, r3
 80009aa:	f002 fdd5 	bl	8003558 <HAL_RCC_ClockConfig>
 80009ae:	4603      	mov	r3, r0
 80009b0:	2b00      	cmp	r3, #0
 80009b2:	d001      	beq.n	80009b8 <SystemClock_Config+0xf4>
  {
    Error_Handler();
 80009b4:	f000 f8ee 	bl	8000b94 <Error_Handler>
  }
}
 80009b8:	bf00      	nop
 80009ba:	3770      	adds	r7, #112	; 0x70
 80009bc:	46bd      	mov	sp, r7
 80009be:	bd80      	pop	{r7, pc}
 80009c0:	58024800 	.word	0x58024800
 80009c4:	58000400 	.word	0x58000400
 80009c8:	58024400 	.word	0x58024400

080009cc <MX_USART3_UART_Init>:
  * @brief USART3 Initialization Function
  * @param None
  * @retval None
  */
static void MX_USART3_UART_Init(void)
{
 80009cc:	b580      	push	{r7, lr}
 80009ce:	af00      	add	r7, sp, #0
  /* USER CODE END USART3_Init 0 */

  /* USER CODE BEGIN USART3_Init 1 */

  /* USER CODE END USART3_Init 1 */
  huart3.Instance = USART3;
 80009d0:	4b22      	ldr	r3, [pc, #136]	; (8000a5c <MX_USART3_UART_Init+0x90>)
 80009d2:	4a23      	ldr	r2, [pc, #140]	; (8000a60 <MX_USART3_UART_Init+0x94>)
 80009d4:	601a      	str	r2, [r3, #0]
  huart3.Init.BaudRate = 115200;
 80009d6:	4b21      	ldr	r3, [pc, #132]	; (8000a5c <MX_USART3_UART_Init+0x90>)
 80009d8:	f44f 32e1 	mov.w	r2, #115200	; 0x1c200
 80009dc:	605a      	str	r2, [r3, #4]
  huart3.Init.WordLength = UART_WORDLENGTH_8B;
 80009de:	4b1f      	ldr	r3, [pc, #124]	; (8000a5c <MX_USART3_UART_Init+0x90>)
 80009e0:	2200      	movs	r2, #0
 80009e2:	609a      	str	r2, [r3, #8]
  huart3.Init.StopBits = UART_STOPBITS_1;
 80009e4:	4b1d      	ldr	r3, [pc, #116]	; (8000a5c <MX_USART3_UART_Init+0x90>)
 80009e6:	2200      	movs	r2, #0
 80009e8:	60da      	str	r2, [r3, #12]
  huart3.Init.Parity = UART_PARITY_NONE;
 80009ea:	4b1c      	ldr	r3, [pc, #112]	; (8000a5c <MX_USART3_UART_Init+0x90>)
 80009ec:	2200      	movs	r2, #0
 80009ee:	611a      	str	r2, [r3, #16]
  huart3.Init.Mode = UART_MODE_TX_RX;
 80009f0:	4b1a      	ldr	r3, [pc, #104]	; (8000a5c <MX_USART3_UART_Init+0x90>)
 80009f2:	220c      	movs	r2, #12
 80009f4:	615a      	str	r2, [r3, #20]
  huart3.Init.HwFlowCtl = UART_HWCONTROL_NONE;
 80009f6:	4b19      	ldr	r3, [pc, #100]	; (8000a5c <MX_USART3_UART_Init+0x90>)
 80009f8:	2200      	movs	r2, #0
 80009fa:	619a      	str	r2, [r3, #24]
  huart3.Init.OverSampling = UART_OVERSAMPLING_16;
 80009fc:	4b17      	ldr	r3, [pc, #92]	; (8000a5c <MX_USART3_UART_Init+0x90>)
 80009fe:	2200      	movs	r2, #0
 8000a00:	61da      	str	r2, [r3, #28]
  huart3.Init.OneBitSampling = UART_ONE_BIT_SAMPLE_DISABLE;
 8000a02:	4b16      	ldr	r3, [pc, #88]	; (8000a5c <MX_USART3_UART_Init+0x90>)
 8000a04:	2200      	movs	r2, #0
 8000a06:	621a      	str	r2, [r3, #32]
  huart3.Init.ClockPrescaler = UART_PRESCALER_DIV1;
 8000a08:	4b14      	ldr	r3, [pc, #80]	; (8000a5c <MX_USART3_UART_Init+0x90>)
 8000a0a:	2200      	movs	r2, #0
 8000a0c:	625a      	str	r2, [r3, #36]	; 0x24
  huart3.AdvancedInit.AdvFeatureInit = UART_ADVFEATURE_NO_INIT;
 8000a0e:	4b13      	ldr	r3, [pc, #76]	; (8000a5c <MX_USART3_UART_Init+0x90>)
 8000a10:	2200      	movs	r2, #0
 8000a12:	629a      	str	r2, [r3, #40]	; 0x28
  if (HAL_UART_Init(&huart3) != HAL_OK)
 8000a14:	4811      	ldr	r0, [pc, #68]	; (8000a5c <MX_USART3_UART_Init+0x90>)
 8000a16:	f004 fc93 	bl	8005340 <HAL_UART_Init>
 8000a1a:	4603      	mov	r3, r0
 8000a1c:	2b00      	cmp	r3, #0
 8000a1e:	d001      	beq.n	8000a24 <MX_USART3_UART_Init+0x58>
  {
    Error_Handler();
 8000a20:	f000 f8b8 	bl	8000b94 <Error_Handler>
  }
  if (HAL_UARTEx_SetTxFifoThreshold(&huart3, UART_TXFIFO_THRESHOLD_1_8) != HAL_OK)
 8000a24:	2100      	movs	r1, #0
 8000a26:	480d      	ldr	r0, [pc, #52]	; (8000a5c <MX_USART3_UART_Init+0x90>)
 8000a28:	f005 fcc6 	bl	80063b8 <HAL_UARTEx_SetTxFifoThreshold>
 8000a2c:	4603      	mov	r3, r0
 8000a2e:	2b00      	cmp	r3, #0
 8000a30:	d001      	beq.n	8000a36 <MX_USART3_UART_Init+0x6a>
  {
    Error_Handler();
 8000a32:	f000 f8af 	bl	8000b94 <Error_Handler>
  }
  if (HAL_UARTEx_SetRxFifoThreshold(&huart3, UART_RXFIFO_THRESHOLD_1_8) != HAL_OK)
 8000a36:	2100      	movs	r1, #0
 8000a38:	4808      	ldr	r0, [pc, #32]	; (8000a5c <MX_USART3_UART_Init+0x90>)
 8000a3a:	f005 fcfb 	bl	8006434 <HAL_UARTEx_SetRxFifoThreshold>
 8000a3e:	4603      	mov	r3, r0
 8000a40:	2b00      	cmp	r3, #0
 8000a42:	d001      	beq.n	8000a48 <MX_USART3_UART_Init+0x7c>
  {
    Error_Handler();
 8000a44:	f000 f8a6 	bl	8000b94 <Error_Handler>
  }
  if (HAL_UARTEx_DisableFifoMode(&huart3) != HAL_OK)
 8000a48:	4804      	ldr	r0, [pc, #16]	; (8000a5c <MX_USART3_UART_Init+0x90>)
 8000a4a:	f005 fc7c 	bl	8006346 <HAL_UARTEx_DisableFifoMode>
 8000a4e:	4603      	mov	r3, r0
 8000a50:	2b00      	cmp	r3, #0
 8000a52:	d001      	beq.n	8000a58 <MX_USART3_UART_Init+0x8c>
  {
    Error_Handler();
 8000a54:	f000 f89e 	bl	8000b94 <Error_Handler>
  }
  /* USER CODE BEGIN USART3_Init 2 */

  /* USER CODE END USART3_Init 2 */

}
 8000a58:	bf00      	nop
 8000a5a:	bd80      	pop	{r7, pc}
 8000a5c:	24000180 	.word	0x24000180
 8000a60:	40004800 	.word	0x40004800

08000a64 <MX_GPIO_Init>:
  * @brief GPIO Initialization Function
  * @param None
  * @retval None
  */
static void MX_GPIO_Init(void)
{
 8000a64:	b580      	push	{r7, lr}
 8000a66:	b08a      	sub	sp, #40	; 0x28
 8000a68:	af00      	add	r7, sp, #0
  GPIO_InitTypeDef GPIO_InitStruct = {0};
 8000a6a:	f107 0314 	add.w	r3, r7, #20
 8000a6e:	2200      	movs	r2, #0
 8000a70:	601a      	str	r2, [r3, #0]
 8000a72:	605a      	str	r2, [r3, #4]
 8000a74:	609a      	str	r2, [r3, #8]
 8000a76:	60da      	str	r2, [r3, #12]
 8000a78:	611a      	str	r2, [r3, #16]

  /* GPIO Ports Clock Enable */
  __HAL_RCC_GPIOH_CLK_ENABLE();
 8000a7a:	4b3a      	ldr	r3, [pc, #232]	; (8000b64 <MX_GPIO_Init+0x100>)
 8000a7c:	f8d3 30e0 	ldr.w	r3, [r3, #224]	; 0xe0
 8000a80:	4a38      	ldr	r2, [pc, #224]	; (8000b64 <MX_GPIO_Init+0x100>)
 8000a82:	f043 0380 	orr.w	r3, r3, #128	; 0x80
 8000a86:	f8c2 30e0 	str.w	r3, [r2, #224]	; 0xe0
 8000a8a:	4b36      	ldr	r3, [pc, #216]	; (8000b64 <MX_GPIO_Init+0x100>)
 8000a8c:	f8d3 30e0 	ldr.w	r3, [r3, #224]	; 0xe0
 8000a90:	f003 0380 	and.w	r3, r3, #128	; 0x80
 8000a94:	613b      	str	r3, [r7, #16]
 8000a96:	693b      	ldr	r3, [r7, #16]
  __HAL_RCC_GPIOB_CLK_ENABLE();
 8000a98:	4b32      	ldr	r3, [pc, #200]	; (8000b64 <MX_GPIO_Init+0x100>)
 8000a9a:	f8d3 30e0 	ldr.w	r3, [r3, #224]	; 0xe0
 8000a9e:	4a31      	ldr	r2, [pc, #196]	; (8000b64 <MX_GPIO_Init+0x100>)
 8000aa0:	f043 0302 	orr.w	r3, r3, #2
 8000aa4:	f8c2 30e0 	str.w	r3, [r2, #224]	; 0xe0
 8000aa8:	4b2e      	ldr	r3, [pc, #184]	; (8000b64 <MX_GPIO_Init+0x100>)
 8000aaa:	f8d3 30e0 	ldr.w	r3, [r3, #224]	; 0xe0
 8000aae:	f003 0302 	and.w	r3, r3, #2
 8000ab2:	60fb      	str	r3, [r7, #12]
 8000ab4:	68fb      	ldr	r3, [r7, #12]
  __HAL_RCC_GPIOD_CLK_ENABLE();
 8000ab6:	4b2b      	ldr	r3, [pc, #172]	; (8000b64 <MX_GPIO_Init+0x100>)
 8000ab8:	f8d3 30e0 	ldr.w	r3, [r3, #224]	; 0xe0
 8000abc:	4a29      	ldr	r2, [pc, #164]	; (8000b64 <MX_GPIO_Init+0x100>)
 8000abe:	f043 0308 	orr.w	r3, r3, #8
 8000ac2:	f8c2 30e0 	str.w	r3, [r2, #224]	; 0xe0
 8000ac6:	4b27      	ldr	r3, [pc, #156]	; (8000b64 <MX_GPIO_Init+0x100>)
 8000ac8:	f8d3 30e0 	ldr.w	r3, [r3, #224]	; 0xe0
 8000acc:	f003 0308 	and.w	r3, r3, #8
 8000ad0:	60bb      	str	r3, [r7, #8]
 8000ad2:	68bb      	ldr	r3, [r7, #8]
  __HAL_RCC_GPIOA_CLK_ENABLE();
 8000ad4:	4b23      	ldr	r3, [pc, #140]	; (8000b64 <MX_GPIO_Init+0x100>)
 8000ad6:	f8d3 30e0 	ldr.w	r3, [r3, #224]	; 0xe0
 8000ada:	4a22      	ldr	r2, [pc, #136]	; (8000b64 <MX_GPIO_Init+0x100>)
 8000adc:	f043 0301 	orr.w	r3, r3, #1
 8000ae0:	f8c2 30e0 	str.w	r3, [r2, #224]	; 0xe0
 8000ae4:	4b1f      	ldr	r3, [pc, #124]	; (8000b64 <MX_GPIO_Init+0x100>)
 8000ae6:	f8d3 30e0 	ldr.w	r3, [r3, #224]	; 0xe0
 8000aea:	f003 0301 	and.w	r3, r3, #1
 8000aee:	607b      	str	r3, [r7, #4]
 8000af0:	687b      	ldr	r3, [r7, #4]
  __HAL_RCC_GPIOE_CLK_ENABLE();
 8000af2:	4b1c      	ldr	r3, [pc, #112]	; (8000b64 <MX_GPIO_Init+0x100>)
 8000af4:	f8d3 30e0 	ldr.w	r3, [r3, #224]	; 0xe0
 8000af8:	4a1a      	ldr	r2, [pc, #104]	; (8000b64 <MX_GPIO_Init+0x100>)
 8000afa:	f043 0310 	orr.w	r3, r3, #16
 8000afe:	f8c2 30e0 	str.w	r3, [r2, #224]	; 0xe0
 8000b02:	4b18      	ldr	r3, [pc, #96]	; (8000b64 <MX_GPIO_Init+0x100>)
 8000b04:	f8d3 30e0 	ldr.w	r3, [r3, #224]	; 0xe0
 8000b08:	f003 0310 	and.w	r3, r3, #16
 8000b0c:	603b      	str	r3, [r7, #0]
 8000b0e:	683b      	ldr	r3, [r7, #0]

  /*Configure GPIO pin Output Level */
  HAL_GPIO_WritePin(GPIOB, GPIO_PIN_0, GPIO_PIN_RESET);
 8000b10:	2200      	movs	r2, #0
 8000b12:	2101      	movs	r1, #1
 8000b14:	4814      	ldr	r0, [pc, #80]	; (8000b68 <MX_GPIO_Init+0x104>)
 8000b16:	f000 fd69 	bl	80015ec <HAL_GPIO_WritePin>

  /*Configure GPIO pin Output Level */
  HAL_GPIO_WritePin(GPIOE, GPIO_PIN_1, GPIO_PIN_RESET);
 8000b1a:	2200      	movs	r2, #0
 8000b1c:	2102      	movs	r1, #2
 8000b1e:	4813      	ldr	r0, [pc, #76]	; (8000b6c <MX_GPIO_Init+0x108>)
 8000b20:	f000 fd64 	bl	80015ec <HAL_GPIO_WritePin>

  /*Configure GPIO pin : PB0 */
  GPIO_InitStruct.Pin = GPIO_PIN_0;
 8000b24:	2301      	movs	r3, #1
 8000b26:	617b      	str	r3, [r7, #20]
  GPIO_InitStruct.Mode = GPIO_MODE_OUTPUT_PP;
 8000b28:	2301      	movs	r3, #1
 8000b2a:	61bb      	str	r3, [r7, #24]
  GPIO_InitStruct.Pull = GPIO_NOPULL;
 8000b2c:	2300      	movs	r3, #0
 8000b2e:	61fb      	str	r3, [r7, #28]
  GPIO_InitStruct.Speed = GPIO_SPEED_FREQ_LOW;
 8000b30:	2300      	movs	r3, #0
 8000b32:	623b      	str	r3, [r7, #32]
  HAL_GPIO_Init(GPIOB, &GPIO_InitStruct);
 8000b34:	f107 0314 	add.w	r3, r7, #20
 8000b38:	4619      	mov	r1, r3
 8000b3a:	480b      	ldr	r0, [pc, #44]	; (8000b68 <MX_GPIO_Init+0x104>)
 8000b3c:	f000 fba6 	bl	800128c <HAL_GPIO_Init>

  /*Configure GPIO pin : PE1 */
  GPIO_InitStruct.Pin = GPIO_PIN_1;
 8000b40:	2302      	movs	r3, #2
 8000b42:	617b      	str	r3, [r7, #20]
  GPIO_InitStruct.Mode = GPIO_MODE_OUTPUT_PP;
 8000b44:	2301      	movs	r3, #1
 8000b46:	61bb      	str	r3, [r7, #24]
  GPIO_InitStruct.Pull = GPIO_NOPULL;
 8000b48:	2300      	movs	r3, #0
 8000b4a:	61fb      	str	r3, [r7, #28]
  GPIO_InitStruct.Speed = GPIO_SPEED_FREQ_LOW;
 8000b4c:	2300      	movs	r3, #0
 8000b4e:	623b      	str	r3, [r7, #32]
  HAL_GPIO_Init(GPIOE, &GPIO_InitStruct);
 8000b50:	f107 0314 	add.w	r3, r7, #20
 8000b54:	4619      	mov	r1, r3
 8000b56:	4805      	ldr	r0, [pc, #20]	; (8000b6c <MX_GPIO_Init+0x108>)
 8000b58:	f000 fb98 	bl	800128c <HAL_GPIO_Init>

}
 8000b5c:	bf00      	nop
 8000b5e:	3728      	adds	r7, #40	; 0x28
 8000b60:	46bd      	mov	sp, r7
 8000b62:	bd80      	pop	{r7, pc}
 8000b64:	58024400 	.word	0x58024400
 8000b68:	58020400 	.word	0x58020400
 8000b6c:	58021000 	.word	0x58021000

08000b70 <__io_putchar>:

/* USER CODE BEGIN 4 */
PUTCHAR_PROTOTYPE
{
 8000b70:	b580      	push	{r7, lr}
 8000b72:	b082      	sub	sp, #8
 8000b74:	af00      	add	r7, sp, #0
 8000b76:	6078      	str	r0, [r7, #4]
  /* Place your implementation of fputc here */
  /* e.g. write a character to the EVAL_COM1 and Loop until the end of transmission */
  HAL_UART_Transmit(&huart3, (uint8_t *)&ch, 1, 0xFFFF);
 8000b78:	1d39      	adds	r1, r7, #4
 8000b7a:	f64f 73ff 	movw	r3, #65535	; 0xffff
 8000b7e:	2201      	movs	r2, #1
 8000b80:	4803      	ldr	r0, [pc, #12]	; (8000b90 <__io_putchar+0x20>)
 8000b82:	f004 fc2d 	bl	80053e0 <HAL_UART_Transmit>

  return ch;
 8000b86:	687b      	ldr	r3, [r7, #4]
}
 8000b88:	4618      	mov	r0, r3
 8000b8a:	3708      	adds	r7, #8
 8000b8c:	46bd      	mov	sp, r7
 8000b8e:	bd80      	pop	{r7, pc}
 8000b90:	24000180 	.word	0x24000180

08000b94 <Error_Handler>:
/**
  * @brief  This function is executed in case of error occurrence.
  * @retval None
  */
void Error_Handler(void)
{
 8000b94:	b480      	push	{r7}
 8000b96:	af00      	add	r7, sp, #0
  \details Disables IRQ interrupts by setting the I-bit in the CPSR.
           Can only be executed in Privileged modes.
 */
__STATIC_FORCEINLINE void __disable_irq(void)
{
  __ASM volatile ("cpsid i" : : : "memory");
 8000b98:	b672      	cpsid	i
}
 8000b9a:	bf00      	nop
  /* USER CODE BEGIN Error_Handler_Debug */
  /* User can add his own implementation to report the HAL error return state */
  __disable_irq();
  while (1)
 8000b9c:	e7fe      	b.n	8000b9c <Error_Handler+0x8>
	...

08000ba0 <HAL_MspInit>:
/* USER CODE END 0 */
/**
  * Initializes the Global MSP.
  */
void HAL_MspInit(void)
{
 8000ba0:	b480      	push	{r7}
 8000ba2:	b083      	sub	sp, #12
 8000ba4:	af00      	add	r7, sp, #0
  /* USER CODE BEGIN MspInit 0 */

  /* USER CODE END MspInit 0 */

  __HAL_RCC_SYSCFG_CLK_ENABLE();
 8000ba6:	4b0a      	ldr	r3, [pc, #40]	; (8000bd0 <HAL_MspInit+0x30>)
 8000ba8:	f8d3 30f4 	ldr.w	r3, [r3, #244]	; 0xf4
 8000bac:	4a08      	ldr	r2, [pc, #32]	; (8000bd0 <HAL_MspInit+0x30>)
 8000bae:	f043 0302 	orr.w	r3, r3, #2
 8000bb2:	f8c2 30f4 	str.w	r3, [r2, #244]	; 0xf4
 8000bb6:	4b06      	ldr	r3, [pc, #24]	; (8000bd0 <HAL_MspInit+0x30>)
 8000bb8:	f8d3 30f4 	ldr.w	r3, [r3, #244]	; 0xf4
 8000bbc:	f003 0302 	and.w	r3, r3, #2
 8000bc0:	607b      	str	r3, [r7, #4]
 8000bc2:	687b      	ldr	r3, [r7, #4]
  /* System interrupt init*/

  /* USER CODE BEGIN MspInit 1 */

  /* USER CODE END MspInit 1 */
}
 8000bc4:	bf00      	nop
 8000bc6:	370c      	adds	r7, #12
 8000bc8:	46bd      	mov	sp, r7
 8000bca:	f85d 7b04 	ldr.w	r7, [sp], #4
 8000bce:	4770      	bx	lr
 8000bd0:	58024400 	.word	0x58024400

08000bd4 <HAL_UART_MspInit>:
* This function configures the hardware resources used in this example
* @param huart: UART handle pointer
* @retval None
*/
void HAL_UART_MspInit(UART_HandleTypeDef* huart)
{
 8000bd4:	b580      	push	{r7, lr}
 8000bd6:	b0b8      	sub	sp, #224	; 0xe0
 8000bd8:	af00      	add	r7, sp, #0
 8000bda:	6078      	str	r0, [r7, #4]
  GPIO_InitTypeDef GPIO_InitStruct = {0};
 8000bdc:	f107 03cc 	add.w	r3, r7, #204	; 0xcc
 8000be0:	2200      	movs	r2, #0
 8000be2:	601a      	str	r2, [r3, #0]
 8000be4:	605a      	str	r2, [r3, #4]
 8000be6:	609a      	str	r2, [r3, #8]
 8000be8:	60da      	str	r2, [r3, #12]
 8000bea:	611a      	str	r2, [r3, #16]
  RCC_PeriphCLKInitTypeDef PeriphClkInitStruct = {0};
 8000bec:	f107 0310 	add.w	r3, r7, #16
 8000bf0:	22bc      	movs	r2, #188	; 0xbc
 8000bf2:	2100      	movs	r1, #0
 8000bf4:	4618      	mov	r0, r3
 8000bf6:	f009 ff23 	bl	800aa40 <memset>
  if(huart->Instance==USART3)
 8000bfa:	687b      	ldr	r3, [r7, #4]
 8000bfc:	681b      	ldr	r3, [r3, #0]
 8000bfe:	4a25      	ldr	r2, [pc, #148]	; (8000c94 <HAL_UART_MspInit+0xc0>)
 8000c00:	4293      	cmp	r3, r2
 8000c02:	d142      	bne.n	8000c8a <HAL_UART_MspInit+0xb6>

  /* USER CODE END USART3_MspInit 0 */

  /** Initializes the peripherals clock
  */
    PeriphClkInitStruct.PeriphClockSelection = RCC_PERIPHCLK_USART3;
 8000c04:	2302      	movs	r3, #2
 8000c06:	613b      	str	r3, [r7, #16]
    PeriphClkInitStruct.Usart234578ClockSelection = RCC_USART234578CLKSOURCE_D2PCLK1;
 8000c08:	2300      	movs	r3, #0
 8000c0a:	f8c7 3084 	str.w	r3, [r7, #132]	; 0x84
    if (HAL_RCCEx_PeriphCLKConfig(&PeriphClkInitStruct) != HAL_OK)
 8000c0e:	f107 0310 	add.w	r3, r7, #16
 8000c12:	4618      	mov	r0, r3
 8000c14:	f003 f82c 	bl	8003c70 <HAL_RCCEx_PeriphCLKConfig>
 8000c18:	4603      	mov	r3, r0
 8000c1a:	2b00      	cmp	r3, #0
 8000c1c:	d001      	beq.n	8000c22 <HAL_UART_MspInit+0x4e>
    {
      Error_Handler();
 8000c1e:	f7ff ffb9 	bl	8000b94 <Error_Handler>
    }

    /* Peripheral clock enable */
    __HAL_RCC_USART3_CLK_ENABLE();
 8000c22:	4b1d      	ldr	r3, [pc, #116]	; (8000c98 <HAL_UART_MspInit+0xc4>)
 8000c24:	f8d3 30e8 	ldr.w	r3, [r3, #232]	; 0xe8
 8000c28:	4a1b      	ldr	r2, [pc, #108]	; (8000c98 <HAL_UART_MspInit+0xc4>)
 8000c2a:	f443 2380 	orr.w	r3, r3, #262144	; 0x40000
 8000c2e:	f8c2 30e8 	str.w	r3, [r2, #232]	; 0xe8
 8000c32:	4b19      	ldr	r3, [pc, #100]	; (8000c98 <HAL_UART_MspInit+0xc4>)
 8000c34:	f8d3 30e8 	ldr.w	r3, [r3, #232]	; 0xe8
 8000c38:	f403 2380 	and.w	r3, r3, #262144	; 0x40000
 8000c3c:	60fb      	str	r3, [r7, #12]
 8000c3e:	68fb      	ldr	r3, [r7, #12]

    __HAL_RCC_GPIOD_CLK_ENABLE();
 8000c40:	4b15      	ldr	r3, [pc, #84]	; (8000c98 <HAL_UART_MspInit+0xc4>)
 8000c42:	f8d3 30e0 	ldr.w	r3, [r3, #224]	; 0xe0
 8000c46:	4a14      	ldr	r2, [pc, #80]	; (8000c98 <HAL_UART_MspInit+0xc4>)
 8000c48:	f043 0308 	orr.w	r3, r3, #8
 8000c4c:	f8c2 30e0 	str.w	r3, [r2, #224]	; 0xe0
 8000c50:	4b11      	ldr	r3, [pc, #68]	; (8000c98 <HAL_UART_MspInit+0xc4>)
 8000c52:	f8d3 30e0 	ldr.w	r3, [r3, #224]	; 0xe0
 8000c56:	f003 0308 	and.w	r3, r3, #8
 8000c5a:	60bb      	str	r3, [r7, #8]
 8000c5c:	68bb      	ldr	r3, [r7, #8]
    /**USART3 GPIO Configuration
    PD8     ------> USART3_TX
    PD9     ------> USART3_RX
    */
    GPIO_InitStruct.Pin = GPIO_PIN_8|GPIO_PIN_9;
 8000c5e:	f44f 7340 	mov.w	r3, #768	; 0x300
 8000c62:	f8c7 30cc 	str.w	r3, [r7, #204]	; 0xcc
    GPIO_InitStruct.Mode = GPIO_MODE_AF_PP;
 8000c66:	2302      	movs	r3, #2
 8000c68:	f8c7 30d0 	str.w	r3, [r7, #208]	; 0xd0
    GPIO_InitStruct.Pull = GPIO_NOPULL;
 8000c6c:	2300      	movs	r3, #0
 8000c6e:	f8c7 30d4 	str.w	r3, [r7, #212]	; 0xd4
    GPIO_InitStruct.Speed = GPIO_SPEED_FREQ_LOW;
 8000c72:	2300      	movs	r3, #0
 8000c74:	f8c7 30d8 	str.w	r3, [r7, #216]	; 0xd8
    GPIO_InitStruct.Alternate = GPIO_AF7_USART3;
 8000c78:	2307      	movs	r3, #7
 8000c7a:	f8c7 30dc 	str.w	r3, [r7, #220]	; 0xdc
    HAL_GPIO_Init(GPIOD, &GPIO_InitStruct);
 8000c7e:	f107 03cc 	add.w	r3, r7, #204	; 0xcc
 8000c82:	4619      	mov	r1, r3
 8000c84:	4805      	ldr	r0, [pc, #20]	; (8000c9c <HAL_UART_MspInit+0xc8>)
 8000c86:	f000 fb01 	bl	800128c <HAL_GPIO_Init>
  /* USER CODE BEGIN USART3_MspInit 1 */

  /* USER CODE END USART3_MspInit 1 */
  }

}
 8000c8a:	bf00      	nop
 8000c8c:	37e0      	adds	r7, #224	; 0xe0
 8000c8e:	46bd      	mov	sp, r7
 8000c90:	bd80      	pop	{r7, pc}
 8000c92:	bf00      	nop
 8000c94:	40004800 	.word	0x40004800
 8000c98:	58024400 	.word	0x58024400
 8000c9c:	58020c00 	.word	0x58020c00

08000ca0 <NMI_Handler>:
/******************************************************************************/
/**
  * @brief This function handles Non maskable interrupt.
  */
void NMI_Handler(void)
{
 8000ca0:	b480      	push	{r7}
 8000ca2:	af00      	add	r7, sp, #0
  /* USER CODE BEGIN NonMaskableInt_IRQn 0 */

  /* USER CODE END NonMaskableInt_IRQn 0 */
  /* USER CODE BEGIN NonMaskableInt_IRQn 1 */
  while (1)
 8000ca4:	e7fe      	b.n	8000ca4 <NMI_Handler+0x4>

08000ca6 <HardFault_Handler>:

/**
  * @brief This function handles Hard fault interrupt.
  */
void HardFault_Handler(void)
{
 8000ca6:	b480      	push	{r7}
 8000ca8:	af00      	add	r7, sp, #0
  /* USER CODE BEGIN HardFault_IRQn 0 */

  /* USER CODE END HardFault_IRQn 0 */
  while (1)
 8000caa:	e7fe      	b.n	8000caa <HardFault_Handler+0x4>

08000cac <MemManage_Handler>:

/**
  * @brief This function handles Memory management fault.
  */
void MemManage_Handler(void)
{
 8000cac:	b480      	push	{r7}
 8000cae:	af00      	add	r7, sp, #0
  /* USER CODE BEGIN MemoryManagement_IRQn 0 */

  /* USER CODE END MemoryManagement_IRQn 0 */
  while (1)
 8000cb0:	e7fe      	b.n	8000cb0 <MemManage_Handler+0x4>

08000cb2 <BusFault_Handler>:

/**
  * @brief This function handles Pre-fetch fault, memory access fault.
  */
void BusFault_Handler(void)
{
 8000cb2:	b480      	push	{r7}
 8000cb4:	af00      	add	r7, sp, #0
  /* USER CODE BEGIN BusFault_IRQn 0 */

  /* USER CODE END BusFault_IRQn 0 */
  while (1)
 8000cb6:	e7fe      	b.n	8000cb6 <BusFault_Handler+0x4>

08000cb8 <UsageFault_Handler>:

/**
  * @brief This function handles Undefined instruction or illegal state.
  */
void UsageFault_Handler(void)
{
 8000cb8:	b480      	push	{r7}
 8000cba:	af00      	add	r7, sp, #0
  /* USER CODE BEGIN UsageFault_IRQn 0 */

  /* USER CODE END UsageFault_IRQn 0 */
  while (1)
 8000cbc:	e7fe      	b.n	8000cbc <UsageFault_Handler+0x4>

08000cbe <SVC_Handler>:

/**
  * @brief This function handles System service call via SWI instruction.
  */
void SVC_Handler(void)
{
 8000cbe:	b480      	push	{r7}
 8000cc0:	af00      	add	r7, sp, #0

  /* USER CODE END SVCall_IRQn 0 */
  /* USER CODE BEGIN SVCall_IRQn 1 */

  /* USER CODE END SVCall_IRQn 1 */
}
 8000cc2:	bf00      	nop
 8000cc4:	46bd      	mov	sp, r7
 8000cc6:	f85d 7b04 	ldr.w	r7, [sp], #4
 8000cca:	4770      	bx	lr

08000ccc <DebugMon_Handler>:

/**
  * @brief This function handles Debug monitor.
  */
void DebugMon_Handler(void)
{
 8000ccc:	b480      	push	{r7}
 8000cce:	af00      	add	r7, sp, #0

  /* USER CODE END DebugMonitor_IRQn 0 */
  /* USER CODE BEGIN DebugMonitor_IRQn 1 */

  /* USER CODE END DebugMonitor_IRQn 1 */
}
 8000cd0:	bf00      	nop
 8000cd2:	46bd      	mov	sp, r7
 8000cd4:	f85d 7b04 	ldr.w	r7, [sp], #4
 8000cd8:	4770      	bx	lr

08000cda <PendSV_Handler>:

/**
  * @brief This function handles Pendable request for system service.
  */
void PendSV_Handler(void)
{
 8000cda:	b480      	push	{r7}
 8000cdc:	af00      	add	r7, sp, #0

  /* USER CODE END PendSV_IRQn 0 */
  /* USER CODE BEGIN PendSV_IRQn 1 */

  /* USER CODE END PendSV_IRQn 1 */
}
 8000cde:	bf00      	nop
 8000ce0:	46bd      	mov	sp, r7
 8000ce2:	f85d 7b04 	ldr.w	r7, [sp], #4
 8000ce6:	4770      	bx	lr

08000ce8 <SysTick_Handler>:

/**
  * @brief This function handles System tick timer.
  */
void SysTick_Handler(void)
{
 8000ce8:	b580      	push	{r7, lr}
 8000cea:	af00      	add	r7, sp, #0
  /* USER CODE BEGIN SysTick_IRQn 0 */

  /* USER CODE END SysTick_IRQn 0 */
  HAL_IncTick();
 8000cec:	f000 f96e 	bl	8000fcc <HAL_IncTick>
  /* USER CODE BEGIN SysTick_IRQn 1 */

  /* USER CODE END SysTick_IRQn 1 */
}
 8000cf0:	bf00      	nop
 8000cf2:	bd80      	pop	{r7, pc}

08000cf4 <OTG_FS_IRQHandler>:

/**
  * @brief This function handles USB On The Go FS global interrupt.
  */
void OTG_FS_IRQHandler(void)
{
 8000cf4:	b580      	push	{r7, lr}
 8000cf6:	af00      	add	r7, sp, #0
  /* USER CODE BEGIN OTG_FS_IRQn 0 */

  /* USER CODE END OTG_FS_IRQn 0 */
  HAL_PCD_IRQHandler(&hpcd_USB_OTG_FS);
 8000cf8:	4802      	ldr	r0, [pc, #8]	; (8000d04 <OTG_FS_IRQHandler+0x10>)
 8000cfa:	f000 fe16 	bl	800192a <HAL_PCD_IRQHandler>
  /* USER CODE BEGIN OTG_FS_IRQn 1 */

  /* USER CODE END OTG_FS_IRQn 1 */
}
 8000cfe:	bf00      	nop
 8000d00:	bd80      	pop	{r7, pc}
 8000d02:	bf00      	nop
 8000d04:	24001744 	.word	0x24001744

08000d08 <_getpid>:
void initialise_monitor_handles()
{
}

int _getpid(void)
{
 8000d08:	b480      	push	{r7}
 8000d0a:	af00      	add	r7, sp, #0
	return 1;
 8000d0c:	2301      	movs	r3, #1
}
 8000d0e:	4618      	mov	r0, r3
 8000d10:	46bd      	mov	sp, r7
 8000d12:	f85d 7b04 	ldr.w	r7, [sp], #4
 8000d16:	4770      	bx	lr

08000d18 <_kill>:

int _kill(int pid, int sig)
{
 8000d18:	b580      	push	{r7, lr}
 8000d1a:	b082      	sub	sp, #8
 8000d1c:	af00      	add	r7, sp, #0
 8000d1e:	6078      	str	r0, [r7, #4]
 8000d20:	6039      	str	r1, [r7, #0]
	errno = EINVAL;
 8000d22:	f009 fe55 	bl	800a9d0 <__errno>
 8000d26:	4603      	mov	r3, r0
 8000d28:	2216      	movs	r2, #22
 8000d2a:	601a      	str	r2, [r3, #0]
	return -1;
 8000d2c:	f04f 33ff 	mov.w	r3, #4294967295
}
 8000d30:	4618      	mov	r0, r3
 8000d32:	3708      	adds	r7, #8
 8000d34:	46bd      	mov	sp, r7
 8000d36:	bd80      	pop	{r7, pc}

08000d38 <_exit>:

void _exit (int status)
{
 8000d38:	b580      	push	{r7, lr}
 8000d3a:	b082      	sub	sp, #8
 8000d3c:	af00      	add	r7, sp, #0
 8000d3e:	6078      	str	r0, [r7, #4]
	_kill(status, -1);
 8000d40:	f04f 31ff 	mov.w	r1, #4294967295
 8000d44:	6878      	ldr	r0, [r7, #4]
 8000d46:	f7ff ffe7 	bl	8000d18 <_kill>
	while (1) {}		/* Make sure we hang here */
 8000d4a:	e7fe      	b.n	8000d4a <_exit+0x12>

08000d4c <_read>:
}

__attribute__((weak)) int _read(int file, char *ptr, int len)
{
 8000d4c:	b580      	push	{r7, lr}
 8000d4e:	b086      	sub	sp, #24
 8000d50:	af00      	add	r7, sp, #0
 8000d52:	60f8      	str	r0, [r7, #12]
 8000d54:	60b9      	str	r1, [r7, #8]
 8000d56:	607a      	str	r2, [r7, #4]
	int DataIdx;

	for (DataIdx = 0; DataIdx < len; DataIdx++)
 8000d58:	2300      	movs	r3, #0
 8000d5a:	617b      	str	r3, [r7, #20]
 8000d5c:	e00a      	b.n	8000d74 <_read+0x28>
	{
		*ptr++ = __io_getchar();
 8000d5e:	f3af 8000 	nop.w
 8000d62:	4601      	mov	r1, r0
 8000d64:	68bb      	ldr	r3, [r7, #8]
 8000d66:	1c5a      	adds	r2, r3, #1
 8000d68:	60ba      	str	r2, [r7, #8]
 8000d6a:	b2ca      	uxtb	r2, r1
 8000d6c:	701a      	strb	r2, [r3, #0]
	for (DataIdx = 0; DataIdx < len; DataIdx++)
 8000d6e:	697b      	ldr	r3, [r7, #20]
 8000d70:	3301      	adds	r3, #1
 8000d72:	617b      	str	r3, [r7, #20]
 8000d74:	697a      	ldr	r2, [r7, #20]
 8000d76:	687b      	ldr	r3, [r7, #4]
 8000d78:	429a      	cmp	r2, r3
 8000d7a:	dbf0      	blt.n	8000d5e <_read+0x12>
	}

return len;
 8000d7c:	687b      	ldr	r3, [r7, #4]
}
 8000d7e:	4618      	mov	r0, r3
 8000d80:	3718      	adds	r7, #24
 8000d82:	46bd      	mov	sp, r7
 8000d84:	bd80      	pop	{r7, pc}

08000d86 <_write>:

__attribute__((weak)) int _write(int file, char *ptr, int len)
{
 8000d86:	b580      	push	{r7, lr}
 8000d88:	b086      	sub	sp, #24
 8000d8a:	af00      	add	r7, sp, #0
 8000d8c:	60f8      	str	r0, [r7, #12]
 8000d8e:	60b9      	str	r1, [r7, #8]
 8000d90:	607a      	str	r2, [r7, #4]
	int DataIdx;

	for (DataIdx = 0; DataIdx < len; DataIdx++)
 8000d92:	2300      	movs	r3, #0
 8000d94:	617b      	str	r3, [r7, #20]
 8000d96:	e009      	b.n	8000dac <_write+0x26>
	{
		__io_putchar(*ptr++);
 8000d98:	68bb      	ldr	r3, [r7, #8]
 8000d9a:	1c5a      	adds	r2, r3, #1
 8000d9c:	60ba      	str	r2, [r7, #8]
 8000d9e:	781b      	ldrb	r3, [r3, #0]
 8000da0:	4618      	mov	r0, r3
 8000da2:	f7ff fee5 	bl	8000b70 <__io_putchar>
	for (DataIdx = 0; DataIdx < len; DataIdx++)
 8000da6:	697b      	ldr	r3, [r7, #20]
 8000da8:	3301      	adds	r3, #1
 8000daa:	617b      	str	r3, [r7, #20]
 8000dac:	697a      	ldr	r2, [r7, #20]
 8000dae:	687b      	ldr	r3, [r7, #4]
 8000db0:	429a      	cmp	r2, r3
 8000db2:	dbf1      	blt.n	8000d98 <_write+0x12>
	}
	return len;
 8000db4:	687b      	ldr	r3, [r7, #4]
}
 8000db6:	4618      	mov	r0, r3
 8000db8:	3718      	adds	r7, #24
 8000dba:	46bd      	mov	sp, r7
 8000dbc:	bd80      	pop	{r7, pc}

08000dbe <_close>:

int _close(int file)
{
 8000dbe:	b480      	push	{r7}
 8000dc0:	b083      	sub	sp, #12
 8000dc2:	af00      	add	r7, sp, #0
 8000dc4:	6078      	str	r0, [r7, #4]
	return -1;
 8000dc6:	f04f 33ff 	mov.w	r3, #4294967295
}
 8000dca:	4618      	mov	r0, r3
 8000dcc:	370c      	adds	r7, #12
 8000dce:	46bd      	mov	sp, r7
 8000dd0:	f85d 7b04 	ldr.w	r7, [sp], #4
 8000dd4:	4770      	bx	lr

08000dd6 <_fstat>:


int _fstat(int file, struct stat *st)
{
 8000dd6:	b480      	push	{r7}
 8000dd8:	b083      	sub	sp, #12
 8000dda:	af00      	add	r7, sp, #0
 8000ddc:	6078      	str	r0, [r7, #4]
 8000dde:	6039      	str	r1, [r7, #0]
	st->st_mode = S_IFCHR;
 8000de0:	683b      	ldr	r3, [r7, #0]
 8000de2:	f44f 5200 	mov.w	r2, #8192	; 0x2000
 8000de6:	605a      	str	r2, [r3, #4]
	return 0;
 8000de8:	2300      	movs	r3, #0
}
 8000dea:	4618      	mov	r0, r3
 8000dec:	370c      	adds	r7, #12
 8000dee:	46bd      	mov	sp, r7
 8000df0:	f85d 7b04 	ldr.w	r7, [sp], #4
 8000df4:	4770      	bx	lr

08000df6 <_isatty>:

int _isatty(int file)
{
 8000df6:	b480      	push	{r7}
 8000df8:	b083      	sub	sp, #12
 8000dfa:	af00      	add	r7, sp, #0
 8000dfc:	6078      	str	r0, [r7, #4]
	return 1;
 8000dfe:	2301      	movs	r3, #1
}
 8000e00:	4618      	mov	r0, r3
 8000e02:	370c      	adds	r7, #12
 8000e04:	46bd      	mov	sp, r7
 8000e06:	f85d 7b04 	ldr.w	r7, [sp], #4
 8000e0a:	4770      	bx	lr

08000e0c <_lseek>:

int _lseek(int file, int ptr, int dir)
{
 8000e0c:	b480      	push	{r7}
 8000e0e:	b085      	sub	sp, #20
 8000e10:	af00      	add	r7, sp, #0
 8000e12:	60f8      	str	r0, [r7, #12]
 8000e14:	60b9      	str	r1, [r7, #8]
 8000e16:	607a      	str	r2, [r7, #4]
	return 0;
 8000e18:	2300      	movs	r3, #0
}
 8000e1a:	4618      	mov	r0, r3
 8000e1c:	3714      	adds	r7, #20
 8000e1e:	46bd      	mov	sp, r7
 8000e20:	f85d 7b04 	ldr.w	r7, [sp], #4
 8000e24:	4770      	bx	lr
	...

08000e28 <_sbrk>:
 *
 * @param incr Memory size
 * @return Pointer to allocated memory
 */
void *_sbrk(ptrdiff_t incr)
{
 8000e28:	b580      	push	{r7, lr}
 8000e2a:	b086      	sub	sp, #24
 8000e2c:	af00      	add	r7, sp, #0
 8000e2e:	6078      	str	r0, [r7, #4]
  extern uint8_t _end; /* Symbol defined in the linker script */
  extern uint8_t _estack; /* Symbol defined in the linker script */
  extern uint32_t _Min_Stack_Size; /* Symbol defined in the linker script */
  const uint32_t stack_limit = (uint32_t)&_estack - (uint32_t)&_Min_Stack_Size;
 8000e30:	4a14      	ldr	r2, [pc, #80]	; (8000e84 <_sbrk+0x5c>)
 8000e32:	4b15      	ldr	r3, [pc, #84]	; (8000e88 <_sbrk+0x60>)
 8000e34:	1ad3      	subs	r3, r2, r3
 8000e36:	617b      	str	r3, [r7, #20]
  const uint8_t *max_heap = (uint8_t *)stack_limit;
 8000e38:	697b      	ldr	r3, [r7, #20]
 8000e3a:	613b      	str	r3, [r7, #16]
  uint8_t *prev_heap_end;

  /* Initialize heap end at first call */
  if (NULL == __sbrk_heap_end)
 8000e3c:	4b13      	ldr	r3, [pc, #76]	; (8000e8c <_sbrk+0x64>)
 8000e3e:	681b      	ldr	r3, [r3, #0]
 8000e40:	2b00      	cmp	r3, #0
 8000e42:	d102      	bne.n	8000e4a <_sbrk+0x22>
  {
    __sbrk_heap_end = &_end;
 8000e44:	4b11      	ldr	r3, [pc, #68]	; (8000e8c <_sbrk+0x64>)
 8000e46:	4a12      	ldr	r2, [pc, #72]	; (8000e90 <_sbrk+0x68>)
 8000e48:	601a      	str	r2, [r3, #0]
  }

  /* Protect heap from growing into the reserved MSP stack */
  if (__sbrk_heap_end + incr > max_heap)
 8000e4a:	4b10      	ldr	r3, [pc, #64]	; (8000e8c <_sbrk+0x64>)
 8000e4c:	681a      	ldr	r2, [r3, #0]
 8000e4e:	687b      	ldr	r3, [r7, #4]
 8000e50:	4413      	add	r3, r2
 8000e52:	693a      	ldr	r2, [r7, #16]
 8000e54:	429a      	cmp	r2, r3
 8000e56:	d207      	bcs.n	8000e68 <_sbrk+0x40>
  {
    errno = ENOMEM;
 8000e58:	f009 fdba 	bl	800a9d0 <__errno>
 8000e5c:	4603      	mov	r3, r0
 8000e5e:	220c      	movs	r2, #12
 8000e60:	601a      	str	r2, [r3, #0]
    return (void *)-1;
 8000e62:	f04f 33ff 	mov.w	r3, #4294967295
 8000e66:	e009      	b.n	8000e7c <_sbrk+0x54>
  }

  prev_heap_end = __sbrk_heap_end;
 8000e68:	4b08      	ldr	r3, [pc, #32]	; (8000e8c <_sbrk+0x64>)
 8000e6a:	681b      	ldr	r3, [r3, #0]
 8000e6c:	60fb      	str	r3, [r7, #12]
  __sbrk_heap_end += incr;
 8000e6e:	4b07      	ldr	r3, [pc, #28]	; (8000e8c <_sbrk+0x64>)
 8000e70:	681a      	ldr	r2, [r3, #0]
 8000e72:	687b      	ldr	r3, [r7, #4]
 8000e74:	4413      	add	r3, r2
 8000e76:	4a05      	ldr	r2, [pc, #20]	; (8000e8c <_sbrk+0x64>)
 8000e78:	6013      	str	r3, [r2, #0]

  return (void *)prev_heap_end;
 8000e7a:	68fb      	ldr	r3, [r7, #12]
}
 8000e7c:	4618      	mov	r0, r3
 8000e7e:	3718      	adds	r7, #24
 8000e80:	46bd      	mov	sp, r7
 8000e82:	bd80      	pop	{r7, pc}
 8000e84:	24080000 	.word	0x24080000
 8000e88:	00000400 	.word	0x00000400
 8000e8c:	24000254 	.word	0x24000254
 8000e90:	24001e80 	.word	0x24001e80

08000e94 <Reset_Handler>:

    .section  .text.Reset_Handler
  .weak  Reset_Handler
  .type  Reset_Handler, %function
Reset_Handler:
  ldr   sp, =_estack      /* set stack pointer */
 8000e94:	f8df d034 	ldr.w	sp, [pc, #52]	; 8000ecc <LoopFillZerobss+0xe>

/* Call the clock system initialization function.*/
  bl  SystemInit
 8000e98:	f7ff fc0c 	bl	80006b4 <SystemInit>

/* Copy the data segment initializers from flash to SRAM */
  ldr r0, =_sdata
 8000e9c:	480c      	ldr	r0, [pc, #48]	; (8000ed0 <LoopFillZerobss+0x12>)
  ldr r1, =_edata
 8000e9e:	490d      	ldr	r1, [pc, #52]	; (8000ed4 <LoopFillZerobss+0x16>)
  ldr r2, =_sidata
 8000ea0:	4a0d      	ldr	r2, [pc, #52]	; (8000ed8 <LoopFillZerobss+0x1a>)
  movs r3, #0
 8000ea2:	2300      	movs	r3, #0
  b LoopCopyDataInit
 8000ea4:	e002      	b.n	8000eac <LoopCopyDataInit>

08000ea6 <CopyDataInit>:

CopyDataInit:
  ldr r4, [r2, r3]
 8000ea6:	58d4      	ldr	r4, [r2, r3]
  str r4, [r0, r3]
 8000ea8:	50c4      	str	r4, [r0, r3]
  adds r3, r3, #4
 8000eaa:	3304      	adds	r3, #4

08000eac <LoopCopyDataInit>:

LoopCopyDataInit:
  adds r4, r0, r3
 8000eac:	18c4      	adds	r4, r0, r3
  cmp r4, r1
 8000eae:	428c      	cmp	r4, r1
  bcc CopyDataInit
 8000eb0:	d3f9      	bcc.n	8000ea6 <CopyDataInit>
/* Zero fill the bss segment. */
  ldr r2, =_sbss
 8000eb2:	4a0a      	ldr	r2, [pc, #40]	; (8000edc <LoopFillZerobss+0x1e>)
  ldr r4, =_ebss
 8000eb4:	4c0a      	ldr	r4, [pc, #40]	; (8000ee0 <LoopFillZerobss+0x22>)
  movs r3, #0
 8000eb6:	2300      	movs	r3, #0
  b LoopFillZerobss
 8000eb8:	e001      	b.n	8000ebe <LoopFillZerobss>

08000eba <FillZerobss>:

FillZerobss:
  str  r3, [r2]
 8000eba:	6013      	str	r3, [r2, #0]
  adds r2, r2, #4
 8000ebc:	3204      	adds	r2, #4

08000ebe <LoopFillZerobss>:

LoopFillZerobss:
  cmp r2, r4
 8000ebe:	42a2      	cmp	r2, r4
  bcc FillZerobss
 8000ec0:	d3fb      	bcc.n	8000eba <FillZerobss>

/* Call static constructors */
    bl __libc_init_array
 8000ec2:	f009 fd8b 	bl	800a9dc <__libc_init_array>
/* Call the application's entry point.*/
  bl  main
 8000ec6:	f7ff fc8b 	bl	80007e0 <main>
  bx  lr
 8000eca:	4770      	bx	lr
  ldr   sp, =_estack      /* set stack pointer */
 8000ecc:	24080000 	.word	0x24080000
  ldr r0, =_sdata
 8000ed0:	24000000 	.word	0x24000000
  ldr r1, =_edata
 8000ed4:	24000164 	.word	0x24000164
  ldr r2, =_sidata
 8000ed8:	0800bf58 	.word	0x0800bf58
  ldr r2, =_sbss
 8000edc:	24000164 	.word	0x24000164
  ldr r4, =_ebss
 8000ee0:	24001e80 	.word	0x24001e80

08000ee4 <ADC3_IRQHandler>:
 * @retval None
*/
    .section  .text.Default_Handler,"ax",%progbits
Default_Handler:
Infinite_Loop:
  b  Infinite_Loop
 8000ee4:	e7fe      	b.n	8000ee4 <ADC3_IRQHandler>
	...

08000ee8 <HAL_Init>:
  *         need to ensure that the SysTick time base is always set to 1 millisecond
  *         to have correct HAL operation.
  * @retval HAL status
  */
HAL_StatusTypeDef HAL_Init(void)
{
 8000ee8:	b580      	push	{r7, lr}
 8000eea:	b082      	sub	sp, #8
 8000eec:	af00      	add	r7, sp, #0
   __HAL_ART_CONFIG_BASE_ADDRESS(0x08100000UL);  /* Configure the Cortex-M4 ART Base address to the Flash Bank 2 : */
   __HAL_ART_ENABLE();                           /* Enable the Cortex-M4 ART */
#endif /* DUAL_CORE &&  CORE_CM4 */

  /* Set Interrupt Group Priority */
  HAL_NVIC_SetPriorityGrouping(NVIC_PRIORITYGROUP_4);
 8000eee:	2003      	movs	r0, #3
 8000ef0:	f000 f98c 	bl	800120c <HAL_NVIC_SetPriorityGrouping>

  /* Update the SystemCoreClock global variable */
#if defined(RCC_D1CFGR_D1CPRE)
  common_system_clock = HAL_RCC_GetSysClockFreq() >> ((D1CorePrescTable[(RCC->D1CFGR & RCC_D1CFGR_D1CPRE)>> RCC_D1CFGR_D1CPRE_Pos]) & 0x1FU);
 8000ef4:	f002 fce6 	bl	80038c4 <HAL_RCC_GetSysClockFreq>
 8000ef8:	4602      	mov	r2, r0
 8000efa:	4b15      	ldr	r3, [pc, #84]	; (8000f50 <HAL_Init+0x68>)
 8000efc:	699b      	ldr	r3, [r3, #24]
 8000efe:	0a1b      	lsrs	r3, r3, #8
 8000f00:	f003 030f 	and.w	r3, r3, #15
 8000f04:	4913      	ldr	r1, [pc, #76]	; (8000f54 <HAL_Init+0x6c>)
 8000f06:	5ccb      	ldrb	r3, [r1, r3]
 8000f08:	f003 031f 	and.w	r3, r3, #31
 8000f0c:	fa22 f303 	lsr.w	r3, r2, r3
 8000f10:	607b      	str	r3, [r7, #4]
  common_system_clock = HAL_RCC_GetSysClockFreq() >> ((D1CorePrescTable[(RCC->CDCFGR1 & RCC_CDCFGR1_CDCPRE)>> RCC_CDCFGR1_CDCPRE_Pos]) & 0x1FU);
#endif

  /* Update the SystemD2Clock global variable */
#if defined(RCC_D1CFGR_HPRE)
  SystemD2Clock = (common_system_clock >> ((D1CorePrescTable[(RCC->D1CFGR & RCC_D1CFGR_HPRE)>> RCC_D1CFGR_HPRE_Pos]) & 0x1FU));
 8000f12:	4b0f      	ldr	r3, [pc, #60]	; (8000f50 <HAL_Init+0x68>)
 8000f14:	699b      	ldr	r3, [r3, #24]
 8000f16:	f003 030f 	and.w	r3, r3, #15
 8000f1a:	4a0e      	ldr	r2, [pc, #56]	; (8000f54 <HAL_Init+0x6c>)
 8000f1c:	5cd3      	ldrb	r3, [r2, r3]
 8000f1e:	f003 031f 	and.w	r3, r3, #31
 8000f22:	687a      	ldr	r2, [r7, #4]
 8000f24:	fa22 f303 	lsr.w	r3, r2, r3
 8000f28:	4a0b      	ldr	r2, [pc, #44]	; (8000f58 <HAL_Init+0x70>)
 8000f2a:	6013      	str	r3, [r2, #0]
#endif

#if defined(DUAL_CORE) && defined(CORE_CM4)
  SystemCoreClock = SystemD2Clock;
#else
  SystemCoreClock = common_system_clock;
 8000f2c:	4a0b      	ldr	r2, [pc, #44]	; (8000f5c <HAL_Init+0x74>)
 8000f2e:	687b      	ldr	r3, [r7, #4]
 8000f30:	6013      	str	r3, [r2, #0]
#endif /* DUAL_CORE && CORE_CM4 */

  /* Use systick as time base source and configure 1ms tick (default clock after Reset is HSI) */
  if(HAL_InitTick(TICK_INT_PRIORITY) != HAL_OK)
 8000f32:	2000      	movs	r0, #0
 8000f34:	f000 f814 	bl	8000f60 <HAL_InitTick>
 8000f38:	4603      	mov	r3, r0
 8000f3a:	2b00      	cmp	r3, #0
 8000f3c:	d001      	beq.n	8000f42 <HAL_Init+0x5a>
  {
    return HAL_ERROR;
 8000f3e:	2301      	movs	r3, #1
 8000f40:	e002      	b.n	8000f48 <HAL_Init+0x60>
  }

  /* Init the low level hardware */
  HAL_MspInit();
 8000f42:	f7ff fe2d 	bl	8000ba0 <HAL_MspInit>

  /* Return function status */
  return HAL_OK;
 8000f46:	2300      	movs	r3, #0
}
 8000f48:	4618      	mov	r0, r3
 8000f4a:	3708      	adds	r7, #8
 8000f4c:	46bd      	mov	sp, r7
 8000f4e:	bd80      	pop	{r7, pc}
 8000f50:	58024400 	.word	0x58024400
 8000f54:	0800bcc8 	.word	0x0800bcc8
 8000f58:	24000004 	.word	0x24000004
 8000f5c:	24000000 	.word	0x24000000

08000f60 <HAL_InitTick>:
  *       implementation  in user file.
  * @param TickPriority: Tick interrupt priority.
  * @retval HAL status
  */
__weak HAL_StatusTypeDef HAL_InitTick(uint32_t TickPriority)
{
 8000f60:	b580      	push	{r7, lr}
 8000f62:	b082      	sub	sp, #8
 8000f64:	af00      	add	r7, sp, #0
 8000f66:	6078      	str	r0, [r7, #4]
  /* Check uwTickFreq for MisraC 2012 (even if uwTickFreq is a enum type that don't take the value zero)*/
  if((uint32_t)uwTickFreq == 0UL)
 8000f68:	4b15      	ldr	r3, [pc, #84]	; (8000fc0 <HAL_InitTick+0x60>)
 8000f6a:	781b      	ldrb	r3, [r3, #0]
 8000f6c:	2b00      	cmp	r3, #0
 8000f6e:	d101      	bne.n	8000f74 <HAL_InitTick+0x14>
  {
    return HAL_ERROR;
 8000f70:	2301      	movs	r3, #1
 8000f72:	e021      	b.n	8000fb8 <HAL_InitTick+0x58>
  }

    /* Configure the SysTick to have interrupt in 1ms time basis*/
    if (HAL_SYSTICK_Config(SystemCoreClock / (1000UL / (uint32_t)uwTickFreq)) > 0U)
 8000f74:	4b13      	ldr	r3, [pc, #76]	; (8000fc4 <HAL_InitTick+0x64>)
 8000f76:	681a      	ldr	r2, [r3, #0]
 8000f78:	4b11      	ldr	r3, [pc, #68]	; (8000fc0 <HAL_InitTick+0x60>)
 8000f7a:	781b      	ldrb	r3, [r3, #0]
 8000f7c:	4619      	mov	r1, r3
 8000f7e:	f44f 737a 	mov.w	r3, #1000	; 0x3e8
 8000f82:	fbb3 f3f1 	udiv	r3, r3, r1
 8000f86:	fbb2 f3f3 	udiv	r3, r2, r3
 8000f8a:	4618      	mov	r0, r3
 8000f8c:	f000 f971 	bl	8001272 <HAL_SYSTICK_Config>
 8000f90:	4603      	mov	r3, r0
 8000f92:	2b00      	cmp	r3, #0
 8000f94:	d001      	beq.n	8000f9a <HAL_InitTick+0x3a>
    {
      return HAL_ERROR;
 8000f96:	2301      	movs	r3, #1
 8000f98:	e00e      	b.n	8000fb8 <HAL_InitTick+0x58>
    }

  /* Configure the SysTick IRQ priority */
  if (TickPriority < (1UL << __NVIC_PRIO_BITS))
 8000f9a:	687b      	ldr	r3, [r7, #4]
 8000f9c:	2b0f      	cmp	r3, #15
 8000f9e:	d80a      	bhi.n	8000fb6 <HAL_InitTick+0x56>
  {
    HAL_NVIC_SetPriority(SysTick_IRQn, TickPriority, 0U);
 8000fa0:	2200      	movs	r2, #0
 8000fa2:	6879      	ldr	r1, [r7, #4]
 8000fa4:	f04f 30ff 	mov.w	r0, #4294967295
 8000fa8:	f000 f93b 	bl	8001222 <HAL_NVIC_SetPriority>
    uwTickPrio = TickPriority;
 8000fac:	4a06      	ldr	r2, [pc, #24]	; (8000fc8 <HAL_InitTick+0x68>)
 8000fae:	687b      	ldr	r3, [r7, #4]
 8000fb0:	6013      	str	r3, [r2, #0]
  {
    return HAL_ERROR;
  }

  /* Return function status */
  return HAL_OK;
 8000fb2:	2300      	movs	r3, #0
 8000fb4:	e000      	b.n	8000fb8 <HAL_InitTick+0x58>
    return HAL_ERROR;
 8000fb6:	2301      	movs	r3, #1
}
 8000fb8:	4618      	mov	r0, r3
 8000fba:	3708      	adds	r7, #8
 8000fbc:	46bd      	mov	sp, r7
 8000fbe:	bd80      	pop	{r7, pc}
 8000fc0:	2400000c 	.word	0x2400000c
 8000fc4:	24000000 	.word	0x24000000
 8000fc8:	24000008 	.word	0x24000008

08000fcc <HAL_IncTick>:
 * @note This function is declared as __weak to be overwritten in case of other
  *      implementations in user file.
  * @retval None
  */
__weak void HAL_IncTick(void)
{
 8000fcc:	b480      	push	{r7}
 8000fce:	af00      	add	r7, sp, #0
  uwTick += (uint32_t)uwTickFreq;
 8000fd0:	4b06      	ldr	r3, [pc, #24]	; (8000fec <HAL_IncTick+0x20>)
 8000fd2:	781b      	ldrb	r3, [r3, #0]
 8000fd4:	461a      	mov	r2, r3
 8000fd6:	4b06      	ldr	r3, [pc, #24]	; (8000ff0 <HAL_IncTick+0x24>)
 8000fd8:	681b      	ldr	r3, [r3, #0]
 8000fda:	4413      	add	r3, r2
 8000fdc:	4a04      	ldr	r2, [pc, #16]	; (8000ff0 <HAL_IncTick+0x24>)
 8000fde:	6013      	str	r3, [r2, #0]
}
 8000fe0:	bf00      	nop
 8000fe2:	46bd      	mov	sp, r7
 8000fe4:	f85d 7b04 	ldr.w	r7, [sp], #4
 8000fe8:	4770      	bx	lr
 8000fea:	bf00      	nop
 8000fec:	2400000c 	.word	0x2400000c
 8000ff0:	24000258 	.word	0x24000258

08000ff4 <HAL_GetTick>:
  * @note This function is declared as __weak to be overwritten in case of other
  *       implementations in user file.
  * @retval tick value
  */
__weak uint32_t HAL_GetTick(void)
{
 8000ff4:	b480      	push	{r7}
 8000ff6:	af00      	add	r7, sp, #0
  return uwTick;
 8000ff8:	4b03      	ldr	r3, [pc, #12]	; (8001008 <HAL_GetTick+0x14>)
 8000ffa:	681b      	ldr	r3, [r3, #0]
}
 8000ffc:	4618      	mov	r0, r3
 8000ffe:	46bd      	mov	sp, r7
 8001000:	f85d 7b04 	ldr.w	r7, [sp], #4
 8001004:	4770      	bx	lr
 8001006:	bf00      	nop
 8001008:	24000258 	.word	0x24000258

0800100c <HAL_Delay>:
  *       implementations in user file.
  * @param Delay  specifies the delay time length, in milliseconds.
  * @retval None
  */
__weak void HAL_Delay(uint32_t Delay)
{
 800100c:	b580      	push	{r7, lr}
 800100e:	b084      	sub	sp, #16
 8001010:	af00      	add	r7, sp, #0
 8001012:	6078      	str	r0, [r7, #4]
  uint32_t tickstart = HAL_GetTick();
 8001014:	f7ff ffee 	bl	8000ff4 <HAL_GetTick>
 8001018:	60b8      	str	r0, [r7, #8]
  uint32_t wait = Delay;
 800101a:	687b      	ldr	r3, [r7, #4]
 800101c:	60fb      	str	r3, [r7, #12]

  /* Add a freq to guarantee minimum wait */
  if (wait < HAL_MAX_DELAY)
 800101e:	68fb      	ldr	r3, [r7, #12]
 8001020:	f1b3 3fff 	cmp.w	r3, #4294967295
 8001024:	d005      	beq.n	8001032 <HAL_Delay+0x26>
  {
    wait += (uint32_t)(uwTickFreq);
 8001026:	4b0a      	ldr	r3, [pc, #40]	; (8001050 <HAL_Delay+0x44>)
 8001028:	781b      	ldrb	r3, [r3, #0]
 800102a:	461a      	mov	r2, r3
 800102c:	68fb      	ldr	r3, [r7, #12]
 800102e:	4413      	add	r3, r2
 8001030:	60fb      	str	r3, [r7, #12]
  }

  while ((HAL_GetTick() - tickstart) < wait)
 8001032:	bf00      	nop
 8001034:	f7ff ffde 	bl	8000ff4 <HAL_GetTick>
 8001038:	4602      	mov	r2, r0
 800103a:	68bb      	ldr	r3, [r7, #8]
 800103c:	1ad3      	subs	r3, r2, r3
 800103e:	68fa      	ldr	r2, [r7, #12]
 8001040:	429a      	cmp	r2, r3
 8001042:	d8f7      	bhi.n	8001034 <HAL_Delay+0x28>
  {
  }
}
 8001044:	bf00      	nop
 8001046:	bf00      	nop
 8001048:	3710      	adds	r7, #16
 800104a:	46bd      	mov	sp, r7
 800104c:	bd80      	pop	{r7, pc}
 800104e:	bf00      	nop
 8001050:	2400000c 	.word	0x2400000c

08001054 <HAL_GetREVID>:
/**
  * @brief  Returns the device revision identifier.
  * @retval Device revision identifier
  */
uint32_t HAL_GetREVID(void)
{
 8001054:	b480      	push	{r7}
 8001056:	af00      	add	r7, sp, #0
   return((DBGMCU->IDCODE) >> 16);
 8001058:	4b03      	ldr	r3, [pc, #12]	; (8001068 <HAL_GetREVID+0x14>)
 800105a:	681b      	ldr	r3, [r3, #0]
 800105c:	0c1b      	lsrs	r3, r3, #16
}
 800105e:	4618      	mov	r0, r3
 8001060:	46bd      	mov	sp, r7
 8001062:	f85d 7b04 	ldr.w	r7, [sp], #4
 8001066:	4770      	bx	lr
 8001068:	5c001000 	.word	0x5c001000

0800106c <__NVIC_SetPriorityGrouping>:
           In case of a conflict between priority grouping and available
           priority bits (__NVIC_PRIO_BITS), the smallest possible priority group is set.
  \param [in]      PriorityGroup  Priority grouping field.
 */
__STATIC_INLINE void __NVIC_SetPriorityGrouping(uint32_t PriorityGroup)
{
 800106c:	b480      	push	{r7}
 800106e:	b085      	sub	sp, #20
 8001070:	af00      	add	r7, sp, #0
 8001072:	6078      	str	r0, [r7, #4]
  uint32_t reg_value;
  uint32_t PriorityGroupTmp = (PriorityGroup & (uint32_t)0x07UL);             /* only values 0..7 are used          */
 8001074:	687b      	ldr	r3, [r7, #4]
 8001076:	f003 0307 	and.w	r3, r3, #7
 800107a:	60fb      	str	r3, [r7, #12]

  reg_value  =  SCB->AIRCR;                                                   /* read old register configuration    */
 800107c:	4b0b      	ldr	r3, [pc, #44]	; (80010ac <__NVIC_SetPriorityGrouping+0x40>)
 800107e:	68db      	ldr	r3, [r3, #12]
 8001080:	60bb      	str	r3, [r7, #8]
  reg_value &= ~((uint32_t)(SCB_AIRCR_VECTKEY_Msk | SCB_AIRCR_PRIGROUP_Msk)); /* clear bits to change               */
 8001082:	68ba      	ldr	r2, [r7, #8]
 8001084:	f64f 03ff 	movw	r3, #63743	; 0xf8ff
 8001088:	4013      	ands	r3, r2
 800108a:	60bb      	str	r3, [r7, #8]
  reg_value  =  (reg_value                                   |
                ((uint32_t)0x5FAUL << SCB_AIRCR_VECTKEY_Pos) |
                (PriorityGroupTmp << SCB_AIRCR_PRIGROUP_Pos)  );              /* Insert write key and priority group */
 800108c:	68fb      	ldr	r3, [r7, #12]
 800108e:	021a      	lsls	r2, r3, #8
                ((uint32_t)0x5FAUL << SCB_AIRCR_VECTKEY_Pos) |
 8001090:	68bb      	ldr	r3, [r7, #8]
 8001092:	431a      	orrs	r2, r3
  reg_value  =  (reg_value                                   |
 8001094:	4b06      	ldr	r3, [pc, #24]	; (80010b0 <__NVIC_SetPriorityGrouping+0x44>)
 8001096:	4313      	orrs	r3, r2
 8001098:	60bb      	str	r3, [r7, #8]
  SCB->AIRCR =  reg_value;
 800109a:	4a04      	ldr	r2, [pc, #16]	; (80010ac <__NVIC_SetPriorityGrouping+0x40>)
 800109c:	68bb      	ldr	r3, [r7, #8]
 800109e:	60d3      	str	r3, [r2, #12]
}
 80010a0:	bf00      	nop
 80010a2:	3714      	adds	r7, #20
 80010a4:	46bd      	mov	sp, r7
 80010a6:	f85d 7b04 	ldr.w	r7, [sp], #4
 80010aa:	4770      	bx	lr
 80010ac:	e000ed00 	.word	0xe000ed00
 80010b0:	05fa0000 	.word	0x05fa0000

080010b4 <__NVIC_GetPriorityGrouping>:
  \brief   Get Priority Grouping
  \details Reads the priority grouping field from the NVIC Interrupt Controller.
  \return                Priority grouping field (SCB->AIRCR [10:8] PRIGROUP field).
 */
__STATIC_INLINE uint32_t __NVIC_GetPriorityGrouping(void)
{
 80010b4:	b480      	push	{r7}
 80010b6:	af00      	add	r7, sp, #0
  return ((uint32_t)((SCB->AIRCR & SCB_AIRCR_PRIGROUP_Msk) >> SCB_AIRCR_PRIGROUP_Pos));
 80010b8:	4b04      	ldr	r3, [pc, #16]	; (80010cc <__NVIC_GetPriorityGrouping+0x18>)
 80010ba:	68db      	ldr	r3, [r3, #12]
 80010bc:	0a1b      	lsrs	r3, r3, #8
 80010be:	f003 0307 	and.w	r3, r3, #7
}
 80010c2:	4618      	mov	r0, r3
 80010c4:	46bd      	mov	sp, r7
 80010c6:	f85d 7b04 	ldr.w	r7, [sp], #4
 80010ca:	4770      	bx	lr
 80010cc:	e000ed00 	.word	0xe000ed00

080010d0 <__NVIC_EnableIRQ>:
  \details Enables a device specific interrupt in the NVIC interrupt controller.
  \param [in]      IRQn  Device specific interrupt number.
  \note    IRQn must not be negative.
 */
__STATIC_INLINE void __NVIC_EnableIRQ(IRQn_Type IRQn)
{
 80010d0:	b480      	push	{r7}
 80010d2:	b083      	sub	sp, #12
 80010d4:	af00      	add	r7, sp, #0
 80010d6:	4603      	mov	r3, r0
 80010d8:	80fb      	strh	r3, [r7, #6]
  if ((int32_t)(IRQn) >= 0)
 80010da:	f9b7 3006 	ldrsh.w	r3, [r7, #6]
 80010de:	2b00      	cmp	r3, #0
 80010e0:	db0b      	blt.n	80010fa <__NVIC_EnableIRQ+0x2a>
  {
    __COMPILER_BARRIER();
    NVIC->ISER[(((uint32_t)IRQn) >> 5UL)] = (uint32_t)(1UL << (((uint32_t)IRQn) & 0x1FUL));
 80010e2:	88fb      	ldrh	r3, [r7, #6]
 80010e4:	f003 021f 	and.w	r2, r3, #31
 80010e8:	4907      	ldr	r1, [pc, #28]	; (8001108 <__NVIC_EnableIRQ+0x38>)
 80010ea:	f9b7 3006 	ldrsh.w	r3, [r7, #6]
 80010ee:	095b      	lsrs	r3, r3, #5
 80010f0:	2001      	movs	r0, #1
 80010f2:	fa00 f202 	lsl.w	r2, r0, r2
 80010f6:	f841 2023 	str.w	r2, [r1, r3, lsl #2]
    __COMPILER_BARRIER();
  }
}
 80010fa:	bf00      	nop
 80010fc:	370c      	adds	r7, #12
 80010fe:	46bd      	mov	sp, r7
 8001100:	f85d 7b04 	ldr.w	r7, [sp], #4
 8001104:	4770      	bx	lr
 8001106:	bf00      	nop
 8001108:	e000e100 	.word	0xe000e100

0800110c <__NVIC_SetPriority>:
  \param [in]      IRQn  Interrupt number.
  \param [in]  priority  Priority to set.
  \note    The priority cannot be set for every processor exception.
 */
__STATIC_INLINE void __NVIC_SetPriority(IRQn_Type IRQn, uint32_t priority)
{
 800110c:	b480      	push	{r7}
 800110e:	b083      	sub	sp, #12
 8001110:	af00      	add	r7, sp, #0
 8001112:	4603      	mov	r3, r0
 8001114:	6039      	str	r1, [r7, #0]
 8001116:	80fb      	strh	r3, [r7, #6]
  if ((int32_t)(IRQn) >= 0)
 8001118:	f9b7 3006 	ldrsh.w	r3, [r7, #6]
 800111c:	2b00      	cmp	r3, #0
 800111e:	db0a      	blt.n	8001136 <__NVIC_SetPriority+0x2a>
  {
    NVIC->IP[((uint32_t)IRQn)]                = (uint8_t)((priority << (8U - __NVIC_PRIO_BITS)) & (uint32_t)0xFFUL);
 8001120:	683b      	ldr	r3, [r7, #0]
 8001122:	b2da      	uxtb	r2, r3
 8001124:	490c      	ldr	r1, [pc, #48]	; (8001158 <__NVIC_SetPriority+0x4c>)
 8001126:	f9b7 3006 	ldrsh.w	r3, [r7, #6]
 800112a:	0112      	lsls	r2, r2, #4
 800112c:	b2d2      	uxtb	r2, r2
 800112e:	440b      	add	r3, r1
 8001130:	f883 2300 	strb.w	r2, [r3, #768]	; 0x300
  }
  else
  {
    SCB->SHPR[(((uint32_t)IRQn) & 0xFUL)-4UL] = (uint8_t)((priority << (8U - __NVIC_PRIO_BITS)) & (uint32_t)0xFFUL);
  }
}
 8001134:	e00a      	b.n	800114c <__NVIC_SetPriority+0x40>
    SCB->SHPR[(((uint32_t)IRQn) & 0xFUL)-4UL] = (uint8_t)((priority << (8U - __NVIC_PRIO_BITS)) & (uint32_t)0xFFUL);
 8001136:	683b      	ldr	r3, [r7, #0]
 8001138:	b2da      	uxtb	r2, r3
 800113a:	4908      	ldr	r1, [pc, #32]	; (800115c <__NVIC_SetPriority+0x50>)
 800113c:	88fb      	ldrh	r3, [r7, #6]
 800113e:	f003 030f 	and.w	r3, r3, #15
 8001142:	3b04      	subs	r3, #4
 8001144:	0112      	lsls	r2, r2, #4
 8001146:	b2d2      	uxtb	r2, r2
 8001148:	440b      	add	r3, r1
 800114a:	761a      	strb	r2, [r3, #24]
}
 800114c:	bf00      	nop
 800114e:	370c      	adds	r7, #12
 8001150:	46bd      	mov	sp, r7
 8001152:	f85d 7b04 	ldr.w	r7, [sp], #4
 8001156:	4770      	bx	lr
 8001158:	e000e100 	.word	0xe000e100
 800115c:	e000ed00 	.word	0xe000ed00

08001160 <NVIC_EncodePriority>:
  \param [in]   PreemptPriority  Preemptive priority value (starting from 0).
  \param [in]       SubPriority  Subpriority value (starting from 0).
  \return                        Encoded priority. Value can be used in the function \ref NVIC_SetPriority().
 */
__STATIC_INLINE uint32_t NVIC_EncodePriority (uint32_t PriorityGroup, uint32_t PreemptPriority, uint32_t SubPriority)
{
 8001160:	b480      	push	{r7}
 8001162:	b089      	sub	sp, #36	; 0x24
 8001164:	af00      	add	r7, sp, #0
 8001166:	60f8      	str	r0, [r7, #12]
 8001168:	60b9      	str	r1, [r7, #8]
 800116a:	607a      	str	r2, [r7, #4]
  uint32_t PriorityGroupTmp = (PriorityGroup & (uint32_t)0x07UL);   /* only values 0..7 are used          */
 800116c:	68fb      	ldr	r3, [r7, #12]
 800116e:	f003 0307 	and.w	r3, r3, #7
 8001172:	61fb      	str	r3, [r7, #28]
  uint32_t PreemptPriorityBits;
  uint32_t SubPriorityBits;

  PreemptPriorityBits = ((7UL - PriorityGroupTmp) > (uint32_t)(__NVIC_PRIO_BITS)) ? (uint32_t)(__NVIC_PRIO_BITS) : (uint32_t)(7UL - PriorityGroupTmp);
 8001174:	69fb      	ldr	r3, [r7, #28]
 8001176:	f1c3 0307 	rsb	r3, r3, #7
 800117a:	2b04      	cmp	r3, #4
 800117c:	bf28      	it	cs
 800117e:	2304      	movcs	r3, #4
 8001180:	61bb      	str	r3, [r7, #24]
  SubPriorityBits     = ((PriorityGroupTmp + (uint32_t)(__NVIC_PRIO_BITS)) < (uint32_t)7UL) ? (uint32_t)0UL : (uint32_t)((PriorityGroupTmp - 7UL) + (uint32_t)(__NVIC_PRIO_BITS));
 8001182:	69fb      	ldr	r3, [r7, #28]
 8001184:	3304      	adds	r3, #4
 8001186:	2b06      	cmp	r3, #6
 8001188:	d902      	bls.n	8001190 <NVIC_EncodePriority+0x30>
 800118a:	69fb      	ldr	r3, [r7, #28]
 800118c:	3b03      	subs	r3, #3
 800118e:	e000      	b.n	8001192 <NVIC_EncodePriority+0x32>
 8001190:	2300      	movs	r3, #0
 8001192:	617b      	str	r3, [r7, #20]

  return (
           ((PreemptPriority & (uint32_t)((1UL << (PreemptPriorityBits)) - 1UL)) << SubPriorityBits) |
 8001194:	f04f 32ff 	mov.w	r2, #4294967295
 8001198:	69bb      	ldr	r3, [r7, #24]
 800119a:	fa02 f303 	lsl.w	r3, r2, r3
 800119e:	43da      	mvns	r2, r3
 80011a0:	68bb      	ldr	r3, [r7, #8]
 80011a2:	401a      	ands	r2, r3
 80011a4:	697b      	ldr	r3, [r7, #20]
 80011a6:	409a      	lsls	r2, r3
           ((SubPriority     & (uint32_t)((1UL << (SubPriorityBits    )) - 1UL)))
 80011a8:	f04f 31ff 	mov.w	r1, #4294967295
 80011ac:	697b      	ldr	r3, [r7, #20]
 80011ae:	fa01 f303 	lsl.w	r3, r1, r3
 80011b2:	43d9      	mvns	r1, r3
 80011b4:	687b      	ldr	r3, [r7, #4]
 80011b6:	400b      	ands	r3, r1
           ((PreemptPriority & (uint32_t)((1UL << (PreemptPriorityBits)) - 1UL)) << SubPriorityBits) |
 80011b8:	4313      	orrs	r3, r2
         );
}
 80011ba:	4618      	mov	r0, r3
 80011bc:	3724      	adds	r7, #36	; 0x24
 80011be:	46bd      	mov	sp, r7
 80011c0:	f85d 7b04 	ldr.w	r7, [sp], #4
 80011c4:	4770      	bx	lr
	...

080011c8 <SysTick_Config>:
  \note    When the variable <b>__Vendor_SysTickConfig</b> is set to 1, then the
           function <b>SysTick_Config</b> is not included. In this case, the file <b><i>device</i>.h</b>
           must contain a vendor-specific implementation of this function.
 */
__STATIC_INLINE uint32_t SysTick_Config(uint32_t ticks)
{
 80011c8:	b580      	push	{r7, lr}
 80011ca:	b082      	sub	sp, #8
 80011cc:	af00      	add	r7, sp, #0
 80011ce:	6078      	str	r0, [r7, #4]
  if ((ticks - 1UL) > SysTick_LOAD_RELOAD_Msk)
 80011d0:	687b      	ldr	r3, [r7, #4]
 80011d2:	3b01      	subs	r3, #1
 80011d4:	f1b3 7f80 	cmp.w	r3, #16777216	; 0x1000000
 80011d8:	d301      	bcc.n	80011de <SysTick_Config+0x16>
  {
    return (1UL);                                                   /* Reload value impossible */
 80011da:	2301      	movs	r3, #1
 80011dc:	e00f      	b.n	80011fe <SysTick_Config+0x36>
  }

  SysTick->LOAD  = (uint32_t)(ticks - 1UL);                         /* set reload register */
 80011de:	4a0a      	ldr	r2, [pc, #40]	; (8001208 <SysTick_Config+0x40>)
 80011e0:	687b      	ldr	r3, [r7, #4]
 80011e2:	3b01      	subs	r3, #1
 80011e4:	6053      	str	r3, [r2, #4]
  NVIC_SetPriority (SysTick_IRQn, (1UL << __NVIC_PRIO_BITS) - 1UL); /* set Priority for Systick Interrupt */
 80011e6:	210f      	movs	r1, #15
 80011e8:	f04f 30ff 	mov.w	r0, #4294967295
 80011ec:	f7ff ff8e 	bl	800110c <__NVIC_SetPriority>
  SysTick->VAL   = 0UL;                                             /* Load the SysTick Counter Value */
 80011f0:	4b05      	ldr	r3, [pc, #20]	; (8001208 <SysTick_Config+0x40>)
 80011f2:	2200      	movs	r2, #0
 80011f4:	609a      	str	r2, [r3, #8]
  SysTick->CTRL  = SysTick_CTRL_CLKSOURCE_Msk |
 80011f6:	4b04      	ldr	r3, [pc, #16]	; (8001208 <SysTick_Config+0x40>)
 80011f8:	2207      	movs	r2, #7
 80011fa:	601a      	str	r2, [r3, #0]
                   SysTick_CTRL_TICKINT_Msk   |
                   SysTick_CTRL_ENABLE_Msk;                         /* Enable SysTick IRQ and SysTick Timer */
  return (0UL);                                                     /* Function successful */
 80011fc:	2300      	movs	r3, #0
}
 80011fe:	4618      	mov	r0, r3
 8001200:	3708      	adds	r7, #8
 8001202:	46bd      	mov	sp, r7
 8001204:	bd80      	pop	{r7, pc}
 8001206:	bf00      	nop
 8001208:	e000e010 	.word	0xe000e010

0800120c <HAL_NVIC_SetPriorityGrouping>:
  * @note   When the NVIC_PriorityGroup_0 is selected, IRQ preemption is no more possible.
  *         The pending IRQ priority will be managed only by the subpriority.
  * @retval None
  */
void HAL_NVIC_SetPriorityGrouping(uint32_t PriorityGroup)
{
 800120c:	b580      	push	{r7, lr}
 800120e:	b082      	sub	sp, #8
 8001210:	af00      	add	r7, sp, #0
 8001212:	6078      	str	r0, [r7, #4]
  /* Check the parameters */
  assert_param(IS_NVIC_PRIORITY_GROUP(PriorityGroup));

  /* Set the PRIGROUP[10:8] bits according to the PriorityGroup parameter value */
  NVIC_SetPriorityGrouping(PriorityGroup);
 8001214:	6878      	ldr	r0, [r7, #4]
 8001216:	f7ff ff29 	bl	800106c <__NVIC_SetPriorityGrouping>
}
 800121a:	bf00      	nop
 800121c:	3708      	adds	r7, #8
 800121e:	46bd      	mov	sp, r7
 8001220:	bd80      	pop	{r7, pc}

08001222 <HAL_NVIC_SetPriority>:
  *         This parameter can be a value between 0 and 15
  *         A lower priority value indicates a higher priority.
  * @retval None
  */
void HAL_NVIC_SetPriority(IRQn_Type IRQn, uint32_t PreemptPriority, uint32_t SubPriority)
{
 8001222:	b580      	push	{r7, lr}
 8001224:	b086      	sub	sp, #24
 8001226:	af00      	add	r7, sp, #0
 8001228:	4603      	mov	r3, r0
 800122a:	60b9      	str	r1, [r7, #8]
 800122c:	607a      	str	r2, [r7, #4]
 800122e:	81fb      	strh	r3, [r7, #14]

  /* Check the parameters */
  assert_param(IS_NVIC_SUB_PRIORITY(SubPriority));
  assert_param(IS_NVIC_PREEMPTION_PRIORITY(PreemptPriority));

  prioritygroup = NVIC_GetPriorityGrouping();
 8001230:	f7ff ff40 	bl	80010b4 <__NVIC_GetPriorityGrouping>
 8001234:	6178      	str	r0, [r7, #20]

  NVIC_SetPriority(IRQn, NVIC_EncodePriority(prioritygroup, PreemptPriority, SubPriority));
 8001236:	687a      	ldr	r2, [r7, #4]
 8001238:	68b9      	ldr	r1, [r7, #8]
 800123a:	6978      	ldr	r0, [r7, #20]
 800123c:	f7ff ff90 	bl	8001160 <NVIC_EncodePriority>
 8001240:	4602      	mov	r2, r0
 8001242:	f9b7 300e 	ldrsh.w	r3, [r7, #14]
 8001246:	4611      	mov	r1, r2
 8001248:	4618      	mov	r0, r3
 800124a:	f7ff ff5f 	bl	800110c <__NVIC_SetPriority>
}
 800124e:	bf00      	nop
 8001250:	3718      	adds	r7, #24
 8001252:	46bd      	mov	sp, r7
 8001254:	bd80      	pop	{r7, pc}

08001256 <HAL_NVIC_EnableIRQ>:
  *         This parameter can be an enumerator of IRQn_Type enumeration
  *         (For the complete STM32 Devices IRQ Channels list, please refer to the appropriate CMSIS device file (stm32h7xxxx.h))
  * @retval None
  */
void HAL_NVIC_EnableIRQ(IRQn_Type IRQn)
{
 8001256:	b580      	push	{r7, lr}
 8001258:	b082      	sub	sp, #8
 800125a:	af00      	add	r7, sp, #0
 800125c:	4603      	mov	r3, r0
 800125e:	80fb      	strh	r3, [r7, #6]
  /* Check the parameters */
  assert_param(IS_NVIC_DEVICE_IRQ(IRQn));

  /* Enable interrupt */
  NVIC_EnableIRQ(IRQn);
 8001260:	f9b7 3006 	ldrsh.w	r3, [r7, #6]
 8001264:	4618      	mov	r0, r3
 8001266:	f7ff ff33 	bl	80010d0 <__NVIC_EnableIRQ>
}
 800126a:	bf00      	nop
 800126c:	3708      	adds	r7, #8
 800126e:	46bd      	mov	sp, r7
 8001270:	bd80      	pop	{r7, pc}

08001272 <HAL_SYSTICK_Config>:
  * @param  TicksNumb Specifies the ticks Number of ticks between two interrupts.
  * @retval status   - 0  Function succeeded.
  *                  - 1  Function failed.
  */
uint32_t HAL_SYSTICK_Config(uint32_t TicksNumb)
{
 8001272:	b580      	push	{r7, lr}
 8001274:	b082      	sub	sp, #8
 8001276:	af00      	add	r7, sp, #0
 8001278:	6078      	str	r0, [r7, #4]
   return SysTick_Config(TicksNumb);
 800127a:	6878      	ldr	r0, [r7, #4]
 800127c:	f7ff ffa4 	bl	80011c8 <SysTick_Config>
 8001280:	4603      	mov	r3, r0
}
 8001282:	4618      	mov	r0, r3
 8001284:	3708      	adds	r7, #8
 8001286:	46bd      	mov	sp, r7
 8001288:	bd80      	pop	{r7, pc}
	...

0800128c <HAL_GPIO_Init>:
  * @param  GPIO_Init: pointer to a GPIO_InitTypeDef structure that contains
  *         the configuration information for the specified GPIO peripheral.
  * @retval None
  */
void HAL_GPIO_Init(GPIO_TypeDef  *GPIOx, GPIO_InitTypeDef *GPIO_Init)
{
 800128c:	b480      	push	{r7}
 800128e:	b089      	sub	sp, #36	; 0x24
 8001290:	af00      	add	r7, sp, #0
 8001292:	6078      	str	r0, [r7, #4]
 8001294:	6039      	str	r1, [r7, #0]
  uint32_t position = 0x00U;
 8001296:	2300      	movs	r3, #0
 8001298:	61fb      	str	r3, [r7, #28]
  EXTI_Core_TypeDef *EXTI_CurrentCPU;

#if defined(DUAL_CORE) && defined(CORE_CM4)
  EXTI_CurrentCPU = EXTI_D2; /* EXTI for CM4 CPU */
#else
  EXTI_CurrentCPU = EXTI_D1; /* EXTI for CM7 CPU */
 800129a:	4b89      	ldr	r3, [pc, #548]	; (80014c0 <HAL_GPIO_Init+0x234>)
 800129c:	617b      	str	r3, [r7, #20]
  assert_param(IS_GPIO_ALL_INSTANCE(GPIOx));
  assert_param(IS_GPIO_PIN(GPIO_Init->Pin));
  assert_param(IS_GPIO_MODE(GPIO_Init->Mode));

  /* Configure the port pins */
  while (((GPIO_Init->Pin) >> position) != 0x00U)
 800129e:	e194      	b.n	80015ca <HAL_GPIO_Init+0x33e>
  {
    /* Get current io position */
    iocurrent = (GPIO_Init->Pin) & (1UL << position);
 80012a0:	683b      	ldr	r3, [r7, #0]
 80012a2:	681a      	ldr	r2, [r3, #0]
 80012a4:	2101      	movs	r1, #1
 80012a6:	69fb      	ldr	r3, [r7, #28]
 80012a8:	fa01 f303 	lsl.w	r3, r1, r3
 80012ac:	4013      	ands	r3, r2
 80012ae:	613b      	str	r3, [r7, #16]

    if (iocurrent != 0x00U)
 80012b0:	693b      	ldr	r3, [r7, #16]
 80012b2:	2b00      	cmp	r3, #0
 80012b4:	f000 8186 	beq.w	80015c4 <HAL_GPIO_Init+0x338>
    {
      /*--------------------- GPIO Mode Configuration ------------------------*/
      /* In case of Output or Alternate function mode selection */
      if (((GPIO_Init->Mode & GPIO_MODE) == MODE_OUTPUT) || ((GPIO_Init->Mode & GPIO_MODE) == MODE_AF))
 80012b8:	683b      	ldr	r3, [r7, #0]
 80012ba:	685b      	ldr	r3, [r3, #4]
 80012bc:	f003 0303 	and.w	r3, r3, #3
 80012c0:	2b01      	cmp	r3, #1
 80012c2:	d005      	beq.n	80012d0 <HAL_GPIO_Init+0x44>
 80012c4:	683b      	ldr	r3, [r7, #0]
 80012c6:	685b      	ldr	r3, [r3, #4]
 80012c8:	f003 0303 	and.w	r3, r3, #3
 80012cc:	2b02      	cmp	r3, #2
 80012ce:	d130      	bne.n	8001332 <HAL_GPIO_Init+0xa6>
      {
        /* Check the Speed parameter */
        assert_param(IS_GPIO_SPEED(GPIO_Init->Speed));

        /* Configure the IO Speed */
        temp = GPIOx->OSPEEDR;
 80012d0:	687b      	ldr	r3, [r7, #4]
 80012d2:	689b      	ldr	r3, [r3, #8]
 80012d4:	61bb      	str	r3, [r7, #24]
        temp &= ~(GPIO_OSPEEDR_OSPEED0 << (position * 2U));
 80012d6:	69fb      	ldr	r3, [r7, #28]
 80012d8:	005b      	lsls	r3, r3, #1
 80012da:	2203      	movs	r2, #3
 80012dc:	fa02 f303 	lsl.w	r3, r2, r3
 80012e0:	43db      	mvns	r3, r3
 80012e2:	69ba      	ldr	r2, [r7, #24]
 80012e4:	4013      	ands	r3, r2
 80012e6:	61bb      	str	r3, [r7, #24]
        temp |= (GPIO_Init->Speed << (position * 2U));
 80012e8:	683b      	ldr	r3, [r7, #0]
 80012ea:	68da      	ldr	r2, [r3, #12]
 80012ec:	69fb      	ldr	r3, [r7, #28]
 80012ee:	005b      	lsls	r3, r3, #1
 80012f0:	fa02 f303 	lsl.w	r3, r2, r3
 80012f4:	69ba      	ldr	r2, [r7, #24]
 80012f6:	4313      	orrs	r3, r2
 80012f8:	61bb      	str	r3, [r7, #24]
        GPIOx->OSPEEDR = temp;
 80012fa:	687b      	ldr	r3, [r7, #4]
 80012fc:	69ba      	ldr	r2, [r7, #24]
 80012fe:	609a      	str	r2, [r3, #8]

        /* Configure the IO Output Type */
        temp = GPIOx->OTYPER;
 8001300:	687b      	ldr	r3, [r7, #4]
 8001302:	685b      	ldr	r3, [r3, #4]
 8001304:	61bb      	str	r3, [r7, #24]
        temp &= ~(GPIO_OTYPER_OT0 << position) ;
 8001306:	2201      	movs	r2, #1
 8001308:	69fb      	ldr	r3, [r7, #28]
 800130a:	fa02 f303 	lsl.w	r3, r2, r3
 800130e:	43db      	mvns	r3, r3
 8001310:	69ba      	ldr	r2, [r7, #24]
 8001312:	4013      	ands	r3, r2
 8001314:	61bb      	str	r3, [r7, #24]
        temp |= (((GPIO_Init->Mode & OUTPUT_TYPE) >> OUTPUT_TYPE_Pos) << position);
 8001316:	683b      	ldr	r3, [r7, #0]
 8001318:	685b      	ldr	r3, [r3, #4]
 800131a:	091b      	lsrs	r3, r3, #4
 800131c:	f003 0201 	and.w	r2, r3, #1
 8001320:	69fb      	ldr	r3, [r7, #28]
 8001322:	fa02 f303 	lsl.w	r3, r2, r3
 8001326:	69ba      	ldr	r2, [r7, #24]
 8001328:	4313      	orrs	r3, r2
 800132a:	61bb      	str	r3, [r7, #24]
        GPIOx->OTYPER = temp;
 800132c:	687b      	ldr	r3, [r7, #4]
 800132e:	69ba      	ldr	r2, [r7, #24]
 8001330:	605a      	str	r2, [r3, #4]
      }

      if ((GPIO_Init->Mode & GPIO_MODE) != MODE_ANALOG)
 8001332:	683b      	ldr	r3, [r7, #0]
 8001334:	685b      	ldr	r3, [r3, #4]
 8001336:	f003 0303 	and.w	r3, r3, #3
 800133a:	2b03      	cmp	r3, #3
 800133c:	d017      	beq.n	800136e <HAL_GPIO_Init+0xe2>
      {
       /* Check the Pull parameter */
       assert_param(IS_GPIO_PULL(GPIO_Init->Pull));

      /* Activate the Pull-up or Pull down resistor for the current IO */
      temp = GPIOx->PUPDR;
 800133e:	687b      	ldr	r3, [r7, #4]
 8001340:	68db      	ldr	r3, [r3, #12]
 8001342:	61bb      	str	r3, [r7, #24]
      temp &= ~(GPIO_PUPDR_PUPD0 << (position * 2U));
 8001344:	69fb      	ldr	r3, [r7, #28]
 8001346:	005b      	lsls	r3, r3, #1
 8001348:	2203      	movs	r2, #3
 800134a:	fa02 f303 	lsl.w	r3, r2, r3
 800134e:	43db      	mvns	r3, r3
 8001350:	69ba      	ldr	r2, [r7, #24]
 8001352:	4013      	ands	r3, r2
 8001354:	61bb      	str	r3, [r7, #24]
      temp |= ((GPIO_Init->Pull) << (position * 2U));
 8001356:	683b      	ldr	r3, [r7, #0]
 8001358:	689a      	ldr	r2, [r3, #8]
 800135a:	69fb      	ldr	r3, [r7, #28]
 800135c:	005b      	lsls	r3, r3, #1
 800135e:	fa02 f303 	lsl.w	r3, r2, r3
 8001362:	69ba      	ldr	r2, [r7, #24]
 8001364:	4313      	orrs	r3, r2
 8001366:	61bb      	str	r3, [r7, #24]
      GPIOx->PUPDR = temp;
 8001368:	687b      	ldr	r3, [r7, #4]
 800136a:	69ba      	ldr	r2, [r7, #24]
 800136c:	60da      	str	r2, [r3, #12]
      }

      /* In case of Alternate function mode selection */
      if ((GPIO_Init->Mode & GPIO_MODE) == MODE_AF)
 800136e:	683b      	ldr	r3, [r7, #0]
 8001370:	685b      	ldr	r3, [r3, #4]
 8001372:	f003 0303 	and.w	r3, r3, #3
 8001376:	2b02      	cmp	r3, #2
 8001378:	d123      	bne.n	80013c2 <HAL_GPIO_Init+0x136>
        /* Check the Alternate function parameters */
        assert_param(IS_GPIO_AF_INSTANCE(GPIOx));
        assert_param(IS_GPIO_AF(GPIO_Init->Alternate));

        /* Configure Alternate function mapped with the current IO */
        temp = GPIOx->AFR[position >> 3U];
 800137a:	69fb      	ldr	r3, [r7, #28]
 800137c:	08da      	lsrs	r2, r3, #3
 800137e:	687b      	ldr	r3, [r7, #4]
 8001380:	3208      	adds	r2, #8
 8001382:	f853 3022 	ldr.w	r3, [r3, r2, lsl #2]
 8001386:	61bb      	str	r3, [r7, #24]
        temp &= ~(0xFU << ((position & 0x07U) * 4U));
 8001388:	69fb      	ldr	r3, [r7, #28]
 800138a:	f003 0307 	and.w	r3, r3, #7
 800138e:	009b      	lsls	r3, r3, #2
 8001390:	220f      	movs	r2, #15
 8001392:	fa02 f303 	lsl.w	r3, r2, r3
 8001396:	43db      	mvns	r3, r3
 8001398:	69ba      	ldr	r2, [r7, #24]
 800139a:	4013      	ands	r3, r2
 800139c:	61bb      	str	r3, [r7, #24]
        temp |= ((GPIO_Init->Alternate) << ((position & 0x07U) * 4U));
 800139e:	683b      	ldr	r3, [r7, #0]
 80013a0:	691a      	ldr	r2, [r3, #16]
 80013a2:	69fb      	ldr	r3, [r7, #28]
 80013a4:	f003 0307 	and.w	r3, r3, #7
 80013a8:	009b      	lsls	r3, r3, #2
 80013aa:	fa02 f303 	lsl.w	r3, r2, r3
 80013ae:	69ba      	ldr	r2, [r7, #24]
 80013b0:	4313      	orrs	r3, r2
 80013b2:	61bb      	str	r3, [r7, #24]
        GPIOx->AFR[position >> 3U] = temp;
 80013b4:	69fb      	ldr	r3, [r7, #28]
 80013b6:	08da      	lsrs	r2, r3, #3
 80013b8:	687b      	ldr	r3, [r7, #4]
 80013ba:	3208      	adds	r2, #8
 80013bc:	69b9      	ldr	r1, [r7, #24]
 80013be:	f843 1022 	str.w	r1, [r3, r2, lsl #2]
      }

      /* Configure IO Direction mode (Input, Output, Alternate or Analog) */
      temp = GPIOx->MODER;
 80013c2:	687b      	ldr	r3, [r7, #4]
 80013c4:	681b      	ldr	r3, [r3, #0]
 80013c6:	61bb      	str	r3, [r7, #24]
      temp &= ~(GPIO_MODER_MODE0 << (position * 2U));
 80013c8:	69fb      	ldr	r3, [r7, #28]
 80013ca:	005b      	lsls	r3, r3, #1
 80013cc:	2203      	movs	r2, #3
 80013ce:	fa02 f303 	lsl.w	r3, r2, r3
 80013d2:	43db      	mvns	r3, r3
 80013d4:	69ba      	ldr	r2, [r7, #24]
 80013d6:	4013      	ands	r3, r2
 80013d8:	61bb      	str	r3, [r7, #24]
      temp |= ((GPIO_Init->Mode & GPIO_MODE) << (position * 2U));
 80013da:	683b      	ldr	r3, [r7, #0]
 80013dc:	685b      	ldr	r3, [r3, #4]
 80013de:	f003 0203 	and.w	r2, r3, #3
 80013e2:	69fb      	ldr	r3, [r7, #28]
 80013e4:	005b      	lsls	r3, r3, #1
 80013e6:	fa02 f303 	lsl.w	r3, r2, r3
 80013ea:	69ba      	ldr	r2, [r7, #24]
 80013ec:	4313      	orrs	r3, r2
 80013ee:	61bb      	str	r3, [r7, #24]
      GPIOx->MODER = temp;
 80013f0:	687b      	ldr	r3, [r7, #4]
 80013f2:	69ba      	ldr	r2, [r7, #24]
 80013f4:	601a      	str	r2, [r3, #0]

      /*--------------------- EXTI Mode Configuration ------------------------*/
      /* Configure the External Interrupt or event for the current IO */
      if ((GPIO_Init->Mode & EXTI_MODE) != 0x00U)
 80013f6:	683b      	ldr	r3, [r7, #0]
 80013f8:	685b      	ldr	r3, [r3, #4]
 80013fa:	f403 3340 	and.w	r3, r3, #196608	; 0x30000
 80013fe:	2b00      	cmp	r3, #0
 8001400:	f000 80e0 	beq.w	80015c4 <HAL_GPIO_Init+0x338>
      {
        /* Enable SYSCFG Clock */
        __HAL_RCC_SYSCFG_CLK_ENABLE();
 8001404:	4b2f      	ldr	r3, [pc, #188]	; (80014c4 <HAL_GPIO_Init+0x238>)
 8001406:	f8d3 30f4 	ldr.w	r3, [r3, #244]	; 0xf4
 800140a:	4a2e      	ldr	r2, [pc, #184]	; (80014c4 <HAL_GPIO_Init+0x238>)
 800140c:	f043 0302 	orr.w	r3, r3, #2
 8001410:	f8c2 30f4 	str.w	r3, [r2, #244]	; 0xf4
 8001414:	4b2b      	ldr	r3, [pc, #172]	; (80014c4 <HAL_GPIO_Init+0x238>)
 8001416:	f8d3 30f4 	ldr.w	r3, [r3, #244]	; 0xf4
 800141a:	f003 0302 	and.w	r3, r3, #2
 800141e:	60fb      	str	r3, [r7, #12]
 8001420:	68fb      	ldr	r3, [r7, #12]

        temp = SYSCFG->EXTICR[position >> 2U];
 8001422:	4a29      	ldr	r2, [pc, #164]	; (80014c8 <HAL_GPIO_Init+0x23c>)
 8001424:	69fb      	ldr	r3, [r7, #28]
 8001426:	089b      	lsrs	r3, r3, #2
 8001428:	3302      	adds	r3, #2
 800142a:	f852 3023 	ldr.w	r3, [r2, r3, lsl #2]
 800142e:	61bb      	str	r3, [r7, #24]
        temp &= ~(0x0FUL << (4U * (position & 0x03U)));
 8001430:	69fb      	ldr	r3, [r7, #28]
 8001432:	f003 0303 	and.w	r3, r3, #3
 8001436:	009b      	lsls	r3, r3, #2
 8001438:	220f      	movs	r2, #15
 800143a:	fa02 f303 	lsl.w	r3, r2, r3
 800143e:	43db      	mvns	r3, r3
 8001440:	69ba      	ldr	r2, [r7, #24]
 8001442:	4013      	ands	r3, r2
 8001444:	61bb      	str	r3, [r7, #24]
        temp |= (GPIO_GET_INDEX(GPIOx) << (4U * (position & 0x03U)));
 8001446:	687b      	ldr	r3, [r7, #4]
 8001448:	4a20      	ldr	r2, [pc, #128]	; (80014cc <HAL_GPIO_Init+0x240>)
 800144a:	4293      	cmp	r3, r2
 800144c:	d052      	beq.n	80014f4 <HAL_GPIO_Init+0x268>
 800144e:	687b      	ldr	r3, [r7, #4]
 8001450:	4a1f      	ldr	r2, [pc, #124]	; (80014d0 <HAL_GPIO_Init+0x244>)
 8001452:	4293      	cmp	r3, r2
 8001454:	d031      	beq.n	80014ba <HAL_GPIO_Init+0x22e>
 8001456:	687b      	ldr	r3, [r7, #4]
 8001458:	4a1e      	ldr	r2, [pc, #120]	; (80014d4 <HAL_GPIO_Init+0x248>)
 800145a:	4293      	cmp	r3, r2
 800145c:	d02b      	beq.n	80014b6 <HAL_GPIO_Init+0x22a>
 800145e:	687b      	ldr	r3, [r7, #4]
 8001460:	4a1d      	ldr	r2, [pc, #116]	; (80014d8 <HAL_GPIO_Init+0x24c>)
 8001462:	4293      	cmp	r3, r2
 8001464:	d025      	beq.n	80014b2 <HAL_GPIO_Init+0x226>
 8001466:	687b      	ldr	r3, [r7, #4]
 8001468:	4a1c      	ldr	r2, [pc, #112]	; (80014dc <HAL_GPIO_Init+0x250>)
 800146a:	4293      	cmp	r3, r2
 800146c:	d01f      	beq.n	80014ae <HAL_GPIO_Init+0x222>
 800146e:	687b      	ldr	r3, [r7, #4]
 8001470:	4a1b      	ldr	r2, [pc, #108]	; (80014e0 <HAL_GPIO_Init+0x254>)
 8001472:	4293      	cmp	r3, r2
 8001474:	d019      	beq.n	80014aa <HAL_GPIO_Init+0x21e>
 8001476:	687b      	ldr	r3, [r7, #4]
 8001478:	4a1a      	ldr	r2, [pc, #104]	; (80014e4 <HAL_GPIO_Init+0x258>)
 800147a:	4293      	cmp	r3, r2
 800147c:	d013      	beq.n	80014a6 <HAL_GPIO_Init+0x21a>
 800147e:	687b      	ldr	r3, [r7, #4]
 8001480:	4a19      	ldr	r2, [pc, #100]	; (80014e8 <HAL_GPIO_Init+0x25c>)
 8001482:	4293      	cmp	r3, r2
 8001484:	d00d      	beq.n	80014a2 <HAL_GPIO_Init+0x216>
 8001486:	687b      	ldr	r3, [r7, #4]
 8001488:	4a18      	ldr	r2, [pc, #96]	; (80014ec <HAL_GPIO_Init+0x260>)
 800148a:	4293      	cmp	r3, r2
 800148c:	d007      	beq.n	800149e <HAL_GPIO_Init+0x212>
 800148e:	687b      	ldr	r3, [r7, #4]
 8001490:	4a17      	ldr	r2, [pc, #92]	; (80014f0 <HAL_GPIO_Init+0x264>)
 8001492:	4293      	cmp	r3, r2
 8001494:	d101      	bne.n	800149a <HAL_GPIO_Init+0x20e>
 8001496:	2309      	movs	r3, #9
 8001498:	e02d      	b.n	80014f6 <HAL_GPIO_Init+0x26a>
 800149a:	230a      	movs	r3, #10
 800149c:	e02b      	b.n	80014f6 <HAL_GPIO_Init+0x26a>
 800149e:	2308      	movs	r3, #8
 80014a0:	e029      	b.n	80014f6 <HAL_GPIO_Init+0x26a>
 80014a2:	2307      	movs	r3, #7
 80014a4:	e027      	b.n	80014f6 <HAL_GPIO_Init+0x26a>
 80014a6:	2306      	movs	r3, #6
 80014a8:	e025      	b.n	80014f6 <HAL_GPIO_Init+0x26a>
 80014aa:	2305      	movs	r3, #5
 80014ac:	e023      	b.n	80014f6 <HAL_GPIO_Init+0x26a>
 80014ae:	2304      	movs	r3, #4
 80014b0:	e021      	b.n	80014f6 <HAL_GPIO_Init+0x26a>
 80014b2:	2303      	movs	r3, #3
 80014b4:	e01f      	b.n	80014f6 <HAL_GPIO_Init+0x26a>
 80014b6:	2302      	movs	r3, #2
 80014b8:	e01d      	b.n	80014f6 <HAL_GPIO_Init+0x26a>
 80014ba:	2301      	movs	r3, #1
 80014bc:	e01b      	b.n	80014f6 <HAL_GPIO_Init+0x26a>
 80014be:	bf00      	nop
 80014c0:	58000080 	.word	0x58000080
 80014c4:	58024400 	.word	0x58024400
 80014c8:	58000400 	.word	0x58000400
 80014cc:	58020000 	.word	0x58020000
 80014d0:	58020400 	.word	0x58020400
 80014d4:	58020800 	.word	0x58020800
 80014d8:	58020c00 	.word	0x58020c00
 80014dc:	58021000 	.word	0x58021000
 80014e0:	58021400 	.word	0x58021400
 80014e4:	58021800 	.word	0x58021800
 80014e8:	58021c00 	.word	0x58021c00
 80014ec:	58022000 	.word	0x58022000
 80014f0:	58022400 	.word	0x58022400
 80014f4:	2300      	movs	r3, #0
 80014f6:	69fa      	ldr	r2, [r7, #28]
 80014f8:	f002 0203 	and.w	r2, r2, #3
 80014fc:	0092      	lsls	r2, r2, #2
 80014fe:	4093      	lsls	r3, r2
 8001500:	69ba      	ldr	r2, [r7, #24]
 8001502:	4313      	orrs	r3, r2
 8001504:	61bb      	str	r3, [r7, #24]
        SYSCFG->EXTICR[position >> 2U] = temp;
 8001506:	4938      	ldr	r1, [pc, #224]	; (80015e8 <HAL_GPIO_Init+0x35c>)
 8001508:	69fb      	ldr	r3, [r7, #28]
 800150a:	089b      	lsrs	r3, r3, #2
 800150c:	3302      	adds	r3, #2
 800150e:	69ba      	ldr	r2, [r7, #24]
 8001510:	f841 2023 	str.w	r2, [r1, r3, lsl #2]

        /* Clear Rising Falling edge configuration */
        temp = EXTI->RTSR1;
 8001514:	f04f 43b0 	mov.w	r3, #1476395008	; 0x58000000
 8001518:	681b      	ldr	r3, [r3, #0]
 800151a:	61bb      	str	r3, [r7, #24]
        temp &= ~(iocurrent);
 800151c:	693b      	ldr	r3, [r7, #16]
 800151e:	43db      	mvns	r3, r3
 8001520:	69ba      	ldr	r2, [r7, #24]
 8001522:	4013      	ands	r3, r2
 8001524:	61bb      	str	r3, [r7, #24]
        if ((GPIO_Init->Mode & TRIGGER_RISING) != 0x00U)
 8001526:	683b      	ldr	r3, [r7, #0]
 8001528:	685b      	ldr	r3, [r3, #4]
 800152a:	f403 1380 	and.w	r3, r3, #1048576	; 0x100000
 800152e:	2b00      	cmp	r3, #0
 8001530:	d003      	beq.n	800153a <HAL_GPIO_Init+0x2ae>
        {
          temp |= iocurrent;
 8001532:	69ba      	ldr	r2, [r7, #24]
 8001534:	693b      	ldr	r3, [r7, #16]
 8001536:	4313      	orrs	r3, r2
 8001538:	61bb      	str	r3, [r7, #24]
        }
        EXTI->RTSR1 = temp;
 800153a:	f04f 42b0 	mov.w	r2, #1476395008	; 0x58000000
 800153e:	69bb      	ldr	r3, [r7, #24]
 8001540:	6013      	str	r3, [r2, #0]

        temp = EXTI->FTSR1;
 8001542:	f04f 43b0 	mov.w	r3, #1476395008	; 0x58000000
 8001546:	685b      	ldr	r3, [r3, #4]
 8001548:	61bb      	str	r3, [r7, #24]
        temp &= ~(iocurrent);
 800154a:	693b      	ldr	r3, [r7, #16]
 800154c:	43db      	mvns	r3, r3
 800154e:	69ba      	ldr	r2, [r7, #24]
 8001550:	4013      	ands	r3, r2
 8001552:	61bb      	str	r3, [r7, #24]
        if ((GPIO_Init->Mode & TRIGGER_FALLING) != 0x00U)
 8001554:	683b      	ldr	r3, [r7, #0]
 8001556:	685b      	ldr	r3, [r3, #4]
 8001558:	f403 1300 	and.w	r3, r3, #2097152	; 0x200000
 800155c:	2b00      	cmp	r3, #0
 800155e:	d003      	beq.n	8001568 <HAL_GPIO_Init+0x2dc>
        {
          temp |= iocurrent;
 8001560:	69ba      	ldr	r2, [r7, #24]
 8001562:	693b      	ldr	r3, [r7, #16]
 8001564:	4313      	orrs	r3, r2
 8001566:	61bb      	str	r3, [r7, #24]
        }
        EXTI->FTSR1 = temp;
 8001568:	f04f 42b0 	mov.w	r2, #1476395008	; 0x58000000
 800156c:	69bb      	ldr	r3, [r7, #24]
 800156e:	6053      	str	r3, [r2, #4]

        temp = EXTI_CurrentCPU->EMR1;
 8001570:	697b      	ldr	r3, [r7, #20]
 8001572:	685b      	ldr	r3, [r3, #4]
 8001574:	61bb      	str	r3, [r7, #24]
        temp &= ~(iocurrent);
 8001576:	693b      	ldr	r3, [r7, #16]
 8001578:	43db      	mvns	r3, r3
 800157a:	69ba      	ldr	r2, [r7, #24]
 800157c:	4013      	ands	r3, r2
 800157e:	61bb      	str	r3, [r7, #24]
        if ((GPIO_Init->Mode & EXTI_EVT) != 0x00U)
 8001580:	683b      	ldr	r3, [r7, #0]
 8001582:	685b      	ldr	r3, [r3, #4]
 8001584:	f403 3300 	and.w	r3, r3, #131072	; 0x20000
 8001588:	2b00      	cmp	r3, #0
 800158a:	d003      	beq.n	8001594 <HAL_GPIO_Init+0x308>
        {
          temp |= iocurrent;
 800158c:	69ba      	ldr	r2, [r7, #24]
 800158e:	693b      	ldr	r3, [r7, #16]
 8001590:	4313      	orrs	r3, r2
 8001592:	61bb      	str	r3, [r7, #24]
        }
        EXTI_CurrentCPU->EMR1 = temp;
 8001594:	697b      	ldr	r3, [r7, #20]
 8001596:	69ba      	ldr	r2, [r7, #24]
 8001598:	605a      	str	r2, [r3, #4]

        /* Clear EXTI line configuration */
        temp = EXTI_CurrentCPU->IMR1;
 800159a:	697b      	ldr	r3, [r7, #20]
 800159c:	681b      	ldr	r3, [r3, #0]
 800159e:	61bb      	str	r3, [r7, #24]
        temp &= ~(iocurrent);
 80015a0:	693b      	ldr	r3, [r7, #16]
 80015a2:	43db      	mvns	r3, r3
 80015a4:	69ba      	ldr	r2, [r7, #24]
 80015a6:	4013      	ands	r3, r2
 80015a8:	61bb      	str	r3, [r7, #24]
        if ((GPIO_Init->Mode & EXTI_IT) != 0x00U)
 80015aa:	683b      	ldr	r3, [r7, #0]
 80015ac:	685b      	ldr	r3, [r3, #4]
 80015ae:	f403 3380 	and.w	r3, r3, #65536	; 0x10000
 80015b2:	2b00      	cmp	r3, #0
 80015b4:	d003      	beq.n	80015be <HAL_GPIO_Init+0x332>
        {
          temp |= iocurrent;
 80015b6:	69ba      	ldr	r2, [r7, #24]
 80015b8:	693b      	ldr	r3, [r7, #16]
 80015ba:	4313      	orrs	r3, r2
 80015bc:	61bb      	str	r3, [r7, #24]
        }
        EXTI_CurrentCPU->IMR1 = temp;
 80015be:	697b      	ldr	r3, [r7, #20]
 80015c0:	69ba      	ldr	r2, [r7, #24]
 80015c2:	601a      	str	r2, [r3, #0]
      }
    }

    position++;
 80015c4:	69fb      	ldr	r3, [r7, #28]
 80015c6:	3301      	adds	r3, #1
 80015c8:	61fb      	str	r3, [r7, #28]
  while (((GPIO_Init->Pin) >> position) != 0x00U)
 80015ca:	683b      	ldr	r3, [r7, #0]
 80015cc:	681a      	ldr	r2, [r3, #0]
 80015ce:	69fb      	ldr	r3, [r7, #28]
 80015d0:	fa22 f303 	lsr.w	r3, r2, r3
 80015d4:	2b00      	cmp	r3, #0
 80015d6:	f47f ae63 	bne.w	80012a0 <HAL_GPIO_Init+0x14>
  }
}
 80015da:	bf00      	nop
 80015dc:	bf00      	nop
 80015de:	3724      	adds	r7, #36	; 0x24
 80015e0:	46bd      	mov	sp, r7
 80015e2:	f85d 7b04 	ldr.w	r7, [sp], #4
 80015e6:	4770      	bx	lr
 80015e8:	58000400 	.word	0x58000400

080015ec <HAL_GPIO_WritePin>:
  *            @arg GPIO_PIN_RESET: to clear the port pin
  *            @arg GPIO_PIN_SET: to set the port pin
  * @retval None
  */
void HAL_GPIO_WritePin(GPIO_TypeDef *GPIOx, uint16_t GPIO_Pin, GPIO_PinState PinState)
{
 80015ec:	b480      	push	{r7}
 80015ee:	b083      	sub	sp, #12
 80015f0:	af00      	add	r7, sp, #0
 80015f2:	6078      	str	r0, [r7, #4]
 80015f4:	460b      	mov	r3, r1
 80015f6:	807b      	strh	r3, [r7, #2]
 80015f8:	4613      	mov	r3, r2
 80015fa:	707b      	strb	r3, [r7, #1]
  /* Check the parameters */
  assert_param(IS_GPIO_PIN(GPIO_Pin));
  assert_param(IS_GPIO_PIN_ACTION(PinState));

  if (PinState != GPIO_PIN_RESET)
 80015fc:	787b      	ldrb	r3, [r7, #1]
 80015fe:	2b00      	cmp	r3, #0
 8001600:	d003      	beq.n	800160a <HAL_GPIO_WritePin+0x1e>
  {
    GPIOx->BSRR = GPIO_Pin;
 8001602:	887a      	ldrh	r2, [r7, #2]
 8001604:	687b      	ldr	r3, [r7, #4]
 8001606:	619a      	str	r2, [r3, #24]
  }
  else
  {
    GPIOx->BSRR = (uint32_t)GPIO_Pin << GPIO_NUMBER;
  }
}
 8001608:	e003      	b.n	8001612 <HAL_GPIO_WritePin+0x26>
    GPIOx->BSRR = (uint32_t)GPIO_Pin << GPIO_NUMBER;
 800160a:	887b      	ldrh	r3, [r7, #2]
 800160c:	041a      	lsls	r2, r3, #16
 800160e:	687b      	ldr	r3, [r7, #4]
 8001610:	619a      	str	r2, [r3, #24]
}
 8001612:	bf00      	nop
 8001614:	370c      	adds	r7, #12
 8001616:	46bd      	mov	sp, r7
 8001618:	f85d 7b04 	ldr.w	r7, [sp], #4
 800161c:	4770      	bx	lr
	...

08001620 <HAL_HSEM_FastTake>:
  * @brief  Fast Take a semaphore with 1 Step mode.
  * @param  SemID: semaphore ID from 0 to 31
  * @retval HAL status
  */
HAL_StatusTypeDef HAL_HSEM_FastTake(uint32_t SemID)
{
 8001620:	b480      	push	{r7}
 8001622:	b083      	sub	sp, #12
 8001624:	af00      	add	r7, sp, #0
 8001626:	6078      	str	r0, [r7, #4]
    /*take success when MasterID match and take bit set*/
    return HAL_OK;
  }
#else  
  /* Read the RLR register to take the semaphore */
  if (HSEM->RLR[SemID] == (HSEM_CR_COREID_CURRENT | HSEM_RLR_LOCK))
 8001628:	4a08      	ldr	r2, [pc, #32]	; (800164c <HAL_HSEM_FastTake+0x2c>)
 800162a:	687b      	ldr	r3, [r7, #4]
 800162c:	3320      	adds	r3, #32
 800162e:	f852 3023 	ldr.w	r3, [r2, r3, lsl #2]
 8001632:	4a07      	ldr	r2, [pc, #28]	; (8001650 <HAL_HSEM_FastTake+0x30>)
 8001634:	4293      	cmp	r3, r2
 8001636:	d101      	bne.n	800163c <HAL_HSEM_FastTake+0x1c>
  {
    /*take success when MasterID match and take bit set*/
    return HAL_OK;
 8001638:	2300      	movs	r3, #0
 800163a:	e000      	b.n	800163e <HAL_HSEM_FastTake+0x1e>
  }
#endif

  /* Semaphore take fails */
  return HAL_ERROR;
 800163c:	2301      	movs	r3, #1
}
 800163e:	4618      	mov	r0, r3
 8001640:	370c      	adds	r7, #12
 8001642:	46bd      	mov	sp, r7
 8001644:	f85d 7b04 	ldr.w	r7, [sp], #4
 8001648:	4770      	bx	lr
 800164a:	bf00      	nop
 800164c:	58026400 	.word	0x58026400
 8001650:	80000300 	.word	0x80000300

08001654 <HAL_HSEM_Release>:
  * @param  SemID: semaphore ID from 0 to 31
  * @param  ProcessID: Process ID from 0 to 255
  * @retval None
  */
void  HAL_HSEM_Release(uint32_t SemID, uint32_t ProcessID)
{
 8001654:	b480      	push	{r7}
 8001656:	b083      	sub	sp, #12
 8001658:	af00      	add	r7, sp, #0
 800165a:	6078      	str	r0, [r7, #4]
 800165c:	6039      	str	r1, [r7, #0]

  /* Clear the semaphore by writing to the R register : the MasterID , the processID and take bit = 0  */
#if  USE_MULTI_CORE_SHARED_CODE != 0U
  HSEM->R[SemID] = (ProcessID | ((HAL_GetCurrentCPUID() << POSITION_VAL(HSEM_R_MASTERID)) & HSEM_R_MASTERID));
#else
  HSEM->R[SemID] = (ProcessID | HSEM_CR_COREID_CURRENT);
 800165e:	4906      	ldr	r1, [pc, #24]	; (8001678 <HAL_HSEM_Release+0x24>)
 8001660:	683b      	ldr	r3, [r7, #0]
 8001662:	f443 7240 	orr.w	r2, r3, #768	; 0x300
 8001666:	687b      	ldr	r3, [r7, #4]
 8001668:	f841 2023 	str.w	r2, [r1, r3, lsl #2]
#endif

}
 800166c:	bf00      	nop
 800166e:	370c      	adds	r7, #12
 8001670:	46bd      	mov	sp, r7
 8001672:	f85d 7b04 	ldr.w	r7, [sp], #4
 8001676:	4770      	bx	lr
 8001678:	58026400 	.word	0x58026400

0800167c <HAL_PCD_Init>:
  *         parameters in the PCD_InitTypeDef and initialize the associated handle.
  * @param  hpcd PCD handle
  * @retval HAL status
  */
HAL_StatusTypeDef HAL_PCD_Init(PCD_HandleTypeDef *hpcd)
{
 800167c:	b5f0      	push	{r4, r5, r6, r7, lr}
 800167e:	b08f      	sub	sp, #60	; 0x3c
 8001680:	af0a      	add	r7, sp, #40	; 0x28
 8001682:	6078      	str	r0, [r7, #4]
  USB_OTG_GlobalTypeDef *USBx;
  uint8_t i;

  /* Check the PCD handle allocation */
  if (hpcd == NULL)
 8001684:	687b      	ldr	r3, [r7, #4]
 8001686:	2b00      	cmp	r3, #0
 8001688:	d101      	bne.n	800168e <HAL_PCD_Init+0x12>
  {
    return HAL_ERROR;
 800168a:	2301      	movs	r3, #1
 800168c:	e116      	b.n	80018bc <HAL_PCD_Init+0x240>
  }

  /* Check the parameters */
  assert_param(IS_PCD_ALL_INSTANCE(hpcd->Instance));

  USBx = hpcd->Instance;
 800168e:	687b      	ldr	r3, [r7, #4]
 8001690:	681b      	ldr	r3, [r3, #0]
 8001692:	60bb      	str	r3, [r7, #8]

  if (hpcd->State == HAL_PCD_STATE_RESET)
 8001694:	687b      	ldr	r3, [r7, #4]
 8001696:	f893 34bd 	ldrb.w	r3, [r3, #1213]	; 0x4bd
 800169a:	b2db      	uxtb	r3, r3
 800169c:	2b00      	cmp	r3, #0
 800169e:	d106      	bne.n	80016ae <HAL_PCD_Init+0x32>
  {
    /* Allocate lock resource and initialize it */
    hpcd->Lock = HAL_UNLOCKED;
 80016a0:	687b      	ldr	r3, [r7, #4]
 80016a2:	2200      	movs	r2, #0
 80016a4:	f883 24bc 	strb.w	r2, [r3, #1212]	; 0x4bc

    /* Init the low level hardware */
    hpcd->MspInitCallback(hpcd);
#else
    /* Init the low level hardware : GPIO, CLOCK, NVIC... */
    HAL_PCD_MspInit(hpcd);
 80016a8:	6878      	ldr	r0, [r7, #4]
 80016aa:	f008 fe49 	bl	800a340 <HAL_PCD_MspInit>
#endif /* (USE_HAL_PCD_REGISTER_CALLBACKS) */
  }

  hpcd->State = HAL_PCD_STATE_BUSY;
 80016ae:	687b      	ldr	r3, [r7, #4]
 80016b0:	2203      	movs	r2, #3
 80016b2:	f883 24bd 	strb.w	r2, [r3, #1213]	; 0x4bd

  /* Disable DMA mode for FS instance */
  if ((USBx->CID & (0x1U << 8)) == 0U)
 80016b6:	68bb      	ldr	r3, [r7, #8]
 80016b8:	6bdb      	ldr	r3, [r3, #60]	; 0x3c
 80016ba:	f403 7380 	and.w	r3, r3, #256	; 0x100
 80016be:	2b00      	cmp	r3, #0
 80016c0:	d102      	bne.n	80016c8 <HAL_PCD_Init+0x4c>
  {
    hpcd->Init.dma_enable = 0U;
 80016c2:	687b      	ldr	r3, [r7, #4]
 80016c4:	2200      	movs	r2, #0
 80016c6:	611a      	str	r2, [r3, #16]
  }

  /* Disable the Interrupts */
  __HAL_PCD_DISABLE(hpcd);
 80016c8:	687b      	ldr	r3, [r7, #4]
 80016ca:	681b      	ldr	r3, [r3, #0]
 80016cc:	4618      	mov	r0, r3
 80016ce:	f005 f85e 	bl	800678e <USB_DisableGlobalInt>

  /*Init the Core (common init.) */
  if (USB_CoreInit(hpcd->Instance, hpcd->Init) != HAL_OK)
 80016d2:	687b      	ldr	r3, [r7, #4]
 80016d4:	681b      	ldr	r3, [r3, #0]
 80016d6:	603b      	str	r3, [r7, #0]
 80016d8:	687e      	ldr	r6, [r7, #4]
 80016da:	466d      	mov	r5, sp
 80016dc:	f106 0410 	add.w	r4, r6, #16
 80016e0:	cc0f      	ldmia	r4!, {r0, r1, r2, r3}
 80016e2:	c50f      	stmia	r5!, {r0, r1, r2, r3}
 80016e4:	cc0f      	ldmia	r4!, {r0, r1, r2, r3}
 80016e6:	c50f      	stmia	r5!, {r0, r1, r2, r3}
 80016e8:	e894 0003 	ldmia.w	r4, {r0, r1}
 80016ec:	e885 0003 	stmia.w	r5, {r0, r1}
 80016f0:	1d33      	adds	r3, r6, #4
 80016f2:	cb0e      	ldmia	r3, {r1, r2, r3}
 80016f4:	6838      	ldr	r0, [r7, #0]
 80016f6:	f004 ff29 	bl	800654c <USB_CoreInit>
 80016fa:	4603      	mov	r3, r0
 80016fc:	2b00      	cmp	r3, #0
 80016fe:	d005      	beq.n	800170c <HAL_PCD_Init+0x90>
  {
    hpcd->State = HAL_PCD_STATE_ERROR;
 8001700:	687b      	ldr	r3, [r7, #4]
 8001702:	2202      	movs	r2, #2
 8001704:	f883 24bd 	strb.w	r2, [r3, #1213]	; 0x4bd
    return HAL_ERROR;
 8001708:	2301      	movs	r3, #1
 800170a:	e0d7      	b.n	80018bc <HAL_PCD_Init+0x240>
  }

  /* Force Device Mode*/
  (void)USB_SetCurrentMode(hpcd->Instance, USB_DEVICE_MODE);
 800170c:	687b      	ldr	r3, [r7, #4]
 800170e:	681b      	ldr	r3, [r3, #0]
 8001710:	2100      	movs	r1, #0
 8001712:	4618      	mov	r0, r3
 8001714:	f005 f84c 	bl	80067b0 <USB_SetCurrentMode>

  /* Init endpoints structures */
  for (i = 0U; i < hpcd->Init.dev_endpoints; i++)
 8001718:	2300      	movs	r3, #0
 800171a:	73fb      	strb	r3, [r7, #15]
 800171c:	e04a      	b.n	80017b4 <HAL_PCD_Init+0x138>
  {
    /* Init ep structure */
    hpcd->IN_ep[i].is_in = 1U;
 800171e:	7bfa      	ldrb	r2, [r7, #15]
 8001720:	6879      	ldr	r1, [r7, #4]
 8001722:	4613      	mov	r3, r2
 8001724:	00db      	lsls	r3, r3, #3
 8001726:	4413      	add	r3, r2
 8001728:	009b      	lsls	r3, r3, #2
 800172a:	440b      	add	r3, r1
 800172c:	333d      	adds	r3, #61	; 0x3d
 800172e:	2201      	movs	r2, #1
 8001730:	701a      	strb	r2, [r3, #0]
    hpcd->IN_ep[i].num = i;
 8001732:	7bfa      	ldrb	r2, [r7, #15]
 8001734:	6879      	ldr	r1, [r7, #4]
 8001736:	4613      	mov	r3, r2
 8001738:	00db      	lsls	r3, r3, #3
 800173a:	4413      	add	r3, r2
 800173c:	009b      	lsls	r3, r3, #2
 800173e:	440b      	add	r3, r1
 8001740:	333c      	adds	r3, #60	; 0x3c
 8001742:	7bfa      	ldrb	r2, [r7, #15]
 8001744:	701a      	strb	r2, [r3, #0]
    hpcd->IN_ep[i].tx_fifo_num = i;
 8001746:	7bfa      	ldrb	r2, [r7, #15]
 8001748:	7bfb      	ldrb	r3, [r7, #15]
 800174a:	b298      	uxth	r0, r3
 800174c:	6879      	ldr	r1, [r7, #4]
 800174e:	4613      	mov	r3, r2
 8001750:	00db      	lsls	r3, r3, #3
 8001752:	4413      	add	r3, r2
 8001754:	009b      	lsls	r3, r3, #2
 8001756:	440b      	add	r3, r1
 8001758:	3344      	adds	r3, #68	; 0x44
 800175a:	4602      	mov	r2, r0
 800175c:	801a      	strh	r2, [r3, #0]
    /* Control until ep is activated */
    hpcd->IN_ep[i].type = EP_TYPE_CTRL;
 800175e:	7bfa      	ldrb	r2, [r7, #15]
 8001760:	6879      	ldr	r1, [r7, #4]
 8001762:	4613      	mov	r3, r2
 8001764:	00db      	lsls	r3, r3, #3
 8001766:	4413      	add	r3, r2
 8001768:	009b      	lsls	r3, r3, #2
 800176a:	440b      	add	r3, r1
 800176c:	3340      	adds	r3, #64	; 0x40
 800176e:	2200      	movs	r2, #0
 8001770:	701a      	strb	r2, [r3, #0]
    hpcd->IN_ep[i].maxpacket = 0U;
 8001772:	7bfa      	ldrb	r2, [r7, #15]
 8001774:	6879      	ldr	r1, [r7, #4]
 8001776:	4613      	mov	r3, r2
 8001778:	00db      	lsls	r3, r3, #3
 800177a:	4413      	add	r3, r2
 800177c:	009b      	lsls	r3, r3, #2
 800177e:	440b      	add	r3, r1
 8001780:	3348      	adds	r3, #72	; 0x48
 8001782:	2200      	movs	r2, #0
 8001784:	601a      	str	r2, [r3, #0]
    hpcd->IN_ep[i].xfer_buff = 0U;
 8001786:	7bfa      	ldrb	r2, [r7, #15]
 8001788:	6879      	ldr	r1, [r7, #4]
 800178a:	4613      	mov	r3, r2
 800178c:	00db      	lsls	r3, r3, #3
 800178e:	4413      	add	r3, r2
 8001790:	009b      	lsls	r3, r3, #2
 8001792:	440b      	add	r3, r1
 8001794:	334c      	adds	r3, #76	; 0x4c
 8001796:	2200      	movs	r2, #0
 8001798:	601a      	str	r2, [r3, #0]
    hpcd->IN_ep[i].xfer_len = 0U;
 800179a:	7bfa      	ldrb	r2, [r7, #15]
 800179c:	6879      	ldr	r1, [r7, #4]
 800179e:	4613      	mov	r3, r2
 80017a0:	00db      	lsls	r3, r3, #3
 80017a2:	4413      	add	r3, r2
 80017a4:	009b      	lsls	r3, r3, #2
 80017a6:	440b      	add	r3, r1
 80017a8:	3354      	adds	r3, #84	; 0x54
 80017aa:	2200      	movs	r2, #0
 80017ac:	601a      	str	r2, [r3, #0]
  for (i = 0U; i < hpcd->Init.dev_endpoints; i++)
 80017ae:	7bfb      	ldrb	r3, [r7, #15]
 80017b0:	3301      	adds	r3, #1
 80017b2:	73fb      	strb	r3, [r7, #15]
 80017b4:	7bfa      	ldrb	r2, [r7, #15]
 80017b6:	687b      	ldr	r3, [r7, #4]
 80017b8:	685b      	ldr	r3, [r3, #4]
 80017ba:	429a      	cmp	r2, r3
 80017bc:	d3af      	bcc.n	800171e <HAL_PCD_Init+0xa2>
  }

  for (i = 0U; i < hpcd->Init.dev_endpoints; i++)
 80017be:	2300      	movs	r3, #0
 80017c0:	73fb      	strb	r3, [r7, #15]
 80017c2:	e044      	b.n	800184e <HAL_PCD_Init+0x1d2>
  {
    hpcd->OUT_ep[i].is_in = 0U;
 80017c4:	7bfa      	ldrb	r2, [r7, #15]
 80017c6:	6879      	ldr	r1, [r7, #4]
 80017c8:	4613      	mov	r3, r2
 80017ca:	00db      	lsls	r3, r3, #3
 80017cc:	4413      	add	r3, r2
 80017ce:	009b      	lsls	r3, r3, #2
 80017d0:	440b      	add	r3, r1
 80017d2:	f203 237d 	addw	r3, r3, #637	; 0x27d
 80017d6:	2200      	movs	r2, #0
 80017d8:	701a      	strb	r2, [r3, #0]
    hpcd->OUT_ep[i].num = i;
 80017da:	7bfa      	ldrb	r2, [r7, #15]
 80017dc:	6879      	ldr	r1, [r7, #4]
 80017de:	4613      	mov	r3, r2
 80017e0:	00db      	lsls	r3, r3, #3
 80017e2:	4413      	add	r3, r2
 80017e4:	009b      	lsls	r3, r3, #2
 80017e6:	440b      	add	r3, r1
 80017e8:	f503 731f 	add.w	r3, r3, #636	; 0x27c
 80017ec:	7bfa      	ldrb	r2, [r7, #15]
 80017ee:	701a      	strb	r2, [r3, #0]
    /* Control until ep is activated */
    hpcd->OUT_ep[i].type = EP_TYPE_CTRL;
 80017f0:	7bfa      	ldrb	r2, [r7, #15]
 80017f2:	6879      	ldr	r1, [r7, #4]
 80017f4:	4613      	mov	r3, r2
 80017f6:	00db      	lsls	r3, r3, #3
 80017f8:	4413      	add	r3, r2
 80017fa:	009b      	lsls	r3, r3, #2
 80017fc:	440b      	add	r3, r1
 80017fe:	f503 7320 	add.w	r3, r3, #640	; 0x280
 8001802:	2200      	movs	r2, #0
 8001804:	701a      	strb	r2, [r3, #0]
    hpcd->OUT_ep[i].maxpacket = 0U;
 8001806:	7bfa      	ldrb	r2, [r7, #15]
 8001808:	6879      	ldr	r1, [r7, #4]
 800180a:	4613      	mov	r3, r2
 800180c:	00db      	lsls	r3, r3, #3
 800180e:	4413      	add	r3, r2
 8001810:	009b      	lsls	r3, r3, #2
 8001812:	440b      	add	r3, r1
 8001814:	f503 7322 	add.w	r3, r3, #648	; 0x288
 8001818:	2200      	movs	r2, #0
 800181a:	601a      	str	r2, [r3, #0]
    hpcd->OUT_ep[i].xfer_buff = 0U;
 800181c:	7bfa      	ldrb	r2, [r7, #15]
 800181e:	6879      	ldr	r1, [r7, #4]
 8001820:	4613      	mov	r3, r2
 8001822:	00db      	lsls	r3, r3, #3
 8001824:	4413      	add	r3, r2
 8001826:	009b      	lsls	r3, r3, #2
 8001828:	440b      	add	r3, r1
 800182a:	f503 7323 	add.w	r3, r3, #652	; 0x28c
 800182e:	2200      	movs	r2, #0
 8001830:	601a      	str	r2, [r3, #0]
    hpcd->OUT_ep[i].xfer_len = 0U;
 8001832:	7bfa      	ldrb	r2, [r7, #15]
 8001834:	6879      	ldr	r1, [r7, #4]
 8001836:	4613      	mov	r3, r2
 8001838:	00db      	lsls	r3, r3, #3
 800183a:	4413      	add	r3, r2
 800183c:	009b      	lsls	r3, r3, #2
 800183e:	440b      	add	r3, r1
 8001840:	f503 7325 	add.w	r3, r3, #660	; 0x294
 8001844:	2200      	movs	r2, #0
 8001846:	601a      	str	r2, [r3, #0]
  for (i = 0U; i < hpcd->Init.dev_endpoints; i++)
 8001848:	7bfb      	ldrb	r3, [r7, #15]
 800184a:	3301      	adds	r3, #1
 800184c:	73fb      	strb	r3, [r7, #15]
 800184e:	7bfa      	ldrb	r2, [r7, #15]
 8001850:	687b      	ldr	r3, [r7, #4]
 8001852:	685b      	ldr	r3, [r3, #4]
 8001854:	429a      	cmp	r2, r3
 8001856:	d3b5      	bcc.n	80017c4 <HAL_PCD_Init+0x148>
  }

  /* Init Device */
  if (USB_DevInit(hpcd->Instance, hpcd->Init) != HAL_OK)
 8001858:	687b      	ldr	r3, [r7, #4]
 800185a:	681b      	ldr	r3, [r3, #0]
 800185c:	603b      	str	r3, [r7, #0]
 800185e:	687e      	ldr	r6, [r7, #4]
 8001860:	466d      	mov	r5, sp
 8001862:	f106 0410 	add.w	r4, r6, #16
 8001866:	cc0f      	ldmia	r4!, {r0, r1, r2, r3}
 8001868:	c50f      	stmia	r5!, {r0, r1, r2, r3}
 800186a:	cc0f      	ldmia	r4!, {r0, r1, r2, r3}
 800186c:	c50f      	stmia	r5!, {r0, r1, r2, r3}
 800186e:	e894 0003 	ldmia.w	r4, {r0, r1}
 8001872:	e885 0003 	stmia.w	r5, {r0, r1}
 8001876:	1d33      	adds	r3, r6, #4
 8001878:	cb0e      	ldmia	r3, {r1, r2, r3}
 800187a:	6838      	ldr	r0, [r7, #0]
 800187c:	f004 ffe4 	bl	8006848 <USB_DevInit>
 8001880:	4603      	mov	r3, r0
 8001882:	2b00      	cmp	r3, #0
 8001884:	d005      	beq.n	8001892 <HAL_PCD_Init+0x216>
  {
    hpcd->State = HAL_PCD_STATE_ERROR;
 8001886:	687b      	ldr	r3, [r7, #4]
 8001888:	2202      	movs	r2, #2
 800188a:	f883 24bd 	strb.w	r2, [r3, #1213]	; 0x4bd
    return HAL_ERROR;
 800188e:	2301      	movs	r3, #1
 8001890:	e014      	b.n	80018bc <HAL_PCD_Init+0x240>
  }

  hpcd->USB_Address = 0U;
 8001892:	687b      	ldr	r3, [r7, #4]
 8001894:	2200      	movs	r2, #0
 8001896:	f883 2038 	strb.w	r2, [r3, #56]	; 0x38
  hpcd->State = HAL_PCD_STATE_READY;
 800189a:	687b      	ldr	r3, [r7, #4]
 800189c:	2201      	movs	r2, #1
 800189e:	f883 24bd 	strb.w	r2, [r3, #1213]	; 0x4bd

  /* Activate LPM */
  if (hpcd->Init.lpm_enable == 1U)
 80018a2:	687b      	ldr	r3, [r7, #4]
 80018a4:	6a5b      	ldr	r3, [r3, #36]	; 0x24
 80018a6:	2b01      	cmp	r3, #1
 80018a8:	d102      	bne.n	80018b0 <HAL_PCD_Init+0x234>
  {
    (void)HAL_PCDEx_ActivateLPM(hpcd);
 80018aa:	6878      	ldr	r0, [r7, #4]
 80018ac:	f001 f98c 	bl	8002bc8 <HAL_PCDEx_ActivateLPM>
  }

  (void)USB_DevDisconnect(hpcd->Instance);
 80018b0:	687b      	ldr	r3, [r7, #4]
 80018b2:	681b      	ldr	r3, [r3, #0]
 80018b4:	4618      	mov	r0, r3
 80018b6:	f006 f932 	bl	8007b1e <USB_DevDisconnect>

  return HAL_OK;
 80018ba:	2300      	movs	r3, #0
}
 80018bc:	4618      	mov	r0, r3
 80018be:	3714      	adds	r7, #20
 80018c0:	46bd      	mov	sp, r7
 80018c2:	bdf0      	pop	{r4, r5, r6, r7, pc}

080018c4 <HAL_PCD_Start>:
  * @brief  Start the USB device
  * @param  hpcd PCD handle
  * @retval HAL status
  */
HAL_StatusTypeDef HAL_PCD_Start(PCD_HandleTypeDef *hpcd)
{
 80018c4:	b580      	push	{r7, lr}
 80018c6:	b084      	sub	sp, #16
 80018c8:	af00      	add	r7, sp, #0
 80018ca:	6078      	str	r0, [r7, #4]
  USB_OTG_GlobalTypeDef *USBx = hpcd->Instance;
 80018cc:	687b      	ldr	r3, [r7, #4]
 80018ce:	681b      	ldr	r3, [r3, #0]
 80018d0:	60fb      	str	r3, [r7, #12]

  __HAL_LOCK(hpcd);
 80018d2:	687b      	ldr	r3, [r7, #4]
 80018d4:	f893 34bc 	ldrb.w	r3, [r3, #1212]	; 0x4bc
 80018d8:	2b01      	cmp	r3, #1
 80018da:	d101      	bne.n	80018e0 <HAL_PCD_Start+0x1c>
 80018dc:	2302      	movs	r3, #2
 80018de:	e020      	b.n	8001922 <HAL_PCD_Start+0x5e>
 80018e0:	687b      	ldr	r3, [r7, #4]
 80018e2:	2201      	movs	r2, #1
 80018e4:	f883 24bc 	strb.w	r2, [r3, #1212]	; 0x4bc

  if ((hpcd->Init.battery_charging_enable == 1U) &&
 80018e8:	687b      	ldr	r3, [r7, #4]
 80018ea:	6a9b      	ldr	r3, [r3, #40]	; 0x28
 80018ec:	2b01      	cmp	r3, #1
 80018ee:	d109      	bne.n	8001904 <HAL_PCD_Start+0x40>
      (hpcd->Init.phy_itface != USB_OTG_ULPI_PHY))
 80018f0:	687b      	ldr	r3, [r7, #4]
 80018f2:	699b      	ldr	r3, [r3, #24]
  if ((hpcd->Init.battery_charging_enable == 1U) &&
 80018f4:	2b01      	cmp	r3, #1
 80018f6:	d005      	beq.n	8001904 <HAL_PCD_Start+0x40>
  {
    /* Enable USB Transceiver */
    USBx->GCCFG |= USB_OTG_GCCFG_PWRDWN;
 80018f8:	68fb      	ldr	r3, [r7, #12]
 80018fa:	6b9b      	ldr	r3, [r3, #56]	; 0x38
 80018fc:	f443 3280 	orr.w	r2, r3, #65536	; 0x10000
 8001900:	68fb      	ldr	r3, [r7, #12]
 8001902:	639a      	str	r2, [r3, #56]	; 0x38
  }

  __HAL_PCD_ENABLE(hpcd);
 8001904:	687b      	ldr	r3, [r7, #4]
 8001906:	681b      	ldr	r3, [r3, #0]
 8001908:	4618      	mov	r0, r3
 800190a:	f004 ff2f 	bl	800676c <USB_EnableGlobalInt>
  (void)USB_DevConnect(hpcd->Instance);
 800190e:	687b      	ldr	r3, [r7, #4]
 8001910:	681b      	ldr	r3, [r3, #0]
 8001912:	4618      	mov	r0, r3
 8001914:	f006 f8e2 	bl	8007adc <USB_DevConnect>
  __HAL_UNLOCK(hpcd);
 8001918:	687b      	ldr	r3, [r7, #4]
 800191a:	2200      	movs	r2, #0
 800191c:	f883 24bc 	strb.w	r2, [r3, #1212]	; 0x4bc

  return HAL_OK;
 8001920:	2300      	movs	r3, #0
}
 8001922:	4618      	mov	r0, r3
 8001924:	3710      	adds	r7, #16
 8001926:	46bd      	mov	sp, r7
 8001928:	bd80      	pop	{r7, pc}

0800192a <HAL_PCD_IRQHandler>:
  * @brief  Handles PCD interrupt request.
  * @param  hpcd PCD handle
  * @retval HAL status
  */
void HAL_PCD_IRQHandler(PCD_HandleTypeDef *hpcd)
{
 800192a:	b590      	push	{r4, r7, lr}
 800192c:	b08d      	sub	sp, #52	; 0x34
 800192e:	af00      	add	r7, sp, #0
 8001930:	6078      	str	r0, [r7, #4]
  USB_OTG_GlobalTypeDef *USBx = hpcd->Instance;
 8001932:	687b      	ldr	r3, [r7, #4]
 8001934:	681b      	ldr	r3, [r3, #0]
 8001936:	623b      	str	r3, [r7, #32]
  uint32_t USBx_BASE = (uint32_t)USBx;
 8001938:	6a3b      	ldr	r3, [r7, #32]
 800193a:	61fb      	str	r3, [r7, #28]
  uint32_t epnum;
  uint32_t fifoemptymsk;
  uint32_t RegVal;

  /* ensure that we are in device mode */
  if (USB_GetMode(hpcd->Instance) == USB_OTG_MODE_DEVICE)
 800193c:	687b      	ldr	r3, [r7, #4]
 800193e:	681b      	ldr	r3, [r3, #0]
 8001940:	4618      	mov	r0, r3
 8001942:	f006 f9a0 	bl	8007c86 <USB_GetMode>
 8001946:	4603      	mov	r3, r0
 8001948:	2b00      	cmp	r3, #0
 800194a:	f040 84b7 	bne.w	80022bc <HAL_PCD_IRQHandler+0x992>
  {
    /* avoid spurious interrupt */
    if (__HAL_PCD_IS_INVALID_INTERRUPT(hpcd))
 800194e:	687b      	ldr	r3, [r7, #4]
 8001950:	681b      	ldr	r3, [r3, #0]
 8001952:	4618      	mov	r0, r3
 8001954:	f006 f904 	bl	8007b60 <USB_ReadInterrupts>
 8001958:	4603      	mov	r3, r0
 800195a:	2b00      	cmp	r3, #0
 800195c:	f000 84ad 	beq.w	80022ba <HAL_PCD_IRQHandler+0x990>
    {
      return;
    }

    /* store current frame number */
    hpcd->FrameNumber = (USBx_DEVICE->DSTS & USB_OTG_DSTS_FNSOF_Msk) >> USB_OTG_DSTS_FNSOF_Pos;
 8001960:	69fb      	ldr	r3, [r7, #28]
 8001962:	f503 6300 	add.w	r3, r3, #2048	; 0x800
 8001966:	689b      	ldr	r3, [r3, #8]
 8001968:	0a1b      	lsrs	r3, r3, #8
 800196a:	f3c3 020d 	ubfx	r2, r3, #0, #14
 800196e:	687b      	ldr	r3, [r7, #4]
 8001970:	f8c3 24fc 	str.w	r2, [r3, #1276]	; 0x4fc

    if (__HAL_PCD_GET_FLAG(hpcd, USB_OTG_GINTSTS_MMIS))
 8001974:	687b      	ldr	r3, [r7, #4]
 8001976:	681b      	ldr	r3, [r3, #0]
 8001978:	4618      	mov	r0, r3
 800197a:	f006 f8f1 	bl	8007b60 <USB_ReadInterrupts>
 800197e:	4603      	mov	r3, r0
 8001980:	f003 0302 	and.w	r3, r3, #2
 8001984:	2b02      	cmp	r3, #2
 8001986:	d107      	bne.n	8001998 <HAL_PCD_IRQHandler+0x6e>
    {
      /* incorrect mode, acknowledge the interrupt */
      __HAL_PCD_CLEAR_FLAG(hpcd, USB_OTG_GINTSTS_MMIS);
 8001988:	687b      	ldr	r3, [r7, #4]
 800198a:	681b      	ldr	r3, [r3, #0]
 800198c:	695a      	ldr	r2, [r3, #20]
 800198e:	687b      	ldr	r3, [r7, #4]
 8001990:	681b      	ldr	r3, [r3, #0]
 8001992:	f002 0202 	and.w	r2, r2, #2
 8001996:	615a      	str	r2, [r3, #20]
    }

    /* Handle RxQLevel Interrupt */
    if (__HAL_PCD_GET_FLAG(hpcd, USB_OTG_GINTSTS_RXFLVL))
 8001998:	687b      	ldr	r3, [r7, #4]
 800199a:	681b      	ldr	r3, [r3, #0]
 800199c:	4618      	mov	r0, r3
 800199e:	f006 f8df 	bl	8007b60 <USB_ReadInterrupts>
 80019a2:	4603      	mov	r3, r0
 80019a4:	f003 0310 	and.w	r3, r3, #16
 80019a8:	2b10      	cmp	r3, #16
 80019aa:	d161      	bne.n	8001a70 <HAL_PCD_IRQHandler+0x146>
    {
      USB_MASK_INTERRUPT(hpcd->Instance, USB_OTG_GINTSTS_RXFLVL);
 80019ac:	687b      	ldr	r3, [r7, #4]
 80019ae:	681b      	ldr	r3, [r3, #0]
 80019b0:	699a      	ldr	r2, [r3, #24]
 80019b2:	687b      	ldr	r3, [r7, #4]
 80019b4:	681b      	ldr	r3, [r3, #0]
 80019b6:	f022 0210 	bic.w	r2, r2, #16
 80019ba:	619a      	str	r2, [r3, #24]

      RegVal = USBx->GRXSTSP;
 80019bc:	6a3b      	ldr	r3, [r7, #32]
 80019be:	6a1b      	ldr	r3, [r3, #32]
 80019c0:	61bb      	str	r3, [r7, #24]

      ep = &hpcd->OUT_ep[RegVal & USB_OTG_GRXSTSP_EPNUM];
 80019c2:	69bb      	ldr	r3, [r7, #24]
 80019c4:	f003 020f 	and.w	r2, r3, #15
 80019c8:	4613      	mov	r3, r2
 80019ca:	00db      	lsls	r3, r3, #3
 80019cc:	4413      	add	r3, r2
 80019ce:	009b      	lsls	r3, r3, #2
 80019d0:	f503 731e 	add.w	r3, r3, #632	; 0x278
 80019d4:	687a      	ldr	r2, [r7, #4]
 80019d6:	4413      	add	r3, r2
 80019d8:	3304      	adds	r3, #4
 80019da:	617b      	str	r3, [r7, #20]

      if (((RegVal & USB_OTG_GRXSTSP_PKTSTS) >> 17) ==  STS_DATA_UPDT)
 80019dc:	69bb      	ldr	r3, [r7, #24]
 80019de:	0c5b      	lsrs	r3, r3, #17
 80019e0:	f003 030f 	and.w	r3, r3, #15
 80019e4:	2b02      	cmp	r3, #2
 80019e6:	d124      	bne.n	8001a32 <HAL_PCD_IRQHandler+0x108>
      {
        if ((RegVal & USB_OTG_GRXSTSP_BCNT) != 0U)
 80019e8:	69ba      	ldr	r2, [r7, #24]
 80019ea:	f647 73f0 	movw	r3, #32752	; 0x7ff0
 80019ee:	4013      	ands	r3, r2
 80019f0:	2b00      	cmp	r3, #0
 80019f2:	d035      	beq.n	8001a60 <HAL_PCD_IRQHandler+0x136>
        {
          (void)USB_ReadPacket(USBx, ep->xfer_buff,
 80019f4:	697b      	ldr	r3, [r7, #20]
 80019f6:	6919      	ldr	r1, [r3, #16]
                               (uint16_t)((RegVal & USB_OTG_GRXSTSP_BCNT) >> 4));
 80019f8:	69bb      	ldr	r3, [r7, #24]
 80019fa:	091b      	lsrs	r3, r3, #4
 80019fc:	b29b      	uxth	r3, r3
          (void)USB_ReadPacket(USBx, ep->xfer_buff,
 80019fe:	f3c3 030a 	ubfx	r3, r3, #0, #11
 8001a02:	b29b      	uxth	r3, r3
 8001a04:	461a      	mov	r2, r3
 8001a06:	6a38      	ldr	r0, [r7, #32]
 8001a08:	f005 ff16 	bl	8007838 <USB_ReadPacket>

          ep->xfer_buff += (RegVal & USB_OTG_GRXSTSP_BCNT) >> 4;
 8001a0c:	697b      	ldr	r3, [r7, #20]
 8001a0e:	691a      	ldr	r2, [r3, #16]
 8001a10:	69bb      	ldr	r3, [r7, #24]
 8001a12:	091b      	lsrs	r3, r3, #4
 8001a14:	f3c3 030a 	ubfx	r3, r3, #0, #11
 8001a18:	441a      	add	r2, r3
 8001a1a:	697b      	ldr	r3, [r7, #20]
 8001a1c:	611a      	str	r2, [r3, #16]
          ep->xfer_count += (RegVal & USB_OTG_GRXSTSP_BCNT) >> 4;
 8001a1e:	697b      	ldr	r3, [r7, #20]
 8001a20:	6a1a      	ldr	r2, [r3, #32]
 8001a22:	69bb      	ldr	r3, [r7, #24]
 8001a24:	091b      	lsrs	r3, r3, #4
 8001a26:	f3c3 030a 	ubfx	r3, r3, #0, #11
 8001a2a:	441a      	add	r2, r3
 8001a2c:	697b      	ldr	r3, [r7, #20]
 8001a2e:	621a      	str	r2, [r3, #32]
 8001a30:	e016      	b.n	8001a60 <HAL_PCD_IRQHandler+0x136>
        }
      }
      else if (((RegVal & USB_OTG_GRXSTSP_PKTSTS) >> 17) == STS_SETUP_UPDT)
 8001a32:	69bb      	ldr	r3, [r7, #24]
 8001a34:	0c5b      	lsrs	r3, r3, #17
 8001a36:	f003 030f 	and.w	r3, r3, #15
 8001a3a:	2b06      	cmp	r3, #6
 8001a3c:	d110      	bne.n	8001a60 <HAL_PCD_IRQHandler+0x136>
      {
        (void)USB_ReadPacket(USBx, (uint8_t *)hpcd->Setup, 8U);
 8001a3e:	687b      	ldr	r3, [r7, #4]
 8001a40:	f203 43c4 	addw	r3, r3, #1220	; 0x4c4
 8001a44:	2208      	movs	r2, #8
 8001a46:	4619      	mov	r1, r3
 8001a48:	6a38      	ldr	r0, [r7, #32]
 8001a4a:	f005 fef5 	bl	8007838 <USB_ReadPacket>
        ep->xfer_count += (RegVal & USB_OTG_GRXSTSP_BCNT) >> 4;
 8001a4e:	697b      	ldr	r3, [r7, #20]
 8001a50:	6a1a      	ldr	r2, [r3, #32]
 8001a52:	69bb      	ldr	r3, [r7, #24]
 8001a54:	091b      	lsrs	r3, r3, #4
 8001a56:	f3c3 030a 	ubfx	r3, r3, #0, #11
 8001a5a:	441a      	add	r2, r3
 8001a5c:	697b      	ldr	r3, [r7, #20]
 8001a5e:	621a      	str	r2, [r3, #32]
      else
      {
        /* ... */
      }

      USB_UNMASK_INTERRUPT(hpcd->Instance, USB_OTG_GINTSTS_RXFLVL);
 8001a60:	687b      	ldr	r3, [r7, #4]
 8001a62:	681b      	ldr	r3, [r3, #0]
 8001a64:	699a      	ldr	r2, [r3, #24]
 8001a66:	687b      	ldr	r3, [r7, #4]
 8001a68:	681b      	ldr	r3, [r3, #0]
 8001a6a:	f042 0210 	orr.w	r2, r2, #16
 8001a6e:	619a      	str	r2, [r3, #24]
    }

    if (__HAL_PCD_GET_FLAG(hpcd, USB_OTG_GINTSTS_OEPINT))
 8001a70:	687b      	ldr	r3, [r7, #4]
 8001a72:	681b      	ldr	r3, [r3, #0]
 8001a74:	4618      	mov	r0, r3
 8001a76:	f006 f873 	bl	8007b60 <USB_ReadInterrupts>
 8001a7a:	4603      	mov	r3, r0
 8001a7c:	f403 2300 	and.w	r3, r3, #524288	; 0x80000
 8001a80:	f5b3 2f00 	cmp.w	r3, #524288	; 0x80000
 8001a84:	f040 80a7 	bne.w	8001bd6 <HAL_PCD_IRQHandler+0x2ac>
    {
      epnum = 0U;
 8001a88:	2300      	movs	r3, #0
 8001a8a:	627b      	str	r3, [r7, #36]	; 0x24

      /* Read in the device interrupt bits */
      ep_intr = USB_ReadDevAllOutEpInterrupt(hpcd->Instance);
 8001a8c:	687b      	ldr	r3, [r7, #4]
 8001a8e:	681b      	ldr	r3, [r3, #0]
 8001a90:	4618      	mov	r0, r3
 8001a92:	f006 f878 	bl	8007b86 <USB_ReadDevAllOutEpInterrupt>
 8001a96:	62b8      	str	r0, [r7, #40]	; 0x28

      while (ep_intr != 0U)
 8001a98:	e099      	b.n	8001bce <HAL_PCD_IRQHandler+0x2a4>
      {
        if ((ep_intr & 0x1U) != 0U)
 8001a9a:	6abb      	ldr	r3, [r7, #40]	; 0x28
 8001a9c:	f003 0301 	and.w	r3, r3, #1
 8001aa0:	2b00      	cmp	r3, #0
 8001aa2:	f000 808e 	beq.w	8001bc2 <HAL_PCD_IRQHandler+0x298>
        {
          epint = USB_ReadDevOutEPInterrupt(hpcd->Instance, (uint8_t)epnum);
 8001aa6:	687b      	ldr	r3, [r7, #4]
 8001aa8:	681b      	ldr	r3, [r3, #0]
 8001aaa:	6a7a      	ldr	r2, [r7, #36]	; 0x24
 8001aac:	b2d2      	uxtb	r2, r2
 8001aae:	4611      	mov	r1, r2
 8001ab0:	4618      	mov	r0, r3
 8001ab2:	f006 f89c 	bl	8007bee <USB_ReadDevOutEPInterrupt>
 8001ab6:	6138      	str	r0, [r7, #16]

          if ((epint & USB_OTG_DOEPINT_XFRC) == USB_OTG_DOEPINT_XFRC)
 8001ab8:	693b      	ldr	r3, [r7, #16]
 8001aba:	f003 0301 	and.w	r3, r3, #1
 8001abe:	2b00      	cmp	r3, #0
 8001ac0:	d00c      	beq.n	8001adc <HAL_PCD_IRQHandler+0x1b2>
          {
            CLEAR_OUT_EP_INTR(epnum, USB_OTG_DOEPINT_XFRC);
 8001ac2:	6a7b      	ldr	r3, [r7, #36]	; 0x24
 8001ac4:	015a      	lsls	r2, r3, #5
 8001ac6:	69fb      	ldr	r3, [r7, #28]
 8001ac8:	4413      	add	r3, r2
 8001aca:	f503 6330 	add.w	r3, r3, #2816	; 0xb00
 8001ace:	461a      	mov	r2, r3
 8001ad0:	2301      	movs	r3, #1
 8001ad2:	6093      	str	r3, [r2, #8]
            (void)PCD_EP_OutXfrComplete_int(hpcd, epnum);
 8001ad4:	6a79      	ldr	r1, [r7, #36]	; 0x24
 8001ad6:	6878      	ldr	r0, [r7, #4]
 8001ad8:	f000 fef0 	bl	80028bc <PCD_EP_OutXfrComplete_int>
          }

          if ((epint & USB_OTG_DOEPINT_STUP) == USB_OTG_DOEPINT_STUP)
 8001adc:	693b      	ldr	r3, [r7, #16]
 8001ade:	f003 0308 	and.w	r3, r3, #8
 8001ae2:	2b00      	cmp	r3, #0
 8001ae4:	d00c      	beq.n	8001b00 <HAL_PCD_IRQHandler+0x1d6>
          {
            CLEAR_OUT_EP_INTR(epnum, USB_OTG_DOEPINT_STUP);
 8001ae6:	6a7b      	ldr	r3, [r7, #36]	; 0x24
 8001ae8:	015a      	lsls	r2, r3, #5
 8001aea:	69fb      	ldr	r3, [r7, #28]
 8001aec:	4413      	add	r3, r2
 8001aee:	f503 6330 	add.w	r3, r3, #2816	; 0xb00
 8001af2:	461a      	mov	r2, r3
 8001af4:	2308      	movs	r3, #8
 8001af6:	6093      	str	r3, [r2, #8]
            /* Class B setup phase done for previous decoded setup */
            (void)PCD_EP_OutSetupPacket_int(hpcd, epnum);
 8001af8:	6a79      	ldr	r1, [r7, #36]	; 0x24
 8001afa:	6878      	ldr	r0, [r7, #4]
 8001afc:	f000 ffc6 	bl	8002a8c <PCD_EP_OutSetupPacket_int>
          }

          if ((epint & USB_OTG_DOEPINT_OTEPDIS) == USB_OTG_DOEPINT_OTEPDIS)
 8001b00:	693b      	ldr	r3, [r7, #16]
 8001b02:	f003 0310 	and.w	r3, r3, #16
 8001b06:	2b00      	cmp	r3, #0
 8001b08:	d008      	beq.n	8001b1c <HAL_PCD_IRQHandler+0x1f2>
          {
            CLEAR_OUT_EP_INTR(epnum, USB_OTG_DOEPINT_OTEPDIS);
 8001b0a:	6a7b      	ldr	r3, [r7, #36]	; 0x24
 8001b0c:	015a      	lsls	r2, r3, #5
 8001b0e:	69fb      	ldr	r3, [r7, #28]
 8001b10:	4413      	add	r3, r2
 8001b12:	f503 6330 	add.w	r3, r3, #2816	; 0xb00
 8001b16:	461a      	mov	r2, r3
 8001b18:	2310      	movs	r3, #16
 8001b1a:	6093      	str	r3, [r2, #8]
          }

          /* Clear OUT Endpoint disable interrupt */
          if ((epint & USB_OTG_DOEPINT_EPDISD) == USB_OTG_DOEPINT_EPDISD)
 8001b1c:	693b      	ldr	r3, [r7, #16]
 8001b1e:	f003 0302 	and.w	r3, r3, #2
 8001b22:	2b00      	cmp	r3, #0
 8001b24:	d030      	beq.n	8001b88 <HAL_PCD_IRQHandler+0x25e>
          {
            if ((USBx->GINTSTS & USB_OTG_GINTSTS_BOUTNAKEFF) == USB_OTG_GINTSTS_BOUTNAKEFF)
 8001b26:	6a3b      	ldr	r3, [r7, #32]
 8001b28:	695b      	ldr	r3, [r3, #20]
 8001b2a:	f003 0380 	and.w	r3, r3, #128	; 0x80
 8001b2e:	2b80      	cmp	r3, #128	; 0x80
 8001b30:	d109      	bne.n	8001b46 <HAL_PCD_IRQHandler+0x21c>
            {
              USBx_DEVICE->DCTL |= USB_OTG_DCTL_CGONAK;
 8001b32:	69fb      	ldr	r3, [r7, #28]
 8001b34:	f503 6300 	add.w	r3, r3, #2048	; 0x800
 8001b38:	685b      	ldr	r3, [r3, #4]
 8001b3a:	69fa      	ldr	r2, [r7, #28]
 8001b3c:	f502 6200 	add.w	r2, r2, #2048	; 0x800
 8001b40:	f443 6380 	orr.w	r3, r3, #1024	; 0x400
 8001b44:	6053      	str	r3, [r2, #4]
            }

            ep = &hpcd->OUT_ep[epnum];
 8001b46:	6a7a      	ldr	r2, [r7, #36]	; 0x24
 8001b48:	4613      	mov	r3, r2
 8001b4a:	00db      	lsls	r3, r3, #3
 8001b4c:	4413      	add	r3, r2
 8001b4e:	009b      	lsls	r3, r3, #2
 8001b50:	f503 731e 	add.w	r3, r3, #632	; 0x278
 8001b54:	687a      	ldr	r2, [r7, #4]
 8001b56:	4413      	add	r3, r2
 8001b58:	3304      	adds	r3, #4
 8001b5a:	617b      	str	r3, [r7, #20]

            if (ep->is_iso_incomplete == 1U)
 8001b5c:	697b      	ldr	r3, [r7, #20]
 8001b5e:	78db      	ldrb	r3, [r3, #3]
 8001b60:	2b01      	cmp	r3, #1
 8001b62:	d108      	bne.n	8001b76 <HAL_PCD_IRQHandler+0x24c>
            {
              ep->is_iso_incomplete = 0U;
 8001b64:	697b      	ldr	r3, [r7, #20]
 8001b66:	2200      	movs	r2, #0
 8001b68:	70da      	strb	r2, [r3, #3]

#if (USE_HAL_PCD_REGISTER_CALLBACKS == 1U)
              hpcd->ISOOUTIncompleteCallback(hpcd, (uint8_t)epnum);
#else
              HAL_PCD_ISOOUTIncompleteCallback(hpcd, (uint8_t)epnum);
 8001b6a:	6a7b      	ldr	r3, [r7, #36]	; 0x24
 8001b6c:	b2db      	uxtb	r3, r3
 8001b6e:	4619      	mov	r1, r3
 8001b70:	6878      	ldr	r0, [r7, #4]
 8001b72:	f008 fd17 	bl	800a5a4 <HAL_PCD_ISOOUTIncompleteCallback>
#endif /* USE_HAL_PCD_REGISTER_CALLBACKS */
            }

            CLEAR_OUT_EP_INTR(epnum, USB_OTG_DOEPINT_EPDISD);
 8001b76:	6a7b      	ldr	r3, [r7, #36]	; 0x24
 8001b78:	015a      	lsls	r2, r3, #5
 8001b7a:	69fb      	ldr	r3, [r7, #28]
 8001b7c:	4413      	add	r3, r2
 8001b7e:	f503 6330 	add.w	r3, r3, #2816	; 0xb00
 8001b82:	461a      	mov	r2, r3
 8001b84:	2302      	movs	r3, #2
 8001b86:	6093      	str	r3, [r2, #8]
          }

          /* Clear Status Phase Received interrupt */
          if ((epint & USB_OTG_DOEPINT_OTEPSPR) == USB_OTG_DOEPINT_OTEPSPR)
 8001b88:	693b      	ldr	r3, [r7, #16]
 8001b8a:	f003 0320 	and.w	r3, r3, #32
 8001b8e:	2b00      	cmp	r3, #0
 8001b90:	d008      	beq.n	8001ba4 <HAL_PCD_IRQHandler+0x27a>
          {
            CLEAR_OUT_EP_INTR(epnum, USB_OTG_DOEPINT_OTEPSPR);
 8001b92:	6a7b      	ldr	r3, [r7, #36]	; 0x24
 8001b94:	015a      	lsls	r2, r3, #5
 8001b96:	69fb      	ldr	r3, [r7, #28]
 8001b98:	4413      	add	r3, r2
 8001b9a:	f503 6330 	add.w	r3, r3, #2816	; 0xb00
 8001b9e:	461a      	mov	r2, r3
 8001ba0:	2320      	movs	r3, #32
 8001ba2:	6093      	str	r3, [r2, #8]
          }

          /* Clear OUT NAK interrupt */
          if ((epint & USB_OTG_DOEPINT_NAK) == USB_OTG_DOEPINT_NAK)
 8001ba4:	693b      	ldr	r3, [r7, #16]
 8001ba6:	f403 5300 	and.w	r3, r3, #8192	; 0x2000
 8001baa:	2b00      	cmp	r3, #0
 8001bac:	d009      	beq.n	8001bc2 <HAL_PCD_IRQHandler+0x298>
          {
            CLEAR_OUT_EP_INTR(epnum, USB_OTG_DOEPINT_NAK);
 8001bae:	6a7b      	ldr	r3, [r7, #36]	; 0x24
 8001bb0:	015a      	lsls	r2, r3, #5
 8001bb2:	69fb      	ldr	r3, [r7, #28]
 8001bb4:	4413      	add	r3, r2
 8001bb6:	f503 6330 	add.w	r3, r3, #2816	; 0xb00
 8001bba:	461a      	mov	r2, r3
 8001bbc:	f44f 5300 	mov.w	r3, #8192	; 0x2000
 8001bc0:	6093      	str	r3, [r2, #8]
          }
        }
        epnum++;
 8001bc2:	6a7b      	ldr	r3, [r7, #36]	; 0x24
 8001bc4:	3301      	adds	r3, #1
 8001bc6:	627b      	str	r3, [r7, #36]	; 0x24
        ep_intr >>= 1U;
 8001bc8:	6abb      	ldr	r3, [r7, #40]	; 0x28
 8001bca:	085b      	lsrs	r3, r3, #1
 8001bcc:	62bb      	str	r3, [r7, #40]	; 0x28
      while (ep_intr != 0U)
 8001bce:	6abb      	ldr	r3, [r7, #40]	; 0x28
 8001bd0:	2b00      	cmp	r3, #0
 8001bd2:	f47f af62 	bne.w	8001a9a <HAL_PCD_IRQHandler+0x170>
      }
    }

    if (__HAL_PCD_GET_FLAG(hpcd, USB_OTG_GINTSTS_IEPINT))
 8001bd6:	687b      	ldr	r3, [r7, #4]
 8001bd8:	681b      	ldr	r3, [r3, #0]
 8001bda:	4618      	mov	r0, r3
 8001bdc:	f005 ffc0 	bl	8007b60 <USB_ReadInterrupts>
 8001be0:	4603      	mov	r3, r0
 8001be2:	f403 2380 	and.w	r3, r3, #262144	; 0x40000
 8001be6:	f5b3 2f80 	cmp.w	r3, #262144	; 0x40000
 8001bea:	f040 80db 	bne.w	8001da4 <HAL_PCD_IRQHandler+0x47a>
    {
      /* Read in the device interrupt bits */
      ep_intr = USB_ReadDevAllInEpInterrupt(hpcd->Instance);
 8001bee:	687b      	ldr	r3, [r7, #4]
 8001bf0:	681b      	ldr	r3, [r3, #0]
 8001bf2:	4618      	mov	r0, r3
 8001bf4:	f005 ffe1 	bl	8007bba <USB_ReadDevAllInEpInterrupt>
 8001bf8:	62b8      	str	r0, [r7, #40]	; 0x28

      epnum = 0U;
 8001bfa:	2300      	movs	r3, #0
 8001bfc:	627b      	str	r3, [r7, #36]	; 0x24

      while (ep_intr != 0U)
 8001bfe:	e0cd      	b.n	8001d9c <HAL_PCD_IRQHandler+0x472>
      {
        if ((ep_intr & 0x1U) != 0U) /* In ITR */
 8001c00:	6abb      	ldr	r3, [r7, #40]	; 0x28
 8001c02:	f003 0301 	and.w	r3, r3, #1
 8001c06:	2b00      	cmp	r3, #0
 8001c08:	f000 80c2 	beq.w	8001d90 <HAL_PCD_IRQHandler+0x466>
        {
          epint = USB_ReadDevInEPInterrupt(hpcd->Instance, (uint8_t)epnum);
 8001c0c:	687b      	ldr	r3, [r7, #4]
 8001c0e:	681b      	ldr	r3, [r3, #0]
 8001c10:	6a7a      	ldr	r2, [r7, #36]	; 0x24
 8001c12:	b2d2      	uxtb	r2, r2
 8001c14:	4611      	mov	r1, r2
 8001c16:	4618      	mov	r0, r3
 8001c18:	f006 f807 	bl	8007c2a <USB_ReadDevInEPInterrupt>
 8001c1c:	6138      	str	r0, [r7, #16]

          if ((epint & USB_OTG_DIEPINT_XFRC) == USB_OTG_DIEPINT_XFRC)
 8001c1e:	693b      	ldr	r3, [r7, #16]
 8001c20:	f003 0301 	and.w	r3, r3, #1
 8001c24:	2b00      	cmp	r3, #0
 8001c26:	d057      	beq.n	8001cd8 <HAL_PCD_IRQHandler+0x3ae>
          {
            fifoemptymsk = (uint32_t)(0x1UL << (epnum & EP_ADDR_MSK));
 8001c28:	6a7b      	ldr	r3, [r7, #36]	; 0x24
 8001c2a:	f003 030f 	and.w	r3, r3, #15
 8001c2e:	2201      	movs	r2, #1
 8001c30:	fa02 f303 	lsl.w	r3, r2, r3
 8001c34:	60fb      	str	r3, [r7, #12]
            USBx_DEVICE->DIEPEMPMSK &= ~fifoemptymsk;
 8001c36:	69fb      	ldr	r3, [r7, #28]
 8001c38:	f503 6300 	add.w	r3, r3, #2048	; 0x800
 8001c3c:	6b5a      	ldr	r2, [r3, #52]	; 0x34
 8001c3e:	68fb      	ldr	r3, [r7, #12]
 8001c40:	43db      	mvns	r3, r3
 8001c42:	69f9      	ldr	r1, [r7, #28]
 8001c44:	f501 6100 	add.w	r1, r1, #2048	; 0x800
 8001c48:	4013      	ands	r3, r2
 8001c4a:	634b      	str	r3, [r1, #52]	; 0x34

            CLEAR_IN_EP_INTR(epnum, USB_OTG_DIEPINT_XFRC);
 8001c4c:	6a7b      	ldr	r3, [r7, #36]	; 0x24
 8001c4e:	015a      	lsls	r2, r3, #5
 8001c50:	69fb      	ldr	r3, [r7, #28]
 8001c52:	4413      	add	r3, r2
 8001c54:	f503 6310 	add.w	r3, r3, #2304	; 0x900
 8001c58:	461a      	mov	r2, r3
 8001c5a:	2301      	movs	r3, #1
 8001c5c:	6093      	str	r3, [r2, #8]

            if (hpcd->Init.dma_enable == 1U)
 8001c5e:	687b      	ldr	r3, [r7, #4]
 8001c60:	691b      	ldr	r3, [r3, #16]
 8001c62:	2b01      	cmp	r3, #1
 8001c64:	d132      	bne.n	8001ccc <HAL_PCD_IRQHandler+0x3a2>
            {
              hpcd->IN_ep[epnum].xfer_buff += hpcd->IN_ep[epnum].maxpacket;
 8001c66:	6879      	ldr	r1, [r7, #4]
 8001c68:	6a7a      	ldr	r2, [r7, #36]	; 0x24
 8001c6a:	4613      	mov	r3, r2
 8001c6c:	00db      	lsls	r3, r3, #3
 8001c6e:	4413      	add	r3, r2
 8001c70:	009b      	lsls	r3, r3, #2
 8001c72:	440b      	add	r3, r1
 8001c74:	334c      	adds	r3, #76	; 0x4c
 8001c76:	6819      	ldr	r1, [r3, #0]
 8001c78:	6878      	ldr	r0, [r7, #4]
 8001c7a:	6a7a      	ldr	r2, [r7, #36]	; 0x24
 8001c7c:	4613      	mov	r3, r2
 8001c7e:	00db      	lsls	r3, r3, #3
 8001c80:	4413      	add	r3, r2
 8001c82:	009b      	lsls	r3, r3, #2
 8001c84:	4403      	add	r3, r0
 8001c86:	3348      	adds	r3, #72	; 0x48
 8001c88:	681b      	ldr	r3, [r3, #0]
 8001c8a:	4419      	add	r1, r3
 8001c8c:	6878      	ldr	r0, [r7, #4]
 8001c8e:	6a7a      	ldr	r2, [r7, #36]	; 0x24
 8001c90:	4613      	mov	r3, r2
 8001c92:	00db      	lsls	r3, r3, #3
 8001c94:	4413      	add	r3, r2
 8001c96:	009b      	lsls	r3, r3, #2
 8001c98:	4403      	add	r3, r0
 8001c9a:	334c      	adds	r3, #76	; 0x4c
 8001c9c:	6019      	str	r1, [r3, #0]

              /* this is ZLP, so prepare EP0 for next setup */
              if ((epnum == 0U) && (hpcd->IN_ep[epnum].xfer_len == 0U))
 8001c9e:	6a7b      	ldr	r3, [r7, #36]	; 0x24
 8001ca0:	2b00      	cmp	r3, #0
 8001ca2:	d113      	bne.n	8001ccc <HAL_PCD_IRQHandler+0x3a2>
 8001ca4:	6879      	ldr	r1, [r7, #4]
 8001ca6:	6a7a      	ldr	r2, [r7, #36]	; 0x24
 8001ca8:	4613      	mov	r3, r2
 8001caa:	00db      	lsls	r3, r3, #3
 8001cac:	4413      	add	r3, r2
 8001cae:	009b      	lsls	r3, r3, #2
 8001cb0:	440b      	add	r3, r1
 8001cb2:	3354      	adds	r3, #84	; 0x54
 8001cb4:	681b      	ldr	r3, [r3, #0]
 8001cb6:	2b00      	cmp	r3, #0
 8001cb8:	d108      	bne.n	8001ccc <HAL_PCD_IRQHandler+0x3a2>
              {
                /* prepare to rx more setup packets */
                (void)USB_EP0_OutStart(hpcd->Instance, 1U, (uint8_t *)hpcd->Setup);
 8001cba:	687b      	ldr	r3, [r7, #4]
 8001cbc:	6818      	ldr	r0, [r3, #0]
 8001cbe:	687b      	ldr	r3, [r7, #4]
 8001cc0:	f203 43c4 	addw	r3, r3, #1220	; 0x4c4
 8001cc4:	461a      	mov	r2, r3
 8001cc6:	2101      	movs	r1, #1
 8001cc8:	f006 f810 	bl	8007cec <USB_EP0_OutStart>
            }

#if (USE_HAL_PCD_REGISTER_CALLBACKS == 1U)
            hpcd->DataInStageCallback(hpcd, (uint8_t)epnum);
#else
            HAL_PCD_DataInStageCallback(hpcd, (uint8_t)epnum);
 8001ccc:	6a7b      	ldr	r3, [r7, #36]	; 0x24
 8001cce:	b2db      	uxtb	r3, r3
 8001cd0:	4619      	mov	r1, r3
 8001cd2:	6878      	ldr	r0, [r7, #4]
 8001cd4:	f008 fbe1 	bl	800a49a <HAL_PCD_DataInStageCallback>
#endif /* USE_HAL_PCD_REGISTER_CALLBACKS */
          }
          if ((epint & USB_OTG_DIEPINT_TOC) == USB_OTG_DIEPINT_TOC)
 8001cd8:	693b      	ldr	r3, [r7, #16]
 8001cda:	f003 0308 	and.w	r3, r3, #8
 8001cde:	2b00      	cmp	r3, #0
 8001ce0:	d008      	beq.n	8001cf4 <HAL_PCD_IRQHandler+0x3ca>
          {
            CLEAR_IN_EP_INTR(epnum, USB_OTG_DIEPINT_TOC);
 8001ce2:	6a7b      	ldr	r3, [r7, #36]	; 0x24
 8001ce4:	015a      	lsls	r2, r3, #5
 8001ce6:	69fb      	ldr	r3, [r7, #28]
 8001ce8:	4413      	add	r3, r2
 8001cea:	f503 6310 	add.w	r3, r3, #2304	; 0x900
 8001cee:	461a      	mov	r2, r3
 8001cf0:	2308      	movs	r3, #8
 8001cf2:	6093      	str	r3, [r2, #8]
          }
          if ((epint & USB_OTG_DIEPINT_ITTXFE) == USB_OTG_DIEPINT_ITTXFE)
 8001cf4:	693b      	ldr	r3, [r7, #16]
 8001cf6:	f003 0310 	and.w	r3, r3, #16
 8001cfa:	2b00      	cmp	r3, #0
 8001cfc:	d008      	beq.n	8001d10 <HAL_PCD_IRQHandler+0x3e6>
          {
            CLEAR_IN_EP_INTR(epnum, USB_OTG_DIEPINT_ITTXFE);
 8001cfe:	6a7b      	ldr	r3, [r7, #36]	; 0x24
 8001d00:	015a      	lsls	r2, r3, #5
 8001d02:	69fb      	ldr	r3, [r7, #28]
 8001d04:	4413      	add	r3, r2
 8001d06:	f503 6310 	add.w	r3, r3, #2304	; 0x900
 8001d0a:	461a      	mov	r2, r3
 8001d0c:	2310      	movs	r3, #16
 8001d0e:	6093      	str	r3, [r2, #8]
          }
          if ((epint & USB_OTG_DIEPINT_INEPNE) == USB_OTG_DIEPINT_INEPNE)
 8001d10:	693b      	ldr	r3, [r7, #16]
 8001d12:	f003 0340 	and.w	r3, r3, #64	; 0x40
 8001d16:	2b00      	cmp	r3, #0
 8001d18:	d008      	beq.n	8001d2c <HAL_PCD_IRQHandler+0x402>
          {
            CLEAR_IN_EP_INTR(epnum, USB_OTG_DIEPINT_INEPNE);
 8001d1a:	6a7b      	ldr	r3, [r7, #36]	; 0x24
 8001d1c:	015a      	lsls	r2, r3, #5
 8001d1e:	69fb      	ldr	r3, [r7, #28]
 8001d20:	4413      	add	r3, r2
 8001d22:	f503 6310 	add.w	r3, r3, #2304	; 0x900
 8001d26:	461a      	mov	r2, r3
 8001d28:	2340      	movs	r3, #64	; 0x40
 8001d2a:	6093      	str	r3, [r2, #8]
          }
          if ((epint & USB_OTG_DIEPINT_EPDISD) == USB_OTG_DIEPINT_EPDISD)
 8001d2c:	693b      	ldr	r3, [r7, #16]
 8001d2e:	f003 0302 	and.w	r3, r3, #2
 8001d32:	2b00      	cmp	r3, #0
 8001d34:	d023      	beq.n	8001d7e <HAL_PCD_IRQHandler+0x454>
          {
            (void)USB_FlushTxFifo(USBx, epnum);
 8001d36:	6a79      	ldr	r1, [r7, #36]	; 0x24
 8001d38:	6a38      	ldr	r0, [r7, #32]
 8001d3a:	f004 fee3 	bl	8006b04 <USB_FlushTxFifo>

            ep = &hpcd->IN_ep[epnum];
 8001d3e:	6a7a      	ldr	r2, [r7, #36]	; 0x24
 8001d40:	4613      	mov	r3, r2
 8001d42:	00db      	lsls	r3, r3, #3
 8001d44:	4413      	add	r3, r2
 8001d46:	009b      	lsls	r3, r3, #2
 8001d48:	3338      	adds	r3, #56	; 0x38
 8001d4a:	687a      	ldr	r2, [r7, #4]
 8001d4c:	4413      	add	r3, r2
 8001d4e:	3304      	adds	r3, #4
 8001d50:	617b      	str	r3, [r7, #20]

            if (ep->is_iso_incomplete == 1U)
 8001d52:	697b      	ldr	r3, [r7, #20]
 8001d54:	78db      	ldrb	r3, [r3, #3]
 8001d56:	2b01      	cmp	r3, #1
 8001d58:	d108      	bne.n	8001d6c <HAL_PCD_IRQHandler+0x442>
            {
              ep->is_iso_incomplete = 0U;
 8001d5a:	697b      	ldr	r3, [r7, #20]
 8001d5c:	2200      	movs	r2, #0
 8001d5e:	70da      	strb	r2, [r3, #3]

#if (USE_HAL_PCD_REGISTER_CALLBACKS == 1U)
              hpcd->ISOINIncompleteCallback(hpcd, (uint8_t)epnum);
#else
              HAL_PCD_ISOINIncompleteCallback(hpcd, (uint8_t)epnum);
 8001d60:	6a7b      	ldr	r3, [r7, #36]	; 0x24
 8001d62:	b2db      	uxtb	r3, r3
 8001d64:	4619      	mov	r1, r3
 8001d66:	6878      	ldr	r0, [r7, #4]
 8001d68:	f008 fc2e 	bl	800a5c8 <HAL_PCD_ISOINIncompleteCallback>
#endif /* USE_HAL_PCD_REGISTER_CALLBACKS */
            }

            CLEAR_IN_EP_INTR(epnum, USB_OTG_DIEPINT_EPDISD);
 8001d6c:	6a7b      	ldr	r3, [r7, #36]	; 0x24
 8001d6e:	015a      	lsls	r2, r3, #5
 8001d70:	69fb      	ldr	r3, [r7, #28]
 8001d72:	4413      	add	r3, r2
 8001d74:	f503 6310 	add.w	r3, r3, #2304	; 0x900
 8001d78:	461a      	mov	r2, r3
 8001d7a:	2302      	movs	r3, #2
 8001d7c:	6093      	str	r3, [r2, #8]
          }
          if ((epint & USB_OTG_DIEPINT_TXFE) == USB_OTG_DIEPINT_TXFE)
 8001d7e:	693b      	ldr	r3, [r7, #16]
 8001d80:	f003 0380 	and.w	r3, r3, #128	; 0x80
 8001d84:	2b00      	cmp	r3, #0
 8001d86:	d003      	beq.n	8001d90 <HAL_PCD_IRQHandler+0x466>
          {
            (void)PCD_WriteEmptyTxFifo(hpcd, epnum);
 8001d88:	6a79      	ldr	r1, [r7, #36]	; 0x24
 8001d8a:	6878      	ldr	r0, [r7, #4]
 8001d8c:	f000 fd08 	bl	80027a0 <PCD_WriteEmptyTxFifo>
          }
        }
        epnum++;
 8001d90:	6a7b      	ldr	r3, [r7, #36]	; 0x24
 8001d92:	3301      	adds	r3, #1
 8001d94:	627b      	str	r3, [r7, #36]	; 0x24
        ep_intr >>= 1U;
 8001d96:	6abb      	ldr	r3, [r7, #40]	; 0x28
 8001d98:	085b      	lsrs	r3, r3, #1
 8001d9a:	62bb      	str	r3, [r7, #40]	; 0x28
      while (ep_intr != 0U)
 8001d9c:	6abb      	ldr	r3, [r7, #40]	; 0x28
 8001d9e:	2b00      	cmp	r3, #0
 8001da0:	f47f af2e 	bne.w	8001c00 <HAL_PCD_IRQHandler+0x2d6>
      }
    }

    /* Handle Resume Interrupt */
    if (__HAL_PCD_GET_FLAG(hpcd, USB_OTG_GINTSTS_WKUINT))
 8001da4:	687b      	ldr	r3, [r7, #4]
 8001da6:	681b      	ldr	r3, [r3, #0]
 8001da8:	4618      	mov	r0, r3
 8001daa:	f005 fed9 	bl	8007b60 <USB_ReadInterrupts>
 8001dae:	4603      	mov	r3, r0
 8001db0:	f003 4300 	and.w	r3, r3, #2147483648	; 0x80000000
 8001db4:	f1b3 4f00 	cmp.w	r3, #2147483648	; 0x80000000
 8001db8:	d122      	bne.n	8001e00 <HAL_PCD_IRQHandler+0x4d6>
    {
      /* Clear the Remote Wake-up Signaling */
      USBx_DEVICE->DCTL &= ~USB_OTG_DCTL_RWUSIG;
 8001dba:	69fb      	ldr	r3, [r7, #28]
 8001dbc:	f503 6300 	add.w	r3, r3, #2048	; 0x800
 8001dc0:	685b      	ldr	r3, [r3, #4]
 8001dc2:	69fa      	ldr	r2, [r7, #28]
 8001dc4:	f502 6200 	add.w	r2, r2, #2048	; 0x800
 8001dc8:	f023 0301 	bic.w	r3, r3, #1
 8001dcc:	6053      	str	r3, [r2, #4]

      if (hpcd->LPM_State == LPM_L1)
 8001dce:	687b      	ldr	r3, [r7, #4]
 8001dd0:	f893 34f4 	ldrb.w	r3, [r3, #1268]	; 0x4f4
 8001dd4:	2b01      	cmp	r3, #1
 8001dd6:	d108      	bne.n	8001dea <HAL_PCD_IRQHandler+0x4c0>
      {
        hpcd->LPM_State = LPM_L0;
 8001dd8:	687b      	ldr	r3, [r7, #4]
 8001dda:	2200      	movs	r2, #0
 8001ddc:	f883 24f4 	strb.w	r2, [r3, #1268]	; 0x4f4

#if (USE_HAL_PCD_REGISTER_CALLBACKS == 1U)
        hpcd->LPMCallback(hpcd, PCD_LPM_L0_ACTIVE);
#else
        HAL_PCDEx_LPM_Callback(hpcd, PCD_LPM_L0_ACTIVE);
 8001de0:	2100      	movs	r1, #0
 8001de2:	6878      	ldr	r0, [r7, #4]
 8001de4:	f000 ff14 	bl	8002c10 <HAL_PCDEx_LPM_Callback>
 8001de8:	e002      	b.n	8001df0 <HAL_PCD_IRQHandler+0x4c6>
      else
      {
#if (USE_HAL_PCD_REGISTER_CALLBACKS == 1U)
        hpcd->ResumeCallback(hpcd);
#else
        HAL_PCD_ResumeCallback(hpcd);
 8001dea:	6878      	ldr	r0, [r7, #4]
 8001dec:	f008 fbcc 	bl	800a588 <HAL_PCD_ResumeCallback>
#endif /* USE_HAL_PCD_REGISTER_CALLBACKS */
      }

      __HAL_PCD_CLEAR_FLAG(hpcd, USB_OTG_GINTSTS_WKUINT);
 8001df0:	687b      	ldr	r3, [r7, #4]
 8001df2:	681b      	ldr	r3, [r3, #0]
 8001df4:	695a      	ldr	r2, [r3, #20]
 8001df6:	687b      	ldr	r3, [r7, #4]
 8001df8:	681b      	ldr	r3, [r3, #0]
 8001dfa:	f002 4200 	and.w	r2, r2, #2147483648	; 0x80000000
 8001dfe:	615a      	str	r2, [r3, #20]
    }

    /* Handle Suspend Interrupt */
    if (__HAL_PCD_GET_FLAG(hpcd, USB_OTG_GINTSTS_USBSUSP))
 8001e00:	687b      	ldr	r3, [r7, #4]
 8001e02:	681b      	ldr	r3, [r3, #0]
 8001e04:	4618      	mov	r0, r3
 8001e06:	f005 feab 	bl	8007b60 <USB_ReadInterrupts>
 8001e0a:	4603      	mov	r3, r0
 8001e0c:	f403 6300 	and.w	r3, r3, #2048	; 0x800
 8001e10:	f5b3 6f00 	cmp.w	r3, #2048	; 0x800
 8001e14:	d112      	bne.n	8001e3c <HAL_PCD_IRQHandler+0x512>
    {
      if ((USBx_DEVICE->DSTS & USB_OTG_DSTS_SUSPSTS) == USB_OTG_DSTS_SUSPSTS)
 8001e16:	69fb      	ldr	r3, [r7, #28]
 8001e18:	f503 6300 	add.w	r3, r3, #2048	; 0x800
 8001e1c:	689b      	ldr	r3, [r3, #8]
 8001e1e:	f003 0301 	and.w	r3, r3, #1
 8001e22:	2b01      	cmp	r3, #1
 8001e24:	d102      	bne.n	8001e2c <HAL_PCD_IRQHandler+0x502>
      {
#if (USE_HAL_PCD_REGISTER_CALLBACKS == 1U)
        hpcd->SuspendCallback(hpcd);
#else
        HAL_PCD_SuspendCallback(hpcd);
 8001e26:	6878      	ldr	r0, [r7, #4]
 8001e28:	f008 fb88 	bl	800a53c <HAL_PCD_SuspendCallback>
#endif /* USE_HAL_PCD_REGISTER_CALLBACKS */
      }
      __HAL_PCD_CLEAR_FLAG(hpcd, USB_OTG_GINTSTS_USBSUSP);
 8001e2c:	687b      	ldr	r3, [r7, #4]
 8001e2e:	681b      	ldr	r3, [r3, #0]
 8001e30:	695a      	ldr	r2, [r3, #20]
 8001e32:	687b      	ldr	r3, [r7, #4]
 8001e34:	681b      	ldr	r3, [r3, #0]
 8001e36:	f402 6200 	and.w	r2, r2, #2048	; 0x800
 8001e3a:	615a      	str	r2, [r3, #20]
    }

    /* Handle LPM Interrupt */
    if (__HAL_PCD_GET_FLAG(hpcd, USB_OTG_GINTSTS_LPMINT))
 8001e3c:	687b      	ldr	r3, [r7, #4]
 8001e3e:	681b      	ldr	r3, [r3, #0]
 8001e40:	4618      	mov	r0, r3
 8001e42:	f005 fe8d 	bl	8007b60 <USB_ReadInterrupts>
 8001e46:	4603      	mov	r3, r0
 8001e48:	f003 6300 	and.w	r3, r3, #134217728	; 0x8000000
 8001e4c:	f1b3 6f00 	cmp.w	r3, #134217728	; 0x8000000
 8001e50:	d121      	bne.n	8001e96 <HAL_PCD_IRQHandler+0x56c>
    {
      __HAL_PCD_CLEAR_FLAG(hpcd, USB_OTG_GINTSTS_LPMINT);
 8001e52:	687b      	ldr	r3, [r7, #4]
 8001e54:	681b      	ldr	r3, [r3, #0]
 8001e56:	695a      	ldr	r2, [r3, #20]
 8001e58:	687b      	ldr	r3, [r7, #4]
 8001e5a:	681b      	ldr	r3, [r3, #0]
 8001e5c:	f002 6200 	and.w	r2, r2, #134217728	; 0x8000000
 8001e60:	615a      	str	r2, [r3, #20]

      if (hpcd->LPM_State == LPM_L0)
 8001e62:	687b      	ldr	r3, [r7, #4]
 8001e64:	f893 34f4 	ldrb.w	r3, [r3, #1268]	; 0x4f4
 8001e68:	2b00      	cmp	r3, #0
 8001e6a:	d111      	bne.n	8001e90 <HAL_PCD_IRQHandler+0x566>
      {
        hpcd->LPM_State = LPM_L1;
 8001e6c:	687b      	ldr	r3, [r7, #4]
 8001e6e:	2201      	movs	r2, #1
 8001e70:	f883 24f4 	strb.w	r2, [r3, #1268]	; 0x4f4
        hpcd->BESL = (hpcd->Instance->GLPMCFG & USB_OTG_GLPMCFG_BESL) >> 2U;
 8001e74:	687b      	ldr	r3, [r7, #4]
 8001e76:	681b      	ldr	r3, [r3, #0]
 8001e78:	6d5b      	ldr	r3, [r3, #84]	; 0x54
 8001e7a:	089b      	lsrs	r3, r3, #2
 8001e7c:	f003 020f 	and.w	r2, r3, #15
 8001e80:	687b      	ldr	r3, [r7, #4]
 8001e82:	f8c3 24f8 	str.w	r2, [r3, #1272]	; 0x4f8

#if (USE_HAL_PCD_REGISTER_CALLBACKS == 1U)
        hpcd->LPMCallback(hpcd, PCD_LPM_L1_ACTIVE);
#else
        HAL_PCDEx_LPM_Callback(hpcd, PCD_LPM_L1_ACTIVE);
 8001e86:	2101      	movs	r1, #1
 8001e88:	6878      	ldr	r0, [r7, #4]
 8001e8a:	f000 fec1 	bl	8002c10 <HAL_PCDEx_LPM_Callback>
 8001e8e:	e002      	b.n	8001e96 <HAL_PCD_IRQHandler+0x56c>
      else
      {
#if (USE_HAL_PCD_REGISTER_CALLBACKS == 1U)
        hpcd->SuspendCallback(hpcd);
#else
        HAL_PCD_SuspendCallback(hpcd);
 8001e90:	6878      	ldr	r0, [r7, #4]
 8001e92:	f008 fb53 	bl	800a53c <HAL_PCD_SuspendCallback>
#endif /* USE_HAL_PCD_REGISTER_CALLBACKS */
      }
    }

    /* Handle Reset Interrupt */
    if (__HAL_PCD_GET_FLAG(hpcd, USB_OTG_GINTSTS_USBRST))
 8001e96:	687b      	ldr	r3, [r7, #4]
 8001e98:	681b      	ldr	r3, [r3, #0]
 8001e9a:	4618      	mov	r0, r3
 8001e9c:	f005 fe60 	bl	8007b60 <USB_ReadInterrupts>
 8001ea0:	4603      	mov	r3, r0
 8001ea2:	f403 5380 	and.w	r3, r3, #4096	; 0x1000
 8001ea6:	f5b3 5f80 	cmp.w	r3, #4096	; 0x1000
 8001eaa:	f040 80b7 	bne.w	800201c <HAL_PCD_IRQHandler+0x6f2>
    {
      USBx_DEVICE->DCTL &= ~USB_OTG_DCTL_RWUSIG;
 8001eae:	69fb      	ldr	r3, [r7, #28]
 8001eb0:	f503 6300 	add.w	r3, r3, #2048	; 0x800
 8001eb4:	685b      	ldr	r3, [r3, #4]
 8001eb6:	69fa      	ldr	r2, [r7, #28]
 8001eb8:	f502 6200 	add.w	r2, r2, #2048	; 0x800
 8001ebc:	f023 0301 	bic.w	r3, r3, #1
 8001ec0:	6053      	str	r3, [r2, #4]
      (void)USB_FlushTxFifo(hpcd->Instance, 0x10U);
 8001ec2:	687b      	ldr	r3, [r7, #4]
 8001ec4:	681b      	ldr	r3, [r3, #0]
 8001ec6:	2110      	movs	r1, #16
 8001ec8:	4618      	mov	r0, r3
 8001eca:	f004 fe1b 	bl	8006b04 <USB_FlushTxFifo>

      for (i = 0U; i < hpcd->Init.dev_endpoints; i++)
 8001ece:	2300      	movs	r3, #0
 8001ed0:	62fb      	str	r3, [r7, #44]	; 0x2c
 8001ed2:	e046      	b.n	8001f62 <HAL_PCD_IRQHandler+0x638>
      {
        USBx_INEP(i)->DIEPINT = 0xFB7FU;
 8001ed4:	6afb      	ldr	r3, [r7, #44]	; 0x2c
 8001ed6:	015a      	lsls	r2, r3, #5
 8001ed8:	69fb      	ldr	r3, [r7, #28]
 8001eda:	4413      	add	r3, r2
 8001edc:	f503 6310 	add.w	r3, r3, #2304	; 0x900
 8001ee0:	461a      	mov	r2, r3
 8001ee2:	f64f 337f 	movw	r3, #64383	; 0xfb7f
 8001ee6:	6093      	str	r3, [r2, #8]
        USBx_INEP(i)->DIEPCTL &= ~USB_OTG_DIEPCTL_STALL;
 8001ee8:	6afb      	ldr	r3, [r7, #44]	; 0x2c
 8001eea:	015a      	lsls	r2, r3, #5
 8001eec:	69fb      	ldr	r3, [r7, #28]
 8001eee:	4413      	add	r3, r2
 8001ef0:	f503 6310 	add.w	r3, r3, #2304	; 0x900
 8001ef4:	681b      	ldr	r3, [r3, #0]
 8001ef6:	6afa      	ldr	r2, [r7, #44]	; 0x2c
 8001ef8:	0151      	lsls	r1, r2, #5
 8001efa:	69fa      	ldr	r2, [r7, #28]
 8001efc:	440a      	add	r2, r1
 8001efe:	f502 6210 	add.w	r2, r2, #2304	; 0x900
 8001f02:	f423 1300 	bic.w	r3, r3, #2097152	; 0x200000
 8001f06:	6013      	str	r3, [r2, #0]
        USBx_OUTEP(i)->DOEPINT = 0xFB7FU;
 8001f08:	6afb      	ldr	r3, [r7, #44]	; 0x2c
 8001f0a:	015a      	lsls	r2, r3, #5
 8001f0c:	69fb      	ldr	r3, [r7, #28]
 8001f0e:	4413      	add	r3, r2
 8001f10:	f503 6330 	add.w	r3, r3, #2816	; 0xb00
 8001f14:	461a      	mov	r2, r3
 8001f16:	f64f 337f 	movw	r3, #64383	; 0xfb7f
 8001f1a:	6093      	str	r3, [r2, #8]
        USBx_OUTEP(i)->DOEPCTL &= ~USB_OTG_DOEPCTL_STALL;
 8001f1c:	6afb      	ldr	r3, [r7, #44]	; 0x2c
 8001f1e:	015a      	lsls	r2, r3, #5
 8001f20:	69fb      	ldr	r3, [r7, #28]
 8001f22:	4413      	add	r3, r2
 8001f24:	f503 6330 	add.w	r3, r3, #2816	; 0xb00
 8001f28:	681b      	ldr	r3, [r3, #0]
 8001f2a:	6afa      	ldr	r2, [r7, #44]	; 0x2c
 8001f2c:	0151      	lsls	r1, r2, #5
 8001f2e:	69fa      	ldr	r2, [r7, #28]
 8001f30:	440a      	add	r2, r1
 8001f32:	f502 6230 	add.w	r2, r2, #2816	; 0xb00
 8001f36:	f423 1300 	bic.w	r3, r3, #2097152	; 0x200000
 8001f3a:	6013      	str	r3, [r2, #0]
        USBx_OUTEP(i)->DOEPCTL |= USB_OTG_DOEPCTL_SNAK;
 8001f3c:	6afb      	ldr	r3, [r7, #44]	; 0x2c
 8001f3e:	015a      	lsls	r2, r3, #5
 8001f40:	69fb      	ldr	r3, [r7, #28]
 8001f42:	4413      	add	r3, r2
 8001f44:	f503 6330 	add.w	r3, r3, #2816	; 0xb00
 8001f48:	681b      	ldr	r3, [r3, #0]
 8001f4a:	6afa      	ldr	r2, [r7, #44]	; 0x2c
 8001f4c:	0151      	lsls	r1, r2, #5
 8001f4e:	69fa      	ldr	r2, [r7, #28]
 8001f50:	440a      	add	r2, r1
 8001f52:	f502 6230 	add.w	r2, r2, #2816	; 0xb00
 8001f56:	f043 6300 	orr.w	r3, r3, #134217728	; 0x8000000
 8001f5a:	6013      	str	r3, [r2, #0]
      for (i = 0U; i < hpcd->Init.dev_endpoints; i++)
 8001f5c:	6afb      	ldr	r3, [r7, #44]	; 0x2c
 8001f5e:	3301      	adds	r3, #1
 8001f60:	62fb      	str	r3, [r7, #44]	; 0x2c
 8001f62:	687b      	ldr	r3, [r7, #4]
 8001f64:	685b      	ldr	r3, [r3, #4]
 8001f66:	6afa      	ldr	r2, [r7, #44]	; 0x2c
 8001f68:	429a      	cmp	r2, r3
 8001f6a:	d3b3      	bcc.n	8001ed4 <HAL_PCD_IRQHandler+0x5aa>
      }
      USBx_DEVICE->DAINTMSK |= 0x10001U;
 8001f6c:	69fb      	ldr	r3, [r7, #28]
 8001f6e:	f503 6300 	add.w	r3, r3, #2048	; 0x800
 8001f72:	69db      	ldr	r3, [r3, #28]
 8001f74:	69fa      	ldr	r2, [r7, #28]
 8001f76:	f502 6200 	add.w	r2, r2, #2048	; 0x800
 8001f7a:	f043 1301 	orr.w	r3, r3, #65537	; 0x10001
 8001f7e:	61d3      	str	r3, [r2, #28]

      if (hpcd->Init.use_dedicated_ep1 != 0U)
 8001f80:	687b      	ldr	r3, [r7, #4]
 8001f82:	6b1b      	ldr	r3, [r3, #48]	; 0x30
 8001f84:	2b00      	cmp	r3, #0
 8001f86:	d016      	beq.n	8001fb6 <HAL_PCD_IRQHandler+0x68c>
      {
        USBx_DEVICE->DOUTEP1MSK |= USB_OTG_DOEPMSK_STUPM |
 8001f88:	69fb      	ldr	r3, [r7, #28]
 8001f8a:	f503 6300 	add.w	r3, r3, #2048	; 0x800
 8001f8e:	f8d3 3084 	ldr.w	r3, [r3, #132]	; 0x84
 8001f92:	69fa      	ldr	r2, [r7, #28]
 8001f94:	f502 6200 	add.w	r2, r2, #2048	; 0x800
 8001f98:	f043 030b 	orr.w	r3, r3, #11
 8001f9c:	f8c2 3084 	str.w	r3, [r2, #132]	; 0x84
                                   USB_OTG_DOEPMSK_XFRCM |
                                   USB_OTG_DOEPMSK_EPDM;

        USBx_DEVICE->DINEP1MSK |= USB_OTG_DIEPMSK_TOM |
 8001fa0:	69fb      	ldr	r3, [r7, #28]
 8001fa2:	f503 6300 	add.w	r3, r3, #2048	; 0x800
 8001fa6:	6c5b      	ldr	r3, [r3, #68]	; 0x44
 8001fa8:	69fa      	ldr	r2, [r7, #28]
 8001faa:	f502 6200 	add.w	r2, r2, #2048	; 0x800
 8001fae:	f043 030b 	orr.w	r3, r3, #11
 8001fb2:	6453      	str	r3, [r2, #68]	; 0x44
 8001fb4:	e015      	b.n	8001fe2 <HAL_PCD_IRQHandler+0x6b8>
                                  USB_OTG_DIEPMSK_XFRCM |
                                  USB_OTG_DIEPMSK_EPDM;
      }
      else
      {
        USBx_DEVICE->DOEPMSK |= USB_OTG_DOEPMSK_STUPM |
 8001fb6:	69fb      	ldr	r3, [r7, #28]
 8001fb8:	f503 6300 	add.w	r3, r3, #2048	; 0x800
 8001fbc:	695a      	ldr	r2, [r3, #20]
 8001fbe:	69fb      	ldr	r3, [r7, #28]
 8001fc0:	f503 6300 	add.w	r3, r3, #2048	; 0x800
 8001fc4:	4619      	mov	r1, r3
 8001fc6:	f242 032b 	movw	r3, #8235	; 0x202b
 8001fca:	4313      	orrs	r3, r2
 8001fcc:	614b      	str	r3, [r1, #20]
                                USB_OTG_DOEPMSK_XFRCM |
                                USB_OTG_DOEPMSK_EPDM |
                                USB_OTG_DOEPMSK_OTEPSPRM |
                                USB_OTG_DOEPMSK_NAKM;

        USBx_DEVICE->DIEPMSK |= USB_OTG_DIEPMSK_TOM |
 8001fce:	69fb      	ldr	r3, [r7, #28]
 8001fd0:	f503 6300 	add.w	r3, r3, #2048	; 0x800
 8001fd4:	691b      	ldr	r3, [r3, #16]
 8001fd6:	69fa      	ldr	r2, [r7, #28]
 8001fd8:	f502 6200 	add.w	r2, r2, #2048	; 0x800
 8001fdc:	f043 030b 	orr.w	r3, r3, #11
 8001fe0:	6113      	str	r3, [r2, #16]
                                USB_OTG_DIEPMSK_XFRCM |
                                USB_OTG_DIEPMSK_EPDM;
      }

      /* Set Default Address to 0 */
      USBx_DEVICE->DCFG &= ~USB_OTG_DCFG_DAD;
 8001fe2:	69fb      	ldr	r3, [r7, #28]
 8001fe4:	f503 6300 	add.w	r3, r3, #2048	; 0x800
 8001fe8:	681b      	ldr	r3, [r3, #0]
 8001fea:	69fa      	ldr	r2, [r7, #28]
 8001fec:	f502 6200 	add.w	r2, r2, #2048	; 0x800
 8001ff0:	f423 63fe 	bic.w	r3, r3, #2032	; 0x7f0
 8001ff4:	6013      	str	r3, [r2, #0]

      /* setup EP0 to receive SETUP packets */
      (void)USB_EP0_OutStart(hpcd->Instance, (uint8_t)hpcd->Init.dma_enable,
 8001ff6:	687b      	ldr	r3, [r7, #4]
 8001ff8:	6818      	ldr	r0, [r3, #0]
 8001ffa:	687b      	ldr	r3, [r7, #4]
 8001ffc:	691b      	ldr	r3, [r3, #16]
 8001ffe:	b2d9      	uxtb	r1, r3
                             (uint8_t *)hpcd->Setup);
 8002000:	687b      	ldr	r3, [r7, #4]
 8002002:	f203 43c4 	addw	r3, r3, #1220	; 0x4c4
      (void)USB_EP0_OutStart(hpcd->Instance, (uint8_t)hpcd->Init.dma_enable,
 8002006:	461a      	mov	r2, r3
 8002008:	f005 fe70 	bl	8007cec <USB_EP0_OutStart>

      __HAL_PCD_CLEAR_FLAG(hpcd, USB_OTG_GINTSTS_USBRST);
 800200c:	687b      	ldr	r3, [r7, #4]
 800200e:	681b      	ldr	r3, [r3, #0]
 8002010:	695a      	ldr	r2, [r3, #20]
 8002012:	687b      	ldr	r3, [r7, #4]
 8002014:	681b      	ldr	r3, [r3, #0]
 8002016:	f402 5280 	and.w	r2, r2, #4096	; 0x1000
 800201a:	615a      	str	r2, [r3, #20]
    }

    /* Handle Enumeration done Interrupt */
    if (__HAL_PCD_GET_FLAG(hpcd, USB_OTG_GINTSTS_ENUMDNE))
 800201c:	687b      	ldr	r3, [r7, #4]
 800201e:	681b      	ldr	r3, [r3, #0]
 8002020:	4618      	mov	r0, r3
 8002022:	f005 fd9d 	bl	8007b60 <USB_ReadInterrupts>
 8002026:	4603      	mov	r3, r0
 8002028:	f403 5300 	and.w	r3, r3, #8192	; 0x2000
 800202c:	f5b3 5f00 	cmp.w	r3, #8192	; 0x2000
 8002030:	d124      	bne.n	800207c <HAL_PCD_IRQHandler+0x752>
    {
      (void)USB_ActivateSetup(hpcd->Instance);
 8002032:	687b      	ldr	r3, [r7, #4]
 8002034:	681b      	ldr	r3, [r3, #0]
 8002036:	4618      	mov	r0, r3
 8002038:	f005 fe34 	bl	8007ca4 <USB_ActivateSetup>
      hpcd->Init.speed = USB_GetDevSpeed(hpcd->Instance);
 800203c:	687b      	ldr	r3, [r7, #4]
 800203e:	681b      	ldr	r3, [r3, #0]
 8002040:	4618      	mov	r0, r3
 8002042:	f004 fddc 	bl	8006bfe <USB_GetDevSpeed>
 8002046:	4603      	mov	r3, r0
 8002048:	461a      	mov	r2, r3
 800204a:	687b      	ldr	r3, [r7, #4]
 800204c:	60da      	str	r2, [r3, #12]

      /* Set USB Turnaround time */
      (void)USB_SetTurnaroundTime(hpcd->Instance,
 800204e:	687b      	ldr	r3, [r7, #4]
 8002050:	681c      	ldr	r4, [r3, #0]
 8002052:	f001 fdb1 	bl	8003bb8 <HAL_RCC_GetHCLKFreq>
 8002056:	4601      	mov	r1, r0
                                  HAL_RCC_GetHCLKFreq(),
                                  (uint8_t)hpcd->Init.speed);
 8002058:	687b      	ldr	r3, [r7, #4]
 800205a:	68db      	ldr	r3, [r3, #12]
      (void)USB_SetTurnaroundTime(hpcd->Instance,
 800205c:	b2db      	uxtb	r3, r3
 800205e:	461a      	mov	r2, r3
 8002060:	4620      	mov	r0, r4
 8002062:	f004 fae1 	bl	8006628 <USB_SetTurnaroundTime>

#if (USE_HAL_PCD_REGISTER_CALLBACKS == 1U)
      hpcd->ResetCallback(hpcd);
#else
      HAL_PCD_ResetCallback(hpcd);
 8002066:	6878      	ldr	r0, [r7, #4]
 8002068:	f008 fa3f 	bl	800a4ea <HAL_PCD_ResetCallback>
#endif /* USE_HAL_PCD_REGISTER_CALLBACKS */

      __HAL_PCD_CLEAR_FLAG(hpcd, USB_OTG_GINTSTS_ENUMDNE);
 800206c:	687b      	ldr	r3, [r7, #4]
 800206e:	681b      	ldr	r3, [r3, #0]
 8002070:	695a      	ldr	r2, [r3, #20]
 8002072:	687b      	ldr	r3, [r7, #4]
 8002074:	681b      	ldr	r3, [r3, #0]
 8002076:	f402 5200 	and.w	r2, r2, #8192	; 0x2000
 800207a:	615a      	str	r2, [r3, #20]
    }

    /* Handle SOF Interrupt */
    if (__HAL_PCD_GET_FLAG(hpcd, USB_OTG_GINTSTS_SOF))
 800207c:	687b      	ldr	r3, [r7, #4]
 800207e:	681b      	ldr	r3, [r3, #0]
 8002080:	4618      	mov	r0, r3
 8002082:	f005 fd6d 	bl	8007b60 <USB_ReadInterrupts>
 8002086:	4603      	mov	r3, r0
 8002088:	f003 0308 	and.w	r3, r3, #8
 800208c:	2b08      	cmp	r3, #8
 800208e:	d10a      	bne.n	80020a6 <HAL_PCD_IRQHandler+0x77c>
    {
#if (USE_HAL_PCD_REGISTER_CALLBACKS == 1U)
      hpcd->SOFCallback(hpcd);
#else
      HAL_PCD_SOFCallback(hpcd);
 8002090:	6878      	ldr	r0, [r7, #4]
 8002092:	f008 fa1c 	bl	800a4ce <HAL_PCD_SOFCallback>
#endif /* USE_HAL_PCD_REGISTER_CALLBACKS */

      __HAL_PCD_CLEAR_FLAG(hpcd, USB_OTG_GINTSTS_SOF);
 8002096:	687b      	ldr	r3, [r7, #4]
 8002098:	681b      	ldr	r3, [r3, #0]
 800209a:	695a      	ldr	r2, [r3, #20]
 800209c:	687b      	ldr	r3, [r7, #4]
 800209e:	681b      	ldr	r3, [r3, #0]
 80020a0:	f002 0208 	and.w	r2, r2, #8
 80020a4:	615a      	str	r2, [r3, #20]
    }

    /* Handle Global OUT NAK effective Interrupt */
    if (__HAL_PCD_GET_FLAG(hpcd, USB_OTG_GINTSTS_BOUTNAKEFF))
 80020a6:	687b      	ldr	r3, [r7, #4]
 80020a8:	681b      	ldr	r3, [r3, #0]
 80020aa:	4618      	mov	r0, r3
 80020ac:	f005 fd58 	bl	8007b60 <USB_ReadInterrupts>
 80020b0:	4603      	mov	r3, r0
 80020b2:	f003 0380 	and.w	r3, r3, #128	; 0x80
 80020b6:	2b80      	cmp	r3, #128	; 0x80
 80020b8:	d122      	bne.n	8002100 <HAL_PCD_IRQHandler+0x7d6>
    {
      USBx->GINTMSK &= ~USB_OTG_GINTMSK_GONAKEFFM;
 80020ba:	6a3b      	ldr	r3, [r7, #32]
 80020bc:	699b      	ldr	r3, [r3, #24]
 80020be:	f023 0280 	bic.w	r2, r3, #128	; 0x80
 80020c2:	6a3b      	ldr	r3, [r7, #32]
 80020c4:	619a      	str	r2, [r3, #24]

      for (epnum = 1U; epnum < hpcd->Init.dev_endpoints; epnum++)
 80020c6:	2301      	movs	r3, #1
 80020c8:	627b      	str	r3, [r7, #36]	; 0x24
 80020ca:	e014      	b.n	80020f6 <HAL_PCD_IRQHandler+0x7cc>
      {
        if (hpcd->OUT_ep[epnum].is_iso_incomplete == 1U)
 80020cc:	6879      	ldr	r1, [r7, #4]
 80020ce:	6a7a      	ldr	r2, [r7, #36]	; 0x24
 80020d0:	4613      	mov	r3, r2
 80020d2:	00db      	lsls	r3, r3, #3
 80020d4:	4413      	add	r3, r2
 80020d6:	009b      	lsls	r3, r3, #2
 80020d8:	440b      	add	r3, r1
 80020da:	f203 237f 	addw	r3, r3, #639	; 0x27f
 80020de:	781b      	ldrb	r3, [r3, #0]
 80020e0:	2b01      	cmp	r3, #1
 80020e2:	d105      	bne.n	80020f0 <HAL_PCD_IRQHandler+0x7c6>
        {
          /* Abort current transaction and disable the EP */
          (void)HAL_PCD_EP_Abort(hpcd, (uint8_t)epnum);
 80020e4:	6a7b      	ldr	r3, [r7, #36]	; 0x24
 80020e6:	b2db      	uxtb	r3, r3
 80020e8:	4619      	mov	r1, r3
 80020ea:	6878      	ldr	r0, [r7, #4]
 80020ec:	f000 fb27 	bl	800273e <HAL_PCD_EP_Abort>
      for (epnum = 1U; epnum < hpcd->Init.dev_endpoints; epnum++)
 80020f0:	6a7b      	ldr	r3, [r7, #36]	; 0x24
 80020f2:	3301      	adds	r3, #1
 80020f4:	627b      	str	r3, [r7, #36]	; 0x24
 80020f6:	687b      	ldr	r3, [r7, #4]
 80020f8:	685b      	ldr	r3, [r3, #4]
 80020fa:	6a7a      	ldr	r2, [r7, #36]	; 0x24
 80020fc:	429a      	cmp	r2, r3
 80020fe:	d3e5      	bcc.n	80020cc <HAL_PCD_IRQHandler+0x7a2>
        }
      }
    }

    /* Handle Incomplete ISO IN Interrupt */
    if (__HAL_PCD_GET_FLAG(hpcd, USB_OTG_GINTSTS_IISOIXFR))
 8002100:	687b      	ldr	r3, [r7, #4]
 8002102:	681b      	ldr	r3, [r3, #0]
 8002104:	4618      	mov	r0, r3
 8002106:	f005 fd2b 	bl	8007b60 <USB_ReadInterrupts>
 800210a:	4603      	mov	r3, r0
 800210c:	f403 1380 	and.w	r3, r3, #1048576	; 0x100000
 8002110:	f5b3 1f80 	cmp.w	r3, #1048576	; 0x100000
 8002114:	d13b      	bne.n	800218e <HAL_PCD_IRQHandler+0x864>
    {
      for (epnum = 1U; epnum < hpcd->Init.dev_endpoints; epnum++)
 8002116:	2301      	movs	r3, #1
 8002118:	627b      	str	r3, [r7, #36]	; 0x24
 800211a:	e02b      	b.n	8002174 <HAL_PCD_IRQHandler+0x84a>
      {
        RegVal = USBx_INEP(epnum)->DIEPCTL;
 800211c:	6a7b      	ldr	r3, [r7, #36]	; 0x24
 800211e:	015a      	lsls	r2, r3, #5
 8002120:	69fb      	ldr	r3, [r7, #28]
 8002122:	4413      	add	r3, r2
 8002124:	f503 6310 	add.w	r3, r3, #2304	; 0x900
 8002128:	681b      	ldr	r3, [r3, #0]
 800212a:	61bb      	str	r3, [r7, #24]

        if ((hpcd->IN_ep[epnum].type == EP_TYPE_ISOC) &&
 800212c:	6879      	ldr	r1, [r7, #4]
 800212e:	6a7a      	ldr	r2, [r7, #36]	; 0x24
 8002130:	4613      	mov	r3, r2
 8002132:	00db      	lsls	r3, r3, #3
 8002134:	4413      	add	r3, r2
 8002136:	009b      	lsls	r3, r3, #2
 8002138:	440b      	add	r3, r1
 800213a:	3340      	adds	r3, #64	; 0x40
 800213c:	781b      	ldrb	r3, [r3, #0]
 800213e:	2b01      	cmp	r3, #1
 8002140:	d115      	bne.n	800216e <HAL_PCD_IRQHandler+0x844>
            ((RegVal & USB_OTG_DIEPCTL_EPENA) == USB_OTG_DIEPCTL_EPENA))
 8002142:	69bb      	ldr	r3, [r7, #24]
        if ((hpcd->IN_ep[epnum].type == EP_TYPE_ISOC) &&
 8002144:	2b00      	cmp	r3, #0
 8002146:	da12      	bge.n	800216e <HAL_PCD_IRQHandler+0x844>
        {
          hpcd->IN_ep[epnum].is_iso_incomplete = 1U;
 8002148:	6879      	ldr	r1, [r7, #4]
 800214a:	6a7a      	ldr	r2, [r7, #36]	; 0x24
 800214c:	4613      	mov	r3, r2
 800214e:	00db      	lsls	r3, r3, #3
 8002150:	4413      	add	r3, r2
 8002152:	009b      	lsls	r3, r3, #2
 8002154:	440b      	add	r3, r1
 8002156:	333f      	adds	r3, #63	; 0x3f
 8002158:	2201      	movs	r2, #1
 800215a:	701a      	strb	r2, [r3, #0]

          /* Abort current transaction and disable the EP */
          (void)HAL_PCD_EP_Abort(hpcd, (uint8_t)(epnum | 0x80U));
 800215c:	6a7b      	ldr	r3, [r7, #36]	; 0x24
 800215e:	b2db      	uxtb	r3, r3
 8002160:	f063 037f 	orn	r3, r3, #127	; 0x7f
 8002164:	b2db      	uxtb	r3, r3
 8002166:	4619      	mov	r1, r3
 8002168:	6878      	ldr	r0, [r7, #4]
 800216a:	f000 fae8 	bl	800273e <HAL_PCD_EP_Abort>
      for (epnum = 1U; epnum < hpcd->Init.dev_endpoints; epnum++)
 800216e:	6a7b      	ldr	r3, [r7, #36]	; 0x24
 8002170:	3301      	adds	r3, #1
 8002172:	627b      	str	r3, [r7, #36]	; 0x24
 8002174:	687b      	ldr	r3, [r7, #4]
 8002176:	685b      	ldr	r3, [r3, #4]
 8002178:	6a7a      	ldr	r2, [r7, #36]	; 0x24
 800217a:	429a      	cmp	r2, r3
 800217c:	d3ce      	bcc.n	800211c <HAL_PCD_IRQHandler+0x7f2>
        }
      }

      __HAL_PCD_CLEAR_FLAG(hpcd, USB_OTG_GINTSTS_IISOIXFR);
 800217e:	687b      	ldr	r3, [r7, #4]
 8002180:	681b      	ldr	r3, [r3, #0]
 8002182:	695a      	ldr	r2, [r3, #20]
 8002184:	687b      	ldr	r3, [r7, #4]
 8002186:	681b      	ldr	r3, [r3, #0]
 8002188:	f402 1280 	and.w	r2, r2, #1048576	; 0x100000
 800218c:	615a      	str	r2, [r3, #20]
    }

    /* Handle Incomplete ISO OUT Interrupt */
    if (__HAL_PCD_GET_FLAG(hpcd, USB_OTG_GINTSTS_PXFR_INCOMPISOOUT))
 800218e:	687b      	ldr	r3, [r7, #4]
 8002190:	681b      	ldr	r3, [r3, #0]
 8002192:	4618      	mov	r0, r3
 8002194:	f005 fce4 	bl	8007b60 <USB_ReadInterrupts>
 8002198:	4603      	mov	r3, r0
 800219a:	f403 1300 	and.w	r3, r3, #2097152	; 0x200000
 800219e:	f5b3 1f00 	cmp.w	r3, #2097152	; 0x200000
 80021a2:	d155      	bne.n	8002250 <HAL_PCD_IRQHandler+0x926>
    {
      for (epnum = 1U; epnum < hpcd->Init.dev_endpoints; epnum++)
 80021a4:	2301      	movs	r3, #1
 80021a6:	627b      	str	r3, [r7, #36]	; 0x24
 80021a8:	e045      	b.n	8002236 <HAL_PCD_IRQHandler+0x90c>
      {
        RegVal = USBx_OUTEP(epnum)->DOEPCTL;
 80021aa:	6a7b      	ldr	r3, [r7, #36]	; 0x24
 80021ac:	015a      	lsls	r2, r3, #5
 80021ae:	69fb      	ldr	r3, [r7, #28]
 80021b0:	4413      	add	r3, r2
 80021b2:	f503 6330 	add.w	r3, r3, #2816	; 0xb00
 80021b6:	681b      	ldr	r3, [r3, #0]
 80021b8:	61bb      	str	r3, [r7, #24]

        if ((hpcd->OUT_ep[epnum].type == EP_TYPE_ISOC) &&
 80021ba:	6879      	ldr	r1, [r7, #4]
 80021bc:	6a7a      	ldr	r2, [r7, #36]	; 0x24
 80021be:	4613      	mov	r3, r2
 80021c0:	00db      	lsls	r3, r3, #3
 80021c2:	4413      	add	r3, r2
 80021c4:	009b      	lsls	r3, r3, #2
 80021c6:	440b      	add	r3, r1
 80021c8:	f503 7320 	add.w	r3, r3, #640	; 0x280
 80021cc:	781b      	ldrb	r3, [r3, #0]
 80021ce:	2b01      	cmp	r3, #1
 80021d0:	d12e      	bne.n	8002230 <HAL_PCD_IRQHandler+0x906>
            ((RegVal & USB_OTG_DOEPCTL_EPENA) == USB_OTG_DOEPCTL_EPENA) &&
 80021d2:	69bb      	ldr	r3, [r7, #24]
        if ((hpcd->OUT_ep[epnum].type == EP_TYPE_ISOC) &&
 80021d4:	2b00      	cmp	r3, #0
 80021d6:	da2b      	bge.n	8002230 <HAL_PCD_IRQHandler+0x906>
            ((RegVal & (0x1U << 16)) == (hpcd->FrameNumber & 0x1U)))
 80021d8:	69bb      	ldr	r3, [r7, #24]
 80021da:	f403 3280 	and.w	r2, r3, #65536	; 0x10000
 80021de:	687b      	ldr	r3, [r7, #4]
 80021e0:	f8d3 34fc 	ldr.w	r3, [r3, #1276]	; 0x4fc
 80021e4:	f003 0301 	and.w	r3, r3, #1
            ((RegVal & USB_OTG_DOEPCTL_EPENA) == USB_OTG_DOEPCTL_EPENA) &&
 80021e8:	429a      	cmp	r2, r3
 80021ea:	d121      	bne.n	8002230 <HAL_PCD_IRQHandler+0x906>
        {
          hpcd->OUT_ep[epnum].is_iso_incomplete = 1U;
 80021ec:	6879      	ldr	r1, [r7, #4]
 80021ee:	6a7a      	ldr	r2, [r7, #36]	; 0x24
 80021f0:	4613      	mov	r3, r2
 80021f2:	00db      	lsls	r3, r3, #3
 80021f4:	4413      	add	r3, r2
 80021f6:	009b      	lsls	r3, r3, #2
 80021f8:	440b      	add	r3, r1
 80021fa:	f203 237f 	addw	r3, r3, #639	; 0x27f
 80021fe:	2201      	movs	r2, #1
 8002200:	701a      	strb	r2, [r3, #0]

          USBx->GINTMSK |= USB_OTG_GINTMSK_GONAKEFFM;
 8002202:	6a3b      	ldr	r3, [r7, #32]
 8002204:	699b      	ldr	r3, [r3, #24]
 8002206:	f043 0280 	orr.w	r2, r3, #128	; 0x80
 800220a:	6a3b      	ldr	r3, [r7, #32]
 800220c:	619a      	str	r2, [r3, #24]

          if ((USBx->GINTSTS & USB_OTG_GINTSTS_BOUTNAKEFF) == 0U)
 800220e:	6a3b      	ldr	r3, [r7, #32]
 8002210:	695b      	ldr	r3, [r3, #20]
 8002212:	f003 0380 	and.w	r3, r3, #128	; 0x80
 8002216:	2b00      	cmp	r3, #0
 8002218:	d10a      	bne.n	8002230 <HAL_PCD_IRQHandler+0x906>
          {
            USBx_DEVICE->DCTL |= USB_OTG_DCTL_SGONAK;
 800221a:	69fb      	ldr	r3, [r7, #28]
 800221c:	f503 6300 	add.w	r3, r3, #2048	; 0x800
 8002220:	685b      	ldr	r3, [r3, #4]
 8002222:	69fa      	ldr	r2, [r7, #28]
 8002224:	f502 6200 	add.w	r2, r2, #2048	; 0x800
 8002228:	f443 7300 	orr.w	r3, r3, #512	; 0x200
 800222c:	6053      	str	r3, [r2, #4]
            break;
 800222e:	e007      	b.n	8002240 <HAL_PCD_IRQHandler+0x916>
      for (epnum = 1U; epnum < hpcd->Init.dev_endpoints; epnum++)
 8002230:	6a7b      	ldr	r3, [r7, #36]	; 0x24
 8002232:	3301      	adds	r3, #1
 8002234:	627b      	str	r3, [r7, #36]	; 0x24
 8002236:	687b      	ldr	r3, [r7, #4]
 8002238:	685b      	ldr	r3, [r3, #4]
 800223a:	6a7a      	ldr	r2, [r7, #36]	; 0x24
 800223c:	429a      	cmp	r2, r3
 800223e:	d3b4      	bcc.n	80021aa <HAL_PCD_IRQHandler+0x880>
          }
        }
      }

      __HAL_PCD_CLEAR_FLAG(hpcd, USB_OTG_GINTSTS_PXFR_INCOMPISOOUT);
 8002240:	687b      	ldr	r3, [r7, #4]
 8002242:	681b      	ldr	r3, [r3, #0]
 8002244:	695a      	ldr	r2, [r3, #20]
 8002246:	687b      	ldr	r3, [r7, #4]
 8002248:	681b      	ldr	r3, [r3, #0]
 800224a:	f402 1200 	and.w	r2, r2, #2097152	; 0x200000
 800224e:	615a      	str	r2, [r3, #20]
    }

    /* Handle Connection event Interrupt */
    if (__HAL_PCD_GET_FLAG(hpcd, USB_OTG_GINTSTS_SRQINT))
 8002250:	687b      	ldr	r3, [r7, #4]
 8002252:	681b      	ldr	r3, [r3, #0]
 8002254:	4618      	mov	r0, r3
 8002256:	f005 fc83 	bl	8007b60 <USB_ReadInterrupts>
 800225a:	4603      	mov	r3, r0
 800225c:	f003 4380 	and.w	r3, r3, #1073741824	; 0x40000000
 8002260:	f1b3 4f80 	cmp.w	r3, #1073741824	; 0x40000000
 8002264:	d10a      	bne.n	800227c <HAL_PCD_IRQHandler+0x952>
    {
#if (USE_HAL_PCD_REGISTER_CALLBACKS == 1U)
      hpcd->ConnectCallback(hpcd);
#else
      HAL_PCD_ConnectCallback(hpcd);
 8002266:	6878      	ldr	r0, [r7, #4]
 8002268:	f008 f9c0 	bl	800a5ec <HAL_PCD_ConnectCallback>
#endif /* USE_HAL_PCD_REGISTER_CALLBACKS */

      __HAL_PCD_CLEAR_FLAG(hpcd, USB_OTG_GINTSTS_SRQINT);
 800226c:	687b      	ldr	r3, [r7, #4]
 800226e:	681b      	ldr	r3, [r3, #0]
 8002270:	695a      	ldr	r2, [r3, #20]
 8002272:	687b      	ldr	r3, [r7, #4]
 8002274:	681b      	ldr	r3, [r3, #0]
 8002276:	f002 4280 	and.w	r2, r2, #1073741824	; 0x40000000
 800227a:	615a      	str	r2, [r3, #20]
    }

    /* Handle Disconnection event Interrupt */
    if (__HAL_PCD_GET_FLAG(hpcd, USB_OTG_GINTSTS_OTGINT))
 800227c:	687b      	ldr	r3, [r7, #4]
 800227e:	681b      	ldr	r3, [r3, #0]
 8002280:	4618      	mov	r0, r3
 8002282:	f005 fc6d 	bl	8007b60 <USB_ReadInterrupts>
 8002286:	4603      	mov	r3, r0
 8002288:	f003 0304 	and.w	r3, r3, #4
 800228c:	2b04      	cmp	r3, #4
 800228e:	d115      	bne.n	80022bc <HAL_PCD_IRQHandler+0x992>
    {
      RegVal = hpcd->Instance->GOTGINT;
 8002290:	687b      	ldr	r3, [r7, #4]
 8002292:	681b      	ldr	r3, [r3, #0]
 8002294:	685b      	ldr	r3, [r3, #4]
 8002296:	61bb      	str	r3, [r7, #24]

      if ((RegVal & USB_OTG_GOTGINT_SEDET) == USB_OTG_GOTGINT_SEDET)
 8002298:	69bb      	ldr	r3, [r7, #24]
 800229a:	f003 0304 	and.w	r3, r3, #4
 800229e:	2b00      	cmp	r3, #0
 80022a0:	d002      	beq.n	80022a8 <HAL_PCD_IRQHandler+0x97e>
      {
#if (USE_HAL_PCD_REGISTER_CALLBACKS == 1U)
        hpcd->DisconnectCallback(hpcd);
#else
        HAL_PCD_DisconnectCallback(hpcd);
 80022a2:	6878      	ldr	r0, [r7, #4]
 80022a4:	f008 f9b0 	bl	800a608 <HAL_PCD_DisconnectCallback>
#endif /* USE_HAL_PCD_REGISTER_CALLBACKS */
      }
      hpcd->Instance->GOTGINT |= RegVal;
 80022a8:	687b      	ldr	r3, [r7, #4]
 80022aa:	681b      	ldr	r3, [r3, #0]
 80022ac:	6859      	ldr	r1, [r3, #4]
 80022ae:	687b      	ldr	r3, [r7, #4]
 80022b0:	681b      	ldr	r3, [r3, #0]
 80022b2:	69ba      	ldr	r2, [r7, #24]
 80022b4:	430a      	orrs	r2, r1
 80022b6:	605a      	str	r2, [r3, #4]
 80022b8:	e000      	b.n	80022bc <HAL_PCD_IRQHandler+0x992>
      return;
 80022ba:	bf00      	nop
    }
  }
}
 80022bc:	3734      	adds	r7, #52	; 0x34
 80022be:	46bd      	mov	sp, r7
 80022c0:	bd90      	pop	{r4, r7, pc}

080022c2 <HAL_PCD_SetAddress>:
  * @param  hpcd PCD handle
  * @param  address new device address
  * @retval HAL status
  */
HAL_StatusTypeDef HAL_PCD_SetAddress(PCD_HandleTypeDef *hpcd, uint8_t address)
{
 80022c2:	b580      	push	{r7, lr}
 80022c4:	b082      	sub	sp, #8
 80022c6:	af00      	add	r7, sp, #0
 80022c8:	6078      	str	r0, [r7, #4]
 80022ca:	460b      	mov	r3, r1
 80022cc:	70fb      	strb	r3, [r7, #3]
  __HAL_LOCK(hpcd);
 80022ce:	687b      	ldr	r3, [r7, #4]
 80022d0:	f893 34bc 	ldrb.w	r3, [r3, #1212]	; 0x4bc
 80022d4:	2b01      	cmp	r3, #1
 80022d6:	d101      	bne.n	80022dc <HAL_PCD_SetAddress+0x1a>
 80022d8:	2302      	movs	r3, #2
 80022da:	e013      	b.n	8002304 <HAL_PCD_SetAddress+0x42>
 80022dc:	687b      	ldr	r3, [r7, #4]
 80022de:	2201      	movs	r2, #1
 80022e0:	f883 24bc 	strb.w	r2, [r3, #1212]	; 0x4bc
  hpcd->USB_Address = address;
 80022e4:	687b      	ldr	r3, [r7, #4]
 80022e6:	78fa      	ldrb	r2, [r7, #3]
 80022e8:	f883 2038 	strb.w	r2, [r3, #56]	; 0x38
  (void)USB_SetDevAddress(hpcd->Instance, address);
 80022ec:	687b      	ldr	r3, [r7, #4]
 80022ee:	681b      	ldr	r3, [r3, #0]
 80022f0:	78fa      	ldrb	r2, [r7, #3]
 80022f2:	4611      	mov	r1, r2
 80022f4:	4618      	mov	r0, r3
 80022f6:	f005 fbcb 	bl	8007a90 <USB_SetDevAddress>
  __HAL_UNLOCK(hpcd);
 80022fa:	687b      	ldr	r3, [r7, #4]
 80022fc:	2200      	movs	r2, #0
 80022fe:	f883 24bc 	strb.w	r2, [r3, #1212]	; 0x4bc

  return HAL_OK;
 8002302:	2300      	movs	r3, #0
}
 8002304:	4618      	mov	r0, r3
 8002306:	3708      	adds	r7, #8
 8002308:	46bd      	mov	sp, r7
 800230a:	bd80      	pop	{r7, pc}

0800230c <HAL_PCD_EP_Open>:
  * @param  ep_type endpoint type
  * @retval HAL status
  */
