
OPENAMP_CM7.elf:     file format elf32-littlearm

Sections:
Idx Name          Size      VMA       LMA       File off  Algn
  0 .isr_vector   00000298  08000000  08000000  00010000  2**0
                  CONTENTS, ALLOC, LOAD, READONLY, DATA
  1 .text         00005c0c  080002a0  080002a0  000102a0  2**4
                  CONTENTS, ALLOC, LOAD, READONLY, CODE
  2 .rodata       0000032c  08005eac  08005eac  00015eac  2**2
                  CONTENTS, ALLOC, LOAD, READONLY, DATA
  3 .ARM.extab    00000000  080061d8  080061d8  00020170  2**0
                  CONTENTS
  4 .ARM          00000000  080061d8  080061d8  00020170  2**0
                  CONTENTS
  5 .preinit_array 00000000  080061d8  080061d8  00020170  2**0
                  CONTENTS, ALLOC, LOAD, DATA
  6 .init_array   00000004  080061d8  080061d8  000161d8  2**2
                  CONTENTS, ALLOC, LOAD, DATA
  7 .fini_array   00000004  080061dc  080061dc  000161dc  2**2
                  CONTENTS, ALLOC, LOAD, DATA
  8 .data         00000170  24000000  080061e0  00020000  2**2
                  CONTENTS, ALLOC, LOAD, DATA
  9 .bss          00000138  24000170  08006350  00020170  2**2
                  ALLOC
 10 ._user_heap_stack 00000600  240002a8  08006350  000202a8  2**0
                  ALLOC
 11 .openamp_section 0000008c  38000000  08006350  00030000  2**2
                  ALLOC
 12 .ARM.attributes 0000002e  00000000  00000000  00020170  2**0
                  CONTENTS, READONLY
 13 .debug_info   00012633  00000000  00000000  0002019e  2**0
                  CONTENTS, READONLY, DEBUGGING, OCTETS
 14 .debug_abbrev 00003688  00000000  00000000  000327d1  2**0
                  CONTENTS, READONLY, DEBUGGING, OCTETS
 15 .debug_aranges 00000e78  00000000  00000000  00035e60  2**3
                  CONTENTS, READONLY, DEBUGGING, OCTETS
 16 .debug_ranges 00000cd8  00000000  00000000  00036cd8  2**3
                  CONTENTS, READONLY, DEBUGGING, OCTETS
 17 .debug_macro  0003cd9d  00000000  00000000  000379b0  2**0
                  CONTENTS, READONLY, DEBUGGING, OCTETS
 18 .debug_line   00014191  00000000  00000000  0007474d  2**0
                  CONTENTS, READONLY, DEBUGGING, OCTETS
 19 .debug_str    00176c37  00000000  00000000  000888de  2**0
                  CONTENTS, READONLY, DEBUGGING, OCTETS
 20 .comment      00000050  00000000  00000000  001ff515  2**0
                  CONTENTS, READONLY
 21 .debug_frame  00004140  00000000  00000000  001ff568  2**2
                  CONTENTS, READONLY, DEBUGGING, OCTETS

Disassembly of section .text:

080002a0 <__do_global_dtors_aux>:
 80002a0:	b510      	push	{r4, lr}
 80002a2:	4c05      	ldr	r4, [pc, #20]	; (80002b8 <__do_global_dtors_aux+0x18>)
 80002a4:	7823      	ldrb	r3, [r4, #0]
 80002a6:	b933      	cbnz	r3, 80002b6 <__do_global_dtors_aux+0x16>
 80002a8:	4b04      	ldr	r3, [pc, #16]	; (80002bc <__do_global_dtors_aux+0x1c>)
 80002aa:	b113      	cbz	r3, 80002b2 <__do_global_dtors_aux+0x12>
 80002ac:	4804      	ldr	r0, [pc, #16]	; (80002c0 <__do_global_dtors_aux+0x20>)
 80002ae:	f3af 8000 	nop.w
 80002b2:	2301      	movs	r3, #1
 80002b4:	7023      	strb	r3, [r4, #0]
 80002b6:	bd10      	pop	{r4, pc}
 80002b8:	24000170 	.word	0x24000170
 80002bc:	00000000 	.word	0x00000000
 80002c0:	08005e94 	.word	0x08005e94

080002c4 <frame_dummy>:
 80002c4:	b508      	push	{r3, lr}
 80002c6:	4b03      	ldr	r3, [pc, #12]	; (80002d4 <frame_dummy+0x10>)
 80002c8:	b11b      	cbz	r3, 80002d2 <frame_dummy+0xe>
 80002ca:	4903      	ldr	r1, [pc, #12]	; (80002d8 <frame_dummy+0x14>)
 80002cc:	4803      	ldr	r0, [pc, #12]	; (80002dc <frame_dummy+0x18>)
 80002ce:	f3af 8000 	nop.w
 80002d2:	bd08      	pop	{r3, pc}
 80002d4:	00000000 	.word	0x00000000
 80002d8:	24000174 	.word	0x24000174
 80002dc:	08005e94 	.word	0x08005e94

080002e0 <strcmp>:
 80002e0:	f810 2b01 	ldrb.w	r2, [r0], #1
 80002e4:	f811 3b01 	ldrb.w	r3, [r1], #1
 80002e8:	2a01      	cmp	r2, #1
 80002ea:	bf28      	it	cs
 80002ec:	429a      	cmpcs	r2, r3
 80002ee:	d0f7      	beq.n	80002e0 <strcmp>
 80002f0:	1ad0      	subs	r0, r2, r3
 80002f2:	4770      	bx	lr

080002f4 <strlen>:
 80002f4:	4603      	mov	r3, r0
 80002f6:	f813 2b01 	ldrb.w	r2, [r3], #1
 80002fa:	2a00      	cmp	r2, #0
 80002fc:	d1fb      	bne.n	80002f6 <strlen+0x2>
 80002fe:	1a18      	subs	r0, r3, r0
 8000300:	3801      	subs	r0, #1
 8000302:	4770      	bx	lr
	...

08000310 <memchr>:
 8000310:	f001 01ff 	and.w	r1, r1, #255	; 0xff
 8000314:	2a10      	cmp	r2, #16
 8000316:	db2b      	blt.n	8000370 <memchr+0x60>
 8000318:	f010 0f07 	tst.w	r0, #7
 800031c:	d008      	beq.n	8000330 <memchr+0x20>
 800031e:	f810 3b01 	ldrb.w	r3, [r0], #1
 8000322:	3a01      	subs	r2, #1
 8000324:	428b      	cmp	r3, r1
 8000326:	d02d      	beq.n	8000384 <memchr+0x74>
 8000328:	f010 0f07 	tst.w	r0, #7
 800032c:	b342      	cbz	r2, 8000380 <memchr+0x70>
 800032e:	d1f6      	bne.n	800031e <memchr+0xe>
 8000330:	b4f0      	push	{r4, r5, r6, r7}
 8000332:	ea41 2101 	orr.w	r1, r1, r1, lsl #8
 8000336:	ea41 4101 	orr.w	r1, r1, r1, lsl #16
 800033a:	f022 0407 	bic.w	r4, r2, #7
 800033e:	f07f 0700 	mvns.w	r7, #0
 8000342:	2300      	movs	r3, #0
 8000344:	e8f0 5602 	ldrd	r5, r6, [r0], #8
 8000348:	3c08      	subs	r4, #8
 800034a:	ea85 0501 	eor.w	r5, r5, r1
 800034e:	ea86 0601 	eor.w	r6, r6, r1
 8000352:	fa85 f547 	uadd8	r5, r5, r7
 8000356:	faa3 f587 	sel	r5, r3, r7
 800035a:	fa86 f647 	uadd8	r6, r6, r7
 800035e:	faa5 f687 	sel	r6, r5, r7
 8000362:	b98e      	cbnz	r6, 8000388 <memchr+0x78>
 8000364:	d1ee      	bne.n	8000344 <memchr+0x34>
 8000366:	bcf0      	pop	{r4, r5, r6, r7}
 8000368:	f001 01ff 	and.w	r1, r1, #255	; 0xff
 800036c:	f002 0207 	and.w	r2, r2, #7
 8000370:	b132      	cbz	r2, 8000380 <memchr+0x70>
 8000372:	f810 3b01 	ldrb.w	r3, [r0], #1
 8000376:	3a01      	subs	r2, #1
 8000378:	ea83 0301 	eor.w	r3, r3, r1
 800037c:	b113      	cbz	r3, 8000384 <memchr+0x74>
 800037e:	d1f8      	bne.n	8000372 <memchr+0x62>
 8000380:	2000      	movs	r0, #0
 8000382:	4770      	bx	lr
 8000384:	3801      	subs	r0, #1
 8000386:	4770      	bx	lr
 8000388:	2d00      	cmp	r5, #0
 800038a:	bf06      	itte	eq
 800038c:	4635      	moveq	r5, r6
 800038e:	3803      	subeq	r0, #3
 8000390:	3807      	subne	r0, #7
 8000392:	f015 0f01 	tst.w	r5, #1
 8000396:	d107      	bne.n	80003a8 <memchr+0x98>
 8000398:	3001      	adds	r0, #1
 800039a:	f415 7f80 	tst.w	r5, #256	; 0x100
 800039e:	bf02      	ittt	eq
 80003a0:	3001      	addeq	r0, #1
 80003a2:	f415 3fc0 	tsteq.w	r5, #98304	; 0x18000
 80003a6:	3001      	addeq	r0, #1
 80003a8:	bcf0      	pop	{r4, r5, r6, r7}
 80003aa:	3801      	subs	r0, #1
 80003ac:	4770      	bx	lr
 80003ae:	bf00      	nop

080003b0 <SystemInit>:
  *         configuration.
  * @param  None
  * @retval None
  */
void SystemInit (void)
{
 80003b0:	b480      	push	{r7}
 80003b2:	af00      	add	r7, sp, #0
  /* FPU settings ------------------------------------------------------------*/
  #if (__FPU_PRESENT == 1) && (__FPU_USED == 1)
    SCB->CPACR |= ((3UL << (10*2))|(3UL << (11*2)));  /* set CP10 and CP11 Full Access */
 80003b4:	4b3d      	ldr	r3, [pc, #244]	; (80004ac <SystemInit+0xfc>)
 80003b6:	f8d3 3088 	ldr.w	r3, [r3, #136]	; 0x88
 80003ba:	4a3c      	ldr	r2, [pc, #240]	; (80004ac <SystemInit+0xfc>)
 80003bc:	f443 0370 	orr.w	r3, r3, #15728640	; 0xf00000
 80003c0:	f8c2 3088 	str.w	r3, [r2, #136]	; 0x88
  #endif

    /*SEVONPEND enabled so that an interrupt coming from the CPU(n) interrupt signal is
     detectable by the CPU after a WFI/WFE instruction.*/
 SCB->SCR |= SCB_SCR_SEVONPEND_Msk;
 80003c4:	4b39      	ldr	r3, [pc, #228]	; (80004ac <SystemInit+0xfc>)
 80003c6:	691b      	ldr	r3, [r3, #16]
 80003c8:	4a38      	ldr	r2, [pc, #224]	; (80004ac <SystemInit+0xfc>)
 80003ca:	f043 0310 	orr.w	r3, r3, #16
 80003ce:	6113      	str	r3, [r2, #16]

#if defined(CORE_CM7)
  /* Reset the RCC clock configuration to the default reset state ------------*/
   /* Increasing the CPU frequency */
  if(FLASH_LATENCY_DEFAULT  > (READ_BIT((FLASH->ACR), FLASH_ACR_LATENCY)))
 80003d0:	4b37      	ldr	r3, [pc, #220]	; (80004b0 <SystemInit+0x100>)
 80003d2:	681b      	ldr	r3, [r3, #0]
 80003d4:	f003 030f 	and.w	r3, r3, #15
 80003d8:	2b06      	cmp	r3, #6
 80003da:	d807      	bhi.n	80003ec <SystemInit+0x3c>
  {
    /* Program the new number of wait states to the LATENCY bits in the FLASH_ACR register */
    MODIFY_REG(FLASH->ACR, FLASH_ACR_LATENCY, (uint32_t)(FLASH_LATENCY_DEFAULT));
 80003dc:	4b34      	ldr	r3, [pc, #208]	; (80004b0 <SystemInit+0x100>)
 80003de:	681b      	ldr	r3, [r3, #0]
 80003e0:	f023 030f 	bic.w	r3, r3, #15
 80003e4:	4a32      	ldr	r2, [pc, #200]	; (80004b0 <SystemInit+0x100>)
 80003e6:	f043 0307 	orr.w	r3, r3, #7
 80003ea:	6013      	str	r3, [r2, #0]
  }

  /* Set HSION bit */
  RCC->CR |= RCC_CR_HSION;
 80003ec:	4b31      	ldr	r3, [pc, #196]	; (80004b4 <SystemInit+0x104>)
 80003ee:	681b      	ldr	r3, [r3, #0]
 80003f0:	4a30      	ldr	r2, [pc, #192]	; (80004b4 <SystemInit+0x104>)
 80003f2:	f043 0301 	orr.w	r3, r3, #1
 80003f6:	6013      	str	r3, [r2, #0]

  /* Reset CFGR register */
  RCC->CFGR = 0x00000000;
 80003f8:	4b2e      	ldr	r3, [pc, #184]	; (80004b4 <SystemInit+0x104>)
 80003fa:	2200      	movs	r2, #0
 80003fc:	611a      	str	r2, [r3, #16]

  /* Reset HSEON, HSECSSON, CSION, HSI48ON, CSIKERON, PLL1ON, PLL2ON and PLL3ON bits */
  RCC->CR &= 0xEAF6ED7FU;
 80003fe:	4b2d      	ldr	r3, [pc, #180]	; (80004b4 <SystemInit+0x104>)
 8000400:	681a      	ldr	r2, [r3, #0]
 8000402:	492c      	ldr	r1, [pc, #176]	; (80004b4 <SystemInit+0x104>)
 8000404:	4b2c      	ldr	r3, [pc, #176]	; (80004b8 <SystemInit+0x108>)
 8000406:	4013      	ands	r3, r2
 8000408:	600b      	str	r3, [r1, #0]

   /* Decreasing the number of wait states because of lower CPU frequency */
  if(FLASH_LATENCY_DEFAULT  < (READ_BIT((FLASH->ACR), FLASH_ACR_LATENCY)))
 800040a:	4b29      	ldr	r3, [pc, #164]	; (80004b0 <SystemInit+0x100>)
 800040c:	681b      	ldr	r3, [r3, #0]
 800040e:	f003 0308 	and.w	r3, r3, #8
 8000412:	2b00      	cmp	r3, #0
 8000414:	d007      	beq.n	8000426 <SystemInit+0x76>
  {
    /* Program the new number of wait states to the LATENCY bits in the FLASH_ACR register */
    MODIFY_REG(FLASH->ACR, FLASH_ACR_LATENCY, (uint32_t)(FLASH_LATENCY_DEFAULT));
 8000416:	4b26      	ldr	r3, [pc, #152]	; (80004b0 <SystemInit+0x100>)
 8000418:	681b      	ldr	r3, [r3, #0]
 800041a:	f023 030f 	bic.w	r3, r3, #15
 800041e:	4a24      	ldr	r2, [pc, #144]	; (80004b0 <SystemInit+0x100>)
 8000420:	f043 0307 	orr.w	r3, r3, #7
 8000424:	6013      	str	r3, [r2, #0]
  }

  /* Reset D1CFGR register */
  RCC->D1CFGR = 0x00000000;
 8000426:	4b23      	ldr	r3, [pc, #140]	; (80004b4 <SystemInit+0x104>)
 8000428:	2200      	movs	r2, #0
 800042a:	619a      	str	r2, [r3, #24]

  /* Reset D2CFGR register */
  RCC->D2CFGR = 0x00000000;
 800042c:	4b21      	ldr	r3, [pc, #132]	; (80004b4 <SystemInit+0x104>)
 800042e:	2200      	movs	r2, #0
 8000430:	61da      	str	r2, [r3, #28]

  /* Reset D3CFGR register */
  RCC->D3CFGR = 0x00000000;
 8000432:	4b20      	ldr	r3, [pc, #128]	; (80004b4 <SystemInit+0x104>)
 8000434:	2200      	movs	r2, #0
 8000436:	621a      	str	r2, [r3, #32]

  /* Reset PLLCKSELR register */
  RCC->PLLCKSELR = 0x02020200;
 8000438:	4b1e      	ldr	r3, [pc, #120]	; (80004b4 <SystemInit+0x104>)
 800043a:	4a20      	ldr	r2, [pc, #128]	; (80004bc <SystemInit+0x10c>)
 800043c:	629a      	str	r2, [r3, #40]	; 0x28

  /* Reset PLLCFGR register */
  RCC->PLLCFGR = 0x01FF0000;
 800043e:	4b1d      	ldr	r3, [pc, #116]	; (80004b4 <SystemInit+0x104>)
 8000440:	4a1f      	ldr	r2, [pc, #124]	; (80004c0 <SystemInit+0x110>)
 8000442:	62da      	str	r2, [r3, #44]	; 0x2c
  /* Reset PLL1DIVR register */
  RCC->PLL1DIVR = 0x01010280;
 8000444:	4b1b      	ldr	r3, [pc, #108]	; (80004b4 <SystemInit+0x104>)
 8000446:	4a1f      	ldr	r2, [pc, #124]	; (80004c4 <SystemInit+0x114>)
 8000448:	631a      	str	r2, [r3, #48]	; 0x30
  /* Reset PLL1FRACR register */
  RCC->PLL1FRACR = 0x00000000;
 800044a:	4b1a      	ldr	r3, [pc, #104]	; (80004b4 <SystemInit+0x104>)
 800044c:	2200      	movs	r2, #0
 800044e:	635a      	str	r2, [r3, #52]	; 0x34

  /* Reset PLL2DIVR register */
  RCC->PLL2DIVR = 0x01010280;
 8000450:	4b18      	ldr	r3, [pc, #96]	; (80004b4 <SystemInit+0x104>)
 8000452:	4a1c      	ldr	r2, [pc, #112]	; (80004c4 <SystemInit+0x114>)
 8000454:	639a      	str	r2, [r3, #56]	; 0x38

  /* Reset PLL2FRACR register */

  RCC->PLL2FRACR = 0x00000000;
 8000456:	4b17      	ldr	r3, [pc, #92]	; (80004b4 <SystemInit+0x104>)
 8000458:	2200      	movs	r2, #0
 800045a:	63da      	str	r2, [r3, #60]	; 0x3c
  /* Reset PLL3DIVR register */
  RCC->PLL3DIVR = 0x01010280;
 800045c:	4b15      	ldr	r3, [pc, #84]	; (80004b4 <SystemInit+0x104>)
 800045e:	4a19      	ldr	r2, [pc, #100]	; (80004c4 <SystemInit+0x114>)
 8000460:	641a      	str	r2, [r3, #64]	; 0x40

  /* Reset PLL3FRACR register */
  RCC->PLL3FRACR = 0x00000000;
 8000462:	4b14      	ldr	r3, [pc, #80]	; (80004b4 <SystemInit+0x104>)
 8000464:	2200      	movs	r2, #0
 8000466:	645a      	str	r2, [r3, #68]	; 0x44

  /* Reset HSEBYP bit */
  RCC->CR &= 0xFFFBFFFFU;
 8000468:	4b12      	ldr	r3, [pc, #72]	; (80004b4 <SystemInit+0x104>)
 800046a:	681b      	ldr	r3, [r3, #0]
 800046c:	4a11      	ldr	r2, [pc, #68]	; (80004b4 <SystemInit+0x104>)
 800046e:	f423 2380 	bic.w	r3, r3, #262144	; 0x40000
 8000472:	6013      	str	r3, [r2, #0]

  /* Disable all interrupts */
  RCC->CIER = 0x00000000;
 8000474:	4b0f      	ldr	r3, [pc, #60]	; (80004b4 <SystemInit+0x104>)
 8000476:	2200      	movs	r2, #0
 8000478:	661a      	str	r2, [r3, #96]	; 0x60

  /* Enable CortexM7 HSEM EXTI line (line 78)*/
  EXTI_D2->EMR3 |= 0x4000UL;
 800047a:	4b13      	ldr	r3, [pc, #76]	; (80004c8 <SystemInit+0x118>)
 800047c:	6a5b      	ldr	r3, [r3, #36]	; 0x24
 800047e:	4a12      	ldr	r2, [pc, #72]	; (80004c8 <SystemInit+0x118>)
 8000480:	f443 4380 	orr.w	r3, r3, #16384	; 0x4000
 8000484:	6253      	str	r3, [r2, #36]	; 0x24

  if((DBGMCU->IDCODE & 0xFFFF0000U) < 0x20000000U)
 8000486:	4b11      	ldr	r3, [pc, #68]	; (80004cc <SystemInit+0x11c>)
 8000488:	681a      	ldr	r2, [r3, #0]
 800048a:	4b11      	ldr	r3, [pc, #68]	; (80004d0 <SystemInit+0x120>)
 800048c:	4013      	ands	r3, r2
 800048e:	f1b3 5f00 	cmp.w	r3, #536870912	; 0x20000000
 8000492:	d202      	bcs.n	800049a <SystemInit+0xea>
  {
    /* if stm32h7 revY*/
    /* Change  the switch matrix read issuing capability to 1 for the AXI SRAM target (Target 7) */
    *((__IO uint32_t*)0x51008108) = 0x000000001U;
 8000494:	4b0f      	ldr	r3, [pc, #60]	; (80004d4 <SystemInit+0x124>)
 8000496:	2201      	movs	r2, #1
 8000498:	601a      	str	r2, [r3, #0]
  /*
   * Disable the FMC bank1 (enabled after reset).
   * This, prevents CPU speculation access on this bank which blocks the use of FMC during
   * 24us. During this time the others FMC master (such as LTDC) cannot use it!
   */
  FMC_Bank1_R->BTCR[0] = 0x000030D2;
 800049a:	4b0f      	ldr	r3, [pc, #60]	; (80004d8 <SystemInit+0x128>)
 800049c:	f243 02d2 	movw	r2, #12498	; 0x30d2
 80004a0:	601a      	str	r2, [r3, #0]
#endif /* USER_VECT_TAB_ADDRESS */

#else
#error Please #define CORE_CM4 or CORE_CM7
#endif /* CORE_CM4 */
}
 80004a2:	bf00      	nop
 80004a4:	46bd      	mov	sp, r7
 80004a6:	f85d 7b04 	ldr.w	r7, [sp], #4
 80004aa:	4770      	bx	lr
 80004ac:	e000ed00 	.word	0xe000ed00
 80004b0:	52002000 	.word	0x52002000
 80004b4:	58024400 	.word	0x58024400
 80004b8:	eaf6ed7f 	.word	0xeaf6ed7f
 80004bc:	02020200 	.word	0x02020200
 80004c0:	01ff0000 	.word	0x01ff0000
 80004c4:	01010280 	.word	0x01010280
 80004c8:	580000c0 	.word	0x580000c0
 80004cc:	5c001000 	.word	0x5c001000
 80004d0:	ffff0000 	.word	0xffff0000
 80004d4:	51008108 	.word	0x51008108
 80004d8:	52004000 	.word	0x52004000

080004dc <rpmsg_send>:
 *
 * Returns number of bytes it has sent or negative error value on failure.
 */
static inline int rpmsg_send(struct rpmsg_endpoint *ept, const void *data,
			     int len)
{
 80004dc:	b580      	push	{r7, lr}
 80004de:	b086      	sub	sp, #24
 80004e0:	af02      	add	r7, sp, #8
 80004e2:	60f8      	str	r0, [r7, #12]
 80004e4:	60b9      	str	r1, [r7, #8]
 80004e6:	607a      	str	r2, [r7, #4]
	if (ept->dest_addr == RPMSG_ADDR_ANY)
 80004e8:	68fb      	ldr	r3, [r7, #12]
 80004ea:	6a9b      	ldr	r3, [r3, #40]	; 0x28
 80004ec:	f1b3 3fff 	cmp.w	r3, #4294967295
 80004f0:	d101      	bne.n	80004f6 <rpmsg_send+0x1a>
		return RPMSG_ERR_ADDR;
 80004f2:	4b09      	ldr	r3, [pc, #36]	; (8000518 <rpmsg_send+0x3c>)
 80004f4:	e00c      	b.n	8000510 <rpmsg_send+0x34>
	return rpmsg_send_offchannel_raw(ept, ept->addr, ept->dest_addr, data,
 80004f6:	68fb      	ldr	r3, [r7, #12]
 80004f8:	6a59      	ldr	r1, [r3, #36]	; 0x24
 80004fa:	68fb      	ldr	r3, [r7, #12]
 80004fc:	6a9a      	ldr	r2, [r3, #40]	; 0x28
 80004fe:	2301      	movs	r3, #1
 8000500:	9301      	str	r3, [sp, #4]
 8000502:	687b      	ldr	r3, [r7, #4]
 8000504:	9300      	str	r3, [sp, #0]
 8000506:	68bb      	ldr	r3, [r7, #8]
 8000508:	68f8      	ldr	r0, [r7, #12]
 800050a:	f002 ff8f 	bl	800342c <rpmsg_send_offchannel_raw>
 800050e:	4603      	mov	r3, r0
					 len, true);
}
 8000510:	4618      	mov	r0, r3
 8000512:	3710      	adds	r7, #16
 8000514:	46bd      	mov	sp, r7
 8000516:	bd80      	pop	{r7, pc}
 8000518:	fffff829 	.word	0xfffff829

0800051c <rpmsg_init_ept>:
static inline void rpmsg_init_ept(struct rpmsg_endpoint *ept,
				  const char *name,
				  uint32_t src, uint32_t dest,
				  rpmsg_ept_cb cb,
				  rpmsg_ns_unbind_cb ns_unbind_cb)
{
 800051c:	b580      	push	{r7, lr}
 800051e:	b084      	sub	sp, #16
 8000520:	af00      	add	r7, sp, #0
 8000522:	60f8      	str	r0, [r7, #12]
 8000524:	60b9      	str	r1, [r7, #8]
 8000526:	607a      	str	r2, [r7, #4]
 8000528:	603b      	str	r3, [r7, #0]
	strncpy(ept->name, name, sizeof(ept->name));
 800052a:	68fb      	ldr	r3, [r7, #12]
 800052c:	2220      	movs	r2, #32
 800052e:	68b9      	ldr	r1, [r7, #8]
 8000530:	4618      	mov	r0, r3
 8000532:	f005 f8b7 	bl	80056a4 <strncpy>
	ept->addr = src;
 8000536:	68fb      	ldr	r3, [r7, #12]
 8000538:	687a      	ldr	r2, [r7, #4]
 800053a:	625a      	str	r2, [r3, #36]	; 0x24
	ept->dest_addr = dest;
 800053c:	68fb      	ldr	r3, [r7, #12]
 800053e:	683a      	ldr	r2, [r7, #0]
 8000540:	629a      	str	r2, [r3, #40]	; 0x28
	ept->cb = cb;
 8000542:	68fb      	ldr	r3, [r7, #12]
 8000544:	69ba      	ldr	r2, [r7, #24]
 8000546:	62da      	str	r2, [r3, #44]	; 0x2c
	ept->ns_unbind_cb = ns_unbind_cb;
 8000548:	68fb      	ldr	r3, [r7, #12]
 800054a:	69fa      	ldr	r2, [r7, #28]
 800054c:	631a      	str	r2, [r3, #48]	; 0x30
}
 800054e:	bf00      	nop
 8000550:	3710      	adds	r7, #16
 8000552:	46bd      	mov	sp, r7
 8000554:	bd80      	pop	{r7, pc}
	...

08000558 <main>:
/**
  * @brief  The application entry point.
  * @retval int
  */
int main(void)
{
 8000558:	b580      	push	{r7, lr}
 800055a:	b088      	sub	sp, #32
 800055c:	af02      	add	r7, sp, #8
/* USER CODE BEGIN Boot_Mode_Sequence_0 */
  int32_t timeout;
/* USER CODE END Boot_Mode_Sequence_0 */

  /* MPU Configuration--------------------------------------------------------*/
  MPU_Config();
 800055e:	f000 f9af 	bl	80008c0 <MPU_Config>
  \details Turns on I-Cache
  */
__STATIC_FORCEINLINE void SCB_EnableICache (void)
{
  #if defined (__ICACHE_PRESENT) && (__ICACHE_PRESENT == 1U)
    if (SCB->CCR & SCB_CCR_IC_Msk) return;  /* return if ICache is already enabled */
 8000562:	4b6d      	ldr	r3, [pc, #436]	; (8000718 <main+0x1c0>)
 8000564:	695b      	ldr	r3, [r3, #20]
 8000566:	f403 3300 	and.w	r3, r3, #131072	; 0x20000
 800056a:	2b00      	cmp	r3, #0
 800056c:	d11b      	bne.n	80005a6 <main+0x4e>
  \details Acts as a special kind of Data Memory Barrier.
           It completes when all explicit memory accesses before this instruction complete.
 */
__STATIC_FORCEINLINE void __DSB(void)
{
  __ASM volatile ("dsb 0xF":::"memory");
 800056e:	f3bf 8f4f 	dsb	sy
}
 8000572:	bf00      	nop
  __ASM volatile ("isb 0xF":::"memory");
 8000574:	f3bf 8f6f 	isb	sy
}
 8000578:	bf00      	nop

    __DSB();
    __ISB();
    SCB->ICIALLU = 0UL;                     /* invalidate I-Cache */
 800057a:	4b67      	ldr	r3, [pc, #412]	; (8000718 <main+0x1c0>)
 800057c:	2200      	movs	r2, #0
 800057e:	f8c3 2250 	str.w	r2, [r3, #592]	; 0x250
  __ASM volatile ("dsb 0xF":::"memory");
 8000582:	f3bf 8f4f 	dsb	sy
}
 8000586:	bf00      	nop
  __ASM volatile ("isb 0xF":::"memory");
 8000588:	f3bf 8f6f 	isb	sy
}
 800058c:	bf00      	nop
    __DSB();
    __ISB();
    SCB->CCR |=  (uint32_t)SCB_CCR_IC_Msk;  /* enable I-Cache */
 800058e:	4b62      	ldr	r3, [pc, #392]	; (8000718 <main+0x1c0>)
 8000590:	695b      	ldr	r3, [r3, #20]
 8000592:	4a61      	ldr	r2, [pc, #388]	; (8000718 <main+0x1c0>)
 8000594:	f443 3300 	orr.w	r3, r3, #131072	; 0x20000
 8000598:	6153      	str	r3, [r2, #20]
  __ASM volatile ("dsb 0xF":::"memory");
 800059a:	f3bf 8f4f 	dsb	sy
}
 800059e:	bf00      	nop
  __ASM volatile ("isb 0xF":::"memory");
 80005a0:	f3bf 8f6f 	isb	sy
}
 80005a4:	e000      	b.n	80005a8 <main+0x50>
    if (SCB->CCR & SCB_CCR_IC_Msk) return;  /* return if ICache is already enabled */
 80005a6:	bf00      	nop
  #if defined (__DCACHE_PRESENT) && (__DCACHE_PRESENT == 1U)
    uint32_t ccsidr;
    uint32_t sets;
    uint32_t ways;

    if (SCB->CCR & SCB_CCR_DC_Msk) return;  /* return if DCache is already enabled */
 80005a8:	4b5b      	ldr	r3, [pc, #364]	; (8000718 <main+0x1c0>)
 80005aa:	695b      	ldr	r3, [r3, #20]
 80005ac:	f403 3380 	and.w	r3, r3, #65536	; 0x10000
 80005b0:	2b00      	cmp	r3, #0
 80005b2:	d138      	bne.n	8000626 <main+0xce>

    SCB->CSSELR = 0U;                       /* select Level 1 data cache */
 80005b4:	4b58      	ldr	r3, [pc, #352]	; (8000718 <main+0x1c0>)
 80005b6:	2200      	movs	r2, #0
 80005b8:	f8c3 2084 	str.w	r2, [r3, #132]	; 0x84
  __ASM volatile ("dsb 0xF":::"memory");
 80005bc:	f3bf 8f4f 	dsb	sy
}
 80005c0:	bf00      	nop
    __DSB();

    ccsidr = SCB->CCSIDR;
 80005c2:	4b55      	ldr	r3, [pc, #340]	; (8000718 <main+0x1c0>)
 80005c4:	f8d3 3080 	ldr.w	r3, [r3, #128]	; 0x80
 80005c8:	60fb      	str	r3, [r7, #12]

                                            /* invalidate D-Cache */
    sets = (uint32_t)(CCSIDR_SETS(ccsidr));
 80005ca:	68fb      	ldr	r3, [r7, #12]
 80005cc:	0b5b      	lsrs	r3, r3, #13
 80005ce:	f3c3 030e 	ubfx	r3, r3, #0, #15
 80005d2:	60bb      	str	r3, [r7, #8]
    do {
      ways = (uint32_t)(CCSIDR_WAYS(ccsidr));
 80005d4:	68fb      	ldr	r3, [r7, #12]
 80005d6:	08db      	lsrs	r3, r3, #3
 80005d8:	f3c3 0309 	ubfx	r3, r3, #0, #10
 80005dc:	607b      	str	r3, [r7, #4]
      do {
        SCB->DCISW = (((sets << SCB_DCISW_SET_Pos) & SCB_DCISW_SET_Msk) |
 80005de:	68bb      	ldr	r3, [r7, #8]
 80005e0:	015a      	lsls	r2, r3, #5
 80005e2:	f643 73e0 	movw	r3, #16352	; 0x3fe0
 80005e6:	4013      	ands	r3, r2
                      ((ways << SCB_DCISW_WAY_Pos) & SCB_DCISW_WAY_Msk)  );
 80005e8:	687a      	ldr	r2, [r7, #4]
 80005ea:	0792      	lsls	r2, r2, #30
        SCB->DCISW = (((sets << SCB_DCISW_SET_Pos) & SCB_DCISW_SET_Msk) |
 80005ec:	494a      	ldr	r1, [pc, #296]	; (8000718 <main+0x1c0>)
 80005ee:	4313      	orrs	r3, r2
 80005f0:	f8c1 3260 	str.w	r3, [r1, #608]	; 0x260
        #if defined ( __CC_ARM )
          __schedule_barrier();
        #endif
      } while (ways-- != 0U);
 80005f4:	687b      	ldr	r3, [r7, #4]
 80005f6:	1e5a      	subs	r2, r3, #1
 80005f8:	607a      	str	r2, [r7, #4]
 80005fa:	2b00      	cmp	r3, #0
 80005fc:	d1ef      	bne.n	80005de <main+0x86>
    } while(sets-- != 0U);
 80005fe:	68bb      	ldr	r3, [r7, #8]
 8000600:	1e5a      	subs	r2, r3, #1
 8000602:	60ba      	str	r2, [r7, #8]
 8000604:	2b00      	cmp	r3, #0
 8000606:	d1e5      	bne.n	80005d4 <main+0x7c>
  __ASM volatile ("dsb 0xF":::"memory");
 8000608:	f3bf 8f4f 	dsb	sy
}
 800060c:	bf00      	nop
    __DSB();

    SCB->CCR |=  (uint32_t)SCB_CCR_DC_Msk;  /* enable D-Cache */
 800060e:	4b42      	ldr	r3, [pc, #264]	; (8000718 <main+0x1c0>)
 8000610:	695b      	ldr	r3, [r3, #20]
 8000612:	4a41      	ldr	r2, [pc, #260]	; (8000718 <main+0x1c0>)
 8000614:	f443 3380 	orr.w	r3, r3, #65536	; 0x10000
 8000618:	6153      	str	r3, [r2, #20]
  __ASM volatile ("dsb 0xF":::"memory");
 800061a:	f3bf 8f4f 	dsb	sy
}
 800061e:	bf00      	nop
  __ASM volatile ("isb 0xF":::"memory");
 8000620:	f3bf 8f6f 	isb	sy
}
 8000624:	e000      	b.n	8000628 <main+0xd0>
    if (SCB->CCR & SCB_CCR_DC_Msk) return;  /* return if DCache is already enabled */
 8000626:	bf00      	nop
  /* Enable D-Cache---------------------------------------------------------*/
  SCB_EnableDCache();

/* USER CODE BEGIN Boot_Mode_Sequence_1 */
  /* Wait until CPU2 boots and enters in stop mode or timeout*/
  timeout = 0xFFFF;
 8000628:	f64f 73ff 	movw	r3, #65535	; 0xffff
 800062c:	617b      	str	r3, [r7, #20]
  while((__HAL_RCC_GET_FLAG(RCC_FLAG_D2CKRDY) != RESET) && (timeout-- > 0));
 800062e:	bf00      	nop
 8000630:	4b3a      	ldr	r3, [pc, #232]	; (800071c <main+0x1c4>)
 8000632:	681b      	ldr	r3, [r3, #0]
 8000634:	f403 4300 	and.w	r3, r3, #32768	; 0x8000
 8000638:	2b00      	cmp	r3, #0
 800063a:	d004      	beq.n	8000646 <main+0xee>
 800063c:	697b      	ldr	r3, [r7, #20]
 800063e:	1e5a      	subs	r2, r3, #1
 8000640:	617a      	str	r2, [r7, #20]
 8000642:	2b00      	cmp	r3, #0
 8000644:	dcf4      	bgt.n	8000630 <main+0xd8>
  if ( timeout < 0 )
 8000646:	697b      	ldr	r3, [r7, #20]
 8000648:	2b00      	cmp	r3, #0
 800064a:	da01      	bge.n	8000650 <main+0xf8>
  {
  Error_Handler();
 800064c:	f000 f965 	bl	800091a <Error_Handler>
  }
/* USER CODE END Boot_Mode_Sequence_1 */
  /* MCU Configuration--------------------------------------------------------*/

  /* Reset of all peripherals, Initializes the Flash interface and the Systick. */
  HAL_Init();
 8000650:	f000 faac 	bl	8000bac <HAL_Init>
  /* USER CODE BEGIN Init */

  /* USER CODE END Init */

  /* Configure the system clock */
  SystemClock_Config();
 8000654:	f000 f86e 	bl	8000734 <SystemClock_Config>
/* USER CODE BEGIN Boot_Mode_Sequence_2 */
/* When system initialization is finished, Cortex-M7 will release Cortex-M4 by means of
HSEM notification */
/*HW semaphore Clock enable*/
__HAL_RCC_HSEM_CLK_ENABLE();
 8000658:	4b30      	ldr	r3, [pc, #192]	; (800071c <main+0x1c4>)
 800065a:	f8d3 30e0 	ldr.w	r3, [r3, #224]	; 0xe0
 800065e:	4a2f      	ldr	r2, [pc, #188]	; (800071c <main+0x1c4>)
 8000660:	f043 7300 	orr.w	r3, r3, #33554432	; 0x2000000
 8000664:	f8c2 30e0 	str.w	r3, [r2, #224]	; 0xe0
 8000668:	4b2c      	ldr	r3, [pc, #176]	; (800071c <main+0x1c4>)
 800066a:	f8d3 30e0 	ldr.w	r3, [r3, #224]	; 0xe0
 800066e:	f003 7300 	and.w	r3, r3, #33554432	; 0x2000000
 8000672:	603b      	str	r3, [r7, #0]
 8000674:	683b      	ldr	r3, [r7, #0]
/*Take HSEM */
HAL_HSEM_FastTake(HSEM_ID_0);
 8000676:	2000      	movs	r0, #0
 8000678:	f000 fcc2 	bl	8001000 <HAL_HSEM_FastTake>
/*Release HSEM in order to notify the CPU2(CM4)*/
HAL_HSEM_Release(HSEM_ID_0,0);
 800067c:	2100      	movs	r1, #0
 800067e:	2000      	movs	r0, #0
 8000680:	f000 fcd8 	bl	8001034 <HAL_HSEM_Release>
/* wait until CPU2 wakes up from stop mode */
timeout = 0xFFFF;
 8000684:	f64f 73ff 	movw	r3, #65535	; 0xffff
 8000688:	617b      	str	r3, [r7, #20]
while((__HAL_RCC_GET_FLAG(RCC_FLAG_D2CKRDY) == RESET) && (timeout-- > 0));
 800068a:	bf00      	nop
 800068c:	4b23      	ldr	r3, [pc, #140]	; (800071c <main+0x1c4>)
 800068e:	681b      	ldr	r3, [r3, #0]
 8000690:	f403 4300 	and.w	r3, r3, #32768	; 0x8000
 8000694:	2b00      	cmp	r3, #0
 8000696:	d104      	bne.n	80006a2 <main+0x14a>
 8000698:	697b      	ldr	r3, [r7, #20]
 800069a:	1e5a      	subs	r2, r3, #1
 800069c:	617a      	str	r2, [r7, #20]
 800069e:	2b00      	cmp	r3, #0
 80006a0:	dcf4      	bgt.n	800068c <main+0x134>
if ( timeout < 0 )
 80006a2:	697b      	ldr	r3, [r7, #20]
 80006a4:	2b00      	cmp	r3, #0
 80006a6:	da01      	bge.n	80006ac <main+0x154>
{
Error_Handler();
 80006a8:	f000 f937 	bl	800091a <Error_Handler>

  /* USER CODE END SysInit */

  /* Initialize all configured peripherals */
  /* USER CODE BEGIN 2 */
int32_t status=0;
 80006ac:	2300      	movs	r3, #0
 80006ae:	613b      	str	r3, [r7, #16]
/**Initialize mailebox use notify the other core new msg*/
MAILBOX_Init();
 80006b0:	f004 f944 	bl	800493c <MAILBOX_Init>
/*Inialise the rpmsg endpoint to set default addresses to RPMSG_ADDR_ANY*/
rpmsg_init_ept(&rp_endpoint ,RPMSG_CHAN_NAME,RPMSG_ADDR_ANY,RPMSG_ADDR_ANY,NULL,NULL);
 80006b4:	2300      	movs	r3, #0
 80006b6:	9301      	str	r3, [sp, #4]
 80006b8:	2300      	movs	r3, #0
 80006ba:	9300      	str	r3, [sp, #0]
 80006bc:	f04f 33ff 	mov.w	r3, #4294967295
 80006c0:	f04f 32ff 	mov.w	r2, #4294967295
 80006c4:	4916      	ldr	r1, [pc, #88]	; (8000720 <main+0x1c8>)
 80006c6:	4817      	ldr	r0, [pc, #92]	; (8000724 <main+0x1cc>)
 80006c8:	f7ff ff28 	bl	800051c <rpmsg_init_ept>
/*Iniatlisw OpenAMP & libmetal libabries*/
if(MX_OPENAMP_Init(RPMSG_MASTER,new_service_cb)!=HAL_OK)
 80006cc:	4916      	ldr	r1, [pc, #88]	; (8000728 <main+0x1d0>)
 80006ce:	2000      	movs	r0, #0
 80006d0:	f004 fa4e 	bl	8004b70 <MX_OPENAMP_Init>
 80006d4:	4603      	mov	r3, r0
 80006d6:	2b00      	cmp	r3, #0
 80006d8:	d001      	beq.n	80006de <main+0x186>
{
	Error_Handler();
 80006da:	f000 f91e 	bl	800091a <Error_Handler>
}
/*The rpmsg service is initiate by the remote processor on A7 new_service_cb
 * callback is received on service creation wait for callabck
 * */
OPENAMP_Wait_EndPointready(&rp_endpoint);
 80006de:	4811      	ldr	r0, [pc, #68]	; (8000724 <main+0x1cc>)
 80006e0:	f004 fb12 	bl	8004d08 <OPENAMP_Wait_EndPointready>
status=OPENAMP_send(&rp_endpoint,str2cm4,strlen(str2cm4)+1);
 80006e4:	4811      	ldr	r0, [pc, #68]	; (800072c <main+0x1d4>)
 80006e6:	f7ff fe05 	bl	80002f4 <strlen>
 80006ea:	4603      	mov	r3, r0
 80006ec:	3301      	adds	r3, #1
 80006ee:	461a      	mov	r2, r3
 80006f0:	490e      	ldr	r1, [pc, #56]	; (800072c <main+0x1d4>)
 80006f2:	480c      	ldr	r0, [pc, #48]	; (8000724 <main+0x1cc>)
 80006f4:	f7ff fef2 	bl	80004dc <rpmsg_send>
 80006f8:	6138      	str	r0, [r7, #16]
if(status < 0 )
 80006fa:	693b      	ldr	r3, [r7, #16]
 80006fc:	2b00      	cmp	r3, #0
 80006fe:	da04      	bge.n	800070a <main+0x1b2>
{
	Error_Handler();
 8000700:	f000 f90b 	bl	800091a <Error_Handler>
}
while(service_created)
 8000704:	e001      	b.n	800070a <main+0x1b2>
{
	OPENAMP_check_for_message();
 8000706:	f004 faf3 	bl	8004cf0 <OPENAMP_check_for_message>
while(service_created)
 800070a:	4b09      	ldr	r3, [pc, #36]	; (8000730 <main+0x1d8>)
 800070c:	681b      	ldr	r3, [r3, #0]
 800070e:	2b00      	cmp	r3, #0
 8000710:	d1f9      	bne.n	8000706 <main+0x1ae>
}
OPENAMP_DeInit();
 8000712:	f004 fac3 	bl	8004c9c <OPENAMP_DeInit>
  /* USER CODE END 2 */

  /* Infinite loop */
  /* USER CODE BEGIN WHILE */
  while (1)
 8000716:	e7fe      	b.n	8000716 <main+0x1be>
 8000718:	e000ed00 	.word	0xe000ed00
 800071c:	58024400 	.word	0x58024400
 8000720:	08005eac 	.word	0x08005eac
 8000724:	24000198 	.word	0x24000198
 8000728:	08000885 	.word	0x08000885
 800072c:	24000008 	.word	0x24000008
 8000730:	24000190 	.word	0x24000190

08000734 <SystemClock_Config>:
/**
  * @brief System Clock Configuration
  * @retval None
  */
void SystemClock_Config(void)
{
 8000734:	b580      	push	{r7, lr}
 8000736:	b09c      	sub	sp, #112	; 0x70
 8000738:	af00      	add	r7, sp, #0
  RCC_OscInitTypeDef RCC_OscInitStruct = {0};
 800073a:	f107 0324 	add.w	r3, r7, #36	; 0x24
 800073e:	224c      	movs	r2, #76	; 0x4c
 8000740:	2100      	movs	r1, #0
 8000742:	4618      	mov	r0, r3
 8000744:	f004 fbb4 	bl	8004eb0 <memset>
  RCC_ClkInitTypeDef RCC_ClkInitStruct = {0};
 8000748:	1d3b      	adds	r3, r7, #4
 800074a:	2220      	movs	r2, #32
 800074c:	2100      	movs	r1, #0
 800074e:	4618      	mov	r0, r3
 8000750:	f004 fbae 	bl	8004eb0 <memset>

  /** Supply configuration update enable
  */
  HAL_PWREx_ConfigSupply(PWR_DIRECT_SMPS_SUPPLY);
 8000754:	2004      	movs	r0, #4
 8000756:	f000 fcad 	bl	80010b4 <HAL_PWREx_ConfigSupply>

  /** Configure the main internal regulator output voltage
  */
  __HAL_PWR_VOLTAGESCALING_CONFIG(PWR_REGULATOR_VOLTAGE_SCALE3);
 800075a:	2300      	movs	r3, #0
 800075c:	603b      	str	r3, [r7, #0]
 800075e:	4b32      	ldr	r3, [pc, #200]	; (8000828 <SystemClock_Config+0xf4>)
 8000760:	6adb      	ldr	r3, [r3, #44]	; 0x2c
 8000762:	4a31      	ldr	r2, [pc, #196]	; (8000828 <SystemClock_Config+0xf4>)
 8000764:	f023 0301 	bic.w	r3, r3, #1
 8000768:	62d3      	str	r3, [r2, #44]	; 0x2c
 800076a:	4b2f      	ldr	r3, [pc, #188]	; (8000828 <SystemClock_Config+0xf4>)
 800076c:	6adb      	ldr	r3, [r3, #44]	; 0x2c
 800076e:	f003 0301 	and.w	r3, r3, #1
 8000772:	603b      	str	r3, [r7, #0]
 8000774:	4b2d      	ldr	r3, [pc, #180]	; (800082c <SystemClock_Config+0xf8>)
 8000776:	699b      	ldr	r3, [r3, #24]
 8000778:	f423 4340 	bic.w	r3, r3, #49152	; 0xc000
 800077c:	4a2b      	ldr	r2, [pc, #172]	; (800082c <SystemClock_Config+0xf8>)
 800077e:	f443 4380 	orr.w	r3, r3, #16384	; 0x4000
 8000782:	6193      	str	r3, [r2, #24]
 8000784:	4b29      	ldr	r3, [pc, #164]	; (800082c <SystemClock_Config+0xf8>)
 8000786:	699b      	ldr	r3, [r3, #24]
 8000788:	f403 4340 	and.w	r3, r3, #49152	; 0xc000
 800078c:	603b      	str	r3, [r7, #0]
 800078e:	683b      	ldr	r3, [r7, #0]

  while(!__HAL_PWR_GET_FLAG(PWR_FLAG_VOSRDY)) {}
 8000790:	bf00      	nop
 8000792:	4b26      	ldr	r3, [pc, #152]	; (800082c <SystemClock_Config+0xf8>)
 8000794:	699b      	ldr	r3, [r3, #24]
 8000796:	f403 5300 	and.w	r3, r3, #8192	; 0x2000
 800079a:	f5b3 5f00 	cmp.w	r3, #8192	; 0x2000
 800079e:	d1f8      	bne.n	8000792 <SystemClock_Config+0x5e>

  /** Initializes the RCC Oscillators according to the specified parameters
  * in the RCC_OscInitTypeDef structure.
  */
  RCC_OscInitStruct.OscillatorType = RCC_OSCILLATORTYPE_HSI;
 80007a0:	2302      	movs	r3, #2
 80007a2:	627b      	str	r3, [r7, #36]	; 0x24
  RCC_OscInitStruct.HSIState = RCC_HSI_DIV1;
 80007a4:	2301      	movs	r3, #1
 80007a6:	633b      	str	r3, [r7, #48]	; 0x30
  RCC_OscInitStruct.HSICalibrationValue = RCC_HSICALIBRATION_DEFAULT;
 80007a8:	2340      	movs	r3, #64	; 0x40
 80007aa:	637b      	str	r3, [r7, #52]	; 0x34
  RCC_OscInitStruct.PLL.PLLState = RCC_PLL_ON;
 80007ac:	2302      	movs	r3, #2
 80007ae:	64bb      	str	r3, [r7, #72]	; 0x48
  RCC_OscInitStruct.PLL.PLLSource = RCC_PLLSOURCE_HSI;
 80007b0:	2300      	movs	r3, #0
 80007b2:	64fb      	str	r3, [r7, #76]	; 0x4c
  RCC_OscInitStruct.PLL.PLLM = 4;
 80007b4:	2304      	movs	r3, #4
 80007b6:	653b      	str	r3, [r7, #80]	; 0x50
  RCC_OscInitStruct.PLL.PLLN = 10;
 80007b8:	230a      	movs	r3, #10
 80007ba:	657b      	str	r3, [r7, #84]	; 0x54
  RCC_OscInitStruct.PLL.PLLP = 2;
 80007bc:	2302      	movs	r3, #2
 80007be:	65bb      	str	r3, [r7, #88]	; 0x58
  RCC_OscInitStruct.PLL.PLLQ = 2;
 80007c0:	2302      	movs	r3, #2
 80007c2:	65fb      	str	r3, [r7, #92]	; 0x5c
  RCC_OscInitStruct.PLL.PLLR = 2;
 80007c4:	2302      	movs	r3, #2
 80007c6:	663b      	str	r3, [r7, #96]	; 0x60
  RCC_OscInitStruct.PLL.PLLRGE = RCC_PLL1VCIRANGE_3;
 80007c8:	230c      	movs	r3, #12
 80007ca:	667b      	str	r3, [r7, #100]	; 0x64
  RCC_OscInitStruct.PLL.PLLVCOSEL = RCC_PLL1VCOMEDIUM;
 80007cc:	2302      	movs	r3, #2
 80007ce:	66bb      	str	r3, [r7, #104]	; 0x68
  RCC_OscInitStruct.PLL.PLLFRACN = 0;
 80007d0:	2300      	movs	r3, #0
 80007d2:	66fb      	str	r3, [r7, #108]	; 0x6c
  if (HAL_RCC_OscConfig(&RCC_OscInitStruct) != HAL_OK)
 80007d4:	f107 0324 	add.w	r3, r7, #36	; 0x24
 80007d8:	4618      	mov	r0, r3
 80007da:	f000 fcc5 	bl	8001168 <HAL_RCC_OscConfig>
 80007de:	4603      	mov	r3, r0
 80007e0:	2b00      	cmp	r3, #0
 80007e2:	d001      	beq.n	80007e8 <SystemClock_Config+0xb4>
  {
    Error_Handler();
 80007e4:	f000 f899 	bl	800091a <Error_Handler>
  }

  /** Initializes the CPU, AHB and APB buses clocks
  */
  RCC_ClkInitStruct.ClockType = RCC_CLOCKTYPE_HCLK|RCC_CLOCKTYPE_SYSCLK
 80007e8:	233f      	movs	r3, #63	; 0x3f
 80007ea:	607b      	str	r3, [r7, #4]
                              |RCC_CLOCKTYPE_PCLK1|RCC_CLOCKTYPE_PCLK2
                              |RCC_CLOCKTYPE_D3PCLK1|RCC_CLOCKTYPE_D1PCLK1;
  RCC_ClkInitStruct.SYSCLKSource = RCC_SYSCLKSOURCE_PLLCLK;
 80007ec:	2303      	movs	r3, #3
 80007ee:	60bb      	str	r3, [r7, #8]
  RCC_ClkInitStruct.SYSCLKDivider = RCC_SYSCLK_DIV1;
 80007f0:	2300      	movs	r3, #0
 80007f2:	60fb      	str	r3, [r7, #12]
  RCC_ClkInitStruct.AHBCLKDivider = RCC_HCLK_DIV2;
 80007f4:	2308      	movs	r3, #8
 80007f6:	613b      	str	r3, [r7, #16]
  RCC_ClkInitStruct.APB3CLKDivider = RCC_APB3_DIV2;
 80007f8:	2340      	movs	r3, #64	; 0x40
 80007fa:	617b      	str	r3, [r7, #20]
  RCC_ClkInitStruct.APB1CLKDivider = RCC_APB1_DIV2;
 80007fc:	2340      	movs	r3, #64	; 0x40
 80007fe:	61bb      	str	r3, [r7, #24]
  RCC_ClkInitStruct.APB2CLKDivider = RCC_APB2_DIV2;
 8000800:	f44f 6380 	mov.w	r3, #1024	; 0x400
 8000804:	61fb      	str	r3, [r7, #28]
  RCC_ClkInitStruct.APB4CLKDivider = RCC_APB4_DIV2;
 8000806:	2340      	movs	r3, #64	; 0x40
 8000808:	623b      	str	r3, [r7, #32]

  if (HAL_RCC_ClockConfig(&RCC_ClkInitStruct, FLASH_LATENCY_0) != HAL_OK)
 800080a:	1d3b      	adds	r3, r7, #4
 800080c:	2100      	movs	r1, #0
 800080e:	4618      	mov	r0, r3
 8000810:	f001 f8d8 	bl	80019c4 <HAL_RCC_ClockConfig>
 8000814:	4603      	mov	r3, r0
 8000816:	2b00      	cmp	r3, #0
 8000818:	d001      	beq.n	800081e <SystemClock_Config+0xea>
  {
    Error_Handler();
 800081a:	f000 f87e 	bl	800091a <Error_Handler>
  }
}
 800081e:	bf00      	nop
 8000820:	3770      	adds	r7, #112	; 0x70
 8000822:	46bd      	mov	sp, r7
 8000824:	bd80      	pop	{r7, pc}
 8000826:	bf00      	nop
 8000828:	58000400 	.word	0x58000400
 800082c:	58024800 	.word	0x58024800

08000830 <rpmsg_recv_callback>:

/* USER CODE BEGIN 4 */
static int rpmsg_recv_callback(struct rpmsg_endpoint *ept, void *data, size_t len, uint32_t src, void *priv)
{
 8000830:	b480      	push	{r7}
 8000832:	b085      	sub	sp, #20
 8000834:	af00      	add	r7, sp, #0
 8000836:	60f8      	str	r0, [r7, #12]
 8000838:	60b9      	str	r1, [r7, #8]
 800083a:	607a      	str	r2, [r7, #4]
 800083c:	603b      	str	r3, [r7, #0]
	received_data_str= *((unsigned int *)data);
 800083e:	68bb      	ldr	r3, [r7, #8]
 8000840:	681b      	ldr	r3, [r3, #0]
 8000842:	4a06      	ldr	r2, [pc, #24]	; (800085c <rpmsg_recv_callback+0x2c>)
 8000844:	6013      	str	r3, [r2, #0]
	message_received=1;
 8000846:	4b06      	ldr	r3, [pc, #24]	; (8000860 <rpmsg_recv_callback+0x30>)
 8000848:	2201      	movs	r2, #1
 800084a:	601a      	str	r2, [r3, #0]
	return 0;
 800084c:	2300      	movs	r3, #0
}
 800084e:	4618      	mov	r0, r3
 8000850:	3714      	adds	r7, #20
 8000852:	46bd      	mov	sp, r7
 8000854:	f85d 7b04 	ldr.w	r7, [sp], #4
 8000858:	4770      	bx	lr
 800085a:	bf00      	nop
 800085c:	24000194 	.word	0x24000194
 8000860:	2400018c 	.word	0x2400018c

08000864 <service_destroy_cb>:
void service_destroy_cb(struct rpmsg_endpoint *ept)
{
 8000864:	b480      	push	{r7}
 8000866:	b083      	sub	sp, #12
 8000868:	af00      	add	r7, sp, #0
 800086a:	6078      	str	r0, [r7, #4]
	/*This func is called while remote endpoint as been destroyed the
	 * service is no more available*/
	service_created=0;
 800086c:	4b04      	ldr	r3, [pc, #16]	; (8000880 <service_destroy_cb+0x1c>)
 800086e:	2200      	movs	r2, #0
 8000870:	601a      	str	r2, [r3, #0]
}
 8000872:	bf00      	nop
 8000874:	370c      	adds	r7, #12
 8000876:	46bd      	mov	sp, r7
 8000878:	f85d 7b04 	ldr.w	r7, [sp], #4
 800087c:	4770      	bx	lr
 800087e:	bf00      	nop
 8000880:	24000190 	.word	0x24000190

08000884 <new_service_cb>:
void new_service_cb(struct rpmsg_device *rdev ,const char *name ,uint32_t dest)
{
 8000884:	b580      	push	{r7, lr}
 8000886:	b086      	sub	sp, #24
 8000888:	af02      	add	r7, sp, #8
 800088a:	60f8      	str	r0, [r7, #12]
 800088c:	60b9      	str	r1, [r7, #8]
 800088e:	607a      	str	r2, [r7, #4]
	OPENAMP_create_endpoint(&rp_endpoint,name,dest,rpmsg_recv_callback,service_destroy_cb);
 8000890:	4b07      	ldr	r3, [pc, #28]	; (80008b0 <new_service_cb+0x2c>)
 8000892:	9300      	str	r3, [sp, #0]
 8000894:	4b07      	ldr	r3, [pc, #28]	; (80008b4 <new_service_cb+0x30>)
 8000896:	687a      	ldr	r2, [r7, #4]
 8000898:	68b9      	ldr	r1, [r7, #8]
 800089a:	4807      	ldr	r0, [pc, #28]	; (80008b8 <new_service_cb+0x34>)
 800089c:	f004 fa0a 	bl	8004cb4 <OPENAMP_create_endpoint>
	service_created=1;
 80008a0:	4b06      	ldr	r3, [pc, #24]	; (80008bc <new_service_cb+0x38>)
 80008a2:	2201      	movs	r2, #1
 80008a4:	601a      	str	r2, [r3, #0]
}
 80008a6:	bf00      	nop
 80008a8:	3710      	adds	r7, #16
 80008aa:	46bd      	mov	sp, r7
 80008ac:	bd80      	pop	{r7, pc}
 80008ae:	bf00      	nop
 80008b0:	08000865 	.word	0x08000865
 80008b4:	08000831 	.word	0x08000831
 80008b8:	24000198 	.word	0x24000198
 80008bc:	24000190 	.word	0x24000190

080008c0 <MPU_Config>:
/* USER CODE END 4 */

/* MPU Configuration */

void MPU_Config(void)
{
 80008c0:	b580      	push	{r7, lr}
 80008c2:	b084      	sub	sp, #16
 80008c4:	af00      	add	r7, sp, #0
  MPU_Region_InitTypeDef MPU_InitStruct = {0};
 80008c6:	463b      	mov	r3, r7
 80008c8:	2200      	movs	r2, #0
 80008ca:	601a      	str	r2, [r3, #0]
 80008cc:	605a      	str	r2, [r3, #4]
 80008ce:	609a      	str	r2, [r3, #8]
 80008d0:	60da      	str	r2, [r3, #12]

  /* Disables the MPU */
  HAL_MPU_Disable();
 80008d2:	f000 fb19 	bl	8000f08 <HAL_MPU_Disable>

  /** Initializes and configures the Region and the memory to be protected
  */
  MPU_InitStruct.Enable = MPU_REGION_ENABLE;
 80008d6:	2301      	movs	r3, #1
 80008d8:	703b      	strb	r3, [r7, #0]
  MPU_InitStruct.Number = MPU_REGION_NUMBER0;
 80008da:	2300      	movs	r3, #0
 80008dc:	707b      	strb	r3, [r7, #1]
  MPU_InitStruct.BaseAddress = 0x38000000;
 80008de:	f04f 5360 	mov.w	r3, #939524096	; 0x38000000
 80008e2:	607b      	str	r3, [r7, #4]
  MPU_InitStruct.Size = MPU_REGION_SIZE_64KB;
 80008e4:	230f      	movs	r3, #15
 80008e6:	723b      	strb	r3, [r7, #8]
  MPU_InitStruct.SubRegionDisable = 0x0;
 80008e8:	2300      	movs	r3, #0
 80008ea:	727b      	strb	r3, [r7, #9]
  MPU_InitStruct.TypeExtField = MPU_TEX_LEVEL0;
 80008ec:	2300      	movs	r3, #0
 80008ee:	72bb      	strb	r3, [r7, #10]
  MPU_InitStruct.AccessPermission = MPU_REGION_FULL_ACCESS;
 80008f0:	2303      	movs	r3, #3
 80008f2:	72fb      	strb	r3, [r7, #11]
  MPU_InitStruct.DisableExec = MPU_INSTRUCTION_ACCESS_ENABLE;
 80008f4:	2300      	movs	r3, #0
 80008f6:	733b      	strb	r3, [r7, #12]
  MPU_InitStruct.IsShareable = MPU_ACCESS_SHAREABLE;
 80008f8:	2301      	movs	r3, #1
 80008fa:	737b      	strb	r3, [r7, #13]
  MPU_InitStruct.IsCacheable = MPU_ACCESS_NOT_CACHEABLE;
 80008fc:	2300      	movs	r3, #0
 80008fe:	73bb      	strb	r3, [r7, #14]
  MPU_InitStruct.IsBufferable = MPU_ACCESS_NOT_BUFFERABLE;
 8000900:	2300      	movs	r3, #0
 8000902:	73fb      	strb	r3, [r7, #15]

  HAL_MPU_ConfigRegion(&MPU_InitStruct);
 8000904:	463b      	mov	r3, r7
 8000906:	4618      	mov	r0, r3
 8000908:	f000 fb36 	bl	8000f78 <HAL_MPU_ConfigRegion>
  /* Enables the MPU */
  HAL_MPU_Enable(MPU_PRIVILEGED_DEFAULT);
 800090c:	2004      	movs	r0, #4
 800090e:	f000 fb13 	bl	8000f38 <HAL_MPU_Enable>

}
 8000912:	bf00      	nop
 8000914:	3710      	adds	r7, #16
 8000916:	46bd      	mov	sp, r7
 8000918:	bd80      	pop	{r7, pc}

0800091a <Error_Handler>:
/**
  * @brief  This function is executed in case of error occurrence.
  * @retval None
  */
void Error_Handler(void)
{
 800091a:	b480      	push	{r7}
 800091c:	af00      	add	r7, sp, #0
  __ASM volatile ("cpsid i" : : : "memory");
 800091e:	b672      	cpsid	i
}
 8000920:	bf00      	nop
  /* USER CODE BEGIN Error_Handler_Debug */
  /* User can add his own implementation to report the HAL error return state */
  __disable_irq();
  while (1)
 8000922:	e7fe      	b.n	8000922 <Error_Handler+0x8>

08000924 <HAL_MspInit>:
/* USER CODE END 0 */
/**
  * Initializes the Global MSP.
  */
void HAL_MspInit(void)
{
 8000924:	b580      	push	{r7, lr}
 8000926:	b082      	sub	sp, #8
 8000928:	af00      	add	r7, sp, #0
  /* USER CODE BEGIN MspInit 0 */

  /* USER CODE END MspInit 0 */

  __HAL_RCC_SYSCFG_CLK_ENABLE();
 800092a:	4b0d      	ldr	r3, [pc, #52]	; (8000960 <HAL_MspInit+0x3c>)
 800092c:	f8d3 30f4 	ldr.w	r3, [r3, #244]	; 0xf4
 8000930:	4a0b      	ldr	r2, [pc, #44]	; (8000960 <HAL_MspInit+0x3c>)
 8000932:	f043 0302 	orr.w	r3, r3, #2
 8000936:	f8c2 30f4 	str.w	r3, [r2, #244]	; 0xf4
 800093a:	4b09      	ldr	r3, [pc, #36]	; (8000960 <HAL_MspInit+0x3c>)
 800093c:	f8d3 30f4 	ldr.w	r3, [r3, #244]	; 0xf4
 8000940:	f003 0302 	and.w	r3, r3, #2
 8000944:	607b      	str	r3, [r7, #4]
 8000946:	687b      	ldr	r3, [r7, #4]

  /* System interrupt init*/

  /* Peripheral interrupt init */
  /* HSEM1_IRQn interrupt configuration */
  HAL_NVIC_SetPriority(HSEM1_IRQn, 0, 0);
 8000948:	2200      	movs	r2, #0
 800094a:	2100      	movs	r1, #0
 800094c:	207d      	movs	r0, #125	; 0x7d
 800094e:	f000 faa6 	bl	8000e9e <HAL_NVIC_SetPriority>
  /* HSEM1_IRQn interrupt configuration */
  HAL_NVIC_EnableIRQ(HSEM1_IRQn);
 8000952:	207d      	movs	r0, #125	; 0x7d
 8000954:	f000 fabd 	bl	8000ed2 <HAL_NVIC_EnableIRQ>

  /* USER CODE BEGIN MspInit 1 */

  /* USER CODE END MspInit 1 */
}
 8000958:	bf00      	nop
 800095a:	3708      	adds	r7, #8
 800095c:	46bd      	mov	sp, r7
 800095e:	bd80      	pop	{r7, pc}
 8000960:	58024400 	.word	0x58024400

08000964 <NMI_Handler>:
/******************************************************************************/
/**
  * @brief This function handles Non maskable interrupt.
  */
void NMI_Handler(void)
{
 8000964:	b480      	push	{r7}
 8000966:	af00      	add	r7, sp, #0
  /* USER CODE BEGIN NonMaskableInt_IRQn 0 */

  /* USER CODE END NonMaskableInt_IRQn 0 */
  /* USER CODE BEGIN NonMaskableInt_IRQn 1 */
  while (1)
 8000968:	e7fe      	b.n	8000968 <NMI_Handler+0x4>

0800096a <HardFault_Handler>:

/**
  * @brief This function handles Hard fault interrupt.
  */
void HardFault_Handler(void)
{
 800096a:	b480      	push	{r7}
 800096c:	af00      	add	r7, sp, #0
  /* USER CODE BEGIN HardFault_IRQn 0 */

  /* USER CODE END HardFault_IRQn 0 */
  while (1)
 800096e:	e7fe      	b.n	800096e <HardFault_Handler+0x4>

08000970 <MemManage_Handler>:

/**
  * @brief This function handles Memory management fault.
  */
void MemManage_Handler(void)
{
 8000970:	b480      	push	{r7}
 8000972:	af00      	add	r7, sp, #0
  /* USER CODE BEGIN MemoryManagement_IRQn 0 */

  /* USER CODE END MemoryManagement_IRQn 0 */
  while (1)
 8000974:	e7fe      	b.n	8000974 <MemManage_Handler+0x4>

08000976 <BusFault_Handler>:

/**
  * @brief This function handles Pre-fetch fault, memory access fault.
  */
void BusFault_Handler(void)
{
 8000976:	b480      	push	{r7}
 8000978:	af00      	add	r7, sp, #0
  /* USER CODE BEGIN BusFault_IRQn 0 */

  /* USER CODE END BusFault_IRQn 0 */
  while (1)
 800097a:	e7fe      	b.n	800097a <BusFault_Handler+0x4>

0800097c <UsageFault_Handler>:

/**
  * @brief This function handles Undefined instruction or illegal state.
  */
void UsageFault_Handler(void)
{
 800097c:	b480      	push	{r7}
 800097e:	af00      	add	r7, sp, #0
  /* USER CODE BEGIN UsageFault_IRQn 0 */

  /* USER CODE END UsageFault_IRQn 0 */
  while (1)
 8000980:	e7fe      	b.n	8000980 <UsageFault_Handler+0x4>

08000982 <SVC_Handler>:

/**
  * @brief This function handles System service call via SWI instruction.
  */
void SVC_Handler(void)
{
 8000982:	b480      	push	{r7}
 8000984:	af00      	add	r7, sp, #0

  /* USER CODE END SVCall_IRQn 0 */
  /* USER CODE BEGIN SVCall_IRQn 1 */

  /* USER CODE END SVCall_IRQn 1 */
}
 8000986:	bf00      	nop
 8000988:	46bd      	mov	sp, r7
 800098a:	f85d 7b04 	ldr.w	r7, [sp], #4
 800098e:	4770      	bx	lr

08000990 <DebugMon_Handler>:

/**
  * @brief This function handles Debug monitor.
  */
void DebugMon_Handler(void)
{
 8000990:	b480      	push	{r7}
 8000992:	af00      	add	r7, sp, #0

  /* USER CODE END DebugMonitor_IRQn 0 */
  /* USER CODE BEGIN DebugMonitor_IRQn 1 */

  /* USER CODE END DebugMonitor_IRQn 1 */
}
 8000994:	bf00      	nop
 8000996:	46bd      	mov	sp, r7
 8000998:	f85d 7b04 	ldr.w	r7, [sp], #4
 800099c:	4770      	bx	lr

0800099e <PendSV_Handler>:

/**
  * @brief This function handles Pendable request for system service.
  */
void PendSV_Handler(void)
{
 800099e:	b480      	push	{r7}
 80009a0:	af00      	add	r7, sp, #0

  /* USER CODE END PendSV_IRQn 0 */
  /* USER CODE BEGIN PendSV_IRQn 1 */

  /* USER CODE END PendSV_IRQn 1 */
}
 80009a2:	bf00      	nop
 80009a4:	46bd      	mov	sp, r7
 80009a6:	f85d 7b04 	ldr.w	r7, [sp], #4
 80009aa:	4770      	bx	lr

080009ac <SysTick_Handler>:

/**
  * @brief This function handles System tick timer.
  */
void SysTick_Handler(void)
{
 80009ac:	b580      	push	{r7, lr}
 80009ae:	af00      	add	r7, sp, #0
  /* USER CODE BEGIN SysTick_IRQn 0 */

  /* USER CODE END SysTick_IRQn 0 */
  HAL_IncTick();
 80009b0:	f000 f96e 	bl	8000c90 <HAL_IncTick>
  /* USER CODE BEGIN SysTick_IRQn 1 */

  /* USER CODE END SysTick_IRQn 1 */
}
 80009b4:	bf00      	nop
 80009b6:	bd80      	pop	{r7, pc}

080009b8 <HSEM1_IRQHandler>:

/**
  * @brief This function handles HSEM1 global interrupt.
  */
void HSEM1_IRQHandler(void)
{
 80009b8:	b580      	push	{r7, lr}
 80009ba:	af00      	add	r7, sp, #0
  /* USER CODE BEGIN HSEM1_IRQn 0 */

  /* USER CODE END HSEM1_IRQn 0 */
  HAL_HSEM_IRQHandler();
 80009bc:	f000 fb60 	bl	8001080 <HAL_HSEM_IRQHandler>
  /* USER CODE BEGIN HSEM1_IRQn 1 */

  /* USER CODE END HSEM1_IRQn 1 */
}
 80009c0:	bf00      	nop
 80009c2:	bd80      	pop	{r7, pc}

080009c4 <_getpid>:
void initialise_monitor_handles()
{
}

int _getpid(void)
{
 80009c4:	b480      	push	{r7}
 80009c6:	af00      	add	r7, sp, #0
	return 1;
 80009c8:	2301      	movs	r3, #1
}
 80009ca:	4618      	mov	r0, r3
 80009cc:	46bd      	mov	sp, r7
 80009ce:	f85d 7b04 	ldr.w	r7, [sp], #4
 80009d2:	4770      	bx	lr

080009d4 <_kill>:

int _kill(int pid, int sig)
{
 80009d4:	b480      	push	{r7}
 80009d6:	b083      	sub	sp, #12
 80009d8:	af00      	add	r7, sp, #0
 80009da:	6078      	str	r0, [r7, #4]
 80009dc:	6039      	str	r1, [r7, #0]
	errno = EINVAL;
 80009de:	4b05      	ldr	r3, [pc, #20]	; (80009f4 <_kill+0x20>)
 80009e0:	2216      	movs	r2, #22
 80009e2:	601a      	str	r2, [r3, #0]
	return -1;
 80009e4:	f04f 33ff 	mov.w	r3, #4294967295
}
 80009e8:	4618      	mov	r0, r3
 80009ea:	370c      	adds	r7, #12
 80009ec:	46bd      	mov	sp, r7
 80009ee:	f85d 7b04 	ldr.w	r7, [sp], #4
 80009f2:	4770      	bx	lr
 80009f4:	240002a0 	.word	0x240002a0

080009f8 <_exit>:

void _exit (int status)
{
 80009f8:	b580      	push	{r7, lr}
 80009fa:	b082      	sub	sp, #8
 80009fc:	af00      	add	r7, sp, #0
 80009fe:	6078      	str	r0, [r7, #4]
	_kill(status, -1);
 8000a00:	f04f 31ff 	mov.w	r1, #4294967295
 8000a04:	6878      	ldr	r0, [r7, #4]
 8000a06:	f7ff ffe5 	bl	80009d4 <_kill>
	while (1) {}		/* Make sure we hang here */
 8000a0a:	e7fe      	b.n	8000a0a <_exit+0x12>

08000a0c <_read>:
}

__attribute__((weak)) int _read(int file, char *ptr, int len)
{
 8000a0c:	b580      	push	{r7, lr}
 8000a0e:	b086      	sub	sp, #24
 8000a10:	af00      	add	r7, sp, #0
 8000a12:	60f8      	str	r0, [r7, #12]
 8000a14:	60b9      	str	r1, [r7, #8]
 8000a16:	607a      	str	r2, [r7, #4]
	int DataIdx;

	for (DataIdx = 0; DataIdx < len; DataIdx++)
 8000a18:	2300      	movs	r3, #0
 8000a1a:	617b      	str	r3, [r7, #20]
 8000a1c:	e00a      	b.n	8000a34 <_read+0x28>
	{
		*ptr++ = __io_getchar();
 8000a1e:	f3af 8000 	nop.w
 8000a22:	4601      	mov	r1, r0
 8000a24:	68bb      	ldr	r3, [r7, #8]
 8000a26:	1c5a      	adds	r2, r3, #1
 8000a28:	60ba      	str	r2, [r7, #8]
 8000a2a:	b2ca      	uxtb	r2, r1
 8000a2c:	701a      	strb	r2, [r3, #0]
	for (DataIdx = 0; DataIdx < len; DataIdx++)
 8000a2e:	697b      	ldr	r3, [r7, #20]
 8000a30:	3301      	adds	r3, #1
 8000a32:	617b      	str	r3, [r7, #20]
 8000a34:	697a      	ldr	r2, [r7, #20]
 8000a36:	687b      	ldr	r3, [r7, #4]
 8000a38:	429a      	cmp	r2, r3
 8000a3a:	dbf0      	blt.n	8000a1e <_read+0x12>
	}

return len;
 8000a3c:	687b      	ldr	r3, [r7, #4]
}
 8000a3e:	4618      	mov	r0, r3
 8000a40:	3718      	adds	r7, #24
 8000a42:	46bd      	mov	sp, r7
 8000a44:	bd80      	pop	{r7, pc}

08000a46 <_write>:

__attribute__((weak)) int _write(int file, char *ptr, int len)
{
 8000a46:	b580      	push	{r7, lr}
 8000a48:	b086      	sub	sp, #24
 8000a4a:	af00      	add	r7, sp, #0
 8000a4c:	60f8      	str	r0, [r7, #12]
 8000a4e:	60b9      	str	r1, [r7, #8]
 8000a50:	607a      	str	r2, [r7, #4]
	int DataIdx;

	for (DataIdx = 0; DataIdx < len; DataIdx++)
 8000a52:	2300      	movs	r3, #0
 8000a54:	617b      	str	r3, [r7, #20]
 8000a56:	e009      	b.n	8000a6c <_write+0x26>
	{
		__io_putchar(*ptr++);
 8000a58:	68bb      	ldr	r3, [r7, #8]
 8000a5a:	1c5a      	adds	r2, r3, #1
 8000a5c:	60ba      	str	r2, [r7, #8]
 8000a5e:	781b      	ldrb	r3, [r3, #0]
 8000a60:	4618      	mov	r0, r3
 8000a62:	f3af 8000 	nop.w
	for (DataIdx = 0; DataIdx < len; DataIdx++)
 8000a66:	697b      	ldr	r3, [r7, #20]
 8000a68:	3301      	adds	r3, #1
 8000a6a:	617b      	str	r3, [r7, #20]
 8000a6c:	697a      	ldr	r2, [r7, #20]
 8000a6e:	687b      	ldr	r3, [r7, #4]
 8000a70:	429a      	cmp	r2, r3
 8000a72:	dbf1      	blt.n	8000a58 <_write+0x12>
	}
	return len;
 8000a74:	687b      	ldr	r3, [r7, #4]
}
 8000a76:	4618      	mov	r0, r3
 8000a78:	3718      	adds	r7, #24
 8000a7a:	46bd      	mov	sp, r7
 8000a7c:	bd80      	pop	{r7, pc}

08000a7e <_close>:

int _close(int file)
{
 8000a7e:	b480      	push	{r7}
 8000a80:	b083      	sub	sp, #12
 8000a82:	af00      	add	r7, sp, #0
 8000a84:	6078      	str	r0, [r7, #4]
	return -1;
 8000a86:	f04f 33ff 	mov.w	r3, #4294967295
}
 8000a8a:	4618      	mov	r0, r3
 8000a8c:	370c      	adds	r7, #12
 8000a8e:	46bd      	mov	sp, r7
 8000a90:	f85d 7b04 	ldr.w	r7, [sp], #4
 8000a94:	4770      	bx	lr

08000a96 <_fstat>:


int _fstat(int file, struct stat *st)
{
 8000a96:	b480      	push	{r7}
 8000a98:	b083      	sub	sp, #12
 8000a9a:	af00      	add	r7, sp, #0
 8000a9c:	6078      	str	r0, [r7, #4]
 8000a9e:	6039      	str	r1, [r7, #0]
	st->st_mode = S_IFCHR;
 8000aa0:	683b      	ldr	r3, [r7, #0]
 8000aa2:	f44f 5200 	mov.w	r2, #8192	; 0x2000
 8000aa6:	605a      	str	r2, [r3, #4]
	return 0;
 8000aa8:	2300      	movs	r3, #0
}
 8000aaa:	4618      	mov	r0, r3
 8000aac:	370c      	adds	r7, #12
 8000aae:	46bd      	mov	sp, r7
 8000ab0:	f85d 7b04 	ldr.w	r7, [sp], #4
 8000ab4:	4770      	bx	lr

08000ab6 <_isatty>:

int _isatty(int file)
{
 8000ab6:	b480      	push	{r7}
 8000ab8:	b083      	sub	sp, #12
 8000aba:	af00      	add	r7, sp, #0
 8000abc:	6078      	str	r0, [r7, #4]
	return 1;
 8000abe:	2301      	movs	r3, #1
}
 8000ac0:	4618      	mov	r0, r3
 8000ac2:	370c      	adds	r7, #12
 8000ac4:	46bd      	mov	sp, r7
 8000ac6:	f85d 7b04 	ldr.w	r7, [sp], #4
 8000aca:	4770      	bx	lr

08000acc <_lseek>:

int _lseek(int file, int ptr, int dir)
{
 8000acc:	b480      	push	{r7}
 8000ace:	b085      	sub	sp, #20
 8000ad0:	af00      	add	r7, sp, #0
 8000ad2:	60f8      	str	r0, [r7, #12]
 8000ad4:	60b9      	str	r1, [r7, #8]
 8000ad6:	607a      	str	r2, [r7, #4]
	return 0;
 8000ad8:	2300      	movs	r3, #0
}
 8000ada:	4618      	mov	r0, r3
 8000adc:	3714      	adds	r7, #20
 8000ade:	46bd      	mov	sp, r7
 8000ae0:	f85d 7b04 	ldr.w	r7, [sp], #4
 8000ae4:	4770      	bx	lr
	...

08000ae8 <_sbrk>:
 *
 * @param incr Memory size
 * @return Pointer to allocated memory
 */
void *_sbrk(ptrdiff_t incr)
{
 8000ae8:	b480      	push	{r7}
 8000aea:	b087      	sub	sp, #28
 8000aec:	af00      	add	r7, sp, #0
 8000aee:	6078      	str	r0, [r7, #4]
  extern uint8_t _end; /* Symbol defined in the linker script */
  extern uint8_t _estack; /* Symbol defined in the linker script */
  extern uint32_t _Min_Stack_Size; /* Symbol defined in the linker script */
  const uint32_t stack_limit = (uint32_t)&_estack - (uint32_t)&_Min_Stack_Size;
 8000af0:	4a14      	ldr	r2, [pc, #80]	; (8000b44 <_sbrk+0x5c>)
 8000af2:	4b15      	ldr	r3, [pc, #84]	; (8000b48 <_sbrk+0x60>)
 8000af4:	1ad3      	subs	r3, r2, r3
 8000af6:	617b      	str	r3, [r7, #20]
  const uint8_t *max_heap = (uint8_t *)stack_limit;
 8000af8:	697b      	ldr	r3, [r7, #20]
 8000afa:	613b      	str	r3, [r7, #16]
  uint8_t *prev_heap_end;

  /* Initialize heap end at first call */
  if (NULL == __sbrk_heap_end)
 8000afc:	4b13      	ldr	r3, [pc, #76]	; (8000b4c <_sbrk+0x64>)
 8000afe:	681b      	ldr	r3, [r3, #0]
 8000b00:	2b00      	cmp	r3, #0
 8000b02:	d102      	bne.n	8000b0a <_sbrk+0x22>
  {
    __sbrk_heap_end = &_end;
 8000b04:	4b11      	ldr	r3, [pc, #68]	; (8000b4c <_sbrk+0x64>)
 8000b06:	4a12      	ldr	r2, [pc, #72]	; (8000b50 <_sbrk+0x68>)
 8000b08:	601a      	str	r2, [r3, #0]
  }

  /* Protect heap from growing into the reserved MSP stack */
  if (__sbrk_heap_end + incr > max_heap)
 8000b0a:	4b10      	ldr	r3, [pc, #64]	; (8000b4c <_sbrk+0x64>)
 8000b0c:	681a      	ldr	r2, [r3, #0]
 8000b0e:	687b      	ldr	r3, [r7, #4]
 8000b10:	4413      	add	r3, r2
 8000b12:	693a      	ldr	r2, [r7, #16]
 8000b14:	429a      	cmp	r2, r3
 8000b16:	d205      	bcs.n	8000b24 <_sbrk+0x3c>
  {
    errno = ENOMEM;
 8000b18:	4b0e      	ldr	r3, [pc, #56]	; (8000b54 <_sbrk+0x6c>)
 8000b1a:	220c      	movs	r2, #12
 8000b1c:	601a      	str	r2, [r3, #0]
    return (void *)-1;
 8000b1e:	f04f 33ff 	mov.w	r3, #4294967295
 8000b22:	e009      	b.n	8000b38 <_sbrk+0x50>
  }

  prev_heap_end = __sbrk_heap_end;
 8000b24:	4b09      	ldr	r3, [pc, #36]	; (8000b4c <_sbrk+0x64>)
 8000b26:	681b      	ldr	r3, [r3, #0]
 8000b28:	60fb      	str	r3, [r7, #12]
  __sbrk_heap_end += incr;
 8000b2a:	4b08      	ldr	r3, [pc, #32]	; (8000b4c <_sbrk+0x64>)
 8000b2c:	681a      	ldr	r2, [r3, #0]
 8000b2e:	687b      	ldr	r3, [r7, #4]
 8000b30:	4413      	add	r3, r2
 8000b32:	4a06      	ldr	r2, [pc, #24]	; (8000b4c <_sbrk+0x64>)
 8000b34:	6013      	str	r3, [r2, #0]

  return (void *)prev_heap_end;
 8000b36:	68fb      	ldr	r3, [r7, #12]
}
 8000b38:	4618      	mov	r0, r3
 8000b3a:	371c      	adds	r7, #28
 8000b3c:	46bd      	mov	sp, r7
 8000b3e:	f85d 7b04 	ldr.w	r7, [sp], #4
 8000b42:	4770      	bx	lr
 8000b44:	24080000 	.word	0x24080000
 8000b48:	00000400 	.word	0x00000400
 8000b4c:	240001d8 	.word	0x240001d8
 8000b50:	240002a8 	.word	0x240002a8
 8000b54:	240002a0 	.word	0x240002a0

08000b58 <Reset_Handler>:

    .section  .text.Reset_Handler
  .weak  Reset_Handler
  .type  Reset_Handler, %function
Reset_Handler:
  ldr   sp, =_estack      /* set stack pointer */
 8000b58:	f8df d034 	ldr.w	sp, [pc, #52]	; 8000b90 <LoopFillZerobss+0xe>

/* Call the clock system initialization function.*/
  bl  SystemInit
 8000b5c:	f7ff fc28 	bl	80003b0 <SystemInit>

/* Copy the data segment initializers from flash to SRAM */
  ldr r0, =_sdata
 8000b60:	480c      	ldr	r0, [pc, #48]	; (8000b94 <LoopFillZerobss+0x12>)
  ldr r1, =_edata
 8000b62:	490d      	ldr	r1, [pc, #52]	; (8000b98 <LoopFillZerobss+0x16>)
  ldr r2, =_sidata
 8000b64:	4a0d      	ldr	r2, [pc, #52]	; (8000b9c <LoopFillZerobss+0x1a>)
  movs r3, #0
 8000b66:	2300      	movs	r3, #0
  b LoopCopyDataInit
 8000b68:	e002      	b.n	8000b70 <LoopCopyDataInit>

08000b6a <CopyDataInit>:

CopyDataInit:
  ldr r4, [r2, r3]
 8000b6a:	58d4      	ldr	r4, [r2, r3]
  str r4, [r0, r3]
 8000b6c:	50c4      	str	r4, [r0, r3]
  adds r3, r3, #4
 8000b6e:	3304      	adds	r3, #4

08000b70 <LoopCopyDataInit>:

LoopCopyDataInit:
  adds r4, r0, r3
 8000b70:	18c4      	adds	r4, r0, r3
  cmp r4, r1
 8000b72:	428c      	cmp	r4, r1
  bcc CopyDataInit
 8000b74:	d3f9      	bcc.n	8000b6a <CopyDataInit>
/* Zero fill the bss segment. */
  ldr r2, =_sbss
 8000b76:	4a0a      	ldr	r2, [pc, #40]	; (8000ba0 <LoopFillZerobss+0x1e>)
  ldr r4, =_ebss
 8000b78:	4c0a      	ldr	r4, [pc, #40]	; (8000ba4 <LoopFillZerobss+0x22>)
  movs r3, #0
 8000b7a:	2300      	movs	r3, #0
  b LoopFillZerobss
 8000b7c:	e001      	b.n	8000b82 <LoopFillZerobss>

08000b7e <FillZerobss>:

FillZerobss:
  str  r3, [r2]
 8000b7e:	6013      	str	r3, [r2, #0]
  adds r2, r2, #4
 8000b80:	3204      	adds	r2, #4

08000b82 <LoopFillZerobss>:

LoopFillZerobss:
  cmp r2, r4
 8000b82:	42a2      	cmp	r2, r4
  bcc FillZerobss
 8000b84:	d3fb      	bcc.n	8000b7e <FillZerobss>

/* Call static constructors */
    bl __libc_init_array
 8000b86:	f004 f951 	bl	8004e2c <__libc_init_array>
/* Call the application's entry point.*/
  bl  main
 8000b8a:	f7ff fce5 	bl	8000558 <main>
  bx  lr
 8000b8e:	4770      	bx	lr
  ldr   sp, =_estack      /* set stack pointer */
 8000b90:	24080000 	.word	0x24080000
  ldr r0, =_sdata
 8000b94:	24000000 	.word	0x24000000
  ldr r1, =_edata
 8000b98:	24000170 	.word	0x24000170
  ldr r2, =_sidata
 8000b9c:	080061e0 	.word	0x080061e0
  ldr r2, =_sbss
 8000ba0:	24000170 	.word	0x24000170
  ldr r4, =_ebss
 8000ba4:	240002a8 	.word	0x240002a8

08000ba8 <ADC3_IRQHandler>:
 * @retval None
*/
    .section  .text.Default_Handler,"ax",%progbits
Default_Handler:
Infinite_Loop:
  b  Infinite_Loop
 8000ba8:	e7fe      	b.n	8000ba8 <ADC3_IRQHandler>
	...

08000bac <HAL_Init>:
  *         need to ensure that the SysTick time base is always set to 1 millisecond
  *         to have correct HAL operation.
  * @retval HAL status
  */
HAL_StatusTypeDef HAL_Init(void)
{
 8000bac:	b580      	push	{r7, lr}
 8000bae:	b082      	sub	sp, #8
 8000bb0:	af00      	add	r7, sp, #0
   __HAL_ART_CONFIG_BASE_ADDRESS(0x08100000UL);  /* Configure the Cortex-M4 ART Base address to the Flash Bank 2 : */
   __HAL_ART_ENABLE();                           /* Enable the Cortex-M4 ART */
#endif /* DUAL_CORE &&  CORE_CM4 */

  /* Set Interrupt Group Priority */
  HAL_NVIC_SetPriorityGrouping(NVIC_PRIORITYGROUP_4);
 8000bb2:	2003      	movs	r0, #3
 8000bb4:	f000 f968 	bl	8000e88 <HAL_NVIC_SetPriorityGrouping>

  /* Update the SystemCoreClock global variable */
#if defined(RCC_D1CFGR_D1CPRE)
  common_system_clock = HAL_RCC_GetSysClockFreq() >> ((D1CorePrescTable[(RCC->D1CFGR & RCC_D1CFGR_D1CPRE)>> RCC_D1CFGR_D1CPRE_Pos]) & 0x1FU);
 8000bb8:	f001 f8ba 	bl	8001d30 <HAL_RCC_GetSysClockFreq>
 8000bbc:	4602      	mov	r2, r0
 8000bbe:	4b15      	ldr	r3, [pc, #84]	; (8000c14 <HAL_Init+0x68>)
 8000bc0:	699b      	ldr	r3, [r3, #24]
 8000bc2:	0a1b      	lsrs	r3, r3, #8
 8000bc4:	f003 030f 	and.w	r3, r3, #15
 8000bc8:	4913      	ldr	r1, [pc, #76]	; (8000c18 <HAL_Init+0x6c>)
 8000bca:	5ccb      	ldrb	r3, [r1, r3]
 8000bcc:	f003 031f 	and.w	r3, r3, #31
 8000bd0:	fa22 f303 	lsr.w	r3, r2, r3
 8000bd4:	607b      	str	r3, [r7, #4]
  common_system_clock = HAL_RCC_GetSysClockFreq() >> ((D1CorePrescTable[(RCC->CDCFGR1 & RCC_CDCFGR1_CDCPRE)>> RCC_CDCFGR1_CDCPRE_Pos]) & 0x1FU);
#endif

  /* Update the SystemD2Clock global variable */
#if defined(RCC_D1CFGR_HPRE)
  SystemD2Clock = (common_system_clock >> ((D1CorePrescTable[(RCC->D1CFGR & RCC_D1CFGR_HPRE)>> RCC_D1CFGR_HPRE_Pos]) & 0x1FU));
 8000bd6:	4b0f      	ldr	r3, [pc, #60]	; (8000c14 <HAL_Init+0x68>)
 8000bd8:	699b      	ldr	r3, [r3, #24]
 8000bda:	f003 030f 	and.w	r3, r3, #15
 8000bde:	4a0e      	ldr	r2, [pc, #56]	; (8000c18 <HAL_Init+0x6c>)
 8000be0:	5cd3      	ldrb	r3, [r2, r3]
 8000be2:	f003 031f 	and.w	r3, r3, #31
 8000be6:	687a      	ldr	r2, [r7, #4]
 8000be8:	fa22 f303 	lsr.w	r3, r2, r3
 8000bec:	4a0b      	ldr	r2, [pc, #44]	; (8000c1c <HAL_Init+0x70>)
 8000bee:	6013      	str	r3, [r2, #0]
#endif

#if defined(DUAL_CORE) && defined(CORE_CM4)
  SystemCoreClock = SystemD2Clock;
#else
  SystemCoreClock = common_system_clock;
 8000bf0:	4a0b      	ldr	r2, [pc, #44]	; (8000c20 <HAL_Init+0x74>)
 8000bf2:	687b      	ldr	r3, [r7, #4]
 8000bf4:	6013      	str	r3, [r2, #0]
#endif /* DUAL_CORE && CORE_CM4 */

  /* Use systick as time base source and configure 1ms tick (default clock after Reset is HSI) */
  if(HAL_InitTick(TICK_INT_PRIORITY) != HAL_OK)
 8000bf6:	2000      	movs	r0, #0
 8000bf8:	f000 f814 	bl	8000c24 <HAL_InitTick>
 8000bfc:	4603      	mov	r3, r0
 8000bfe:	2b00      	cmp	r3, #0
 8000c00:	d001      	beq.n	8000c06 <HAL_Init+0x5a>
  {
    return HAL_ERROR;
 8000c02:	2301      	movs	r3, #1
 8000c04:	e002      	b.n	8000c0c <HAL_Init+0x60>
  }

  /* Init the low level hardware */
  HAL_MspInit();
 8000c06:	f7ff fe8d 	bl	8000924 <HAL_MspInit>

  /* Return function status */
  return HAL_OK;
 8000c0a:	2300      	movs	r3, #0
}
 8000c0c:	4618      	mov	r0, r3
 8000c0e:	3708      	adds	r7, #8
 8000c10:	46bd      	mov	sp, r7
 8000c12:	bd80      	pop	{r7, pc}
 8000c14:	58024400 	.word	0x58024400
 8000c18:	08006090 	.word	0x08006090
 8000c1c:	24000004 	.word	0x24000004
 8000c20:	24000000 	.word	0x24000000

08000c24 <HAL_InitTick>:
  *       implementation  in user file.
  * @param TickPriority: Tick interrupt priority.
  * @retval HAL status
  */
__weak HAL_StatusTypeDef HAL_InitTick(uint32_t TickPriority)
{
 8000c24:	b580      	push	{r7, lr}
 8000c26:	b082      	sub	sp, #8
 8000c28:	af00      	add	r7, sp, #0
 8000c2a:	6078      	str	r0, [r7, #4]
  /* Check uwTickFreq for MisraC 2012 (even if uwTickFreq is a enum type that don't take the value zero)*/
  if((uint32_t)uwTickFreq == 0UL)
 8000c2c:	4b15      	ldr	r3, [pc, #84]	; (8000c84 <HAL_InitTick+0x60>)
 8000c2e:	781b      	ldrb	r3, [r3, #0]
 8000c30:	2b00      	cmp	r3, #0
 8000c32:	d101      	bne.n	8000c38 <HAL_InitTick+0x14>
  {
    return HAL_ERROR;
 8000c34:	2301      	movs	r3, #1
 8000c36:	e021      	b.n	8000c7c <HAL_InitTick+0x58>
  }

    /* Configure the SysTick to have interrupt in 1ms time basis*/
    if (HAL_SYSTICK_Config(SystemCoreClock / (1000UL / (uint32_t)uwTickFreq)) > 0U)
 8000c38:	4b13      	ldr	r3, [pc, #76]	; (8000c88 <HAL_InitTick+0x64>)
 8000c3a:	681a      	ldr	r2, [r3, #0]
 8000c3c:	4b11      	ldr	r3, [pc, #68]	; (8000c84 <HAL_InitTick+0x60>)
 8000c3e:	781b      	ldrb	r3, [r3, #0]
 8000c40:	4619      	mov	r1, r3
 8000c42:	f44f 737a 	mov.w	r3, #1000	; 0x3e8
 8000c46:	fbb3 f3f1 	udiv	r3, r3, r1
 8000c4a:	fbb2 f3f3 	udiv	r3, r2, r3
 8000c4e:	4618      	mov	r0, r3
 8000c50:	f000 f94d 	bl	8000eee <HAL_SYSTICK_Config>
 8000c54:	4603      	mov	r3, r0
 8000c56:	2b00      	cmp	r3, #0
 8000c58:	d001      	beq.n	8000c5e <HAL_InitTick+0x3a>
    {
      return HAL_ERROR;
 8000c5a:	2301      	movs	r3, #1
 8000c5c:	e00e      	b.n	8000c7c <HAL_InitTick+0x58>
    }

  /* Configure the SysTick IRQ priority */
  if (TickPriority < (1UL << __NVIC_PRIO_BITS))
 8000c5e:	687b      	ldr	r3, [r7, #4]
 8000c60:	2b0f      	cmp	r3, #15
 8000c62:	d80a      	bhi.n	8000c7a <HAL_InitTick+0x56>
  {
    HAL_NVIC_SetPriority(SysTick_IRQn, TickPriority, 0U);
 8000c64:	2200      	movs	r2, #0
 8000c66:	6879      	ldr	r1, [r7, #4]
 8000c68:	f04f 30ff 	mov.w	r0, #4294967295
 8000c6c:	f000 f917 	bl	8000e9e <HAL_NVIC_SetPriority>
    uwTickPrio = TickPriority;
 8000c70:	4a06      	ldr	r2, [pc, #24]	; (8000c8c <HAL_InitTick+0x68>)
 8000c72:	687b      	ldr	r3, [r7, #4]
 8000c74:	6013      	str	r3, [r2, #0]
  {
    return HAL_ERROR;
  }

  /* Return function status */
  return HAL_OK;
 8000c76:	2300      	movs	r3, #0
 8000c78:	e000      	b.n	8000c7c <HAL_InitTick+0x58>
    return HAL_ERROR;
 8000c7a:	2301      	movs	r3, #1
}
 8000c7c:	4618      	mov	r0, r3
 8000c7e:	3708      	adds	r7, #8
 8000c80:	46bd      	mov	sp, r7
 8000c82:	bd80      	pop	{r7, pc}
 8000c84:	24000060 	.word	0x24000060
 8000c88:	24000000 	.word	0x24000000
 8000c8c:	2400005c 	.word	0x2400005c

08000c90 <HAL_IncTick>:
 * @note This function is declared as __weak to be overwritten in case of other
  *      implementations in user file.
  * @retval None
  */
__weak void HAL_IncTick(void)
{
 8000c90:	b480      	push	{r7}
 8000c92:	af00      	add	r7, sp, #0
  uwTick += (uint32_t)uwTickFreq;
 8000c94:	4b06      	ldr	r3, [pc, #24]	; (8000cb0 <HAL_IncTick+0x20>)
 8000c96:	781b      	ldrb	r3, [r3, #0]
 8000c98:	461a      	mov	r2, r3
 8000c9a:	4b06      	ldr	r3, [pc, #24]	; (8000cb4 <HAL_IncTick+0x24>)
 8000c9c:	681b      	ldr	r3, [r3, #0]
 8000c9e:	4413      	add	r3, r2
 8000ca0:	4a04      	ldr	r2, [pc, #16]	; (8000cb4 <HAL_IncTick+0x24>)
 8000ca2:	6013      	str	r3, [r2, #0]
}
 8000ca4:	bf00      	nop
 8000ca6:	46bd      	mov	sp, r7
 8000ca8:	f85d 7b04 	ldr.w	r7, [sp], #4
 8000cac:	4770      	bx	lr
 8000cae:	bf00      	nop
 8000cb0:	24000060 	.word	0x24000060
 8000cb4:	240001dc 	.word	0x240001dc

08000cb8 <HAL_GetTick>:
  * @note This function is declared as __weak to be overwritten in case of other
  *       implementations in user file.
  * @retval tick value
  */
__weak uint32_t HAL_GetTick(void)
{
 8000cb8:	b480      	push	{r7}
 8000cba:	af00      	add	r7, sp, #0
  return uwTick;
 8000cbc:	4b03      	ldr	r3, [pc, #12]	; (8000ccc <HAL_GetTick+0x14>)
 8000cbe:	681b      	ldr	r3, [r3, #0]
}
 8000cc0:	4618      	mov	r0, r3
 8000cc2:	46bd      	mov	sp, r7
 8000cc4:	f85d 7b04 	ldr.w	r7, [sp], #4
 8000cc8:	4770      	bx	lr
 8000cca:	bf00      	nop
 8000ccc:	240001dc 	.word	0x240001dc

08000cd0 <HAL_GetREVID>:
/**
  * @brief  Returns the device revision identifier.
  * @retval Device revision identifier
  */
uint32_t HAL_GetREVID(void)
{
 8000cd0:	b480      	push	{r7}
 8000cd2:	af00      	add	r7, sp, #0
   return((DBGMCU->IDCODE) >> 16);
 8000cd4:	4b03      	ldr	r3, [pc, #12]	; (8000ce4 <HAL_GetREVID+0x14>)
 8000cd6:	681b      	ldr	r3, [r3, #0]
 8000cd8:	0c1b      	lsrs	r3, r3, #16
}
 8000cda:	4618      	mov	r0, r3
 8000cdc:	46bd      	mov	sp, r7
 8000cde:	f85d 7b04 	ldr.w	r7, [sp], #4
 8000ce2:	4770      	bx	lr
 8000ce4:	5c001000 	.word	0x5c001000

08000ce8 <__NVIC_SetPriorityGrouping>:
{
 8000ce8:	b480      	push	{r7}
 8000cea:	b085      	sub	sp, #20
 8000cec:	af00      	add	r7, sp, #0
 8000cee:	6078      	str	r0, [r7, #4]
  uint32_t PriorityGroupTmp = (PriorityGroup & (uint32_t)0x07UL);             /* only values 0..7 are used          */
 8000cf0:	687b      	ldr	r3, [r7, #4]
 8000cf2:	f003 0307 	and.w	r3, r3, #7
 8000cf6:	60fb      	str	r3, [r7, #12]
  reg_value  =  SCB->AIRCR;                                                   /* read old register configuration    */
 8000cf8:	4b0b      	ldr	r3, [pc, #44]	; (8000d28 <__NVIC_SetPriorityGrouping+0x40>)
 8000cfa:	68db      	ldr	r3, [r3, #12]
 8000cfc:	60bb      	str	r3, [r7, #8]
  reg_value &= ~((uint32_t)(SCB_AIRCR_VECTKEY_Msk | SCB_AIRCR_PRIGROUP_Msk)); /* clear bits to change               */
 8000cfe:	68ba      	ldr	r2, [r7, #8]
 8000d00:	f64f 03ff 	movw	r3, #63743	; 0xf8ff
 8000d04:	4013      	ands	r3, r2
 8000d06:	60bb      	str	r3, [r7, #8]
                (PriorityGroupTmp << SCB_AIRCR_PRIGROUP_Pos)  );              /* Insert write key and priority group */
 8000d08:	68fb      	ldr	r3, [r7, #12]
 8000d0a:	021a      	lsls	r2, r3, #8
                ((uint32_t)0x5FAUL << SCB_AIRCR_VECTKEY_Pos) |
 8000d0c:	68bb      	ldr	r3, [r7, #8]
 8000d0e:	431a      	orrs	r2, r3
  reg_value  =  (reg_value                                   |
 8000d10:	4b06      	ldr	r3, [pc, #24]	; (8000d2c <__NVIC_SetPriorityGrouping+0x44>)
 8000d12:	4313      	orrs	r3, r2
 8000d14:	60bb      	str	r3, [r7, #8]
  SCB->AIRCR =  reg_value;
 8000d16:	4a04      	ldr	r2, [pc, #16]	; (8000d28 <__NVIC_SetPriorityGrouping+0x40>)
 8000d18:	68bb      	ldr	r3, [r7, #8]
 8000d1a:	60d3      	str	r3, [r2, #12]
}
 8000d1c:	bf00      	nop
 8000d1e:	3714      	adds	r7, #20
 8000d20:	46bd      	mov	sp, r7
 8000d22:	f85d 7b04 	ldr.w	r7, [sp], #4
 8000d26:	4770      	bx	lr
 8000d28:	e000ed00 	.word	0xe000ed00
 8000d2c:	05fa0000 	.word	0x05fa0000

08000d30 <__NVIC_GetPriorityGrouping>:
{
 8000d30:	b480      	push	{r7}
 8000d32:	af00      	add	r7, sp, #0
  return ((uint32_t)((SCB->AIRCR & SCB_AIRCR_PRIGROUP_Msk) >> SCB_AIRCR_PRIGROUP_Pos));
 8000d34:	4b04      	ldr	r3, [pc, #16]	; (8000d48 <__NVIC_GetPriorityGrouping+0x18>)
 8000d36:	68db      	ldr	r3, [r3, #12]
 8000d38:	0a1b      	lsrs	r3, r3, #8
 8000d3a:	f003 0307 	and.w	r3, r3, #7
}
 8000d3e:	4618      	mov	r0, r3
 8000d40:	46bd      	mov	sp, r7
 8000d42:	f85d 7b04 	ldr.w	r7, [sp], #4
 8000d46:	4770      	bx	lr
 8000d48:	e000ed00 	.word	0xe000ed00

08000d4c <__NVIC_EnableIRQ>:
{
 8000d4c:	b480      	push	{r7}
 8000d4e:	b083      	sub	sp, #12
 8000d50:	af00      	add	r7, sp, #0
 8000d52:	4603      	mov	r3, r0
 8000d54:	80fb      	strh	r3, [r7, #6]
  if ((int32_t)(IRQn) >= 0)
 8000d56:	f9b7 3006 	ldrsh.w	r3, [r7, #6]
 8000d5a:	2b00      	cmp	r3, #0
 8000d5c:	db0b      	blt.n	8000d76 <__NVIC_EnableIRQ+0x2a>
    NVIC->ISER[(((uint32_t)IRQn) >> 5UL)] = (uint32_t)(1UL << (((uint32_t)IRQn) & 0x1FUL));
 8000d5e:	88fb      	ldrh	r3, [r7, #6]
 8000d60:	f003 021f 	and.w	r2, r3, #31
 8000d64:	4907      	ldr	r1, [pc, #28]	; (8000d84 <__NVIC_EnableIRQ+0x38>)
 8000d66:	f9b7 3006 	ldrsh.w	r3, [r7, #6]
 8000d6a:	095b      	lsrs	r3, r3, #5
 8000d6c:	2001      	movs	r0, #1
 8000d6e:	fa00 f202 	lsl.w	r2, r0, r2
 8000d72:	f841 2023 	str.w	r2, [r1, r3, lsl #2]
}
 8000d76:	bf00      	nop
 8000d78:	370c      	adds	r7, #12
 8000d7a:	46bd      	mov	sp, r7
 8000d7c:	f85d 7b04 	ldr.w	r7, [sp], #4
 8000d80:	4770      	bx	lr
 8000d82:	bf00      	nop
 8000d84:	e000e100 	.word	0xe000e100

08000d88 <__NVIC_SetPriority>:
{
 8000d88:	b480      	push	{r7}
 8000d8a:	b083      	sub	sp, #12
 8000d8c:	af00      	add	r7, sp, #0
 8000d8e:	4603      	mov	r3, r0
 8000d90:	6039      	str	r1, [r7, #0]
 8000d92:	80fb      	strh	r3, [r7, #6]
  if ((int32_t)(IRQn) >= 0)
 8000d94:	f9b7 3006 	ldrsh.w	r3, [r7, #6]
 8000d98:	2b00      	cmp	r3, #0
 8000d9a:	db0a      	blt.n	8000db2 <__NVIC_SetPriority+0x2a>
    NVIC->IP[((uint32_t)IRQn)]                = (uint8_t)((priority << (8U - __NVIC_PRIO_BITS)) & (uint32_t)0xFFUL);
 8000d9c:	683b      	ldr	r3, [r7, #0]
 8000d9e:	b2da      	uxtb	r2, r3
 8000da0:	490c      	ldr	r1, [pc, #48]	; (8000dd4 <__NVIC_SetPriority+0x4c>)
 8000da2:	f9b7 3006 	ldrsh.w	r3, [r7, #6]
 8000da6:	0112      	lsls	r2, r2, #4
 8000da8:	b2d2      	uxtb	r2, r2
 8000daa:	440b      	add	r3, r1
 8000dac:	f883 2300 	strb.w	r2, [r3, #768]	; 0x300
}
 8000db0:	e00a      	b.n	8000dc8 <__NVIC_SetPriority+0x40>
    SCB->SHPR[(((uint32_t)IRQn) & 0xFUL)-4UL] = (uint8_t)((priority << (8U - __NVIC_PRIO_BITS)) & (uint32_t)0xFFUL);
 8000db2:	683b      	ldr	r3, [r7, #0]
 8000db4:	b2da      	uxtb	r2, r3
 8000db6:	4908      	ldr	r1, [pc, #32]	; (8000dd8 <__NVIC_SetPriority+0x50>)
 8000db8:	88fb      	ldrh	r3, [r7, #6]
 8000dba:	f003 030f 	and.w	r3, r3, #15
 8000dbe:	3b04      	subs	r3, #4
 8000dc0:	0112      	lsls	r2, r2, #4
 8000dc2:	b2d2      	uxtb	r2, r2
 8000dc4:	440b      	add	r3, r1
 8000dc6:	761a      	strb	r2, [r3, #24]
}
 8000dc8:	bf00      	nop
 8000dca:	370c      	adds	r7, #12
 8000dcc:	46bd      	mov	sp, r7
 8000dce:	f85d 7b04 	ldr.w	r7, [sp], #4
 8000dd2:	4770      	bx	lr
 8000dd4:	e000e100 	.word	0xe000e100
 8000dd8:	e000ed00 	.word	0xe000ed00

08000ddc <NVIC_EncodePriority>:
{
 8000ddc:	b480      	push	{r7}
 8000dde:	b089      	sub	sp, #36	; 0x24
 8000de0:	af00      	add	r7, sp, #0
 8000de2:	60f8      	str	r0, [r7, #12]
 8000de4:	60b9      	str	r1, [r7, #8]
 8000de6:	607a      	str	r2, [r7, #4]
  uint32_t PriorityGroupTmp = (PriorityGroup & (uint32_t)0x07UL);   /* only values 0..7 are used          */
 8000de8:	68fb      	ldr	r3, [r7, #12]
 8000dea:	f003 0307 	and.w	r3, r3, #7
 8000dee:	61fb      	str	r3, [r7, #28]
  PreemptPriorityBits = ((7UL - PriorityGroupTmp) > (uint32_t)(__NVIC_PRIO_BITS)) ? (uint32_t)(__NVIC_PRIO_BITS) : (uint32_t)(7UL - PriorityGroupTmp);
 8000df0:	69fb      	ldr	r3, [r7, #28]
 8000df2:	f1c3 0307 	rsb	r3, r3, #7
 8000df6:	2b04      	cmp	r3, #4
 8000df8:	bf28      	it	cs
 8000dfa:	2304      	movcs	r3, #4
 8000dfc:	61bb      	str	r3, [r7, #24]
  SubPriorityBits     = ((PriorityGroupTmp + (uint32_t)(__NVIC_PRIO_BITS)) < (uint32_t)7UL) ? (uint32_t)0UL : (uint32_t)((PriorityGroupTmp - 7UL) + (uint32_t)(__NVIC_PRIO_BITS));
 8000dfe:	69fb      	ldr	r3, [r7, #28]
 8000e00:	3304      	adds	r3, #4
 8000e02:	2b06      	cmp	r3, #6
 8000e04:	d902      	bls.n	8000e0c <NVIC_EncodePriority+0x30>
 8000e06:	69fb      	ldr	r3, [r7, #28]
 8000e08:	3b03      	subs	r3, #3
 8000e0a:	e000      	b.n	8000e0e <NVIC_EncodePriority+0x32>
 8000e0c:	2300      	movs	r3, #0
 8000e0e:	617b      	str	r3, [r7, #20]
           ((PreemptPriority & (uint32_t)((1UL << (PreemptPriorityBits)) - 1UL)) << SubPriorityBits) |
 8000e10:	f04f 32ff 	mov.w	r2, #4294967295
 8000e14:	69bb      	ldr	r3, [r7, #24]
 8000e16:	fa02 f303 	lsl.w	r3, r2, r3
 8000e1a:	43da      	mvns	r2, r3
 8000e1c:	68bb      	ldr	r3, [r7, #8]
 8000e1e:	401a      	ands	r2, r3
 8000e20:	697b      	ldr	r3, [r7, #20]
 8000e22:	409a      	lsls	r2, r3
           ((SubPriority     & (uint32_t)((1UL << (SubPriorityBits    )) - 1UL)))
 8000e24:	f04f 31ff 	mov.w	r1, #4294967295
 8000e28:	697b      	ldr	r3, [r7, #20]
 8000e2a:	fa01 f303 	lsl.w	r3, r1, r3
 8000e2e:	43d9      	mvns	r1, r3
 8000e30:	687b      	ldr	r3, [r7, #4]
 8000e32:	400b      	ands	r3, r1
           ((PreemptPriority & (uint32_t)((1UL << (PreemptPriorityBits)) - 1UL)) << SubPriorityBits) |
 8000e34:	4313      	orrs	r3, r2
}
 8000e36:	4618      	mov	r0, r3
 8000e38:	3724      	adds	r7, #36	; 0x24
 8000e3a:	46bd      	mov	sp, r7
 8000e3c:	f85d 7b04 	ldr.w	r7, [sp], #4
 8000e40:	4770      	bx	lr
	...

08000e44 <SysTick_Config>:
  \note    When the variable <b>__Vendor_SysTickConfig</b> is set to 1, then the
           function <b>SysTick_Config</b> is not included. In this case, the file <b><i>device</i>.h</b>
           must contain a vendor-specific implementation of this function.
 */
__STATIC_INLINE uint32_t SysTick_Config(uint32_t ticks)
{
 8000e44:	b580      	push	{r7, lr}
 8000e46:	b082      	sub	sp, #8
 8000e48:	af00      	add	r7, sp, #0
 8000e4a:	6078      	str	r0, [r7, #4]
  if ((ticks - 1UL) > SysTick_LOAD_RELOAD_Msk)
 8000e4c:	687b      	ldr	r3, [r7, #4]
 8000e4e:	3b01      	subs	r3, #1
 8000e50:	f1b3 7f80 	cmp.w	r3, #16777216	; 0x1000000
 8000e54:	d301      	bcc.n	8000e5a <SysTick_Config+0x16>
  {
    return (1UL);                                                   /* Reload value impossible */
 8000e56:	2301      	movs	r3, #1
 8000e58:	e00f      	b.n	8000e7a <SysTick_Config+0x36>
  }

  SysTick->LOAD  = (uint32_t)(ticks - 1UL);                         /* set reload register */
 8000e5a:	4a0a      	ldr	r2, [pc, #40]	; (8000e84 <SysTick_Config+0x40>)
 8000e5c:	687b      	ldr	r3, [r7, #4]
 8000e5e:	3b01      	subs	r3, #1
 8000e60:	6053      	str	r3, [r2, #4]
  NVIC_SetPriority (SysTick_IRQn, (1UL << __NVIC_PRIO_BITS) - 1UL); /* set Priority for Systick Interrupt */
 8000e62:	210f      	movs	r1, #15
 8000e64:	f04f 30ff 	mov.w	r0, #4294967295
 8000e68:	f7ff ff8e 	bl	8000d88 <__NVIC_SetPriority>
  SysTick->VAL   = 0UL;                                             /* Load the SysTick Counter Value */
 8000e6c:	4b05      	ldr	r3, [pc, #20]	; (8000e84 <SysTick_Config+0x40>)
 8000e6e:	2200      	movs	r2, #0
 8000e70:	609a      	str	r2, [r3, #8]
  SysTick->CTRL  = SysTick_CTRL_CLKSOURCE_Msk |
 8000e72:	4b04      	ldr	r3, [pc, #16]	; (8000e84 <SysTick_Config+0x40>)
 8000e74:	2207      	movs	r2, #7
 8000e76:	601a      	str	r2, [r3, #0]
                   SysTick_CTRL_TICKINT_Msk   |
                   SysTick_CTRL_ENABLE_Msk;                         /* Enable SysTick IRQ and SysTick Timer */
  return (0UL);                                                     /* Function successful */
 8000e78:	2300      	movs	r3, #0
}
 8000e7a:	4618      	mov	r0, r3
 8000e7c:	3708      	adds	r7, #8
 8000e7e:	46bd      	mov	sp, r7
 8000e80:	bd80      	pop	{r7, pc}
 8000e82:	bf00      	nop
 8000e84:	e000e010 	.word	0xe000e010

08000e88 <HAL_NVIC_SetPriorityGrouping>:
  * @note   When the NVIC_PriorityGroup_0 is selected, IRQ preemption is no more possible.
  *         The pending IRQ priority will be managed only by the subpriority.
  * @retval None
  */
void HAL_NVIC_SetPriorityGrouping(uint32_t PriorityGroup)
{
 8000e88:	b580      	push	{r7, lr}
 8000e8a:	b082      	sub	sp, #8
 8000e8c:	af00      	add	r7, sp, #0
 8000e8e:	6078      	str	r0, [r7, #4]
  /* Check the parameters */
  assert_param(IS_NVIC_PRIORITY_GROUP(PriorityGroup));

  /* Set the PRIGROUP[10:8] bits according to the PriorityGroup parameter value */
  NVIC_SetPriorityGrouping(PriorityGroup);
 8000e90:	6878      	ldr	r0, [r7, #4]
 8000e92:	f7ff ff29 	bl	8000ce8 <__NVIC_SetPriorityGrouping>
}
 8000e96:	bf00      	nop
 8000e98:	3708      	adds	r7, #8
 8000e9a:	46bd      	mov	sp, r7
 8000e9c:	bd80      	pop	{r7, pc}

08000e9e <HAL_NVIC_SetPriority>:
  *         This parameter can be a value between 0 and 15
  *         A lower priority value indicates a higher priority.
  * @retval None
  */
void HAL_NVIC_SetPriority(IRQn_Type IRQn, uint32_t PreemptPriority, uint32_t SubPriority)
{
 8000e9e:	b580      	push	{r7, lr}
 8000ea0:	b086      	sub	sp, #24
 8000ea2:	af00      	add	r7, sp, #0
 8000ea4:	4603      	mov	r3, r0
 8000ea6:	60b9      	str	r1, [r7, #8]
 8000ea8:	607a      	str	r2, [r7, #4]
 8000eaa:	81fb      	strh	r3, [r7, #14]

  /* Check the parameters */
  assert_param(IS_NVIC_SUB_PRIORITY(SubPriority));
  assert_param(IS_NVIC_PREEMPTION_PRIORITY(PreemptPriority));

  prioritygroup = NVIC_GetPriorityGrouping();
 8000eac:	f7ff ff40 	bl	8000d30 <__NVIC_GetPriorityGrouping>
 8000eb0:	6178      	str	r0, [r7, #20]

  NVIC_SetPriority(IRQn, NVIC_EncodePriority(prioritygroup, PreemptPriority, SubPriority));
 8000eb2:	687a      	ldr	r2, [r7, #4]
 8000eb4:	68b9      	ldr	r1, [r7, #8]
 8000eb6:	6978      	ldr	r0, [r7, #20]
 8000eb8:	f7ff ff90 	bl	8000ddc <NVIC_EncodePriority>
 8000ebc:	4602      	mov	r2, r0
 8000ebe:	f9b7 300e 	ldrsh.w	r3, [r7, #14]
 8000ec2:	4611      	mov	r1, r2
 8000ec4:	4618      	mov	r0, r3
 8000ec6:	f7ff ff5f 	bl	8000d88 <__NVIC_SetPriority>
}
 8000eca:	bf00      	nop
 8000ecc:	3718      	adds	r7, #24
 8000ece:	46bd      	mov	sp, r7
 8000ed0:	bd80      	pop	{r7, pc}

08000ed2 <HAL_NVIC_EnableIRQ>:
  *         This parameter can be an enumerator of IRQn_Type enumeration
  *         (For the complete STM32 Devices IRQ Channels list, please refer to the appropriate CMSIS device file (stm32h7xxxx.h))
  * @retval None
  */
void HAL_NVIC_EnableIRQ(IRQn_Type IRQn)
{
 8000ed2:	b580      	push	{r7, lr}
 8000ed4:	b082      	sub	sp, #8
 8000ed6:	af00      	add	r7, sp, #0
 8000ed8:	4603      	mov	r3, r0
 8000eda:	80fb      	strh	r3, [r7, #6]
  /* Check the parameters */
  assert_param(IS_NVIC_DEVICE_IRQ(IRQn));

  /* Enable interrupt */
  NVIC_EnableIRQ(IRQn);
 8000edc:	f9b7 3006 	ldrsh.w	r3, [r7, #6]
 8000ee0:	4618      	mov	r0, r3
 8000ee2:	f7ff ff33 	bl	8000d4c <__NVIC_EnableIRQ>
}
 8000ee6:	bf00      	nop
 8000ee8:	3708      	adds	r7, #8
 8000eea:	46bd      	mov	sp, r7
 8000eec:	bd80      	pop	{r7, pc}

08000eee <HAL_SYSTICK_Config>:
  * @param  TicksNumb Specifies the ticks Number of ticks between two interrupts.
  * @retval status   - 0  Function succeeded.
  *                  - 1  Function failed.
  */
uint32_t HAL_SYSTICK_Config(uint32_t TicksNumb)
{
 8000eee:	b580      	push	{r7, lr}
 8000ef0:	b082      	sub	sp, #8
 8000ef2:	af00      	add	r7, sp, #0
 8000ef4:	6078      	str	r0, [r7, #4]
   return SysTick_Config(TicksNumb);
 8000ef6:	6878      	ldr	r0, [r7, #4]
 8000ef8:	f7ff ffa4 	bl	8000e44 <SysTick_Config>
 8000efc:	4603      	mov	r3, r0
}
 8000efe:	4618      	mov	r0, r3
 8000f00:	3708      	adds	r7, #8
 8000f02:	46bd      	mov	sp, r7
 8000f04:	bd80      	pop	{r7, pc}
	...

08000f08 <HAL_MPU_Disable>:
/**
  * @brief  Disables the MPU
  * @retval None
  */
void HAL_MPU_Disable(void)
{
 8000f08:	b480      	push	{r7}
 8000f0a:	af00      	add	r7, sp, #0
  \details Ensures the apparent order of the explicit memory operations before
           and after the instruction, without ensuring their completion.
 */
__STATIC_FORCEINLINE void __DMB(void)
{
  __ASM volatile ("dmb 0xF":::"memory");
 8000f0c:	f3bf 8f5f 	dmb	sy
}
 8000f10:	bf00      	nop
  /* Make sure outstanding transfers are done */
  __DMB();

  /* Disable fault exceptions */
  SCB->SHCSR &= ~SCB_SHCSR_MEMFAULTENA_Msk;
 8000f12:	4b07      	ldr	r3, [pc, #28]	; (8000f30 <HAL_MPU_Disable+0x28>)
 8000f14:	6a5b      	ldr	r3, [r3, #36]	; 0x24
 8000f16:	4a06      	ldr	r2, [pc, #24]	; (8000f30 <HAL_MPU_Disable+0x28>)
 8000f18:	f423 3380 	bic.w	r3, r3, #65536	; 0x10000
 8000f1c:	6253      	str	r3, [r2, #36]	; 0x24

  /* Disable the MPU and clear the control register*/
  MPU->CTRL = 0;
 8000f1e:	4b05      	ldr	r3, [pc, #20]	; (8000f34 <HAL_MPU_Disable+0x2c>)
 8000f20:	2200      	movs	r2, #0
 8000f22:	605a      	str	r2, [r3, #4]
}
 8000f24:	bf00      	nop
 8000f26:	46bd      	mov	sp, r7
 8000f28:	f85d 7b04 	ldr.w	r7, [sp], #4
 8000f2c:	4770      	bx	lr
 8000f2e:	bf00      	nop
 8000f30:	e000ed00 	.word	0xe000ed00
 8000f34:	e000ed90 	.word	0xe000ed90

08000f38 <HAL_MPU_Enable>:
  *            @arg MPU_PRIVILEGED_DEFAULT
  *            @arg MPU_HFNMI_PRIVDEF
  * @retval None
  */
void HAL_MPU_Enable(uint32_t MPU_Control)
{
 8000f38:	b480      	push	{r7}
 8000f3a:	b083      	sub	sp, #12
 8000f3c:	af00      	add	r7, sp, #0
 8000f3e:	6078      	str	r0, [r7, #4]
  /* Enable the MPU */
  MPU->CTRL = MPU_Control | MPU_CTRL_ENABLE_Msk;
 8000f40:	4a0b      	ldr	r2, [pc, #44]	; (8000f70 <HAL_MPU_Enable+0x38>)
 8000f42:	687b      	ldr	r3, [r7, #4]
 8000f44:	f043 0301 	orr.w	r3, r3, #1
 8000f48:	6053      	str	r3, [r2, #4]

  /* Enable fault exceptions */
  SCB->SHCSR |= SCB_SHCSR_MEMFAULTENA_Msk;
 8000f4a:	4b0a      	ldr	r3, [pc, #40]	; (8000f74 <HAL_MPU_Enable+0x3c>)
 8000f4c:	6a5b      	ldr	r3, [r3, #36]	; 0x24
 8000f4e:	4a09      	ldr	r2, [pc, #36]	; (8000f74 <HAL_MPU_Enable+0x3c>)
 8000f50:	f443 3380 	orr.w	r3, r3, #65536	; 0x10000
 8000f54:	6253      	str	r3, [r2, #36]	; 0x24
  __ASM volatile ("dsb 0xF":::"memory");
 8000f56:	f3bf 8f4f 	dsb	sy
}
 8000f5a:	bf00      	nop
  __ASM volatile ("isb 0xF":::"memory");
 8000f5c:	f3bf 8f6f 	isb	sy
}
 8000f60:	bf00      	nop

  /* Ensure MPU setting take effects */
  __DSB();
  __ISB();
}
 8000f62:	bf00      	nop
 8000f64:	370c      	adds	r7, #12
 8000f66:	46bd      	mov	sp, r7
 8000f68:	f85d 7b04 	ldr.w	r7, [sp], #4
 8000f6c:	4770      	bx	lr
 8000f6e:	bf00      	nop
 8000f70:	e000ed90 	.word	0xe000ed90
 8000f74:	e000ed00 	.word	0xe000ed00

08000f78 <HAL_MPU_ConfigRegion>:
  * @param  MPU_Init Pointer to a MPU_Region_InitTypeDef structure that contains
  *                  the initialization and configuration information.
  * @retval None
  */
void HAL_MPU_ConfigRegion(MPU_Region_InitTypeDef *MPU_Init)
{
 8000f78:	b480      	push	{r7}
 8000f7a:	b083      	sub	sp, #12
 8000f7c:	af00      	add	r7, sp, #0
 8000f7e:	6078      	str	r0, [r7, #4]
  /* Check the parameters */
  assert_param(IS_MPU_REGION_NUMBER(MPU_Init->Number));
  assert_param(IS_MPU_REGION_ENABLE(MPU_Init->Enable));

  /* Set the Region number */
  MPU->RNR = MPU_Init->Number;
 8000f80:	687b      	ldr	r3, [r7, #4]
 8000f82:	785a      	ldrb	r2, [r3, #1]
 8000f84:	4b1d      	ldr	r3, [pc, #116]	; (8000ffc <HAL_MPU_ConfigRegion+0x84>)
 8000f86:	609a      	str	r2, [r3, #8]

  if ((MPU_Init->Enable) != 0UL)
 8000f88:	687b      	ldr	r3, [r7, #4]
 8000f8a:	781b      	ldrb	r3, [r3, #0]
 8000f8c:	2b00      	cmp	r3, #0
 8000f8e:	d029      	beq.n	8000fe4 <HAL_MPU_ConfigRegion+0x6c>
    assert_param(IS_MPU_ACCESS_CACHEABLE(MPU_Init->IsCacheable));
    assert_param(IS_MPU_ACCESS_BUFFERABLE(MPU_Init->IsBufferable));
    assert_param(IS_MPU_SUB_REGION_DISABLE(MPU_Init->SubRegionDisable));
    assert_param(IS_MPU_REGION_SIZE(MPU_Init->Size));

    MPU->RBAR = MPU_Init->BaseAddress;
 8000f90:	4a1a      	ldr	r2, [pc, #104]	; (8000ffc <HAL_MPU_ConfigRegion+0x84>)
 8000f92:	687b      	ldr	r3, [r7, #4]
 8000f94:	685b      	ldr	r3, [r3, #4]
 8000f96:	60d3      	str	r3, [r2, #12]
    MPU->RASR = ((uint32_t)MPU_Init->DisableExec             << MPU_RASR_XN_Pos)   |
 8000f98:	687b      	ldr	r3, [r7, #4]
 8000f9a:	7b1b      	ldrb	r3, [r3, #12]
 8000f9c:	071a      	lsls	r2, r3, #28
                ((uint32_t)MPU_Init->AccessPermission        << MPU_RASR_AP_Pos)   |
 8000f9e:	687b      	ldr	r3, [r7, #4]
 8000fa0:	7adb      	ldrb	r3, [r3, #11]
 8000fa2:	061b      	lsls	r3, r3, #24
    MPU->RASR = ((uint32_t)MPU_Init->DisableExec             << MPU_RASR_XN_Pos)   |
 8000fa4:	431a      	orrs	r2, r3
                ((uint32_t)MPU_Init->TypeExtField            << MPU_RASR_TEX_Pos)  |
 8000fa6:	687b      	ldr	r3, [r7, #4]
 8000fa8:	7a9b      	ldrb	r3, [r3, #10]
 8000faa:	04db      	lsls	r3, r3, #19
                ((uint32_t)MPU_Init->AccessPermission        << MPU_RASR_AP_Pos)   |
 8000fac:	431a      	orrs	r2, r3
                ((uint32_t)MPU_Init->IsShareable             << MPU_RASR_S_Pos)    |
 8000fae:	687b      	ldr	r3, [r7, #4]
 8000fb0:	7b5b      	ldrb	r3, [r3, #13]
 8000fb2:	049b      	lsls	r3, r3, #18
                ((uint32_t)MPU_Init->TypeExtField            << MPU_RASR_TEX_Pos)  |
 8000fb4:	431a      	orrs	r2, r3
                ((uint32_t)MPU_Init->IsCacheable             << MPU_RASR_C_Pos)    |
 8000fb6:	687b      	ldr	r3, [r7, #4]
 8000fb8:	7b9b      	ldrb	r3, [r3, #14]
 8000fba:	045b      	lsls	r3, r3, #17
                ((uint32_t)MPU_Init->IsShareable             << MPU_RASR_S_Pos)    |
 8000fbc:	431a      	orrs	r2, r3
                ((uint32_t)MPU_Init->IsBufferable            << MPU_RASR_B_Pos)    |
 8000fbe:	687b      	ldr	r3, [r7, #4]
 8000fc0:	7bdb      	ldrb	r3, [r3, #15]
 8000fc2:	041b      	lsls	r3, r3, #16
                ((uint32_t)MPU_Init->IsCacheable             << MPU_RASR_C_Pos)    |
 8000fc4:	431a      	orrs	r2, r3
                ((uint32_t)MPU_Init->SubRegionDisable        << MPU_RASR_SRD_Pos)  |
 8000fc6:	687b      	ldr	r3, [r7, #4]
 8000fc8:	7a5b      	ldrb	r3, [r3, #9]
 8000fca:	021b      	lsls	r3, r3, #8
                ((uint32_t)MPU_Init->IsBufferable            << MPU_RASR_B_Pos)    |
 8000fcc:	431a      	orrs	r2, r3
                ((uint32_t)MPU_Init->Size                    << MPU_RASR_SIZE_Pos) |
 8000fce:	687b      	ldr	r3, [r7, #4]
 8000fd0:	7a1b      	ldrb	r3, [r3, #8]
 8000fd2:	005b      	lsls	r3, r3, #1
                ((uint32_t)MPU_Init->SubRegionDisable        << MPU_RASR_SRD_Pos)  |
 8000fd4:	4313      	orrs	r3, r2
                ((uint32_t)MPU_Init->Enable                  << MPU_RASR_ENABLE_Pos);
 8000fd6:	687a      	ldr	r2, [r7, #4]
 8000fd8:	7812      	ldrb	r2, [r2, #0]
 8000fda:	4611      	mov	r1, r2
    MPU->RASR = ((uint32_t)MPU_Init->DisableExec             << MPU_RASR_XN_Pos)   |
 8000fdc:	4a07      	ldr	r2, [pc, #28]	; (8000ffc <HAL_MPU_ConfigRegion+0x84>)
                ((uint32_t)MPU_Init->Size                    << MPU_RASR_SIZE_Pos) |
 8000fde:	430b      	orrs	r3, r1
    MPU->RASR = ((uint32_t)MPU_Init->DisableExec             << MPU_RASR_XN_Pos)   |
 8000fe0:	6113      	str	r3, [r2, #16]
  else
  {
    MPU->RBAR = 0x00;
    MPU->RASR = 0x00;
  }
}
 8000fe2:	e005      	b.n	8000ff0 <HAL_MPU_ConfigRegion+0x78>
    MPU->RBAR = 0x00;
 8000fe4:	4b05      	ldr	r3, [pc, #20]	; (8000ffc <HAL_MPU_ConfigRegion+0x84>)
 8000fe6:	2200      	movs	r2, #0
 8000fe8:	60da      	str	r2, [r3, #12]
    MPU->RASR = 0x00;
 8000fea:	4b04      	ldr	r3, [pc, #16]	; (8000ffc <HAL_MPU_ConfigRegion+0x84>)
 8000fec:	2200      	movs	r2, #0
 8000fee:	611a      	str	r2, [r3, #16]
}
 8000ff0:	bf00      	nop
 8000ff2:	370c      	adds	r7, #12
 8000ff4:	46bd      	mov	sp, r7
 8000ff6:	f85d 7b04 	ldr.w	r7, [sp], #4
 8000ffa:	4770      	bx	lr
 8000ffc:	e000ed90 	.word	0xe000ed90

08001000 <HAL_HSEM_FastTake>:
  * @brief  Fast Take a semaphore with 1 Step mode.
  * @param  SemID: semaphore ID from 0 to 31
  * @retval HAL status
  */
HAL_StatusTypeDef HAL_HSEM_FastTake(uint32_t SemID)
{
 8001000:	b480      	push	{r7}
 8001002:	b083      	sub	sp, #12
 8001004:	af00      	add	r7, sp, #0
 8001006:	6078      	str	r0, [r7, #4]
    /*take success when MasterID match and take bit set*/
    return HAL_OK;
  }
#else  
  /* Read the RLR register to take the semaphore */
  if (HSEM->RLR[SemID] == (HSEM_CR_COREID_CURRENT | HSEM_RLR_LOCK))
 8001008:	4a08      	ldr	r2, [pc, #32]	; (800102c <HAL_HSEM_FastTake+0x2c>)
 800100a:	687b      	ldr	r3, [r7, #4]
 800100c:	3320      	adds	r3, #32
 800100e:	f852 3023 	ldr.w	r3, [r2, r3, lsl #2]
 8001012:	4a07      	ldr	r2, [pc, #28]	; (8001030 <HAL_HSEM_FastTake+0x30>)
 8001014:	4293      	cmp	r3, r2
 8001016:	d101      	bne.n	800101c <HAL_HSEM_FastTake+0x1c>
  {
    /*take success when MasterID match and take bit set*/
    return HAL_OK;
 8001018:	2300      	movs	r3, #0
 800101a:	e000      	b.n	800101e <HAL_HSEM_FastTake+0x1e>
  }
#endif

  /* Semaphore take fails */
  return HAL_ERROR;
 800101c:	2301      	movs	r3, #1
}
 800101e:	4618      	mov	r0, r3
 8001020:	370c      	adds	r7, #12
 8001022:	46bd      	mov	sp, r7
 8001024:	f85d 7b04 	ldr.w	r7, [sp], #4
 8001028:	4770      	bx	lr
 800102a:	bf00      	nop
 800102c:	58026400 	.word	0x58026400
 8001030:	80000300 	.word	0x80000300

08001034 <HAL_HSEM_Release>:
  * @param  SemID: semaphore ID from 0 to 31
  * @param  ProcessID: Process ID from 0 to 255
  * @retval None
  */
void  HAL_HSEM_Release(uint32_t SemID, uint32_t ProcessID)
{
 8001034:	b480      	push	{r7}
 8001036:	b083      	sub	sp, #12
 8001038:	af00      	add	r7, sp, #0
 800103a:	6078      	str	r0, [r7, #4]
 800103c:	6039      	str	r1, [r7, #0]

  /* Clear the semaphore by writing to the R register : the MasterID , the processID and take bit = 0  */
#if  USE_MULTI_CORE_SHARED_CODE != 0U
  HSEM->R[SemID] = (ProcessID | ((HAL_GetCurrentCPUID() << POSITION_VAL(HSEM_R_MASTERID)) & HSEM_R_MASTERID));
#else
  HSEM->R[SemID] = (ProcessID | HSEM_CR_COREID_CURRENT);
 800103e:	4906      	ldr	r1, [pc, #24]	; (8001058 <HAL_HSEM_Release+0x24>)
 8001040:	683b      	ldr	r3, [r7, #0]
 8001042:	f443 7240 	orr.w	r2, r3, #768	; 0x300
 8001046:	687b      	ldr	r3, [r7, #4]
 8001048:	f841 2023 	str.w	r2, [r1, r3, lsl #2]
#endif

}
 800104c:	bf00      	nop
 800104e:	370c      	adds	r7, #12
 8001050:	46bd      	mov	sp, r7
 8001052:	f85d 7b04 	ldr.w	r7, [sp], #4
 8001056:	4770      	bx	lr
 8001058:	58026400 	.word	0x58026400

0800105c <HAL_HSEM_ActivateNotification>:
  * @brief  Activate Semaphore release Notification for a given Semaphores Mask .
  * @param  SemMask: Mask of Released semaphores
  * @retval Semaphore Key
  */
void HAL_HSEM_ActivateNotification(uint32_t SemMask)
{
 800105c:	b480      	push	{r7}
 800105e:	b083      	sub	sp, #12
 8001060:	af00      	add	r7, sp, #0
 8001062:	6078      	str	r0, [r7, #4]
  {
    /*Use interrupt line 1 for CPU2 Master*/
    HSEM->C2IER |= SemMask;
  }
#else
  HSEM_COMMON->IER |= SemMask;
 8001064:	4b05      	ldr	r3, [pc, #20]	; (800107c <HAL_HSEM_ActivateNotification+0x20>)
 8001066:	681a      	ldr	r2, [r3, #0]
 8001068:	4904      	ldr	r1, [pc, #16]	; (800107c <HAL_HSEM_ActivateNotification+0x20>)
 800106a:	687b      	ldr	r3, [r7, #4]
 800106c:	4313      	orrs	r3, r2
 800106e:	600b      	str	r3, [r1, #0]
#endif
}
 8001070:	bf00      	nop
 8001072:	370c      	adds	r7, #12
 8001074:	46bd      	mov	sp, r7
 8001076:	f85d 7b04 	ldr.w	r7, [sp], #4
 800107a:	4770      	bx	lr
 800107c:	58026500 	.word	0x58026500

08001080 <HAL_HSEM_IRQHandler>:
/**
  * @brief  This function handles HSEM interrupt request
  * @retval None
  */
void HAL_HSEM_IRQHandler(void)
{
 8001080:	b580      	push	{r7, lr}
 8001082:	b082      	sub	sp, #8
 8001084:	af00      	add	r7, sp, #0
    /*Clear Flags*/
    HSEM->C2ICR = ((uint32_t)statusreg);
  }
#else
  /* Get the list of masked freed semaphores*/
  statusreg = HSEM_COMMON->MISR;
 8001086:	4b0a      	ldr	r3, [pc, #40]	; (80010b0 <HAL_HSEM_IRQHandler+0x30>)
 8001088:	68db      	ldr	r3, [r3, #12]
 800108a:	607b      	str	r3, [r7, #4]

  /*Disable Interrupts*/
  HSEM_COMMON->IER &= ~((uint32_t)statusreg);
 800108c:	4b08      	ldr	r3, [pc, #32]	; (80010b0 <HAL_HSEM_IRQHandler+0x30>)
 800108e:	681a      	ldr	r2, [r3, #0]
 8001090:	687b      	ldr	r3, [r7, #4]
 8001092:	43db      	mvns	r3, r3
 8001094:	4906      	ldr	r1, [pc, #24]	; (80010b0 <HAL_HSEM_IRQHandler+0x30>)
 8001096:	4013      	ands	r3, r2
 8001098:	600b      	str	r3, [r1, #0]

  /*Clear Flags*/
  HSEM_COMMON->ICR = ((uint32_t)statusreg);
 800109a:	4a05      	ldr	r2, [pc, #20]	; (80010b0 <HAL_HSEM_IRQHandler+0x30>)
 800109c:	687b      	ldr	r3, [r7, #4]
 800109e:	6053      	str	r3, [r2, #4]

#endif
  /* Call FreeCallback */
  HAL_HSEM_FreeCallback(statusreg);
 80010a0:	6878      	ldr	r0, [r7, #4]
 80010a2:	f003 fc3b 	bl	800491c <HAL_HSEM_FreeCallback>
}
 80010a6:	bf00      	nop
 80010a8:	3708      	adds	r7, #8
 80010aa:	46bd      	mov	sp, r7
 80010ac:	bd80      	pop	{r7, pc}
 80010ae:	bf00      	nop
 80010b0:	58026500 	.word	0x58026500

080010b4 <HAL_PWREx_ConfigSupply>:
  *         PWR_SMPS_2V5_SUPPLIES_EXT are used only for lines that supports SMPS
  *         regulator.
  * @retval HAL status.
  */
HAL_StatusTypeDef HAL_PWREx_ConfigSupply (uint32_t SupplySource)
{
 80010b4:	b580      	push	{r7, lr}
 80010b6:	b084      	sub	sp, #16
 80010b8:	af00      	add	r7, sp, #0
 80010ba:	6078      	str	r0, [r7, #4]

  /* Check if supply source was configured */
#if defined (PWR_FLAG_SCUEN)
  if (__HAL_PWR_GET_FLAG (PWR_FLAG_SCUEN) == 0U)
#else
  if ((PWR->CR3 & (PWR_CR3_SMPSEN | PWR_CR3_LDOEN | PWR_CR3_BYPASS)) != (PWR_CR3_SMPSEN | PWR_CR3_LDOEN))
 80010bc:	4b29      	ldr	r3, [pc, #164]	; (8001164 <HAL_PWREx_ConfigSupply+0xb0>)
 80010be:	68db      	ldr	r3, [r3, #12]
 80010c0:	f003 0307 	and.w	r3, r3, #7
 80010c4:	2b06      	cmp	r3, #6
 80010c6:	d00a      	beq.n	80010de <HAL_PWREx_ConfigSupply+0x2a>
#endif /* defined (PWR_FLAG_SCUEN) */
  {
    /* Check supply configuration */
    if ((PWR->CR3 & PWR_SUPPLY_CONFIG_MASK) != SupplySource)
 80010c8:	4b26      	ldr	r3, [pc, #152]	; (8001164 <HAL_PWREx_ConfigSupply+0xb0>)
 80010ca:	68db      	ldr	r3, [r3, #12]
 80010cc:	f003 033f 	and.w	r3, r3, #63	; 0x3f
 80010d0:	687a      	ldr	r2, [r7, #4]
 80010d2:	429a      	cmp	r2, r3
 80010d4:	d001      	beq.n	80010da <HAL_PWREx_ConfigSupply+0x26>
    {
      /* Supply configuration update locked, can't apply a new supply config */
      return HAL_ERROR;
 80010d6:	2301      	movs	r3, #1
 80010d8:	e040      	b.n	800115c <HAL_PWREx_ConfigSupply+0xa8>
    else
    {
      /* Supply configuration update locked, but new supply configuration
         matches with old supply configuration : nothing to do
      */
      return HAL_OK;
 80010da:	2300      	movs	r3, #0
 80010dc:	e03e      	b.n	800115c <HAL_PWREx_ConfigSupply+0xa8>
    }
  }

  /* Set the power supply configuration */
  MODIFY_REG (PWR->CR3, PWR_SUPPLY_CONFIG_MASK, SupplySource);
 80010de:	4b21      	ldr	r3, [pc, #132]	; (8001164 <HAL_PWREx_ConfigSupply+0xb0>)
 80010e0:	68db      	ldr	r3, [r3, #12]
 80010e2:	f023 023f 	bic.w	r2, r3, #63	; 0x3f
 80010e6:	491f      	ldr	r1, [pc, #124]	; (8001164 <HAL_PWREx_ConfigSupply+0xb0>)
 80010e8:	687b      	ldr	r3, [r7, #4]
 80010ea:	4313      	orrs	r3, r2
 80010ec:	60cb      	str	r3, [r1, #12]

  /* Get tick */
  tickstart = HAL_GetTick ();
 80010ee:	f7ff fde3 	bl	8000cb8 <HAL_GetTick>
 80010f2:	60f8      	str	r0, [r7, #12]

  /* Wait till voltage level flag is set */
  while (__HAL_PWR_GET_FLAG (PWR_FLAG_ACTVOSRDY) == 0U)
 80010f4:	e009      	b.n	800110a <HAL_PWREx_ConfigSupply+0x56>
  {
    if ((HAL_GetTick () - tickstart) > PWR_FLAG_SETTING_DELAY)
 80010f6:	f7ff fddf 	bl	8000cb8 <HAL_GetTick>
 80010fa:	4602      	mov	r2, r0
 80010fc:	68fb      	ldr	r3, [r7, #12]
 80010fe:	1ad3      	subs	r3, r2, r3
 8001100:	f5b3 7f7a 	cmp.w	r3, #1000	; 0x3e8
 8001104:	d901      	bls.n	800110a <HAL_PWREx_ConfigSupply+0x56>
    {
      return HAL_ERROR;
 8001106:	2301      	movs	r3, #1
 8001108:	e028      	b.n	800115c <HAL_PWREx_ConfigSupply+0xa8>
  while (__HAL_PWR_GET_FLAG (PWR_FLAG_ACTVOSRDY) == 0U)
 800110a:	4b16      	ldr	r3, [pc, #88]	; (8001164 <HAL_PWREx_ConfigSupply+0xb0>)
 800110c:	685b      	ldr	r3, [r3, #4]
 800110e:	f403 5300 	and.w	r3, r3, #8192	; 0x2000
 8001112:	f5b3 5f00 	cmp.w	r3, #8192	; 0x2000
 8001116:	d1ee      	bne.n	80010f6 <HAL_PWREx_ConfigSupply+0x42>
    }
  }

#if defined (SMPS)
  /* When the SMPS supplies external circuits verify that SDEXTRDY flag is set */
  if ((SupplySource == PWR_SMPS_1V8_SUPPLIES_EXT_AND_LDO) ||
 8001118:	687b      	ldr	r3, [r7, #4]
 800111a:	2b1e      	cmp	r3, #30
 800111c:	d008      	beq.n	8001130 <HAL_PWREx_ConfigSupply+0x7c>
 800111e:	687b      	ldr	r3, [r7, #4]
 8001120:	2b2e      	cmp	r3, #46	; 0x2e
 8001122:	d005      	beq.n	8001130 <HAL_PWREx_ConfigSupply+0x7c>
      (SupplySource == PWR_SMPS_2V5_SUPPLIES_EXT_AND_LDO) ||
 8001124:	687b      	ldr	r3, [r7, #4]
 8001126:	2b1d      	cmp	r3, #29
 8001128:	d002      	beq.n	8001130 <HAL_PWREx_ConfigSupply+0x7c>
      (SupplySource == PWR_SMPS_1V8_SUPPLIES_EXT)         ||
 800112a:	687b      	ldr	r3, [r7, #4]
 800112c:	2b2d      	cmp	r3, #45	; 0x2d
 800112e:	d114      	bne.n	800115a <HAL_PWREx_ConfigSupply+0xa6>
      (SupplySource == PWR_SMPS_2V5_SUPPLIES_EXT))
  {
    /* Get the current tick number */
    tickstart = HAL_GetTick ();
 8001130:	f7ff fdc2 	bl	8000cb8 <HAL_GetTick>
 8001134:	60f8      	str	r0, [r7, #12]

    /* Wait till SMPS external supply ready flag is set */
    while (__HAL_PWR_GET_FLAG (PWR_FLAG_SMPSEXTRDY) == 0U)
 8001136:	e009      	b.n	800114c <HAL_PWREx_ConfigSupply+0x98>
    {
      if ((HAL_GetTick () - tickstart) > PWR_FLAG_SETTING_DELAY)
 8001138:	f7ff fdbe 	bl	8000cb8 <HAL_GetTick>
 800113c:	4602      	mov	r2, r0
 800113e:	68fb      	ldr	r3, [r7, #12]
 8001140:	1ad3      	subs	r3, r2, r3
 8001142:	f5b3 7f7a 	cmp.w	r3, #1000	; 0x3e8
 8001146:	d901      	bls.n	800114c <HAL_PWREx_ConfigSupply+0x98>
      {
        return HAL_ERROR;
 8001148:	2301      	movs	r3, #1
 800114a:	e007      	b.n	800115c <HAL_PWREx_ConfigSupply+0xa8>
    while (__HAL_PWR_GET_FLAG (PWR_FLAG_SMPSEXTRDY) == 0U)
 800114c:	4b05      	ldr	r3, [pc, #20]	; (8001164 <HAL_PWREx_ConfigSupply+0xb0>)
 800114e:	68db      	ldr	r3, [r3, #12]
 8001150:	f403 3380 	and.w	r3, r3, #65536	; 0x10000
 8001154:	f5b3 3f80 	cmp.w	r3, #65536	; 0x10000
 8001158:	d1ee      	bne.n	8001138 <HAL_PWREx_ConfigSupply+0x84>
      }
    }
  }
#endif /* defined (SMPS) */

  return HAL_OK;
 800115a:	2300      	movs	r3, #0
}
 800115c:	4618      	mov	r0, r3
 800115e:	3710      	adds	r7, #16
 8001160:	46bd      	mov	sp, r7
 8001162:	bd80      	pop	{r7, pc}
 8001164:	58024800 	.word	0x58024800

08001168 <HAL_RCC_OscConfig>:
  *         supported by this function. User should request a transition to HSE Off
  *         first and then HSE On or HSE Bypass.
  * @retval HAL status
  */
__weak HAL_StatusTypeDef HAL_RCC_OscConfig(RCC_OscInitTypeDef  *RCC_OscInitStruct)
{
 8001168:	b580      	push	{r7, lr}
 800116a:	b08c      	sub	sp, #48	; 0x30
 800116c:	af00      	add	r7, sp, #0
 800116e:	6078      	str	r0, [r7, #4]
  uint32_t tickstart;
  uint32_t temp1_pllckcfg, temp2_pllckcfg;

    /* Check Null pointer */
  if(RCC_OscInitStruct == NULL)
 8001170:	687b      	ldr	r3, [r7, #4]
 8001172:	2b00      	cmp	r3, #0
 8001174:	d102      	bne.n	800117c <HAL_RCC_OscConfig+0x14>
  {
    return HAL_ERROR;
 8001176:	2301      	movs	r3, #1
 8001178:	f000 bc1d 	b.w	80019b6 <HAL_RCC_OscConfig+0x84e>
  }

  /* Check the parameters */
  assert_param(IS_RCC_OSCILLATORTYPE(RCC_OscInitStruct->OscillatorType));
  /*------------------------------- HSE Configuration ------------------------*/
  if(((RCC_OscInitStruct->OscillatorType) & RCC_OSCILLATORTYPE_HSE) == RCC_OSCILLATORTYPE_HSE)
 800117c:	687b      	ldr	r3, [r7, #4]
 800117e:	681b      	ldr	r3, [r3, #0]
 8001180:	f003 0301 	and.w	r3, r3, #1
 8001184:	2b00      	cmp	r3, #0
 8001186:	f000 8087 	beq.w	8001298 <HAL_RCC_OscConfig+0x130>
  {
    /* Check the parameters */
    assert_param(IS_RCC_HSE(RCC_OscInitStruct->HSEState));

    const uint32_t temp_sysclksrc = __HAL_RCC_GET_SYSCLK_SOURCE();
 800118a:	4b99      	ldr	r3, [pc, #612]	; (80013f0 <HAL_RCC_OscConfig+0x288>)
 800118c:	691b      	ldr	r3, [r3, #16]
 800118e:	f003 0338 	and.w	r3, r3, #56	; 0x38
 8001192:	62fb      	str	r3, [r7, #44]	; 0x2c
    const uint32_t temp_pllckselr = RCC->PLLCKSELR;
 8001194:	4b96      	ldr	r3, [pc, #600]	; (80013f0 <HAL_RCC_OscConfig+0x288>)
 8001196:	6a9b      	ldr	r3, [r3, #40]	; 0x28
 8001198:	62bb      	str	r3, [r7, #40]	; 0x28
    /* When the HSE is used as system clock or clock source for PLL in these cases HSE will not disabled */
    if((temp_sysclksrc == RCC_CFGR_SWS_HSE) || ((temp_sysclksrc == RCC_CFGR_SWS_PLL1) && ((temp_pllckselr & RCC_PLLCKSELR_PLLSRC) == RCC_PLLCKSELR_PLLSRC_HSE)))
 800119a:	6afb      	ldr	r3, [r7, #44]	; 0x2c
 800119c:	2b10      	cmp	r3, #16
 800119e:	d007      	beq.n	80011b0 <HAL_RCC_OscConfig+0x48>
 80011a0:	6afb      	ldr	r3, [r7, #44]	; 0x2c
 80011a2:	2b18      	cmp	r3, #24
 80011a4:	d110      	bne.n	80011c8 <HAL_RCC_OscConfig+0x60>
 80011a6:	6abb      	ldr	r3, [r7, #40]	; 0x28
 80011a8:	f003 0303 	and.w	r3, r3, #3
 80011ac:	2b02      	cmp	r3, #2
 80011ae:	d10b      	bne.n	80011c8 <HAL_RCC_OscConfig+0x60>
    {
      if((__HAL_RCC_GET_FLAG(RCC_FLAG_HSERDY) != 0U) && (RCC_OscInitStruct->HSEState == RCC_HSE_OFF))
 80011b0:	4b8f      	ldr	r3, [pc, #572]	; (80013f0 <HAL_RCC_OscConfig+0x288>)
 80011b2:	681b      	ldr	r3, [r3, #0]
 80011b4:	f403 3300 	and.w	r3, r3, #131072	; 0x20000
 80011b8:	2b00      	cmp	r3, #0
 80011ba:	d06c      	beq.n	8001296 <HAL_RCC_OscConfig+0x12e>
 80011bc:	687b      	ldr	r3, [r7, #4]
 80011be:	685b      	ldr	r3, [r3, #4]
 80011c0:	2b00      	cmp	r3, #0
 80011c2:	d168      	bne.n	8001296 <HAL_RCC_OscConfig+0x12e>
      {
        return HAL_ERROR;
 80011c4:	2301      	movs	r3, #1
 80011c6:	e3f6      	b.n	80019b6 <HAL_RCC_OscConfig+0x84e>
      }
    }
    else
    {
      /* Set the new HSE configuration ---------------------------------------*/
      __HAL_RCC_HSE_CONFIG(RCC_OscInitStruct->HSEState);
 80011c8:	687b      	ldr	r3, [r7, #4]
 80011ca:	685b      	ldr	r3, [r3, #4]
 80011cc:	f5b3 3f80 	cmp.w	r3, #65536	; 0x10000
 80011d0:	d106      	bne.n	80011e0 <HAL_RCC_OscConfig+0x78>
 80011d2:	4b87      	ldr	r3, [pc, #540]	; (80013f0 <HAL_RCC_OscConfig+0x288>)
 80011d4:	681b      	ldr	r3, [r3, #0]
 80011d6:	4a86      	ldr	r2, [pc, #536]	; (80013f0 <HAL_RCC_OscConfig+0x288>)
 80011d8:	f443 3380 	orr.w	r3, r3, #65536	; 0x10000
 80011dc:	6013      	str	r3, [r2, #0]
 80011de:	e02e      	b.n	800123e <HAL_RCC_OscConfig+0xd6>
 80011e0:	687b      	ldr	r3, [r7, #4]
 80011e2:	685b      	ldr	r3, [r3, #4]
 80011e4:	2b00      	cmp	r3, #0
 80011e6:	d10c      	bne.n	8001202 <HAL_RCC_OscConfig+0x9a>
 80011e8:	4b81      	ldr	r3, [pc, #516]	; (80013f0 <HAL_RCC_OscConfig+0x288>)
 80011ea:	681b      	ldr	r3, [r3, #0]
 80011ec:	4a80      	ldr	r2, [pc, #512]	; (80013f0 <HAL_RCC_OscConfig+0x288>)
 80011ee:	f423 3380 	bic.w	r3, r3, #65536	; 0x10000
 80011f2:	6013      	str	r3, [r2, #0]
 80011f4:	4b7e      	ldr	r3, [pc, #504]	; (80013f0 <HAL_RCC_OscConfig+0x288>)
 80011f6:	681b      	ldr	r3, [r3, #0]
 80011f8:	4a7d      	ldr	r2, [pc, #500]	; (80013f0 <HAL_RCC_OscConfig+0x288>)
 80011fa:	f423 2380 	bic.w	r3, r3, #262144	; 0x40000
 80011fe:	6013      	str	r3, [r2, #0]
 8001200:	e01d      	b.n	800123e <HAL_RCC_OscConfig+0xd6>
 8001202:	687b      	ldr	r3, [r7, #4]
 8001204:	685b      	ldr	r3, [r3, #4]
 8001206:	f5b3 2fa0 	cmp.w	r3, #327680	; 0x50000
 800120a:	d10c      	bne.n	8001226 <HAL_RCC_OscConfig+0xbe>
 800120c:	4b78      	ldr	r3, [pc, #480]	; (80013f0 <HAL_RCC_OscConfig+0x288>)
 800120e:	681b      	ldr	r3, [r3, #0]
 8001210:	4a77      	ldr	r2, [pc, #476]	; (80013f0 <HAL_RCC_OscConfig+0x288>)
 8001212:	f443 2380 	orr.w	r3, r3, #262144	; 0x40000
 8001216:	6013      	str	r3, [r2, #0]
 8001218:	4b75      	ldr	r3, [pc, #468]	; (80013f0 <HAL_RCC_OscConfig+0x288>)
 800121a:	681b      	ldr	r3, [r3, #0]
 800121c:	4a74      	ldr	r2, [pc, #464]	; (80013f0 <HAL_RCC_OscConfig+0x288>)
 800121e:	f443 3380 	orr.w	r3, r3, #65536	; 0x10000
 8001222:	6013      	str	r3, [r2, #0]
 8001224:	e00b      	b.n	800123e <HAL_RCC_OscConfig+0xd6>
 8001226:	4b72      	ldr	r3, [pc, #456]	; (80013f0 <HAL_RCC_OscConfig+0x288>)
 8001228:	681b      	ldr	r3, [r3, #0]
 800122a:	4a71      	ldr	r2, [pc, #452]	; (80013f0 <HAL_RCC_OscConfig+0x288>)
 800122c:	f423 3380 	bic.w	r3, r3, #65536	; 0x10000
 8001230:	6013      	str	r3, [r2, #0]
 8001232:	4b6f      	ldr	r3, [pc, #444]	; (80013f0 <HAL_RCC_OscConfig+0x288>)
 8001234:	681b      	ldr	r3, [r3, #0]
 8001236:	4a6e      	ldr	r2, [pc, #440]	; (80013f0 <HAL_RCC_OscConfig+0x288>)
 8001238:	f423 2380 	bic.w	r3, r3, #262144	; 0x40000
 800123c:	6013      	str	r3, [r2, #0]

      /* Check the HSE State */
      if(RCC_OscInitStruct->HSEState != RCC_HSE_OFF)
 800123e:	687b      	ldr	r3, [r7, #4]
 8001240:	685b      	ldr	r3, [r3, #4]
 8001242:	2b00      	cmp	r3, #0
 8001244:	d013      	beq.n	800126e <HAL_RCC_OscConfig+0x106>
      {
        /* Get Start Tick*/
        tickstart = HAL_GetTick();
 8001246:	f7ff fd37 	bl	8000cb8 <HAL_GetTick>
 800124a:	6278      	str	r0, [r7, #36]	; 0x24

        /* Wait till HSE is ready */
        while(__HAL_RCC_GET_FLAG(RCC_FLAG_HSERDY) == 0U)
 800124c:	e008      	b.n	8001260 <HAL_RCC_OscConfig+0xf8>
        {
          if((uint32_t) (HAL_GetTick() - tickstart ) > HSE_TIMEOUT_VALUE)
 800124e:	f7ff fd33 	bl	8000cb8 <HAL_GetTick>
 8001252:	4602      	mov	r2, r0
 8001254:	6a7b      	ldr	r3, [r7, #36]	; 0x24
 8001256:	1ad3      	subs	r3, r2, r3
 8001258:	2b64      	cmp	r3, #100	; 0x64
 800125a:	d901      	bls.n	8001260 <HAL_RCC_OscConfig+0xf8>
          {
            return HAL_TIMEOUT;
 800125c:	2303      	movs	r3, #3
 800125e:	e3aa      	b.n	80019b6 <HAL_RCC_OscConfig+0x84e>
        while(__HAL_RCC_GET_FLAG(RCC_FLAG_HSERDY) == 0U)
 8001260:	4b63      	ldr	r3, [pc, #396]	; (80013f0 <HAL_RCC_OscConfig+0x288>)
 8001262:	681b      	ldr	r3, [r3, #0]
 8001264:	f403 3300 	and.w	r3, r3, #131072	; 0x20000
 8001268:	2b00      	cmp	r3, #0
 800126a:	d0f0      	beq.n	800124e <HAL_RCC_OscConfig+0xe6>
 800126c:	e014      	b.n	8001298 <HAL_RCC_OscConfig+0x130>
        }
      }
      else
      {
        /* Get Start Tick*/
        tickstart = HAL_GetTick();
 800126e:	f7ff fd23 	bl	8000cb8 <HAL_GetTick>
 8001272:	6278      	str	r0, [r7, #36]	; 0x24

        /* Wait till HSE is disabled */
        while(__HAL_RCC_GET_FLAG(RCC_FLAG_HSERDY) != 0U)
 8001274:	e008      	b.n	8001288 <HAL_RCC_OscConfig+0x120>
        {
          if((uint32_t) (HAL_GetTick() - tickstart ) > HSE_TIMEOUT_VALUE)
 8001276:	f7ff fd1f 	bl	8000cb8 <HAL_GetTick>
 800127a:	4602      	mov	r2, r0
 800127c:	6a7b      	ldr	r3, [r7, #36]	; 0x24
 800127e:	1ad3      	subs	r3, r2, r3
 8001280:	2b64      	cmp	r3, #100	; 0x64
 8001282:	d901      	bls.n	8001288 <HAL_RCC_OscConfig+0x120>
          {
            return HAL_TIMEOUT;
 8001284:	2303      	movs	r3, #3
 8001286:	e396      	b.n	80019b6 <HAL_RCC_OscConfig+0x84e>
        while(__HAL_RCC_GET_FLAG(RCC_FLAG_HSERDY) != 0U)
 8001288:	4b59      	ldr	r3, [pc, #356]	; (80013f0 <HAL_RCC_OscConfig+0x288>)
 800128a:	681b      	ldr	r3, [r3, #0]
 800128c:	f403 3300 	and.w	r3, r3, #131072	; 0x20000
 8001290:	2b00      	cmp	r3, #0
 8001292:	d1f0      	bne.n	8001276 <HAL_RCC_OscConfig+0x10e>
 8001294:	e000      	b.n	8001298 <HAL_RCC_OscConfig+0x130>
      if((__HAL_RCC_GET_FLAG(RCC_FLAG_HSERDY) != 0U) && (RCC_OscInitStruct->HSEState == RCC_HSE_OFF))
 8001296:	bf00      	nop
        }
      }
    }
  }
  /*----------------------------- HSI Configuration --------------------------*/
  if(((RCC_OscInitStruct->OscillatorType) & RCC_OSCILLATORTYPE_HSI) == RCC_OSCILLATORTYPE_HSI)
 8001298:	687b      	ldr	r3, [r7, #4]
 800129a:	681b      	ldr	r3, [r3, #0]
 800129c:	f003 0302 	and.w	r3, r3, #2
 80012a0:	2b00      	cmp	r3, #0
 80012a2:	f000 80cb 	beq.w	800143c <HAL_RCC_OscConfig+0x2d4>
    /* Check the parameters */
    assert_param(IS_RCC_HSI(RCC_OscInitStruct->HSIState));
    assert_param(IS_RCC_HSICALIBRATION_VALUE(RCC_OscInitStruct->HSICalibrationValue));

    /* When the HSI is used as system clock it will not be disabled */
    const uint32_t temp_sysclksrc = __HAL_RCC_GET_SYSCLK_SOURCE();
 80012a6:	4b52      	ldr	r3, [pc, #328]	; (80013f0 <HAL_RCC_OscConfig+0x288>)
 80012a8:	691b      	ldr	r3, [r3, #16]
 80012aa:	f003 0338 	and.w	r3, r3, #56	; 0x38
 80012ae:	623b      	str	r3, [r7, #32]
    const uint32_t temp_pllckselr = RCC->PLLCKSELR;
 80012b0:	4b4f      	ldr	r3, [pc, #316]	; (80013f0 <HAL_RCC_OscConfig+0x288>)
 80012b2:	6a9b      	ldr	r3, [r3, #40]	; 0x28
 80012b4:	61fb      	str	r3, [r7, #28]
    if((temp_sysclksrc == RCC_CFGR_SWS_HSI) || ((temp_sysclksrc == RCC_CFGR_SWS_PLL1) && ((temp_pllckselr & RCC_PLLCKSELR_PLLSRC) == RCC_PLLCKSELR_PLLSRC_HSI)))
 80012b6:	6a3b      	ldr	r3, [r7, #32]
 80012b8:	2b00      	cmp	r3, #0
 80012ba:	d007      	beq.n	80012cc <HAL_RCC_OscConfig+0x164>
 80012bc:	6a3b      	ldr	r3, [r7, #32]
 80012be:	2b18      	cmp	r3, #24
 80012c0:	d156      	bne.n	8001370 <HAL_RCC_OscConfig+0x208>
 80012c2:	69fb      	ldr	r3, [r7, #28]
 80012c4:	f003 0303 	and.w	r3, r3, #3
 80012c8:	2b00      	cmp	r3, #0
 80012ca:	d151      	bne.n	8001370 <HAL_RCC_OscConfig+0x208>
    {
      /* When HSI is used as system clock it will not be disabled */
      if((__HAL_RCC_GET_FLAG(RCC_FLAG_HSIRDY) != 0U) && (RCC_OscInitStruct->HSIState == RCC_HSI_OFF))
 80012cc:	4b48      	ldr	r3, [pc, #288]	; (80013f0 <HAL_RCC_OscConfig+0x288>)
 80012ce:	681b      	ldr	r3, [r3, #0]
 80012d0:	f003 0304 	and.w	r3, r3, #4
 80012d4:	2b00      	cmp	r3, #0
 80012d6:	d005      	beq.n	80012e4 <HAL_RCC_OscConfig+0x17c>
 80012d8:	687b      	ldr	r3, [r7, #4]
 80012da:	68db      	ldr	r3, [r3, #12]
 80012dc:	2b00      	cmp	r3, #0
 80012de:	d101      	bne.n	80012e4 <HAL_RCC_OscConfig+0x17c>
      {
        return HAL_ERROR;
 80012e0:	2301      	movs	r3, #1
 80012e2:	e368      	b.n	80019b6 <HAL_RCC_OscConfig+0x84e>
      }
      /* Otherwise, only HSI division and calibration are allowed */
      else
      {
          /* Enable the Internal High Speed oscillator (HSI, HSIDIV2, HSIDIV4, or HSIDIV8) */
          __HAL_RCC_HSI_CONFIG(RCC_OscInitStruct->HSIState);
 80012e4:	4b42      	ldr	r3, [pc, #264]	; (80013f0 <HAL_RCC_OscConfig+0x288>)
 80012e6:	681b      	ldr	r3, [r3, #0]
 80012e8:	f023 0219 	bic.w	r2, r3, #25
 80012ec:	687b      	ldr	r3, [r7, #4]
 80012ee:	68db      	ldr	r3, [r3, #12]
 80012f0:	493f      	ldr	r1, [pc, #252]	; (80013f0 <HAL_RCC_OscConfig+0x288>)
 80012f2:	4313      	orrs	r3, r2
 80012f4:	600b      	str	r3, [r1, #0]

          /* Get Start Tick*/
          tickstart = HAL_GetTick();
 80012f6:	f7ff fcdf 	bl	8000cb8 <HAL_GetTick>
 80012fa:	6278      	str	r0, [r7, #36]	; 0x24

          /* Wait till HSI is ready */
          while(__HAL_RCC_GET_FLAG(RCC_FLAG_HSIRDY) == 0U)
 80012fc:	e008      	b.n	8001310 <HAL_RCC_OscConfig+0x1a8>
          {
            if((uint32_t) (HAL_GetTick() - tickstart ) > HSI_TIMEOUT_VALUE)
 80012fe:	f7ff fcdb 	bl	8000cb8 <HAL_GetTick>
 8001302:	4602      	mov	r2, r0
 8001304:	6a7b      	ldr	r3, [r7, #36]	; 0x24
 8001306:	1ad3      	subs	r3, r2, r3
 8001308:	2b02      	cmp	r3, #2
 800130a:	d901      	bls.n	8001310 <HAL_RCC_OscConfig+0x1a8>
            {
              return HAL_TIMEOUT;
 800130c:	2303      	movs	r3, #3
 800130e:	e352      	b.n	80019b6 <HAL_RCC_OscConfig+0x84e>
          while(__HAL_RCC_GET_FLAG(RCC_FLAG_HSIRDY) == 0U)
 8001310:	4b37      	ldr	r3, [pc, #220]	; (80013f0 <HAL_RCC_OscConfig+0x288>)
 8001312:	681b      	ldr	r3, [r3, #0]
 8001314:	f003 0304 	and.w	r3, r3, #4
 8001318:	2b00      	cmp	r3, #0
 800131a:	d0f0      	beq.n	80012fe <HAL_RCC_OscConfig+0x196>
            }
          }
        /* Adjusts the Internal High Speed oscillator (HSI) calibration value.*/
        __HAL_RCC_HSI_CALIBRATIONVALUE_ADJUST(RCC_OscInitStruct->HSICalibrationValue);
 800131c:	f7ff fcd8 	bl	8000cd0 <HAL_GetREVID>
 8001320:	4603      	mov	r3, r0
 8001322:	f241 0203 	movw	r2, #4099	; 0x1003
 8001326:	4293      	cmp	r3, r2
 8001328:	d817      	bhi.n	800135a <HAL_RCC_OscConfig+0x1f2>
 800132a:	687b      	ldr	r3, [r7, #4]
 800132c:	691b      	ldr	r3, [r3, #16]
 800132e:	2b40      	cmp	r3, #64	; 0x40
 8001330:	d108      	bne.n	8001344 <HAL_RCC_OscConfig+0x1dc>
 8001332:	4b2f      	ldr	r3, [pc, #188]	; (80013f0 <HAL_RCC_OscConfig+0x288>)
 8001334:	685b      	ldr	r3, [r3, #4]
 8001336:	f423 337c 	bic.w	r3, r3, #258048	; 0x3f000
 800133a:	4a2d      	ldr	r2, [pc, #180]	; (80013f0 <HAL_RCC_OscConfig+0x288>)
 800133c:	f443 3300 	orr.w	r3, r3, #131072	; 0x20000
 8001340:	6053      	str	r3, [r2, #4]
      if((__HAL_RCC_GET_FLAG(RCC_FLAG_HSIRDY) != 0U) && (RCC_OscInitStruct->HSIState == RCC_HSI_OFF))
 8001342:	e07b      	b.n	800143c <HAL_RCC_OscConfig+0x2d4>
        __HAL_RCC_HSI_CALIBRATIONVALUE_ADJUST(RCC_OscInitStruct->HSICalibrationValue);
 8001344:	4b2a      	ldr	r3, [pc, #168]	; (80013f0 <HAL_RCC_OscConfig+0x288>)
 8001346:	685b      	ldr	r3, [r3, #4]
 8001348:	f423 327c 	bic.w	r2, r3, #258048	; 0x3f000
 800134c:	687b      	ldr	r3, [r7, #4]
 800134e:	691b      	ldr	r3, [r3, #16]
 8001350:	031b      	lsls	r3, r3, #12
 8001352:	4927      	ldr	r1, [pc, #156]	; (80013f0 <HAL_RCC_OscConfig+0x288>)
 8001354:	4313      	orrs	r3, r2
 8001356:	604b      	str	r3, [r1, #4]
      if((__HAL_RCC_GET_FLAG(RCC_FLAG_HSIRDY) != 0U) && (RCC_OscInitStruct->HSIState == RCC_HSI_OFF))
 8001358:	e070      	b.n	800143c <HAL_RCC_OscConfig+0x2d4>
        __HAL_RCC_HSI_CALIBRATIONVALUE_ADJUST(RCC_OscInitStruct->HSICalibrationValue);
 800135a:	4b25      	ldr	r3, [pc, #148]	; (80013f0 <HAL_RCC_OscConfig+0x288>)
 800135c:	685b      	ldr	r3, [r3, #4]
 800135e:	f023 42fe 	bic.w	r2, r3, #2130706432	; 0x7f000000
 8001362:	687b      	ldr	r3, [r7, #4]
 8001364:	691b      	ldr	r3, [r3, #16]
 8001366:	061b      	lsls	r3, r3, #24
 8001368:	4921      	ldr	r1, [pc, #132]	; (80013f0 <HAL_RCC_OscConfig+0x288>)
 800136a:	4313      	orrs	r3, r2
 800136c:	604b      	str	r3, [r1, #4]
      if((__HAL_RCC_GET_FLAG(RCC_FLAG_HSIRDY) != 0U) && (RCC_OscInitStruct->HSIState == RCC_HSI_OFF))
 800136e:	e065      	b.n	800143c <HAL_RCC_OscConfig+0x2d4>
    }

    else
    {
      /* Check the HSI State */
      if((RCC_OscInitStruct->HSIState)!= RCC_HSI_OFF)
 8001370:	687b      	ldr	r3, [r7, #4]
 8001372:	68db      	ldr	r3, [r3, #12]
 8001374:	2b00      	cmp	r3, #0
 8001376:	d048      	beq.n	800140a <HAL_RCC_OscConfig+0x2a2>
      {
     /* Enable the Internal High Speed oscillator (HSI, HSIDIV2,HSIDIV4, or HSIDIV8) */
        __HAL_RCC_HSI_CONFIG(RCC_OscInitStruct->HSIState);
 8001378:	4b1d      	ldr	r3, [pc, #116]	; (80013f0 <HAL_RCC_OscConfig+0x288>)
 800137a:	681b      	ldr	r3, [r3, #0]
 800137c:	f023 0219 	bic.w	r2, r3, #25
 8001380:	687b      	ldr	r3, [r7, #4]
 8001382:	68db      	ldr	r3, [r3, #12]
 8001384:	491a      	ldr	r1, [pc, #104]	; (80013f0 <HAL_RCC_OscConfig+0x288>)
 8001386:	4313      	orrs	r3, r2
 8001388:	600b      	str	r3, [r1, #0]

        /* Get Start Tick*/
        tickstart = HAL_GetTick();
 800138a:	f7ff fc95 	bl	8000cb8 <HAL_GetTick>
 800138e:	6278      	str	r0, [r7, #36]	; 0x24

        /* Wait till HSI is ready */
        while(__HAL_RCC_GET_FLAG(RCC_FLAG_HSIRDY) == 0U)
 8001390:	e008      	b.n	80013a4 <HAL_RCC_OscConfig+0x23c>
        {
          if((HAL_GetTick() - tickstart ) > HSI_TIMEOUT_VALUE)
 8001392:	f7ff fc91 	bl	8000cb8 <HAL_GetTick>
 8001396:	4602      	mov	r2, r0
 8001398:	6a7b      	ldr	r3, [r7, #36]	; 0x24
 800139a:	1ad3      	subs	r3, r2, r3
 800139c:	2b02      	cmp	r3, #2
 800139e:	d901      	bls.n	80013a4 <HAL_RCC_OscConfig+0x23c>
          {
            return HAL_TIMEOUT;
 80013a0:	2303      	movs	r3, #3
 80013a2:	e308      	b.n	80019b6 <HAL_RCC_OscConfig+0x84e>
        while(__HAL_RCC_GET_FLAG(RCC_FLAG_HSIRDY) == 0U)
 80013a4:	4b12      	ldr	r3, [pc, #72]	; (80013f0 <HAL_RCC_OscConfig+0x288>)
 80013a6:	681b      	ldr	r3, [r3, #0]
 80013a8:	f003 0304 	and.w	r3, r3, #4
 80013ac:	2b00      	cmp	r3, #0
 80013ae:	d0f0      	beq.n	8001392 <HAL_RCC_OscConfig+0x22a>
          }
        }

        /* Adjusts the Internal High Speed oscillator (HSI) calibration value.*/
        __HAL_RCC_HSI_CALIBRATIONVALUE_ADJUST(RCC_OscInitStruct->HSICalibrationValue);
 80013b0:	f7ff fc8e 	bl	8000cd0 <HAL_GetREVID>
 80013b4:	4603      	mov	r3, r0
 80013b6:	f241 0203 	movw	r2, #4099	; 0x1003
 80013ba:	4293      	cmp	r3, r2
 80013bc:	d81a      	bhi.n	80013f4 <HAL_RCC_OscConfig+0x28c>
 80013be:	687b      	ldr	r3, [r7, #4]
 80013c0:	691b      	ldr	r3, [r3, #16]
 80013c2:	2b40      	cmp	r3, #64	; 0x40
 80013c4:	d108      	bne.n	80013d8 <HAL_RCC_OscConfig+0x270>
 80013c6:	4b0a      	ldr	r3, [pc, #40]	; (80013f0 <HAL_RCC_OscConfig+0x288>)
 80013c8:	685b      	ldr	r3, [r3, #4]
 80013ca:	f423 337c 	bic.w	r3, r3, #258048	; 0x3f000
 80013ce:	4a08      	ldr	r2, [pc, #32]	; (80013f0 <HAL_RCC_OscConfig+0x288>)
 80013d0:	f443 3300 	orr.w	r3, r3, #131072	; 0x20000
 80013d4:	6053      	str	r3, [r2, #4]
 80013d6:	e031      	b.n	800143c <HAL_RCC_OscConfig+0x2d4>
 80013d8:	4b05      	ldr	r3, [pc, #20]	; (80013f0 <HAL_RCC_OscConfig+0x288>)
 80013da:	685b      	ldr	r3, [r3, #4]
 80013dc:	f423 327c 	bic.w	r2, r3, #258048	; 0x3f000
 80013e0:	687b      	ldr	r3, [r7, #4]
 80013e2:	691b      	ldr	r3, [r3, #16]
 80013e4:	031b      	lsls	r3, r3, #12
 80013e6:	4902      	ldr	r1, [pc, #8]	; (80013f0 <HAL_RCC_OscConfig+0x288>)
 80013e8:	4313      	orrs	r3, r2
 80013ea:	604b      	str	r3, [r1, #4]
 80013ec:	e026      	b.n	800143c <HAL_RCC_OscConfig+0x2d4>
 80013ee:	bf00      	nop
 80013f0:	58024400 	.word	0x58024400
 80013f4:	4b9a      	ldr	r3, [pc, #616]	; (8001660 <HAL_RCC_OscConfig+0x4f8>)
 80013f6:	685b      	ldr	r3, [r3, #4]
 80013f8:	f023 42fe 	bic.w	r2, r3, #2130706432	; 0x7f000000
 80013fc:	687b      	ldr	r3, [r7, #4]
 80013fe:	691b      	ldr	r3, [r3, #16]
 8001400:	061b      	lsls	r3, r3, #24
 8001402:	4997      	ldr	r1, [pc, #604]	; (8001660 <HAL_RCC_OscConfig+0x4f8>)
 8001404:	4313      	orrs	r3, r2
 8001406:	604b      	str	r3, [r1, #4]
 8001408:	e018      	b.n	800143c <HAL_RCC_OscConfig+0x2d4>
      }
      else
      {
        /* Disable the Internal High Speed oscillator (HSI). */
        __HAL_RCC_HSI_DISABLE();
 800140a:	4b95      	ldr	r3, [pc, #596]	; (8001660 <HAL_RCC_OscConfig+0x4f8>)
 800140c:	681b      	ldr	r3, [r3, #0]
 800140e:	4a94      	ldr	r2, [pc, #592]	; (8001660 <HAL_RCC_OscConfig+0x4f8>)
 8001410:	f023 0301 	bic.w	r3, r3, #1
 8001414:	6013      	str	r3, [r2, #0]

        /* Get Start Tick*/
        tickstart = HAL_GetTick();
 8001416:	f7ff fc4f 	bl	8000cb8 <HAL_GetTick>
 800141a:	6278      	str	r0, [r7, #36]	; 0x24

        /* Wait till HSI is disabled */
        while(__HAL_RCC_GET_FLAG(RCC_FLAG_HSIRDY) != 0U)
 800141c:	e008      	b.n	8001430 <HAL_RCC_OscConfig+0x2c8>
        {
          if((HAL_GetTick() - tickstart ) > HSI_TIMEOUT_VALUE)
 800141e:	f7ff fc4b 	bl	8000cb8 <HAL_GetTick>
 8001422:	4602      	mov	r2, r0
 8001424:	6a7b      	ldr	r3, [r7, #36]	; 0x24
 8001426:	1ad3      	subs	r3, r2, r3
 8001428:	2b02      	cmp	r3, #2
 800142a:	d901      	bls.n	8001430 <HAL_RCC_OscConfig+0x2c8>
          {
            return HAL_TIMEOUT;
 800142c:	2303      	movs	r3, #3
 800142e:	e2c2      	b.n	80019b6 <HAL_RCC_OscConfig+0x84e>
        while(__HAL_RCC_GET_FLAG(RCC_FLAG_HSIRDY) != 0U)
 8001430:	4b8b      	ldr	r3, [pc, #556]	; (8001660 <HAL_RCC_OscConfig+0x4f8>)
 8001432:	681b      	ldr	r3, [r3, #0]
 8001434:	f003 0304 	and.w	r3, r3, #4
 8001438:	2b00      	cmp	r3, #0
 800143a:	d1f0      	bne.n	800141e <HAL_RCC_OscConfig+0x2b6>
        }
      }
    }
  }
  /*----------------------------- CSI Configuration --------------------------*/
  if(((RCC_OscInitStruct->OscillatorType) & RCC_OSCILLATORTYPE_CSI) == RCC_OSCILLATORTYPE_CSI)
 800143c:	687b      	ldr	r3, [r7, #4]
 800143e:	681b      	ldr	r3, [r3, #0]
 8001440:	f003 0310 	and.w	r3, r3, #16
 8001444:	2b00      	cmp	r3, #0
 8001446:	f000 80a9 	beq.w	800159c <HAL_RCC_OscConfig+0x434>
    /* Check the parameters */
    assert_param(IS_RCC_CSI(RCC_OscInitStruct->CSIState));
    assert_param(IS_RCC_CSICALIBRATION_VALUE(RCC_OscInitStruct->CSICalibrationValue));

    /* When the CSI is used as system clock it will not disabled */
    const uint32_t temp_sysclksrc = __HAL_RCC_GET_SYSCLK_SOURCE();
 800144a:	4b85      	ldr	r3, [pc, #532]	; (8001660 <HAL_RCC_OscConfig+0x4f8>)
 800144c:	691b      	ldr	r3, [r3, #16]
 800144e:	f003 0338 	and.w	r3, r3, #56	; 0x38
 8001452:	61bb      	str	r3, [r7, #24]
    const uint32_t temp_pllckselr = RCC->PLLCKSELR;
 8001454:	4b82      	ldr	r3, [pc, #520]	; (8001660 <HAL_RCC_OscConfig+0x4f8>)
 8001456:	6a9b      	ldr	r3, [r3, #40]	; 0x28
 8001458:	617b      	str	r3, [r7, #20]
    if((temp_sysclksrc == RCC_CFGR_SWS_CSI) || ((temp_sysclksrc == RCC_CFGR_SWS_PLL1) && ((temp_pllckselr & RCC_PLLCKSELR_PLLSRC) == RCC_PLLCKSELR_PLLSRC_CSI)))
 800145a:	69bb      	ldr	r3, [r7, #24]
 800145c:	2b08      	cmp	r3, #8
 800145e:	d007      	beq.n	8001470 <HAL_RCC_OscConfig+0x308>
 8001460:	69bb      	ldr	r3, [r7, #24]
 8001462:	2b18      	cmp	r3, #24
 8001464:	d13a      	bne.n	80014dc <HAL_RCC_OscConfig+0x374>
 8001466:	697b      	ldr	r3, [r7, #20]
 8001468:	f003 0303 	and.w	r3, r3, #3
 800146c:	2b01      	cmp	r3, #1
 800146e:	d135      	bne.n	80014dc <HAL_RCC_OscConfig+0x374>
    {
      /* When CSI is used as system clock it will not disabled */
      if((__HAL_RCC_GET_FLAG(RCC_FLAG_CSIRDY) != 0U) && (RCC_OscInitStruct->CSIState != RCC_CSI_ON))
 8001470:	4b7b      	ldr	r3, [pc, #492]	; (8001660 <HAL_RCC_OscConfig+0x4f8>)
 8001472:	681b      	ldr	r3, [r3, #0]
 8001474:	f403 7380 	and.w	r3, r3, #256	; 0x100
 8001478:	2b00      	cmp	r3, #0
 800147a:	d005      	beq.n	8001488 <HAL_RCC_OscConfig+0x320>
 800147c:	687b      	ldr	r3, [r7, #4]
 800147e:	69db      	ldr	r3, [r3, #28]
 8001480:	2b80      	cmp	r3, #128	; 0x80
 8001482:	d001      	beq.n	8001488 <HAL_RCC_OscConfig+0x320>
      {
        return HAL_ERROR;
 8001484:	2301      	movs	r3, #1
 8001486:	e296      	b.n	80019b6 <HAL_RCC_OscConfig+0x84e>
      }
      /* Otherwise, just the calibration is allowed */
      else
      {
        /* Adjusts the Internal High Speed oscillator (CSI) calibration value.*/
        __HAL_RCC_CSI_CALIBRATIONVALUE_ADJUST(RCC_OscInitStruct->CSICalibrationValue);
 8001488:	f7ff fc22 	bl	8000cd0 <HAL_GetREVID>
 800148c:	4603      	mov	r3, r0
 800148e:	f241 0203 	movw	r2, #4099	; 0x1003
 8001492:	4293      	cmp	r3, r2
 8001494:	d817      	bhi.n	80014c6 <HAL_RCC_OscConfig+0x35e>
 8001496:	687b      	ldr	r3, [r7, #4]
 8001498:	6a1b      	ldr	r3, [r3, #32]
 800149a:	2b20      	cmp	r3, #32
 800149c:	d108      	bne.n	80014b0 <HAL_RCC_OscConfig+0x348>
 800149e:	4b70      	ldr	r3, [pc, #448]	; (8001660 <HAL_RCC_OscConfig+0x4f8>)
 80014a0:	685b      	ldr	r3, [r3, #4]
 80014a2:	f023 43f8 	bic.w	r3, r3, #2080374784	; 0x7c000000
 80014a6:	4a6e      	ldr	r2, [pc, #440]	; (8001660 <HAL_RCC_OscConfig+0x4f8>)
 80014a8:	f043 4380 	orr.w	r3, r3, #1073741824	; 0x40000000
 80014ac:	6053      	str	r3, [r2, #4]
      if((__HAL_RCC_GET_FLAG(RCC_FLAG_CSIRDY) != 0U) && (RCC_OscInitStruct->CSIState != RCC_CSI_ON))
 80014ae:	e075      	b.n	800159c <HAL_RCC_OscConfig+0x434>
        __HAL_RCC_CSI_CALIBRATIONVALUE_ADJUST(RCC_OscInitStruct->CSICalibrationValue);
 80014b0:	4b6b      	ldr	r3, [pc, #428]	; (8001660 <HAL_RCC_OscConfig+0x4f8>)
 80014b2:	685b      	ldr	r3, [r3, #4]
 80014b4:	f023 42f8 	bic.w	r2, r3, #2080374784	; 0x7c000000
 80014b8:	687b      	ldr	r3, [r7, #4]
 80014ba:	6a1b      	ldr	r3, [r3, #32]
 80014bc:	069b      	lsls	r3, r3, #26
 80014be:	4968      	ldr	r1, [pc, #416]	; (8001660 <HAL_RCC_OscConfig+0x4f8>)
 80014c0:	4313      	orrs	r3, r2
 80014c2:	604b      	str	r3, [r1, #4]
      if((__HAL_RCC_GET_FLAG(RCC_FLAG_CSIRDY) != 0U) && (RCC_OscInitStruct->CSIState != RCC_CSI_ON))
 80014c4:	e06a      	b.n	800159c <HAL_RCC_OscConfig+0x434>
        __HAL_RCC_CSI_CALIBRATIONVALUE_ADJUST(RCC_OscInitStruct->CSICalibrationValue);
 80014c6:	4b66      	ldr	r3, [pc, #408]	; (8001660 <HAL_RCC_OscConfig+0x4f8>)
 80014c8:	68db      	ldr	r3, [r3, #12]
 80014ca:	f023 527c 	bic.w	r2, r3, #1056964608	; 0x3f000000
 80014ce:	687b      	ldr	r3, [r7, #4]
 80014d0:	6a1b      	ldr	r3, [r3, #32]
 80014d2:	061b      	lsls	r3, r3, #24
 80014d4:	4962      	ldr	r1, [pc, #392]	; (8001660 <HAL_RCC_OscConfig+0x4f8>)
 80014d6:	4313      	orrs	r3, r2
 80014d8:	60cb      	str	r3, [r1, #12]
      if((__HAL_RCC_GET_FLAG(RCC_FLAG_CSIRDY) != 0U) && (RCC_OscInitStruct->CSIState != RCC_CSI_ON))
 80014da:	e05f      	b.n	800159c <HAL_RCC_OscConfig+0x434>
      }
    }
    else
    {
      /* Check the CSI State */
      if((RCC_OscInitStruct->CSIState)!= RCC_CSI_OFF)
 80014dc:	687b      	ldr	r3, [r7, #4]
 80014de:	69db      	ldr	r3, [r3, #28]
 80014e0:	2b00      	cmp	r3, #0
 80014e2:	d042      	beq.n	800156a <HAL_RCC_OscConfig+0x402>
      {
        /* Enable the Internal High Speed oscillator (CSI). */
        __HAL_RCC_CSI_ENABLE();
 80014e4:	4b5e      	ldr	r3, [pc, #376]	; (8001660 <HAL_RCC_OscConfig+0x4f8>)
 80014e6:	681b      	ldr	r3, [r3, #0]
 80014e8:	4a5d      	ldr	r2, [pc, #372]	; (8001660 <HAL_RCC_OscConfig+0x4f8>)
 80014ea:	f043 0380 	orr.w	r3, r3, #128	; 0x80
 80014ee:	6013      	str	r3, [r2, #0]

        /* Get Start Tick*/
        tickstart = HAL_GetTick();
 80014f0:	f7ff fbe2 	bl	8000cb8 <HAL_GetTick>
 80014f4:	6278      	str	r0, [r7, #36]	; 0x24

        /* Wait till CSI is ready */
        while(__HAL_RCC_GET_FLAG(RCC_FLAG_CSIRDY) == 0U)
 80014f6:	e008      	b.n	800150a <HAL_RCC_OscConfig+0x3a2>
        {
          if((HAL_GetTick() - tickstart ) > CSI_TIMEOUT_VALUE)
 80014f8:	f7ff fbde 	bl	8000cb8 <HAL_GetTick>
 80014fc:	4602      	mov	r2, r0
 80014fe:	6a7b      	ldr	r3, [r7, #36]	; 0x24
 8001500:	1ad3      	subs	r3, r2, r3
 8001502:	2b02      	cmp	r3, #2
 8001504:	d901      	bls.n	800150a <HAL_RCC_OscConfig+0x3a2>
          {
            return HAL_TIMEOUT;
 8001506:	2303      	movs	r3, #3
 8001508:	e255      	b.n	80019b6 <HAL_RCC_OscConfig+0x84e>
        while(__HAL_RCC_GET_FLAG(RCC_FLAG_CSIRDY) == 0U)
 800150a:	4b55      	ldr	r3, [pc, #340]	; (8001660 <HAL_RCC_OscConfig+0x4f8>)
 800150c:	681b      	ldr	r3, [r3, #0]
 800150e:	f403 7380 	and.w	r3, r3, #256	; 0x100
 8001512:	2b00      	cmp	r3, #0
 8001514:	d0f0      	beq.n	80014f8 <HAL_RCC_OscConfig+0x390>
          }
        }

        /* Adjusts the Internal High Speed oscillator (CSI) calibration value.*/
        __HAL_RCC_CSI_CALIBRATIONVALUE_ADJUST(RCC_OscInitStruct->CSICalibrationValue);
 8001516:	f7ff fbdb 	bl	8000cd0 <HAL_GetREVID>
 800151a:	4603      	mov	r3, r0
 800151c:	f241 0203 	movw	r2, #4099	; 0x1003
 8001520:	4293      	cmp	r3, r2
 8001522:	d817      	bhi.n	8001554 <HAL_RCC_OscConfig+0x3ec>
 8001524:	687b      	ldr	r3, [r7, #4]
 8001526:	6a1b      	ldr	r3, [r3, #32]
 8001528:	2b20      	cmp	r3, #32
 800152a:	d108      	bne.n	800153e <HAL_RCC_OscConfig+0x3d6>
 800152c:	4b4c      	ldr	r3, [pc, #304]	; (8001660 <HAL_RCC_OscConfig+0x4f8>)
 800152e:	685b      	ldr	r3, [r3, #4]
 8001530:	f023 43f8 	bic.w	r3, r3, #2080374784	; 0x7c000000
 8001534:	4a4a      	ldr	r2, [pc, #296]	; (8001660 <HAL_RCC_OscConfig+0x4f8>)
 8001536:	f043 4380 	orr.w	r3, r3, #1073741824	; 0x40000000
 800153a:	6053      	str	r3, [r2, #4]
 800153c:	e02e      	b.n	800159c <HAL_RCC_OscConfig+0x434>
 800153e:	4b48      	ldr	r3, [pc, #288]	; (8001660 <HAL_RCC_OscConfig+0x4f8>)
 8001540:	685b      	ldr	r3, [r3, #4]
 8001542:	f023 42f8 	bic.w	r2, r3, #2080374784	; 0x7c000000
 8001546:	687b      	ldr	r3, [r7, #4]
 8001548:	6a1b      	ldr	r3, [r3, #32]
 800154a:	069b      	lsls	r3, r3, #26
 800154c:	4944      	ldr	r1, [pc, #272]	; (8001660 <HAL_RCC_OscConfig+0x4f8>)
 800154e:	4313      	orrs	r3, r2
 8001550:	604b      	str	r3, [r1, #4]
 8001552:	e023      	b.n	800159c <HAL_RCC_OscConfig+0x434>
 8001554:	4b42      	ldr	r3, [pc, #264]	; (8001660 <HAL_RCC_OscConfig+0x4f8>)
 8001556:	68db      	ldr	r3, [r3, #12]
 8001558:	f023 527c 	bic.w	r2, r3, #1056964608	; 0x3f000000
 800155c:	687b      	ldr	r3, [r7, #4]
 800155e:	6a1b      	ldr	r3, [r3, #32]
 8001560:	061b      	lsls	r3, r3, #24
 8001562:	493f      	ldr	r1, [pc, #252]	; (8001660 <HAL_RCC_OscConfig+0x4f8>)
 8001564:	4313      	orrs	r3, r2
 8001566:	60cb      	str	r3, [r1, #12]
 8001568:	e018      	b.n	800159c <HAL_RCC_OscConfig+0x434>
      }
      else
      {
        /* Disable the Internal High Speed oscillator (CSI). */
        __HAL_RCC_CSI_DISABLE();
 800156a:	4b3d      	ldr	r3, [pc, #244]	; (8001660 <HAL_RCC_OscConfig+0x4f8>)
 800156c:	681b      	ldr	r3, [r3, #0]
 800156e:	4a3c      	ldr	r2, [pc, #240]	; (8001660 <HAL_RCC_OscConfig+0x4f8>)
 8001570:	f023 0380 	bic.w	r3, r3, #128	; 0x80
 8001574:	6013      	str	r3, [r2, #0]

        /* Get Start Tick*/
        tickstart = HAL_GetTick();
 8001576:	f7ff fb9f 	bl	8000cb8 <HAL_GetTick>
 800157a:	6278      	str	r0, [r7, #36]	; 0x24

        /* Wait till CSI is disabled */
        while(__HAL_RCC_GET_FLAG(RCC_FLAG_CSIRDY) != 0U)
 800157c:	e008      	b.n	8001590 <HAL_RCC_OscConfig+0x428>
        {
          if((HAL_GetTick() - tickstart ) > CSI_TIMEOUT_VALUE)
 800157e:	f7ff fb9b 	bl	8000cb8 <HAL_GetTick>
 8001582:	4602      	mov	r2, r0
 8001584:	6a7b      	ldr	r3, [r7, #36]	; 0x24
 8001586:	1ad3      	subs	r3, r2, r3
 8001588:	2b02      	cmp	r3, #2
 800158a:	d901      	bls.n	8001590 <HAL_RCC_OscConfig+0x428>
          {
            return HAL_TIMEOUT;
 800158c:	2303      	movs	r3, #3
 800158e:	e212      	b.n	80019b6 <HAL_RCC_OscConfig+0x84e>
        while(__HAL_RCC_GET_FLAG(RCC_FLAG_CSIRDY) != 0U)
 8001590:	4b33      	ldr	r3, [pc, #204]	; (8001660 <HAL_RCC_OscConfig+0x4f8>)
 8001592:	681b      	ldr	r3, [r3, #0]
 8001594:	f403 7380 	and.w	r3, r3, #256	; 0x100
 8001598:	2b00      	cmp	r3, #0
 800159a:	d1f0      	bne.n	800157e <HAL_RCC_OscConfig+0x416>
        }
      }
    }
  }
  /*------------------------------ LSI Configuration -------------------------*/
  if(((RCC_OscInitStruct->OscillatorType) & RCC_OSCILLATORTYPE_LSI) == RCC_OSCILLATORTYPE_LSI)
 800159c:	687b      	ldr	r3, [r7, #4]
 800159e:	681b      	ldr	r3, [r3, #0]
 80015a0:	f003 0308 	and.w	r3, r3, #8
 80015a4:	2b00      	cmp	r3, #0
 80015a6:	d036      	beq.n	8001616 <HAL_RCC_OscConfig+0x4ae>
  {
    /* Check the parameters */
    assert_param(IS_RCC_LSI(RCC_OscInitStruct->LSIState));

    /* Check the LSI State */
    if((RCC_OscInitStruct->LSIState)!= RCC_LSI_OFF)
 80015a8:	687b      	ldr	r3, [r7, #4]
 80015aa:	695b      	ldr	r3, [r3, #20]
 80015ac:	2b00      	cmp	r3, #0
 80015ae:	d019      	beq.n	80015e4 <HAL_RCC_OscConfig+0x47c>
    {
      /* Enable the Internal Low Speed oscillator (LSI). */
      __HAL_RCC_LSI_ENABLE();
 80015b0:	4b2b      	ldr	r3, [pc, #172]	; (8001660 <HAL_RCC_OscConfig+0x4f8>)
 80015b2:	6f5b      	ldr	r3, [r3, #116]	; 0x74
 80015b4:	4a2a      	ldr	r2, [pc, #168]	; (8001660 <HAL_RCC_OscConfig+0x4f8>)
 80015b6:	f043 0301 	orr.w	r3, r3, #1
 80015ba:	6753      	str	r3, [r2, #116]	; 0x74

      /* Get Start Tick*/
      tickstart = HAL_GetTick();
 80015bc:	f7ff fb7c 	bl	8000cb8 <HAL_GetTick>
 80015c0:	6278      	str	r0, [r7, #36]	; 0x24

      /* Wait till LSI is ready */
      while(__HAL_RCC_GET_FLAG(RCC_FLAG_LSIRDY) == 0U)
 80015c2:	e008      	b.n	80015d6 <HAL_RCC_OscConfig+0x46e>
      {
        if((HAL_GetTick() - tickstart ) > LSI_TIMEOUT_VALUE)
 80015c4:	f7ff fb78 	bl	8000cb8 <HAL_GetTick>
 80015c8:	4602      	mov	r2, r0
 80015ca:	6a7b      	ldr	r3, [r7, #36]	; 0x24
 80015cc:	1ad3      	subs	r3, r2, r3
 80015ce:	2b02      	cmp	r3, #2
 80015d0:	d901      	bls.n	80015d6 <HAL_RCC_OscConfig+0x46e>
        {
          return HAL_TIMEOUT;
 80015d2:	2303      	movs	r3, #3
 80015d4:	e1ef      	b.n	80019b6 <HAL_RCC_OscConfig+0x84e>
      while(__HAL_RCC_GET_FLAG(RCC_FLAG_LSIRDY) == 0U)
 80015d6:	4b22      	ldr	r3, [pc, #136]	; (8001660 <HAL_RCC_OscConfig+0x4f8>)
 80015d8:	6f5b      	ldr	r3, [r3, #116]	; 0x74
 80015da:	f003 0302 	and.w	r3, r3, #2
 80015de:	2b00      	cmp	r3, #0
 80015e0:	d0f0      	beq.n	80015c4 <HAL_RCC_OscConfig+0x45c>
 80015e2:	e018      	b.n	8001616 <HAL_RCC_OscConfig+0x4ae>
      }
    }
    else
    {
      /* Disable the Internal Low Speed oscillator (LSI). */
      __HAL_RCC_LSI_DISABLE();
 80015e4:	4b1e      	ldr	r3, [pc, #120]	; (8001660 <HAL_RCC_OscConfig+0x4f8>)
 80015e6:	6f5b      	ldr	r3, [r3, #116]	; 0x74
 80015e8:	4a1d      	ldr	r2, [pc, #116]	; (8001660 <HAL_RCC_OscConfig+0x4f8>)
 80015ea:	f023 0301 	bic.w	r3, r3, #1
 80015ee:	6753      	str	r3, [r2, #116]	; 0x74

      /* Get Start Tick*/
      tickstart = HAL_GetTick();
 80015f0:	f7ff fb62 	bl	8000cb8 <HAL_GetTick>
 80015f4:	6278      	str	r0, [r7, #36]	; 0x24

      /* Wait till LSI is ready */
      while(__HAL_RCC_GET_FLAG(RCC_FLAG_LSIRDY) != 0U)
 80015f6:	e008      	b.n	800160a <HAL_RCC_OscConfig+0x4a2>
      {
        if((HAL_GetTick() - tickstart ) > LSI_TIMEOUT_VALUE)
 80015f8:	f7ff fb5e 	bl	8000cb8 <HAL_GetTick>
 80015fc:	4602      	mov	r2, r0
 80015fe:	6a7b      	ldr	r3, [r7, #36]	; 0x24
 8001600:	1ad3      	subs	r3, r2, r3
 8001602:	2b02      	cmp	r3, #2
 8001604:	d901      	bls.n	800160a <HAL_RCC_OscConfig+0x4a2>
        {
          return HAL_TIMEOUT;
 8001606:	2303      	movs	r3, #3
 8001608:	e1d5      	b.n	80019b6 <HAL_RCC_OscConfig+0x84e>
      while(__HAL_RCC_GET_FLAG(RCC_FLAG_LSIRDY) != 0U)
 800160a:	4b15      	ldr	r3, [pc, #84]	; (8001660 <HAL_RCC_OscConfig+0x4f8>)
 800160c:	6f5b      	ldr	r3, [r3, #116]	; 0x74
 800160e:	f003 0302 	and.w	r3, r3, #2
 8001612:	2b00      	cmp	r3, #0
 8001614:	d1f0      	bne.n	80015f8 <HAL_RCC_OscConfig+0x490>
      }
    }
  }

  /*------------------------------ HSI48 Configuration -------------------------*/
  if(((RCC_OscInitStruct->OscillatorType) & RCC_OSCILLATORTYPE_HSI48) == RCC_OSCILLATORTYPE_HSI48)
 8001616:	687b      	ldr	r3, [r7, #4]
 8001618:	681b      	ldr	r3, [r3, #0]
 800161a:	f003 0320 	and.w	r3, r3, #32
 800161e:	2b00      	cmp	r3, #0
 8001620:	d039      	beq.n	8001696 <HAL_RCC_OscConfig+0x52e>
  {
    /* Check the parameters */
    assert_param(IS_RCC_HSI48(RCC_OscInitStruct->HSI48State));

    /* Check the HSI48 State */
    if((RCC_OscInitStruct->HSI48State)!= RCC_HSI48_OFF)
 8001622:	687b      	ldr	r3, [r7, #4]
 8001624:	699b      	ldr	r3, [r3, #24]
 8001626:	2b00      	cmp	r3, #0
 8001628:	d01c      	beq.n	8001664 <HAL_RCC_OscConfig+0x4fc>
    {
      /* Enable the Internal Low Speed oscillator (HSI48). */
      __HAL_RCC_HSI48_ENABLE();
 800162a:	4b0d      	ldr	r3, [pc, #52]	; (8001660 <HAL_RCC_OscConfig+0x4f8>)
 800162c:	681b      	ldr	r3, [r3, #0]
 800162e:	4a0c      	ldr	r2, [pc, #48]	; (8001660 <HAL_RCC_OscConfig+0x4f8>)
 8001630:	f443 5380 	orr.w	r3, r3, #4096	; 0x1000
 8001634:	6013      	str	r3, [r2, #0]

      /* Get time-out */
      tickstart = HAL_GetTick();
 8001636:	f7ff fb3f 	bl	8000cb8 <HAL_GetTick>
 800163a:	6278      	str	r0, [r7, #36]	; 0x24

      /* Wait till HSI48 is ready */
      while(__HAL_RCC_GET_FLAG(RCC_FLAG_HSI48RDY) == 0U)
 800163c:	e008      	b.n	8001650 <HAL_RCC_OscConfig+0x4e8>
      {
        if((HAL_GetTick() - tickstart ) > HSI48_TIMEOUT_VALUE)
 800163e:	f7ff fb3b 	bl	8000cb8 <HAL_GetTick>
 8001642:	4602      	mov	r2, r0
 8001644:	6a7b      	ldr	r3, [r7, #36]	; 0x24
 8001646:	1ad3      	subs	r3, r2, r3
 8001648:	2b02      	cmp	r3, #2
 800164a:	d901      	bls.n	8001650 <HAL_RCC_OscConfig+0x4e8>
        {
          return HAL_TIMEOUT;
 800164c:	2303      	movs	r3, #3
 800164e:	e1b2      	b.n	80019b6 <HAL_RCC_OscConfig+0x84e>
      while(__HAL_RCC_GET_FLAG(RCC_FLAG_HSI48RDY) == 0U)
 8001650:	4b03      	ldr	r3, [pc, #12]	; (8001660 <HAL_RCC_OscConfig+0x4f8>)
 8001652:	681b      	ldr	r3, [r3, #0]
 8001654:	f403 5300 	and.w	r3, r3, #8192	; 0x2000
 8001658:	2b00      	cmp	r3, #0
 800165a:	d0f0      	beq.n	800163e <HAL_RCC_OscConfig+0x4d6>
 800165c:	e01b      	b.n	8001696 <HAL_RCC_OscConfig+0x52e>
 800165e:	bf00      	nop
 8001660:	58024400 	.word	0x58024400
      }
    }
    else
    {
      /* Disable the Internal Low Speed oscillator (HSI48). */
      __HAL_RCC_HSI48_DISABLE();
 8001664:	4b9b      	ldr	r3, [pc, #620]	; (80018d4 <HAL_RCC_OscConfig+0x76c>)
 8001666:	681b      	ldr	r3, [r3, #0]
 8001668:	4a9a      	ldr	r2, [pc, #616]	; (80018d4 <HAL_RCC_OscConfig+0x76c>)
 800166a:	f423 5380 	bic.w	r3, r3, #4096	; 0x1000
 800166e:	6013      	str	r3, [r2, #0]

      /* Get time-out */
      tickstart = HAL_GetTick();
 8001670:	f7ff fb22 	bl	8000cb8 <HAL_GetTick>
 8001674:	6278      	str	r0, [r7, #36]	; 0x24

      /* Wait till HSI48 is ready */
      while(__HAL_RCC_GET_FLAG(RCC_FLAG_HSI48RDY) != 0U)
 8001676:	e008      	b.n	800168a <HAL_RCC_OscConfig+0x522>
      {
        if((HAL_GetTick() - tickstart ) > HSI48_TIMEOUT_VALUE)
 8001678:	f7ff fb1e 	bl	8000cb8 <HAL_GetTick>
 800167c:	4602      	mov	r2, r0
 800167e:	6a7b      	ldr	r3, [r7, #36]	; 0x24
 8001680:	1ad3      	subs	r3, r2, r3
 8001682:	2b02      	cmp	r3, #2
 8001684:	d901      	bls.n	800168a <HAL_RCC_OscConfig+0x522>
        {
          return HAL_TIMEOUT;
 8001686:	2303      	movs	r3, #3
 8001688:	e195      	b.n	80019b6 <HAL_RCC_OscConfig+0x84e>
      while(__HAL_RCC_GET_FLAG(RCC_FLAG_HSI48RDY) != 0U)
 800168a:	4b92      	ldr	r3, [pc, #584]	; (80018d4 <HAL_RCC_OscConfig+0x76c>)
 800168c:	681b      	ldr	r3, [r3, #0]
 800168e:	f403 5300 	and.w	r3, r3, #8192	; 0x2000
 8001692:	2b00      	cmp	r3, #0
 8001694:	d1f0      	bne.n	8001678 <HAL_RCC_OscConfig+0x510>
        }
      }
    }
  }
  /*------------------------------ LSE Configuration -------------------------*/
  if(((RCC_OscInitStruct->OscillatorType) & RCC_OSCILLATORTYPE_LSE) == RCC_OSCILLATORTYPE_LSE)
 8001696:	687b      	ldr	r3, [r7, #4]
 8001698:	681b      	ldr	r3, [r3, #0]
 800169a:	f003 0304 	and.w	r3, r3, #4
 800169e:	2b00      	cmp	r3, #0
 80016a0:	f000 8081 	beq.w	80017a6 <HAL_RCC_OscConfig+0x63e>
  {
    /* Check the parameters */
    assert_param(IS_RCC_LSE(RCC_OscInitStruct->LSEState));

    /* Enable write access to Backup domain */
    PWR->CR1 |= PWR_CR1_DBP;
 80016a4:	4b8c      	ldr	r3, [pc, #560]	; (80018d8 <HAL_RCC_OscConfig+0x770>)
 80016a6:	681b      	ldr	r3, [r3, #0]
 80016a8:	4a8b      	ldr	r2, [pc, #556]	; (80018d8 <HAL_RCC_OscConfig+0x770>)
 80016aa:	f443 7380 	orr.w	r3, r3, #256	; 0x100
 80016ae:	6013      	str	r3, [r2, #0]

    /* Wait for Backup domain Write protection disable */
    tickstart = HAL_GetTick();
 80016b0:	f7ff fb02 	bl	8000cb8 <HAL_GetTick>
 80016b4:	6278      	str	r0, [r7, #36]	; 0x24

    while((PWR->CR1 & PWR_CR1_DBP) == 0U)
 80016b6:	e008      	b.n	80016ca <HAL_RCC_OscConfig+0x562>
    {
      if((HAL_GetTick() - tickstart ) > RCC_DBP_TIMEOUT_VALUE)
 80016b8:	f7ff fafe 	bl	8000cb8 <HAL_GetTick>
 80016bc:	4602      	mov	r2, r0
 80016be:	6a7b      	ldr	r3, [r7, #36]	; 0x24
 80016c0:	1ad3      	subs	r3, r2, r3
 80016c2:	2b64      	cmp	r3, #100	; 0x64
 80016c4:	d901      	bls.n	80016ca <HAL_RCC_OscConfig+0x562>
      {
        return HAL_TIMEOUT;
 80016c6:	2303      	movs	r3, #3
 80016c8:	e175      	b.n	80019b6 <HAL_RCC_OscConfig+0x84e>
    while((PWR->CR1 & PWR_CR1_DBP) == 0U)
 80016ca:	4b83      	ldr	r3, [pc, #524]	; (80018d8 <HAL_RCC_OscConfig+0x770>)
 80016cc:	681b      	ldr	r3, [r3, #0]
 80016ce:	f403 7380 	and.w	r3, r3, #256	; 0x100
 80016d2:	2b00      	cmp	r3, #0
 80016d4:	d0f0      	beq.n	80016b8 <HAL_RCC_OscConfig+0x550>
      }
    }

    /* Set the new LSE configuration -----------------------------------------*/
    __HAL_RCC_LSE_CONFIG(RCC_OscInitStruct->LSEState);
 80016d6:	687b      	ldr	r3, [r7, #4]
 80016d8:	689b      	ldr	r3, [r3, #8]
 80016da:	2b01      	cmp	r3, #1
 80016dc:	d106      	bne.n	80016ec <HAL_RCC_OscConfig+0x584>
 80016de:	4b7d      	ldr	r3, [pc, #500]	; (80018d4 <HAL_RCC_OscConfig+0x76c>)
 80016e0:	6f1b      	ldr	r3, [r3, #112]	; 0x70
 80016e2:	4a7c      	ldr	r2, [pc, #496]	; (80018d4 <HAL_RCC_OscConfig+0x76c>)
 80016e4:	f043 0301 	orr.w	r3, r3, #1
 80016e8:	6713      	str	r3, [r2, #112]	; 0x70
 80016ea:	e02d      	b.n	8001748 <HAL_RCC_OscConfig+0x5e0>
 80016ec:	687b      	ldr	r3, [r7, #4]
 80016ee:	689b      	ldr	r3, [r3, #8]
 80016f0:	2b00      	cmp	r3, #0
 80016f2:	d10c      	bne.n	800170e <HAL_RCC_OscConfig+0x5a6>
 80016f4:	4b77      	ldr	r3, [pc, #476]	; (80018d4 <HAL_RCC_OscConfig+0x76c>)
 80016f6:	6f1b      	ldr	r3, [r3, #112]	; 0x70
 80016f8:	4a76      	ldr	r2, [pc, #472]	; (80018d4 <HAL_RCC_OscConfig+0x76c>)
 80016fa:	f023 0301 	bic.w	r3, r3, #1
 80016fe:	6713      	str	r3, [r2, #112]	; 0x70
 8001700:	4b74      	ldr	r3, [pc, #464]	; (80018d4 <HAL_RCC_OscConfig+0x76c>)
 8001702:	6f1b      	ldr	r3, [r3, #112]	; 0x70
 8001704:	4a73      	ldr	r2, [pc, #460]	; (80018d4 <HAL_RCC_OscConfig+0x76c>)
 8001706:	f023 0304 	bic.w	r3, r3, #4
 800170a:	6713      	str	r3, [r2, #112]	; 0x70
 800170c:	e01c      	b.n	8001748 <HAL_RCC_OscConfig+0x5e0>
 800170e:	687b      	ldr	r3, [r7, #4]
 8001710:	689b      	ldr	r3, [r3, #8]
 8001712:	2b05      	cmp	r3, #5
 8001714:	d10c      	bne.n	8001730 <HAL_RCC_OscConfig+0x5c8>
 8001716:	4b6f      	ldr	r3, [pc, #444]	; (80018d4 <HAL_RCC_OscConfig+0x76c>)
 8001718:	6f1b      	ldr	r3, [r3, #112]	; 0x70
 800171a:	4a6e      	ldr	r2, [pc, #440]	; (80018d4 <HAL_RCC_OscConfig+0x76c>)
 800171c:	f043 0304 	orr.w	r3, r3, #4
 8001720:	6713      	str	r3, [r2, #112]	; 0x70
 8001722:	4b6c      	ldr	r3, [pc, #432]	; (80018d4 <HAL_RCC_OscConfig+0x76c>)
 8001724:	6f1b      	ldr	r3, [r3, #112]	; 0x70
 8001726:	4a6b      	ldr	r2, [pc, #428]	; (80018d4 <HAL_RCC_OscConfig+0x76c>)
 8001728:	f043 0301 	orr.w	r3, r3, #1
 800172c:	6713      	str	r3, [r2, #112]	; 0x70
 800172e:	e00b      	b.n	8001748 <HAL_RCC_OscConfig+0x5e0>
 8001730:	4b68      	ldr	r3, [pc, #416]	; (80018d4 <HAL_RCC_OscConfig+0x76c>)
 8001732:	6f1b      	ldr	r3, [r3, #112]	; 0x70
 8001734:	4a67      	ldr	r2, [pc, #412]	; (80018d4 <HAL_RCC_OscConfig+0x76c>)
 8001736:	f023 0301 	bic.w	r3, r3, #1
 800173a:	6713      	str	r3, [r2, #112]	; 0x70
 800173c:	4b65      	ldr	r3, [pc, #404]	; (80018d4 <HAL_RCC_OscConfig+0x76c>)
 800173e:	6f1b      	ldr	r3, [r3, #112]	; 0x70
 8001740:	4a64      	ldr	r2, [pc, #400]	; (80018d4 <HAL_RCC_OscConfig+0x76c>)
 8001742:	f023 0304 	bic.w	r3, r3, #4
 8001746:	6713      	str	r3, [r2, #112]	; 0x70
    /* Check the LSE State */
    if((RCC_OscInitStruct->LSEState) != RCC_LSE_OFF)
 8001748:	687b      	ldr	r3, [r7, #4]
 800174a:	689b      	ldr	r3, [r3, #8]
 800174c:	2b00      	cmp	r3, #0
 800174e:	d015      	beq.n	800177c <HAL_RCC_OscConfig+0x614>
    {
      /* Get Start Tick*/
      tickstart = HAL_GetTick();
 8001750:	f7ff fab2 	bl	8000cb8 <HAL_GetTick>
 8001754:	6278      	str	r0, [r7, #36]	; 0x24

      /* Wait till LSE is ready */
      while(__HAL_RCC_GET_FLAG(RCC_FLAG_LSERDY) == 0U)
 8001756:	e00a      	b.n	800176e <HAL_RCC_OscConfig+0x606>
      {
        if((HAL_GetTick() - tickstart ) > RCC_LSE_TIMEOUT_VALUE)
 8001758:	f7ff faae 	bl	8000cb8 <HAL_GetTick>
 800175c:	4602      	mov	r2, r0
 800175e:	6a7b      	ldr	r3, [r7, #36]	; 0x24
 8001760:	1ad3      	subs	r3, r2, r3
 8001762:	f241 3288 	movw	r2, #5000	; 0x1388
 8001766:	4293      	cmp	r3, r2
 8001768:	d901      	bls.n	800176e <HAL_RCC_OscConfig+0x606>
        {
          return HAL_TIMEOUT;
 800176a:	2303      	movs	r3, #3
 800176c:	e123      	b.n	80019b6 <HAL_RCC_OscConfig+0x84e>
      while(__HAL_RCC_GET_FLAG(RCC_FLAG_LSERDY) == 0U)
 800176e:	4b59      	ldr	r3, [pc, #356]	; (80018d4 <HAL_RCC_OscConfig+0x76c>)
 8001770:	6f1b      	ldr	r3, [r3, #112]	; 0x70
 8001772:	f003 0302 	and.w	r3, r3, #2
 8001776:	2b00      	cmp	r3, #0
 8001778:	d0ee      	beq.n	8001758 <HAL_RCC_OscConfig+0x5f0>
 800177a:	e014      	b.n	80017a6 <HAL_RCC_OscConfig+0x63e>
      }
    }
    else
    {
      /* Get Start Tick*/
      tickstart = HAL_GetTick();
 800177c:	f7ff fa9c 	bl	8000cb8 <HAL_GetTick>
 8001780:	6278      	str	r0, [r7, #36]	; 0x24

      /* Wait till LSE is disabled */
      while(__HAL_RCC_GET_FLAG(RCC_FLAG_LSERDY) != 0U)
 8001782:	e00a      	b.n	800179a <HAL_RCC_OscConfig+0x632>
      {
        if((HAL_GetTick() - tickstart ) > RCC_LSE_TIMEOUT_VALUE)
 8001784:	f7ff fa98 	bl	8000cb8 <HAL_GetTick>
 8001788:	4602      	mov	r2, r0
 800178a:	6a7b      	ldr	r3, [r7, #36]	; 0x24
 800178c:	1ad3      	subs	r3, r2, r3
 800178e:	f241 3288 	movw	r2, #5000	; 0x1388
 8001792:	4293      	cmp	r3, r2
 8001794:	d901      	bls.n	800179a <HAL_RCC_OscConfig+0x632>
        {
          return HAL_TIMEOUT;
 8001796:	2303      	movs	r3, #3
 8001798:	e10d      	b.n	80019b6 <HAL_RCC_OscConfig+0x84e>
      while(__HAL_RCC_GET_FLAG(RCC_FLAG_LSERDY) != 0U)
 800179a:	4b4e      	ldr	r3, [pc, #312]	; (80018d4 <HAL_RCC_OscConfig+0x76c>)
 800179c:	6f1b      	ldr	r3, [r3, #112]	; 0x70
 800179e:	f003 0302 	and.w	r3, r3, #2
 80017a2:	2b00      	cmp	r3, #0
 80017a4:	d1ee      	bne.n	8001784 <HAL_RCC_OscConfig+0x61c>
    }
  }
  /*-------------------------------- PLL Configuration -----------------------*/
  /* Check the parameters */
  assert_param(IS_RCC_PLL(RCC_OscInitStruct->PLL.PLLState));
  if ((RCC_OscInitStruct->PLL.PLLState) != RCC_PLL_NONE)
 80017a6:	687b      	ldr	r3, [r7, #4]
 80017a8:	6a5b      	ldr	r3, [r3, #36]	; 0x24
 80017aa:	2b00      	cmp	r3, #0
 80017ac:	f000 8102 	beq.w	80019b4 <HAL_RCC_OscConfig+0x84c>
  {
    /* Check if the PLL is used as system clock or not */
    if(__HAL_RCC_GET_SYSCLK_SOURCE() != RCC_CFGR_SWS_PLL1)
 80017b0:	4b48      	ldr	r3, [pc, #288]	; (80018d4 <HAL_RCC_OscConfig+0x76c>)
 80017b2:	691b      	ldr	r3, [r3, #16]
 80017b4:	f003 0338 	and.w	r3, r3, #56	; 0x38
 80017b8:	2b18      	cmp	r3, #24
 80017ba:	f000 80bd 	beq.w	8001938 <HAL_RCC_OscConfig+0x7d0>
    {
      if((RCC_OscInitStruct->PLL.PLLState) == RCC_PLL_ON)
 80017be:	687b      	ldr	r3, [r7, #4]
 80017c0:	6a5b      	ldr	r3, [r3, #36]	; 0x24
 80017c2:	2b02      	cmp	r3, #2
 80017c4:	f040 809e 	bne.w	8001904 <HAL_RCC_OscConfig+0x79c>
        assert_param(IS_RCC_PLLQ_VALUE(RCC_OscInitStruct->PLL.PLLQ));
        assert_param(IS_RCC_PLLR_VALUE(RCC_OscInitStruct->PLL.PLLR));
        assert_param(IS_RCC_PLLFRACN_VALUE(RCC_OscInitStruct->PLL.PLLFRACN));

        /* Disable the main PLL. */
        __HAL_RCC_PLL_DISABLE();
 80017c8:	4b42      	ldr	r3, [pc, #264]	; (80018d4 <HAL_RCC_OscConfig+0x76c>)
 80017ca:	681b      	ldr	r3, [r3, #0]
 80017cc:	4a41      	ldr	r2, [pc, #260]	; (80018d4 <HAL_RCC_OscConfig+0x76c>)
 80017ce:	f023 7380 	bic.w	r3, r3, #16777216	; 0x1000000
 80017d2:	6013      	str	r3, [r2, #0]

        /* Get Start Tick*/
        tickstart = HAL_GetTick();
 80017d4:	f7ff fa70 	bl	8000cb8 <HAL_GetTick>
 80017d8:	6278      	str	r0, [r7, #36]	; 0x24

        /* Wait till PLL is disabled */
        while(__HAL_RCC_GET_FLAG(RCC_FLAG_PLLRDY) != 0U)
 80017da:	e008      	b.n	80017ee <HAL_RCC_OscConfig+0x686>
        {
          if((HAL_GetTick() - tickstart ) > PLL_TIMEOUT_VALUE)
 80017dc:	f7ff fa6c 	bl	8000cb8 <HAL_GetTick>
 80017e0:	4602      	mov	r2, r0
 80017e2:	6a7b      	ldr	r3, [r7, #36]	; 0x24
 80017e4:	1ad3      	subs	r3, r2, r3
 80017e6:	2b02      	cmp	r3, #2
 80017e8:	d901      	bls.n	80017ee <HAL_RCC_OscConfig+0x686>
          {
            return HAL_TIMEOUT;
 80017ea:	2303      	movs	r3, #3
 80017ec:	e0e3      	b.n	80019b6 <HAL_RCC_OscConfig+0x84e>
        while(__HAL_RCC_GET_FLAG(RCC_FLAG_PLLRDY) != 0U)
 80017ee:	4b39      	ldr	r3, [pc, #228]	; (80018d4 <HAL_RCC_OscConfig+0x76c>)
 80017f0:	681b      	ldr	r3, [r3, #0]
 80017f2:	f003 7300 	and.w	r3, r3, #33554432	; 0x2000000
 80017f6:	2b00      	cmp	r3, #0
 80017f8:	d1f0      	bne.n	80017dc <HAL_RCC_OscConfig+0x674>
          }
        }

        /* Configure the main PLL clock source, multiplication and division factors. */
        __HAL_RCC_PLL_CONFIG(RCC_OscInitStruct->PLL.PLLSource,
 80017fa:	4b36      	ldr	r3, [pc, #216]	; (80018d4 <HAL_RCC_OscConfig+0x76c>)
 80017fc:	6a9a      	ldr	r2, [r3, #40]	; 0x28
 80017fe:	4b37      	ldr	r3, [pc, #220]	; (80018dc <HAL_RCC_OscConfig+0x774>)
 8001800:	4013      	ands	r3, r2
 8001802:	687a      	ldr	r2, [r7, #4]
 8001804:	6a91      	ldr	r1, [r2, #40]	; 0x28
 8001806:	687a      	ldr	r2, [r7, #4]
 8001808:	6ad2      	ldr	r2, [r2, #44]	; 0x2c
 800180a:	0112      	lsls	r2, r2, #4
 800180c:	430a      	orrs	r2, r1
 800180e:	4931      	ldr	r1, [pc, #196]	; (80018d4 <HAL_RCC_OscConfig+0x76c>)
 8001810:	4313      	orrs	r3, r2
 8001812:	628b      	str	r3, [r1, #40]	; 0x28
 8001814:	687b      	ldr	r3, [r7, #4]
 8001816:	6b1b      	ldr	r3, [r3, #48]	; 0x30
 8001818:	3b01      	subs	r3, #1
 800181a:	f3c3 0208 	ubfx	r2, r3, #0, #9
 800181e:	687b      	ldr	r3, [r7, #4]
 8001820:	6b5b      	ldr	r3, [r3, #52]	; 0x34
 8001822:	3b01      	subs	r3, #1
 8001824:	025b      	lsls	r3, r3, #9
 8001826:	b29b      	uxth	r3, r3
 8001828:	431a      	orrs	r2, r3
 800182a:	687b      	ldr	r3, [r7, #4]
 800182c:	6b9b      	ldr	r3, [r3, #56]	; 0x38
 800182e:	3b01      	subs	r3, #1
 8001830:	041b      	lsls	r3, r3, #16
 8001832:	f403 03fe 	and.w	r3, r3, #8323072	; 0x7f0000
 8001836:	431a      	orrs	r2, r3
 8001838:	687b      	ldr	r3, [r7, #4]
 800183a:	6bdb      	ldr	r3, [r3, #60]	; 0x3c
 800183c:	3b01      	subs	r3, #1
 800183e:	061b      	lsls	r3, r3, #24
 8001840:	f003 43fe 	and.w	r3, r3, #2130706432	; 0x7f000000
 8001844:	4923      	ldr	r1, [pc, #140]	; (80018d4 <HAL_RCC_OscConfig+0x76c>)
 8001846:	4313      	orrs	r3, r2
 8001848:	630b      	str	r3, [r1, #48]	; 0x30
                             RCC_OscInitStruct->PLL.PLLP,
                             RCC_OscInitStruct->PLL.PLLQ,
                             RCC_OscInitStruct->PLL.PLLR);

         /* Disable PLLFRACN . */
         __HAL_RCC_PLLFRACN_DISABLE();
 800184a:	4b22      	ldr	r3, [pc, #136]	; (80018d4 <HAL_RCC_OscConfig+0x76c>)
 800184c:	6adb      	ldr	r3, [r3, #44]	; 0x2c
 800184e:	4a21      	ldr	r2, [pc, #132]	; (80018d4 <HAL_RCC_OscConfig+0x76c>)
 8001850:	f023 0301 	bic.w	r3, r3, #1
 8001854:	62d3      	str	r3, [r2, #44]	; 0x2c

         /* Configure PLL PLL1FRACN */
         __HAL_RCC_PLLFRACN_CONFIG(RCC_OscInitStruct->PLL.PLLFRACN);
 8001856:	4b1f      	ldr	r3, [pc, #124]	; (80018d4 <HAL_RCC_OscConfig+0x76c>)
 8001858:	6b5a      	ldr	r2, [r3, #52]	; 0x34
 800185a:	4b21      	ldr	r3, [pc, #132]	; (80018e0 <HAL_RCC_OscConfig+0x778>)
 800185c:	4013      	ands	r3, r2
 800185e:	687a      	ldr	r2, [r7, #4]
 8001860:	6c92      	ldr	r2, [r2, #72]	; 0x48
 8001862:	00d2      	lsls	r2, r2, #3
 8001864:	491b      	ldr	r1, [pc, #108]	; (80018d4 <HAL_RCC_OscConfig+0x76c>)
 8001866:	4313      	orrs	r3, r2
 8001868:	634b      	str	r3, [r1, #52]	; 0x34

        /* Select PLL1 input reference frequency range: VCI */
        __HAL_RCC_PLL_VCIRANGE(RCC_OscInitStruct->PLL.PLLRGE) ;
 800186a:	4b1a      	ldr	r3, [pc, #104]	; (80018d4 <HAL_RCC_OscConfig+0x76c>)
 800186c:	6adb      	ldr	r3, [r3, #44]	; 0x2c
 800186e:	f023 020c 	bic.w	r2, r3, #12
 8001872:	687b      	ldr	r3, [r7, #4]
 8001874:	6c1b      	ldr	r3, [r3, #64]	; 0x40
 8001876:	4917      	ldr	r1, [pc, #92]	; (80018d4 <HAL_RCC_OscConfig+0x76c>)
 8001878:	4313      	orrs	r3, r2
 800187a:	62cb      	str	r3, [r1, #44]	; 0x2c

        /* Select PLL1 output frequency range : VCO */
        __HAL_RCC_PLL_VCORANGE(RCC_OscInitStruct->PLL.PLLVCOSEL) ;
 800187c:	4b15      	ldr	r3, [pc, #84]	; (80018d4 <HAL_RCC_OscConfig+0x76c>)
 800187e:	6adb      	ldr	r3, [r3, #44]	; 0x2c
 8001880:	f023 0202 	bic.w	r2, r3, #2
 8001884:	687b      	ldr	r3, [r7, #4]
 8001886:	6c5b      	ldr	r3, [r3, #68]	; 0x44
 8001888:	4912      	ldr	r1, [pc, #72]	; (80018d4 <HAL_RCC_OscConfig+0x76c>)
 800188a:	4313      	orrs	r3, r2
 800188c:	62cb      	str	r3, [r1, #44]	; 0x2c

        /* Enable PLL System Clock output. */
         __HAL_RCC_PLLCLKOUT_ENABLE(RCC_PLL1_DIVP);
 800188e:	4b11      	ldr	r3, [pc, #68]	; (80018d4 <HAL_RCC_OscConfig+0x76c>)
 8001890:	6adb      	ldr	r3, [r3, #44]	; 0x2c
 8001892:	4a10      	ldr	r2, [pc, #64]	; (80018d4 <HAL_RCC_OscConfig+0x76c>)
 8001894:	f443 3380 	orr.w	r3, r3, #65536	; 0x10000
 8001898:	62d3      	str	r3, [r2, #44]	; 0x2c

        /* Enable PLL1Q Clock output. */
         __HAL_RCC_PLLCLKOUT_ENABLE(RCC_PLL1_DIVQ);
 800189a:	4b0e      	ldr	r3, [pc, #56]	; (80018d4 <HAL_RCC_OscConfig+0x76c>)
 800189c:	6adb      	ldr	r3, [r3, #44]	; 0x2c
 800189e:	4a0d      	ldr	r2, [pc, #52]	; (80018d4 <HAL_RCC_OscConfig+0x76c>)
 80018a0:	f443 3300 	orr.w	r3, r3, #131072	; 0x20000
 80018a4:	62d3      	str	r3, [r2, #44]	; 0x2c

        /* Enable PLL1R  Clock output. */
         __HAL_RCC_PLLCLKOUT_ENABLE(RCC_PLL1_DIVR);
 80018a6:	4b0b      	ldr	r3, [pc, #44]	; (80018d4 <HAL_RCC_OscConfig+0x76c>)
 80018a8:	6adb      	ldr	r3, [r3, #44]	; 0x2c
 80018aa:	4a0a      	ldr	r2, [pc, #40]	; (80018d4 <HAL_RCC_OscConfig+0x76c>)
 80018ac:	f443 2380 	orr.w	r3, r3, #262144	; 0x40000
 80018b0:	62d3      	str	r3, [r2, #44]	; 0x2c

        /* Enable PLL1FRACN . */
         __HAL_RCC_PLLFRACN_ENABLE();
 80018b2:	4b08      	ldr	r3, [pc, #32]	; (80018d4 <HAL_RCC_OscConfig+0x76c>)
 80018b4:	6adb      	ldr	r3, [r3, #44]	; 0x2c
 80018b6:	4a07      	ldr	r2, [pc, #28]	; (80018d4 <HAL_RCC_OscConfig+0x76c>)
 80018b8:	f043 0301 	orr.w	r3, r3, #1
 80018bc:	62d3      	str	r3, [r2, #44]	; 0x2c

        /* Enable the main PLL. */
        __HAL_RCC_PLL_ENABLE();
 80018be:	4b05      	ldr	r3, [pc, #20]	; (80018d4 <HAL_RCC_OscConfig+0x76c>)
 80018c0:	681b      	ldr	r3, [r3, #0]
 80018c2:	4a04      	ldr	r2, [pc, #16]	; (80018d4 <HAL_RCC_OscConfig+0x76c>)
 80018c4:	f043 7380 	orr.w	r3, r3, #16777216	; 0x1000000
 80018c8:	6013      	str	r3, [r2, #0]

        /* Get Start Tick*/
        tickstart = HAL_GetTick();
 80018ca:	f7ff f9f5 	bl	8000cb8 <HAL_GetTick>
 80018ce:	6278      	str	r0, [r7, #36]	; 0x24

        /* Wait till PLL is ready */
        while(__HAL_RCC_GET_FLAG(RCC_FLAG_PLLRDY) == 0U)
 80018d0:	e011      	b.n	80018f6 <HAL_RCC_OscConfig+0x78e>
 80018d2:	bf00      	nop
 80018d4:	58024400 	.word	0x58024400
 80018d8:	58024800 	.word	0x58024800
 80018dc:	fffffc0c 	.word	0xfffffc0c
 80018e0:	ffff0007 	.word	0xffff0007
        {
          if((HAL_GetTick() - tickstart ) > PLL_TIMEOUT_VALUE)
 80018e4:	f7ff f9e8 	bl	8000cb8 <HAL_GetTick>
 80018e8:	4602      	mov	r2, r0
 80018ea:	6a7b      	ldr	r3, [r7, #36]	; 0x24
 80018ec:	1ad3      	subs	r3, r2, r3
 80018ee:	2b02      	cmp	r3, #2
 80018f0:	d901      	bls.n	80018f6 <HAL_RCC_OscConfig+0x78e>
          {
            return HAL_TIMEOUT;
 80018f2:	2303      	movs	r3, #3
 80018f4:	e05f      	b.n	80019b6 <HAL_RCC_OscConfig+0x84e>
        while(__HAL_RCC_GET_FLAG(RCC_FLAG_PLLRDY) == 0U)
 80018f6:	4b32      	ldr	r3, [pc, #200]	; (80019c0 <HAL_RCC_OscConfig+0x858>)
 80018f8:	681b      	ldr	r3, [r3, #0]
 80018fa:	f003 7300 	and.w	r3, r3, #33554432	; 0x2000000
 80018fe:	2b00      	cmp	r3, #0
 8001900:	d0f0      	beq.n	80018e4 <HAL_RCC_OscConfig+0x77c>
 8001902:	e057      	b.n	80019b4 <HAL_RCC_OscConfig+0x84c>
        }
      }
      else
      {
        /* Disable the main PLL. */
        __HAL_RCC_PLL_DISABLE();
 8001904:	4b2e      	ldr	r3, [pc, #184]	; (80019c0 <HAL_RCC_OscConfig+0x858>)
 8001906:	681b      	ldr	r3, [r3, #0]
 8001908:	4a2d      	ldr	r2, [pc, #180]	; (80019c0 <HAL_RCC_OscConfig+0x858>)
 800190a:	f023 7380 	bic.w	r3, r3, #16777216	; 0x1000000
 800190e:	6013      	str	r3, [r2, #0]

        /* Get Start Tick*/
        tickstart = HAL_GetTick();
 8001910:	f7ff f9d2 	bl	8000cb8 <HAL_GetTick>
 8001914:	6278      	str	r0, [r7, #36]	; 0x24

        /* Wait till PLL is disabled */
        while(__HAL_RCC_GET_FLAG(RCC_FLAG_PLLRDY) != 0U)
 8001916:	e008      	b.n	800192a <HAL_RCC_OscConfig+0x7c2>
        {
          if((HAL_GetTick() - tickstart ) > PLL_TIMEOUT_VALUE)
 8001918:	f7ff f9ce 	bl	8000cb8 <HAL_GetTick>
 800191c:	4602      	mov	r2, r0
 800191e:	6a7b      	ldr	r3, [r7, #36]	; 0x24
 8001920:	1ad3      	subs	r3, r2, r3
 8001922:	2b02      	cmp	r3, #2
 8001924:	d901      	bls.n	800192a <HAL_RCC_OscConfig+0x7c2>
          {
            return HAL_TIMEOUT;
 8001926:	2303      	movs	r3, #3
 8001928:	e045      	b.n	80019b6 <HAL_RCC_OscConfig+0x84e>
        while(__HAL_RCC_GET_FLAG(RCC_FLAG_PLLRDY) != 0U)
 800192a:	4b25      	ldr	r3, [pc, #148]	; (80019c0 <HAL_RCC_OscConfig+0x858>)
 800192c:	681b      	ldr	r3, [r3, #0]
 800192e:	f003 7300 	and.w	r3, r3, #33554432	; 0x2000000
 8001932:	2b00      	cmp	r3, #0
 8001934:	d1f0      	bne.n	8001918 <HAL_RCC_OscConfig+0x7b0>
 8001936:	e03d      	b.n	80019b4 <HAL_RCC_OscConfig+0x84c>
      }
    }
    else
    {
      /* Do not return HAL_ERROR if request repeats the current configuration */
      temp1_pllckcfg = RCC->PLLCKSELR;
 8001938:	4b21      	ldr	r3, [pc, #132]	; (80019c0 <HAL_RCC_OscConfig+0x858>)
 800193a:	6a9b      	ldr	r3, [r3, #40]	; 0x28
 800193c:	613b      	str	r3, [r7, #16]
      temp2_pllckcfg = RCC->PLL1DIVR;
 800193e:	4b20      	ldr	r3, [pc, #128]	; (80019c0 <HAL_RCC_OscConfig+0x858>)
 8001940:	6b1b      	ldr	r3, [r3, #48]	; 0x30
 8001942:	60fb      	str	r3, [r7, #12]
      if(((RCC_OscInitStruct->PLL.PLLState) == RCC_PLL_OFF) ||
 8001944:	687b      	ldr	r3, [r7, #4]
 8001946:	6a5b      	ldr	r3, [r3, #36]	; 0x24
 8001948:	2b01      	cmp	r3, #1
 800194a:	d031      	beq.n	80019b0 <HAL_RCC_OscConfig+0x848>
	 (READ_BIT(temp1_pllckcfg, RCC_PLLCKSELR_PLLSRC) != RCC_OscInitStruct->PLL.PLLSource) ||
 800194c:	693b      	ldr	r3, [r7, #16]
 800194e:	f003 0203 	and.w	r2, r3, #3
 8001952:	687b      	ldr	r3, [r7, #4]
 8001954:	6a9b      	ldr	r3, [r3, #40]	; 0x28
      if(((RCC_OscInitStruct->PLL.PLLState) == RCC_PLL_OFF) ||
 8001956:	429a      	cmp	r2, r3
 8001958:	d12a      	bne.n	80019b0 <HAL_RCC_OscConfig+0x848>
         ((READ_BIT(temp1_pllckcfg, RCC_PLLCKSELR_DIVM1) >> RCC_PLLCKSELR_DIVM1_Pos) != RCC_OscInitStruct->PLL.PLLM) ||
 800195a:	693b      	ldr	r3, [r7, #16]
 800195c:	091b      	lsrs	r3, r3, #4
 800195e:	f003 023f 	and.w	r2, r3, #63	; 0x3f
 8001962:	687b      	ldr	r3, [r7, #4]
 8001964:	6adb      	ldr	r3, [r3, #44]	; 0x2c
	 (READ_BIT(temp1_pllckcfg, RCC_PLLCKSELR_PLLSRC) != RCC_OscInitStruct->PLL.PLLSource) ||
 8001966:	429a      	cmp	r2, r3
 8001968:	d122      	bne.n	80019b0 <HAL_RCC_OscConfig+0x848>
         (READ_BIT(temp2_pllckcfg, RCC_PLL1DIVR_N1) != (RCC_OscInitStruct->PLL.PLLN - 1U)) ||
 800196a:	68fb      	ldr	r3, [r7, #12]
 800196c:	f3c3 0208 	ubfx	r2, r3, #0, #9
 8001970:	687b      	ldr	r3, [r7, #4]
 8001972:	6b1b      	ldr	r3, [r3, #48]	; 0x30
 8001974:	3b01      	subs	r3, #1
         ((READ_BIT(temp1_pllckcfg, RCC_PLLCKSELR_DIVM1) >> RCC_PLLCKSELR_DIVM1_Pos) != RCC_OscInitStruct->PLL.PLLM) ||
 8001976:	429a      	cmp	r2, r3
 8001978:	d11a      	bne.n	80019b0 <HAL_RCC_OscConfig+0x848>
         ((READ_BIT(temp2_pllckcfg, RCC_PLL1DIVR_P1) >> RCC_PLL1DIVR_P1_Pos) != (RCC_OscInitStruct->PLL.PLLP - 1U)) ||
 800197a:	68fb      	ldr	r3, [r7, #12]
 800197c:	0a5b      	lsrs	r3, r3, #9
 800197e:	f003 027f 	and.w	r2, r3, #127	; 0x7f
 8001982:	687b      	ldr	r3, [r7, #4]
 8001984:	6b5b      	ldr	r3, [r3, #52]	; 0x34
 8001986:	3b01      	subs	r3, #1
         (READ_BIT(temp2_pllckcfg, RCC_PLL1DIVR_N1) != (RCC_OscInitStruct->PLL.PLLN - 1U)) ||
 8001988:	429a      	cmp	r2, r3
 800198a:	d111      	bne.n	80019b0 <HAL_RCC_OscConfig+0x848>
         ((READ_BIT(temp2_pllckcfg, RCC_PLL1DIVR_Q1) >> RCC_PLL1DIVR_Q1_Pos) != (RCC_OscInitStruct->PLL.PLLQ - 1U)) ||
 800198c:	68fb      	ldr	r3, [r7, #12]
 800198e:	0c1b      	lsrs	r3, r3, #16
 8001990:	f003 027f 	and.w	r2, r3, #127	; 0x7f
 8001994:	687b      	ldr	r3, [r7, #4]
 8001996:	6b9b      	ldr	r3, [r3, #56]	; 0x38
 8001998:	3b01      	subs	r3, #1
         ((READ_BIT(temp2_pllckcfg, RCC_PLL1DIVR_P1) >> RCC_PLL1DIVR_P1_Pos) != (RCC_OscInitStruct->PLL.PLLP - 1U)) ||
 800199a:	429a      	cmp	r2, r3
 800199c:	d108      	bne.n	80019b0 <HAL_RCC_OscConfig+0x848>
         ((READ_BIT(temp2_pllckcfg, RCC_PLL1DIVR_R1) >> RCC_PLL1DIVR_R1_Pos) != (RCC_OscInitStruct->PLL.PLLR - 1U)))
 800199e:	68fb      	ldr	r3, [r7, #12]
 80019a0:	0e1b      	lsrs	r3, r3, #24
 80019a2:	f003 027f 	and.w	r2, r3, #127	; 0x7f
 80019a6:	687b      	ldr	r3, [r7, #4]
 80019a8:	6bdb      	ldr	r3, [r3, #60]	; 0x3c
 80019aa:	3b01      	subs	r3, #1
         ((READ_BIT(temp2_pllckcfg, RCC_PLL1DIVR_Q1) >> RCC_PLL1DIVR_Q1_Pos) != (RCC_OscInitStruct->PLL.PLLQ - 1U)) ||
 80019ac:	429a      	cmp	r2, r3
 80019ae:	d001      	beq.n	80019b4 <HAL_RCC_OscConfig+0x84c>
      {
        return HAL_ERROR;
 80019b0:	2301      	movs	r3, #1
 80019b2:	e000      	b.n	80019b6 <HAL_RCC_OscConfig+0x84e>
      }
    }
  }
  return HAL_OK;
 80019b4:	2300      	movs	r3, #0
}
 80019b6:	4618      	mov	r0, r3
 80019b8:	3730      	adds	r7, #48	; 0x30
 80019ba:	46bd      	mov	sp, r7
 80019bc:	bd80      	pop	{r7, pc}
 80019be:	bf00      	nop
 80019c0:	58024400 	.word	0x58024400

080019c4 <HAL_RCC_ClockConfig>:
  *         D1CPRE[3:0] bits to ensure that  Domain1 core clock not exceed the maximum allowed frequency
  *         (for more details refer to section above "Initialization/de-initialization functions")
  * @retval None
  */
HAL_StatusTypeDef HAL_RCC_ClockConfig(RCC_ClkInitTypeDef  *RCC_ClkInitStruct, uint32_t FLatency)
{
 80019c4:	b580      	push	{r7, lr}
 80019c6:	b086      	sub	sp, #24
 80019c8:	af00      	add	r7, sp, #0
 80019ca:	6078      	str	r0, [r7, #4]
 80019cc:	6039      	str	r1, [r7, #0]
  HAL_StatusTypeDef halstatus;
  uint32_t tickstart;
  uint32_t common_system_clock;

   /* Check Null pointer */
  if(RCC_ClkInitStruct == NULL)
 80019ce:	687b      	ldr	r3, [r7, #4]
 80019d0:	2b00      	cmp	r3, #0
 80019d2:	d101      	bne.n	80019d8 <HAL_RCC_ClockConfig+0x14>
  {
    return HAL_ERROR;
 80019d4:	2301      	movs	r3, #1
 80019d6:	e19c      	b.n	8001d12 <HAL_RCC_ClockConfig+0x34e>
  /* To correctly read data from FLASH memory, the number of wait states (LATENCY)
    must be correctly programmed according to the frequency of the CPU clock
    (HCLK) and the supply voltage of the device. */

  /* Increasing the CPU frequency */
  if(FLatency > __HAL_FLASH_GET_LATENCY())
 80019d8:	4b8a      	ldr	r3, [pc, #552]	; (8001c04 <HAL_RCC_ClockConfig+0x240>)
 80019da:	681b      	ldr	r3, [r3, #0]
 80019dc:	f003 030f 	and.w	r3, r3, #15
 80019e0:	683a      	ldr	r2, [r7, #0]
 80019e2:	429a      	cmp	r2, r3
 80019e4:	d910      	bls.n	8001a08 <HAL_RCC_ClockConfig+0x44>
  {
    /* Program the new number of wait states to the LATENCY bits in the FLASH_ACR register */
    __HAL_FLASH_SET_LATENCY(FLatency);
 80019e6:	4b87      	ldr	r3, [pc, #540]	; (8001c04 <HAL_RCC_ClockConfig+0x240>)
 80019e8:	681b      	ldr	r3, [r3, #0]
 80019ea:	f023 020f 	bic.w	r2, r3, #15
 80019ee:	4985      	ldr	r1, [pc, #532]	; (8001c04 <HAL_RCC_ClockConfig+0x240>)
 80019f0:	683b      	ldr	r3, [r7, #0]
 80019f2:	4313      	orrs	r3, r2
 80019f4:	600b      	str	r3, [r1, #0]

    /* Check that the new number of wait states is taken into account to access the Flash
    memory by reading the FLASH_ACR register */
    if(__HAL_FLASH_GET_LATENCY() != FLatency)
 80019f6:	4b83      	ldr	r3, [pc, #524]	; (8001c04 <HAL_RCC_ClockConfig+0x240>)
 80019f8:	681b      	ldr	r3, [r3, #0]
 80019fa:	f003 030f 	and.w	r3, r3, #15
 80019fe:	683a      	ldr	r2, [r7, #0]
 8001a00:	429a      	cmp	r2, r3
 8001a02:	d001      	beq.n	8001a08 <HAL_RCC_ClockConfig+0x44>
    {
      return HAL_ERROR;
 8001a04:	2301      	movs	r3, #1
 8001a06:	e184      	b.n	8001d12 <HAL_RCC_ClockConfig+0x34e>

  }

  /* Increasing the BUS frequency divider */
  /*-------------------------- D1PCLK1/CDPCLK1 Configuration ---------------------------*/
  if(((RCC_ClkInitStruct->ClockType) & RCC_CLOCKTYPE_D1PCLK1) == RCC_CLOCKTYPE_D1PCLK1)
 8001a08:	687b      	ldr	r3, [r7, #4]
 8001a0a:	681b      	ldr	r3, [r3, #0]
 8001a0c:	f003 0304 	and.w	r3, r3, #4
 8001a10:	2b00      	cmp	r3, #0
 8001a12:	d010      	beq.n	8001a36 <HAL_RCC_ClockConfig+0x72>
  {
#if defined (RCC_D1CFGR_D1PPRE)
    if((RCC_ClkInitStruct->APB3CLKDivider) > (RCC->D1CFGR & RCC_D1CFGR_D1PPRE))
 8001a14:	687b      	ldr	r3, [r7, #4]
 8001a16:	691a      	ldr	r2, [r3, #16]
 8001a18:	4b7b      	ldr	r3, [pc, #492]	; (8001c08 <HAL_RCC_ClockConfig+0x244>)
 8001a1a:	699b      	ldr	r3, [r3, #24]
 8001a1c:	f003 0370 	and.w	r3, r3, #112	; 0x70
 8001a20:	429a      	cmp	r2, r3
 8001a22:	d908      	bls.n	8001a36 <HAL_RCC_ClockConfig+0x72>
    {
      assert_param(IS_RCC_D1PCLK1(RCC_ClkInitStruct->APB3CLKDivider));
      MODIFY_REG(RCC->D1CFGR, RCC_D1CFGR_D1PPRE, RCC_ClkInitStruct->APB3CLKDivider);
 8001a24:	4b78      	ldr	r3, [pc, #480]	; (8001c08 <HAL_RCC_ClockConfig+0x244>)
 8001a26:	699b      	ldr	r3, [r3, #24]
 8001a28:	f023 0270 	bic.w	r2, r3, #112	; 0x70
 8001a2c:	687b      	ldr	r3, [r7, #4]
 8001a2e:	691b      	ldr	r3, [r3, #16]
 8001a30:	4975      	ldr	r1, [pc, #468]	; (8001c08 <HAL_RCC_ClockConfig+0x244>)
 8001a32:	4313      	orrs	r3, r2
 8001a34:	618b      	str	r3, [r1, #24]
    }
#endif
  }

  /*-------------------------- PCLK1 Configuration ---------------------------*/
  if(((RCC_ClkInitStruct->ClockType) & RCC_CLOCKTYPE_PCLK1) == RCC_CLOCKTYPE_PCLK1)
 8001a36:	687b      	ldr	r3, [r7, #4]
 8001a38:	681b      	ldr	r3, [r3, #0]
 8001a3a:	f003 0308 	and.w	r3, r3, #8
 8001a3e:	2b00      	cmp	r3, #0
 8001a40:	d010      	beq.n	8001a64 <HAL_RCC_ClockConfig+0xa0>
  {
#if defined (RCC_D2CFGR_D2PPRE1)
    if((RCC_ClkInitStruct->APB1CLKDivider) > (RCC->D2CFGR & RCC_D2CFGR_D2PPRE1))
 8001a42:	687b      	ldr	r3, [r7, #4]
 8001a44:	695a      	ldr	r2, [r3, #20]
 8001a46:	4b70      	ldr	r3, [pc, #448]	; (8001c08 <HAL_RCC_ClockConfig+0x244>)
 8001a48:	69db      	ldr	r3, [r3, #28]
 8001a4a:	f003 0370 	and.w	r3, r3, #112	; 0x70
 8001a4e:	429a      	cmp	r2, r3
 8001a50:	d908      	bls.n	8001a64 <HAL_RCC_ClockConfig+0xa0>
    {
      assert_param(IS_RCC_PCLK1(RCC_ClkInitStruct->APB1CLKDivider));
      MODIFY_REG(RCC->D2CFGR, RCC_D2CFGR_D2PPRE1, (RCC_ClkInitStruct->APB1CLKDivider));
 8001a52:	4b6d      	ldr	r3, [pc, #436]	; (8001c08 <HAL_RCC_ClockConfig+0x244>)
 8001a54:	69db      	ldr	r3, [r3, #28]
 8001a56:	f023 0270 	bic.w	r2, r3, #112	; 0x70
 8001a5a:	687b      	ldr	r3, [r7, #4]
 8001a5c:	695b      	ldr	r3, [r3, #20]
 8001a5e:	496a      	ldr	r1, [pc, #424]	; (8001c08 <HAL_RCC_ClockConfig+0x244>)
 8001a60:	4313      	orrs	r3, r2
 8001a62:	61cb      	str	r3, [r1, #28]
      MODIFY_REG(RCC->CDCFGR2, RCC_CDCFGR2_CDPPRE1, (RCC_ClkInitStruct->APB1CLKDivider));
  }
#endif
    }
  /*-------------------------- PCLK2 Configuration ---------------------------*/
  if(((RCC_ClkInitStruct->ClockType) & RCC_CLOCKTYPE_PCLK2) == RCC_CLOCKTYPE_PCLK2)
 8001a64:	687b      	ldr	r3, [r7, #4]
 8001a66:	681b      	ldr	r3, [r3, #0]
 8001a68:	f003 0310 	and.w	r3, r3, #16
 8001a6c:	2b00      	cmp	r3, #0
 8001a6e:	d010      	beq.n	8001a92 <HAL_RCC_ClockConfig+0xce>
  {
#if defined(RCC_D2CFGR_D2PPRE2)
    if((RCC_ClkInitStruct->APB2CLKDivider) > (RCC->D2CFGR & RCC_D2CFGR_D2PPRE2))
 8001a70:	687b      	ldr	r3, [r7, #4]
 8001a72:	699a      	ldr	r2, [r3, #24]
 8001a74:	4b64      	ldr	r3, [pc, #400]	; (8001c08 <HAL_RCC_ClockConfig+0x244>)
 8001a76:	69db      	ldr	r3, [r3, #28]
 8001a78:	f403 63e0 	and.w	r3, r3, #1792	; 0x700
 8001a7c:	429a      	cmp	r2, r3
 8001a7e:	d908      	bls.n	8001a92 <HAL_RCC_ClockConfig+0xce>
    {
      assert_param(IS_RCC_PCLK2(RCC_ClkInitStruct->APB2CLKDivider));
      MODIFY_REG(RCC->D2CFGR, RCC_D2CFGR_D2PPRE2, (RCC_ClkInitStruct->APB2CLKDivider));
 8001a80:	4b61      	ldr	r3, [pc, #388]	; (8001c08 <HAL_RCC_ClockConfig+0x244>)
 8001a82:	69db      	ldr	r3, [r3, #28]
 8001a84:	f423 62e0 	bic.w	r2, r3, #1792	; 0x700
 8001a88:	687b      	ldr	r3, [r7, #4]
 8001a8a:	699b      	ldr	r3, [r3, #24]
 8001a8c:	495e      	ldr	r1, [pc, #376]	; (8001c08 <HAL_RCC_ClockConfig+0x244>)
 8001a8e:	4313      	orrs	r3, r2
 8001a90:	61cb      	str	r3, [r1, #28]
    }
#endif
  }

  /*-------------------------- D3PCLK1 Configuration ---------------------------*/
  if(((RCC_ClkInitStruct->ClockType) & RCC_CLOCKTYPE_D3PCLK1) == RCC_CLOCKTYPE_D3PCLK1)
 8001a92:	687b      	ldr	r3, [r7, #4]
 8001a94:	681b      	ldr	r3, [r3, #0]
 8001a96:	f003 0320 	and.w	r3, r3, #32
 8001a9a:	2b00      	cmp	r3, #0
 8001a9c:	d010      	beq.n	8001ac0 <HAL_RCC_ClockConfig+0xfc>
  {
#if defined(RCC_D3CFGR_D3PPRE)
    if((RCC_ClkInitStruct->APB4CLKDivider) > (RCC->D3CFGR & RCC_D3CFGR_D3PPRE))
 8001a9e:	687b      	ldr	r3, [r7, #4]
 8001aa0:	69da      	ldr	r2, [r3, #28]
 8001aa2:	4b59      	ldr	r3, [pc, #356]	; (8001c08 <HAL_RCC_ClockConfig+0x244>)
 8001aa4:	6a1b      	ldr	r3, [r3, #32]
 8001aa6:	f003 0370 	and.w	r3, r3, #112	; 0x70
 8001aaa:	429a      	cmp	r2, r3
 8001aac:	d908      	bls.n	8001ac0 <HAL_RCC_ClockConfig+0xfc>
    {
      assert_param(IS_RCC_D3PCLK1(RCC_ClkInitStruct->APB4CLKDivider));
      MODIFY_REG(RCC->D3CFGR, RCC_D3CFGR_D3PPRE, (RCC_ClkInitStruct->APB4CLKDivider) );
 8001aae:	4b56      	ldr	r3, [pc, #344]	; (8001c08 <HAL_RCC_ClockConfig+0x244>)
 8001ab0:	6a1b      	ldr	r3, [r3, #32]
 8001ab2:	f023 0270 	bic.w	r2, r3, #112	; 0x70
 8001ab6:	687b      	ldr	r3, [r7, #4]
 8001ab8:	69db      	ldr	r3, [r3, #28]
 8001aba:	4953      	ldr	r1, [pc, #332]	; (8001c08 <HAL_RCC_ClockConfig+0x244>)
 8001abc:	4313      	orrs	r3, r2
 8001abe:	620b      	str	r3, [r1, #32]
    }
#endif
  }

   /*-------------------------- HCLK Configuration --------------------------*/
  if(((RCC_ClkInitStruct->ClockType) & RCC_CLOCKTYPE_HCLK) == RCC_CLOCKTYPE_HCLK)
 8001ac0:	687b      	ldr	r3, [r7, #4]
 8001ac2:	681b      	ldr	r3, [r3, #0]
 8001ac4:	f003 0302 	and.w	r3, r3, #2
 8001ac8:	2b00      	cmp	r3, #0
 8001aca:	d010      	beq.n	8001aee <HAL_RCC_ClockConfig+0x12a>
  {
#if defined (RCC_D1CFGR_HPRE)
    if((RCC_ClkInitStruct->AHBCLKDivider) > (RCC->D1CFGR & RCC_D1CFGR_HPRE))
 8001acc:	687b      	ldr	r3, [r7, #4]
 8001ace:	68da      	ldr	r2, [r3, #12]
 8001ad0:	4b4d      	ldr	r3, [pc, #308]	; (8001c08 <HAL_RCC_ClockConfig+0x244>)
 8001ad2:	699b      	ldr	r3, [r3, #24]
 8001ad4:	f003 030f 	and.w	r3, r3, #15
 8001ad8:	429a      	cmp	r2, r3
 8001ada:	d908      	bls.n	8001aee <HAL_RCC_ClockConfig+0x12a>
    {
      /* Set the new HCLK clock divider */
      assert_param(IS_RCC_HCLK(RCC_ClkInitStruct->AHBCLKDivider));
      MODIFY_REG(RCC->D1CFGR, RCC_D1CFGR_HPRE, RCC_ClkInitStruct->AHBCLKDivider);
 8001adc:	4b4a      	ldr	r3, [pc, #296]	; (8001c08 <HAL_RCC_ClockConfig+0x244>)
 8001ade:	699b      	ldr	r3, [r3, #24]
 8001ae0:	f023 020f 	bic.w	r2, r3, #15
 8001ae4:	687b      	ldr	r3, [r7, #4]
 8001ae6:	68db      	ldr	r3, [r3, #12]
 8001ae8:	4947      	ldr	r1, [pc, #284]	; (8001c08 <HAL_RCC_ClockConfig+0x244>)
 8001aea:	4313      	orrs	r3, r2
 8001aec:	618b      	str	r3, [r1, #24]
    }
#endif
  }

    /*------------------------- SYSCLK Configuration -------------------------*/
    if(((RCC_ClkInitStruct->ClockType) & RCC_CLOCKTYPE_SYSCLK) == RCC_CLOCKTYPE_SYSCLK)
 8001aee:	687b      	ldr	r3, [r7, #4]
 8001af0:	681b      	ldr	r3, [r3, #0]
 8001af2:	f003 0301 	and.w	r3, r3, #1
 8001af6:	2b00      	cmp	r3, #0
 8001af8:	d055      	beq.n	8001ba6 <HAL_RCC_ClockConfig+0x1e2>
    {
      assert_param(IS_RCC_SYSCLK(RCC_ClkInitStruct->SYSCLKDivider));
      assert_param(IS_RCC_SYSCLKSOURCE(RCC_ClkInitStruct->SYSCLKSource));
#if defined(RCC_D1CFGR_D1CPRE)
      MODIFY_REG(RCC->D1CFGR, RCC_D1CFGR_D1CPRE, RCC_ClkInitStruct->SYSCLKDivider);
 8001afa:	4b43      	ldr	r3, [pc, #268]	; (8001c08 <HAL_RCC_ClockConfig+0x244>)
 8001afc:	699b      	ldr	r3, [r3, #24]
 8001afe:	f423 6270 	bic.w	r2, r3, #3840	; 0xf00
 8001b02:	687b      	ldr	r3, [r7, #4]
 8001b04:	689b      	ldr	r3, [r3, #8]
 8001b06:	4940      	ldr	r1, [pc, #256]	; (8001c08 <HAL_RCC_ClockConfig+0x244>)
 8001b08:	4313      	orrs	r3, r2
 8001b0a:	618b      	str	r3, [r1, #24]
#else
      MODIFY_REG(RCC->CDCFGR1, RCC_CDCFGR1_CDCPRE, RCC_ClkInitStruct->SYSCLKDivider);
#endif
      /* HSE is selected as System Clock Source */
      if(RCC_ClkInitStruct->SYSCLKSource == RCC_SYSCLKSOURCE_HSE)
 8001b0c:	687b      	ldr	r3, [r7, #4]
 8001b0e:	685b      	ldr	r3, [r3, #4]
 8001b10:	2b02      	cmp	r3, #2
 8001b12:	d107      	bne.n	8001b24 <HAL_RCC_ClockConfig+0x160>
      {
        /* Check the HSE ready flag */
        if(__HAL_RCC_GET_FLAG(RCC_FLAG_HSERDY) == 0U)
 8001b14:	4b3c      	ldr	r3, [pc, #240]	; (8001c08 <HAL_RCC_ClockConfig+0x244>)
 8001b16:	681b      	ldr	r3, [r3, #0]
 8001b18:	f403 3300 	and.w	r3, r3, #131072	; 0x20000
 8001b1c:	2b00      	cmp	r3, #0
 8001b1e:	d121      	bne.n	8001b64 <HAL_RCC_ClockConfig+0x1a0>
        {
          return HAL_ERROR;
 8001b20:	2301      	movs	r3, #1
 8001b22:	e0f6      	b.n	8001d12 <HAL_RCC_ClockConfig+0x34e>
        }
      }
      /* PLL is selected as System Clock Source */
      else if(RCC_ClkInitStruct->SYSCLKSource == RCC_SYSCLKSOURCE_PLLCLK)
 8001b24:	687b      	ldr	r3, [r7, #4]
 8001b26:	685b      	ldr	r3, [r3, #4]
 8001b28:	2b03      	cmp	r3, #3
 8001b2a:	d107      	bne.n	8001b3c <HAL_RCC_ClockConfig+0x178>
      {
        /* Check the PLL ready flag */
        if(__HAL_RCC_GET_FLAG(RCC_FLAG_PLLRDY) == 0U)
 8001b2c:	4b36      	ldr	r3, [pc, #216]	; (8001c08 <HAL_RCC_ClockConfig+0x244>)
 8001b2e:	681b      	ldr	r3, [r3, #0]
 8001b30:	f003 7300 	and.w	r3, r3, #33554432	; 0x2000000
 8001b34:	2b00      	cmp	r3, #0
 8001b36:	d115      	bne.n	8001b64 <HAL_RCC_ClockConfig+0x1a0>
        {
          return HAL_ERROR;
 8001b38:	2301      	movs	r3, #1
 8001b3a:	e0ea      	b.n	8001d12 <HAL_RCC_ClockConfig+0x34e>
        }
      }
      /* CSI is selected as System Clock Source */
      else if(RCC_ClkInitStruct->SYSCLKSource == RCC_SYSCLKSOURCE_CSI)
 8001b3c:	687b      	ldr	r3, [r7, #4]
 8001b3e:	685b      	ldr	r3, [r3, #4]
 8001b40:	2b01      	cmp	r3, #1
 8001b42:	d107      	bne.n	8001b54 <HAL_RCC_ClockConfig+0x190>
      {
        /* Check the PLL ready flag */
        if(__HAL_RCC_GET_FLAG(RCC_FLAG_CSIRDY) == 0U)
 8001b44:	4b30      	ldr	r3, [pc, #192]	; (8001c08 <HAL_RCC_ClockConfig+0x244>)
 8001b46:	681b      	ldr	r3, [r3, #0]
 8001b48:	f403 7380 	and.w	r3, r3, #256	; 0x100
 8001b4c:	2b00      	cmp	r3, #0
 8001b4e:	d109      	bne.n	8001b64 <HAL_RCC_ClockConfig+0x1a0>
        {
          return HAL_ERROR;
 8001b50:	2301      	movs	r3, #1
 8001b52:	e0de      	b.n	8001d12 <HAL_RCC_ClockConfig+0x34e>
      }
      /* HSI is selected as System Clock Source */
      else
      {
        /* Check the HSI ready flag */
        if(__HAL_RCC_GET_FLAG(RCC_FLAG_HSIRDY) == 0U)
 8001b54:	4b2c      	ldr	r3, [pc, #176]	; (8001c08 <HAL_RCC_ClockConfig+0x244>)
 8001b56:	681b      	ldr	r3, [r3, #0]
 8001b58:	f003 0304 	and.w	r3, r3, #4
 8001b5c:	2b00      	cmp	r3, #0
 8001b5e:	d101      	bne.n	8001b64 <HAL_RCC_ClockConfig+0x1a0>
        {
          return HAL_ERROR;
 8001b60:	2301      	movs	r3, #1
 8001b62:	e0d6      	b.n	8001d12 <HAL_RCC_ClockConfig+0x34e>
        }
      }
      MODIFY_REG(RCC->CFGR, RCC_CFGR_SW, RCC_ClkInitStruct->SYSCLKSource);
 8001b64:	4b28      	ldr	r3, [pc, #160]	; (8001c08 <HAL_RCC_ClockConfig+0x244>)
 8001b66:	691b      	ldr	r3, [r3, #16]
 8001b68:	f023 0207 	bic.w	r2, r3, #7
 8001b6c:	687b      	ldr	r3, [r7, #4]
 8001b6e:	685b      	ldr	r3, [r3, #4]
 8001b70:	4925      	ldr	r1, [pc, #148]	; (8001c08 <HAL_RCC_ClockConfig+0x244>)
 8001b72:	4313      	orrs	r3, r2
 8001b74:	610b      	str	r3, [r1, #16]

      /* Get Start Tick*/
      tickstart = HAL_GetTick();
 8001b76:	f7ff f89f 	bl	8000cb8 <HAL_GetTick>
 8001b7a:	6178      	str	r0, [r7, #20]

        while (__HAL_RCC_GET_SYSCLK_SOURCE() !=  (RCC_ClkInitStruct->SYSCLKSource << RCC_CFGR_SWS_Pos))
 8001b7c:	e00a      	b.n	8001b94 <HAL_RCC_ClockConfig+0x1d0>
        {
          if((HAL_GetTick() - tickstart ) > CLOCKSWITCH_TIMEOUT_VALUE)
 8001b7e:	f7ff f89b 	bl	8000cb8 <HAL_GetTick>
 8001b82:	4602      	mov	r2, r0
 8001b84:	697b      	ldr	r3, [r7, #20]
 8001b86:	1ad3      	subs	r3, r2, r3
 8001b88:	f241 3288 	movw	r2, #5000	; 0x1388
 8001b8c:	4293      	cmp	r3, r2
 8001b8e:	d901      	bls.n	8001b94 <HAL_RCC_ClockConfig+0x1d0>
          {
            return HAL_TIMEOUT;
 8001b90:	2303      	movs	r3, #3
 8001b92:	e0be      	b.n	8001d12 <HAL_RCC_ClockConfig+0x34e>
        while (__HAL_RCC_GET_SYSCLK_SOURCE() !=  (RCC_ClkInitStruct->SYSCLKSource << RCC_CFGR_SWS_Pos))
 8001b94:	4b1c      	ldr	r3, [pc, #112]	; (8001c08 <HAL_RCC_ClockConfig+0x244>)
 8001b96:	691b      	ldr	r3, [r3, #16]
 8001b98:	f003 0238 	and.w	r2, r3, #56	; 0x38
 8001b9c:	687b      	ldr	r3, [r7, #4]
 8001b9e:	685b      	ldr	r3, [r3, #4]
 8001ba0:	00db      	lsls	r3, r3, #3
 8001ba2:	429a      	cmp	r2, r3
 8001ba4:	d1eb      	bne.n	8001b7e <HAL_RCC_ClockConfig+0x1ba>

    }

    /* Decreasing the BUS frequency divider */
   /*-------------------------- HCLK Configuration --------------------------*/
  if(((RCC_ClkInitStruct->ClockType) & RCC_CLOCKTYPE_HCLK) == RCC_CLOCKTYPE_HCLK)
 8001ba6:	687b      	ldr	r3, [r7, #4]
 8001ba8:	681b      	ldr	r3, [r3, #0]
 8001baa:	f003 0302 	and.w	r3, r3, #2
 8001bae:	2b00      	cmp	r3, #0
 8001bb0:	d010      	beq.n	8001bd4 <HAL_RCC_ClockConfig+0x210>
  {
#if defined(RCC_D1CFGR_HPRE)
    if((RCC_ClkInitStruct->AHBCLKDivider) < (RCC->D1CFGR & RCC_D1CFGR_HPRE))
 8001bb2:	687b      	ldr	r3, [r7, #4]
 8001bb4:	68da      	ldr	r2, [r3, #12]
 8001bb6:	4b14      	ldr	r3, [pc, #80]	; (8001c08 <HAL_RCC_ClockConfig+0x244>)
 8001bb8:	699b      	ldr	r3, [r3, #24]
 8001bba:	f003 030f 	and.w	r3, r3, #15
 8001bbe:	429a      	cmp	r2, r3
 8001bc0:	d208      	bcs.n	8001bd4 <HAL_RCC_ClockConfig+0x210>
    {
      /* Set the new HCLK clock divider */
      assert_param(IS_RCC_HCLK(RCC_ClkInitStruct->AHBCLKDivider));
      MODIFY_REG(RCC->D1CFGR, RCC_D1CFGR_HPRE, RCC_ClkInitStruct->AHBCLKDivider);
 8001bc2:	4b11      	ldr	r3, [pc, #68]	; (8001c08 <HAL_RCC_ClockConfig+0x244>)
 8001bc4:	699b      	ldr	r3, [r3, #24]
 8001bc6:	f023 020f 	bic.w	r2, r3, #15
 8001bca:	687b      	ldr	r3, [r7, #4]
 8001bcc:	68db      	ldr	r3, [r3, #12]
 8001bce:	490e      	ldr	r1, [pc, #56]	; (8001c08 <HAL_RCC_ClockConfig+0x244>)
 8001bd0:	4313      	orrs	r3, r2
 8001bd2:	618b      	str	r3, [r1, #24]
    }
#endif
  }

  /* Decreasing the number of wait states because of lower CPU frequency */
  if(FLatency < __HAL_FLASH_GET_LATENCY())
 8001bd4:	4b0b      	ldr	r3, [pc, #44]	; (8001c04 <HAL_RCC_ClockConfig+0x240>)
 8001bd6:	681b      	ldr	r3, [r3, #0]
 8001bd8:	f003 030f 	and.w	r3, r3, #15
 8001bdc:	683a      	ldr	r2, [r7, #0]
 8001bde:	429a      	cmp	r2, r3
 8001be0:	d214      	bcs.n	8001c0c <HAL_RCC_ClockConfig+0x248>
  {
    /* Program the new number of wait states to the LATENCY bits in the FLASH_ACR register */
    __HAL_FLASH_SET_LATENCY(FLatency);
 8001be2:	4b08      	ldr	r3, [pc, #32]	; (8001c04 <HAL_RCC_ClockConfig+0x240>)
 8001be4:	681b      	ldr	r3, [r3, #0]
 8001be6:	f023 020f 	bic.w	r2, r3, #15
 8001bea:	4906      	ldr	r1, [pc, #24]	; (8001c04 <HAL_RCC_ClockConfig+0x240>)
 8001bec:	683b      	ldr	r3, [r7, #0]
 8001bee:	4313      	orrs	r3, r2
 8001bf0:	600b      	str	r3, [r1, #0]

    /* Check that the new number of wait states is taken into account to access the Flash
    memory by reading the FLASH_ACR register */
    if(__HAL_FLASH_GET_LATENCY() != FLatency)
 8001bf2:	4b04      	ldr	r3, [pc, #16]	; (8001c04 <HAL_RCC_ClockConfig+0x240>)
 8001bf4:	681b      	ldr	r3, [r3, #0]
 8001bf6:	f003 030f 	and.w	r3, r3, #15
 8001bfa:	683a      	ldr	r2, [r7, #0]
 8001bfc:	429a      	cmp	r2, r3
 8001bfe:	d005      	beq.n	8001c0c <HAL_RCC_ClockConfig+0x248>
    {
      return HAL_ERROR;
 8001c00:	2301      	movs	r3, #1
 8001c02:	e086      	b.n	8001d12 <HAL_RCC_ClockConfig+0x34e>
 8001c04:	52002000 	.word	0x52002000
 8001c08:	58024400 	.word	0x58024400
    }
 }

  /*-------------------------- D1PCLK1/CDPCLK Configuration ---------------------------*/
 if(((RCC_ClkInitStruct->ClockType) & RCC_CLOCKTYPE_D1PCLK1) == RCC_CLOCKTYPE_D1PCLK1)
 8001c0c:	687b      	ldr	r3, [r7, #4]
 8001c0e:	681b      	ldr	r3, [r3, #0]
 8001c10:	f003 0304 	and.w	r3, r3, #4
 8001c14:	2b00      	cmp	r3, #0
 8001c16:	d010      	beq.n	8001c3a <HAL_RCC_ClockConfig+0x276>
 {
#if defined(RCC_D1CFGR_D1PPRE)
   if((RCC_ClkInitStruct->APB3CLKDivider) < (RCC->D1CFGR & RCC_D1CFGR_D1PPRE))
 8001c18:	687b      	ldr	r3, [r7, #4]
 8001c1a:	691a      	ldr	r2, [r3, #16]
 8001c1c:	4b3f      	ldr	r3, [pc, #252]	; (8001d1c <HAL_RCC_ClockConfig+0x358>)
 8001c1e:	699b      	ldr	r3, [r3, #24]
 8001c20:	f003 0370 	and.w	r3, r3, #112	; 0x70
 8001c24:	429a      	cmp	r2, r3
 8001c26:	d208      	bcs.n	8001c3a <HAL_RCC_ClockConfig+0x276>
   {
     assert_param(IS_RCC_D1PCLK1(RCC_ClkInitStruct->APB3CLKDivider));
     MODIFY_REG(RCC->D1CFGR, RCC_D1CFGR_D1PPRE, RCC_ClkInitStruct->APB3CLKDivider);
 8001c28:	4b3c      	ldr	r3, [pc, #240]	; (8001d1c <HAL_RCC_ClockConfig+0x358>)
 8001c2a:	699b      	ldr	r3, [r3, #24]
 8001c2c:	f023 0270 	bic.w	r2, r3, #112	; 0x70
 8001c30:	687b      	ldr	r3, [r7, #4]
 8001c32:	691b      	ldr	r3, [r3, #16]
 8001c34:	4939      	ldr	r1, [pc, #228]	; (8001d1c <HAL_RCC_ClockConfig+0x358>)
 8001c36:	4313      	orrs	r3, r2
 8001c38:	618b      	str	r3, [r1, #24]
   }
#endif
 }

  /*-------------------------- PCLK1 Configuration ---------------------------*/
 if(((RCC_ClkInitStruct->ClockType) & RCC_CLOCKTYPE_PCLK1) == RCC_CLOCKTYPE_PCLK1)
 8001c3a:	687b      	ldr	r3, [r7, #4]
 8001c3c:	681b      	ldr	r3, [r3, #0]
 8001c3e:	f003 0308 	and.w	r3, r3, #8
 8001c42:	2b00      	cmp	r3, #0
 8001c44:	d010      	beq.n	8001c68 <HAL_RCC_ClockConfig+0x2a4>
 {
#if defined(RCC_D2CFGR_D2PPRE1)
   if((RCC_ClkInitStruct->APB1CLKDivider) < (RCC->D2CFGR & RCC_D2CFGR_D2PPRE1))
 8001c46:	687b      	ldr	r3, [r7, #4]
 8001c48:	695a      	ldr	r2, [r3, #20]
 8001c4a:	4b34      	ldr	r3, [pc, #208]	; (8001d1c <HAL_RCC_ClockConfig+0x358>)
 8001c4c:	69db      	ldr	r3, [r3, #28]
 8001c4e:	f003 0370 	and.w	r3, r3, #112	; 0x70
 8001c52:	429a      	cmp	r2, r3
 8001c54:	d208      	bcs.n	8001c68 <HAL_RCC_ClockConfig+0x2a4>
   {
     assert_param(IS_RCC_PCLK1(RCC_ClkInitStruct->APB1CLKDivider));
     MODIFY_REG(RCC->D2CFGR, RCC_D2CFGR_D2PPRE1, (RCC_ClkInitStruct->APB1CLKDivider));
 8001c56:	4b31      	ldr	r3, [pc, #196]	; (8001d1c <HAL_RCC_ClockConfig+0x358>)
 8001c58:	69db      	ldr	r3, [r3, #28]
 8001c5a:	f023 0270 	bic.w	r2, r3, #112	; 0x70
 8001c5e:	687b      	ldr	r3, [r7, #4]
 8001c60:	695b      	ldr	r3, [r3, #20]
 8001c62:	492e      	ldr	r1, [pc, #184]	; (8001d1c <HAL_RCC_ClockConfig+0x358>)
 8001c64:	4313      	orrs	r3, r2
 8001c66:	61cb      	str	r3, [r1, #28]
   }
#endif
 }

  /*-------------------------- PCLK2 Configuration ---------------------------*/
 if(((RCC_ClkInitStruct->ClockType) & RCC_CLOCKTYPE_PCLK2) == RCC_CLOCKTYPE_PCLK2)
 8001c68:	687b      	ldr	r3, [r7, #4]
 8001c6a:	681b      	ldr	r3, [r3, #0]
 8001c6c:	f003 0310 	and.w	r3, r3, #16
 8001c70:	2b00      	cmp	r3, #0
 8001c72:	d010      	beq.n	8001c96 <HAL_RCC_ClockConfig+0x2d2>
 {
#if defined (RCC_D2CFGR_D2PPRE2)
   if((RCC_ClkInitStruct->APB2CLKDivider) < (RCC->D2CFGR & RCC_D2CFGR_D2PPRE2))
 8001c74:	687b      	ldr	r3, [r7, #4]
 8001c76:	699a      	ldr	r2, [r3, #24]
 8001c78:	4b28      	ldr	r3, [pc, #160]	; (8001d1c <HAL_RCC_ClockConfig+0x358>)
 8001c7a:	69db      	ldr	r3, [r3, #28]
 8001c7c:	f403 63e0 	and.w	r3, r3, #1792	; 0x700
 8001c80:	429a      	cmp	r2, r3
 8001c82:	d208      	bcs.n	8001c96 <HAL_RCC_ClockConfig+0x2d2>
   {
     assert_param(IS_RCC_PCLK2(RCC_ClkInitStruct->APB2CLKDivider));
     MODIFY_REG(RCC->D2CFGR, RCC_D2CFGR_D2PPRE2, (RCC_ClkInitStruct->APB2CLKDivider));
 8001c84:	4b25      	ldr	r3, [pc, #148]	; (8001d1c <HAL_RCC_ClockConfig+0x358>)
 8001c86:	69db      	ldr	r3, [r3, #28]
 8001c88:	f423 62e0 	bic.w	r2, r3, #1792	; 0x700
 8001c8c:	687b      	ldr	r3, [r7, #4]
 8001c8e:	699b      	ldr	r3, [r3, #24]
 8001c90:	4922      	ldr	r1, [pc, #136]	; (8001d1c <HAL_RCC_ClockConfig+0x358>)
 8001c92:	4313      	orrs	r3, r2
 8001c94:	61cb      	str	r3, [r1, #28]
   }
#endif
 }

  /*-------------------------- D3PCLK1/SRDPCLK1 Configuration ---------------------------*/
 if(((RCC_ClkInitStruct->ClockType) & RCC_CLOCKTYPE_D3PCLK1) == RCC_CLOCKTYPE_D3PCLK1)
 8001c96:	687b      	ldr	r3, [r7, #4]
 8001c98:	681b      	ldr	r3, [r3, #0]
 8001c9a:	f003 0320 	and.w	r3, r3, #32
 8001c9e:	2b00      	cmp	r3, #0
 8001ca0:	d010      	beq.n	8001cc4 <HAL_RCC_ClockConfig+0x300>
 {
#if defined(RCC_D3CFGR_D3PPRE)
   if((RCC_ClkInitStruct->APB4CLKDivider) < (RCC->D3CFGR & RCC_D3CFGR_D3PPRE))
 8001ca2:	687b      	ldr	r3, [r7, #4]
 8001ca4:	69da      	ldr	r2, [r3, #28]
 8001ca6:	4b1d      	ldr	r3, [pc, #116]	; (8001d1c <HAL_RCC_ClockConfig+0x358>)
 8001ca8:	6a1b      	ldr	r3, [r3, #32]
 8001caa:	f003 0370 	and.w	r3, r3, #112	; 0x70
 8001cae:	429a      	cmp	r2, r3
 8001cb0:	d208      	bcs.n	8001cc4 <HAL_RCC_ClockConfig+0x300>
   {
     assert_param(IS_RCC_D3PCLK1(RCC_ClkInitStruct->APB4CLKDivider));
     MODIFY_REG(RCC->D3CFGR, RCC_D3CFGR_D3PPRE, (RCC_ClkInitStruct->APB4CLKDivider) );
 8001cb2:	4b1a      	ldr	r3, [pc, #104]	; (8001d1c <HAL_RCC_ClockConfig+0x358>)
 8001cb4:	6a1b      	ldr	r3, [r3, #32]
 8001cb6:	f023 0270 	bic.w	r2, r3, #112	; 0x70
 8001cba:	687b      	ldr	r3, [r7, #4]
 8001cbc:	69db      	ldr	r3, [r3, #28]
 8001cbe:	4917      	ldr	r1, [pc, #92]	; (8001d1c <HAL_RCC_ClockConfig+0x358>)
 8001cc0:	4313      	orrs	r3, r2
 8001cc2:	620b      	str	r3, [r1, #32]
#endif
 }

  /* Update the SystemCoreClock global variable */
#if defined(RCC_D1CFGR_D1CPRE)
  common_system_clock = HAL_RCC_GetSysClockFreq() >> ((D1CorePrescTable[(RCC->D1CFGR & RCC_D1CFGR_D1CPRE)>> RCC_D1CFGR_D1CPRE_Pos]) & 0x1FU);
 8001cc4:	f000 f834 	bl	8001d30 <HAL_RCC_GetSysClockFreq>
 8001cc8:	4602      	mov	r2, r0
 8001cca:	4b14      	ldr	r3, [pc, #80]	; (8001d1c <HAL_RCC_ClockConfig+0x358>)
 8001ccc:	699b      	ldr	r3, [r3, #24]
 8001cce:	0a1b      	lsrs	r3, r3, #8
 8001cd0:	f003 030f 	and.w	r3, r3, #15
 8001cd4:	4912      	ldr	r1, [pc, #72]	; (8001d20 <HAL_RCC_ClockConfig+0x35c>)
 8001cd6:	5ccb      	ldrb	r3, [r1, r3]
 8001cd8:	f003 031f 	and.w	r3, r3, #31
 8001cdc:	fa22 f303 	lsr.w	r3, r2, r3
 8001ce0:	613b      	str	r3, [r7, #16]
#else
  common_system_clock = HAL_RCC_GetSysClockFreq() >> ((D1CorePrescTable[(RCC->CDCFGR1 & RCC_CDCFGR1_CDCPRE)>> RCC_CDCFGR1_CDCPRE_Pos]) & 0x1FU);
#endif

#if defined(RCC_D1CFGR_HPRE)
  SystemD2Clock = (common_system_clock >> ((D1CorePrescTable[(RCC->D1CFGR & RCC_D1CFGR_HPRE)>> RCC_D1CFGR_HPRE_Pos]) & 0x1FU));
 8001ce2:	4b0e      	ldr	r3, [pc, #56]	; (8001d1c <HAL_RCC_ClockConfig+0x358>)
 8001ce4:	699b      	ldr	r3, [r3, #24]
 8001ce6:	f003 030f 	and.w	r3, r3, #15
 8001cea:	4a0d      	ldr	r2, [pc, #52]	; (8001d20 <HAL_RCC_ClockConfig+0x35c>)
 8001cec:	5cd3      	ldrb	r3, [r2, r3]
 8001cee:	f003 031f 	and.w	r3, r3, #31
 8001cf2:	693a      	ldr	r2, [r7, #16]
 8001cf4:	fa22 f303 	lsr.w	r3, r2, r3
 8001cf8:	4a0a      	ldr	r2, [pc, #40]	; (8001d24 <HAL_RCC_ClockConfig+0x360>)
 8001cfa:	6013      	str	r3, [r2, #0]
#endif

#if defined(DUAL_CORE) && defined(CORE_CM4)
  SystemCoreClock = SystemD2Clock;
#else
  SystemCoreClock = common_system_clock;
 8001cfc:	4a0a      	ldr	r2, [pc, #40]	; (8001d28 <HAL_RCC_ClockConfig+0x364>)
 8001cfe:	693b      	ldr	r3, [r7, #16]
 8001d00:	6013      	str	r3, [r2, #0]
#endif /* DUAL_CORE && CORE_CM4 */

  /* Configure the source of time base considering new system clocks settings*/
  halstatus = HAL_InitTick (uwTickPrio);
 8001d02:	4b0a      	ldr	r3, [pc, #40]	; (8001d2c <HAL_RCC_ClockConfig+0x368>)
 8001d04:	681b      	ldr	r3, [r3, #0]
 8001d06:	4618      	mov	r0, r3
 8001d08:	f7fe ff8c 	bl	8000c24 <HAL_InitTick>
 8001d0c:	4603      	mov	r3, r0
 8001d0e:	73fb      	strb	r3, [r7, #15]

  return halstatus;
 8001d10:	7bfb      	ldrb	r3, [r7, #15]
}
 8001d12:	4618      	mov	r0, r3
 8001d14:	3718      	adds	r7, #24
 8001d16:	46bd      	mov	sp, r7
 8001d18:	bd80      	pop	{r7, pc}
 8001d1a:	bf00      	nop
 8001d1c:	58024400 	.word	0x58024400
 8001d20:	08006090 	.word	0x08006090
 8001d24:	24000004 	.word	0x24000004
 8001d28:	24000000 	.word	0x24000000
 8001d2c:	2400005c 	.word	0x2400005c

08001d30 <HAL_RCC_GetSysClockFreq>:
  *
  *
  * @retval SYSCLK frequency
  */
uint32_t HAL_RCC_GetSysClockFreq(void)
{
 8001d30:	b480      	push	{r7}
 8001d32:	b089      	sub	sp, #36	; 0x24
 8001d34:	af00      	add	r7, sp, #0
  float_t fracn1, pllvco;
  uint32_t sysclockfreq;

  /* Get SYSCLK source -------------------------------------------------------*/

  switch (RCC->CFGR & RCC_CFGR_SWS)
 8001d36:	4bb3      	ldr	r3, [pc, #716]	; (8002004 <HAL_RCC_GetSysClockFreq+0x2d4>)
 8001d38:	691b      	ldr	r3, [r3, #16]
 8001d3a:	f003 0338 	and.w	r3, r3, #56	; 0x38
 8001d3e:	2b18      	cmp	r3, #24
 8001d40:	f200 8155 	bhi.w	8001fee <HAL_RCC_GetSysClockFreq+0x2be>
 8001d44:	a201      	add	r2, pc, #4	; (adr r2, 8001d4c <HAL_RCC_GetSysClockFreq+0x1c>)
 8001d46:	f852 f023 	ldr.w	pc, [r2, r3, lsl #2]
 8001d4a:	bf00      	nop
 8001d4c:	08001db1 	.word	0x08001db1
 8001d50:	08001fef 	.word	0x08001fef
 8001d54:	08001fef 	.word	0x08001fef
 8001d58:	08001fef 	.word	0x08001fef
 8001d5c:	08001fef 	.word	0x08001fef
 8001d60:	08001fef 	.word	0x08001fef
 8001d64:	08001fef 	.word	0x08001fef
 8001d68:	08001fef 	.word	0x08001fef
 8001d6c:	08001dd7 	.word	0x08001dd7
 8001d70:	08001fef 	.word	0x08001fef
 8001d74:	08001fef 	.word	0x08001fef
 8001d78:	08001fef 	.word	0x08001fef
 8001d7c:	08001fef 	.word	0x08001fef
 8001d80:	08001fef 	.word	0x08001fef
 8001d84:	08001fef 	.word	0x08001fef
 8001d88:	08001fef 	.word	0x08001fef
 8001d8c:	08001ddd 	.word	0x08001ddd
 8001d90:	08001fef 	.word	0x08001fef
 8001d94:	08001fef 	.word	0x08001fef
 8001d98:	08001fef 	.word	0x08001fef
 8001d9c:	08001fef 	.word	0x08001fef
 8001da0:	08001fef 	.word	0x08001fef
 8001da4:	08001fef 	.word	0x08001fef
 8001da8:	08001fef 	.word	0x08001fef
 8001dac:	08001de3 	.word	0x08001de3
  {
  case RCC_CFGR_SWS_HSI:  /* HSI used as system clock source */

   if (__HAL_RCC_GET_FLAG(RCC_FLAG_HSIDIV) != 0U)
 8001db0:	4b94      	ldr	r3, [pc, #592]	; (8002004 <HAL_RCC_GetSysClockFreq+0x2d4>)
 8001db2:	681b      	ldr	r3, [r3, #0]
 8001db4:	f003 0320 	and.w	r3, r3, #32
 8001db8:	2b00      	cmp	r3, #0
 8001dba:	d009      	beq.n	8001dd0 <HAL_RCC_GetSysClockFreq+0xa0>
      {
        sysclockfreq = (uint32_t) (HSI_VALUE >> (__HAL_RCC_GET_HSI_DIVIDER()>> 3));
 8001dbc:	4b91      	ldr	r3, [pc, #580]	; (8002004 <HAL_RCC_GetSysClockFreq+0x2d4>)
 8001dbe:	681b      	ldr	r3, [r3, #0]
 8001dc0:	08db      	lsrs	r3, r3, #3
 8001dc2:	f003 0303 	and.w	r3, r3, #3
 8001dc6:	4a90      	ldr	r2, [pc, #576]	; (8002008 <HAL_RCC_GetSysClockFreq+0x2d8>)
 8001dc8:	fa22 f303 	lsr.w	r3, r2, r3
 8001dcc:	61bb      	str	r3, [r7, #24]
      else
      {
        sysclockfreq = (uint32_t) HSI_VALUE;
      }

    break;
 8001dce:	e111      	b.n	8001ff4 <HAL_RCC_GetSysClockFreq+0x2c4>
        sysclockfreq = (uint32_t) HSI_VALUE;
 8001dd0:	4b8d      	ldr	r3, [pc, #564]	; (8002008 <HAL_RCC_GetSysClockFreq+0x2d8>)
 8001dd2:	61bb      	str	r3, [r7, #24]
    break;
 8001dd4:	e10e      	b.n	8001ff4 <HAL_RCC_GetSysClockFreq+0x2c4>

  case RCC_CFGR_SWS_CSI:  /* CSI used as system clock  source */
    sysclockfreq = CSI_VALUE;
 8001dd6:	4b8d      	ldr	r3, [pc, #564]	; (800200c <HAL_RCC_GetSysClockFreq+0x2dc>)
 8001dd8:	61bb      	str	r3, [r7, #24]
    break;
 8001dda:	e10b      	b.n	8001ff4 <HAL_RCC_GetSysClockFreq+0x2c4>

  case RCC_CFGR_SWS_HSE:  /* HSE used as system clock  source */
    sysclockfreq = HSE_VALUE;
 8001ddc:	4b8c      	ldr	r3, [pc, #560]	; (8002010 <HAL_RCC_GetSysClockFreq+0x2e0>)
 8001dde:	61bb      	str	r3, [r7, #24]
    break;
 8001de0:	e108      	b.n	8001ff4 <HAL_RCC_GetSysClockFreq+0x2c4>
  case RCC_CFGR_SWS_PLL1:  /* PLL1 used as system clock  source */

    /* PLL_VCO = (HSE_VALUE or HSI_VALUE or CSI_VALUE/ PLLM) * PLLN
    SYSCLK = PLL_VCO / PLLR
    */
    pllsource = (RCC->PLLCKSELR & RCC_PLLCKSELR_PLLSRC);
 8001de2:	4b88      	ldr	r3, [pc, #544]	; (8002004 <HAL_RCC_GetSysClockFreq+0x2d4>)
 8001de4:	6a9b      	ldr	r3, [r3, #40]	; 0x28
 8001de6:	f003 0303 	and.w	r3, r3, #3
 8001dea:	617b      	str	r3, [r7, #20]
    pllm = ((RCC->PLLCKSELR & RCC_PLLCKSELR_DIVM1)>> 4)  ;
 8001dec:	4b85      	ldr	r3, [pc, #532]	; (8002004 <HAL_RCC_GetSysClockFreq+0x2d4>)
 8001dee:	6a9b      	ldr	r3, [r3, #40]	; 0x28
 8001df0:	091b      	lsrs	r3, r3, #4
 8001df2:	f003 033f 	and.w	r3, r3, #63	; 0x3f
 8001df6:	613b      	str	r3, [r7, #16]
    pllfracen = ((RCC-> PLLCFGR & RCC_PLLCFGR_PLL1FRACEN)>>RCC_PLLCFGR_PLL1FRACEN_Pos);
