
HSEM_CM4.elf:     file format elf32-littlearm

Sections:
Idx Name          Size      VMA       LMA       File off  Algn
  0 .isr_vector   00000298  08100000  08100000  00010000  2**0
                  CONTENTS, ALLOC, LOAD, READONLY, DATA
  1 .text         00000f50  08100298  08100298  00010298  2**2
                  CONTENTS, ALLOC, LOAD, READONLY, CODE
  2 .rodata       00000018  081011e8  081011e8  000111e8  2**2
                  CONTENTS, ALLOC, LOAD, READONLY, DATA
  3 .init_array   00000004  08101200  08101200  00011200  2**2
                  CONTENTS, ALLOC, LOAD, DATA
  4 .fini_array   00000004  08101204  08101204  00011204  2**2
                  CONTENTS, ALLOC, LOAD, DATA
  5 .data         00000010  10000000  08101208  00020000  2**2
                  CONTENTS, ALLOC, LOAD, DATA
  6 .bss          000000b4  10000010  08101218  00020010  2**2
                  ALLOC
  7 ._user_heap_stack 00000604  100000c4  08101218  000200c4  2**0
                  ALLOC
  8 .ARM.attributes 00000030  00000000  00000000  00020010  2**0
                  CONTENTS, READONLY
  9 .debug_info   0000c827  00000000  00000000  00020040  2**0
                  CONTENTS, READONLY, DEBUGGING, OCTETS
 10 .debug_abbrev 00001658  00000000  00000000  0002c867  2**0
                  CONTENTS, READONLY, DEBUGGING, OCTETS
 11 .debug_aranges 000008f0  00000000  00000000  0002dec0  2**3
                  CONTENTS, READONLY, DEBUGGING, OCTETS
 12 .debug_ranges 00000878  00000000  00000000  0002e7b0  2**3
                  CONTENTS, READONLY, DEBUGGING, OCTETS
 13 .debug_macro  0003796b  00000000  00000000  0002f028  2**0
                  CONTENTS, READONLY, DEBUGGING, OCTETS
 14 .debug_line   0000ad9a  00000000  00000000  00066993  2**0
                  CONTENTS, READONLY, DEBUGGING, OCTETS
 15 .debug_str    00174fd6  00000000  00000000  0007172d  2**0
                  CONTENTS, READONLY, DEBUGGING, OCTETS
 16 .comment      00000050  00000000  00000000  001e6703  2**0
                  CONTENTS, READONLY
 17 .debug_frame  000023e4  00000000  00000000  001e6754  2**2
                  CONTENTS, READONLY, DEBUGGING, OCTETS

Disassembly of section .text:

08100298 <__do_global_dtors_aux>:
 8100298:	b510      	push	{r4, lr}
 810029a:	4c05      	ldr	r4, [pc, #20]	; (81002b0 <__do_global_dtors_aux+0x18>)
 810029c:	7823      	ldrb	r3, [r4, #0]
 810029e:	b933      	cbnz	r3, 81002ae <__do_global_dtors_aux+0x16>
 81002a0:	4b04      	ldr	r3, [pc, #16]	; (81002b4 <__do_global_dtors_aux+0x1c>)
 81002a2:	b113      	cbz	r3, 81002aa <__do_global_dtors_aux+0x12>
 81002a4:	4804      	ldr	r0, [pc, #16]	; (81002b8 <__do_global_dtors_aux+0x20>)
 81002a6:	f3af 8000 	nop.w
 81002aa:	2301      	movs	r3, #1
 81002ac:	7023      	strb	r3, [r4, #0]
 81002ae:	bd10      	pop	{r4, pc}
 81002b0:	10000010 	.word	0x10000010
 81002b4:	00000000 	.word	0x00000000
 81002b8:	081011d0 	.word	0x081011d0

081002bc <frame_dummy>:
 81002bc:	b508      	push	{r3, lr}
 81002be:	4b03      	ldr	r3, [pc, #12]	; (81002cc <frame_dummy+0x10>)
 81002c0:	b11b      	cbz	r3, 81002ca <frame_dummy+0xe>
 81002c2:	4903      	ldr	r1, [pc, #12]	; (81002d0 <frame_dummy+0x14>)
 81002c4:	4803      	ldr	r0, [pc, #12]	; (81002d4 <frame_dummy+0x18>)
 81002c6:	f3af 8000 	nop.w
 81002ca:	bd08      	pop	{r3, pc}
 81002cc:	00000000 	.word	0x00000000
 81002d0:	10000014 	.word	0x10000014
 81002d4:	081011d0 	.word	0x081011d0

081002d8 <SystemInit>:
  *         configuration.
  * @param  None
  * @retval None
  */
void SystemInit (void)
{
 81002d8:	b480      	push	{r7}
 81002da:	af00      	add	r7, sp, #0
  /* FPU settings ------------------------------------------------------------*/
  #if (__FPU_PRESENT == 1) && (__FPU_USED == 1)
    SCB->CPACR |= ((3UL << (10*2))|(3UL << (11*2)));  /* set CP10 and CP11 Full Access */
 81002dc:	4b09      	ldr	r3, [pc, #36]	; (8100304 <SystemInit+0x2c>)
 81002de:	f8d3 3088 	ldr.w	r3, [r3, #136]	; 0x88
 81002e2:	4a08      	ldr	r2, [pc, #32]	; (8100304 <SystemInit+0x2c>)
 81002e4:	f443 0370 	orr.w	r3, r3, #15728640	; 0xf00000
 81002e8:	f8c2 3088 	str.w	r3, [r2, #136]	; 0x88
  #endif

    /*SEVONPEND enabled so that an interrupt coming from the CPU(n) interrupt signal is
     detectable by the CPU after a WFI/WFE instruction.*/
 SCB->SCR |= SCB_SCR_SEVONPEND_Msk;
 81002ec:	4b05      	ldr	r3, [pc, #20]	; (8100304 <SystemInit+0x2c>)
 81002ee:	691b      	ldr	r3, [r3, #16]
 81002f0:	4a04      	ldr	r2, [pc, #16]	; (8100304 <SystemInit+0x2c>)
 81002f2:	f043 0310 	orr.w	r3, r3, #16
 81002f6:	6113      	str	r3, [r2, #16]
#endif /* USER_VECT_TAB_ADDRESS */

#else
#error Please #define CORE_CM4 or CORE_CM7
#endif /* CORE_CM4 */
}
 81002f8:	bf00      	nop
 81002fa:	46bd      	mov	sp, r7
 81002fc:	f85d 7b04 	ldr.w	r7, [sp], #4
 8100300:	4770      	bx	lr
 8100302:	bf00      	nop
 8100304:	e000ed00 	.word	0xe000ed00

08100308 <main>:
/**
  * @brief  The application entry point.
  * @retval int
  */
int main(void)
{
 8100308:	b580      	push	{r7, lr}
 810030a:	b082      	sub	sp, #8
 810030c:	af00      	add	r7, sp, #0

  /* USER CODE END 1 */

/* USER CODE BEGIN Boot_Mode_Sequence_1 */
  /*HW semaphore Clock enable*/
  __HAL_RCC_HSEM_CLK_ENABLE();
 810030e:	4b31      	ldr	r3, [pc, #196]	; (81003d4 <main+0xcc>)
 8100310:	f8d3 30e0 	ldr.w	r3, [r3, #224]	; 0xe0
 8100314:	4a2f      	ldr	r2, [pc, #188]	; (81003d4 <main+0xcc>)
 8100316:	f043 7300 	orr.w	r3, r3, #33554432	; 0x2000000
 810031a:	f8c2 30e0 	str.w	r3, [r2, #224]	; 0xe0
 810031e:	4b2d      	ldr	r3, [pc, #180]	; (81003d4 <main+0xcc>)
 8100320:	f8d3 30e0 	ldr.w	r3, [r3, #224]	; 0xe0
 8100324:	f003 7300 	and.w	r3, r3, #33554432	; 0x2000000
 8100328:	607b      	str	r3, [r7, #4]
 810032a:	687b      	ldr	r3, [r7, #4]
  /* Activate HSEM notification for Cortex-M4*/
  HAL_HSEM_ActivateNotification(__HAL_HSEM_SEMID_TO_MASK(HSEM_ID_0));
 810032c:	2001      	movs	r0, #1
 810032e:	f000 fb53 	bl	81009d8 <HAL_HSEM_ActivateNotification>
  /*
  Domain D2 goes to STOP mode (Cortex-M4 in deep-sleep) waiting for Cortex-M7 to
  perform system initialization (system clock config, external memory configuration.. )
  */
  HAL_PWREx_ClearPendingEvent();
 8100332:	f000 fbf7 	bl	8100b24 <HAL_PWREx_ClearPendingEvent>
  HAL_PWREx_EnterSTOPMode(PWR_MAINREGULATOR_ON, PWR_STOPENTRY_WFE, PWR_D2_DOMAIN);
 8100336:	2201      	movs	r2, #1
 8100338:	2102      	movs	r1, #2
 810033a:	2000      	movs	r0, #0
 810033c:	f000 fb78 	bl	8100a30 <HAL_PWREx_EnterSTOPMode>
  /* Clear HSEM flag */
  __HAL_HSEM_CLEAR_FLAG(__HAL_HSEM_SEMID_TO_MASK(HSEM_ID_0));
 8100340:	4b25      	ldr	r3, [pc, #148]	; (81003d8 <main+0xd0>)
 8100342:	681b      	ldr	r3, [r3, #0]
 8100344:	091b      	lsrs	r3, r3, #4
 8100346:	f003 030f 	and.w	r3, r3, #15
 810034a:	2b07      	cmp	r3, #7
 810034c:	d108      	bne.n	8100360 <main+0x58>
 810034e:	4b23      	ldr	r3, [pc, #140]	; (81003dc <main+0xd4>)
 8100350:	f8d3 3104 	ldr.w	r3, [r3, #260]	; 0x104
 8100354:	4a21      	ldr	r2, [pc, #132]	; (81003dc <main+0xd4>)
 8100356:	f043 0301 	orr.w	r3, r3, #1
 810035a:	f8c2 3104 	str.w	r3, [r2, #260]	; 0x104
 810035e:	e007      	b.n	8100370 <main+0x68>
 8100360:	4b1e      	ldr	r3, [pc, #120]	; (81003dc <main+0xd4>)
 8100362:	f8d3 3114 	ldr.w	r3, [r3, #276]	; 0x114
 8100366:	4a1d      	ldr	r2, [pc, #116]	; (81003dc <main+0xd4>)
 8100368:	f043 0301 	orr.w	r3, r3, #1
 810036c:	f8c2 3114 	str.w	r3, [r2, #276]	; 0x114

/* USER CODE END Boot_Mode_Sequence_1 */
  /* MCU Configuration--------------------------------------------------------*/

  /* Reset of all peripherals, Initializes the Flash interface and the Systick. */
  HAL_Init();
 8100370:	f000 f8cc 	bl	810050c <HAL_Init>

  /* USER CODE END SysInit */

  /* Initialize all configured peripherals */
  /* USER CODE BEGIN 2 */
  HAL_HSEM_ActivateNotification(__HAL_HSEM_SEMID_TO_MASK(HSEM_ID));
 8100374:	f44f 7000 	mov.w	r0, #512	; 0x200
 8100378:	f000 fb2e 	bl	81009d8 <HAL_HSEM_ActivateNotification>
  huart3.Instance=USART3;
 810037c:	4b18      	ldr	r3, [pc, #96]	; (81003e0 <main+0xd8>)
 810037e:	4a19      	ldr	r2, [pc, #100]	; (81003e4 <main+0xdc>)
 8100380:	601a      	str	r2, [r3, #0]
  UART_CheckIdleState(&huart3);
 8100382:	4817      	ldr	r0, [pc, #92]	; (81003e0 <main+0xd8>)
 8100384:	f000 fdec 	bl	8100f60 <UART_CheckIdleState>

  /* Infinite loop */
  /* USER CODE BEGIN WHILE */
  while (1)
  {
	  if(HAL_HSEM_Take(HSEM_ID,HSEM_PROCESS )==HAL_OK)
 8100388:	2104      	movs	r1, #4
 810038a:	2009      	movs	r0, #9
 810038c:	f000 faec 	bl	8100968 <HAL_HSEM_Take>
 8100390:	4603      	mov	r3, r0
 8100392:	2b00      	cmp	r3, #0
 8100394:	d110      	bne.n	81003b8 <main+0xb0>
	  	  {
	  		  semaphore_status=0;
 8100396:	4b14      	ldr	r3, [pc, #80]	; (81003e8 <main+0xe0>)
 8100398:	2200      	movs	r2, #0
 810039a:	701a      	strb	r2, [r3, #0]
	  		  HAL_NVIC_DisableIRQ(HSEM1_IRQn);
 810039c:	207d      	movs	r0, #125	; 0x7d
 810039e:	f000 fab4 	bl	810090a <HAL_NVIC_DisableIRQ>
	  		  HAL_UART_Transmit(&huart3, "CM4\r\n",6, 200);
 81003a2:	23c8      	movs	r3, #200	; 0xc8
 81003a4:	2206      	movs	r2, #6
 81003a6:	4911      	ldr	r1, [pc, #68]	; (81003ec <main+0xe4>)
 81003a8:	480d      	ldr	r0, [pc, #52]	; (81003e0 <main+0xd8>)
 81003aa:	f000 fd43 	bl	8100e34 <HAL_UART_Transmit>
	  		  HAL_HSEM_Release(HSEM_ID,HSEM_PROCESS );
 81003ae:	2104      	movs	r1, #4
 81003b0:	2009      	movs	r0, #9
 81003b2:	f000 fafd 	bl	81009b0 <HAL_HSEM_Release>
 81003b6:	e007      	b.n	81003c8 <main+0xc0>
	  	  }
	  	  else
	  	  {
	  		  HAL_NVIC_EnableIRQ(HSEM1_IRQn);
 81003b8:	207d      	movs	r0, #125	; 0x7d
 81003ba:	f000 fa98 	bl	81008ee <HAL_NVIC_EnableIRQ>
	  		  while(semaphore_status==0);
 81003be:	bf00      	nop
 81003c0:	4b09      	ldr	r3, [pc, #36]	; (81003e8 <main+0xe0>)
 81003c2:	781b      	ldrb	r3, [r3, #0]
 81003c4:	2b00      	cmp	r3, #0
 81003c6:	d0fb      	beq.n	81003c0 <main+0xb8>
	  	  }
	  	  HAL_Delay(1000);
 81003c8:	f44f 707a 	mov.w	r0, #1000	; 0x3e8
 81003cc:	f000 f952 	bl	8100674 <HAL_Delay>
	  if(HAL_HSEM_Take(HSEM_ID,HSEM_PROCESS )==HAL_OK)
 81003d0:	e7da      	b.n	8100388 <main+0x80>
 81003d2:	bf00      	nop
 81003d4:	58024400 	.word	0x58024400
 81003d8:	e000ed00 	.word	0xe000ed00
 81003dc:	58026400 	.word	0x58026400
 81003e0:	1000002c 	.word	0x1000002c
 81003e4:	40004800 	.word	0x40004800
 81003e8:	100000bc 	.word	0x100000bc
 81003ec:	081011e8 	.word	0x081011e8

081003f0 <HAL_HSEM_FreeCallback>:

}

/* USER CODE BEGIN 4 */
void HAL_HSEM_FreeCallback(uint32_t SemMask)
{
 81003f0:	b480      	push	{r7}
 81003f2:	b083      	sub	sp, #12
 81003f4:	af00      	add	r7, sp, #0
 81003f6:	6078      	str	r0, [r7, #4]
	if((SemMask &__HAL_HSEM_SEMID_TO_MASK(HSEM_ID))!=0)
 81003f8:	687b      	ldr	r3, [r7, #4]
 81003fa:	f403 7300 	and.w	r3, r3, #512	; 0x200
 81003fe:	2b00      	cmp	r3, #0
 8100400:	d002      	beq.n	8100408 <HAL_HSEM_FreeCallback+0x18>
	semaphore_status=1;
 8100402:	4b04      	ldr	r3, [pc, #16]	; (8100414 <HAL_HSEM_FreeCallback+0x24>)
 8100404:	2201      	movs	r2, #1
 8100406:	701a      	strb	r2, [r3, #0]
}
 8100408:	bf00      	nop
 810040a:	370c      	adds	r7, #12
 810040c:	46bd      	mov	sp, r7
 810040e:	f85d 7b04 	ldr.w	r7, [sp], #4
 8100412:	4770      	bx	lr
 8100414:	100000bc 	.word	0x100000bc

08100418 <HAL_MspInit>:
/* USER CODE END 0 */
/**
  * Initializes the Global MSP.
  */
void HAL_MspInit(void)
{
 8100418:	b580      	push	{r7, lr}
 810041a:	b082      	sub	sp, #8
 810041c:	af00      	add	r7, sp, #0
  /* USER CODE BEGIN MspInit 0 */

  /* USER CODE END MspInit 0 */

  __HAL_RCC_SYSCFG_CLK_ENABLE();
 810041e:	4b0d      	ldr	r3, [pc, #52]	; (8100454 <HAL_MspInit+0x3c>)
 8100420:	f8d3 30f4 	ldr.w	r3, [r3, #244]	; 0xf4
 8100424:	4a0b      	ldr	r2, [pc, #44]	; (8100454 <HAL_MspInit+0x3c>)
 8100426:	f043 0302 	orr.w	r3, r3, #2
 810042a:	f8c2 30f4 	str.w	r3, [r2, #244]	; 0xf4
 810042e:	4b09      	ldr	r3, [pc, #36]	; (8100454 <HAL_MspInit+0x3c>)
 8100430:	f8d3 30f4 	ldr.w	r3, [r3, #244]	; 0xf4
 8100434:	f003 0302 	and.w	r3, r3, #2
 8100438:	607b      	str	r3, [r7, #4]
 810043a:	687b      	ldr	r3, [r7, #4]

  /* System interrupt init*/

  /* Peripheral interrupt init */
  /* HSEM2_IRQn interrupt configuration */
  HAL_NVIC_SetPriority(HSEM2_IRQn, 0, 0);
 810043c:	2200      	movs	r2, #0
 810043e:	2100      	movs	r1, #0
 8100440:	207e      	movs	r0, #126	; 0x7e
 8100442:	f000 fa3a 	bl	81008ba <HAL_NVIC_SetPriority>
  /* HSEM2_IRQn interrupt configuration */
  HAL_NVIC_EnableIRQ(HSEM2_IRQn);
 8100446:	207e      	movs	r0, #126	; 0x7e
 8100448:	f000 fa51 	bl	81008ee <HAL_NVIC_EnableIRQ>

  /* USER CODE BEGIN MspInit 1 */

  /* USER CODE END MspInit 1 */
}
 810044c:	bf00      	nop
 810044e:	3708      	adds	r7, #8
 8100450:	46bd      	mov	sp, r7
 8100452:	bd80      	pop	{r7, pc}
 8100454:	58024400 	.word	0x58024400

08100458 <NMI_Handler>:
/******************************************************************************/
/**
  * @brief This function handles Non maskable interrupt.
  */
void NMI_Handler(void)
{
 8100458:	b480      	push	{r7}
 810045a:	af00      	add	r7, sp, #0
  /* USER CODE BEGIN NonMaskableInt_IRQn 0 */

  /* USER CODE END NonMaskableInt_IRQn 0 */
  /* USER CODE BEGIN NonMaskableInt_IRQn 1 */
  while (1)
 810045c:	e7fe      	b.n	810045c <NMI_Handler+0x4>

0810045e <HardFault_Handler>:

/**
  * @brief This function handles Hard fault interrupt.
  */
void HardFault_Handler(void)
{
 810045e:	b480      	push	{r7}
 8100460:	af00      	add	r7, sp, #0
  /* USER CODE BEGIN HardFault_IRQn 0 */

  /* USER CODE END HardFault_IRQn 0 */
  while (1)
 8100462:	e7fe      	b.n	8100462 <HardFault_Handler+0x4>

08100464 <MemManage_Handler>:

/**
  * @brief This function handles Memory management fault.
  */
void MemManage_Handler(void)
{
 8100464:	b480      	push	{r7}
 8100466:	af00      	add	r7, sp, #0
  /* USER CODE BEGIN MemoryManagement_IRQn 0 */

  /* USER CODE END MemoryManagement_IRQn 0 */
  while (1)
 8100468:	e7fe      	b.n	8100468 <MemManage_Handler+0x4>

0810046a <BusFault_Handler>:

/**
  * @brief This function handles Pre-fetch fault, memory access fault.
  */
void BusFault_Handler(void)
{
 810046a:	b480      	push	{r7}
 810046c:	af00      	add	r7, sp, #0
  /* USER CODE BEGIN BusFault_IRQn 0 */

  /* USER CODE END BusFault_IRQn 0 */
  while (1)
 810046e:	e7fe      	b.n	810046e <BusFault_Handler+0x4>

08100470 <UsageFault_Handler>:

/**
  * @brief This function handles Undefined instruction or illegal state.
  */
void UsageFault_Handler(void)
{
 8100470:	b480      	push	{r7}
 8100472:	af00      	add	r7, sp, #0
  /* USER CODE BEGIN UsageFault_IRQn 0 */

  /* USER CODE END UsageFault_IRQn 0 */
  while (1)
 8100474:	e7fe      	b.n	8100474 <UsageFault_Handler+0x4>

08100476 <SVC_Handler>:

/**
  * @brief This function handles System service call via SWI instruction.
  */
void SVC_Handler(void)
{
 8100476:	b480      	push	{r7}
 8100478:	af00      	add	r7, sp, #0

  /* USER CODE END SVCall_IRQn 0 */
  /* USER CODE BEGIN SVCall_IRQn 1 */

  /* USER CODE END SVCall_IRQn 1 */
}
 810047a:	bf00      	nop
 810047c:	46bd      	mov	sp, r7
 810047e:	f85d 7b04 	ldr.w	r7, [sp], #4
 8100482:	4770      	bx	lr

08100484 <DebugMon_Handler>:

/**
  * @brief This function handles Debug monitor.
  */
void DebugMon_Handler(void)
{
 8100484:	b480      	push	{r7}
 8100486:	af00      	add	r7, sp, #0

  /* USER CODE END DebugMonitor_IRQn 0 */
  /* USER CODE BEGIN DebugMonitor_IRQn 1 */

  /* USER CODE END DebugMonitor_IRQn 1 */
}
 8100488:	bf00      	nop
 810048a:	46bd      	mov	sp, r7
 810048c:	f85d 7b04 	ldr.w	r7, [sp], #4
 8100490:	4770      	bx	lr

08100492 <PendSV_Handler>:

/**
  * @brief This function handles Pendable request for system service.
  */
void PendSV_Handler(void)
{
 8100492:	b480      	push	{r7}
 8100494:	af00      	add	r7, sp, #0

  /* USER CODE END PendSV_IRQn 0 */
  /* USER CODE BEGIN PendSV_IRQn 1 */

  /* USER CODE END PendSV_IRQn 1 */
}
 8100496:	bf00      	nop
 8100498:	46bd      	mov	sp, r7
 810049a:	f85d 7b04 	ldr.w	r7, [sp], #4
 810049e:	4770      	bx	lr

081004a0 <SysTick_Handler>:

/**
  * @brief This function handles System tick timer.
  */
void SysTick_Handler(void)
{
 81004a0:	b580      	push	{r7, lr}
 81004a2:	af00      	add	r7, sp, #0
  /* USER CODE BEGIN SysTick_IRQn 0 */

  /* USER CODE END SysTick_IRQn 0 */
  HAL_IncTick();
 81004a4:	f000 f8c6 	bl	8100634 <HAL_IncTick>
  /* USER CODE BEGIN SysTick_IRQn 1 */

  /* USER CODE END SysTick_IRQn 1 */
}
 81004a8:	bf00      	nop
 81004aa:	bd80      	pop	{r7, pc}

081004ac <HSEM2_IRQHandler>:

/**
  * @brief This function handles HSEM2 global interrupt.
  */
void HSEM2_IRQHandler(void)
{
 81004ac:	b580      	push	{r7, lr}
 81004ae:	af00      	add	r7, sp, #0
  /* USER CODE BEGIN HSEM2_IRQn 0 */

  /* USER CODE END HSEM2_IRQn 0 */
  HAL_HSEM_IRQHandler();
 81004b0:	f000 faa4 	bl	81009fc <HAL_HSEM_IRQHandler>
  /* USER CODE BEGIN HSEM2_IRQn 1 */

  /* USER CODE END HSEM2_IRQn 1 */
}
 81004b4:	bf00      	nop
 81004b6:	bd80      	pop	{r7, pc}

081004b8 <Reset_Handler>:

    .section  .text.Reset_Handler
  .weak  Reset_Handler
  .type  Reset_Handler, %function
Reset_Handler:
  ldr   sp, =_estack      /* set stack pointer */
 81004b8:	f8df d034 	ldr.w	sp, [pc, #52]	; 81004f0 <LoopFillZerobss+0xe>

/* Call the clock system initialization function.*/
  bl  SystemInit
 81004bc:	f7ff ff0c 	bl	81002d8 <SystemInit>

/* Copy the data segment initializers from flash to SRAM */
  ldr r0, =_sdata
 81004c0:	480c      	ldr	r0, [pc, #48]	; (81004f4 <LoopFillZerobss+0x12>)
  ldr r1, =_edata
 81004c2:	490d      	ldr	r1, [pc, #52]	; (81004f8 <LoopFillZerobss+0x16>)
  ldr r2, =_sidata
 81004c4:	4a0d      	ldr	r2, [pc, #52]	; (81004fc <LoopFillZerobss+0x1a>)
  movs r3, #0
 81004c6:	2300      	movs	r3, #0
  b LoopCopyDataInit
 81004c8:	e002      	b.n	81004d0 <LoopCopyDataInit>

081004ca <CopyDataInit>:

CopyDataInit:
  ldr r4, [r2, r3]
 81004ca:	58d4      	ldr	r4, [r2, r3]
  str r4, [r0, r3]
 81004cc:	50c4      	str	r4, [r0, r3]
  adds r3, r3, #4
 81004ce:	3304      	adds	r3, #4

081004d0 <LoopCopyDataInit>:

LoopCopyDataInit:
  adds r4, r0, r3
 81004d0:	18c4      	adds	r4, r0, r3
  cmp r4, r1
 81004d2:	428c      	cmp	r4, r1
  bcc CopyDataInit
 81004d4:	d3f9      	bcc.n	81004ca <CopyDataInit>
/* Zero fill the bss segment. */
  ldr r2, =_sbss
 81004d6:	4a0a      	ldr	r2, [pc, #40]	; (8100500 <LoopFillZerobss+0x1e>)
  ldr r4, =_ebss
 81004d8:	4c0a      	ldr	r4, [pc, #40]	; (8100504 <LoopFillZerobss+0x22>)
  movs r3, #0
 81004da:	2300      	movs	r3, #0
  b LoopFillZerobss
 81004dc:	e001      	b.n	81004e2 <LoopFillZerobss>

081004de <FillZerobss>:

FillZerobss:
  str  r3, [r2]
 81004de:	6013      	str	r3, [r2, #0]
  adds r2, r2, #4
 81004e0:	3204      	adds	r2, #4

081004e2 <LoopFillZerobss>:

LoopFillZerobss:
  cmp r2, r4
 81004e2:	42a2      	cmp	r2, r4
  bcc FillZerobss
 81004e4:	d3fb      	bcc.n	81004de <FillZerobss>

/* Call static constructors */
    bl __libc_init_array
 81004e6:	f000 fe4f 	bl	8101188 <__libc_init_array>
/* Call the application's entry point.*/
  bl  main
 81004ea:	f7ff ff0d 	bl	8100308 <main>
  bx  lr
 81004ee:	4770      	bx	lr
  ldr   sp, =_estack      /* set stack pointer */
 81004f0:	10048000 	.word	0x10048000
  ldr r0, =_sdata
 81004f4:	10000000 	.word	0x10000000
  ldr r1, =_edata
 81004f8:	10000010 	.word	0x10000010
  ldr r2, =_sidata
 81004fc:	08101208 	.word	0x08101208
  ldr r2, =_sbss
 8100500:	10000010 	.word	0x10000010
  ldr r4, =_ebss
 8100504:	100000c4 	.word	0x100000c4

08100508 <ADC3_IRQHandler>:
 * @retval None
*/
    .section  .text.Default_Handler,"ax",%progbits
Default_Handler:
Infinite_Loop:
  b  Infinite_Loop
 8100508:	e7fe      	b.n	8100508 <ADC3_IRQHandler>
	...

0810050c <HAL_Init>:
  *         need to ensure that the SysTick time base is always set to 1 millisecond
  *         to have correct HAL operation.
  * @retval HAL status
  */
HAL_StatusTypeDef HAL_Init(void)
{
 810050c:	b580      	push	{r7, lr}
 810050e:	b082      	sub	sp, #8
 8100510:	af00      	add	r7, sp, #0

uint32_t common_system_clock;

#if defined(DUAL_CORE) && defined(CORE_CM4)
   /* Configure Cortex-M4 Instruction cache through ART accelerator */
   __HAL_RCC_ART_CLK_ENABLE();                   /* Enable the Cortex-M4 ART Clock */
 8100512:	4b28      	ldr	r3, [pc, #160]	; (81005b4 <HAL_Init+0xa8>)
 8100514:	f8d3 30d8 	ldr.w	r3, [r3, #216]	; 0xd8
 8100518:	4a26      	ldr	r2, [pc, #152]	; (81005b4 <HAL_Init+0xa8>)
 810051a:	f443 4380 	orr.w	r3, r3, #16384	; 0x4000
 810051e:	f8c2 30d8 	str.w	r3, [r2, #216]	; 0xd8
 8100522:	4b24      	ldr	r3, [pc, #144]	; (81005b4 <HAL_Init+0xa8>)
 8100524:	f8d3 30d8 	ldr.w	r3, [r3, #216]	; 0xd8
 8100528:	f403 4380 	and.w	r3, r3, #16384	; 0x4000
 810052c:	603b      	str	r3, [r7, #0]
 810052e:	683b      	ldr	r3, [r7, #0]
   __HAL_ART_CONFIG_BASE_ADDRESS(0x08100000UL);  /* Configure the Cortex-M4 ART Base address to the Flash Bank 2 : */
 8100530:	4b21      	ldr	r3, [pc, #132]	; (81005b8 <HAL_Init+0xac>)
 8100532:	681b      	ldr	r3, [r3, #0]
 8100534:	f423 237f 	bic.w	r3, r3, #1044480	; 0xff000
 8100538:	f423 6370 	bic.w	r3, r3, #3840	; 0xf00
 810053c:	4a1e      	ldr	r2, [pc, #120]	; (81005b8 <HAL_Init+0xac>)
 810053e:	f443 4301 	orr.w	r3, r3, #33024	; 0x8100
 8100542:	6013      	str	r3, [r2, #0]
   __HAL_ART_ENABLE();                           /* Enable the Cortex-M4 ART */
 8100544:	4b1c      	ldr	r3, [pc, #112]	; (81005b8 <HAL_Init+0xac>)
 8100546:	681b      	ldr	r3, [r3, #0]
 8100548:	4a1b      	ldr	r2, [pc, #108]	; (81005b8 <HAL_Init+0xac>)
 810054a:	f043 0301 	orr.w	r3, r3, #1
 810054e:	6013      	str	r3, [r2, #0]
#endif /* DUAL_CORE &&  CORE_CM4 */

  /* Set Interrupt Group Priority */
  HAL_NVIC_SetPriorityGrouping(NVIC_PRIORITYGROUP_4);
 8100550:	2003      	movs	r0, #3
 8100552:	f000 f9a7 	bl	81008a4 <HAL_NVIC_SetPriorityGrouping>

  /* Update the SystemCoreClock global variable */
#if defined(RCC_D1CFGR_D1CPRE)
  common_system_clock = HAL_RCC_GetSysClockFreq() >> ((D1CorePrescTable[(RCC->D1CFGR & RCC_D1CFGR_D1CPRE)>> RCC_D1CFGR_D1CPRE_Pos]) & 0x1FU);
 8100556:	f000 faf3 	bl	8100b40 <HAL_RCC_GetSysClockFreq>
 810055a:	4602      	mov	r2, r0
 810055c:	4b15      	ldr	r3, [pc, #84]	; (81005b4 <HAL_Init+0xa8>)
 810055e:	699b      	ldr	r3, [r3, #24]
 8100560:	0a1b      	lsrs	r3, r3, #8
 8100562:	f003 030f 	and.w	r3, r3, #15
 8100566:	4915      	ldr	r1, [pc, #84]	; (81005bc <HAL_Init+0xb0>)
 8100568:	5ccb      	ldrb	r3, [r1, r3]
 810056a:	f003 031f 	and.w	r3, r3, #31
 810056e:	fa22 f303 	lsr.w	r3, r2, r3
 8100572:	607b      	str	r3, [r7, #4]
  common_system_clock = HAL_RCC_GetSysClockFreq() >> ((D1CorePrescTable[(RCC->CDCFGR1 & RCC_CDCFGR1_CDCPRE)>> RCC_CDCFGR1_CDCPRE_Pos]) & 0x1FU);
#endif

  /* Update the SystemD2Clock global variable */
#if defined(RCC_D1CFGR_HPRE)
  SystemD2Clock = (common_system_clock >> ((D1CorePrescTable[(RCC->D1CFGR & RCC_D1CFGR_HPRE)>> RCC_D1CFGR_HPRE_Pos]) & 0x1FU));
 8100574:	4b0f      	ldr	r3, [pc, #60]	; (81005b4 <HAL_Init+0xa8>)
 8100576:	699b      	ldr	r3, [r3, #24]
 8100578:	f003 030f 	and.w	r3, r3, #15
 810057c:	4a0f      	ldr	r2, [pc, #60]	; (81005bc <HAL_Init+0xb0>)
 810057e:	5cd3      	ldrb	r3, [r2, r3]
 8100580:	f003 031f 	and.w	r3, r3, #31
 8100584:	687a      	ldr	r2, [r7, #4]
 8100586:	fa22 f303 	lsr.w	r3, r2, r3
 810058a:	4a0d      	ldr	r2, [pc, #52]	; (81005c0 <HAL_Init+0xb4>)
 810058c:	6013      	str	r3, [r2, #0]
#else
  SystemD2Clock = (common_system_clock >> ((D1CorePrescTable[(RCC->CDCFGR1 & RCC_CDCFGR1_HPRE)>> RCC_CDCFGR1_HPRE_Pos]) & 0x1FU));
#endif

#if defined(DUAL_CORE) && defined(CORE_CM4)
  SystemCoreClock = SystemD2Clock;
 810058e:	4b0c      	ldr	r3, [pc, #48]	; (81005c0 <HAL_Init+0xb4>)
 8100590:	681b      	ldr	r3, [r3, #0]
 8100592:	4a0c      	ldr	r2, [pc, #48]	; (81005c4 <HAL_Init+0xb8>)
 8100594:	6013      	str	r3, [r2, #0]
#else
  SystemCoreClock = common_system_clock;
#endif /* DUAL_CORE && CORE_CM4 */

  /* Use systick as time base source and configure 1ms tick (default clock after Reset is HSI) */
  if(HAL_InitTick(TICK_INT_PRIORITY) != HAL_OK)
 8100596:	2000      	movs	r0, #0
 8100598:	f000 f816 	bl	81005c8 <HAL_InitTick>
 810059c:	4603      	mov	r3, r0
 810059e:	2b00      	cmp	r3, #0
 81005a0:	d001      	beq.n	81005a6 <HAL_Init+0x9a>
  {
    return HAL_ERROR;
 81005a2:	2301      	movs	r3, #1
 81005a4:	e002      	b.n	81005ac <HAL_Init+0xa0>
  }

  /* Init the low level hardware */
  HAL_MspInit();
 81005a6:	f7ff ff37 	bl	8100418 <HAL_MspInit>

  /* Return function status */
  return HAL_OK;
 81005aa:	2300      	movs	r3, #0
}
 81005ac:	4618      	mov	r0, r3
 81005ae:	3708      	adds	r7, #8
 81005b0:	46bd      	mov	sp, r7
 81005b2:	bd80      	pop	{r7, pc}
 81005b4:	58024400 	.word	0x58024400
 81005b8:	40024400 	.word	0x40024400
 81005bc:	081011f0 	.word	0x081011f0
 81005c0:	10000004 	.word	0x10000004
 81005c4:	10000000 	.word	0x10000000

081005c8 <HAL_InitTick>:
  *       implementation  in user file.
  * @param TickPriority: Tick interrupt priority.
  * @retval HAL status
  */
__weak HAL_StatusTypeDef HAL_InitTick(uint32_t TickPriority)
{
 81005c8:	b580      	push	{r7, lr}
 81005ca:	b082      	sub	sp, #8
 81005cc:	af00      	add	r7, sp, #0
 81005ce:	6078      	str	r0, [r7, #4]
  /* Check uwTickFreq for MisraC 2012 (even if uwTickFreq is a enum type that don't take the value zero)*/
  if((uint32_t)uwTickFreq == 0UL)
 81005d0:	4b15      	ldr	r3, [pc, #84]	; (8100628 <HAL_InitTick+0x60>)
 81005d2:	781b      	ldrb	r3, [r3, #0]
 81005d4:	2b00      	cmp	r3, #0
 81005d6:	d101      	bne.n	81005dc <HAL_InitTick+0x14>
  {
    return HAL_ERROR;
 81005d8:	2301      	movs	r3, #1
 81005da:	e021      	b.n	8100620 <HAL_InitTick+0x58>
  }

    /* Configure the SysTick to have interrupt in 1ms time basis*/
    if (HAL_SYSTICK_Config(SystemCoreClock / (1000UL / (uint32_t)uwTickFreq)) > 0U)
 81005dc:	4b13      	ldr	r3, [pc, #76]	; (810062c <HAL_InitTick+0x64>)
 81005de:	681a      	ldr	r2, [r3, #0]
 81005e0:	4b11      	ldr	r3, [pc, #68]	; (8100628 <HAL_InitTick+0x60>)
 81005e2:	781b      	ldrb	r3, [r3, #0]
 81005e4:	4619      	mov	r1, r3
 81005e6:	f44f 737a 	mov.w	r3, #1000	; 0x3e8
 81005ea:	fbb3 f3f1 	udiv	r3, r3, r1
 81005ee:	fbb2 f3f3 	udiv	r3, r2, r3
 81005f2:	4618      	mov	r0, r3
 81005f4:	f000 f997 	bl	8100926 <HAL_SYSTICK_Config>
 81005f8:	4603      	mov	r3, r0
 81005fa:	2b00      	cmp	r3, #0
 81005fc:	d001      	beq.n	8100602 <HAL_InitTick+0x3a>
    {
      return HAL_ERROR;
 81005fe:	2301      	movs	r3, #1
 8100600:	e00e      	b.n	8100620 <HAL_InitTick+0x58>
    }

  /* Configure the SysTick IRQ priority */
  if (TickPriority < (1UL << __NVIC_PRIO_BITS))
 8100602:	687b      	ldr	r3, [r7, #4]
 8100604:	2b0f      	cmp	r3, #15
 8100606:	d80a      	bhi.n	810061e <HAL_InitTick+0x56>
  {
    HAL_NVIC_SetPriority(SysTick_IRQn, TickPriority, 0U);
 8100608:	2200      	movs	r2, #0
 810060a:	6879      	ldr	r1, [r7, #4]
 810060c:	f04f 30ff 	mov.w	r0, #4294967295
 8100610:	f000 f953 	bl	81008ba <HAL_NVIC_SetPriority>
    uwTickPrio = TickPriority;
 8100614:	4a06      	ldr	r2, [pc, #24]	; (8100630 <HAL_InitTick+0x68>)
 8100616:	687b      	ldr	r3, [r7, #4]
 8100618:	6013      	str	r3, [r2, #0]
  {
    return HAL_ERROR;
  }

  /* Return function status */
  return HAL_OK;
 810061a:	2300      	movs	r3, #0
 810061c:	e000      	b.n	8100620 <HAL_InitTick+0x58>
    return HAL_ERROR;
 810061e:	2301      	movs	r3, #1
}
 8100620:	4618      	mov	r0, r3
 8100622:	3708      	adds	r7, #8
 8100624:	46bd      	mov	sp, r7
 8100626:	bd80      	pop	{r7, pc}
 8100628:	1000000c 	.word	0x1000000c
 810062c:	10000000 	.word	0x10000000
 8100630:	10000008 	.word	0x10000008

08100634 <HAL_IncTick>:
 * @note This function is declared as __weak to be overwritten in case of other
  *      implementations in user file.
  * @retval None
  */
__weak void HAL_IncTick(void)
{
 8100634:	b480      	push	{r7}
 8100636:	af00      	add	r7, sp, #0
  uwTick += (uint32_t)uwTickFreq;
 8100638:	4b06      	ldr	r3, [pc, #24]	; (8100654 <HAL_IncTick+0x20>)
 810063a:	781b      	ldrb	r3, [r3, #0]
 810063c:	461a      	mov	r2, r3
 810063e:	4b06      	ldr	r3, [pc, #24]	; (8100658 <HAL_IncTick+0x24>)
 8100640:	681b      	ldr	r3, [r3, #0]
 8100642:	4413      	add	r3, r2
 8100644:	4a04      	ldr	r2, [pc, #16]	; (8100658 <HAL_IncTick+0x24>)
 8100646:	6013      	str	r3, [r2, #0]
}
 8100648:	bf00      	nop
 810064a:	46bd      	mov	sp, r7
 810064c:	f85d 7b04 	ldr.w	r7, [sp], #4
 8100650:	4770      	bx	lr
 8100652:	bf00      	nop
 8100654:	1000000c 	.word	0x1000000c
 8100658:	100000c0 	.word	0x100000c0

0810065c <HAL_GetTick>:
  * @note This function is declared as __weak to be overwritten in case of other
  *       implementations in user file.
  * @retval tick value
  */
__weak uint32_t HAL_GetTick(void)
{
 810065c:	b480      	push	{r7}
 810065e:	af00      	add	r7, sp, #0
  return uwTick;
 8100660:	4b03      	ldr	r3, [pc, #12]	; (8100670 <HAL_GetTick+0x14>)
 8100662:	681b      	ldr	r3, [r3, #0]
}
 8100664:	4618      	mov	r0, r3
 8100666:	46bd      	mov	sp, r7
 8100668:	f85d 7b04 	ldr.w	r7, [sp], #4
 810066c:	4770      	bx	lr
 810066e:	bf00      	nop
 8100670:	100000c0 	.word	0x100000c0

08100674 <HAL_Delay>:
  *       implementations in user file.
  * @param Delay  specifies the delay time length, in milliseconds.
  * @retval None
  */
__weak void HAL_Delay(uint32_t Delay)
{
 8100674:	b580      	push	{r7, lr}
 8100676:	b084      	sub	sp, #16
 8100678:	af00      	add	r7, sp, #0
 810067a:	6078      	str	r0, [r7, #4]
  uint32_t tickstart = HAL_GetTick();
 810067c:	f7ff ffee 	bl	810065c <HAL_GetTick>
 8100680:	60b8      	str	r0, [r7, #8]
  uint32_t wait = Delay;
 8100682:	687b      	ldr	r3, [r7, #4]
 8100684:	60fb      	str	r3, [r7, #12]

  /* Add a freq to guarantee minimum wait */
  if (wait < HAL_MAX_DELAY)
 8100686:	68fb      	ldr	r3, [r7, #12]
 8100688:	f1b3 3fff 	cmp.w	r3, #4294967295
 810068c:	d005      	beq.n	810069a <HAL_Delay+0x26>
  {
    wait += (uint32_t)(uwTickFreq);
 810068e:	4b0a      	ldr	r3, [pc, #40]	; (81006b8 <HAL_Delay+0x44>)
 8100690:	781b      	ldrb	r3, [r3, #0]
 8100692:	461a      	mov	r2, r3
 8100694:	68fb      	ldr	r3, [r7, #12]
 8100696:	4413      	add	r3, r2
 8100698:	60fb      	str	r3, [r7, #12]
  }

  while ((HAL_GetTick() - tickstart) < wait)
 810069a:	bf00      	nop
 810069c:	f7ff ffde 	bl	810065c <HAL_GetTick>
 81006a0:	4602      	mov	r2, r0
 81006a2:	68bb      	ldr	r3, [r7, #8]
 81006a4:	1ad3      	subs	r3, r2, r3
 81006a6:	68fa      	ldr	r2, [r7, #12]
 81006a8:	429a      	cmp	r2, r3
 81006aa:	d8f7      	bhi.n	810069c <HAL_Delay+0x28>
  {
  }
}
 81006ac:	bf00      	nop
 81006ae:	bf00      	nop
 81006b0:	3710      	adds	r7, #16
 81006b2:	46bd      	mov	sp, r7
 81006b4:	bd80      	pop	{r7, pc}
 81006b6:	bf00      	nop
 81006b8:	1000000c 	.word	0x1000000c

081006bc <__NVIC_SetPriorityGrouping>:
           In case of a conflict between priority grouping and available
           priority bits (__NVIC_PRIO_BITS), the smallest possible priority group is set.
  \param [in]      PriorityGroup  Priority grouping field.
 */
__STATIC_INLINE void __NVIC_SetPriorityGrouping(uint32_t PriorityGroup)
{
 81006bc:	b480      	push	{r7}
 81006be:	b085      	sub	sp, #20
 81006c0:	af00      	add	r7, sp, #0
 81006c2:	6078      	str	r0, [r7, #4]
  uint32_t reg_value;
  uint32_t PriorityGroupTmp = (PriorityGroup & (uint32_t)0x07UL);             /* only values 0..7 are used          */
 81006c4:	687b      	ldr	r3, [r7, #4]
 81006c6:	f003 0307 	and.w	r3, r3, #7
 81006ca:	60fb      	str	r3, [r7, #12]

  reg_value  =  SCB->AIRCR;                                                   /* read old register configuration    */
 81006cc:	4b0c      	ldr	r3, [pc, #48]	; (8100700 <__NVIC_SetPriorityGrouping+0x44>)
 81006ce:	68db      	ldr	r3, [r3, #12]
 81006d0:	60bb      	str	r3, [r7, #8]
  reg_value &= ~((uint32_t)(SCB_AIRCR_VECTKEY_Msk | SCB_AIRCR_PRIGROUP_Msk)); /* clear bits to change               */
 81006d2:	68ba      	ldr	r2, [r7, #8]
 81006d4:	f64f 03ff 	movw	r3, #63743	; 0xf8ff
 81006d8:	4013      	ands	r3, r2
 81006da:	60bb      	str	r3, [r7, #8]
  reg_value  =  (reg_value                                   |
                ((uint32_t)0x5FAUL << SCB_AIRCR_VECTKEY_Pos) |
                (PriorityGroupTmp << SCB_AIRCR_PRIGROUP_Pos)  );              /* Insert write key and priority group */
 81006dc:	68fb      	ldr	r3, [r7, #12]
 81006de:	021a      	lsls	r2, r3, #8
                ((uint32_t)0x5FAUL << SCB_AIRCR_VECTKEY_Pos) |
 81006e0:	68bb      	ldr	r3, [r7, #8]
 81006e2:	4313      	orrs	r3, r2
  reg_value  =  (reg_value                                   |
 81006e4:	f043 63bf 	orr.w	r3, r3, #100139008	; 0x5f80000
 81006e8:	f443 3300 	orr.w	r3, r3, #131072	; 0x20000
 81006ec:	60bb      	str	r3, [r7, #8]
  SCB->AIRCR =  reg_value;
 81006ee:	4a04      	ldr	r2, [pc, #16]	; (8100700 <__NVIC_SetPriorityGrouping+0x44>)
 81006f0:	68bb      	ldr	r3, [r7, #8]
 81006f2:	60d3      	str	r3, [r2, #12]
}
 81006f4:	bf00      	nop
 81006f6:	3714      	adds	r7, #20
 81006f8:	46bd      	mov	sp, r7
 81006fa:	f85d 7b04 	ldr.w	r7, [sp], #4
 81006fe:	4770      	bx	lr
 8100700:	e000ed00 	.word	0xe000ed00

08100704 <__NVIC_GetPriorityGrouping>:
  \brief   Get Priority Grouping
  \details Reads the priority grouping field from the NVIC Interrupt Controller.
  \return                Priority grouping field (SCB->AIRCR [10:8] PRIGROUP field).
 */
__STATIC_INLINE uint32_t __NVIC_GetPriorityGrouping(void)
{
 8100704:	b480      	push	{r7}
 8100706:	af00      	add	r7, sp, #0
  return ((uint32_t)((SCB->AIRCR & SCB_AIRCR_PRIGROUP_Msk) >> SCB_AIRCR_PRIGROUP_Pos));
 8100708:	4b04      	ldr	r3, [pc, #16]	; (810071c <__NVIC_GetPriorityGrouping+0x18>)
 810070a:	68db      	ldr	r3, [r3, #12]
 810070c:	0a1b      	lsrs	r3, r3, #8
 810070e:	f003 0307 	and.w	r3, r3, #7
}
 8100712:	4618      	mov	r0, r3
 8100714:	46bd      	mov	sp, r7
 8100716:	f85d 7b04 	ldr.w	r7, [sp], #4
 810071a:	4770      	bx	lr
 810071c:	e000ed00 	.word	0xe000ed00

08100720 <__NVIC_EnableIRQ>:
  \details Enables a device specific interrupt in the NVIC interrupt controller.
  \param [in]      IRQn  Device specific interrupt number.
  \note    IRQn must not be negative.
 */
__STATIC_INLINE void __NVIC_EnableIRQ(IRQn_Type IRQn)
{
 8100720:	b480      	push	{r7}
 8100722:	b083      	sub	sp, #12
 8100724:	af00      	add	r7, sp, #0
 8100726:	4603      	mov	r3, r0
 8100728:	80fb      	strh	r3, [r7, #6]
  if ((int32_t)(IRQn) >= 0)
 810072a:	f9b7 3006 	ldrsh.w	r3, [r7, #6]
 810072e:	2b00      	cmp	r3, #0
 8100730:	db0b      	blt.n	810074a <__NVIC_EnableIRQ+0x2a>
  {
    __COMPILER_BARRIER();
    NVIC->ISER[(((uint32_t)IRQn) >> 5UL)] = (uint32_t)(1UL << (((uint32_t)IRQn) & 0x1FUL));
 8100732:	88fb      	ldrh	r3, [r7, #6]
 8100734:	f003 021f 	and.w	r2, r3, #31
 8100738:	4907      	ldr	r1, [pc, #28]	; (8100758 <__NVIC_EnableIRQ+0x38>)
 810073a:	f9b7 3006 	ldrsh.w	r3, [r7, #6]
 810073e:	095b      	lsrs	r3, r3, #5
 8100740:	2001      	movs	r0, #1
 8100742:	fa00 f202 	lsl.w	r2, r0, r2
 8100746:	f841 2023 	str.w	r2, [r1, r3, lsl #2]
    __COMPILER_BARRIER();
  }
}
 810074a:	bf00      	nop
 810074c:	370c      	adds	r7, #12
 810074e:	46bd      	mov	sp, r7
 8100750:	f85d 7b04 	ldr.w	r7, [sp], #4
 8100754:	4770      	bx	lr
 8100756:	bf00      	nop
 8100758:	e000e100 	.word	0xe000e100

0810075c <__NVIC_DisableIRQ>:
  \details Disables a device specific interrupt in the NVIC interrupt controller.
  \param [in]      IRQn  Device specific interrupt number.
  \note    IRQn must not be negative.
 */
__STATIC_INLINE void __NVIC_DisableIRQ(IRQn_Type IRQn)
{
 810075c:	b480      	push	{r7}
 810075e:	b083      	sub	sp, #12
 8100760:	af00      	add	r7, sp, #0
 8100762:	4603      	mov	r3, r0
 8100764:	80fb      	strh	r3, [r7, #6]
  if ((int32_t)(IRQn) >= 0)
 8100766:	f9b7 3006 	ldrsh.w	r3, [r7, #6]
 810076a:	2b00      	cmp	r3, #0
 810076c:	db12      	blt.n	8100794 <__NVIC_DisableIRQ+0x38>
  {
    NVIC->ICER[(((uint32_t)IRQn) >> 5UL)] = (uint32_t)(1UL << (((uint32_t)IRQn) & 0x1FUL));
 810076e:	88fb      	ldrh	r3, [r7, #6]
 8100770:	f003 021f 	and.w	r2, r3, #31
 8100774:	490a      	ldr	r1, [pc, #40]	; (81007a0 <__NVIC_DisableIRQ+0x44>)
 8100776:	f9b7 3006 	ldrsh.w	r3, [r7, #6]
 810077a:	095b      	lsrs	r3, r3, #5
 810077c:	2001      	movs	r0, #1
 810077e:	fa00 f202 	lsl.w	r2, r0, r2
 8100782:	3320      	adds	r3, #32
 8100784:	f841 2023 	str.w	r2, [r1, r3, lsl #2]
  \details Acts as a special kind of Data Memory Barrier.
           It completes when all explicit memory accesses before this instruction complete.
 */
__STATIC_FORCEINLINE void __DSB(void)
{
  __ASM volatile ("dsb 0xF":::"memory");
 8100788:	f3bf 8f4f 	dsb	sy
}
 810078c:	bf00      	nop
  __ASM volatile ("isb 0xF":::"memory");
 810078e:	f3bf 8f6f 	isb	sy
}
 8100792:	bf00      	nop
    __DSB();
    __ISB();
  }
}
 8100794:	bf00      	nop
 8100796:	370c      	adds	r7, #12
 8100798:	46bd      	mov	sp, r7
 810079a:	f85d 7b04 	ldr.w	r7, [sp], #4
 810079e:	4770      	bx	lr
 81007a0:	e000e100 	.word	0xe000e100

081007a4 <__NVIC_SetPriority>:
  \param [in]      IRQn  Interrupt number.
  \param [in]  priority  Priority to set.
  \note    The priority cannot be set for every processor exception.
 */
__STATIC_INLINE void __NVIC_SetPriority(IRQn_Type IRQn, uint32_t priority)
{
 81007a4:	b480      	push	{r7}
 81007a6:	b083      	sub	sp, #12
 81007a8:	af00      	add	r7, sp, #0
 81007aa:	4603      	mov	r3, r0
 81007ac:	6039      	str	r1, [r7, #0]
 81007ae:	80fb      	strh	r3, [r7, #6]
  if ((int32_t)(IRQn) >= 0)
 81007b0:	f9b7 3006 	ldrsh.w	r3, [r7, #6]
 81007b4:	2b00      	cmp	r3, #0
 81007b6:	db0a      	blt.n	81007ce <__NVIC_SetPriority+0x2a>
  {
    NVIC->IP[((uint32_t)IRQn)]               = (uint8_t)((priority << (8U - __NVIC_PRIO_BITS)) & (uint32_t)0xFFUL);
 81007b8:	683b      	ldr	r3, [r7, #0]
 81007ba:	b2da      	uxtb	r2, r3
 81007bc:	490c      	ldr	r1, [pc, #48]	; (81007f0 <__NVIC_SetPriority+0x4c>)
 81007be:	f9b7 3006 	ldrsh.w	r3, [r7, #6]
 81007c2:	0112      	lsls	r2, r2, #4
 81007c4:	b2d2      	uxtb	r2, r2
 81007c6:	440b      	add	r3, r1
 81007c8:	f883 2300 	strb.w	r2, [r3, #768]	; 0x300
  }
  else
  {
    SCB->SHP[(((uint32_t)IRQn) & 0xFUL)-4UL] = (uint8_t)((priority << (8U - __NVIC_PRIO_BITS)) & (uint32_t)0xFFUL);
  }
}
 81007cc:	e00a      	b.n	81007e4 <__NVIC_SetPriority+0x40>
    SCB->SHP[(((uint32_t)IRQn) & 0xFUL)-4UL] = (uint8_t)((priority << (8U - __NVIC_PRIO_BITS)) & (uint32_t)0xFFUL);
 81007ce:	683b      	ldr	r3, [r7, #0]
 81007d0:	b2da      	uxtb	r2, r3
 81007d2:	4908      	ldr	r1, [pc, #32]	; (81007f4 <__NVIC_SetPriority+0x50>)
 81007d4:	88fb      	ldrh	r3, [r7, #6]
 81007d6:	f003 030f 	and.w	r3, r3, #15
 81007da:	3b04      	subs	r3, #4
 81007dc:	0112      	lsls	r2, r2, #4
 81007de:	b2d2      	uxtb	r2, r2
 81007e0:	440b      	add	r3, r1
 81007e2:	761a      	strb	r2, [r3, #24]
}
 81007e4:	bf00      	nop
 81007e6:	370c      	adds	r7, #12
 81007e8:	46bd      	mov	sp, r7
 81007ea:	f85d 7b04 	ldr.w	r7, [sp], #4
 81007ee:	4770      	bx	lr
 81007f0:	e000e100 	.word	0xe000e100
 81007f4:	e000ed00 	.word	0xe000ed00

081007f8 <NVIC_EncodePriority>:
  \param [in]   PreemptPriority  Preemptive priority value (starting from 0).
  \param [in]       SubPriority  Subpriority value (starting from 0).
  \return                        Encoded priority. Value can be used in the function \ref NVIC_SetPriority().
 */
__STATIC_INLINE uint32_t NVIC_EncodePriority (uint32_t PriorityGroup, uint32_t PreemptPriority, uint32_t SubPriority)
{
 81007f8:	b480      	push	{r7}
 81007fa:	b089      	sub	sp, #36	; 0x24
 81007fc:	af00      	add	r7, sp, #0
 81007fe:	60f8      	str	r0, [r7, #12]
 8100800:	60b9      	str	r1, [r7, #8]
 8100802:	607a      	str	r2, [r7, #4]
  uint32_t PriorityGroupTmp = (PriorityGroup & (uint32_t)0x07UL);   /* only values 0..7 are used          */
 8100804:	68fb      	ldr	r3, [r7, #12]
 8100806:	f003 0307 	and.w	r3, r3, #7
 810080a:	61fb      	str	r3, [r7, #28]
  uint32_t PreemptPriorityBits;
  uint32_t SubPriorityBits;

  PreemptPriorityBits = ((7UL - PriorityGroupTmp) > (uint32_t)(__NVIC_PRIO_BITS)) ? (uint32_t)(__NVIC_PRIO_BITS) : (uint32_t)(7UL - PriorityGroupTmp);
 810080c:	69fb      	ldr	r3, [r7, #28]
 810080e:	f1c3 0307 	rsb	r3, r3, #7
 8100812:	2b04      	cmp	r3, #4
 8100814:	bf28      	it	cs
 8100816:	2304      	movcs	r3, #4
 8100818:	61bb      	str	r3, [r7, #24]
  SubPriorityBits     = ((PriorityGroupTmp + (uint32_t)(__NVIC_PRIO_BITS)) < (uint32_t)7UL) ? (uint32_t)0UL : (uint32_t)((PriorityGroupTmp - 7UL) + (uint32_t)(__NVIC_PRIO_BITS));
 810081a:	69fb      	ldr	r3, [r7, #28]
 810081c:	3304      	adds	r3, #4
 810081e:	2b06      	cmp	r3, #6
 8100820:	d902      	bls.n	8100828 <NVIC_EncodePriority+0x30>
 8100822:	69fb      	ldr	r3, [r7, #28]
 8100824:	3b03      	subs	r3, #3
 8100826:	e000      	b.n	810082a <NVIC_EncodePriority+0x32>
 8100828:	2300      	movs	r3, #0
 810082a:	617b      	str	r3, [r7, #20]

  return (
           ((PreemptPriority & (uint32_t)((1UL << (PreemptPriorityBits)) - 1UL)) << SubPriorityBits) |
 810082c:	f04f 32ff 	mov.w	r2, #4294967295
 8100830:	69bb      	ldr	r3, [r7, #24]
 8100832:	fa02 f303 	lsl.w	r3, r2, r3
 8100836:	43da      	mvns	r2, r3
 8100838:	68bb      	ldr	r3, [r7, #8]
 810083a:	401a      	ands	r2, r3
 810083c:	697b      	ldr	r3, [r7, #20]
 810083e:	409a      	lsls	r2, r3
           ((SubPriority     & (uint32_t)((1UL << (SubPriorityBits    )) - 1UL)))
 8100840:	f04f 31ff 	mov.w	r1, #4294967295
 8100844:	697b      	ldr	r3, [r7, #20]
 8100846:	fa01 f303 	lsl.w	r3, r1, r3
 810084a:	43d9      	mvns	r1, r3
 810084c:	687b      	ldr	r3, [r7, #4]
 810084e:	400b      	ands	r3, r1
           ((PreemptPriority & (uint32_t)((1UL << (PreemptPriorityBits)) - 1UL)) << SubPriorityBits) |
 8100850:	4313      	orrs	r3, r2
         );
}
 8100852:	4618      	mov	r0, r3
 8100854:	3724      	adds	r7, #36	; 0x24
 8100856:	46bd      	mov	sp, r7
 8100858:	f85d 7b04 	ldr.w	r7, [sp], #4
 810085c:	4770      	bx	lr
	...

08100860 <SysTick_Config>:
  \note    When the variable <b>__Vendor_SysTickConfig</b> is set to 1, then the
           function <b>SysTick_Config</b> is not included. In this case, the file <b><i>device</i>.h</b>
           must contain a vendor-specific implementation of this function.
 */
__STATIC_INLINE uint32_t SysTick_Config(uint32_t ticks)
{
 8100860:	b580      	push	{r7, lr}
 8100862:	b082      	sub	sp, #8
 8100864:	af00      	add	r7, sp, #0
 8100866:	6078      	str	r0, [r7, #4]
  if ((ticks - 1UL) > SysTick_LOAD_RELOAD_Msk)
 8100868:	687b      	ldr	r3, [r7, #4]
 810086a:	3b01      	subs	r3, #1
 810086c:	f1b3 7f80 	cmp.w	r3, #16777216	; 0x1000000
 8100870:	d301      	bcc.n	8100876 <SysTick_Config+0x16>
  {
    return (1UL);                                                   /* Reload value impossible */
 8100872:	2301      	movs	r3, #1
 8100874:	e00f      	b.n	8100896 <SysTick_Config+0x36>
  }

  SysTick->LOAD  = (uint32_t)(ticks - 1UL);                         /* set reload register */
 8100876:	4a0a      	ldr	r2, [pc, #40]	; (81008a0 <SysTick_Config+0x40>)
 8100878:	687b      	ldr	r3, [r7, #4]
 810087a:	3b01      	subs	r3, #1
 810087c:	6053      	str	r3, [r2, #4]
  NVIC_SetPriority (SysTick_IRQn, (1UL << __NVIC_PRIO_BITS) - 1UL); /* set Priority for Systick Interrupt */
 810087e:	210f      	movs	r1, #15
 8100880:	f04f 30ff 	mov.w	r0, #4294967295
 8100884:	f7ff ff8e 	bl	81007a4 <__NVIC_SetPriority>
  SysTick->VAL   = 0UL;                                             /* Load the SysTick Counter Value */
 8100888:	4b05      	ldr	r3, [pc, #20]	; (81008a0 <SysTick_Config+0x40>)
 810088a:	2200      	movs	r2, #0
 810088c:	609a      	str	r2, [r3, #8]
  SysTick->CTRL  = SysTick_CTRL_CLKSOURCE_Msk |
 810088e:	4b04      	ldr	r3, [pc, #16]	; (81008a0 <SysTick_Config+0x40>)
 8100890:	2207      	movs	r2, #7
 8100892:	601a      	str	r2, [r3, #0]
                   SysTick_CTRL_TICKINT_Msk   |
                   SysTick_CTRL_ENABLE_Msk;                         /* Enable SysTick IRQ and SysTick Timer */
  return (0UL);                                                     /* Function successful */
 8100894:	2300      	movs	r3, #0
}
 8100896:	4618      	mov	r0, r3
 8100898:	3708      	adds	r7, #8
 810089a:	46bd      	mov	sp, r7
 810089c:	bd80      	pop	{r7, pc}
 810089e:	bf00      	nop
 81008a0:	e000e010 	.word	0xe000e010

081008a4 <HAL_NVIC_SetPriorityGrouping>:
  * @note   When the NVIC_PriorityGroup_0 is selected, IRQ preemption is no more possible.
  *         The pending IRQ priority will be managed only by the subpriority.
  * @retval None
  */
void HAL_NVIC_SetPriorityGrouping(uint32_t PriorityGroup)
{
 81008a4:	b580      	push	{r7, lr}
 81008a6:	b082      	sub	sp, #8
 81008a8:	af00      	add	r7, sp, #0
 81008aa:	6078      	str	r0, [r7, #4]
  /* Check the parameters */
  assert_param(IS_NVIC_PRIORITY_GROUP(PriorityGroup));

  /* Set the PRIGROUP[10:8] bits according to the PriorityGroup parameter value */
  NVIC_SetPriorityGrouping(PriorityGroup);
 81008ac:	6878      	ldr	r0, [r7, #4]
 81008ae:	f7ff ff05 	bl	81006bc <__NVIC_SetPriorityGrouping>
}
 81008b2:	bf00      	nop
 81008b4:	3708      	adds	r7, #8
 81008b6:	46bd      	mov	sp, r7
 81008b8:	bd80      	pop	{r7, pc}

081008ba <HAL_NVIC_SetPriority>:
  *         This parameter can be a value between 0 and 15
  *         A lower priority value indicates a higher priority.
  * @retval None
  */
void HAL_NVIC_SetPriority(IRQn_Type IRQn, uint32_t PreemptPriority, uint32_t SubPriority)
{
 81008ba:	b580      	push	{r7, lr}
 81008bc:	b086      	sub	sp, #24
 81008be:	af00      	add	r7, sp, #0
 81008c0:	4603      	mov	r3, r0
 81008c2:	60b9      	str	r1, [r7, #8]
 81008c4:	607a      	str	r2, [r7, #4]
 81008c6:	81fb      	strh	r3, [r7, #14]

  /* Check the parameters */
  assert_param(IS_NVIC_SUB_PRIORITY(SubPriority));
  assert_param(IS_NVIC_PREEMPTION_PRIORITY(PreemptPriority));

  prioritygroup = NVIC_GetPriorityGrouping();
 81008c8:	f7ff ff1c 	bl	8100704 <__NVIC_GetPriorityGrouping>
 81008cc:	6178      	str	r0, [r7, #20]

  NVIC_SetPriority(IRQn, NVIC_EncodePriority(prioritygroup, PreemptPriority, SubPriority));
 81008ce:	687a      	ldr	r2, [r7, #4]
 81008d0:	68b9      	ldr	r1, [r7, #8]
 81008d2:	6978      	ldr	r0, [r7, #20]
 81008d4:	f7ff ff90 	bl	81007f8 <NVIC_EncodePriority>
 81008d8:	4602      	mov	r2, r0
 81008da:	f9b7 300e 	ldrsh.w	r3, [r7, #14]
 81008de:	4611      	mov	r1, r2
 81008e0:	4618      	mov	r0, r3
 81008e2:	f7ff ff5f 	bl	81007a4 <__NVIC_SetPriority>
}
 81008e6:	bf00      	nop
 81008e8:	3718      	adds	r7, #24
 81008ea:	46bd      	mov	sp, r7
 81008ec:	bd80      	pop	{r7, pc}

081008ee <HAL_NVIC_EnableIRQ>:
  *         This parameter can be an enumerator of IRQn_Type enumeration
  *         (For the complete STM32 Devices IRQ Channels list, please refer to the appropriate CMSIS device file (stm32h7xxxx.h))
  * @retval None
  */
void HAL_NVIC_EnableIRQ(IRQn_Type IRQn)
{
 81008ee:	b580      	push	{r7, lr}
 81008f0:	b082      	sub	sp, #8
 81008f2:	af00      	add	r7, sp, #0
 81008f4:	4603      	mov	r3, r0
 81008f6:	80fb      	strh	r3, [r7, #6]
  /* Check the parameters */
  assert_param(IS_NVIC_DEVICE_IRQ(IRQn));

  /* Enable interrupt */
  NVIC_EnableIRQ(IRQn);
 81008f8:	f9b7 3006 	ldrsh.w	r3, [r7, #6]
 81008fc:	4618      	mov	r0, r3
 81008fe:	f7ff ff0f 	bl	8100720 <__NVIC_EnableIRQ>
}
 8100902:	bf00      	nop
 8100904:	3708      	adds	r7, #8
 8100906:	46bd      	mov	sp, r7
 8100908:	bd80      	pop	{r7, pc}

0810090a <HAL_NVIC_DisableIRQ>:
  *         This parameter can be an enumerator of IRQn_Type enumeration
  *         (For the complete STM32 Devices IRQ Channels list, please refer to the appropriate CMSIS device file (stm32h7xxxx.h))
  * @retval None
  */
void HAL_NVIC_DisableIRQ(IRQn_Type IRQn)
{
 810090a:	b580      	push	{r7, lr}
 810090c:	b082      	sub	sp, #8
 810090e:	af00      	add	r7, sp, #0
 8100910:	4603      	mov	r3, r0
 8100912:	80fb      	strh	r3, [r7, #6]
  /* Check the parameters */
  assert_param(IS_NVIC_DEVICE_IRQ(IRQn));

  /* Disable interrupt */
  NVIC_DisableIRQ(IRQn);
 8100914:	f9b7 3006 	ldrsh.w	r3, [r7, #6]
 8100918:	4618      	mov	r0, r3
 810091a:	f7ff ff1f 	bl	810075c <__NVIC_DisableIRQ>
}
 810091e:	bf00      	nop
 8100920:	3708      	adds	r7, #8
 8100922:	46bd      	mov	sp, r7
 8100924:	bd80      	pop	{r7, pc}

08100926 <HAL_SYSTICK_Config>:
  * @param  TicksNumb Specifies the ticks Number of ticks between two interrupts.
  * @retval status   - 0  Function succeeded.
  *                  - 1  Function failed.
  */
uint32_t HAL_SYSTICK_Config(uint32_t TicksNumb)
{
 8100926:	b580      	push	{r7, lr}
 8100928:	b082      	sub	sp, #8
 810092a:	af00      	add	r7, sp, #0
 810092c:	6078      	str	r0, [r7, #4]
   return SysTick_Config(TicksNumb);
 810092e:	6878      	ldr	r0, [r7, #4]
 8100930:	f7ff ff96 	bl	8100860 <SysTick_Config>
 8100934:	4603      	mov	r3, r0
}
 8100936:	4618      	mov	r0, r3
 8100938:	3708      	adds	r7, #8
 810093a:	46bd      	mov	sp, r7
 810093c:	bd80      	pop	{r7, pc}
	...

08100940 <HAL_GetCurrentCPUID>:
/**
  * @brief  Returns the current CPU ID.
  * @retval CPU identifier
  */
uint32_t HAL_GetCurrentCPUID(void)
{
 8100940:	b480      	push	{r7}
 8100942:	af00      	add	r7, sp, #0
  if (((SCB->CPUID & 0x000000F0U) >> 4 )== 0x7U)
 8100944:	4b07      	ldr	r3, [pc, #28]	; (8100964 <HAL_GetCurrentCPUID+0x24>)
 8100946:	681b      	ldr	r3, [r3, #0]
 8100948:	091b      	lsrs	r3, r3, #4
 810094a:	f003 030f 	and.w	r3, r3, #15
 810094e:	2b07      	cmp	r3, #7
 8100950:	d101      	bne.n	8100956 <HAL_GetCurrentCPUID+0x16>
  {
    return  CM7_CPUID;
 8100952:	2303      	movs	r3, #3
 8100954:	e000      	b.n	8100958 <HAL_GetCurrentCPUID+0x18>
  }
  else
  {
    return CM4_CPUID;
 8100956:	2301      	movs	r3, #1
  }
}
 8100958:	4618      	mov	r0, r3
 810095a:	46bd      	mov	sp, r7
 810095c:	f85d 7b04 	ldr.w	r7, [sp], #4
 8100960:	4770      	bx	lr
 8100962:	bf00      	nop
 8100964:	e000ed00 	.word	0xe000ed00

08100968 <HAL_HSEM_Take>:
  * @param  SemID: semaphore ID from 0 to 31
  * @param  ProcessID: Process ID from 0 to 255
  * @retval HAL status
  */
HAL_StatusTypeDef  HAL_HSEM_Take(uint32_t SemID, uint32_t ProcessID)
{
 8100968:	b480      	push	{r7}
 810096a:	b083      	sub	sp, #12
 810096c:	af00      	add	r7, sp, #0
 810096e:	6078      	str	r0, [r7, #4]
 8100970:	6039      	str	r1, [r7, #0]
    /*take success when MasterID and ProcessID match and take bit set*/
    return HAL_OK;
  }
#else
  /* First step  write R register with MasterID, processID and take bit=1*/
  HSEM->R[SemID] = (ProcessID | HSEM_CR_COREID_CURRENT | HSEM_R_LOCK);
 8100972:	490e      	ldr	r1, [pc, #56]	; (81009ac <HAL_HSEM_Take+0x44>)
 8100974:	683b      	ldr	r3, [r7, #0]
 8100976:	f043 4300 	orr.w	r3, r3, #2147483648	; 0x80000000
 810097a:	f443 7380 	orr.w	r3, r3, #256	; 0x100
 810097e:	687a      	ldr	r2, [r7, #4]
 8100980:	f841 3022 	str.w	r3, [r1, r2, lsl #2]

  /* second step : read the R register . Take achieved if MasterID and processID match and take bit set to 1 */
  if (HSEM->R[SemID] == (ProcessID | HSEM_CR_COREID_CURRENT | HSEM_R_LOCK))
 8100984:	4a09      	ldr	r2, [pc, #36]	; (81009ac <HAL_HSEM_Take+0x44>)
 8100986:	687b      	ldr	r3, [r7, #4]
 8100988:	f852 2023 	ldr.w	r2, [r2, r3, lsl #2]
 810098c:	683b      	ldr	r3, [r7, #0]
 810098e:	f043 4300 	orr.w	r3, r3, #2147483648	; 0x80000000
 8100992:	f443 7380 	orr.w	r3, r3, #256	; 0x100
 8100996:	429a      	cmp	r2, r3
 8100998:	d101      	bne.n	810099e <HAL_HSEM_Take+0x36>
  {
    /*take success when MasterID and ProcessID match and take bit set*/
    return HAL_OK;
 810099a:	2300      	movs	r3, #0
 810099c:	e000      	b.n	81009a0 <HAL_HSEM_Take+0x38>
  }
#endif

  /* Semaphore take fails*/
  return HAL_ERROR;
 810099e:	2301      	movs	r3, #1
}
 81009a0:	4618      	mov	r0, r3
 81009a2:	370c      	adds	r7, #12
 81009a4:	46bd      	mov	sp, r7
 81009a6:	f85d 7b04 	ldr.w	r7, [sp], #4
 81009aa:	4770      	bx	lr
 81009ac:	58026400 	.word	0x58026400

081009b0 <HAL_HSEM_Release>:
  * @param  SemID: semaphore ID from 0 to 31
  * @param  ProcessID: Process ID from 0 to 255
  * @retval None
  */
void  HAL_HSEM_Release(uint32_t SemID, uint32_t ProcessID)
{
 81009b0:	b480      	push	{r7}
 81009b2:	b083      	sub	sp, #12
 81009b4:	af00      	add	r7, sp, #0
 81009b6:	6078      	str	r0, [r7, #4]
 81009b8:	6039      	str	r1, [r7, #0]

  /* Clear the semaphore by writing to the R register : the MasterID , the processID and take bit = 0  */
#if  USE_MULTI_CORE_SHARED_CODE != 0U
  HSEM->R[SemID] = (ProcessID | ((HAL_GetCurrentCPUID() << POSITION_VAL(HSEM_R_MASTERID)) & HSEM_R_MASTERID));
#else
  HSEM->R[SemID] = (ProcessID | HSEM_CR_COREID_CURRENT);
 81009ba:	4906      	ldr	r1, [pc, #24]	; (81009d4 <HAL_HSEM_Release+0x24>)
 81009bc:	683b      	ldr	r3, [r7, #0]
 81009be:	f443 7280 	orr.w	r2, r3, #256	; 0x100
 81009c2:	687b      	ldr	r3, [r7, #4]
 81009c4:	f841 2023 	str.w	r2, [r1, r3, lsl #2]
#endif

}
 81009c8:	bf00      	nop
 81009ca:	370c      	adds	r7, #12
 81009cc:	46bd      	mov	sp, r7
 81009ce:	f85d 7b04 	ldr.w	r7, [sp], #4
 81009d2:	4770      	bx	lr
 81009d4:	58026400 	.word	0x58026400

081009d8 <HAL_HSEM_ActivateNotification>:
  * @brief  Activate Semaphore release Notification for a given Semaphores Mask .
  * @param  SemMask: Mask of Released semaphores
  * @retval Semaphore Key
  */
void HAL_HSEM_ActivateNotification(uint32_t SemMask)
{
 81009d8:	b480      	push	{r7}
 81009da:	b083      	sub	sp, #12
 81009dc:	af00      	add	r7, sp, #0
 81009de:	6078      	str	r0, [r7, #4]
  {
    /*Use interrupt line 1 for CPU2 Master*/
    HSEM->C2IER |= SemMask;
  }
#else
  HSEM_COMMON->IER |= SemMask;
 81009e0:	4b05      	ldr	r3, [pc, #20]	; (81009f8 <HAL_HSEM_ActivateNotification+0x20>)
 81009e2:	681a      	ldr	r2, [r3, #0]
 81009e4:	4904      	ldr	r1, [pc, #16]	; (81009f8 <HAL_HSEM_ActivateNotification+0x20>)
 81009e6:	687b      	ldr	r3, [r7, #4]
 81009e8:	4313      	orrs	r3, r2
 81009ea:	600b      	str	r3, [r1, #0]
#endif
}
 81009ec:	bf00      	nop
 81009ee:	370c      	adds	r7, #12
 81009f0:	46bd      	mov	sp, r7
 81009f2:	f85d 7b04 	ldr.w	r7, [sp], #4
 81009f6:	4770      	bx	lr
 81009f8:	58026510 	.word	0x58026510

081009fc <HAL_HSEM_IRQHandler>:
/**
  * @brief  This function handles HSEM interrupt request
  * @retval None
  */
void HAL_HSEM_IRQHandler(void)
{
 81009fc:	b580      	push	{r7, lr}
 81009fe:	b082      	sub	sp, #8
 8100a00:	af00      	add	r7, sp, #0
    /*Clear Flags*/
    HSEM->C2ICR = ((uint32_t)statusreg);
  }
#else
  /* Get the list of masked freed semaphores*/
  statusreg = HSEM_COMMON->MISR;
 8100a02:	4b0a      	ldr	r3, [pc, #40]	; (8100a2c <HAL_HSEM_IRQHandler+0x30>)
 8100a04:	68db      	ldr	r3, [r3, #12]
 8100a06:	607b      	str	r3, [r7, #4]

  /*Disable Interrupts*/
  HSEM_COMMON->IER &= ~((uint32_t)statusreg);
 8100a08:	4b08      	ldr	r3, [pc, #32]	; (8100a2c <HAL_HSEM_IRQHandler+0x30>)
 8100a0a:	681a      	ldr	r2, [r3, #0]
 8100a0c:	687b      	ldr	r3, [r7, #4]
 8100a0e:	43db      	mvns	r3, r3
 8100a10:	4906      	ldr	r1, [pc, #24]	; (8100a2c <HAL_HSEM_IRQHandler+0x30>)
 8100a12:	4013      	ands	r3, r2
 8100a14:	600b      	str	r3, [r1, #0]

  /*Clear Flags*/
  HSEM_COMMON->ICR = ((uint32_t)statusreg);
 8100a16:	4a05      	ldr	r2, [pc, #20]	; (8100a2c <HAL_HSEM_IRQHandler+0x30>)
 8100a18:	687b      	ldr	r3, [r7, #4]
 8100a1a:	6053      	str	r3, [r2, #4]

#endif
  /* Call FreeCallback */
  HAL_HSEM_FreeCallback(statusreg);
 8100a1c:	6878      	ldr	r0, [r7, #4]
 8100a1e:	f7ff fce7 	bl	81003f0 <HAL_HSEM_FreeCallback>
}
 8100a22:	bf00      	nop
 8100a24:	3708      	adds	r7, #8
 8100a26:	46bd      	mov	sp, r7
 8100a28:	bd80      	pop	{r7, pc}
 8100a2a:	bf00      	nop
 8100a2c:	58026510 	.word	0x58026510

08100a30 <HAL_PWREx_EnterSTOPMode>:
  *            @arg PWR_D2_DOMAIN : Enter D2 Domain to DSTOP mode.
  *            @arg PWR_D3_DOMAIN : Enter D3/SRD Domain to DSTOP mode.
  * @retval None.
  */
void HAL_PWREx_EnterSTOPMode (uint32_t Regulator, uint8_t STOPEntry, uint32_t Domain)
{
 8100a30:	b580      	push	{r7, lr}
 8100a32:	b084      	sub	sp, #16
 8100a34:	af00      	add	r7, sp, #0
 8100a36:	60f8      	str	r0, [r7, #12]
 8100a38:	460b      	mov	r3, r1
 8100a3a:	607a      	str	r2, [r7, #4]
 8100a3c:	72fb      	strb	r3, [r7, #11]
  assert_param (IS_PWR_REGULATOR (Regulator));
  assert_param (IS_PWR_STOP_ENTRY (STOPEntry));
  assert_param (IS_PWR_DOMAIN (Domain));

  /* Select the regulator state in Stop mode */
  MODIFY_REG (PWR->CR1, PWR_CR1_LPDS, Regulator);
 8100a3e:	4b37      	ldr	r3, [pc, #220]	; (8100b1c <HAL_PWREx_EnterSTOPMode+0xec>)
 8100a40:	681b      	ldr	r3, [r3, #0]
 8100a42:	f023 0201 	bic.w	r2, r3, #1
 8100a46:	4935      	ldr	r1, [pc, #212]	; (8100b1c <HAL_PWREx_EnterSTOPMode+0xec>)
 8100a48:	68fb      	ldr	r3, [r7, #12]
 8100a4a:	4313      	orrs	r3, r2
 8100a4c:	600b      	str	r3, [r1, #0]

  /* Select the domain Power Down DeepSleep */
  if (Domain == PWR_D1_DOMAIN)
 8100a4e:	687b      	ldr	r3, [r7, #4]
 8100a50:	2b00      	cmp	r3, #0
 8100a52:	d123      	bne.n	8100a9c <HAL_PWREx_EnterSTOPMode+0x6c>
  {
#if defined (DUAL_CORE)
    /* Check current core */
    if (HAL_GetCurrentCPUID () != CM7_CPUID)
 8100a54:	f7ff ff74 	bl	8100940 <HAL_GetCurrentCPUID>
 8100a58:	4603      	mov	r3, r0
 8100a5a:	2b03      	cmp	r3, #3
 8100a5c:	d158      	bne.n	8100b10 <HAL_PWREx_EnterSTOPMode+0xe0>
      return;
    }
#endif /* defined (DUAL_CORE) */

    /* Keep DSTOP mode when D1/CD domain enters Deepsleep */
    CLEAR_BIT (PWR->CPUCR, PWR_CPUCR_PDDS_D1);
 8100a5e:	4b2f      	ldr	r3, [pc, #188]	; (8100b1c <HAL_PWREx_EnterSTOPMode+0xec>)
 8100a60:	691b      	ldr	r3, [r3, #16]
 8100a62:	4a2e      	ldr	r2, [pc, #184]	; (8100b1c <HAL_PWREx_EnterSTOPMode+0xec>)
 8100a64:	f023 0301 	bic.w	r3, r3, #1
 8100a68:	6113      	str	r3, [r2, #16]

    /* Set SLEEPDEEP bit of Cortex System Control Register */
    SET_BIT (SCB->SCR, SCB_SCR_SLEEPDEEP_Msk);
 8100a6a:	4b2d      	ldr	r3, [pc, #180]	; (8100b20 <HAL_PWREx_EnterSTOPMode+0xf0>)
 8100a6c:	691b      	ldr	r3, [r3, #16]
 8100a6e:	4a2c      	ldr	r2, [pc, #176]	; (8100b20 <HAL_PWREx_EnterSTOPMode+0xf0>)
 8100a70:	f043 0304 	orr.w	r3, r3, #4
 8100a74:	6113      	str	r3, [r2, #16]
  __ASM volatile ("dsb 0xF":::"memory");
 8100a76:	f3bf 8f4f 	dsb	sy
}
 8100a7a:	bf00      	nop
  __ASM volatile ("isb 0xF":::"memory");
 8100a7c:	f3bf 8f6f 	isb	sy
}
 8100a80:	bf00      	nop
    /* Ensure that all instructions are done before entering STOP mode */
    __DSB ();
    __ISB ();

    /* Select Stop mode entry */
    if (STOPEntry == PWR_STOPENTRY_WFI)
 8100a82:	7afb      	ldrb	r3, [r7, #11]
 8100a84:	2b01      	cmp	r3, #1
 8100a86:	d101      	bne.n	8100a8c <HAL_PWREx_EnterSTOPMode+0x5c>
    {
      /* Request Wait For Interrupt */
      __WFI ();
 8100a88:	bf30      	wfi
 8100a8a:	e000      	b.n	8100a8e <HAL_PWREx_EnterSTOPMode+0x5e>
    }
    else
    {
      /* Request Wait For Event */
      __WFE ();
 8100a8c:	bf20      	wfe
    }

    /* Clear SLEEPDEEP bit of Cortex-Mx in the System Control Register */
    CLEAR_BIT (SCB->SCR, SCB_SCR_SLEEPDEEP_Msk);
 8100a8e:	4b24      	ldr	r3, [pc, #144]	; (8100b20 <HAL_PWREx_EnterSTOPMode+0xf0>)
 8100a90:	691b      	ldr	r3, [r3, #16]
 8100a92:	4a23      	ldr	r2, [pc, #140]	; (8100b20 <HAL_PWREx_EnterSTOPMode+0xf0>)
 8100a94:	f023 0304 	bic.w	r3, r3, #4
 8100a98:	6113      	str	r3, [r2, #16]
 8100a9a:	e03c      	b.n	8100b16 <HAL_PWREx_EnterSTOPMode+0xe6>
  }
#if defined (PWR_CPUCR_PDDS_D2)
  else if (Domain == PWR_D2_DOMAIN)
 8100a9c:	687b      	ldr	r3, [r7, #4]
 8100a9e:	2b01      	cmp	r3, #1
 8100aa0:	d123      	bne.n	8100aea <HAL_PWREx_EnterSTOPMode+0xba>
  {
#if defined (DUAL_CORE)
    /* Check current core */
    if (HAL_GetCurrentCPUID () != CM4_CPUID)
 8100aa2:	f7ff ff4d 	bl	8100940 <HAL_GetCurrentCPUID>
 8100aa6:	4603      	mov	r3, r0
 8100aa8:	2b01      	cmp	r3, #1
 8100aaa:	d133      	bne.n	8100b14 <HAL_PWREx_EnterSTOPMode+0xe4>
      */
      return;
    }

    /* Keep DSTOP mode when D2 domain enters Deepsleep */
    CLEAR_BIT (PWR->CPU2CR, PWR_CPU2CR_PDDS_D2);
 8100aac:	4b1b      	ldr	r3, [pc, #108]	; (8100b1c <HAL_PWREx_EnterSTOPMode+0xec>)
 8100aae:	695b      	ldr	r3, [r3, #20]
 8100ab0:	4a1a      	ldr	r2, [pc, #104]	; (8100b1c <HAL_PWREx_EnterSTOPMode+0xec>)
 8100ab2:	f023 0302 	bic.w	r3, r3, #2
 8100ab6:	6153      	str	r3, [r2, #20]

    /* Set SLEEPDEEP bit of Cortex System Control Register */
    SET_BIT (SCB->SCR, SCB_SCR_SLEEPDEEP_Msk);
 8100ab8:	4b19      	ldr	r3, [pc, #100]	; (8100b20 <HAL_PWREx_EnterSTOPMode+0xf0>)
 8100aba:	691b      	ldr	r3, [r3, #16]
 8100abc:	4a18      	ldr	r2, [pc, #96]	; (8100b20 <HAL_PWREx_EnterSTOPMode+0xf0>)
 8100abe:	f043 0304 	orr.w	r3, r3, #4
 8100ac2:	6113      	str	r3, [r2, #16]
  __ASM volatile ("dsb 0xF":::"memory");
 8100ac4:	f3bf 8f4f 	dsb	sy
}
 8100ac8:	bf00      	nop
  __ASM volatile ("isb 0xF":::"memory");
 8100aca:	f3bf 8f6f 	isb	sy
}
 8100ace:	bf00      	nop
    /* Ensure that all instructions are done before entering STOP mode */
    __DSB ();
    __ISB ();

    /* Select Stop mode entry */
    if (STOPEntry == PWR_STOPENTRY_WFI)
 8100ad0:	7afb      	ldrb	r3, [r7, #11]
 8100ad2:	2b01      	cmp	r3, #1
 8100ad4:	d101      	bne.n	8100ada <HAL_PWREx_EnterSTOPMode+0xaa>
    {
      /* Request Wait For Interrupt */
      __WFI ();
 8100ad6:	bf30      	wfi
 8100ad8:	e000      	b.n	8100adc <HAL_PWREx_EnterSTOPMode+0xac>
    }
    else
    {
      /* Request Wait For Event */
      __WFE ();
 8100ada:	bf20      	wfe
    }

    /* Clear SLEEPDEEP bit of Cortex-Mx in the System Control Register */
    CLEAR_BIT (SCB->SCR, SCB_SCR_SLEEPDEEP_Msk);
 8100adc:	4b10      	ldr	r3, [pc, #64]	; (8100b20 <HAL_PWREx_EnterSTOPMode+0xf0>)
 8100ade:	691b      	ldr	r3, [r3, #16]
 8100ae0:	4a0f      	ldr	r2, [pc, #60]	; (8100b20 <HAL_PWREx_EnterSTOPMode+0xf0>)
 8100ae2:	f023 0304 	bic.w	r3, r3, #4
 8100ae6:	6113      	str	r3, [r2, #16]
 8100ae8:	e015      	b.n	8100b16 <HAL_PWREx_EnterSTOPMode+0xe6>
#endif /* defined (PWR_CPUCR_PDDS_D2) */
  else
  {
#if defined (DUAL_CORE)
    /* Check current core */
    if (HAL_GetCurrentCPUID () == CM7_CPUID)
 8100aea:	f7ff ff29 	bl	8100940 <HAL_GetCurrentCPUID>
 8100aee:	4603      	mov	r3, r0
 8100af0:	2b03      	cmp	r3, #3
 8100af2:	d106      	bne.n	8100b02 <HAL_PWREx_EnterSTOPMode+0xd2>
    {
      /* Keep DSTOP mode when D3 domain enters Deepsleep */
      CLEAR_BIT (PWR->CPUCR, PWR_CPUCR_PDDS_D3);
 8100af4:	4b09      	ldr	r3, [pc, #36]	; (8100b1c <HAL_PWREx_EnterSTOPMode+0xec>)
 8100af6:	691b      	ldr	r3, [r3, #16]
 8100af8:	4a08      	ldr	r2, [pc, #32]	; (8100b1c <HAL_PWREx_EnterSTOPMode+0xec>)
 8100afa:	f023 0304 	bic.w	r3, r3, #4
 8100afe:	6113      	str	r3, [r2, #16]
 8100b00:	e009      	b.n	8100b16 <HAL_PWREx_EnterSTOPMode+0xe6>
    }
    else
    {
      /* Keep DSTOP mode when D3 domain enters Deepsleep */
      CLEAR_BIT (PWR->CPU2CR, PWR_CPU2CR_PDDS_D3);
 8100b02:	4b06      	ldr	r3, [pc, #24]	; (8100b1c <HAL_PWREx_EnterSTOPMode+0xec>)
 8100b04:	695b      	ldr	r3, [r3, #20]
 8100b06:	4a05      	ldr	r2, [pc, #20]	; (8100b1c <HAL_PWREx_EnterSTOPMode+0xec>)
 8100b08:	f023 0304 	bic.w	r3, r3, #4
 8100b0c:	6153      	str	r3, [r2, #20]
 8100b0e:	e002      	b.n	8100b16 <HAL_PWREx_EnterSTOPMode+0xe6>
      return;
 8100b10:	bf00      	nop
 8100b12:	e000      	b.n	8100b16 <HAL_PWREx_EnterSTOPMode+0xe6>
      return;
 8100b14:	bf00      	nop
#else
    /* Keep DSTOP mode when D3/SRD domain enters Deepsleep */
    CLEAR_BIT (PWR->CPUCR, PWR_CPUCR_PDDS_D3);
#endif  /* defined (DUAL_CORE) */
  }
}
 8100b16:	3710      	adds	r7, #16
 8100b18:	46bd      	mov	sp, r7
 8100b1a:	bd80      	pop	{r7, pc}
 8100b1c:	58024800 	.word	0x58024800
 8100b20:	e000ed00 	.word	0xe000ed00

08100b24 <HAL_PWREx_ClearPendingEvent>:
  *         enter low power mode using Wait For Event request.
  * @note   Cortex-M7 must be in CRUN mode when calling this API by Cortex-M4.
  * @retval None.
  */
void HAL_PWREx_ClearPendingEvent (void)
{
 8100b24:	b580      	push	{r7, lr}
 8100b26:	af00      	add	r7, sp, #0
#if defined (DUAL_CORE)
  /* Check the current Core */
  if (HAL_GetCurrentCPUID () == CM7_CPUID)
 8100b28:	f7ff ff0a 	bl	8100940 <HAL_GetCurrentCPUID>
 8100b2c:	4603      	mov	r3, r0
 8100b2e:	2b03      	cmp	r3, #3
 8100b30:	d101      	bne.n	8100b36 <HAL_PWREx_ClearPendingEvent+0x12>
  {
    __WFE ();
 8100b32:	bf20      	wfe
    __WFE ();
  }
#else
  __WFE ();
#endif /* defined (DUAL_CORE) */
}
 8100b34:	e001      	b.n	8100b3a <HAL_PWREx_ClearPendingEvent+0x16>
    __SEV ();
 8100b36:	bf40      	sev
    __WFE ();
 8100b38:	bf20      	wfe
}
 8100b3a:	bf00      	nop
 8100b3c:	bd80      	pop	{r7, pc}
	...

08100b40 <HAL_RCC_GetSysClockFreq>:
  *
  *
  * @retval SYSCLK frequency
  */
uint32_t HAL_RCC_GetSysClockFreq(void)
{
 8100b40:	b480      	push	{r7}
 8100b42:	b089      	sub	sp, #36	; 0x24
 8100b44:	af00      	add	r7, sp, #0
  float_t fracn1, pllvco;
  uint32_t sysclockfreq;

  /* Get SYSCLK source -------------------------------------------------------*/

  switch (RCC->CFGR & RCC_CFGR_SWS)
 8100b46:	4bb3      	ldr	r3, [pc, #716]	; (8100e14 <HAL_RCC_GetSysClockFreq+0x2d4>)
 8100b48:	691b      	ldr	r3, [r3, #16]
 8100b4a:	f003 0338 	and.w	r3, r3, #56	; 0x38
 8100b4e:	2b18      	cmp	r3, #24
 8100b50:	f200 8155 	bhi.w	8100dfe <HAL_RCC_GetSysClockFreq+0x2be>
 8100b54:	a201      	add	r2, pc, #4	; (adr r2, 8100b5c <HAL_RCC_GetSysClockFreq+0x1c>)
 8100b56:	f852 f023 	ldr.w	pc, [r2, r3, lsl #2]
 8100b5a:	bf00      	nop
 8100b5c:	08100bc1 	.word	0x08100bc1
 8100b60:	08100dff 	.word	0x08100dff
 8100b64:	08100dff 	.word	0x08100dff
 8100b68:	08100dff 	.word	0x08100dff
 8100b6c:	08100dff 	.word	0x08100dff
 8100b70:	08100dff 	.word	0x08100dff
 8100b74:	08100dff 	.word	0x08100dff
 8100b78:	08100dff 	.word	0x08100dff
 8100b7c:	08100be7 	.word	0x08100be7
 8100b80:	08100dff 	.word	0x08100dff
 8100b84:	08100dff 	.word	0x08100dff
 8100b88:	08100dff 	.word	0x08100dff
 8100b8c:	08100dff 	.word	0x08100dff
 8100b90:	08100dff 	.word	0x08100dff
 8100b94:	08100dff 	.word	0x08100dff
 8100b98:	08100dff 	.word	0x08100dff
 8100b9c:	08100bed 	.word	0x08100bed
 8100ba0:	08100dff 	.word	0x08100dff
 8100ba4:	08100dff 	.word	0x08100dff
 8100ba8:	08100dff 	.word	0x08100dff
 8100bac:	08100dff 	.word	0x08100dff
 8100bb0:	08100dff 	.word	0x08100dff
 8100bb4:	08100dff 	.word	0x08100dff
 8100bb8:	08100dff 	.word	0x08100dff
 8100bbc:	08100bf3 	.word	0x08100bf3
  {
  case RCC_CFGR_SWS_HSI:  /* HSI used as system clock source */

   if (__HAL_RCC_GET_FLAG(RCC_FLAG_HSIDIV) != 0U)
 8100bc0:	4b94      	ldr	r3, [pc, #592]	; (8100e14 <HAL_RCC_GetSysClockFreq+0x2d4>)
 8100bc2:	681b      	ldr	r3, [r3, #0]
 8100bc4:	f003 0320 	and.w	r3, r3, #32
 8100bc8:	2b00      	cmp	r3, #0
 8100bca:	d009      	beq.n	8100be0 <HAL_RCC_GetSysClockFreq+0xa0>
      {
        sysclockfreq = (uint32_t) (HSI_VALUE >> (__HAL_RCC_GET_HSI_DIVIDER()>> 3));
 8100bcc:	4b91      	ldr	r3, [pc, #580]	; (8100e14 <HAL_RCC_GetSysClockFreq+0x2d4>)
 8100bce:	681b      	ldr	r3, [r3, #0]
 8100bd0:	08db      	lsrs	r3, r3, #3
 8100bd2:	f003 0303 	and.w	r3, r3, #3
 8100bd6:	4a90      	ldr	r2, [pc, #576]	; (8100e18 <HAL_RCC_GetSysClockFreq+0x2d8>)
 8100bd8:	fa22 f303 	lsr.w	r3, r2, r3
 8100bdc:	61bb      	str	r3, [r7, #24]
      else
      {
        sysclockfreq = (uint32_t) HSI_VALUE;
      }

    break;
 8100bde:	e111      	b.n	8100e04 <HAL_RCC_GetSysClockFreq+0x2c4>
        sysclockfreq = (uint32_t) HSI_VALUE;
 8100be0:	4b8d      	ldr	r3, [pc, #564]	; (8100e18 <HAL_RCC_GetSysClockFreq+0x2d8>)
 8100be2:	61bb      	str	r3, [r7, #24]
    break;
 8100be4:	e10e      	b.n	8100e04 <HAL_RCC_GetSysClockFreq+0x2c4>

  case RCC_CFGR_SWS_CSI:  /* CSI used as system clock  source */
    sysclockfreq = CSI_VALUE;
 8100be6:	4b8d      	ldr	r3, [pc, #564]	; (8100e1c <HAL_RCC_GetSysClockFreq+0x2dc>)
 8100be8:	61bb      	str	r3, [r7, #24]
    break;
 8100bea:	e10b      	b.n	8100e04 <HAL_RCC_GetSysClockFreq+0x2c4>

  case RCC_CFGR_SWS_HSE:  /* HSE used as system clock  source */
    sysclockfreq = HSE_VALUE;
 8100bec:	4b8c      	ldr	r3, [pc, #560]	; (8100e20 <HAL_RCC_GetSysClockFreq+0x2e0>)
 8100bee:	61bb      	str	r3, [r7, #24]
    break;
 8100bf0:	e108      	b.n	8100e04 <HAL_RCC_GetSysClockFreq+0x2c4>
  case RCC_CFGR_SWS_PLL1:  /* PLL1 used as system clock  source */

    /* PLL_VCO = (HSE_VALUE or HSI_VALUE or CSI_VALUE/ PLLM) * PLLN
    SYSCLK = PLL_VCO / PLLR
    */
    pllsource = (RCC->PLLCKSELR & RCC_PLLCKSELR_PLLSRC);
 8100bf2:	4b88      	ldr	r3, [pc, #544]	; (8100e14 <HAL_RCC_GetSysClockFreq+0x2d4>)
 8100bf4:	6a9b      	ldr	r3, [r3, #40]	; 0x28
 8100bf6:	f003 0303 	and.w	r3, r3, #3
 8100bfa:	617b      	str	r3, [r7, #20]
    pllm = ((RCC->PLLCKSELR & RCC_PLLCKSELR_DIVM1)>> 4)  ;
 8100bfc:	4b85      	ldr	r3, [pc, #532]	; (8100e14 <HAL_RCC_GetSysClockFreq+0x2d4>)
 8100bfe:	6a9b      	ldr	r3, [r3, #40]	; 0x28
 8100c00:	091b      	lsrs	r3, r3, #4
 8100c02:	f003 033f 	and.w	r3, r3, #63	; 0x3f
 8100c06:	613b      	str	r3, [r7, #16]
    pllfracen = ((RCC-> PLLCFGR & RCC_PLLCFGR_PLL1FRACEN)>>RCC_PLLCFGR_PLL1FRACEN_Pos);
 8100c08:	4b82      	ldr	r3, [pc, #520]	; (8100e14 <HAL_RCC_GetSysClockFreq+0x2d4>)
 8100c0a:	6adb      	ldr	r3, [r3, #44]	; 0x2c
 8100c0c:	f003 0301 	and.w	r3, r3, #1
 8100c10:	60fb      	str	r3, [r7, #12]
    fracn1 = (float_t)(uint32_t)(pllfracen* ((RCC->PLL1FRACR & RCC_PLL1FRACR_FRACN1)>> 3));
 8100c12:	4b80      	ldr	r3, [pc, #512]	; (8100e14 <HAL_RCC_GetSysClockFreq+0x2d4>)
 8100c14:	6b5b      	ldr	r3, [r3, #52]	; 0x34
 8100c16:	08db      	lsrs	r3, r3, #3
 8100c18:	f3c3 030c 	ubfx	r3, r3, #0, #13
 8100c1c:	68fa      	ldr	r2, [r7, #12]
 8100c1e:	fb02 f303 	mul.w	r3, r2, r3
 8100c22:	ee07 3a90 	vmov	s15, r3
 8100c26:	eef8 7a67 	vcvt.f32.u32	s15, s15
 8100c2a:	edc7 7a02 	vstr	s15, [r7, #8]

    if (pllm != 0U)
 8100c2e:	693b      	ldr	r3, [r7, #16]
 8100c30:	2b00      	cmp	r3, #0
 8100c32:	f000 80e1 	beq.w	8100df8 <HAL_RCC_GetSysClockFreq+0x2b8>
 8100c36:	697b      	ldr	r3, [r7, #20]
 8100c38:	2b02      	cmp	r3, #2
 8100c3a:	f000 8083 	beq.w	8100d44 <HAL_RCC_GetSysClockFreq+0x204>
 8100c3e:	697b      	ldr	r3, [r7, #20]
 8100c40:	2b02      	cmp	r3, #2
 8100c42:	f200 80a1 	bhi.w	8100d88 <HAL_RCC_GetSysClockFreq+0x248>
 8100c46:	697b      	ldr	r3, [r7, #20]
 8100c48:	2b00      	cmp	r3, #0
 8100c4a:	d003      	beq.n	8100c54 <HAL_RCC_GetSysClockFreq+0x114>
 8100c4c:	697b      	ldr	r3, [r7, #20]
 8100c4e:	2b01      	cmp	r3, #1
 8100c50:	d056      	beq.n	8100d00 <HAL_RCC_GetSysClockFreq+0x1c0>
 8100c52:	e099      	b.n	8100d88 <HAL_RCC_GetSysClockFreq+0x248>
    {
      switch (pllsource)
      {
      case RCC_PLLSOURCE_HSI:  /* HSI used as PLL clock source */

       if (__HAL_RCC_GET_FLAG(RCC_FLAG_HSIDIV) != 0U)
 8100c54:	4b6f      	ldr	r3, [pc, #444]	; (8100e14 <HAL_RCC_GetSysClockFreq+0x2d4>)
 8100c56:	681b      	ldr	r3, [r3, #0]
 8100c58:	f003 0320 	and.w	r3, r3, #32
 8100c5c:	2b00      	cmp	r3, #0
 8100c5e:	d02d      	beq.n	8100cbc <HAL_RCC_GetSysClockFreq+0x17c>
        {
          hsivalue= (HSI_VALUE >> (__HAL_RCC_GET_HSI_DIVIDER()>> 3));
 8100c60:	4b6c      	ldr	r3, [pc, #432]	; (8100e14 <HAL_RCC_GetSysClockFreq+0x2d4>)
 8100c62:	681b      	ldr	r3, [r3, #0]
 8100c64:	08db      	lsrs	r3, r3, #3
 8100c66:	f003 0303 	and.w	r3, r3, #3
 8100c6a:	4a6b      	ldr	r2, [pc, #428]	; (8100e18 <HAL_RCC_GetSysClockFreq+0x2d8>)
 8100c6c:	fa22 f303 	lsr.w	r3, r2, r3
 8100c70:	607b      	str	r3, [r7, #4]
          pllvco = ( (float_t)hsivalue / (float_t)pllm) * ((float_t)(uint32_t)(RCC->PLL1DIVR & RCC_PLL1DIVR_N1) + (fracn1/(float_t)0x2000) +(float_t)1 );
 8100c72:	687b      	ldr	r3, [r7, #4]
 8100c74:	ee07 3a90 	vmov	s15, r3
 8100c78:	eef8 6a67 	vcvt.f32.u32	s13, s15
 8100c7c:	693b      	ldr	r3, [r7, #16]
 8100c7e:	ee07 3a90 	vmov	s15, r3
 8100c82:	eef8 7a67 	vcvt.f32.u32	s15, s15
 8100c86:	ee86 7aa7 	vdiv.f32	s14, s13, s15
 8100c8a:	4b62      	ldr	r3, [pc, #392]	; (8100e14 <HAL_RCC_GetSysClockFreq+0x2d4>)
 8100c8c:	6b1b      	ldr	r3, [r3, #48]	; 0x30
 8100c8e:	f3c3 0308 	ubfx	r3, r3, #0, #9
 8100c92:	ee07 3a90 	vmov	s15, r3
 8100c96:	eef8 6a67 	vcvt.f32.u32	s13, s15
 8100c9a:	ed97 6a02 	vldr	s12, [r7, #8]
 8100c9e:	eddf 5a61 	vldr	s11, [pc, #388]	; 8100e24 <HAL_RCC_GetSysClockFreq+0x2e4>
 8100ca2:	eec6 7a25 	vdiv.f32	s15, s12, s11
 8100ca6:	ee76 7aa7 	vadd.f32	s15, s13, s15
 8100caa:	eef7 6a00 	vmov.f32	s13, #112	; 0x3f800000  1.0
 8100cae:	ee77 7aa6 	vadd.f32	s15, s15, s13
 8100cb2:	ee67 7a27 	vmul.f32	s15, s14, s15
 8100cb6:	edc7 7a07 	vstr	s15, [r7, #28]
        }
        else
        {
          pllvco = ((float_t)HSI_VALUE / (float_t)pllm) * ((float_t)(uint32_t)(RCC->PLL1DIVR & RCC_PLL1DIVR_N1) + (fracn1/(float_t)0x2000) +(float_t)1 );
        }
        break;
 8100cba:	e087      	b.n	8100dcc <HAL_RCC_GetSysClockFreq+0x28c>
          pllvco = ((float_t)HSI_VALUE / (float_t)pllm) * ((float_t)(uint32_t)(RCC->PLL1DIVR & RCC_PLL1DIVR_N1) + (fracn1/(float_t)0x2000) +(float_t)1 );
 8100cbc:	693b      	ldr	r3, [r7, #16]
 8100cbe:	ee07 3a90 	vmov	s15, r3
 8100cc2:	eef8 7a67 	vcvt.f32.u32	s15, s15
 8100cc6:	eddf 6a58 	vldr	s13, [pc, #352]	; 8100e28 <HAL_RCC_GetSysClockFreq+0x2e8>
 8100cca:	ee86 7aa7 	vdiv.f32	s14, s13, s15
 8100cce:	4b51      	ldr	r3, [pc, #324]	; (8100e14 <HAL_RCC_GetSysClockFreq+0x2d4>)
 8100cd0:	6b1b      	ldr	r3, [r3, #48]	; 0x30
 8100cd2:	f3c3 0308 	ubfx	r3, r3, #0, #9
 8100cd6:	ee07 3a90 	vmov	s15, r3
 8100cda:	eef8 6a67 	vcvt.f32.u32	s13, s15
 8100cde:	ed97 6a02 	vldr	s12, [r7, #8]
 8100ce2:	eddf 5a50 	vldr	s11, [pc, #320]	; 8100e24 <HAL_RCC_GetSysClockFreq+0x2e4>
 8100ce6:	eec6 7a25 	vdiv.f32	s15, s12, s11
 8100cea:	ee76 7aa7 	vadd.f32	s15, s13, s15
 8100cee:	eef7 6a00 	vmov.f32	s13, #112	; 0x3f800000  1.0
 8100cf2:	ee77 7aa6 	vadd.f32	s15, s15, s13
 8100cf6:	ee67 7a27 	vmul.f32	s15, s14, s15
 8100cfa:	edc7 7a07 	vstr	s15, [r7, #28]
        break;
 8100cfe:	e065      	b.n	8100dcc <HAL_RCC_GetSysClockFreq+0x28c>

      case RCC_PLLSOURCE_CSI:  /* CSI used as PLL clock source */
        pllvco = ((float_t)CSI_VALUE / (float_t)pllm) * ((float_t)(uint32_t)(RCC->PLL1DIVR & RCC_PLL1DIVR_N1) + (fracn1/(float_t)0x2000) +(float_t)1 );
 8100d00:	693b      	ldr	r3, [r7, #16]
 8100d02:	ee07 3a90 	vmov	s15, r3
 8100d06:	eef8 7a67 	vcvt.f32.u32	s15, s15
 8100d0a:	eddf 6a48 	vldr	s13, [pc, #288]	; 8100e2c <HAL_RCC_GetSysClockFreq+0x2ec>
 8100d0e:	ee86 7aa7 	vdiv.f32	s14, s13, s15
 8100d12:	4b40      	ldr	r3, [pc, #256]	; (8100e14 <HAL_RCC_GetSysClockFreq+0x2d4>)
 8100d14:	6b1b      	ldr	r3, [r3, #48]	; 0x30
 8100d16:	f3c3 0308 	ubfx	r3, r3, #0, #9
 8100d1a:	ee07 3a90 	vmov	s15, r3
 8100d1e:	eef8 6a67 	vcvt.f32.u32	s13, s15
 8100d22:	ed97 6a02 	vldr	s12, [r7, #8]
 8100d26:	eddf 5a3f 	vldr	s11, [pc, #252]	; 8100e24 <HAL_RCC_GetSysClockFreq+0x2e4>
 8100d2a:	eec6 7a25 	vdiv.f32	s15, s12, s11
 8100d2e:	ee76 7aa7 	vadd.f32	s15, s13, s15
 8100d32:	eef7 6a00 	vmov.f32	s13, #112	; 0x3f800000  1.0
 8100d36:	ee77 7aa6 	vadd.f32	s15, s15, s13
 8100d3a:	ee67 7a27 	vmul.f32	s15, s14, s15
 8100d3e:	edc7 7a07 	vstr	s15, [r7, #28]
        break;
 8100d42:	e043      	b.n	8100dcc <HAL_RCC_GetSysClockFreq+0x28c>

      case RCC_PLLSOURCE_HSE:  /* HSE used as PLL clock source */
        pllvco = ((float_t)HSE_VALUE / (float_t)pllm) * ((float_t)(uint32_t)(RCC->PLL1DIVR & RCC_PLL1DIVR_N1) + (fracn1/(float_t)0x2000) +(float_t)1 );
 8100d44:	693b      	ldr	r3, [r7, #16]
 8100d46:	ee07 3a90 	vmov	s15, r3
 8100d4a:	eef8 7a67 	vcvt.f32.u32	s15, s15
 8100d4e:	eddf 6a38 	vldr	s13, [pc, #224]	; 8100e30 <HAL_RCC_GetSysClockFreq+0x2f0>
 8100d52:	ee86 7aa7 	vdiv.f32	s14, s13, s15
 8100d56:	4b2f      	ldr	r3, [pc, #188]	; (8100e14 <HAL_RCC_GetSysClockFreq+0x2d4>)
 8100d58:	6b1b      	ldr	r3, [r3, #48]	; 0x30
 8100d5a:	f3c3 0308 	ubfx	r3, r3, #0, #9
 8100d5e:	ee07 3a90 	vmov	s15, r3
 8100d62:	eef8 6a67 	vcvt.f32.u32	s13, s15
 8100d66:	ed97 6a02 	vldr	s12, [r7, #8]
 8100d6a:	eddf 5a2e 	vldr	s11, [pc, #184]	; 8100e24 <HAL_RCC_GetSysClockFreq+0x2e4>
 8100d6e:	eec6 7a25 	vdiv.f32	s15, s12, s11
 8100d72:	ee76 7aa7 	vadd.f32	s15, s13, s15
 8100d76:	eef7 6a00 	vmov.f32	s13, #112	; 0x3f800000  1.0
 8100d7a:	ee77 7aa6 	vadd.f32	s15, s15, s13
 8100d7e:	ee67 7a27 	vmul.f32	s15, s14, s15
 8100d82:	edc7 7a07 	vstr	s15, [r7, #28]
        break;
 8100d86:	e021      	b.n	8100dcc <HAL_RCC_GetSysClockFreq+0x28c>

      default:
        pllvco = ((float_t)CSI_VALUE / (float_t)pllm) * ((float_t)(uint32_t)(RCC->PLL1DIVR & RCC_PLL1DIVR_N1) + (fracn1/(float_t)0x2000) +(float_t)1 );
 8100d88:	693b      	ldr	r3, [r7, #16]
 8100d8a:	ee07 3a90 	vmov	s15, r3
 8100d8e:	eef8 7a67 	vcvt.f32.u32	s15, s15
 8100d92:	eddf 6a26 	vldr	s13, [pc, #152]	; 8100e2c <HAL_RCC_GetSysClockFreq+0x2ec>
 8100d96:	ee86 7aa7 	vdiv.f32	s14, s13, s15
 8100d9a:	4b1e      	ldr	r3, [pc, #120]	; (8100e14 <HAL_RCC_GetSysClockFreq+0x2d4>)
 8100d9c:	6b1b      	ldr	r3, [r3, #48]	; 0x30
 8100d9e:	f3c3 0308 	ubfx	r3, r3, #0, #9
 8100da2:	ee07 3a90 	vmov	s15, r3
 8100da6:	eef8 6a67 	vcvt.f32.u32	s13, s15
 8100daa:	ed97 6a02 	vldr	s12, [r7, #8]
 8100dae:	eddf 5a1d 	vldr	s11, [pc, #116]	; 8100e24 <HAL_RCC_GetSysClockFreq+0x2e4>
 8100db2:	eec6 7a25 	vdiv.f32	s15, s12, s11
 8100db6:	ee76 7aa7 	vadd.f32	s15, s13, s15
 8100dba:	eef7 6a00 	vmov.f32	s13, #112	; 0x3f800000  1.0
 8100dbe:	ee77 7aa6 	vadd.f32	s15, s15, s13
 8100dc2:	ee67 7a27 	vmul.f32	s15, s14, s15
 8100dc6:	edc7 7a07 	vstr	s15, [r7, #28]
        break;
 8100dca:	bf00      	nop
      }
      pllp = (((RCC->PLL1DIVR & RCC_PLL1DIVR_P1) >>9) + 1U ) ;
 8100dcc:	4b11      	ldr	r3, [pc, #68]	; (8100e14 <HAL_RCC_GetSysClockFreq+0x2d4>)
 8100dce:	6b1b      	ldr	r3, [r3, #48]	; 0x30
 8100dd0:	0a5b      	lsrs	r3, r3, #9
 8100dd2:	f003 037f 	and.w	r3, r3, #127	; 0x7f
 8100dd6:	3301      	adds	r3, #1
 8100dd8:	603b      	str	r3, [r7, #0]
      sysclockfreq =  (uint32_t)(float_t)(pllvco/(float_t)pllp);
 8100dda:	683b      	ldr	r3, [r7, #0]
 8100ddc:	ee07 3a90 	vmov	s15, r3
 8100de0:	eeb8 7a67 	vcvt.f32.u32	s14, s15
 8100de4:	edd7 6a07 	vldr	s13, [r7, #28]
 8100de8:	eec6 7a87 	vdiv.f32	s15, s13, s14
 8100dec:	eefc 7ae7 	vcvt.u32.f32	s15, s15
 8100df0:	ee17 3a90 	vmov	r3, s15
 8100df4:	61bb      	str	r3, [r7, #24]
    }
    else
    {
      sysclockfreq = 0U;
    }
    break;
 8100df6:	e005      	b.n	8100e04 <HAL_RCC_GetSysClockFreq+0x2c4>
      sysclockfreq = 0U;
 8100df8:	2300      	movs	r3, #0
 8100dfa:	61bb      	str	r3, [r7, #24]
    break;
 8100dfc:	e002      	b.n	8100e04 <HAL_RCC_GetSysClockFreq+0x2c4>

  default:
    sysclockfreq = CSI_VALUE;
 8100dfe:	4b07      	ldr	r3, [pc, #28]	; (8100e1c <HAL_RCC_GetSysClockFreq+0x2dc>)
 8100e00:	61bb      	str	r3, [r7, #24]
    break;
 8100e02:	bf00      	nop
  }

  return sysclockfreq;
 8100e04:	69bb      	ldr	r3, [r7, #24]
}
 8100e06:	4618      	mov	r0, r3
 8100e08:	3724      	adds	r7, #36	; 0x24
 8100e0a:	46bd      	mov	sp, r7
 8100e0c:	f85d 7b04 	ldr.w	r7, [sp], #4
 8100e10:	4770      	bx	lr
 8100e12:	bf00      	nop
 8100e14:	58024400 	.word	0x58024400
 8100e18:	03d09000 	.word	0x03d09000
 8100e1c:	003d0900 	.word	0x003d0900
 8100e20:	007a1200 	.word	0x007a1200
 8100e24:	46000000 	.word	0x46000000
 8100e28:	4c742400 	.word	0x4c742400
 8100e2c:	4a742400 	.word	0x4a742400
 8100e30:	4af42400 	.word	0x4af42400

08100e34 <HAL_UART_Transmit>:
  * @param Size    Amount of data elements (u8 or u16) to be sent.
  * @param Timeout Timeout duration.
  * @retval HAL status
  */
HAL_StatusTypeDef HAL_UART_Transmit(UART_HandleTypeDef *huart, const uint8_t *pData, uint16_t Size, uint32_t Timeout)
{
 8100e34:	b580      	push	{r7, lr}
 8100e36:	b08a      	sub	sp, #40	; 0x28
 8100e38:	af02      	add	r7, sp, #8
 8100e3a:	60f8      	str	r0, [r7, #12]
 8100e3c:	60b9      	str	r1, [r7, #8]
 8100e3e:	603b      	str	r3, [r7, #0]
 8100e40:	4613      	mov	r3, r2
 8100e42:	80fb      	strh	r3, [r7, #6]
  const uint8_t  *pdata8bits;
  const uint16_t *pdata16bits;
  uint32_t tickstart;

  /* Check that a Tx process is not already ongoing */
  if (huart->gState == HAL_UART_STATE_READY)
 8100e44:	68fb      	ldr	r3, [r7, #12]
 8100e46:	f8d3 3084 	ldr.w	r3, [r3, #132]	; 0x84
 8100e4a:	2b20      	cmp	r3, #32
 8100e4c:	f040 8083 	bne.w	8100f56 <HAL_UART_Transmit+0x122>
  {
    if ((pData == NULL) || (Size == 0U))
 8100e50:	68bb      	ldr	r3, [r7, #8]
 8100e52:	2b00      	cmp	r3, #0
 8100e54:	d002      	beq.n	8100e5c <HAL_UART_Transmit+0x28>
 8100e56:	88fb      	ldrh	r3, [r7, #6]
 8100e58:	2b00      	cmp	r3, #0
 8100e5a:	d101      	bne.n	8100e60 <HAL_UART_Transmit+0x2c>
    {
      return  HAL_ERROR;
 8100e5c:	2301      	movs	r3, #1
 8100e5e:	e07b      	b.n	8100f58 <HAL_UART_Transmit+0x124>
    }

    __HAL_LOCK(huart);
 8100e60:	68fb      	ldr	r3, [r7, #12]
 8100e62:	f893 3080 	ldrb.w	r3, [r3, #128]	; 0x80
 8100e66:	2b01      	cmp	r3, #1
 8100e68:	d101      	bne.n	8100e6e <HAL_UART_Transmit+0x3a>
 8100e6a:	2302      	movs	r3, #2
 8100e6c:	e074      	b.n	8100f58 <HAL_UART_Transmit+0x124>
 8100e6e:	68fb      	ldr	r3, [r7, #12]
 8100e70:	2201      	movs	r2, #1
 8100e72:	f883 2080 	strb.w	r2, [r3, #128]	; 0x80

    huart->ErrorCode = HAL_UART_ERROR_NONE;
 8100e76:	68fb      	ldr	r3, [r7, #12]
 8100e78:	2200      	movs	r2, #0
 8100e7a:	f8c3 208c 	str.w	r2, [r3, #140]	; 0x8c
    huart->gState = HAL_UART_STATE_BUSY_TX;
 8100e7e:	68fb      	ldr	r3, [r7, #12]
 8100e80:	2221      	movs	r2, #33	; 0x21
 8100e82:	f8c3 2084 	str.w	r2, [r3, #132]	; 0x84

    /* Init tickstart for timeout management */
    tickstart = HAL_GetTick();
 8100e86:	f7ff fbe9 	bl	810065c <HAL_GetTick>
 8100e8a:	6178      	str	r0, [r7, #20]

    huart->TxXferSize  = Size;
 8100e8c:	68fb      	ldr	r3, [r7, #12]
 8100e8e:	88fa      	ldrh	r2, [r7, #6]
 8100e90:	f8a3 2054 	strh.w	r2, [r3, #84]	; 0x54
    huart->TxXferCount = Size;
 8100e94:	68fb      	ldr	r3, [r7, #12]
 8100e96:	88fa      	ldrh	r2, [r7, #6]
 8100e98:	f8a3 2056 	strh.w	r2, [r3, #86]	; 0x56

    /* In case of 9bits/No Parity transfer, pData needs to be handled as a uint16_t pointer */
    if ((huart->Init.WordLength == UART_WORDLENGTH_9B) && (huart->Init.Parity == UART_PARITY_NONE))
 8100e9c:	68fb      	ldr	r3, [r7, #12]
 8100e9e:	689b      	ldr	r3, [r3, #8]
 8100ea0:	f5b3 5f80 	cmp.w	r3, #4096	; 0x1000
 8100ea4:	d108      	bne.n	8100eb8 <HAL_UART_Transmit+0x84>
 8100ea6:	68fb      	ldr	r3, [r7, #12]
 8100ea8:	691b      	ldr	r3, [r3, #16]
 8100eaa:	2b00      	cmp	r3, #0
 8100eac:	d104      	bne.n	8100eb8 <HAL_UART_Transmit+0x84>
    {
      pdata8bits  = NULL;
 8100eae:	2300      	movs	r3, #0
 8100eb0:	61fb      	str	r3, [r7, #28]
      pdata16bits = (const uint16_t *) pData;
 8100eb2:	68bb      	ldr	r3, [r7, #8]
 8100eb4:	61bb      	str	r3, [r7, #24]
 8100eb6:	e003      	b.n	8100ec0 <HAL_UART_Transmit+0x8c>
    }
    else
    {
      pdata8bits  = pData;
 8100eb8:	68bb      	ldr	r3, [r7, #8]
 8100eba:	61fb      	str	r3, [r7, #28]
      pdata16bits = NULL;
 8100ebc:	2300      	movs	r3, #0
 8100ebe:	61bb      	str	r3, [r7, #24]
    }

    __HAL_UNLOCK(huart);
 8100ec0:	68fb      	ldr	r3, [r7, #12]
 8100ec2:	2200      	movs	r2, #0
 8100ec4:	f883 2080 	strb.w	r2, [r3, #128]	; 0x80

    while (huart->TxXferCount > 0U)
 8100ec8:	e02c      	b.n	8100f24 <HAL_UART_Transmit+0xf0>
    {
      if (UART_WaitOnFlagUntilTimeout(huart, UART_FLAG_TXE, RESET, tickstart, Timeout) != HAL_OK)
 8100eca:	683b      	ldr	r3, [r7, #0]
 8100ecc:	9300      	str	r3, [sp, #0]
 8100ece:	697b      	ldr	r3, [r7, #20]
 8100ed0:	2200      	movs	r2, #0
 8100ed2:	2180      	movs	r1, #128	; 0x80
 8100ed4:	68f8      	ldr	r0, [r7, #12]
 8100ed6:	f000 f88e 	bl	8100ff6 <UART_WaitOnFlagUntilTimeout>
 8100eda:	4603      	mov	r3, r0
 8100edc:	2b00      	cmp	r3, #0
 8100ede:	d001      	beq.n	8100ee4 <HAL_UART_Transmit+0xb0>
      {
        return HAL_TIMEOUT;
 8100ee0:	2303      	movs	r3, #3
 8100ee2:	e039      	b.n	8100f58 <HAL_UART_Transmit+0x124>
      }
      if (pdata8bits == NULL)
 8100ee4:	69fb      	ldr	r3, [r7, #28]
 8100ee6:	2b00      	cmp	r3, #0
 8100ee8:	d10b      	bne.n	8100f02 <HAL_UART_Transmit+0xce>
      {
        huart->Instance->TDR = (uint16_t)(*pdata16bits & 0x01FFU);
 8100eea:	69bb      	ldr	r3, [r7, #24]
 8100eec:	881b      	ldrh	r3, [r3, #0]
 8100eee:	461a      	mov	r2, r3
 8100ef0:	68fb      	ldr	r3, [r7, #12]
 8100ef2:	681b      	ldr	r3, [r3, #0]
 8100ef4:	f3c2 0208 	ubfx	r2, r2, #0, #9
 8100ef8:	629a      	str	r2, [r3, #40]	; 0x28
        pdata16bits++;
 8100efa:	69bb      	ldr	r3, [r7, #24]
 8100efc:	3302      	adds	r3, #2
 8100efe:	61bb      	str	r3, [r7, #24]
 8100f00:	e007      	b.n	8100f12 <HAL_UART_Transmit+0xde>
      }
      else
      {
        huart->Instance->TDR = (uint8_t)(*pdata8bits & 0xFFU);
 8100f02:	69fb      	ldr	r3, [r7, #28]
 8100f04:	781a      	ldrb	r2, [r3, #0]
 8100f06:	68fb      	ldr	r3, [r7, #12]
 8100f08:	681b      	ldr	r3, [r3, #0]
 8100f0a:	629a      	str	r2, [r3, #40]	; 0x28
        pdata8bits++;
 8100f0c:	69fb      	ldr	r3, [r7, #28]
 8100f0e:	3301      	adds	r3, #1
 8100f10:	61fb      	str	r3, [r7, #28]
      }
      huart->TxXferCount--;
 8100f12:	68fb      	ldr	r3, [r7, #12]
 8100f14:	f8b3 3056 	ldrh.w	r3, [r3, #86]	; 0x56
 8100f18:	b29b      	uxth	r3, r3
 8100f1a:	3b01      	subs	r3, #1
 8100f1c:	b29a      	uxth	r2, r3
 8100f1e:	68fb      	ldr	r3, [r7, #12]
 8100f20:	f8a3 2056 	strh.w	r2, [r3, #86]	; 0x56
    while (huart->TxXferCount > 0U)
 8100f24:	68fb      	ldr	r3, [r7, #12]
 8100f26:	f8b3 3056 	ldrh.w	r3, [r3, #86]	; 0x56
 8100f2a:	b29b      	uxth	r3, r3
 8100f2c:	2b00      	cmp	r3, #0
 8100f2e:	d1cc      	bne.n	8100eca <HAL_UART_Transmit+0x96>
    }

    if (UART_WaitOnFlagUntilTimeout(huart, UART_FLAG_TC, RESET, tickstart, Timeout) != HAL_OK)
 8100f30:	683b      	ldr	r3, [r7, #0]
 8100f32:	9300      	str	r3, [sp, #0]
 8100f34:	697b      	ldr	r3, [r7, #20]
 8100f36:	2200      	movs	r2, #0
 8100f38:	2140      	movs	r1, #64	; 0x40
 8100f3a:	68f8      	ldr	r0, [r7, #12]
 8100f3c:	f000 f85b 	bl	8100ff6 <UART_WaitOnFlagUntilTimeout>
 8100f40:	4603      	mov	r3, r0
 8100f42:	2b00      	cmp	r3, #0
 8100f44:	d001      	beq.n	8100f4a <HAL_UART_Transmit+0x116>
    {
      return HAL_TIMEOUT;
 8100f46:	2303      	movs	r3, #3
 8100f48:	e006      	b.n	8100f58 <HAL_UART_Transmit+0x124>
    }

    /* At end of Tx process, restore huart->gState to Ready */
    huart->gState = HAL_UART_STATE_READY;
 8100f4a:	68fb      	ldr	r3, [r7, #12]
 8100f4c:	2220      	movs	r2, #32
 8100f4e:	f8c3 2084 	str.w	r2, [r3, #132]	; 0x84

    return HAL_OK;
 8100f52:	2300      	movs	r3, #0
 8100f54:	e000      	b.n	8100f58 <HAL_UART_Transmit+0x124>
  }
  else
  {
    return HAL_BUSY;
 8100f56:	2302      	movs	r3, #2
  }
}
 8100f58:	4618      	mov	r0, r3
 8100f5a:	3720      	adds	r7, #32
 8100f5c:	46bd      	mov	sp, r7
 8100f5e:	bd80      	pop	{r7, pc}

08100f60 <UART_CheckIdleState>:
  * @brief Check the UART Idle State.
  * @param huart UART handle.
  * @retval HAL status
  */
HAL_StatusTypeDef UART_CheckIdleState(UART_HandleTypeDef *huart)
{
 8100f60:	b580      	push	{r7, lr}
 8100f62:	b086      	sub	sp, #24
 8100f64:	af02      	add	r7, sp, #8
 8100f66:	6078      	str	r0, [r7, #4]
  uint32_t tickstart;

  /* Initialize the UART ErrorCode */
  huart->ErrorCode = HAL_UART_ERROR_NONE;
 8100f68:	687b      	ldr	r3, [r7, #4]
 8100f6a:	2200      	movs	r2, #0
 8100f6c:	f8c3 208c 	str.w	r2, [r3, #140]	; 0x8c

  /* Init tickstart for timeout management */
  tickstart = HAL_GetTick();
 8100f70:	f7ff fb74 	bl	810065c <HAL_GetTick>
 8100f74:	60f8      	str	r0, [r7, #12]

  /* Check if the Transmitter is enabled */
  if ((huart->Instance->CR1 & USART_CR1_TE) == USART_CR1_TE)
 8100f76:	687b      	ldr	r3, [r7, #4]
 8100f78:	681b      	ldr	r3, [r3, #0]
 8100f7a:	681b      	ldr	r3, [r3, #0]
 8100f7c:	f003 0308 	and.w	r3, r3, #8
 8100f80:	2b08      	cmp	r3, #8
 8100f82:	d10e      	bne.n	8100fa2 <UART_CheckIdleState+0x42>
  {
    /* Wait until TEACK flag is set */
    if (UART_WaitOnFlagUntilTimeout(huart, USART_ISR_TEACK, RESET, tickstart, HAL_UART_TIMEOUT_VALUE) != HAL_OK)
 8100f84:	f06f 437e 	mvn.w	r3, #4261412864	; 0xfe000000
 8100f88:	9300      	str	r3, [sp, #0]
 8100f8a:	68fb      	ldr	r3, [r7, #12]
 8100f8c:	2200      	movs	r2, #0
 8100f8e:	f44f 1100 	mov.w	r1, #2097152	; 0x200000
 8100f92:	6878      	ldr	r0, [r7, #4]
 8100f94:	f000 f82f 	bl	8100ff6 <UART_WaitOnFlagUntilTimeout>
 8100f98:	4603      	mov	r3, r0
 8100f9a:	2b00      	cmp	r3, #0
 8100f9c:	d001      	beq.n	8100fa2 <UART_CheckIdleState+0x42>
    {
      /* Timeout occurred */
      return HAL_TIMEOUT;
 8100f9e:	2303      	movs	r3, #3
 8100fa0:	e025      	b.n	8100fee <UART_CheckIdleState+0x8e>
    }
  }

  /* Check if the Receiver is enabled */
  if ((huart->Instance->CR1 & USART_CR1_RE) == USART_CR1_RE)
 8100fa2:	687b      	ldr	r3, [r7, #4]
 8100fa4:	681b      	ldr	r3, [r3, #0]
 8100fa6:	681b      	ldr	r3, [r3, #0]
 8100fa8:	f003 0304 	and.w	r3, r3, #4
 8100fac:	2b04      	cmp	r3, #4
 8100fae:	d10e      	bne.n	8100fce <UART_CheckIdleState+0x6e>
  {
    /* Wait until REACK flag is set */
    if (UART_WaitOnFlagUntilTimeout(huart, USART_ISR_REACK, RESET, tickstart, HAL_UART_TIMEOUT_VALUE) != HAL_OK)
 8100fb0:	f06f 437e 	mvn.w	r3, #4261412864	; 0xfe000000
 8100fb4:	9300      	str	r3, [sp, #0]
 8100fb6:	68fb      	ldr	r3, [r7, #12]
 8100fb8:	2200      	movs	r2, #0
 8100fba:	f44f 0180 	mov.w	r1, #4194304	; 0x400000
 8100fbe:	6878      	ldr	r0, [r7, #4]
 8100fc0:	f000 f819 	bl	8100ff6 <UART_WaitOnFlagUntilTimeout>
 8100fc4:	4603      	mov	r3, r0
 8100fc6:	2b00      	cmp	r3, #0
 8100fc8:	d001      	beq.n	8100fce <UART_CheckIdleState+0x6e>
    {
      /* Timeout occurred */
      return HAL_TIMEOUT;
 8100fca:	2303      	movs	r3, #3
 8100fcc:	e00f      	b.n	8100fee <UART_CheckIdleState+0x8e>
    }
  }

  /* Initialize the UART State */
  huart->gState = HAL_UART_STATE_READY;
 8100fce:	687b      	ldr	r3, [r7, #4]
 8100fd0:	2220      	movs	r2, #32
 8100fd2:	f8c3 2084 	str.w	r2, [r3, #132]	; 0x84
  huart->RxState = HAL_UART_STATE_READY;
 8100fd6:	687b      	ldr	r3, [r7, #4]
 8100fd8:	2220      	movs	r2, #32
 8100fda:	f8c3 2088 	str.w	r2, [r3, #136]	; 0x88
  huart->ReceptionType = HAL_UART_RECEPTION_STANDARD;
 8100fde:	687b      	ldr	r3, [r7, #4]
 8100fe0:	2200      	movs	r2, #0
 8100fe2:	66da      	str	r2, [r3, #108]	; 0x6c

  __HAL_UNLOCK(huart);
 8100fe4:	687b      	ldr	r3, [r7, #4]
 8100fe6:	2200      	movs	r2, #0
 8100fe8:	f883 2080 	strb.w	r2, [r3, #128]	; 0x80

  return HAL_OK;
 8100fec:	2300      	movs	r3, #0
}
 8100fee:	4618      	mov	r0, r3
 8100ff0:	3710      	adds	r7, #16
 8100ff2:	46bd      	mov	sp, r7
 8100ff4:	bd80      	pop	{r7, pc}

08100ff6 <UART_WaitOnFlagUntilTimeout>:
  * @param Timeout   Timeout duration
  * @retval HAL status
  */
HAL_StatusTypeDef UART_WaitOnFlagUntilTimeout(UART_HandleTypeDef *huart, uint32_t Flag, FlagStatus Status,
                                              uint32_t Tickstart, uint32_t Timeout)
{
 8100ff6:	b580      	push	{r7, lr}
 8100ff8:	b09c      	sub	sp, #112	; 0x70
 8100ffa:	af00      	add	r7, sp, #0
 8100ffc:	60f8      	str	r0, [r7, #12]
 8100ffe:	60b9      	str	r1, [r7, #8]
 8101000:	603b      	str	r3, [r7, #0]
 8101002:	4613      	mov	r3, r2
 8101004:	71fb      	strb	r3, [r7, #7]
  /* Wait until flag is set */
  while ((__HAL_UART_GET_FLAG(huart, Flag) ? SET : RESET) == Status)
 8101006:	e0a9      	b.n	810115c <UART_WaitOnFlagUntilTimeout+0x166>
  {
    /* Check for the Timeout */
    if (Timeout != HAL_MAX_DELAY)
 8101008:	6fbb      	ldr	r3, [r7, #120]	; 0x78
 810100a:	f1b3 3fff 	cmp.w	r3, #4294967295
 810100e:	f000 80a5 	beq.w	810115c <UART_WaitOnFlagUntilTimeout+0x166>
    {
      if (((HAL_GetTick() - Tickstart) > Timeout) || (Timeout == 0U))
 8101012:	f7ff fb23 	bl	810065c <HAL_GetTick>
 8101016:	4602      	mov	r2, r0
 8101018:	683b      	ldr	r3, [r7, #0]
 810101a:	1ad3      	subs	r3, r2, r3
 810101c:	6fba      	ldr	r2, [r7, #120]	; 0x78
 810101e:	429a      	cmp	r2, r3
 8101020:	d302      	bcc.n	8101028 <UART_WaitOnFlagUntilTimeout+0x32>
 8101022:	6fbb      	ldr	r3, [r7, #120]	; 0x78
 8101024:	2b00      	cmp	r3, #0
 8101026:	d140      	bne.n	81010aa <UART_WaitOnFlagUntilTimeout+0xb4>
      {
        /* Disable TXE, RXNE, PE and ERR (Frame error, noise error, overrun error)
           interrupts for the interrupt process */
        ATOMIC_CLEAR_BIT(huart->Instance->CR1, (USART_CR1_RXNEIE_RXFNEIE | USART_CR1_PEIE |
 8101028:	68fb      	ldr	r3, [r7, #12]
 810102a:	681b      	ldr	r3, [r3, #0]
 810102c:	653b      	str	r3, [r7, #80]	; 0x50
 */
__STATIC_FORCEINLINE uint32_t __LDREXW(volatile uint32_t *addr)
{
    uint32_t result;

   __ASM volatile ("ldrex %0, %1" : "=r" (result) : "Q" (*addr) );
 810102e:	6d3b      	ldr	r3, [r7, #80]	; 0x50
 8101030:	e853 3f00 	ldrex	r3, [r3]
 8101034:	64fb      	str	r3, [r7, #76]	; 0x4c
   return(result);
 8101036:	6cfb      	ldr	r3, [r7, #76]	; 0x4c
 8101038:	f423 73d0 	bic.w	r3, r3, #416	; 0x1a0
 810103c:	667b      	str	r3, [r7, #100]	; 0x64
 810103e:	68fb      	ldr	r3, [r7, #12]
 8101040:	681b      	ldr	r3, [r3, #0]
 8101042:	461a      	mov	r2, r3
 8101044:	6e7b      	ldr	r3, [r7, #100]	; 0x64
 8101046:	65fb      	str	r3, [r7, #92]	; 0x5c
 8101048:	65ba      	str	r2, [r7, #88]	; 0x58
 */
__STATIC_FORCEINLINE uint32_t __STREXW(uint32_t value, volatile uint32_t *addr)
{
   uint32_t result;

   __ASM volatile ("strex %0, %2, %1" : "=&r" (result), "=Q" (*addr) : "r" (value) );
 810104a:	6db9      	ldr	r1, [r7, #88]	; 0x58
 810104c:	6dfa      	ldr	r2, [r7, #92]	; 0x5c
 810104e:	e841 2300 	strex	r3, r2, [r1]
 8101052:	657b      	str	r3, [r7, #84]	; 0x54
   return(result);
 8101054:	6d7b      	ldr	r3, [r7, #84]	; 0x54
 8101056:	2b00      	cmp	r3, #0
 8101058:	d1e6      	bne.n	8101028 <UART_WaitOnFlagUntilTimeout+0x32>
                                                USART_CR1_TXEIE_TXFNFIE));
        ATOMIC_CLEAR_BIT(huart->Instance->CR3, USART_CR3_EIE);
 810105a:	68fb      	ldr	r3, [r7, #12]
 810105c:	681b      	ldr	r3, [r3, #0]
 810105e:	3308      	adds	r3, #8
 8101060:	63fb      	str	r3, [r7, #60]	; 0x3c
   __ASM volatile ("ldrex %0, %1" : "=r" (result) : "Q" (*addr) );
 8101062:	6bfb      	ldr	r3, [r7, #60]	; 0x3c
 8101064:	e853 3f00 	ldrex	r3, [r3]
 8101068:	63bb      	str	r3, [r7, #56]	; 0x38
   return(result);
 810106a:	6bbb      	ldr	r3, [r7, #56]	; 0x38
 810106c:	f023 0301 	bic.w	r3, r3, #1
 8101070:	663b      	str	r3, [r7, #96]	; 0x60
 8101072:	68fb      	ldr	r3, [r7, #12]
 8101074:	681b      	ldr	r3, [r3, #0]
 8101076:	3308      	adds	r3, #8
 8101078:	6e3a      	ldr	r2, [r7, #96]	; 0x60
 810107a:	64ba      	str	r2, [r7, #72]	; 0x48
 810107c:	647b      	str	r3, [r7, #68]	; 0x44
   __ASM volatile ("strex %0, %2, %1" : "=&r" (result), "=Q" (*addr) : "r" (value) );
 810107e:	6c79      	ldr	r1, [r7, #68]	; 0x44
 8101080:	6cba      	ldr	r2, [r7, #72]	; 0x48
 8101082:	e841 2300 	strex	r3, r2, [r1]
 8101086:	643b      	str	r3, [r7, #64]	; 0x40
   return(result);
 8101088:	6c3b      	ldr	r3, [r7, #64]	; 0x40
 810108a:	2b00      	cmp	r3, #0
 810108c:	d1e5      	bne.n	810105a <UART_WaitOnFlagUntilTimeout+0x64>

        huart->gState = HAL_UART_STATE_READY;
 810108e:	68fb      	ldr	r3, [r7, #12]
 8101090:	2220      	movs	r2, #32
 8101092:	f8c3 2084 	str.w	r2, [r3, #132]	; 0x84
        huart->RxState = HAL_UART_STATE_READY;
 8101096:	68fb      	ldr	r3, [r7, #12]
 8101098:	2220      	movs	r2, #32
 810109a:	f8c3 2088 	str.w	r2, [r3, #136]	; 0x88

        __HAL_UNLOCK(huart);
 810109e:	68fb      	ldr	r3, [r7, #12]
 81010a0:	2200      	movs	r2, #0
 81010a2:	f883 2080 	strb.w	r2, [r3, #128]	; 0x80

        return HAL_TIMEOUT;
 81010a6:	2303      	movs	r3, #3
 81010a8:	e069      	b.n	810117e <UART_WaitOnFlagUntilTimeout+0x188>
      }

      if (READ_BIT(huart->Instance->CR1, USART_CR1_RE) != 0U)
 81010aa:	68fb      	ldr	r3, [r7, #12]
 81010ac:	681b      	ldr	r3, [r3, #0]
 81010ae:	681b      	ldr	r3, [r3, #0]
 81010b0:	f003 0304 	and.w	r3, r3, #4
 81010b4:	2b00      	cmp	r3, #0
 81010b6:	d051      	beq.n	810115c <UART_WaitOnFlagUntilTimeout+0x166>
      {
        if (__HAL_UART_GET_FLAG(huart, UART_FLAG_RTOF) == SET)
 81010b8:	68fb      	ldr	r3, [r7, #12]
 81010ba:	681b      	ldr	r3, [r3, #0]
 81010bc:	69db      	ldr	r3, [r3, #28]
 81010be:	f403 6300 	and.w	r3, r3, #2048	; 0x800
 81010c2:	f5b3 6f00 	cmp.w	r3, #2048	; 0x800
 81010c6:	d149      	bne.n	810115c <UART_WaitOnFlagUntilTimeout+0x166>
        {
          /* Clear Receiver Timeout flag*/
          __HAL_UART_CLEAR_FLAG(huart, UART_CLEAR_RTOF);
 81010c8:	68fb      	ldr	r3, [r7, #12]
 81010ca:	681b      	ldr	r3, [r3, #0]
 81010cc:	f44f 6200 	mov.w	r2, #2048	; 0x800
 81010d0:	621a      	str	r2, [r3, #32]

          /* Disable TXE, RXNE, PE and ERR (Frame error, noise error, overrun error)
             interrupts for the interrupt process */
          ATOMIC_CLEAR_BIT(huart->Instance->CR1, (USART_CR1_RXNEIE_RXFNEIE | USART_CR1_PEIE |
 81010d2:	68fb      	ldr	r3, [r7, #12]
 81010d4:	681b      	ldr	r3, [r3, #0]
 81010d6:	62bb      	str	r3, [r7, #40]	; 0x28
   __ASM volatile ("ldrex %0, %1" : "=r" (result) : "Q" (*addr) );
 81010d8:	6abb      	ldr	r3, [r7, #40]	; 0x28
 81010da:	e853 3f00 	ldrex	r3, [r3]
 81010de:	627b      	str	r3, [r7, #36]	; 0x24
   return(result);
 81010e0:	6a7b      	ldr	r3, [r7, #36]	; 0x24
 81010e2:	f423 73d0 	bic.w	r3, r3, #416	; 0x1a0
 81010e6:	66fb      	str	r3, [r7, #108]	; 0x6c
 81010e8:	68fb      	ldr	r3, [r7, #12]
 81010ea:	681b      	ldr	r3, [r3, #0]
 81010ec:	461a      	mov	r2, r3
 81010ee:	6efb      	ldr	r3, [r7, #108]	; 0x6c
 81010f0:	637b      	str	r3, [r7, #52]	; 0x34
 81010f2:	633a      	str	r2, [r7, #48]	; 0x30
   __ASM volatile ("strex %0, %2, %1" : "=&r" (result), "=Q" (*addr) : "r" (value) );
 81010f4:	6b39      	ldr	r1, [r7, #48]	; 0x30
 81010f6:	6b7a      	ldr	r2, [r7, #52]	; 0x34
 81010f8:	e841 2300 	strex	r3, r2, [r1]
 81010fc:	62fb      	str	r3, [r7, #44]	; 0x2c
   return(result);
 81010fe:	6afb      	ldr	r3, [r7, #44]	; 0x2c
 8101100:	2b00      	cmp	r3, #0
 8101102:	d1e6      	bne.n	81010d2 <UART_WaitOnFlagUntilTimeout+0xdc>
                                                  USART_CR1_TXEIE_TXFNFIE));
          ATOMIC_CLEAR_BIT(huart->Instance->CR3, USART_CR3_EIE);
 8101104:	68fb      	ldr	r3, [r7, #12]
 8101106:	681b      	ldr	r3, [r3, #0]
 8101108:	3308      	adds	r3, #8
 810110a:	617b      	str	r3, [r7, #20]
   __ASM volatile ("ldrex %0, %1" : "=r" (result) : "Q" (*addr) );
 810110c:	697b      	ldr	r3, [r7, #20]
 810110e:	e853 3f00 	ldrex	r3, [r3]
 8101112:	613b      	str	r3, [r7, #16]
   return(result);
 8101114:	693b      	ldr	r3, [r7, #16]
 8101116:	f023 0301 	bic.w	r3, r3, #1
 810111a:	66bb      	str	r3, [r7, #104]	; 0x68
 810111c:	68fb      	ldr	r3, [r7, #12]
 810111e:	681b      	ldr	r3, [r3, #0]
 8101120:	3308      	adds	r3, #8
 8101122:	6eba      	ldr	r2, [r7, #104]	; 0x68
 8101124:	623a      	str	r2, [r7, #32]
 8101126:	61fb      	str	r3, [r7, #28]
   __ASM volatile ("strex %0, %2, %1" : "=&r" (result), "=Q" (*addr) : "r" (value) );
 8101128:	69f9      	ldr	r1, [r7, #28]
 810112a:	6a3a      	ldr	r2, [r7, #32]
 810112c:	e841 2300 	strex	r3, r2, [r1]
 8101130:	61bb      	str	r3, [r7, #24]
   return(result);
 8101132:	69bb      	ldr	r3, [r7, #24]
 8101134:	2b00      	cmp	r3, #0
 8101136:	d1e5      	bne.n	8101104 <UART_WaitOnFlagUntilTimeout+0x10e>

          huart->gState = HAL_UART_STATE_READY;
 8101138:	68fb      	ldr	r3, [r7, #12]
 810113a:	2220      	movs	r2, #32
 810113c:	f8c3 2084 	str.w	r2, [r3, #132]	; 0x84
          huart->RxState = HAL_UART_STATE_READY;
 8101140:	68fb      	ldr	r3, [r7, #12]
 8101142:	2220      	movs	r2, #32
 8101144:	f8c3 2088 	str.w	r2, [r3, #136]	; 0x88
          huart->ErrorCode = HAL_UART_ERROR_RTO;
 8101148:	68fb      	ldr	r3, [r7, #12]
 810114a:	2220      	movs	r2, #32
 810114c:	f8c3 208c 	str.w	r2, [r3, #140]	; 0x8c

          /* Process Unlocked */
          __HAL_UNLOCK(huart);
 8101150:	68fb      	ldr	r3, [r7, #12]
 8101152:	2200      	movs	r2, #0
 8101154:	f883 2080 	strb.w	r2, [r3, #128]	; 0x80

          return HAL_TIMEOUT;
 8101158:	2303      	movs	r3, #3
 810115a:	e010      	b.n	810117e <UART_WaitOnFlagUntilTimeout+0x188>
  while ((__HAL_UART_GET_FLAG(huart, Flag) ? SET : RESET) == Status)
 810115c:	68fb      	ldr	r3, [r7, #12]
 810115e:	681b      	ldr	r3, [r3, #0]
 8101160:	69da      	ldr	r2, [r3, #28]
 8101162:	68bb      	ldr	r3, [r7, #8]
 8101164:	4013      	ands	r3, r2
 8101166:	68ba      	ldr	r2, [r7, #8]
 8101168:	429a      	cmp	r2, r3
 810116a:	bf0c      	ite	eq
 810116c:	2301      	moveq	r3, #1
 810116e:	2300      	movne	r3, #0
 8101170:	b2db      	uxtb	r3, r3
 8101172:	461a      	mov	r2, r3
 8101174:	79fb      	ldrb	r3, [r7, #7]
 8101176:	429a      	cmp	r2, r3
 8101178:	f43f af46 	beq.w	8101008 <UART_WaitOnFlagUntilTimeout+0x12>
        }
      }
    }
  }
  return HAL_OK;
 810117c:	2300      	movs	r3, #0
}
 810117e:	4618      	mov	r0, r3
 8101180:	3770      	adds	r7, #112	; 0x70
 8101182:	46bd      	mov	sp, r7
 8101184:	bd80      	pop	{r7, pc}
	...

08101188 <__libc_init_array>:
 8101188:	b570      	push	{r4, r5, r6, lr}
 810118a:	4d0d      	ldr	r5, [pc, #52]	; (81011c0 <__libc_init_array+0x38>)
 810118c:	4c0d      	ldr	r4, [pc, #52]	; (81011c4 <__libc_init_array+0x3c>)
 810118e:	1b64      	subs	r4, r4, r5
 8101190:	10a4      	asrs	r4, r4, #2
 8101192:	2600      	movs	r6, #0
 8101194:	42a6      	cmp	r6, r4
 8101196:	d109      	bne.n	81011ac <__libc_init_array+0x24>
 8101198:	4d0b      	ldr	r5, [pc, #44]	; (81011c8 <__libc_init_array+0x40>)
 810119a:	4c0c      	ldr	r4, [pc, #48]	; (81011cc <__libc_init_array+0x44>)
 810119c:	f000 f818 	bl	81011d0 <_init>
 81011a0:	1b64      	subs	r4, r4, r5
 81011a2:	10a4      	asrs	r4, r4, #2
 81011a4:	2600      	movs	r6, #0
 81011a6:	42a6      	cmp	r6, r4
 81011a8:	d105      	bne.n	81011b6 <__libc_init_array+0x2e>
 81011aa:	bd70      	pop	{r4, r5, r6, pc}
 81011ac:	f855 3b04 	ldr.w	r3, [r5], #4
 81011b0:	4798      	blx	r3
 81011b2:	3601      	adds	r6, #1
 81011b4:	e7ee      	b.n	8101194 <__libc_init_array+0xc>
 81011b6:	f855 3b04 	ldr.w	r3, [r5], #4
 81011ba:	4798      	blx	r3
 81011bc:	3601      	adds	r6, #1
 81011be:	e7f2      	b.n	81011a6 <__libc_init_array+0x1e>
 81011c0:	08101200 	.word	0x08101200
 81011c4:	08101200 	.word	0x08101200
 81011c8:	08101200 	.word	0x08101200
 81011cc:	08101204 	.word	0x08101204

081011d0 <_init>:
 81011d0:	b5f8      	push	{r3, r4, r5, r6, r7, lr}
 81011d2:	bf00      	nop
 81011d4:	bcf8      	pop	{r3, r4, r5, r6, r7}
 81011d6:	bc08      	pop	{r3}
 81011d8:	469e      	mov	lr, r3
 81011da:	4770      	bx	lr

081011dc <_fini>:
 81011dc:	b5f8      	push	{r3, r4, r5, r6, r7, lr}
 81011de:	bf00      	nop
 81011e0:	bcf8      	pop	{r3, r4, r5, r6, r7}
 81011e2:	bc08      	pop	{r3}
 81011e4:	469e      	mov	lr, r3
 81011e6:	4770      	bx	lr
