
OPENAMP_CM4.elf:     file format elf32-littlearm

Sections:
Idx Name          Size      VMA       LMA       File off  Algn
  0 .isr_vector   00000298  08100000  08100000  00010000  2**0
                  CONTENTS, ALLOC, LOAD, READONLY, DATA
  1 .text         000077e8  081002a0  081002a0  000102a0  2**4
                  CONTENTS, ALLOC, LOAD, READONLY, CODE
  2 .rodata       00000370  08107a88  08107a88  00017a88  2**2
                  CONTENTS, ALLOC, LOAD, READONLY, DATA
  3 .ARM          00000008  08107df8  08107df8  00017df8  2**2
                  CONTENTS, ALLOC, LOAD, READONLY, DATA
  4 .init_array   00000004  08107e00  08107e00  00017e00  2**2
                  CONTENTS, ALLOC, LOAD, DATA
  5 .fini_array   00000004  08107e04  08107e04  00017e04  2**2
                  CONTENTS, ALLOC, LOAD, DATA
  6 .data         0000011c  10000000  08107e08  00020000  2**2
                  CONTENTS, ALLOC, LOAD, DATA
  7 .bss          000001c4  1000011c  08107f24  0002011c  2**2
                  ALLOC
  8 ._user_heap_stack 00000600  100002e0  08107f24  000202e0  2**0
                  ALLOC
  9 .openamp_section 0000008c  38000000  08107f24  00030000  2**2
                  ALLOC
 10 .ARM.attributes 00000030  00000000  00000000  0002011c  2**0
                  CONTENTS, READONLY
 11 .debug_info   00019ef9  00000000  00000000  0002014c  2**0
                  CONTENTS, READONLY, DEBUGGING, OCTETS
 12 .debug_abbrev 0000400e  00000000  00000000  0003a045  2**0
                  CONTENTS, READONLY, DEBUGGING, OCTETS
 13 .debug_aranges 00001280  00000000  00000000  0003e058  2**3
                  CONTENTS, READONLY, DEBUGGING, OCTETS
 14 .debug_ranges 000010d0  00000000  00000000  0003f2d8  2**3
                  CONTENTS, READONLY, DEBUGGING, OCTETS
 15 .debug_macro  0003dceb  00000000  00000000  000403a8  2**0
                  CONTENTS, READONLY, DEBUGGING, OCTETS
 16 .debug_line   0001b4ee  00000000  00000000  0007e093  2**0
                  CONTENTS, READONLY, DEBUGGING, OCTETS
 17 .debug_str    0017d4ff  00000000  00000000  00099581  2**0
                  CONTENTS, READONLY, DEBUGGING, OCTETS
 18 .comment      00000050  00000000  00000000  00216a80  2**0
                  CONTENTS, READONLY
 19 .debug_frame  00005390  00000000  00000000  00216ad0  2**2
                  CONTENTS, READONLY, DEBUGGING, OCTETS

Disassembly of section .text:

081002a0 <__do_global_dtors_aux>:
 81002a0:	b510      	push	{r4, lr}
 81002a2:	4c05      	ldr	r4, [pc, #20]	; (81002b8 <__do_global_dtors_aux+0x18>)
 81002a4:	7823      	ldrb	r3, [r4, #0]
 81002a6:	b933      	cbnz	r3, 81002b6 <__do_global_dtors_aux+0x16>
 81002a8:	4b04      	ldr	r3, [pc, #16]	; (81002bc <__do_global_dtors_aux+0x1c>)
 81002aa:	b113      	cbz	r3, 81002b2 <__do_global_dtors_aux+0x12>
 81002ac:	4804      	ldr	r0, [pc, #16]	; (81002c0 <__do_global_dtors_aux+0x20>)
 81002ae:	f3af 8000 	nop.w
 81002b2:	2301      	movs	r3, #1
 81002b4:	7023      	strb	r3, [r4, #0]
 81002b6:	bd10      	pop	{r4, pc}
 81002b8:	1000011c 	.word	0x1000011c
 81002bc:	00000000 	.word	0x00000000
 81002c0:	08107a70 	.word	0x08107a70

081002c4 <frame_dummy>:
 81002c4:	b508      	push	{r3, lr}
 81002c6:	4b03      	ldr	r3, [pc, #12]	; (81002d4 <frame_dummy+0x10>)
 81002c8:	b11b      	cbz	r3, 81002d2 <frame_dummy+0xe>
 81002ca:	4903      	ldr	r1, [pc, #12]	; (81002d8 <frame_dummy+0x14>)
 81002cc:	4803      	ldr	r0, [pc, #12]	; (81002dc <frame_dummy+0x18>)
 81002ce:	f3af 8000 	nop.w
 81002d2:	bd08      	pop	{r3, pc}
 81002d4:	00000000 	.word	0x00000000
 81002d8:	10000120 	.word	0x10000120
 81002dc:	08107a70 	.word	0x08107a70

081002e0 <strcmp>:
 81002e0:	f810 2b01 	ldrb.w	r2, [r0], #1
 81002e4:	f811 3b01 	ldrb.w	r3, [r1], #1
 81002e8:	2a01      	cmp	r2, #1
 81002ea:	bf28      	it	cs
 81002ec:	429a      	cmpcs	r2, r3
 81002ee:	d0f7      	beq.n	81002e0 <strcmp>
 81002f0:	1ad0      	subs	r0, r2, r3
 81002f2:	4770      	bx	lr
	...

08100300 <memchr>:
 8100300:	f001 01ff 	and.w	r1, r1, #255	; 0xff
 8100304:	2a10      	cmp	r2, #16
 8100306:	db2b      	blt.n	8100360 <memchr+0x60>
 8100308:	f010 0f07 	tst.w	r0, #7
 810030c:	d008      	beq.n	8100320 <memchr+0x20>
 810030e:	f810 3b01 	ldrb.w	r3, [r0], #1
 8100312:	3a01      	subs	r2, #1
 8100314:	428b      	cmp	r3, r1
 8100316:	d02d      	beq.n	8100374 <memchr+0x74>
 8100318:	f010 0f07 	tst.w	r0, #7
 810031c:	b342      	cbz	r2, 8100370 <memchr+0x70>
 810031e:	d1f6      	bne.n	810030e <memchr+0xe>
 8100320:	b4f0      	push	{r4, r5, r6, r7}
 8100322:	ea41 2101 	orr.w	r1, r1, r1, lsl #8
 8100326:	ea41 4101 	orr.w	r1, r1, r1, lsl #16
 810032a:	f022 0407 	bic.w	r4, r2, #7
 810032e:	f07f 0700 	mvns.w	r7, #0
 8100332:	2300      	movs	r3, #0
 8100334:	e8f0 5602 	ldrd	r5, r6, [r0], #8
 8100338:	3c08      	subs	r4, #8
 810033a:	ea85 0501 	eor.w	r5, r5, r1
 810033e:	ea86 0601 	eor.w	r6, r6, r1
 8100342:	fa85 f547 	uadd8	r5, r5, r7
 8100346:	faa3 f587 	sel	r5, r3, r7
 810034a:	fa86 f647 	uadd8	r6, r6, r7
 810034e:	faa5 f687 	sel	r6, r5, r7
 8100352:	b98e      	cbnz	r6, 8100378 <memchr+0x78>
 8100354:	d1ee      	bne.n	8100334 <memchr+0x34>
 8100356:	bcf0      	pop	{r4, r5, r6, r7}
 8100358:	f001 01ff 	and.w	r1, r1, #255	; 0xff
 810035c:	f002 0207 	and.w	r2, r2, #7
 8100360:	b132      	cbz	r2, 8100370 <memchr+0x70>
 8100362:	f810 3b01 	ldrb.w	r3, [r0], #1
 8100366:	3a01      	subs	r2, #1
 8100368:	ea83 0301 	eor.w	r3, r3, r1
 810036c:	b113      	cbz	r3, 8100374 <memchr+0x74>
 810036e:	d1f8      	bne.n	8100362 <memchr+0x62>
 8100370:	2000      	movs	r0, #0
 8100372:	4770      	bx	lr
 8100374:	3801      	subs	r0, #1
 8100376:	4770      	bx	lr
 8100378:	2d00      	cmp	r5, #0
 810037a:	bf06      	itte	eq
 810037c:	4635      	moveq	r5, r6
 810037e:	3803      	subeq	r0, #3
 8100380:	3807      	subne	r0, #7
 8100382:	f015 0f01 	tst.w	r5, #1
 8100386:	d107      	bne.n	8100398 <memchr+0x98>
 8100388:	3001      	adds	r0, #1
 810038a:	f415 7f80 	tst.w	r5, #256	; 0x100
 810038e:	bf02      	ittt	eq
 8100390:	3001      	addeq	r0, #1
 8100392:	f415 3fc0 	tsteq.w	r5, #98304	; 0x18000
 8100396:	3001      	addeq	r0, #1
 8100398:	bcf0      	pop	{r4, r5, r6, r7}
 810039a:	3801      	subs	r0, #1
 810039c:	4770      	bx	lr
 810039e:	bf00      	nop

081003a0 <__aeabi_uldivmod>:
 81003a0:	b953      	cbnz	r3, 81003b8 <__aeabi_uldivmod+0x18>
 81003a2:	b94a      	cbnz	r2, 81003b8 <__aeabi_uldivmod+0x18>
 81003a4:	2900      	cmp	r1, #0
 81003a6:	bf08      	it	eq
 81003a8:	2800      	cmpeq	r0, #0
 81003aa:	bf1c      	itt	ne
 81003ac:	f04f 31ff 	movne.w	r1, #4294967295
 81003b0:	f04f 30ff 	movne.w	r0, #4294967295
 81003b4:	f000 b974 	b.w	81006a0 <__aeabi_idiv0>
 81003b8:	f1ad 0c08 	sub.w	ip, sp, #8
 81003bc:	e96d ce04 	strd	ip, lr, [sp, #-16]!
 81003c0:	f000 f806 	bl	81003d0 <__udivmoddi4>
 81003c4:	f8dd e004 	ldr.w	lr, [sp, #4]
 81003c8:	e9dd 2302 	ldrd	r2, r3, [sp, #8]
 81003cc:	b004      	add	sp, #16
 81003ce:	4770      	bx	lr

081003d0 <__udivmoddi4>:
 81003d0:	e92d 47f0 	stmdb	sp!, {r4, r5, r6, r7, r8, r9, sl, lr}
 81003d4:	9d08      	ldr	r5, [sp, #32]
 81003d6:	4604      	mov	r4, r0
 81003d8:	468e      	mov	lr, r1
 81003da:	2b00      	cmp	r3, #0
 81003dc:	d14d      	bne.n	810047a <__udivmoddi4+0xaa>
 81003de:	428a      	cmp	r2, r1
 81003e0:	4694      	mov	ip, r2
 81003e2:	d969      	bls.n	81004b8 <__udivmoddi4+0xe8>
 81003e4:	fab2 f282 	clz	r2, r2
 81003e8:	b152      	cbz	r2, 8100400 <__udivmoddi4+0x30>
 81003ea:	fa01 f302 	lsl.w	r3, r1, r2
 81003ee:	f1c2 0120 	rsb	r1, r2, #32
 81003f2:	fa20 f101 	lsr.w	r1, r0, r1
 81003f6:	fa0c fc02 	lsl.w	ip, ip, r2
 81003fa:	ea41 0e03 	orr.w	lr, r1, r3
 81003fe:	4094      	lsls	r4, r2
 8100400:	ea4f 481c 	mov.w	r8, ip, lsr #16
 8100404:	0c21      	lsrs	r1, r4, #16
 8100406:	fbbe f6f8 	udiv	r6, lr, r8
 810040a:	fa1f f78c 	uxth.w	r7, ip
 810040e:	fb08 e316 	mls	r3, r8, r6, lr
 8100412:	ea41 4303 	orr.w	r3, r1, r3, lsl #16
 8100416:	fb06 f107 	mul.w	r1, r6, r7
 810041a:	4299      	cmp	r1, r3
 810041c:	d90a      	bls.n	8100434 <__udivmoddi4+0x64>
 810041e:	eb1c 0303 	adds.w	r3, ip, r3
 8100422:	f106 30ff 	add.w	r0, r6, #4294967295
 8100426:	f080 811f 	bcs.w	8100668 <__udivmoddi4+0x298>
 810042a:	4299      	cmp	r1, r3
 810042c:	f240 811c 	bls.w	8100668 <__udivmoddi4+0x298>
 8100430:	3e02      	subs	r6, #2
 8100432:	4463      	add	r3, ip
 8100434:	1a5b      	subs	r3, r3, r1
 8100436:	b2a4      	uxth	r4, r4
 8100438:	fbb3 f0f8 	udiv	r0, r3, r8
 810043c:	fb08 3310 	mls	r3, r8, r0, r3
 8100440:	ea44 4403 	orr.w	r4, r4, r3, lsl #16
 8100444:	fb00 f707 	mul.w	r7, r0, r7
 8100448:	42a7      	cmp	r7, r4
 810044a:	d90a      	bls.n	8100462 <__udivmoddi4+0x92>
 810044c:	eb1c 0404 	adds.w	r4, ip, r4
 8100450:	f100 33ff 	add.w	r3, r0, #4294967295
 8100454:	f080 810a 	bcs.w	810066c <__udivmoddi4+0x29c>
 8100458:	42a7      	cmp	r7, r4
 810045a:	f240 8107 	bls.w	810066c <__udivmoddi4+0x29c>
 810045e:	4464      	add	r4, ip
 8100460:	3802      	subs	r0, #2
 8100462:	ea40 4006 	orr.w	r0, r0, r6, lsl #16
 8100466:	1be4      	subs	r4, r4, r7
 8100468:	2600      	movs	r6, #0
 810046a:	b11d      	cbz	r5, 8100474 <__udivmoddi4+0xa4>
 810046c:	40d4      	lsrs	r4, r2
 810046e:	2300      	movs	r3, #0
 8100470:	e9c5 4300 	strd	r4, r3, [r5]
 8100474:	4631      	mov	r1, r6
 8100476:	e8bd 87f0 	ldmia.w	sp!, {r4, r5, r6, r7, r8, r9, sl, pc}
 810047a:	428b      	cmp	r3, r1
 810047c:	d909      	bls.n	8100492 <__udivmoddi4+0xc2>
 810047e:	2d00      	cmp	r5, #0
 8100480:	f000 80ef 	beq.w	8100662 <__udivmoddi4+0x292>
 8100484:	2600      	movs	r6, #0
 8100486:	e9c5 0100 	strd	r0, r1, [r5]
 810048a:	4630      	mov	r0, r6
 810048c:	4631      	mov	r1, r6
 810048e:	e8bd 87f0 	ldmia.w	sp!, {r4, r5, r6, r7, r8, r9, sl, pc}
 8100492:	fab3 f683 	clz	r6, r3
 8100496:	2e00      	cmp	r6, #0
 8100498:	d14a      	bne.n	8100530 <__udivmoddi4+0x160>
 810049a:	428b      	cmp	r3, r1
 810049c:	d302      	bcc.n	81004a4 <__udivmoddi4+0xd4>
 810049e:	4282      	cmp	r2, r0
 81004a0:	f200 80f9 	bhi.w	8100696 <__udivmoddi4+0x2c6>
 81004a4:	1a84      	subs	r4, r0, r2
 81004a6:	eb61 0303 	sbc.w	r3, r1, r3
 81004aa:	2001      	movs	r0, #1
 81004ac:	469e      	mov	lr, r3
 81004ae:	2d00      	cmp	r5, #0
 81004b0:	d0e0      	beq.n	8100474 <__udivmoddi4+0xa4>
 81004b2:	e9c5 4e00 	strd	r4, lr, [r5]
 81004b6:	e7dd      	b.n	8100474 <__udivmoddi4+0xa4>
 81004b8:	b902      	cbnz	r2, 81004bc <__udivmoddi4+0xec>
 81004ba:	deff      	udf	#255	; 0xff
 81004bc:	fab2 f282 	clz	r2, r2
 81004c0:	2a00      	cmp	r2, #0
 81004c2:	f040 8092 	bne.w	81005ea <__udivmoddi4+0x21a>
 81004c6:	eba1 010c 	sub.w	r1, r1, ip
 81004ca:	ea4f 471c 	mov.w	r7, ip, lsr #16
 81004ce:	fa1f fe8c 	uxth.w	lr, ip
 81004d2:	2601      	movs	r6, #1
 81004d4:	0c20      	lsrs	r0, r4, #16
 81004d6:	fbb1 f3f7 	udiv	r3, r1, r7
 81004da:	fb07 1113 	mls	r1, r7, r3, r1
 81004de:	ea40 4101 	orr.w	r1, r0, r1, lsl #16
 81004e2:	fb0e f003 	mul.w	r0, lr, r3
 81004e6:	4288      	cmp	r0, r1
 81004e8:	d908      	bls.n	81004fc <__udivmoddi4+0x12c>
 81004ea:	eb1c 0101 	adds.w	r1, ip, r1
 81004ee:	f103 38ff 	add.w	r8, r3, #4294967295
 81004f2:	d202      	bcs.n	81004fa <__udivmoddi4+0x12a>
 81004f4:	4288      	cmp	r0, r1
 81004f6:	f200 80cb 	bhi.w	8100690 <__udivmoddi4+0x2c0>
 81004fa:	4643      	mov	r3, r8
 81004fc:	1a09      	subs	r1, r1, r0
 81004fe:	b2a4      	uxth	r4, r4
 8100500:	fbb1 f0f7 	udiv	r0, r1, r7
 8100504:	fb07 1110 	mls	r1, r7, r0, r1
 8100508:	ea44 4401 	orr.w	r4, r4, r1, lsl #16
 810050c:	fb0e fe00 	mul.w	lr, lr, r0
 8100510:	45a6      	cmp	lr, r4
 8100512:	d908      	bls.n	8100526 <__udivmoddi4+0x156>
 8100514:	eb1c 0404 	adds.w	r4, ip, r4
 8100518:	f100 31ff 	add.w	r1, r0, #4294967295
 810051c:	d202      	bcs.n	8100524 <__udivmoddi4+0x154>
 810051e:	45a6      	cmp	lr, r4
 8100520:	f200 80bb 	bhi.w	810069a <__udivmoddi4+0x2ca>
 8100524:	4608      	mov	r0, r1
 8100526:	eba4 040e 	sub.w	r4, r4, lr
 810052a:	ea40 4003 	orr.w	r0, r0, r3, lsl #16
 810052e:	e79c      	b.n	810046a <__udivmoddi4+0x9a>
 8100530:	f1c6 0720 	rsb	r7, r6, #32
 8100534:	40b3      	lsls	r3, r6
 8100536:	fa22 fc07 	lsr.w	ip, r2, r7
 810053a:	ea4c 0c03 	orr.w	ip, ip, r3
 810053e:	fa20 f407 	lsr.w	r4, r0, r7
 8100542:	fa01 f306 	lsl.w	r3, r1, r6
 8100546:	431c      	orrs	r4, r3
 8100548:	40f9      	lsrs	r1, r7
 810054a:	ea4f 491c 	mov.w	r9, ip, lsr #16
 810054e:	fa00 f306 	lsl.w	r3, r0, r6
 8100552:	fbb1 f8f9 	udiv	r8, r1, r9
 8100556:	0c20      	lsrs	r0, r4, #16
 8100558:	fa1f fe8c 	uxth.w	lr, ip
 810055c:	fb09 1118 	mls	r1, r9, r8, r1
 8100560:	ea40 4101 	orr.w	r1, r0, r1, lsl #16
 8100564:	fb08 f00e 	mul.w	r0, r8, lr
 8100568:	4288      	cmp	r0, r1
 810056a:	fa02 f206 	lsl.w	r2, r2, r6
 810056e:	d90b      	bls.n	8100588 <__udivmoddi4+0x1b8>
 8100570:	eb1c 0101 	adds.w	r1, ip, r1
 8100574:	f108 3aff 	add.w	sl, r8, #4294967295
 8100578:	f080 8088 	bcs.w	810068c <__udivmoddi4+0x2bc>
 810057c:	4288      	cmp	r0, r1
 810057e:	f240 8085 	bls.w	810068c <__udivmoddi4+0x2bc>
 8100582:	f1a8 0802 	sub.w	r8, r8, #2
 8100586:	4461      	add	r1, ip
 8100588:	1a09      	subs	r1, r1, r0
 810058a:	b2a4      	uxth	r4, r4
 810058c:	fbb1 f0f9 	udiv	r0, r1, r9
 8100590:	fb09 1110 	mls	r1, r9, r0, r1
 8100594:	ea44 4101 	orr.w	r1, r4, r1, lsl #16
 8100598:	fb00 fe0e 	mul.w	lr, r0, lr
 810059c:	458e      	cmp	lr, r1
 810059e:	d908      	bls.n	81005b2 <__udivmoddi4+0x1e2>
 81005a0:	eb1c 0101 	adds.w	r1, ip, r1
 81005a4:	f100 34ff 	add.w	r4, r0, #4294967295
 81005a8:	d26c      	bcs.n	8100684 <__udivmoddi4+0x2b4>
 81005aa:	458e      	cmp	lr, r1
 81005ac:	d96a      	bls.n	8100684 <__udivmoddi4+0x2b4>
 81005ae:	3802      	subs	r0, #2
 81005b0:	4461      	add	r1, ip
 81005b2:	ea40 4008 	orr.w	r0, r0, r8, lsl #16
 81005b6:	fba0 9402 	umull	r9, r4, r0, r2
 81005ba:	eba1 010e 	sub.w	r1, r1, lr
 81005be:	42a1      	cmp	r1, r4
 81005c0:	46c8      	mov	r8, r9
 81005c2:	46a6      	mov	lr, r4
 81005c4:	d356      	bcc.n	8100674 <__udivmoddi4+0x2a4>
 81005c6:	d053      	beq.n	8100670 <__udivmoddi4+0x2a0>
 81005c8:	b15d      	cbz	r5, 81005e2 <__udivmoddi4+0x212>
 81005ca:	ebb3 0208 	subs.w	r2, r3, r8
 81005ce:	eb61 010e 	sbc.w	r1, r1, lr
 81005d2:	fa01 f707 	lsl.w	r7, r1, r7
 81005d6:	fa22 f306 	lsr.w	r3, r2, r6
 81005da:	40f1      	lsrs	r1, r6
 81005dc:	431f      	orrs	r7, r3
 81005de:	e9c5 7100 	strd	r7, r1, [r5]
 81005e2:	2600      	movs	r6, #0
 81005e4:	4631      	mov	r1, r6
 81005e6:	e8bd 87f0 	ldmia.w	sp!, {r4, r5, r6, r7, r8, r9, sl, pc}
 81005ea:	f1c2 0320 	rsb	r3, r2, #32
 81005ee:	40d8      	lsrs	r0, r3
 81005f0:	fa0c fc02 	lsl.w	ip, ip, r2
 81005f4:	fa21 f303 	lsr.w	r3, r1, r3
 81005f8:	4091      	lsls	r1, r2
 81005fa:	4301      	orrs	r1, r0
 81005fc:	ea4f 471c 	mov.w	r7, ip, lsr #16
 8100600:	fa1f fe8c 	uxth.w	lr, ip
 8100604:	fbb3 f0f7 	udiv	r0, r3, r7
 8100608:	fb07 3610 	mls	r6, r7, r0, r3
 810060c:	0c0b      	lsrs	r3, r1, #16
 810060e:	ea43 4306 	orr.w	r3, r3, r6, lsl #16
 8100612:	fb00 f60e 	mul.w	r6, r0, lr
 8100616:	429e      	cmp	r6, r3
 8100618:	fa04 f402 	lsl.w	r4, r4, r2
 810061c:	d908      	bls.n	8100630 <__udivmoddi4+0x260>
 810061e:	eb1c 0303 	adds.w	r3, ip, r3
 8100622:	f100 38ff 	add.w	r8, r0, #4294967295
 8100626:	d22f      	bcs.n	8100688 <__udivmoddi4+0x2b8>
 8100628:	429e      	cmp	r6, r3
 810062a:	d92d      	bls.n	8100688 <__udivmoddi4+0x2b8>
 810062c:	3802      	subs	r0, #2
 810062e:	4463      	add	r3, ip
 8100630:	1b9b      	subs	r3, r3, r6
 8100632:	b289      	uxth	r1, r1
 8100634:	fbb3 f6f7 	udiv	r6, r3, r7
 8100638:	fb07 3316 	mls	r3, r7, r6, r3
 810063c:	ea41 4103 	orr.w	r1, r1, r3, lsl #16
 8100640:	fb06 f30e 	mul.w	r3, r6, lr
 8100644:	428b      	cmp	r3, r1
 8100646:	d908      	bls.n	810065a <__udivmoddi4+0x28a>
 8100648:	eb1c 0101 	adds.w	r1, ip, r1
 810064c:	f106 38ff 	add.w	r8, r6, #4294967295
 8100650:	d216      	bcs.n	8100680 <__udivmoddi4+0x2b0>
 8100652:	428b      	cmp	r3, r1
 8100654:	d914      	bls.n	8100680 <__udivmoddi4+0x2b0>
 8100656:	3e02      	subs	r6, #2
 8100658:	4461      	add	r1, ip
 810065a:	1ac9      	subs	r1, r1, r3
 810065c:	ea46 4600 	orr.w	r6, r6, r0, lsl #16
 8100660:	e738      	b.n	81004d4 <__udivmoddi4+0x104>
 8100662:	462e      	mov	r6, r5
 8100664:	4628      	mov	r0, r5
 8100666:	e705      	b.n	8100474 <__udivmoddi4+0xa4>
 8100668:	4606      	mov	r6, r0
 810066a:	e6e3      	b.n	8100434 <__udivmoddi4+0x64>
 810066c:	4618      	mov	r0, r3
 810066e:	e6f8      	b.n	8100462 <__udivmoddi4+0x92>
 8100670:	454b      	cmp	r3, r9
 8100672:	d2a9      	bcs.n	81005c8 <__udivmoddi4+0x1f8>
 8100674:	ebb9 0802 	subs.w	r8, r9, r2
 8100678:	eb64 0e0c 	sbc.w	lr, r4, ip
 810067c:	3801      	subs	r0, #1
 810067e:	e7a3      	b.n	81005c8 <__udivmoddi4+0x1f8>
 8100680:	4646      	mov	r6, r8
 8100682:	e7ea      	b.n	810065a <__udivmoddi4+0x28a>
 8100684:	4620      	mov	r0, r4
 8100686:	e794      	b.n	81005b2 <__udivmoddi4+0x1e2>
 8100688:	4640      	mov	r0, r8
 810068a:	e7d1      	b.n	8100630 <__udivmoddi4+0x260>
 810068c:	46d0      	mov	r8, sl
 810068e:	e77b      	b.n	8100588 <__udivmoddi4+0x1b8>
 8100690:	3b02      	subs	r3, #2
 8100692:	4461      	add	r1, ip
 8100694:	e732      	b.n	81004fc <__udivmoddi4+0x12c>
 8100696:	4630      	mov	r0, r6
 8100698:	e709      	b.n	81004ae <__udivmoddi4+0xde>
 810069a:	4464      	add	r4, ip
 810069c:	3802      	subs	r0, #2
 810069e:	e742      	b.n	8100526 <__udivmoddi4+0x156>

081006a0 <__aeabi_idiv0>:
 81006a0:	4770      	bx	lr
 81006a2:	bf00      	nop

081006a4 <SystemInit>:
  *         configuration.
  * @param  None
  * @retval None
  */
void SystemInit (void)
{
 81006a4:	b480      	push	{r7}
 81006a6:	af00      	add	r7, sp, #0
  /* FPU settings ------------------------------------------------------------*/
  #if (__FPU_PRESENT == 1) && (__FPU_USED == 1)
    SCB->CPACR |= ((3UL << (10*2))|(3UL << (11*2)));  /* set CP10 and CP11 Full Access */
 81006a8:	4b09      	ldr	r3, [pc, #36]	; (81006d0 <SystemInit+0x2c>)
 81006aa:	f8d3 3088 	ldr.w	r3, [r3, #136]	; 0x88
 81006ae:	4a08      	ldr	r2, [pc, #32]	; (81006d0 <SystemInit+0x2c>)
 81006b0:	f443 0370 	orr.w	r3, r3, #15728640	; 0xf00000
 81006b4:	f8c2 3088 	str.w	r3, [r2, #136]	; 0x88
  #endif

    /*SEVONPEND enabled so that an interrupt coming from the CPU(n) interrupt signal is
     detectable by the CPU after a WFI/WFE instruction.*/
 SCB->SCR |= SCB_SCR_SEVONPEND_Msk;
 81006b8:	4b05      	ldr	r3, [pc, #20]	; (81006d0 <SystemInit+0x2c>)
 81006ba:	691b      	ldr	r3, [r3, #16]
 81006bc:	4a04      	ldr	r2, [pc, #16]	; (81006d0 <SystemInit+0x2c>)
 81006be:	f043 0310 	orr.w	r3, r3, #16
 81006c2:	6113      	str	r3, [r2, #16]
#endif /* USER_VECT_TAB_ADDRESS */

#else
#error Please #define CORE_CM4 or CORE_CM7
#endif /* CORE_CM4 */
}
 81006c4:	bf00      	nop
 81006c6:	46bd      	mov	sp, r7
 81006c8:	f85d 7b04 	ldr.w	r7, [sp], #4
 81006cc:	4770      	bx	lr
 81006ce:	bf00      	nop
 81006d0:	e000ed00 	.word	0xe000ed00

081006d4 <main>:
/**
  * @brief  The application entry point.
  * @retval int
  */
int main(void)
{
 81006d4:	b580      	push	{r7, lr}
 81006d6:	b084      	sub	sp, #16
 81006d8:	af02      	add	r7, sp, #8

  /* USER CODE END 1 */

/* USER CODE BEGIN Boot_Mode_Sequence_1 */
  /*HW semaphore Clock enable*/
  __HAL_RCC_HSEM_CLK_ENABLE();
 81006da:	4b32      	ldr	r3, [pc, #200]	; (81007a4 <main+0xd0>)
 81006dc:	f8d3 30e0 	ldr.w	r3, [r3, #224]	; 0xe0
 81006e0:	4a30      	ldr	r2, [pc, #192]	; (81007a4 <main+0xd0>)
 81006e2:	f043 7300 	orr.w	r3, r3, #33554432	; 0x2000000
 81006e6:	f8c2 30e0 	str.w	r3, [r2, #224]	; 0xe0
 81006ea:	4b2e      	ldr	r3, [pc, #184]	; (81007a4 <main+0xd0>)
 81006ec:	f8d3 30e0 	ldr.w	r3, [r3, #224]	; 0xe0
 81006f0:	f003 7300 	and.w	r3, r3, #33554432	; 0x2000000
 81006f4:	603b      	str	r3, [r7, #0]
 81006f6:	683b      	ldr	r3, [r7, #0]
  /* Activate HSEM notification for Cortex-M4*/
  HAL_HSEM_ActivateNotification(__HAL_HSEM_SEMID_TO_MASK(HSEM_ID_0));
 81006f8:	2001      	movs	r0, #1
 81006fa:	f000 fe75 	bl	81013e8 <HAL_HSEM_ActivateNotification>
  /*
  Domain D2 goes to STOP mode (Cortex-M4 in deep-sleep) waiting for Cortex-M7 to
  perform system initialization (system clock config, external memory configuration.. )
  */
  HAL_PWREx_ClearPendingEvent();
 81006fe:	f000 ff19 	bl	8101534 <HAL_PWREx_ClearPendingEvent>
  HAL_PWREx_EnterSTOPMode(PWR_MAINREGULATOR_ON, PWR_STOPENTRY_WFE, PWR_D2_DOMAIN);
 8100702:	2201      	movs	r2, #1
 8100704:	2102      	movs	r1, #2
 8100706:	2000      	movs	r0, #0
 8100708:	f000 fe9a 	bl	8101440 <HAL_PWREx_EnterSTOPMode>
  /* Clear HSEM flag */
  __HAL_HSEM_CLEAR_FLAG(__HAL_HSEM_SEMID_TO_MASK(HSEM_ID_0));
 810070c:	4b26      	ldr	r3, [pc, #152]	; (81007a8 <main+0xd4>)
 810070e:	681b      	ldr	r3, [r3, #0]
 8100710:	091b      	lsrs	r3, r3, #4
 8100712:	f003 030f 	and.w	r3, r3, #15
 8100716:	2b07      	cmp	r3, #7
 8100718:	d108      	bne.n	810072c <main+0x58>
 810071a:	4b24      	ldr	r3, [pc, #144]	; (81007ac <main+0xd8>)
 810071c:	f8d3 3104 	ldr.w	r3, [r3, #260]	; 0x104
 8100720:	4a22      	ldr	r2, [pc, #136]	; (81007ac <main+0xd8>)
 8100722:	f043 0301 	orr.w	r3, r3, #1
 8100726:	f8c2 3104 	str.w	r3, [r2, #260]	; 0x104
 810072a:	e007      	b.n	810073c <main+0x68>
 810072c:	4b1f      	ldr	r3, [pc, #124]	; (81007ac <main+0xd8>)
 810072e:	f8d3 3114 	ldr.w	r3, [r3, #276]	; 0x114
 8100732:	4a1e      	ldr	r2, [pc, #120]	; (81007ac <main+0xd8>)
 8100734:	f043 0301 	orr.w	r3, r3, #1
 8100738:	f8c2 3114 	str.w	r3, [r2, #276]	; 0x114

/* USER CODE END Boot_Mode_Sequence_1 */
  /* MCU Configuration--------------------------------------------------------*/

  /* Reset of all peripherals, Initializes the Flash interface and the Systick. */
  HAL_Init();
 810073c:	f000 fa9e 	bl	8100c7c <HAL_Init>
  /* USER CODE BEGIN SysInit */

  /* USER CODE END SysInit */

  /* Initialize all configured peripherals */
  MX_GPIO_Init();
 8100740:	f000 f890 	bl	8100864 <MX_GPIO_Init>
  MX_USART3_UART_Init();
 8100744:	f000 f842 	bl	81007cc <MX_USART3_UART_Init>
  /* USER CODE BEGIN 2 */
  int32_t status=0;
 8100748:	2300      	movs	r3, #0
 810074a:	607b      	str	r3, [r7, #4]
  /**Initialize mailbox use notify the other core new msg*/
  MAILBOX_Init();
 810074c:	f005 ff2a 	bl	81065a4 <MAILBOX_Init>
  /*Inialise the rpmsg endpoint to set default addresses to RPMSG_ADDR_ANY*/

  if(MX_OPENAMP_Init(RPMSG_REMOTE,NULL)!=HAL_OK)
 8100750:	2100      	movs	r1, #0
 8100752:	2001      	movs	r0, #1
 8100754:	f006 f828 	bl	81067a8 <MX_OPENAMP_Init>
 8100758:	4603      	mov	r3, r0
 810075a:	2b00      	cmp	r3, #0
 810075c:	d004      	beq.n	8100768 <main+0x94>
  {
	  printf("1\n\r");
 810075e:	4814      	ldr	r0, [pc, #80]	; (81007b0 <main+0xdc>)
 8100760:	f006 fd52 	bl	8107208 <iprintf>
  	Error_Handler();
 8100764:	f000 f8d4 	bl	8100910 <Error_Handler>

  }
  status=OPENAMP_create_endpoint(&rp_endpoint,RPMSG_SERVICE_NAME,RPMSG_ADDR_ANY,rpmsg_recv_callback,NULL);
 8100768:	2300      	movs	r3, #0
 810076a:	9300      	str	r3, [sp, #0]
 810076c:	4b11      	ldr	r3, [pc, #68]	; (81007b4 <main+0xe0>)
 810076e:	f04f 32ff 	mov.w	r2, #4294967295
 8100772:	4911      	ldr	r1, [pc, #68]	; (81007b8 <main+0xe4>)
 8100774:	4811      	ldr	r0, [pc, #68]	; (81007bc <main+0xe8>)
 8100776:	f006 f8b9 	bl	81068ec <OPENAMP_create_endpoint>
 810077a:	6078      	str	r0, [r7, #4]
  if(status <0)
 810077c:	687b      	ldr	r3, [r7, #4]
 810077e:	2b00      	cmp	r3, #0
 8100780:	da04      	bge.n	810078c <main+0xb8>
  {
	  printf("2\n\r");
 8100782:	480f      	ldr	r0, [pc, #60]	; (81007c0 <main+0xec>)
 8100784:	f006 fd40 	bl	8107208 <iprintf>
	  Error_Handler();
 8100788:	f000 f8c2 	bl	8100910 <Error_Handler>

  }
  /*Receive an string from the master*/

  receive_message();
 810078c:	f000 f89c 	bl	81008c8 <receive_message>
  printf("string:%s\n\r",received_data_str);
 8100790:	4b0c      	ldr	r3, [pc, #48]	; (81007c4 <main+0xf0>)
 8100792:	681b      	ldr	r3, [r3, #0]
 8100794:	4619      	mov	r1, r3
 8100796:	480c      	ldr	r0, [pc, #48]	; (81007c8 <main+0xf4>)
 8100798:	f006 fd36 	bl	8107208 <iprintf>
  OPENAMP_DeInit();
 810079c:	f006 f89a 	bl	81068d4 <OPENAMP_DeInit>
  /* USER CODE END 2 */

  /* Infinite loop */
  /* USER CODE BEGIN WHILE */
  while (1)
 81007a0:	e7fe      	b.n	81007a0 <main+0xcc>
 81007a2:	bf00      	nop
 81007a4:	58024400 	.word	0x58024400
 81007a8:	e000ed00 	.word	0xe000ed00
 81007ac:	58026400 	.word	0x58026400
 81007b0:	08107a88 	.word	0x08107a88
 81007b4:	08100899 	.word	0x08100899
 81007b8:	08107a8c 	.word	0x08107a8c
 81007bc:	100001d0 	.word	0x100001d0
 81007c0:	08107a9c 	.word	0x08107a9c
 81007c4:	100001cc 	.word	0x100001cc
 81007c8:	08107aa0 	.word	0x08107aa0

081007cc <MX_USART3_UART_Init>:
  * @brief USART3 Initialization Function
  * @param None
  * @retval None
  */
static void MX_USART3_UART_Init(void)
{
 81007cc:	b580      	push	{r7, lr}
 81007ce:	af00      	add	r7, sp, #0
  /* USER CODE END USART3_Init 0 */

  /* USER CODE BEGIN USART3_Init 1 */

  /* USER CODE END USART3_Init 1 */
  huart3.Instance = USART3;
 81007d0:	4b22      	ldr	r3, [pc, #136]	; (810085c <MX_USART3_UART_Init+0x90>)
 81007d2:	4a23      	ldr	r2, [pc, #140]	; (8100860 <MX_USART3_UART_Init+0x94>)
 81007d4:	601a      	str	r2, [r3, #0]
  huart3.Init.BaudRate = 115200;
 81007d6:	4b21      	ldr	r3, [pc, #132]	; (810085c <MX_USART3_UART_Init+0x90>)
 81007d8:	f44f 32e1 	mov.w	r2, #115200	; 0x1c200
 81007dc:	605a      	str	r2, [r3, #4]
  huart3.Init.WordLength = UART_WORDLENGTH_8B;
 81007de:	4b1f      	ldr	r3, [pc, #124]	; (810085c <MX_USART3_UART_Init+0x90>)
 81007e0:	2200      	movs	r2, #0
 81007e2:	609a      	str	r2, [r3, #8]
  huart3.Init.StopBits = UART_STOPBITS_1;
 81007e4:	4b1d      	ldr	r3, [pc, #116]	; (810085c <MX_USART3_UART_Init+0x90>)
 81007e6:	2200      	movs	r2, #0
 81007e8:	60da      	str	r2, [r3, #12]
  huart3.Init.Parity = UART_PARITY_NONE;
 81007ea:	4b1c      	ldr	r3, [pc, #112]	; (810085c <MX_USART3_UART_Init+0x90>)
 81007ec:	2200      	movs	r2, #0
 81007ee:	611a      	str	r2, [r3, #16]
  huart3.Init.Mode = UART_MODE_TX_RX;
 81007f0:	4b1a      	ldr	r3, [pc, #104]	; (810085c <MX_USART3_UART_Init+0x90>)
 81007f2:	220c      	movs	r2, #12
 81007f4:	615a      	str	r2, [r3, #20]
  huart3.Init.HwFlowCtl = UART_HWCONTROL_NONE;
 81007f6:	4b19      	ldr	r3, [pc, #100]	; (810085c <MX_USART3_UART_Init+0x90>)
 81007f8:	2200      	movs	r2, #0
 81007fa:	619a      	str	r2, [r3, #24]
  huart3.Init.OverSampling = UART_OVERSAMPLING_16;
 81007fc:	4b17      	ldr	r3, [pc, #92]	; (810085c <MX_USART3_UART_Init+0x90>)
 81007fe:	2200      	movs	r2, #0
 8100800:	61da      	str	r2, [r3, #28]
  huart3.Init.OneBitSampling = UART_ONE_BIT_SAMPLE_DISABLE;
 8100802:	4b16      	ldr	r3, [pc, #88]	; (810085c <MX_USART3_UART_Init+0x90>)
 8100804:	2200      	movs	r2, #0
 8100806:	621a      	str	r2, [r3, #32]
  huart3.Init.ClockPrescaler = UART_PRESCALER_DIV1;
 8100808:	4b14      	ldr	r3, [pc, #80]	; (810085c <MX_USART3_UART_Init+0x90>)
 810080a:	2200      	movs	r2, #0
 810080c:	625a      	str	r2, [r3, #36]	; 0x24
  huart3.AdvancedInit.AdvFeatureInit = UART_ADVFEATURE_NO_INIT;
 810080e:	4b13      	ldr	r3, [pc, #76]	; (810085c <MX_USART3_UART_Init+0x90>)
 8100810:	2200      	movs	r2, #0
 8100812:	629a      	str	r2, [r3, #40]	; 0x28
  if (HAL_UART_Init(&huart3) != HAL_OK)
 8100814:	4811      	ldr	r0, [pc, #68]	; (810085c <MX_USART3_UART_Init+0x90>)
 8100816:	f002 fbdb 	bl	8102fd0 <HAL_UART_Init>
 810081a:	4603      	mov	r3, r0
 810081c:	2b00      	cmp	r3, #0
 810081e:	d001      	beq.n	8100824 <MX_USART3_UART_Init+0x58>
  {
    Error_Handler();
 8100820:	f000 f876 	bl	8100910 <Error_Handler>
  }
  if (HAL_UARTEx_SetTxFifoThreshold(&huart3, UART_TXFIFO_THRESHOLD_1_8) != HAL_OK)
 8100824:	2100      	movs	r1, #0
 8100826:	480d      	ldr	r0, [pc, #52]	; (810085c <MX_USART3_UART_Init+0x90>)
 8100828:	f003 fc0e 	bl	8104048 <HAL_UARTEx_SetTxFifoThreshold>
 810082c:	4603      	mov	r3, r0
 810082e:	2b00      	cmp	r3, #0
 8100830:	d001      	beq.n	8100836 <MX_USART3_UART_Init+0x6a>
  {
    Error_Handler();
 8100832:	f000 f86d 	bl	8100910 <Error_Handler>
  }
  if (HAL_UARTEx_SetRxFifoThreshold(&huart3, UART_RXFIFO_THRESHOLD_1_8) != HAL_OK)
 8100836:	2100      	movs	r1, #0
 8100838:	4808      	ldr	r0, [pc, #32]	; (810085c <MX_USART3_UART_Init+0x90>)
 810083a:	f003 fc43 	bl	81040c4 <HAL_UARTEx_SetRxFifoThreshold>
 810083e:	4603      	mov	r3, r0
 8100840:	2b00      	cmp	r3, #0
 8100842:	d001      	beq.n	8100848 <MX_USART3_UART_Init+0x7c>
  {
    Error_Handler();
 8100844:	f000 f864 	bl	8100910 <Error_Handler>
  }
  if (HAL_UARTEx_DisableFifoMode(&huart3) != HAL_OK)
 8100848:	4804      	ldr	r0, [pc, #16]	; (810085c <MX_USART3_UART_Init+0x90>)
 810084a:	f003 fbc4 	bl	8103fd6 <HAL_UARTEx_DisableFifoMode>
 810084e:	4603      	mov	r3, r0
 8100850:	2b00      	cmp	r3, #0
 8100852:	d001      	beq.n	8100858 <MX_USART3_UART_Init+0x8c>
  {
    Error_Handler();
 8100854:	f000 f85c 	bl	8100910 <Error_Handler>
  }
  /* USER CODE BEGIN USART3_Init 2 */

  /* USER CODE END USART3_Init 2 */

}
 8100858:	bf00      	nop
 810085a:	bd80      	pop	{r7, pc}
 810085c:	10000138 	.word	0x10000138
 8100860:	40004800 	.word	0x40004800

08100864 <MX_GPIO_Init>:
  * @brief GPIO Initialization Function
  * @param None
  * @retval None
  */
static void MX_GPIO_Init(void)
{
 8100864:	b480      	push	{r7}
 8100866:	b083      	sub	sp, #12
 8100868:	af00      	add	r7, sp, #0

  /* GPIO Ports Clock Enable */
  __HAL_RCC_GPIOD_CLK_ENABLE();
 810086a:	4b0a      	ldr	r3, [pc, #40]	; (8100894 <MX_GPIO_Init+0x30>)
 810086c:	f8d3 30e0 	ldr.w	r3, [r3, #224]	; 0xe0
 8100870:	4a08      	ldr	r2, [pc, #32]	; (8100894 <MX_GPIO_Init+0x30>)
 8100872:	f043 0308 	orr.w	r3, r3, #8
 8100876:	f8c2 30e0 	str.w	r3, [r2, #224]	; 0xe0
 810087a:	4b06      	ldr	r3, [pc, #24]	; (8100894 <MX_GPIO_Init+0x30>)
 810087c:	f8d3 30e0 	ldr.w	r3, [r3, #224]	; 0xe0
 8100880:	f003 0308 	and.w	r3, r3, #8
 8100884:	607b      	str	r3, [r7, #4]
 8100886:	687b      	ldr	r3, [r7, #4]

}
 8100888:	bf00      	nop
 810088a:	370c      	adds	r7, #12
 810088c:	46bd      	mov	sp, r7
 810088e:	f85d 7b04 	ldr.w	r7, [sp], #4
 8100892:	4770      	bx	lr
 8100894:	58024400 	.word	0x58024400

08100898 <rpmsg_recv_callback>:

/* USER CODE BEGIN 4 */
static int rpmsg_recv_callback(struct rpmsg_endpoint *ept, void *data, size_t len, uint32_t src, void *priv)
{
 8100898:	b480      	push	{r7}
 810089a:	b085      	sub	sp, #20
 810089c:	af00      	add	r7, sp, #0
 810089e:	60f8      	str	r0, [r7, #12]
 81008a0:	60b9      	str	r1, [r7, #8]
 81008a2:	607a      	str	r2, [r7, #4]
 81008a4:	603b      	str	r3, [r7, #0]
	received_data_str =(char *)data;
 81008a6:	4a06      	ldr	r2, [pc, #24]	; (81008c0 <rpmsg_recv_callback+0x28>)
 81008a8:	68bb      	ldr	r3, [r7, #8]
 81008aa:	6013      	str	r3, [r2, #0]
	message_received=1;
 81008ac:	4b05      	ldr	r3, [pc, #20]	; (81008c4 <rpmsg_recv_callback+0x2c>)
 81008ae:	2201      	movs	r2, #1
 81008b0:	601a      	str	r2, [r3, #0]
	return 0;
 81008b2:	2300      	movs	r3, #0
}
 81008b4:	4618      	mov	r0, r3
 81008b6:	3714      	adds	r7, #20
 81008b8:	46bd      	mov	sp, r7
 81008ba:	f85d 7b04 	ldr.w	r7, [sp], #4
 81008be:	4770      	bx	lr
 81008c0:	100001cc 	.word	0x100001cc
 81008c4:	100001c8 	.word	0x100001c8

081008c8 <receive_message>:
unsigned int receive_message(void)
{
 81008c8:	b580      	push	{r7, lr}
 81008ca:	af00      	add	r7, sp, #0
	while(message_received==0)
 81008cc:	e001      	b.n	81008d2 <receive_message+0xa>
	{
		OPENAMP_check_for_message();
 81008ce:	f006 f82b 	bl	8106928 <OPENAMP_check_for_message>
	while(message_received==0)
 81008d2:	4b05      	ldr	r3, [pc, #20]	; (81008e8 <receive_message+0x20>)
 81008d4:	681b      	ldr	r3, [r3, #0]
 81008d6:	2b00      	cmp	r3, #0
 81008d8:	d0f9      	beq.n	81008ce <receive_message+0x6>
	}
		message_received=0;
 81008da:	4b03      	ldr	r3, [pc, #12]	; (81008e8 <receive_message+0x20>)
 81008dc:	2200      	movs	r2, #0
 81008de:	601a      	str	r2, [r3, #0]
	return 0;
 81008e0:	2300      	movs	r3, #0
}
 81008e2:	4618      	mov	r0, r3
 81008e4:	bd80      	pop	{r7, pc}
 81008e6:	bf00      	nop
 81008e8:	100001c8 	.word	0x100001c8

081008ec <__io_putchar>:

	PUTCHAR_PROTOTYPE
	{
 81008ec:	b580      	push	{r7, lr}
 81008ee:	b082      	sub	sp, #8
 81008f0:	af00      	add	r7, sp, #0
 81008f2:	6078      	str	r0, [r7, #4]
	  /* Place your implementation of fputc here */
	  /* e.g. write a character to the EVAL_COM1 and Loop until the end of transmission */
	  HAL_UART_Transmit(&huart3, (uint8_t *)&ch, 1, 0xFFFF);
 81008f4:	1d39      	adds	r1, r7, #4
 81008f6:	f64f 73ff 	movw	r3, #65535	; 0xffff
 81008fa:	2201      	movs	r2, #1
 81008fc:	4803      	ldr	r0, [pc, #12]	; (810090c <__io_putchar+0x20>)
 81008fe:	f002 fbb7 	bl	8103070 <HAL_UART_Transmit>

	  return ch;
 8100902:	687b      	ldr	r3, [r7, #4]
	}
 8100904:	4618      	mov	r0, r3
 8100906:	3708      	adds	r7, #8
 8100908:	46bd      	mov	sp, r7
 810090a:	bd80      	pop	{r7, pc}
 810090c:	10000138 	.word	0x10000138

08100910 <Error_Handler>:
/**
  * @brief  This function is executed in case of error occurrence.
  * @retval None
  */
void Error_Handler(void)
{
 8100910:	b580      	push	{r7, lr}
 8100912:	af00      	add	r7, sp, #0
  \details Disables IRQ interrupts by setting the I-bit in the CPSR.
           Can only be executed in Privileged modes.
 */
__STATIC_FORCEINLINE void __disable_irq(void)
{
  __ASM volatile ("cpsid i" : : : "memory");
 8100914:	b672      	cpsid	i
}
 8100916:	bf00      	nop
  /* USER CODE BEGIN Error_Handler_Debug */
  /* User can add his own implementation to report the HAL error return state */
  __disable_irq();
  printf("error handler in cm4\n\r");
 8100918:	4802      	ldr	r0, [pc, #8]	; (8100924 <Error_Handler+0x14>)
 810091a:	f006 fc75 	bl	8107208 <iprintf>
 // while (1)
 // {
 // }
  /* USER CODE END Error_Handler_Debug */
}
 810091e:	bf00      	nop
 8100920:	bd80      	pop	{r7, pc}
 8100922:	bf00      	nop
 8100924:	08107aac 	.word	0x08107aac

08100928 <HAL_MspInit>:
/* USER CODE END 0 */
/**
  * Initializes the Global MSP.
  */
void HAL_MspInit(void)
{
 8100928:	b580      	push	{r7, lr}
 810092a:	b082      	sub	sp, #8
 810092c:	af00      	add	r7, sp, #0
  /* USER CODE BEGIN MspInit 0 */

  /* USER CODE END MspInit 0 */

  __HAL_RCC_SYSCFG_CLK_ENABLE();
 810092e:	4b0d      	ldr	r3, [pc, #52]	; (8100964 <HAL_MspInit+0x3c>)
 8100930:	f8d3 30f4 	ldr.w	r3, [r3, #244]	; 0xf4
 8100934:	4a0b      	ldr	r2, [pc, #44]	; (8100964 <HAL_MspInit+0x3c>)
 8100936:	f043 0302 	orr.w	r3, r3, #2
 810093a:	f8c2 30f4 	str.w	r3, [r2, #244]	; 0xf4
 810093e:	4b09      	ldr	r3, [pc, #36]	; (8100964 <HAL_MspInit+0x3c>)
 8100940:	f8d3 30f4 	ldr.w	r3, [r3, #244]	; 0xf4
 8100944:	f003 0302 	and.w	r3, r3, #2
 8100948:	607b      	str	r3, [r7, #4]
 810094a:	687b      	ldr	r3, [r7, #4]

  /* System interrupt init*/

  /* Peripheral interrupt init */
  /* HSEM2_IRQn interrupt configuration */
  HAL_NVIC_SetPriority(HSEM2_IRQn, 0, 0);
 810094c:	2200      	movs	r2, #0
 810094e:	2100      	movs	r1, #0
 8100950:	207e      	movs	r0, #126	; 0x7e
 8100952:	f000 fb22 	bl	8100f9a <HAL_NVIC_SetPriority>
  /* HSEM2_IRQn interrupt configuration */
  HAL_NVIC_EnableIRQ(HSEM2_IRQn);
 8100956:	207e      	movs	r0, #126	; 0x7e
 8100958:	f000 fb39 	bl	8100fce <HAL_NVIC_EnableIRQ>

  /* USER CODE BEGIN MspInit 1 */

  /* USER CODE END MspInit 1 */
}
 810095c:	bf00      	nop
 810095e:	3708      	adds	r7, #8
 8100960:	46bd      	mov	sp, r7
 8100962:	bd80      	pop	{r7, pc}
 8100964:	58024400 	.word	0x58024400

08100968 <HAL_UART_MspInit>:
* This function configures the hardware resources used in this example
* @param huart: UART handle pointer
* @retval None
*/
void HAL_UART_MspInit(UART_HandleTypeDef* huart)
{
 8100968:	b580      	push	{r7, lr}
 810096a:	b0b8      	sub	sp, #224	; 0xe0
 810096c:	af00      	add	r7, sp, #0
 810096e:	6078      	str	r0, [r7, #4]
  GPIO_InitTypeDef GPIO_InitStruct = {0};
 8100970:	f107 03cc 	add.w	r3, r7, #204	; 0xcc
 8100974:	2200      	movs	r2, #0
 8100976:	601a      	str	r2, [r3, #0]
 8100978:	605a      	str	r2, [r3, #4]
 810097a:	609a      	str	r2, [r3, #8]
 810097c:	60da      	str	r2, [r3, #12]
 810097e:	611a      	str	r2, [r3, #16]
  RCC_PeriphCLKInitTypeDef PeriphClkInitStruct = {0};
 8100980:	f107 0310 	add.w	r3, r7, #16
 8100984:	22bc      	movs	r2, #188	; 0xbc
 8100986:	2100      	movs	r1, #0
 8100988:	4618      	mov	r0, r3
 810098a:	f006 f867 	bl	8106a5c <memset>
  if(huart->Instance==USART3)
 810098e:	687b      	ldr	r3, [r7, #4]
 8100990:	681b      	ldr	r3, [r3, #0]
 8100992:	4a25      	ldr	r2, [pc, #148]	; (8100a28 <HAL_UART_MspInit+0xc0>)
 8100994:	4293      	cmp	r3, r2
 8100996:	d142      	bne.n	8100a1e <HAL_UART_MspInit+0xb6>

  /* USER CODE END USART3_MspInit 0 */

  /** Initializes the peripherals clock
  */
    PeriphClkInitStruct.PeriphClockSelection = RCC_PERIPHCLK_USART3;
 8100998:	2302      	movs	r3, #2
 810099a:	613b      	str	r3, [r7, #16]
    PeriphClkInitStruct.Usart234578ClockSelection = RCC_USART234578CLKSOURCE_D2PCLK1;
 810099c:	2300      	movs	r3, #0
 810099e:	f8c7 3084 	str.w	r3, [r7, #132]	; 0x84
    if (HAL_RCCEx_PeriphCLKConfig(&PeriphClkInitStruct) != HAL_OK)
 81009a2:	f107 0310 	add.w	r3, r7, #16
 81009a6:	4618      	mov	r0, r3
 81009a8:	f000 ffaa 	bl	8101900 <HAL_RCCEx_PeriphCLKConfig>
 81009ac:	4603      	mov	r3, r0
 81009ae:	2b00      	cmp	r3, #0
 81009b0:	d001      	beq.n	81009b6 <HAL_UART_MspInit+0x4e>
    {
      Error_Handler();
 81009b2:	f7ff ffad 	bl	8100910 <Error_Handler>
    }

    /* Peripheral clock enable */
    __HAL_RCC_USART3_CLK_ENABLE();
 81009b6:	4b1d      	ldr	r3, [pc, #116]	; (8100a2c <HAL_UART_MspInit+0xc4>)
 81009b8:	f8d3 30e8 	ldr.w	r3, [r3, #232]	; 0xe8
 81009bc:	4a1b      	ldr	r2, [pc, #108]	; (8100a2c <HAL_UART_MspInit+0xc4>)
 81009be:	f443 2380 	orr.w	r3, r3, #262144	; 0x40000
 81009c2:	f8c2 30e8 	str.w	r3, [r2, #232]	; 0xe8
 81009c6:	4b19      	ldr	r3, [pc, #100]	; (8100a2c <HAL_UART_MspInit+0xc4>)
 81009c8:	f8d3 30e8 	ldr.w	r3, [r3, #232]	; 0xe8
 81009cc:	f403 2380 	and.w	r3, r3, #262144	; 0x40000
 81009d0:	60fb      	str	r3, [r7, #12]
 81009d2:	68fb      	ldr	r3, [r7, #12]

    __HAL_RCC_GPIOD_CLK_ENABLE();
 81009d4:	4b15      	ldr	r3, [pc, #84]	; (8100a2c <HAL_UART_MspInit+0xc4>)
 81009d6:	f8d3 30e0 	ldr.w	r3, [r3, #224]	; 0xe0
 81009da:	4a14      	ldr	r2, [pc, #80]	; (8100a2c <HAL_UART_MspInit+0xc4>)
 81009dc:	f043 0308 	orr.w	r3, r3, #8
 81009e0:	f8c2 30e0 	str.w	r3, [r2, #224]	; 0xe0
 81009e4:	4b11      	ldr	r3, [pc, #68]	; (8100a2c <HAL_UART_MspInit+0xc4>)
 81009e6:	f8d3 30e0 	ldr.w	r3, [r3, #224]	; 0xe0
 81009ea:	f003 0308 	and.w	r3, r3, #8
 81009ee:	60bb      	str	r3, [r7, #8]
 81009f0:	68bb      	ldr	r3, [r7, #8]
    /**USART3 GPIO Configuration
    PD8     ------> USART3_TX
    PD9     ------> USART3_RX
    */
    GPIO_InitStruct.Pin = GPIO_PIN_8|GPIO_PIN_9;
 81009f2:	f44f 7340 	mov.w	r3, #768	; 0x300
 81009f6:	f8c7 30cc 	str.w	r3, [r7, #204]	; 0xcc
    GPIO_InitStruct.Mode = GPIO_MODE_AF_PP;
 81009fa:	2302      	movs	r3, #2
 81009fc:	f8c7 30d0 	str.w	r3, [r7, #208]	; 0xd0
    GPIO_InitStruct.Pull = GPIO_NOPULL;
 8100a00:	2300      	movs	r3, #0
 8100a02:	f8c7 30d4 	str.w	r3, [r7, #212]	; 0xd4
    GPIO_InitStruct.Speed = GPIO_SPEED_FREQ_LOW;
 8100a06:	2300      	movs	r3, #0
 8100a08:	f8c7 30d8 	str.w	r3, [r7, #216]	; 0xd8
    GPIO_InitStruct.Alternate = GPIO_AF7_USART3;
 8100a0c:	2307      	movs	r3, #7
 8100a0e:	f8c7 30dc 	str.w	r3, [r7, #220]	; 0xdc
    HAL_GPIO_Init(GPIOD, &GPIO_InitStruct);
 8100a12:	f107 03cc 	add.w	r3, r7, #204	; 0xcc
 8100a16:	4619      	mov	r1, r3
 8100a18:	4805      	ldr	r0, [pc, #20]	; (8100a30 <HAL_UART_MspInit+0xc8>)
 8100a1a:	f000 fb07 	bl	810102c <HAL_GPIO_Init>
  /* USER CODE BEGIN USART3_MspInit 1 */

  /* USER CODE END USART3_MspInit 1 */
  }

}
 8100a1e:	bf00      	nop
 8100a20:	37e0      	adds	r7, #224	; 0xe0
 8100a22:	46bd      	mov	sp, r7
 8100a24:	bd80      	pop	{r7, pc}
 8100a26:	bf00      	nop
 8100a28:	40004800 	.word	0x40004800
 8100a2c:	58024400 	.word	0x58024400
 8100a30:	58020c00 	.word	0x58020c00

08100a34 <NMI_Handler>:
/******************************************************************************/
/**
  * @brief This function handles Non maskable interrupt.
  */
void NMI_Handler(void)
{
 8100a34:	b480      	push	{r7}
 8100a36:	af00      	add	r7, sp, #0
  /* USER CODE BEGIN NonMaskableInt_IRQn 0 */

  /* USER CODE END NonMaskableInt_IRQn 0 */
  /* USER CODE BEGIN NonMaskableInt_IRQn 1 */
  while (1)
 8100a38:	e7fe      	b.n	8100a38 <NMI_Handler+0x4>

08100a3a <HardFault_Handler>:

/**
  * @brief This function handles Hard fault interrupt.
  */
void HardFault_Handler(void)
{
 8100a3a:	b480      	push	{r7}
 8100a3c:	af00      	add	r7, sp, #0
  /* USER CODE BEGIN HardFault_IRQn 0 */

  /* USER CODE END HardFault_IRQn 0 */
  while (1)
 8100a3e:	e7fe      	b.n	8100a3e <HardFault_Handler+0x4>

08100a40 <MemManage_Handler>:

/**
  * @brief This function handles Memory management fault.
  */
void MemManage_Handler(void)
{
 8100a40:	b480      	push	{r7}
 8100a42:	af00      	add	r7, sp, #0
  /* USER CODE BEGIN MemoryManagement_IRQn 0 */

  /* USER CODE END MemoryManagement_IRQn 0 */
  while (1)
 8100a44:	e7fe      	b.n	8100a44 <MemManage_Handler+0x4>

08100a46 <BusFault_Handler>:

/**
  * @brief This function handles Pre-fetch fault, memory access fault.
  */
void BusFault_Handler(void)
{
 8100a46:	b480      	push	{r7}
 8100a48:	af00      	add	r7, sp, #0
  /* USER CODE BEGIN BusFault_IRQn 0 */

  /* USER CODE END BusFault_IRQn 0 */
  while (1)
 8100a4a:	e7fe      	b.n	8100a4a <BusFault_Handler+0x4>

08100a4c <UsageFault_Handler>:

/**
  * @brief This function handles Undefined instruction or illegal state.
  */
void UsageFault_Handler(void)
{
 8100a4c:	b480      	push	{r7}
 8100a4e:	af00      	add	r7, sp, #0
  /* USER CODE BEGIN UsageFault_IRQn 0 */

  /* USER CODE END UsageFault_IRQn 0 */
  while (1)
 8100a50:	e7fe      	b.n	8100a50 <UsageFault_Handler+0x4>

08100a52 <SVC_Handler>:

/**
  * @brief This function handles System service call via SWI instruction.
  */
void SVC_Handler(void)
{
 8100a52:	b480      	push	{r7}
 8100a54:	af00      	add	r7, sp, #0

  /* USER CODE END SVCall_IRQn 0 */
  /* USER CODE BEGIN SVCall_IRQn 1 */

  /* USER CODE END SVCall_IRQn 1 */
}
 8100a56:	bf00      	nop
 8100a58:	46bd      	mov	sp, r7
 8100a5a:	f85d 7b04 	ldr.w	r7, [sp], #4
 8100a5e:	4770      	bx	lr

08100a60 <DebugMon_Handler>:

/**
  * @brief This function handles Debug monitor.
  */
void DebugMon_Handler(void)
{
 8100a60:	b480      	push	{r7}
 8100a62:	af00      	add	r7, sp, #0

  /* USER CODE END DebugMonitor_IRQn 0 */
  /* USER CODE BEGIN DebugMonitor_IRQn 1 */

  /* USER CODE END DebugMonitor_IRQn 1 */
}
 8100a64:	bf00      	nop
 8100a66:	46bd      	mov	sp, r7
 8100a68:	f85d 7b04 	ldr.w	r7, [sp], #4
 8100a6c:	4770      	bx	lr

08100a6e <PendSV_Handler>:

/**
  * @brief This function handles Pendable request for system service.
  */
void PendSV_Handler(void)
{
 8100a6e:	b480      	push	{r7}
 8100a70:	af00      	add	r7, sp, #0

  /* USER CODE END PendSV_IRQn 0 */
  /* USER CODE BEGIN PendSV_IRQn 1 */

  /* USER CODE END PendSV_IRQn 1 */
}
 8100a72:	bf00      	nop
 8100a74:	46bd      	mov	sp, r7
 8100a76:	f85d 7b04 	ldr.w	r7, [sp], #4
 8100a7a:	4770      	bx	lr

08100a7c <SysTick_Handler>:

/**
  * @brief This function handles System tick timer.
  */
void SysTick_Handler(void)
{
 8100a7c:	b580      	push	{r7, lr}
 8100a7e:	af00      	add	r7, sp, #0
  /* USER CODE BEGIN SysTick_IRQn 0 */

  /* USER CODE END SysTick_IRQn 0 */
  HAL_IncTick();
 8100a80:	f000 f990 	bl	8100da4 <HAL_IncTick>
  /* USER CODE BEGIN SysTick_IRQn 1 */

  /* USER CODE END SysTick_IRQn 1 */
}
 8100a84:	bf00      	nop
 8100a86:	bd80      	pop	{r7, pc}

08100a88 <HSEM2_IRQHandler>:

/**
  * @brief This function handles HSEM2 global interrupt.
  */
void HSEM2_IRQHandler(void)
{
 8100a88:	b580      	push	{r7, lr}
 8100a8a:	af00      	add	r7, sp, #0
  /* USER CODE BEGIN HSEM2_IRQn 0 */

  /* USER CODE END HSEM2_IRQn 0 */
  HAL_HSEM_IRQHandler();
 8100a8c:	f000 fcbe 	bl	810140c <HAL_HSEM_IRQHandler>
  /* USER CODE BEGIN HSEM2_IRQn 1 */

  /* USER CODE END HSEM2_IRQn 1 */
}
 8100a90:	bf00      	nop
 8100a92:	bd80      	pop	{r7, pc}

08100a94 <_getpid>:
void initialise_monitor_handles()
{
}

int _getpid(void)
{
 8100a94:	b480      	push	{r7}
 8100a96:	af00      	add	r7, sp, #0
	return 1;
 8100a98:	2301      	movs	r3, #1
}
 8100a9a:	4618      	mov	r0, r3
 8100a9c:	46bd      	mov	sp, r7
 8100a9e:	f85d 7b04 	ldr.w	r7, [sp], #4
 8100aa2:	4770      	bx	lr

08100aa4 <_kill>:

int _kill(int pid, int sig)
{
 8100aa4:	b480      	push	{r7}
 8100aa6:	b083      	sub	sp, #12
 8100aa8:	af00      	add	r7, sp, #0
 8100aaa:	6078      	str	r0, [r7, #4]
 8100aac:	6039      	str	r1, [r7, #0]
	errno = EINVAL;
 8100aae:	4b05      	ldr	r3, [pc, #20]	; (8100ac4 <_kill+0x20>)
 8100ab0:	2216      	movs	r2, #22
 8100ab2:	601a      	str	r2, [r3, #0]
	return -1;
 8100ab4:	f04f 33ff 	mov.w	r3, #4294967295
}
 8100ab8:	4618      	mov	r0, r3
 8100aba:	370c      	adds	r7, #12
 8100abc:	46bd      	mov	sp, r7
 8100abe:	f85d 7b04 	ldr.w	r7, [sp], #4
 8100ac2:	4770      	bx	lr
 8100ac4:	100002d8 	.word	0x100002d8

08100ac8 <_exit>:

void _exit (int status)
{
 8100ac8:	b580      	push	{r7, lr}
 8100aca:	b082      	sub	sp, #8
 8100acc:	af00      	add	r7, sp, #0
 8100ace:	6078      	str	r0, [r7, #4]
	_kill(status, -1);
 8100ad0:	f04f 31ff 	mov.w	r1, #4294967295
 8100ad4:	6878      	ldr	r0, [r7, #4]
 8100ad6:	f7ff ffe5 	bl	8100aa4 <_kill>
	while (1) {}		/* Make sure we hang here */
 8100ada:	e7fe      	b.n	8100ada <_exit+0x12>

08100adc <_read>:
}

__attribute__((weak)) int _read(int file, char *ptr, int len)
{
 8100adc:	b580      	push	{r7, lr}
 8100ade:	b086      	sub	sp, #24
 8100ae0:	af00      	add	r7, sp, #0
 8100ae2:	60f8      	str	r0, [r7, #12]
 8100ae4:	60b9      	str	r1, [r7, #8]
 8100ae6:	607a      	str	r2, [r7, #4]
	int DataIdx;

	for (DataIdx = 0; DataIdx < len; DataIdx++)
 8100ae8:	2300      	movs	r3, #0
 8100aea:	617b      	str	r3, [r7, #20]
 8100aec:	e00a      	b.n	8100b04 <_read+0x28>
	{
		*ptr++ = __io_getchar();
 8100aee:	f3af 8000 	nop.w
 8100af2:	4601      	mov	r1, r0
 8100af4:	68bb      	ldr	r3, [r7, #8]
 8100af6:	1c5a      	adds	r2, r3, #1
 8100af8:	60ba      	str	r2, [r7, #8]
 8100afa:	b2ca      	uxtb	r2, r1
 8100afc:	701a      	strb	r2, [r3, #0]
	for (DataIdx = 0; DataIdx < len; DataIdx++)
 8100afe:	697b      	ldr	r3, [r7, #20]
 8100b00:	3301      	adds	r3, #1
 8100b02:	617b      	str	r3, [r7, #20]
 8100b04:	697a      	ldr	r2, [r7, #20]
 8100b06:	687b      	ldr	r3, [r7, #4]
 8100b08:	429a      	cmp	r2, r3
 8100b0a:	dbf0      	blt.n	8100aee <_read+0x12>
	}

return len;
 8100b0c:	687b      	ldr	r3, [r7, #4]
}
 8100b0e:	4618      	mov	r0, r3
 8100b10:	3718      	adds	r7, #24
 8100b12:	46bd      	mov	sp, r7
 8100b14:	bd80      	pop	{r7, pc}

08100b16 <_write>:

__attribute__((weak)) int _write(int file, char *ptr, int len)
{
 8100b16:	b580      	push	{r7, lr}
 8100b18:	b086      	sub	sp, #24
 8100b1a:	af00      	add	r7, sp, #0
 8100b1c:	60f8      	str	r0, [r7, #12]
 8100b1e:	60b9      	str	r1, [r7, #8]
 8100b20:	607a      	str	r2, [r7, #4]
	int DataIdx;

	for (DataIdx = 0; DataIdx < len; DataIdx++)
 8100b22:	2300      	movs	r3, #0
 8100b24:	617b      	str	r3, [r7, #20]
 8100b26:	e009      	b.n	8100b3c <_write+0x26>
	{
		__io_putchar(*ptr++);
 8100b28:	68bb      	ldr	r3, [r7, #8]
 8100b2a:	1c5a      	adds	r2, r3, #1
 8100b2c:	60ba      	str	r2, [r7, #8]
 8100b2e:	781b      	ldrb	r3, [r3, #0]
 8100b30:	4618      	mov	r0, r3
 8100b32:	f7ff fedb 	bl	81008ec <__io_putchar>
	for (DataIdx = 0; DataIdx < len; DataIdx++)
 8100b36:	697b      	ldr	r3, [r7, #20]
 8100b38:	3301      	adds	r3, #1
 8100b3a:	617b      	str	r3, [r7, #20]
 8100b3c:	697a      	ldr	r2, [r7, #20]
 8100b3e:	687b      	ldr	r3, [r7, #4]
 8100b40:	429a      	cmp	r2, r3
 8100b42:	dbf1      	blt.n	8100b28 <_write+0x12>
	}
	return len;
 8100b44:	687b      	ldr	r3, [r7, #4]
}
 8100b46:	4618      	mov	r0, r3
 8100b48:	3718      	adds	r7, #24
 8100b4a:	46bd      	mov	sp, r7
 8100b4c:	bd80      	pop	{r7, pc}

08100b4e <_close>:

int _close(int file)
{
 8100b4e:	b480      	push	{r7}
 8100b50:	b083      	sub	sp, #12
 8100b52:	af00      	add	r7, sp, #0
 8100b54:	6078      	str	r0, [r7, #4]
	return -1;
 8100b56:	f04f 33ff 	mov.w	r3, #4294967295
}
 8100b5a:	4618      	mov	r0, r3
 8100b5c:	370c      	adds	r7, #12
 8100b5e:	46bd      	mov	sp, r7
 8100b60:	f85d 7b04 	ldr.w	r7, [sp], #4
 8100b64:	4770      	bx	lr

08100b66 <_fstat>:


int _fstat(int file, struct stat *st)
{
 8100b66:	b480      	push	{r7}
 8100b68:	b083      	sub	sp, #12
 8100b6a:	af00      	add	r7, sp, #0
 8100b6c:	6078      	str	r0, [r7, #4]
 8100b6e:	6039      	str	r1, [r7, #0]
	st->st_mode = S_IFCHR;
 8100b70:	683b      	ldr	r3, [r7, #0]
 8100b72:	f44f 5200 	mov.w	r2, #8192	; 0x2000
 8100b76:	605a      	str	r2, [r3, #4]
	return 0;
 8100b78:	2300      	movs	r3, #0
}
 8100b7a:	4618      	mov	r0, r3
 8100b7c:	370c      	adds	r7, #12
 8100b7e:	46bd      	mov	sp, r7
 8100b80:	f85d 7b04 	ldr.w	r7, [sp], #4
 8100b84:	4770      	bx	lr

08100b86 <_isatty>:

int _isatty(int file)
{
 8100b86:	b480      	push	{r7}
 8100b88:	b083      	sub	sp, #12
 8100b8a:	af00      	add	r7, sp, #0
 8100b8c:	6078      	str	r0, [r7, #4]
	return 1;
 8100b8e:	2301      	movs	r3, #1
}
 8100b90:	4618      	mov	r0, r3
 8100b92:	370c      	adds	r7, #12
 8100b94:	46bd      	mov	sp, r7
 8100b96:	f85d 7b04 	ldr.w	r7, [sp], #4
 8100b9a:	4770      	bx	lr

08100b9c <_lseek>:

int _lseek(int file, int ptr, int dir)
{
 8100b9c:	b480      	push	{r7}
 8100b9e:	b085      	sub	sp, #20
 8100ba0:	af00      	add	r7, sp, #0
 8100ba2:	60f8      	str	r0, [r7, #12]
 8100ba4:	60b9      	str	r1, [r7, #8]
 8100ba6:	607a      	str	r2, [r7, #4]
	return 0;
 8100ba8:	2300      	movs	r3, #0
}
 8100baa:	4618      	mov	r0, r3
 8100bac:	3714      	adds	r7, #20
 8100bae:	46bd      	mov	sp, r7
 8100bb0:	f85d 7b04 	ldr.w	r7, [sp], #4
 8100bb4:	4770      	bx	lr
	...

08100bb8 <_sbrk>:
 *
 * @param incr Memory size
 * @return Pointer to allocated memory
 */
void *_sbrk(ptrdiff_t incr)
{
 8100bb8:	b480      	push	{r7}
 8100bba:	b087      	sub	sp, #28
 8100bbc:	af00      	add	r7, sp, #0
 8100bbe:	6078      	str	r0, [r7, #4]
  extern uint8_t _end; /* Symbol defined in the linker script */
  extern uint8_t _estack; /* Symbol defined in the linker script */
  extern uint32_t _Min_Stack_Size; /* Symbol defined in the linker script */
  const uint32_t stack_limit = (uint32_t)&_estack - (uint32_t)&_Min_Stack_Size;
 8100bc0:	4a14      	ldr	r2, [pc, #80]	; (8100c14 <_sbrk+0x5c>)
 8100bc2:	4b15      	ldr	r3, [pc, #84]	; (8100c18 <_sbrk+0x60>)
 8100bc4:	1ad3      	subs	r3, r2, r3
 8100bc6:	617b      	str	r3, [r7, #20]
  const uint8_t *max_heap = (uint8_t *)stack_limit;
 8100bc8:	697b      	ldr	r3, [r7, #20]
 8100bca:	613b      	str	r3, [r7, #16]
  uint8_t *prev_heap_end;

  /* Initialize heap end at first call */
  if (NULL == __sbrk_heap_end)
 8100bcc:	4b13      	ldr	r3, [pc, #76]	; (8100c1c <_sbrk+0x64>)
 8100bce:	681b      	ldr	r3, [r3, #0]
 8100bd0:	2b00      	cmp	r3, #0
 8100bd2:	d102      	bne.n	8100bda <_sbrk+0x22>
  {
    __sbrk_heap_end = &_end;
 8100bd4:	4b11      	ldr	r3, [pc, #68]	; (8100c1c <_sbrk+0x64>)
 8100bd6:	4a12      	ldr	r2, [pc, #72]	; (8100c20 <_sbrk+0x68>)
 8100bd8:	601a      	str	r2, [r3, #0]
  }

  /* Protect heap from growing into the reserved MSP stack */
  if (__sbrk_heap_end + incr > max_heap)
 8100bda:	4b10      	ldr	r3, [pc, #64]	; (8100c1c <_sbrk+0x64>)
 8100bdc:	681a      	ldr	r2, [r3, #0]
 8100bde:	687b      	ldr	r3, [r7, #4]
 8100be0:	4413      	add	r3, r2
 8100be2:	693a      	ldr	r2, [r7, #16]
 8100be4:	429a      	cmp	r2, r3
 8100be6:	d205      	bcs.n	8100bf4 <_sbrk+0x3c>
  {
    errno = ENOMEM;
 8100be8:	4b0e      	ldr	r3, [pc, #56]	; (8100c24 <_sbrk+0x6c>)
 8100bea:	220c      	movs	r2, #12
 8100bec:	601a      	str	r2, [r3, #0]
    return (void *)-1;
 8100bee:	f04f 33ff 	mov.w	r3, #4294967295
 8100bf2:	e009      	b.n	8100c08 <_sbrk+0x50>
  }

  prev_heap_end = __sbrk_heap_end;
 8100bf4:	4b09      	ldr	r3, [pc, #36]	; (8100c1c <_sbrk+0x64>)
 8100bf6:	681b      	ldr	r3, [r3, #0]
 8100bf8:	60fb      	str	r3, [r7, #12]
  __sbrk_heap_end += incr;
 8100bfa:	4b08      	ldr	r3, [pc, #32]	; (8100c1c <_sbrk+0x64>)
 8100bfc:	681a      	ldr	r2, [r3, #0]
 8100bfe:	687b      	ldr	r3, [r7, #4]
 8100c00:	4413      	add	r3, r2
 8100c02:	4a06      	ldr	r2, [pc, #24]	; (8100c1c <_sbrk+0x64>)
 8100c04:	6013      	str	r3, [r2, #0]

  return (void *)prev_heap_end;
 8100c06:	68fb      	ldr	r3, [r7, #12]
}
 8100c08:	4618      	mov	r0, r3
 8100c0a:	371c      	adds	r7, #28
 8100c0c:	46bd      	mov	sp, r7
 8100c0e:	f85d 7b04 	ldr.w	r7, [sp], #4
 8100c12:	4770      	bx	lr
 8100c14:	10048000 	.word	0x10048000
 8100c18:	00000400 	.word	0x00000400
 8100c1c:	10000210 	.word	0x10000210
 8100c20:	100002e0 	.word	0x100002e0
 8100c24:	100002d8 	.word	0x100002d8

08100c28 <Reset_Handler>:

    .section  .text.Reset_Handler
  .weak  Reset_Handler
  .type  Reset_Handler, %function
Reset_Handler:
  ldr   sp, =_estack      /* set stack pointer */
 8100c28:	f8df d034 	ldr.w	sp, [pc, #52]	; 8100c60 <LoopFillZerobss+0xe>

/* Call the clock system initialization function.*/
  bl  SystemInit
 8100c2c:	f7ff fd3a 	bl	81006a4 <SystemInit>

/* Copy the data segment initializers from flash to SRAM */
  ldr r0, =_sdata
 8100c30:	480c      	ldr	r0, [pc, #48]	; (8100c64 <LoopFillZerobss+0x12>)
  ldr r1, =_edata
 8100c32:	490d      	ldr	r1, [pc, #52]	; (8100c68 <LoopFillZerobss+0x16>)
  ldr r2, =_sidata
 8100c34:	4a0d      	ldr	r2, [pc, #52]	; (8100c6c <LoopFillZerobss+0x1a>)
  movs r3, #0
 8100c36:	2300      	movs	r3, #0
  b LoopCopyDataInit
 8100c38:	e002      	b.n	8100c40 <LoopCopyDataInit>

08100c3a <CopyDataInit>:

CopyDataInit:
  ldr r4, [r2, r3]
 8100c3a:	58d4      	ldr	r4, [r2, r3]
  str r4, [r0, r3]
 8100c3c:	50c4      	str	r4, [r0, r3]
  adds r3, r3, #4
 8100c3e:	3304      	adds	r3, #4

08100c40 <LoopCopyDataInit>:

LoopCopyDataInit:
  adds r4, r0, r3
 8100c40:	18c4      	adds	r4, r0, r3
  cmp r4, r1
 8100c42:	428c      	cmp	r4, r1
  bcc CopyDataInit
 8100c44:	d3f9      	bcc.n	8100c3a <CopyDataInit>
/* Zero fill the bss segment. */
  ldr r2, =_sbss
 8100c46:	4a0a      	ldr	r2, [pc, #40]	; (8100c70 <LoopFillZerobss+0x1e>)
  ldr r4, =_ebss
 8100c48:	4c0a      	ldr	r4, [pc, #40]	; (8100c74 <LoopFillZerobss+0x22>)
  movs r3, #0
 8100c4a:	2300      	movs	r3, #0
  b LoopFillZerobss
 8100c4c:	e001      	b.n	8100c52 <LoopFillZerobss>

08100c4e <FillZerobss>:

FillZerobss:
  str  r3, [r2]
 8100c4e:	6013      	str	r3, [r2, #0]
  adds r2, r2, #4
 8100c50:	3204      	adds	r2, #4

08100c52 <LoopFillZerobss>:

LoopFillZerobss:
  cmp r2, r4
 8100c52:	42a2      	cmp	r2, r4
  bcc FillZerobss
 8100c54:	d3fb      	bcc.n	8100c4e <FillZerobss>

/* Call static constructors */
    bl __libc_init_array
 8100c56:	f005 febf 	bl	81069d8 <__libc_init_array>
/* Call the application's entry point.*/
  bl  main
 8100c5a:	f7ff fd3b 	bl	81006d4 <main>
  bx  lr
 8100c5e:	4770      	bx	lr
  ldr   sp, =_estack      /* set stack pointer */
 8100c60:	10048000 	.word	0x10048000
  ldr r0, =_sdata
 8100c64:	10000000 	.word	0x10000000
  ldr r1, =_edata
 8100c68:	1000011c 	.word	0x1000011c
  ldr r2, =_sidata
 8100c6c:	08107e08 	.word	0x08107e08
  ldr r2, =_sbss
 8100c70:	1000011c 	.word	0x1000011c
  ldr r4, =_ebss
 8100c74:	100002e0 	.word	0x100002e0

08100c78 <ADC3_IRQHandler>:
 * @retval None
*/
    .section  .text.Default_Handler,"ax",%progbits
Default_Handler:
Infinite_Loop:
  b  Infinite_Loop
 8100c78:	e7fe      	b.n	8100c78 <ADC3_IRQHandler>
	...

08100c7c <HAL_Init>:
  *         need to ensure that the SysTick time base is always set to 1 millisecond
  *         to have correct HAL operation.
  * @retval HAL status
  */
HAL_StatusTypeDef HAL_Init(void)
{
 8100c7c:	b580      	push	{r7, lr}
 8100c7e:	b082      	sub	sp, #8
 8100c80:	af00      	add	r7, sp, #0

uint32_t common_system_clock;

#if defined(DUAL_CORE) && defined(CORE_CM4)
   /* Configure Cortex-M4 Instruction cache through ART accelerator */
   __HAL_RCC_ART_CLK_ENABLE();                   /* Enable the Cortex-M4 ART Clock */
 8100c82:	4b28      	ldr	r3, [pc, #160]	; (8100d24 <HAL_Init+0xa8>)
 8100c84:	f8d3 30d8 	ldr.w	r3, [r3, #216]	; 0xd8
 8100c88:	4a26      	ldr	r2, [pc, #152]	; (8100d24 <HAL_Init+0xa8>)
 8100c8a:	f443 4380 	orr.w	r3, r3, #16384	; 0x4000
 8100c8e:	f8c2 30d8 	str.w	r3, [r2, #216]	; 0xd8
 8100c92:	4b24      	ldr	r3, [pc, #144]	; (8100d24 <HAL_Init+0xa8>)
 8100c94:	f8d3 30d8 	ldr.w	r3, [r3, #216]	; 0xd8
 8100c98:	f403 4380 	and.w	r3, r3, #16384	; 0x4000
 8100c9c:	603b      	str	r3, [r7, #0]
 8100c9e:	683b      	ldr	r3, [r7, #0]
   __HAL_ART_CONFIG_BASE_ADDRESS(0x08100000UL);  /* Configure the Cortex-M4 ART Base address to the Flash Bank 2 : */
 8100ca0:	4b21      	ldr	r3, [pc, #132]	; (8100d28 <HAL_Init+0xac>)
 8100ca2:	681b      	ldr	r3, [r3, #0]
 8100ca4:	f423 237f 	bic.w	r3, r3, #1044480	; 0xff000
 8100ca8:	f423 6370 	bic.w	r3, r3, #3840	; 0xf00
 8100cac:	4a1e      	ldr	r2, [pc, #120]	; (8100d28 <HAL_Init+0xac>)
 8100cae:	f443 4301 	orr.w	r3, r3, #33024	; 0x8100
 8100cb2:	6013      	str	r3, [r2, #0]
   __HAL_ART_ENABLE();                           /* Enable the Cortex-M4 ART */
 8100cb4:	4b1c      	ldr	r3, [pc, #112]	; (8100d28 <HAL_Init+0xac>)
 8100cb6:	681b      	ldr	r3, [r3, #0]
 8100cb8:	4a1b      	ldr	r2, [pc, #108]	; (8100d28 <HAL_Init+0xac>)
 8100cba:	f043 0301 	orr.w	r3, r3, #1
 8100cbe:	6013      	str	r3, [r2, #0]
#endif /* DUAL_CORE &&  CORE_CM4 */

  /* Set Interrupt Group Priority */
  HAL_NVIC_SetPriorityGrouping(NVIC_PRIORITYGROUP_4);
 8100cc0:	2003      	movs	r0, #3
 8100cc2:	f000 f95f 	bl	8100f84 <HAL_NVIC_SetPriorityGrouping>

  /* Update the SystemCoreClock global variable */
#if defined(RCC_D1CFGR_D1CPRE)
  common_system_clock = HAL_RCC_GetSysClockFreq() >> ((D1CorePrescTable[(RCC->D1CFGR & RCC_D1CFGR_D1CPRE)>> RCC_D1CFGR_D1CPRE_Pos]) & 0x1FU);
 8100cc6:	f000 fc43 	bl	8101550 <HAL_RCC_GetSysClockFreq>
 8100cca:	4602      	mov	r2, r0
 8100ccc:	4b15      	ldr	r3, [pc, #84]	; (8100d24 <HAL_Init+0xa8>)
 8100cce:	699b      	ldr	r3, [r3, #24]
 8100cd0:	0a1b      	lsrs	r3, r3, #8
 8100cd2:	f003 030f 	and.w	r3, r3, #15
 8100cd6:	4915      	ldr	r1, [pc, #84]	; (8100d2c <HAL_Init+0xb0>)
 8100cd8:	5ccb      	ldrb	r3, [r1, r3]
 8100cda:	f003 031f 	and.w	r3, r3, #31
 8100cde:	fa22 f303 	lsr.w	r3, r2, r3
 8100ce2:	607b      	str	r3, [r7, #4]
  common_system_clock = HAL_RCC_GetSysClockFreq() >> ((D1CorePrescTable[(RCC->CDCFGR1 & RCC_CDCFGR1_CDCPRE)>> RCC_CDCFGR1_CDCPRE_Pos]) & 0x1FU);
#endif

  /* Update the SystemD2Clock global variable */
#if defined(RCC_D1CFGR_HPRE)
  SystemD2Clock = (common_system_clock >> ((D1CorePrescTable[(RCC->D1CFGR & RCC_D1CFGR_HPRE)>> RCC_D1CFGR_HPRE_Pos]) & 0x1FU));
 8100ce4:	4b0f      	ldr	r3, [pc, #60]	; (8100d24 <HAL_Init+0xa8>)
 8100ce6:	699b      	ldr	r3, [r3, #24]
 8100ce8:	f003 030f 	and.w	r3, r3, #15
 8100cec:	4a0f      	ldr	r2, [pc, #60]	; (8100d2c <HAL_Init+0xb0>)
 8100cee:	5cd3      	ldrb	r3, [r2, r3]
 8100cf0:	f003 031f 	and.w	r3, r3, #31
 8100cf4:	687a      	ldr	r2, [r7, #4]
 8100cf6:	fa22 f303 	lsr.w	r3, r2, r3
 8100cfa:	4a0d      	ldr	r2, [pc, #52]	; (8100d30 <HAL_Init+0xb4>)
 8100cfc:	6013      	str	r3, [r2, #0]
#else
  SystemD2Clock = (common_system_clock >> ((D1CorePrescTable[(RCC->CDCFGR1 & RCC_CDCFGR1_HPRE)>> RCC_CDCFGR1_HPRE_Pos]) & 0x1FU));
#endif

#if defined(DUAL_CORE) && defined(CORE_CM4)
  SystemCoreClock = SystemD2Clock;
 8100cfe:	4b0c      	ldr	r3, [pc, #48]	; (8100d30 <HAL_Init+0xb4>)
 8100d00:	681b      	ldr	r3, [r3, #0]
 8100d02:	4a0c      	ldr	r2, [pc, #48]	; (8100d34 <HAL_Init+0xb8>)
 8100d04:	6013      	str	r3, [r2, #0]
#else
  SystemCoreClock = common_system_clock;
#endif /* DUAL_CORE && CORE_CM4 */

  /* Use systick as time base source and configure 1ms tick (default clock after Reset is HSI) */
  if(HAL_InitTick(TICK_INT_PRIORITY) != HAL_OK)
 8100d06:	2000      	movs	r0, #0
 8100d08:	f000 f816 	bl	8100d38 <HAL_InitTick>
 8100d0c:	4603      	mov	r3, r0
 8100d0e:	2b00      	cmp	r3, #0
 8100d10:	d001      	beq.n	8100d16 <HAL_Init+0x9a>
  {
    return HAL_ERROR;
 8100d12:	2301      	movs	r3, #1
 8100d14:	e002      	b.n	8100d1c <HAL_Init+0xa0>
  }

  /* Init the low level hardware */
  HAL_MspInit();
 8100d16:	f7ff fe07 	bl	8100928 <HAL_MspInit>

  /* Return function status */
  return HAL_OK;
 8100d1a:	2300      	movs	r3, #0
}
 8100d1c:	4618      	mov	r0, r3
 8100d1e:	3708      	adds	r7, #8
 8100d20:	46bd      	mov	sp, r7
 8100d22:	bd80      	pop	{r7, pc}
 8100d24:	58024400 	.word	0x58024400
 8100d28:	40024400 	.word	0x40024400
 8100d2c:	08107c98 	.word	0x08107c98
 8100d30:	10000004 	.word	0x10000004
 8100d34:	10000000 	.word	0x10000000

08100d38 <HAL_InitTick>:
  *       implementation  in user file.
  * @param TickPriority: Tick interrupt priority.
  * @retval HAL status
  */
__weak HAL_StatusTypeDef HAL_InitTick(uint32_t TickPriority)
{
 8100d38:	b580      	push	{r7, lr}
 8100d3a:	b082      	sub	sp, #8
 8100d3c:	af00      	add	r7, sp, #0
 8100d3e:	6078      	str	r0, [r7, #4]
  /* Check uwTickFreq for MisraC 2012 (even if uwTickFreq is a enum type that don't take the value zero)*/
  if((uint32_t)uwTickFreq == 0UL)
 8100d40:	4b15      	ldr	r3, [pc, #84]	; (8100d98 <HAL_InitTick+0x60>)
 8100d42:	781b      	ldrb	r3, [r3, #0]
 8100d44:	2b00      	cmp	r3, #0
 8100d46:	d101      	bne.n	8100d4c <HAL_InitTick+0x14>
  {
    return HAL_ERROR;
 8100d48:	2301      	movs	r3, #1
 8100d4a:	e021      	b.n	8100d90 <HAL_InitTick+0x58>
  }

    /* Configure the SysTick to have interrupt in 1ms time basis*/
    if (HAL_SYSTICK_Config(SystemCoreClock / (1000UL / (uint32_t)uwTickFreq)) > 0U)
 8100d4c:	4b13      	ldr	r3, [pc, #76]	; (8100d9c <HAL_InitTick+0x64>)
 8100d4e:	681a      	ldr	r2, [r3, #0]
 8100d50:	4b11      	ldr	r3, [pc, #68]	; (8100d98 <HAL_InitTick+0x60>)
 8100d52:	781b      	ldrb	r3, [r3, #0]
 8100d54:	4619      	mov	r1, r3
 8100d56:	f44f 737a 	mov.w	r3, #1000	; 0x3e8
 8100d5a:	fbb3 f3f1 	udiv	r3, r3, r1
 8100d5e:	fbb2 f3f3 	udiv	r3, r2, r3
 8100d62:	4618      	mov	r0, r3
 8100d64:	f000 f941 	bl	8100fea <HAL_SYSTICK_Config>
 8100d68:	4603      	mov	r3, r0
 8100d6a:	2b00      	cmp	r3, #0
 8100d6c:	d001      	beq.n	8100d72 <HAL_InitTick+0x3a>
    {
      return HAL_ERROR;
 8100d6e:	2301      	movs	r3, #1
 8100d70:	e00e      	b.n	8100d90 <HAL_InitTick+0x58>
    }

  /* Configure the SysTick IRQ priority */
  if (TickPriority < (1UL << __NVIC_PRIO_BITS))
 8100d72:	687b      	ldr	r3, [r7, #4]
 8100d74:	2b0f      	cmp	r3, #15
 8100d76:	d80a      	bhi.n	8100d8e <HAL_InitTick+0x56>
  {
    HAL_NVIC_SetPriority(SysTick_IRQn, TickPriority, 0U);
 8100d78:	2200      	movs	r2, #0
 8100d7a:	6879      	ldr	r1, [r7, #4]
 8100d7c:	f04f 30ff 	mov.w	r0, #4294967295
 8100d80:	f000 f90b 	bl	8100f9a <HAL_NVIC_SetPriority>
    uwTickPrio = TickPriority;
 8100d84:	4a06      	ldr	r2, [pc, #24]	; (8100da0 <HAL_InitTick+0x68>)
 8100d86:	687b      	ldr	r3, [r7, #4]
 8100d88:	6013      	str	r3, [r2, #0]
  {
    return HAL_ERROR;
  }

  /* Return function status */
  return HAL_OK;
 8100d8a:	2300      	movs	r3, #0
 8100d8c:	e000      	b.n	8100d90 <HAL_InitTick+0x58>
    return HAL_ERROR;
 8100d8e:	2301      	movs	r3, #1
}
 8100d90:	4618      	mov	r0, r3
 8100d92:	3708      	adds	r7, #8
 8100d94:	46bd      	mov	sp, r7
 8100d96:	bd80      	pop	{r7, pc}
 8100d98:	1000000c 	.word	0x1000000c
 8100d9c:	10000000 	.word	0x10000000
 8100da0:	10000008 	.word	0x10000008

08100da4 <HAL_IncTick>:
 * @note This function is declared as __weak to be overwritten in case of other
  *      implementations in user file.
  * @retval None
  */
__weak void HAL_IncTick(void)
{
 8100da4:	b480      	push	{r7}
 8100da6:	af00      	add	r7, sp, #0
  uwTick += (uint32_t)uwTickFreq;
 8100da8:	4b06      	ldr	r3, [pc, #24]	; (8100dc4 <HAL_IncTick+0x20>)
 8100daa:	781b      	ldrb	r3, [r3, #0]
 8100dac:	461a      	mov	r2, r3
 8100dae:	4b06      	ldr	r3, [pc, #24]	; (8100dc8 <HAL_IncTick+0x24>)
 8100db0:	681b      	ldr	r3, [r3, #0]
 8100db2:	4413      	add	r3, r2
 8100db4:	4a04      	ldr	r2, [pc, #16]	; (8100dc8 <HAL_IncTick+0x24>)
 8100db6:	6013      	str	r3, [r2, #0]
}
 8100db8:	bf00      	nop
 8100dba:	46bd      	mov	sp, r7
 8100dbc:	f85d 7b04 	ldr.w	r7, [sp], #4
 8100dc0:	4770      	bx	lr
 8100dc2:	bf00      	nop
 8100dc4:	1000000c 	.word	0x1000000c
 8100dc8:	10000214 	.word	0x10000214

08100dcc <HAL_GetTick>:
  * @note This function is declared as __weak to be overwritten in case of other
  *       implementations in user file.
  * @retval tick value
  */
__weak uint32_t HAL_GetTick(void)
{
 8100dcc:	b480      	push	{r7}
 8100dce:	af00      	add	r7, sp, #0
  return uwTick;
 8100dd0:	4b03      	ldr	r3, [pc, #12]	; (8100de0 <HAL_GetTick+0x14>)
 8100dd2:	681b      	ldr	r3, [r3, #0]
}
 8100dd4:	4618      	mov	r0, r3
 8100dd6:	46bd      	mov	sp, r7
 8100dd8:	f85d 7b04 	ldr.w	r7, [sp], #4
 8100ddc:	4770      	bx	lr
 8100dde:	bf00      	nop
 8100de0:	10000214 	.word	0x10000214

08100de4 <__NVIC_SetPriorityGrouping>:
           In case of a conflict between priority grouping and available
           priority bits (__NVIC_PRIO_BITS), the smallest possible priority group is set.
  \param [in]      PriorityGroup  Priority grouping field.
 */
__STATIC_INLINE void __NVIC_SetPriorityGrouping(uint32_t PriorityGroup)
{
 8100de4:	b480      	push	{r7}
 8100de6:	b085      	sub	sp, #20
 8100de8:	af00      	add	r7, sp, #0
 8100dea:	6078      	str	r0, [r7, #4]
  uint32_t reg_value;
  uint32_t PriorityGroupTmp = (PriorityGroup & (uint32_t)0x07UL);             /* only values 0..7 are used          */
 8100dec:	687b      	ldr	r3, [r7, #4]
 8100dee:	f003 0307 	and.w	r3, r3, #7
 8100df2:	60fb      	str	r3, [r7, #12]

  reg_value  =  SCB->AIRCR;                                                   /* read old register configuration    */
 8100df4:	4b0c      	ldr	r3, [pc, #48]	; (8100e28 <__NVIC_SetPriorityGrouping+0x44>)
 8100df6:	68db      	ldr	r3, [r3, #12]
 8100df8:	60bb      	str	r3, [r7, #8]
  reg_value &= ~((uint32_t)(SCB_AIRCR_VECTKEY_Msk | SCB_AIRCR_PRIGROUP_Msk)); /* clear bits to change               */
 8100dfa:	68ba      	ldr	r2, [r7, #8]
 8100dfc:	f64f 03ff 	movw	r3, #63743	; 0xf8ff
 8100e00:	4013      	ands	r3, r2
 8100e02:	60bb      	str	r3, [r7, #8]
  reg_value  =  (reg_value                                   |
                ((uint32_t)0x5FAUL << SCB_AIRCR_VECTKEY_Pos) |
                (PriorityGroupTmp << SCB_AIRCR_PRIGROUP_Pos)  );              /* Insert write key and priority group */
 8100e04:	68fb      	ldr	r3, [r7, #12]
 8100e06:	021a      	lsls	r2, r3, #8
                ((uint32_t)0x5FAUL << SCB_AIRCR_VECTKEY_Pos) |
 8100e08:	68bb      	ldr	r3, [r7, #8]
 8100e0a:	4313      	orrs	r3, r2
  reg_value  =  (reg_value                                   |
 8100e0c:	f043 63bf 	orr.w	r3, r3, #100139008	; 0x5f80000
 8100e10:	f443 3300 	orr.w	r3, r3, #131072	; 0x20000
 8100e14:	60bb      	str	r3, [r7, #8]
  SCB->AIRCR =  reg_value;
 8100e16:	4a04      	ldr	r2, [pc, #16]	; (8100e28 <__NVIC_SetPriorityGrouping+0x44>)
 8100e18:	68bb      	ldr	r3, [r7, #8]
 8100e1a:	60d3      	str	r3, [r2, #12]
}
 8100e1c:	bf00      	nop
 8100e1e:	3714      	adds	r7, #20
 8100e20:	46bd      	mov	sp, r7
 8100e22:	f85d 7b04 	ldr.w	r7, [sp], #4
 8100e26:	4770      	bx	lr
 8100e28:	e000ed00 	.word	0xe000ed00

08100e2c <__NVIC_GetPriorityGrouping>:
  \brief   Get Priority Grouping
  \details Reads the priority grouping field from the NVIC Interrupt Controller.
  \return                Priority grouping field (SCB->AIRCR [10:8] PRIGROUP field).
 */
__STATIC_INLINE uint32_t __NVIC_GetPriorityGrouping(void)
{
 8100e2c:	b480      	push	{r7}
 8100e2e:	af00      	add	r7, sp, #0
  return ((uint32_t)((SCB->AIRCR & SCB_AIRCR_PRIGROUP_Msk) >> SCB_AIRCR_PRIGROUP_Pos));
 8100e30:	4b04      	ldr	r3, [pc, #16]	; (8100e44 <__NVIC_GetPriorityGrouping+0x18>)
 8100e32:	68db      	ldr	r3, [r3, #12]
 8100e34:	0a1b      	lsrs	r3, r3, #8
 8100e36:	f003 0307 	and.w	r3, r3, #7
}
 8100e3a:	4618      	mov	r0, r3
 8100e3c:	46bd      	mov	sp, r7
 8100e3e:	f85d 7b04 	ldr.w	r7, [sp], #4
 8100e42:	4770      	bx	lr
 8100e44:	e000ed00 	.word	0xe000ed00

08100e48 <__NVIC_EnableIRQ>:
  \details Enables a device specific interrupt in the NVIC interrupt controller.
  \param [in]      IRQn  Device specific interrupt number.
  \note    IRQn must not be negative.
 */
__STATIC_INLINE void __NVIC_EnableIRQ(IRQn_Type IRQn)
{
 8100e48:	b480      	push	{r7}
 8100e4a:	b083      	sub	sp, #12
 8100e4c:	af00      	add	r7, sp, #0
 8100e4e:	4603      	mov	r3, r0
 8100e50:	80fb      	strh	r3, [r7, #6]
  if ((int32_t)(IRQn) >= 0)
 8100e52:	f9b7 3006 	ldrsh.w	r3, [r7, #6]
 8100e56:	2b00      	cmp	r3, #0
 8100e58:	db0b      	blt.n	8100e72 <__NVIC_EnableIRQ+0x2a>
  {
    __COMPILER_BARRIER();
    NVIC->ISER[(((uint32_t)IRQn) >> 5UL)] = (uint32_t)(1UL << (((uint32_t)IRQn) & 0x1FUL));
 8100e5a:	88fb      	ldrh	r3, [r7, #6]
 8100e5c:	f003 021f 	and.w	r2, r3, #31
 8100e60:	4907      	ldr	r1, [pc, #28]	; (8100e80 <__NVIC_EnableIRQ+0x38>)
 8100e62:	f9b7 3006 	ldrsh.w	r3, [r7, #6]
 8100e66:	095b      	lsrs	r3, r3, #5
 8100e68:	2001      	movs	r0, #1
 8100e6a:	fa00 f202 	lsl.w	r2, r0, r2
 8100e6e:	f841 2023 	str.w	r2, [r1, r3, lsl #2]
    __COMPILER_BARRIER();
  }
}
 8100e72:	bf00      	nop
 8100e74:	370c      	adds	r7, #12
 8100e76:	46bd      	mov	sp, r7
 8100e78:	f85d 7b04 	ldr.w	r7, [sp], #4
 8100e7c:	4770      	bx	lr
 8100e7e:	bf00      	nop
 8100e80:	e000e100 	.word	0xe000e100

08100e84 <__NVIC_SetPriority>:
  \param [in]      IRQn  Interrupt number.
  \param [in]  priority  Priority to set.
  \note    The priority cannot be set for every processor exception.
 */
__STATIC_INLINE void __NVIC_SetPriority(IRQn_Type IRQn, uint32_t priority)
{
 8100e84:	b480      	push	{r7}
 8100e86:	b083      	sub	sp, #12
 8100e88:	af00      	add	r7, sp, #0
 8100e8a:	4603      	mov	r3, r0
 8100e8c:	6039      	str	r1, [r7, #0]
 8100e8e:	80fb      	strh	r3, [r7, #6]
  if ((int32_t)(IRQn) >= 0)
 8100e90:	f9b7 3006 	ldrsh.w	r3, [r7, #6]
 8100e94:	2b00      	cmp	r3, #0
 8100e96:	db0a      	blt.n	8100eae <__NVIC_SetPriority+0x2a>
  {
    NVIC->IP[((uint32_t)IRQn)]               = (uint8_t)((priority << (8U - __NVIC_PRIO_BITS)) & (uint32_t)0xFFUL);
 8100e98:	683b      	ldr	r3, [r7, #0]
 8100e9a:	b2da      	uxtb	r2, r3
 8100e9c:	490c      	ldr	r1, [pc, #48]	; (8100ed0 <__NVIC_SetPriority+0x4c>)
 8100e9e:	f9b7 3006 	ldrsh.w	r3, [r7, #6]
 8100ea2:	0112      	lsls	r2, r2, #4
 8100ea4:	b2d2      	uxtb	r2, r2
 8100ea6:	440b      	add	r3, r1
 8100ea8:	f883 2300 	strb.w	r2, [r3, #768]	; 0x300
  }
  else
  {
    SCB->SHP[(((uint32_t)IRQn) & 0xFUL)-4UL] = (uint8_t)((priority << (8U - __NVIC_PRIO_BITS)) & (uint32_t)0xFFUL);
  }
}
 8100eac:	e00a      	b.n	8100ec4 <__NVIC_SetPriority+0x40>
    SCB->SHP[(((uint32_t)IRQn) & 0xFUL)-4UL] = (uint8_t)((priority << (8U - __NVIC_PRIO_BITS)) & (uint32_t)0xFFUL);
 8100eae:	683b      	ldr	r3, [r7, #0]
 8100eb0:	b2da      	uxtb	r2, r3
 8100eb2:	4908      	ldr	r1, [pc, #32]	; (8100ed4 <__NVIC_SetPriority+0x50>)
 8100eb4:	88fb      	ldrh	r3, [r7, #6]
 8100eb6:	f003 030f 	and.w	r3, r3, #15
 8100eba:	3b04      	subs	r3, #4
 8100ebc:	0112      	lsls	r2, r2, #4
 8100ebe:	b2d2      	uxtb	r2, r2
 8100ec0:	440b      	add	r3, r1
 8100ec2:	761a      	strb	r2, [r3, #24]
}
 8100ec4:	bf00      	nop
 8100ec6:	370c      	adds	r7, #12
 8100ec8:	46bd      	mov	sp, r7
 8100eca:	f85d 7b04 	ldr.w	r7, [sp], #4
 8100ece:	4770      	bx	lr
 8100ed0:	e000e100 	.word	0xe000e100
 8100ed4:	e000ed00 	.word	0xe000ed00

08100ed8 <NVIC_EncodePriority>:
  \param [in]   PreemptPriority  Preemptive priority value (starting from 0).
  \param [in]       SubPriority  Subpriority value (starting from 0).
  \return                        Encoded priority. Value can be used in the function \ref NVIC_SetPriority().
 */
__STATIC_INLINE uint32_t NVIC_EncodePriority (uint32_t PriorityGroup, uint32_t PreemptPriority, uint32_t SubPriority)
{
 8100ed8:	b480      	push	{r7}
 8100eda:	b089      	sub	sp, #36	; 0x24
 8100edc:	af00      	add	r7, sp, #0
 8100ede:	60f8      	str	r0, [r7, #12]
 8100ee0:	60b9      	str	r1, [r7, #8]
 8100ee2:	607a      	str	r2, [r7, #4]
  uint32_t PriorityGroupTmp = (PriorityGroup & (uint32_t)0x07UL);   /* only values 0..7 are used          */
 8100ee4:	68fb      	ldr	r3, [r7, #12]
 8100ee6:	f003 0307 	and.w	r3, r3, #7
 8100eea:	61fb      	str	r3, [r7, #28]
  uint32_t PreemptPriorityBits;
  uint32_t SubPriorityBits;

  PreemptPriorityBits = ((7UL - PriorityGroupTmp) > (uint32_t)(__NVIC_PRIO_BITS)) ? (uint32_t)(__NVIC_PRIO_BITS) : (uint32_t)(7UL - PriorityGroupTmp);
 8100eec:	69fb      	ldr	r3, [r7, #28]
 8100eee:	f1c3 0307 	rsb	r3, r3, #7
 8100ef2:	2b04      	cmp	r3, #4
 8100ef4:	bf28      	it	cs
 8100ef6:	2304      	movcs	r3, #4
 8100ef8:	61bb      	str	r3, [r7, #24]
  SubPriorityBits     = ((PriorityGroupTmp + (uint32_t)(__NVIC_PRIO_BITS)) < (uint32_t)7UL) ? (uint32_t)0UL : (uint32_t)((PriorityGroupTmp - 7UL) + (uint32_t)(__NVIC_PRIO_BITS));
 8100efa:	69fb      	ldr	r3, [r7, #28]
 8100efc:	3304      	adds	r3, #4
 8100efe:	2b06      	cmp	r3, #6
 8100f00:	d902      	bls.n	8100f08 <NVIC_EncodePriority+0x30>
 8100f02:	69fb      	ldr	r3, [r7, #28]
 8100f04:	3b03      	subs	r3, #3
 8100f06:	e000      	b.n	8100f0a <NVIC_EncodePriority+0x32>
 8100f08:	2300      	movs	r3, #0
 8100f0a:	617b      	str	r3, [r7, #20]

  return (
           ((PreemptPriority & (uint32_t)((1UL << (PreemptPriorityBits)) - 1UL)) << SubPriorityBits) |
 8100f0c:	f04f 32ff 	mov.w	r2, #4294967295
 8100f10:	69bb      	ldr	r3, [r7, #24]
 8100f12:	fa02 f303 	lsl.w	r3, r2, r3
 8100f16:	43da      	mvns	r2, r3
 8100f18:	68bb      	ldr	r3, [r7, #8]
 8100f1a:	401a      	ands	r2, r3
 8100f1c:	697b      	ldr	r3, [r7, #20]
 8100f1e:	409a      	lsls	r2, r3
           ((SubPriority     & (uint32_t)((1UL << (SubPriorityBits    )) - 1UL)))
 8100f20:	f04f 31ff 	mov.w	r1, #4294967295
 8100f24:	697b      	ldr	r3, [r7, #20]
 8100f26:	fa01 f303 	lsl.w	r3, r1, r3
 8100f2a:	43d9      	mvns	r1, r3
 8100f2c:	687b      	ldr	r3, [r7, #4]
 8100f2e:	400b      	ands	r3, r1
           ((PreemptPriority & (uint32_t)((1UL << (PreemptPriorityBits)) - 1UL)) << SubPriorityBits) |
 8100f30:	4313      	orrs	r3, r2
         );
}
 8100f32:	4618      	mov	r0, r3
 8100f34:	3724      	adds	r7, #36	; 0x24
 8100f36:	46bd      	mov	sp, r7
 8100f38:	f85d 7b04 	ldr.w	r7, [sp], #4
 8100f3c:	4770      	bx	lr
	...

08100f40 <SysTick_Config>:
  \note    When the variable <b>__Vendor_SysTickConfig</b> is set to 1, then the
           function <b>SysTick_Config</b> is not included. In this case, the file <b><i>device</i>.h</b>
           must contain a vendor-specific implementation of this function.
 */
__STATIC_INLINE uint32_t SysTick_Config(uint32_t ticks)
{
 8100f40:	b580      	push	{r7, lr}
 8100f42:	b082      	sub	sp, #8
 8100f44:	af00      	add	r7, sp, #0
 8100f46:	6078      	str	r0, [r7, #4]
  if ((ticks - 1UL) > SysTick_LOAD_RELOAD_Msk)
 8100f48:	687b      	ldr	r3, [r7, #4]
 8100f4a:	3b01      	subs	r3, #1
 8100f4c:	f1b3 7f80 	cmp.w	r3, #16777216	; 0x1000000
 8100f50:	d301      	bcc.n	8100f56 <SysTick_Config+0x16>
  {
    return (1UL);                                                   /* Reload value impossible */
 8100f52:	2301      	movs	r3, #1
 8100f54:	e00f      	b.n	8100f76 <SysTick_Config+0x36>
  }

  SysTick->LOAD  = (uint32_t)(ticks - 1UL);                         /* set reload register */
 8100f56:	4a0a      	ldr	r2, [pc, #40]	; (8100f80 <SysTick_Config+0x40>)
 8100f58:	687b      	ldr	r3, [r7, #4]
 8100f5a:	3b01      	subs	r3, #1
 8100f5c:	6053      	str	r3, [r2, #4]
  NVIC_SetPriority (SysTick_IRQn, (1UL << __NVIC_PRIO_BITS) - 1UL); /* set Priority for Systick Interrupt */
 8100f5e:	210f      	movs	r1, #15
 8100f60:	f04f 30ff 	mov.w	r0, #4294967295
 8100f64:	f7ff ff8e 	bl	8100e84 <__NVIC_SetPriority>
  SysTick->VAL   = 0UL;                                             /* Load the SysTick Counter Value */
 8100f68:	4b05      	ldr	r3, [pc, #20]	; (8100f80 <SysTick_Config+0x40>)
 8100f6a:	2200      	movs	r2, #0
 8100f6c:	609a      	str	r2, [r3, #8]
  SysTick->CTRL  = SysTick_CTRL_CLKSOURCE_Msk |
 8100f6e:	4b04      	ldr	r3, [pc, #16]	; (8100f80 <SysTick_Config+0x40>)
 8100f70:	2207      	movs	r2, #7
 8100f72:	601a      	str	r2, [r3, #0]
                   SysTick_CTRL_TICKINT_Msk   |
                   SysTick_CTRL_ENABLE_Msk;                         /* Enable SysTick IRQ and SysTick Timer */
  return (0UL);                                                     /* Function successful */
 8100f74:	2300      	movs	r3, #0
}
 8100f76:	4618      	mov	r0, r3
 8100f78:	3708      	adds	r7, #8
 8100f7a:	46bd      	mov	sp, r7
 8100f7c:	bd80      	pop	{r7, pc}
 8100f7e:	bf00      	nop
 8100f80:	e000e010 	.word	0xe000e010

08100f84 <HAL_NVIC_SetPriorityGrouping>:
  * @note   When the NVIC_PriorityGroup_0 is selected, IRQ preemption is no more possible.
  *         The pending IRQ priority will be managed only by the subpriority.
  * @retval None
  */
void HAL_NVIC_SetPriorityGrouping(uint32_t PriorityGroup)
{
 8100f84:	b580      	push	{r7, lr}
 8100f86:	b082      	sub	sp, #8
 8100f88:	af00      	add	r7, sp, #0
 8100f8a:	6078      	str	r0, [r7, #4]
  /* Check the parameters */
  assert_param(IS_NVIC_PRIORITY_GROUP(PriorityGroup));

  /* Set the PRIGROUP[10:8] bits according to the PriorityGroup parameter value */
  NVIC_SetPriorityGrouping(PriorityGroup);
 8100f8c:	6878      	ldr	r0, [r7, #4]
 8100f8e:	f7ff ff29 	bl	8100de4 <__NVIC_SetPriorityGrouping>
}
 8100f92:	bf00      	nop
 8100f94:	3708      	adds	r7, #8
 8100f96:	46bd      	mov	sp, r7
 8100f98:	bd80      	pop	{r7, pc}

08100f9a <HAL_NVIC_SetPriority>:
  *         This parameter can be a value between 0 and 15
  *         A lower priority value indicates a higher priority.
  * @retval None
  */
void HAL_NVIC_SetPriority(IRQn_Type IRQn, uint32_t PreemptPriority, uint32_t SubPriority)
{
 8100f9a:	b580      	push	{r7, lr}
 8100f9c:	b086      	sub	sp, #24
 8100f9e:	af00      	add	r7, sp, #0
 8100fa0:	4603      	mov	r3, r0
 8100fa2:	60b9      	str	r1, [r7, #8]
 8100fa4:	607a      	str	r2, [r7, #4]
 8100fa6:	81fb      	strh	r3, [r7, #14]

  /* Check the parameters */
  assert_param(IS_NVIC_SUB_PRIORITY(SubPriority));
  assert_param(IS_NVIC_PREEMPTION_PRIORITY(PreemptPriority));

  prioritygroup = NVIC_GetPriorityGrouping();
 8100fa8:	f7ff ff40 	bl	8100e2c <__NVIC_GetPriorityGrouping>
 8100fac:	6178      	str	r0, [r7, #20]

  NVIC_SetPriority(IRQn, NVIC_EncodePriority(prioritygroup, PreemptPriority, SubPriority));
 8100fae:	687a      	ldr	r2, [r7, #4]
 8100fb0:	68b9      	ldr	r1, [r7, #8]
 8100fb2:	6978      	ldr	r0, [r7, #20]
 8100fb4:	f7ff ff90 	bl	8100ed8 <NVIC_EncodePriority>
 8100fb8:	4602      	mov	r2, r0
 8100fba:	f9b7 300e 	ldrsh.w	r3, [r7, #14]
 8100fbe:	4611      	mov	r1, r2
 8100fc0:	4618      	mov	r0, r3
 8100fc2:	f7ff ff5f 	bl	8100e84 <__NVIC_SetPriority>
}
 8100fc6:	bf00      	nop
 8100fc8:	3718      	adds	r7, #24
 8100fca:	46bd      	mov	sp, r7
 8100fcc:	bd80      	pop	{r7, pc}

08100fce <HAL_NVIC_EnableIRQ>:
  *         This parameter can be an enumerator of IRQn_Type enumeration
  *         (For the complete STM32 Devices IRQ Channels list, please refer to the appropriate CMSIS device file (stm32h7xxxx.h))
  * @retval None
  */
void HAL_NVIC_EnableIRQ(IRQn_Type IRQn)
{
 8100fce:	b580      	push	{r7, lr}
 8100fd0:	b082      	sub	sp, #8
 8100fd2:	af00      	add	r7, sp, #0
 8100fd4:	4603      	mov	r3, r0
 8100fd6:	80fb      	strh	r3, [r7, #6]
  /* Check the parameters */
  assert_param(IS_NVIC_DEVICE_IRQ(IRQn));

  /* Enable interrupt */
  NVIC_EnableIRQ(IRQn);
 8100fd8:	f9b7 3006 	ldrsh.w	r3, [r7, #6]
 8100fdc:	4618      	mov	r0, r3
 8100fde:	f7ff ff33 	bl	8100e48 <__NVIC_EnableIRQ>
}
 8100fe2:	bf00      	nop
 8100fe4:	3708      	adds	r7, #8
 8100fe6:	46bd      	mov	sp, r7
 8100fe8:	bd80      	pop	{r7, pc}

08100fea <HAL_SYSTICK_Config>:
  * @param  TicksNumb Specifies the ticks Number of ticks between two interrupts.
  * @retval status   - 0  Function succeeded.
  *                  - 1  Function failed.
  */
uint32_t HAL_SYSTICK_Config(uint32_t TicksNumb)
{
 8100fea:	b580      	push	{r7, lr}
 8100fec:	b082      	sub	sp, #8
 8100fee:	af00      	add	r7, sp, #0
 8100ff0:	6078      	str	r0, [r7, #4]
   return SysTick_Config(TicksNumb);
 8100ff2:	6878      	ldr	r0, [r7, #4]
 8100ff4:	f7ff ffa4 	bl	8100f40 <SysTick_Config>
 8100ff8:	4603      	mov	r3, r0
}
 8100ffa:	4618      	mov	r0, r3
 8100ffc:	3708      	adds	r7, #8
 8100ffe:	46bd      	mov	sp, r7
 8101000:	bd80      	pop	{r7, pc}
	...

08101004 <HAL_GetCurrentCPUID>:
/**
  * @brief  Returns the current CPU ID.
  * @retval CPU identifier
  */
uint32_t HAL_GetCurrentCPUID(void)
{
 8101004:	b480      	push	{r7}
 8101006:	af00      	add	r7, sp, #0
  if (((SCB->CPUID & 0x000000F0U) >> 4 )== 0x7U)
 8101008:	4b07      	ldr	r3, [pc, #28]	; (8101028 <HAL_GetCurrentCPUID+0x24>)
 810100a:	681b      	ldr	r3, [r3, #0]
 810100c:	091b      	lsrs	r3, r3, #4
 810100e:	f003 030f 	and.w	r3, r3, #15
 8101012:	2b07      	cmp	r3, #7
 8101014:	d101      	bne.n	810101a <HAL_GetCurrentCPUID+0x16>
  {
    return  CM7_CPUID;
 8101016:	2303      	movs	r3, #3
 8101018:	e000      	b.n	810101c <HAL_GetCurrentCPUID+0x18>
  }
  else
  {
    return CM4_CPUID;
 810101a:	2301      	movs	r3, #1
  }
}
 810101c:	4618      	mov	r0, r3
 810101e:	46bd      	mov	sp, r7
 8101020:	f85d 7b04 	ldr.w	r7, [sp], #4
 8101024:	4770      	bx	lr
 8101026:	bf00      	nop
 8101028:	e000ed00 	.word	0xe000ed00

0810102c <HAL_GPIO_Init>:
  * @param  GPIO_Init: pointer to a GPIO_InitTypeDef structure that contains
  *         the configuration information for the specified GPIO peripheral.
  * @retval None
  */
void HAL_GPIO_Init(GPIO_TypeDef  *GPIOx, GPIO_InitTypeDef *GPIO_Init)
{
 810102c:	b480      	push	{r7}
 810102e:	b089      	sub	sp, #36	; 0x24
 8101030:	af00      	add	r7, sp, #0
 8101032:	6078      	str	r0, [r7, #4]
 8101034:	6039      	str	r1, [r7, #0]
  uint32_t position = 0x00U;
 8101036:	2300      	movs	r3, #0
 8101038:	61fb      	str	r3, [r7, #28]
  uint32_t iocurrent;
  uint32_t temp;
  EXTI_Core_TypeDef *EXTI_CurrentCPU;

#if defined(DUAL_CORE) && defined(CORE_CM4)
  EXTI_CurrentCPU = EXTI_D2; /* EXTI for CM4 CPU */
 810103a:	4b89      	ldr	r3, [pc, #548]	; (8101260 <HAL_GPIO_Init+0x234>)
 810103c:	617b      	str	r3, [r7, #20]
  assert_param(IS_GPIO_ALL_INSTANCE(GPIOx));
  assert_param(IS_GPIO_PIN(GPIO_Init->Pin));
  assert_param(IS_GPIO_MODE(GPIO_Init->Mode));

  /* Configure the port pins */
  while (((GPIO_Init->Pin) >> position) != 0x00U)
 810103e:	e194      	b.n	810136a <HAL_GPIO_Init+0x33e>
  {
    /* Get current io position */
    iocurrent = (GPIO_Init->Pin) & (1UL << position);
 8101040:	683b      	ldr	r3, [r7, #0]
 8101042:	681a      	ldr	r2, [r3, #0]
 8101044:	2101      	movs	r1, #1
 8101046:	69fb      	ldr	r3, [r7, #28]
 8101048:	fa01 f303 	lsl.w	r3, r1, r3
 810104c:	4013      	ands	r3, r2
 810104e:	613b      	str	r3, [r7, #16]

    if (iocurrent != 0x00U)
 8101050:	693b      	ldr	r3, [r7, #16]
 8101052:	2b00      	cmp	r3, #0
 8101054:	f000 8186 	beq.w	8101364 <HAL_GPIO_Init+0x338>
    {
      /*--------------------- GPIO Mode Configuration ------------------------*/
      /* In case of Output or Alternate function mode selection */
      if (((GPIO_Init->Mode & GPIO_MODE) == MODE_OUTPUT) || ((GPIO_Init->Mode & GPIO_MODE) == MODE_AF))
 8101058:	683b      	ldr	r3, [r7, #0]
 810105a:	685b      	ldr	r3, [r3, #4]
 810105c:	f003 0303 	and.w	r3, r3, #3
 8101060:	2b01      	cmp	r3, #1
 8101062:	d005      	beq.n	8101070 <HAL_GPIO_Init+0x44>
 8101064:	683b      	ldr	r3, [r7, #0]
 8101066:	685b      	ldr	r3, [r3, #4]
 8101068:	f003 0303 	and.w	r3, r3, #3
 810106c:	2b02      	cmp	r3, #2
 810106e:	d130      	bne.n	81010d2 <HAL_GPIO_Init+0xa6>
      {
        /* Check the Speed parameter */
        assert_param(IS_GPIO_SPEED(GPIO_Init->Speed));

        /* Configure the IO Speed */
        temp = GPIOx->OSPEEDR;
 8101070:	687b      	ldr	r3, [r7, #4]
 8101072:	689b      	ldr	r3, [r3, #8]
 8101074:	61bb      	str	r3, [r7, #24]
        temp &= ~(GPIO_OSPEEDR_OSPEED0 << (position * 2U));
 8101076:	69fb      	ldr	r3, [r7, #28]
 8101078:	005b      	lsls	r3, r3, #1
 810107a:	2203      	movs	r2, #3
 810107c:	fa02 f303 	lsl.w	r3, r2, r3
 8101080:	43db      	mvns	r3, r3
 8101082:	69ba      	ldr	r2, [r7, #24]
 8101084:	4013      	ands	r3, r2
 8101086:	61bb      	str	r3, [r7, #24]
        temp |= (GPIO_Init->Speed << (position * 2U));
 8101088:	683b      	ldr	r3, [r7, #0]
 810108a:	68da      	ldr	r2, [r3, #12]
 810108c:	69fb      	ldr	r3, [r7, #28]
 810108e:	005b      	lsls	r3, r3, #1
 8101090:	fa02 f303 	lsl.w	r3, r2, r3
 8101094:	69ba      	ldr	r2, [r7, #24]
 8101096:	4313      	orrs	r3, r2
 8101098:	61bb      	str	r3, [r7, #24]
        GPIOx->OSPEEDR = temp;
 810109a:	687b      	ldr	r3, [r7, #4]
 810109c:	69ba      	ldr	r2, [r7, #24]
 810109e:	609a      	str	r2, [r3, #8]

        /* Configure the IO Output Type */
        temp = GPIOx->OTYPER;
 81010a0:	687b      	ldr	r3, [r7, #4]
 81010a2:	685b      	ldr	r3, [r3, #4]
 81010a4:	61bb      	str	r3, [r7, #24]
        temp &= ~(GPIO_OTYPER_OT0 << position) ;
 81010a6:	2201      	movs	r2, #1
 81010a8:	69fb      	ldr	r3, [r7, #28]
 81010aa:	fa02 f303 	lsl.w	r3, r2, r3
 81010ae:	43db      	mvns	r3, r3
 81010b0:	69ba      	ldr	r2, [r7, #24]
 81010b2:	4013      	ands	r3, r2
 81010b4:	61bb      	str	r3, [r7, #24]
        temp |= (((GPIO_Init->Mode & OUTPUT_TYPE) >> OUTPUT_TYPE_Pos) << position);
 81010b6:	683b      	ldr	r3, [r7, #0]
 81010b8:	685b      	ldr	r3, [r3, #4]
 81010ba:	091b      	lsrs	r3, r3, #4
 81010bc:	f003 0201 	and.w	r2, r3, #1
 81010c0:	69fb      	ldr	r3, [r7, #28]
 81010c2:	fa02 f303 	lsl.w	r3, r2, r3
 81010c6:	69ba      	ldr	r2, [r7, #24]
 81010c8:	4313      	orrs	r3, r2
 81010ca:	61bb      	str	r3, [r7, #24]
        GPIOx->OTYPER = temp;
 81010cc:	687b      	ldr	r3, [r7, #4]
 81010ce:	69ba      	ldr	r2, [r7, #24]
 81010d0:	605a      	str	r2, [r3, #4]
      }

      if ((GPIO_Init->Mode & GPIO_MODE) != MODE_ANALOG)
 81010d2:	683b      	ldr	r3, [r7, #0]
 81010d4:	685b      	ldr	r3, [r3, #4]
 81010d6:	f003 0303 	and.w	r3, r3, #3
 81010da:	2b03      	cmp	r3, #3
 81010dc:	d017      	beq.n	810110e <HAL_GPIO_Init+0xe2>
      {
       /* Check the Pull parameter */
       assert_param(IS_GPIO_PULL(GPIO_Init->Pull));

      /* Activate the Pull-up or Pull down resistor for the current IO */
      temp = GPIOx->PUPDR;
 81010de:	687b      	ldr	r3, [r7, #4]
 81010e0:	68db      	ldr	r3, [r3, #12]
 81010e2:	61bb      	str	r3, [r7, #24]
      temp &= ~(GPIO_PUPDR_PUPD0 << (position * 2U));
 81010e4:	69fb      	ldr	r3, [r7, #28]
 81010e6:	005b      	lsls	r3, r3, #1
 81010e8:	2203      	movs	r2, #3
 81010ea:	fa02 f303 	lsl.w	r3, r2, r3
 81010ee:	43db      	mvns	r3, r3
 81010f0:	69ba      	ldr	r2, [r7, #24]
 81010f2:	4013      	ands	r3, r2
 81010f4:	61bb      	str	r3, [r7, #24]
      temp |= ((GPIO_Init->Pull) << (position * 2U));
 81010f6:	683b      	ldr	r3, [r7, #0]
 81010f8:	689a      	ldr	r2, [r3, #8]
 81010fa:	69fb      	ldr	r3, [r7, #28]
 81010fc:	005b      	lsls	r3, r3, #1
 81010fe:	fa02 f303 	lsl.w	r3, r2, r3
 8101102:	69ba      	ldr	r2, [r7, #24]
 8101104:	4313      	orrs	r3, r2
 8101106:	61bb      	str	r3, [r7, #24]
      GPIOx->PUPDR = temp;
 8101108:	687b      	ldr	r3, [r7, #4]
 810110a:	69ba      	ldr	r2, [r7, #24]
 810110c:	60da      	str	r2, [r3, #12]
      }

      /* In case of Alternate function mode selection */
      if ((GPIO_Init->Mode & GPIO_MODE) == MODE_AF)
 810110e:	683b      	ldr	r3, [r7, #0]
 8101110:	685b      	ldr	r3, [r3, #4]
 8101112:	f003 0303 	and.w	r3, r3, #3
 8101116:	2b02      	cmp	r3, #2
 8101118:	d123      	bne.n	8101162 <HAL_GPIO_Init+0x136>
        /* Check the Alternate function parameters */
        assert_param(IS_GPIO_AF_INSTANCE(GPIOx));
        assert_param(IS_GPIO_AF(GPIO_Init->Alternate));

        /* Configure Alternate function mapped with the current IO */
        temp = GPIOx->AFR[position >> 3U];
 810111a:	69fb      	ldr	r3, [r7, #28]
 810111c:	08da      	lsrs	r2, r3, #3
 810111e:	687b      	ldr	r3, [r7, #4]
 8101120:	3208      	adds	r2, #8
 8101122:	f853 3022 	ldr.w	r3, [r3, r2, lsl #2]
 8101126:	61bb      	str	r3, [r7, #24]
        temp &= ~(0xFU << ((position & 0x07U) * 4U));
 8101128:	69fb      	ldr	r3, [r7, #28]
 810112a:	f003 0307 	and.w	r3, r3, #7
 810112e:	009b      	lsls	r3, r3, #2
 8101130:	220f      	movs	r2, #15
 8101132:	fa02 f303 	lsl.w	r3, r2, r3
 8101136:	43db      	mvns	r3, r3
 8101138:	69ba      	ldr	r2, [r7, #24]
 810113a:	4013      	ands	r3, r2
 810113c:	61bb      	str	r3, [r7, #24]
        temp |= ((GPIO_Init->Alternate) << ((position & 0x07U) * 4U));
 810113e:	683b      	ldr	r3, [r7, #0]
 8101140:	691a      	ldr	r2, [r3, #16]
 8101142:	69fb      	ldr	r3, [r7, #28]
 8101144:	f003 0307 	and.w	r3, r3, #7
 8101148:	009b      	lsls	r3, r3, #2
 810114a:	fa02 f303 	lsl.w	r3, r2, r3
 810114e:	69ba      	ldr	r2, [r7, #24]
 8101150:	4313      	orrs	r3, r2
 8101152:	61bb      	str	r3, [r7, #24]
        GPIOx->AFR[position >> 3U] = temp;
 8101154:	69fb      	ldr	r3, [r7, #28]
 8101156:	08da      	lsrs	r2, r3, #3
 8101158:	687b      	ldr	r3, [r7, #4]
 810115a:	3208      	adds	r2, #8
 810115c:	69b9      	ldr	r1, [r7, #24]
 810115e:	f843 1022 	str.w	r1, [r3, r2, lsl #2]
      }

      /* Configure IO Direction mode (Input, Output, Alternate or Analog) */
      temp = GPIOx->MODER;
 8101162:	687b      	ldr	r3, [r7, #4]
 8101164:	681b      	ldr	r3, [r3, #0]
 8101166:	61bb      	str	r3, [r7, #24]
      temp &= ~(GPIO_MODER_MODE0 << (position * 2U));
 8101168:	69fb      	ldr	r3, [r7, #28]
 810116a:	005b      	lsls	r3, r3, #1
 810116c:	2203      	movs	r2, #3
 810116e:	fa02 f303 	lsl.w	r3, r2, r3
 8101172:	43db      	mvns	r3, r3
 8101174:	69ba      	ldr	r2, [r7, #24]
 8101176:	4013      	ands	r3, r2
 8101178:	61bb      	str	r3, [r7, #24]
      temp |= ((GPIO_Init->Mode & GPIO_MODE) << (position * 2U));
 810117a:	683b      	ldr	r3, [r7, #0]
 810117c:	685b      	ldr	r3, [r3, #4]
 810117e:	f003 0203 	and.w	r2, r3, #3
 8101182:	69fb      	ldr	r3, [r7, #28]
 8101184:	005b      	lsls	r3, r3, #1
 8101186:	fa02 f303 	lsl.w	r3, r2, r3
 810118a:	69ba      	ldr	r2, [r7, #24]
 810118c:	4313      	orrs	r3, r2
 810118e:	61bb      	str	r3, [r7, #24]
      GPIOx->MODER = temp;
 8101190:	687b      	ldr	r3, [r7, #4]
 8101192:	69ba      	ldr	r2, [r7, #24]
 8101194:	601a      	str	r2, [r3, #0]

      /*--------------------- EXTI Mode Configuration ------------------------*/
      /* Configure the External Interrupt or event for the current IO */
      if ((GPIO_Init->Mode & EXTI_MODE) != 0x00U)
 8101196:	683b      	ldr	r3, [r7, #0]
 8101198:	685b      	ldr	r3, [r3, #4]
 810119a:	f403 3340 	and.w	r3, r3, #196608	; 0x30000
 810119e:	2b00      	cmp	r3, #0
 81011a0:	f000 80e0 	beq.w	8101364 <HAL_GPIO_Init+0x338>
      {
        /* Enable SYSCFG Clock */
        __HAL_RCC_SYSCFG_CLK_ENABLE();
 81011a4:	4b2f      	ldr	r3, [pc, #188]	; (8101264 <HAL_GPIO_Init+0x238>)
 81011a6:	f8d3 30f4 	ldr.w	r3, [r3, #244]	; 0xf4
 81011aa:	4a2e      	ldr	r2, [pc, #184]	; (8101264 <HAL_GPIO_Init+0x238>)
 81011ac:	f043 0302 	orr.w	r3, r3, #2
 81011b0:	f8c2 30f4 	str.w	r3, [r2, #244]	; 0xf4
 81011b4:	4b2b      	ldr	r3, [pc, #172]	; (8101264 <HAL_GPIO_Init+0x238>)
 81011b6:	f8d3 30f4 	ldr.w	r3, [r3, #244]	; 0xf4
 81011ba:	f003 0302 	and.w	r3, r3, #2
 81011be:	60fb      	str	r3, [r7, #12]
 81011c0:	68fb      	ldr	r3, [r7, #12]

        temp = SYSCFG->EXTICR[position >> 2U];
 81011c2:	4a29      	ldr	r2, [pc, #164]	; (8101268 <HAL_GPIO_Init+0x23c>)
 81011c4:	69fb      	ldr	r3, [r7, #28]
 81011c6:	089b      	lsrs	r3, r3, #2
 81011c8:	3302      	adds	r3, #2
 81011ca:	f852 3023 	ldr.w	r3, [r2, r3, lsl #2]
 81011ce:	61bb      	str	r3, [r7, #24]
        temp &= ~(0x0FUL << (4U * (position & 0x03U)));
 81011d0:	69fb      	ldr	r3, [r7, #28]
 81011d2:	f003 0303 	and.w	r3, r3, #3
 81011d6:	009b      	lsls	r3, r3, #2
 81011d8:	220f      	movs	r2, #15
 81011da:	fa02 f303 	lsl.w	r3, r2, r3
 81011de:	43db      	mvns	r3, r3
 81011e0:	69ba      	ldr	r2, [r7, #24]
 81011e2:	4013      	ands	r3, r2
 81011e4:	61bb      	str	r3, [r7, #24]
        temp |= (GPIO_GET_INDEX(GPIOx) << (4U * (position & 0x03U)));
 81011e6:	687b      	ldr	r3, [r7, #4]
 81011e8:	4a20      	ldr	r2, [pc, #128]	; (810126c <HAL_GPIO_Init+0x240>)
 81011ea:	4293      	cmp	r3, r2
 81011ec:	d052      	beq.n	8101294 <HAL_GPIO_Init+0x268>
 81011ee:	687b      	ldr	r3, [r7, #4]
 81011f0:	4a1f      	ldr	r2, [pc, #124]	; (8101270 <HAL_GPIO_Init+0x244>)
 81011f2:	4293      	cmp	r3, r2
 81011f4:	d031      	beq.n	810125a <HAL_GPIO_Init+0x22e>
 81011f6:	687b      	ldr	r3, [r7, #4]
 81011f8:	4a1e      	ldr	r2, [pc, #120]	; (8101274 <HAL_GPIO_Init+0x248>)
 81011fa:	4293      	cmp	r3, r2
 81011fc:	d02b      	beq.n	8101256 <HAL_GPIO_Init+0x22a>
 81011fe:	687b      	ldr	r3, [r7, #4]
 8101200:	4a1d      	ldr	r2, [pc, #116]	; (8101278 <HAL_GPIO_Init+0x24c>)
 8101202:	4293      	cmp	r3, r2
 8101204:	d025      	beq.n	8101252 <HAL_GPIO_Init+0x226>
 8101206:	687b      	ldr	r3, [r7, #4]
 8101208:	4a1c      	ldr	r2, [pc, #112]	; (810127c <HAL_GPIO_Init+0x250>)
 810120a:	4293      	cmp	r3, r2
 810120c:	d01f      	beq.n	810124e <HAL_GPIO_Init+0x222>
 810120e:	687b      	ldr	r3, [r7, #4]
 8101210:	4a1b      	ldr	r2, [pc, #108]	; (8101280 <HAL_GPIO_Init+0x254>)
 8101212:	4293      	cmp	r3, r2
 8101214:	d019      	beq.n	810124a <HAL_GPIO_Init+0x21e>
 8101216:	687b      	ldr	r3, [r7, #4]
 8101218:	4a1a      	ldr	r2, [pc, #104]	; (8101284 <HAL_GPIO_Init+0x258>)
 810121a:	4293      	cmp	r3, r2
 810121c:	d013      	beq.n	8101246 <HAL_GPIO_Init+0x21a>
 810121e:	687b      	ldr	r3, [r7, #4]
 8101220:	4a19      	ldr	r2, [pc, #100]	; (8101288 <HAL_GPIO_Init+0x25c>)
 8101222:	4293      	cmp	r3, r2
 8101224:	d00d      	beq.n	8101242 <HAL_GPIO_Init+0x216>
 8101226:	687b      	ldr	r3, [r7, #4]
 8101228:	4a18      	ldr	r2, [pc, #96]	; (810128c <HAL_GPIO_Init+0x260>)
 810122a:	4293      	cmp	r3, r2
 810122c:	d007      	beq.n	810123e <HAL_GPIO_Init+0x212>
 810122e:	687b      	ldr	r3, [r7, #4]
 8101230:	4a17      	ldr	r2, [pc, #92]	; (8101290 <HAL_GPIO_Init+0x264>)
 8101232:	4293      	cmp	r3, r2
 8101234:	d101      	bne.n	810123a <HAL_GPIO_Init+0x20e>
 8101236:	2309      	movs	r3, #9
 8101238:	e02d      	b.n	8101296 <HAL_GPIO_Init+0x26a>
 810123a:	230a      	movs	r3, #10
 810123c:	e02b      	b.n	8101296 <HAL_GPIO_Init+0x26a>
 810123e:	2308      	movs	r3, #8
 8101240:	e029      	b.n	8101296 <HAL_GPIO_Init+0x26a>
 8101242:	2307      	movs	r3, #7
 8101244:	e027      	b.n	8101296 <HAL_GPIO_Init+0x26a>
 8101246:	2306      	movs	r3, #6
 8101248:	e025      	b.n	8101296 <HAL_GPIO_Init+0x26a>
 810124a:	2305      	movs	r3, #5
 810124c:	e023      	b.n	8101296 <HAL_GPIO_Init+0x26a>
 810124e:	2304      	movs	r3, #4
 8101250:	e021      	b.n	8101296 <HAL_GPIO_Init+0x26a>
 8101252:	2303      	movs	r3, #3
 8101254:	e01f      	b.n	8101296 <HAL_GPIO_Init+0x26a>
 8101256:	2302      	movs	r3, #2
 8101258:	e01d      	b.n	8101296 <HAL_GPIO_Init+0x26a>
 810125a:	2301      	movs	r3, #1
 810125c:	e01b      	b.n	8101296 <HAL_GPIO_Init+0x26a>
 810125e:	bf00      	nop
 8101260:	580000c0 	.word	0x580000c0
 8101264:	58024400 	.word	0x58024400
 8101268:	58000400 	.word	0x58000400
 810126c:	58020000 	.word	0x58020000
 8101270:	58020400 	.word	0x58020400
 8101274:	58020800 	.word	0x58020800
 8101278:	58020c00 	.word	0x58020c00
 810127c:	58021000 	.word	0x58021000
 8101280:	58021400 	.word	0x58021400
 8101284:	58021800 	.word	0x58021800
 8101288:	58021c00 	.word	0x58021c00
 810128c:	58022000 	.word	0x58022000
 8101290:	58022400 	.word	0x58022400
 8101294:	2300      	movs	r3, #0
 8101296:	69fa      	ldr	r2, [r7, #28]
 8101298:	f002 0203 	and.w	r2, r2, #3
 810129c:	0092      	lsls	r2, r2, #2
 810129e:	4093      	lsls	r3, r2
 81012a0:	69ba      	ldr	r2, [r7, #24]
 81012a2:	4313      	orrs	r3, r2
 81012a4:	61bb      	str	r3, [r7, #24]
        SYSCFG->EXTICR[position >> 2U] = temp;
 81012a6:	4938      	ldr	r1, [pc, #224]	; (8101388 <HAL_GPIO_Init+0x35c>)
 81012a8:	69fb      	ldr	r3, [r7, #28]
 81012aa:	089b      	lsrs	r3, r3, #2
 81012ac:	3302      	adds	r3, #2
 81012ae:	69ba      	ldr	r2, [r7, #24]
 81012b0:	f841 2023 	str.w	r2, [r1, r3, lsl #2]

        /* Clear Rising Falling edge configuration */
        temp = EXTI->RTSR1;
 81012b4:	f04f 43b0 	mov.w	r3, #1476395008	; 0x58000000
 81012b8:	681b      	ldr	r3, [r3, #0]
 81012ba:	61bb      	str	r3, [r7, #24]
        temp &= ~(iocurrent);
 81012bc:	693b      	ldr	r3, [r7, #16]
 81012be:	43db      	mvns	r3, r3
 81012c0:	69ba      	ldr	r2, [r7, #24]
 81012c2:	4013      	ands	r3, r2
 81012c4:	61bb      	str	r3, [r7, #24]
        if ((GPIO_Init->Mode & TRIGGER_RISING) != 0x00U)
 81012c6:	683b      	ldr	r3, [r7, #0]
 81012c8:	685b      	ldr	r3, [r3, #4]
 81012ca:	f403 1380 	and.w	r3, r3, #1048576	; 0x100000
 81012ce:	2b00      	cmp	r3, #0
 81012d0:	d003      	beq.n	81012da <HAL_GPIO_Init+0x2ae>
        {
          temp |= iocurrent;
 81012d2:	69ba      	ldr	r2, [r7, #24]
 81012d4:	693b      	ldr	r3, [r7, #16]
 81012d6:	4313      	orrs	r3, r2
 81012d8:	61bb      	str	r3, [r7, #24]
        }
        EXTI->RTSR1 = temp;
 81012da:	f04f 42b0 	mov.w	r2, #1476395008	; 0x58000000
 81012de:	69bb      	ldr	r3, [r7, #24]
 81012e0:	6013      	str	r3, [r2, #0]

        temp = EXTI->FTSR1;
 81012e2:	f04f 43b0 	mov.w	r3, #1476395008	; 0x58000000
 81012e6:	685b      	ldr	r3, [r3, #4]
 81012e8:	61bb      	str	r3, [r7, #24]
        temp &= ~(iocurrent);
 81012ea:	693b      	ldr	r3, [r7, #16]
 81012ec:	43db      	mvns	r3, r3
 81012ee:	69ba      	ldr	r2, [r7, #24]
 81012f0:	4013      	ands	r3, r2
 81012f2:	61bb      	str	r3, [r7, #24]
        if ((GPIO_Init->Mode & TRIGGER_FALLING) != 0x00U)
 81012f4:	683b      	ldr	r3, [r7, #0]
 81012f6:	685b      	ldr	r3, [r3, #4]
 81012f8:	f403 1300 	and.w	r3, r3, #2097152	; 0x200000
 81012fc:	2b00      	cmp	r3, #0
 81012fe:	d003      	beq.n	8101308 <HAL_GPIO_Init+0x2dc>
        {
          temp |= iocurrent;
 8101300:	69ba      	ldr	r2, [r7, #24]
 8101302:	693b      	ldr	r3, [r7, #16]
 8101304:	4313      	orrs	r3, r2
 8101306:	61bb      	str	r3, [r7, #24]
        }
        EXTI->FTSR1 = temp;
 8101308:	f04f 42b0 	mov.w	r2, #1476395008	; 0x58000000
 810130c:	69bb      	ldr	r3, [r7, #24]
 810130e:	6053      	str	r3, [r2, #4]

        temp = EXTI_CurrentCPU->EMR1;
 8101310:	697b      	ldr	r3, [r7, #20]
 8101312:	685b      	ldr	r3, [r3, #4]
 8101314:	61bb      	str	r3, [r7, #24]
        temp &= ~(iocurrent);
 8101316:	693b      	ldr	r3, [r7, #16]
 8101318:	43db      	mvns	r3, r3
 810131a:	69ba      	ldr	r2, [r7, #24]
 810131c:	4013      	ands	r3, r2
 810131e:	61bb      	str	r3, [r7, #24]
        if ((GPIO_Init->Mode & EXTI_EVT) != 0x00U)
 8101320:	683b      	ldr	r3, [r7, #0]
 8101322:	685b      	ldr	r3, [r3, #4]
 8101324:	f403 3300 	and.w	r3, r3, #131072	; 0x20000
 8101328:	2b00      	cmp	r3, #0
 810132a:	d003      	beq.n	8101334 <HAL_GPIO_Init+0x308>
        {
          temp |= iocurrent;
 810132c:	69ba      	ldr	r2, [r7, #24]
 810132e:	693b      	ldr	r3, [r7, #16]
 8101330:	4313      	orrs	r3, r2
 8101332:	61bb      	str	r3, [r7, #24]
        }
        EXTI_CurrentCPU->EMR1 = temp;
 8101334:	697b      	ldr	r3, [r7, #20]
 8101336:	69ba      	ldr	r2, [r7, #24]
 8101338:	605a      	str	r2, [r3, #4]

        /* Clear EXTI line configuration */
        temp = EXTI_CurrentCPU->IMR1;
 810133a:	697b      	ldr	r3, [r7, #20]
 810133c:	681b      	ldr	r3, [r3, #0]
 810133e:	61bb      	str	r3, [r7, #24]
        temp &= ~(iocurrent);
 8101340:	693b      	ldr	r3, [r7, #16]
 8101342:	43db      	mvns	r3, r3
 8101344:	69ba      	ldr	r2, [r7, #24]
 8101346:	4013      	ands	r3, r2
 8101348:	61bb      	str	r3, [r7, #24]
        if ((GPIO_Init->Mode & EXTI_IT) != 0x00U)
 810134a:	683b      	ldr	r3, [r7, #0]
 810134c:	685b      	ldr	r3, [r3, #4]
 810134e:	f403 3380 	and.w	r3, r3, #65536	; 0x10000
 8101352:	2b00      	cmp	r3, #0
 8101354:	d003      	beq.n	810135e <HAL_GPIO_Init+0x332>
        {
          temp |= iocurrent;
 8101356:	69ba      	ldr	r2, [r7, #24]
 8101358:	693b      	ldr	r3, [r7, #16]
 810135a:	4313      	orrs	r3, r2
 810135c:	61bb      	str	r3, [r7, #24]
        }
        EXTI_CurrentCPU->IMR1 = temp;
 810135e:	697b      	ldr	r3, [r7, #20]
 8101360:	69ba      	ldr	r2, [r7, #24]
 8101362:	601a      	str	r2, [r3, #0]
      }
    }

    position++;
 8101364:	69fb      	ldr	r3, [r7, #28]
 8101366:	3301      	adds	r3, #1
 8101368:	61fb      	str	r3, [r7, #28]
  while (((GPIO_Init->Pin) >> position) != 0x00U)
 810136a:	683b      	ldr	r3, [r7, #0]
 810136c:	681a      	ldr	r2, [r3, #0]
 810136e:	69fb      	ldr	r3, [r7, #28]
 8101370:	fa22 f303 	lsr.w	r3, r2, r3
 8101374:	2b00      	cmp	r3, #0
 8101376:	f47f ae63 	bne.w	8101040 <HAL_GPIO_Init+0x14>
  }
}
 810137a:	bf00      	nop
 810137c:	bf00      	nop
 810137e:	3724      	adds	r7, #36	; 0x24
 8101380:	46bd      	mov	sp, r7
 8101382:	f85d 7b04 	ldr.w	r7, [sp], #4
 8101386:	4770      	bx	lr
 8101388:	58000400 	.word	0x58000400

0810138c <HAL_HSEM_FastTake>:
  * @brief  Fast Take a semaphore with 1 Step mode.
  * @param  SemID: semaphore ID from 0 to 31
  * @retval HAL status
  */
HAL_StatusTypeDef HAL_HSEM_FastTake(uint32_t SemID)
{
 810138c:	b480      	push	{r7}
 810138e:	b083      	sub	sp, #12
 8101390:	af00      	add	r7, sp, #0
 8101392:	6078      	str	r0, [r7, #4]
    /*take success when MasterID match and take bit set*/
    return HAL_OK;
  }
#else  
  /* Read the RLR register to take the semaphore */
  if (HSEM->RLR[SemID] == (HSEM_CR_COREID_CURRENT | HSEM_RLR_LOCK))
 8101394:	4a08      	ldr	r2, [pc, #32]	; (81013b8 <HAL_HSEM_FastTake+0x2c>)
 8101396:	687b      	ldr	r3, [r7, #4]
 8101398:	3320      	adds	r3, #32
 810139a:	f852 3023 	ldr.w	r3, [r2, r3, lsl #2]
 810139e:	4a07      	ldr	r2, [pc, #28]	; (81013bc <HAL_HSEM_FastTake+0x30>)
 81013a0:	4293      	cmp	r3, r2
 81013a2:	d101      	bne.n	81013a8 <HAL_HSEM_FastTake+0x1c>
  {
    /*take success when MasterID match and take bit set*/
    return HAL_OK;
 81013a4:	2300      	movs	r3, #0
 81013a6:	e000      	b.n	81013aa <HAL_HSEM_FastTake+0x1e>
  }
#endif

  /* Semaphore take fails */
  return HAL_ERROR;
 81013a8:	2301      	movs	r3, #1
}
 81013aa:	4618      	mov	r0, r3
 81013ac:	370c      	adds	r7, #12
 81013ae:	46bd      	mov	sp, r7
 81013b0:	f85d 7b04 	ldr.w	r7, [sp], #4
 81013b4:	4770      	bx	lr
 81013b6:	bf00      	nop
 81013b8:	58026400 	.word	0x58026400
 81013bc:	80000100 	.word	0x80000100

081013c0 <HAL_HSEM_Release>:
  * @param  SemID: semaphore ID from 0 to 31
  * @param  ProcessID: Process ID from 0 to 255
  * @retval None
  */
void  HAL_HSEM_Release(uint32_t SemID, uint32_t ProcessID)
{
 81013c0:	b480      	push	{r7}
 81013c2:	b083      	sub	sp, #12
 81013c4:	af00      	add	r7, sp, #0
 81013c6:	6078      	str	r0, [r7, #4]
 81013c8:	6039      	str	r1, [r7, #0]

  /* Clear the semaphore by writing to the R register : the MasterID , the processID and take bit = 0  */
#if  USE_MULTI_CORE_SHARED_CODE != 0U
  HSEM->R[SemID] = (ProcessID | ((HAL_GetCurrentCPUID() << POSITION_VAL(HSEM_R_MASTERID)) & HSEM_R_MASTERID));
#else
  HSEM->R[SemID] = (ProcessID | HSEM_CR_COREID_CURRENT);
 81013ca:	4906      	ldr	r1, [pc, #24]	; (81013e4 <HAL_HSEM_Release+0x24>)
 81013cc:	683b      	ldr	r3, [r7, #0]
 81013ce:	f443 7280 	orr.w	r2, r3, #256	; 0x100
 81013d2:	687b      	ldr	r3, [r7, #4]
 81013d4:	f841 2023 	str.w	r2, [r1, r3, lsl #2]
#endif

}
 81013d8:	bf00      	nop
 81013da:	370c      	adds	r7, #12
 81013dc:	46bd      	mov	sp, r7
 81013de:	f85d 7b04 	ldr.w	r7, [sp], #4
 81013e2:	4770      	bx	lr
 81013e4:	58026400 	.word	0x58026400

081013e8 <HAL_HSEM_ActivateNotification>:
  * @brief  Activate Semaphore release Notification for a given Semaphores Mask .
  * @param  SemMask: Mask of Released semaphores
  * @retval Semaphore Key
  */
void HAL_HSEM_ActivateNotification(uint32_t SemMask)
{
 81013e8:	b480      	push	{r7}
 81013ea:	b083      	sub	sp, #12
 81013ec:	af00      	add	r7, sp, #0
 81013ee:	6078      	str	r0, [r7, #4]
  {
    /*Use interrupt line 1 for CPU2 Master*/
    HSEM->C2IER |= SemMask;
  }
#else
  HSEM_COMMON->IER |= SemMask;
 81013f0:	4b05      	ldr	r3, [pc, #20]	; (8101408 <HAL_HSEM_ActivateNotification+0x20>)
 81013f2:	681a      	ldr	r2, [r3, #0]
 81013f4:	4904      	ldr	r1, [pc, #16]	; (8101408 <HAL_HSEM_ActivateNotification+0x20>)
 81013f6:	687b      	ldr	r3, [r7, #4]
 81013f8:	4313      	orrs	r3, r2
 81013fa:	600b      	str	r3, [r1, #0]
#endif
}
 81013fc:	bf00      	nop
 81013fe:	370c      	adds	r7, #12
 8101400:	46bd      	mov	sp, r7
 8101402:	f85d 7b04 	ldr.w	r7, [sp], #4
 8101406:	4770      	bx	lr
 8101408:	58026510 	.word	0x58026510

0810140c <HAL_HSEM_IRQHandler>:
/**
  * @brief  This function handles HSEM interrupt request
  * @retval None
  */
void HAL_HSEM_IRQHandler(void)
{
 810140c:	b580      	push	{r7, lr}
 810140e:	b082      	sub	sp, #8
 8101410:	af00      	add	r7, sp, #0
    /*Clear Flags*/
    HSEM->C2ICR = ((uint32_t)statusreg);
  }
#else
  /* Get the list of masked freed semaphores*/
  statusreg = HSEM_COMMON->MISR;
 8101412:	4b0a      	ldr	r3, [pc, #40]	; (810143c <HAL_HSEM_IRQHandler+0x30>)
 8101414:	68db      	ldr	r3, [r3, #12]
 8101416:	607b      	str	r3, [r7, #4]

  /*Disable Interrupts*/
  HSEM_COMMON->IER &= ~((uint32_t)statusreg);
 8101418:	4b08      	ldr	r3, [pc, #32]	; (810143c <HAL_HSEM_IRQHandler+0x30>)
 810141a:	681a      	ldr	r2, [r3, #0]
 810141c:	687b      	ldr	r3, [r7, #4]
 810141e:	43db      	mvns	r3, r3
 8101420:	4906      	ldr	r1, [pc, #24]	; (810143c <HAL_HSEM_IRQHandler+0x30>)
 8101422:	4013      	ands	r3, r2
 8101424:	600b      	str	r3, [r1, #0]

  /*Clear Flags*/
  HSEM_COMMON->ICR = ((uint32_t)statusreg);
 8101426:	4a05      	ldr	r2, [pc, #20]	; (810143c <HAL_HSEM_IRQHandler+0x30>)
 8101428:	687b      	ldr	r3, [r7, #4]
 810142a:	6053      	str	r3, [r2, #4]

#endif
  /* Call FreeCallback */
  HAL_HSEM_FreeCallback(statusreg);
 810142c:	6878      	ldr	r0, [r7, #4]
 810142e:	f005 f8a9 	bl	8106584 <HAL_HSEM_FreeCallback>
}
 8101432:	bf00      	nop
 8101434:	3708      	adds	r7, #8
 8101436:	46bd      	mov	sp, r7
 8101438:	bd80      	pop	{r7, pc}
 810143a:	bf00      	nop
 810143c:	58026510 	.word	0x58026510

08101440 <HAL_PWREx_EnterSTOPMode>:
  *            @arg PWR_D2_DOMAIN : Enter D2 Domain to DSTOP mode.
  *            @arg PWR_D3_DOMAIN : Enter D3/SRD Domain to DSTOP mode.
  * @retval None.
  */
void HAL_PWREx_EnterSTOPMode (uint32_t Regulator, uint8_t STOPEntry, uint32_t Domain)
{
 8101440:	b580      	push	{r7, lr}
 8101442:	b084      	sub	sp, #16
 8101444:	af00      	add	r7, sp, #0
 8101446:	60f8      	str	r0, [r7, #12]
 8101448:	460b      	mov	r3, r1
 810144a:	607a      	str	r2, [r7, #4]
 810144c:	72fb      	strb	r3, [r7, #11]
  assert_param (IS_PWR_REGULATOR (Regulator));
  assert_param (IS_PWR_STOP_ENTRY (STOPEntry));
  assert_param (IS_PWR_DOMAIN (Domain));

  /* Select the regulator state in Stop mode */
  MODIFY_REG (PWR->CR1, PWR_CR1_LPDS, Regulator);
 810144e:	4b37      	ldr	r3, [pc, #220]	; (810152c <HAL_PWREx_EnterSTOPMode+0xec>)
 8101450:	681b      	ldr	r3, [r3, #0]
 8101452:	f023 0201 	bic.w	r2, r3, #1
 8101456:	4935      	ldr	r1, [pc, #212]	; (810152c <HAL_PWREx_EnterSTOPMode+0xec>)
 8101458:	68fb      	ldr	r3, [r7, #12]
 810145a:	4313      	orrs	r3, r2
 810145c:	600b      	str	r3, [r1, #0]

  /* Select the domain Power Down DeepSleep */
  if (Domain == PWR_D1_DOMAIN)
 810145e:	687b      	ldr	r3, [r7, #4]
 8101460:	2b00      	cmp	r3, #0
 8101462:	d123      	bne.n	81014ac <HAL_PWREx_EnterSTOPMode+0x6c>
  {
#if defined (DUAL_CORE)
    /* Check current core */
    if (HAL_GetCurrentCPUID () != CM7_CPUID)
 8101464:	f7ff fdce 	bl	8101004 <HAL_GetCurrentCPUID>
 8101468:	4603      	mov	r3, r0
 810146a:	2b03      	cmp	r3, #3
 810146c:	d158      	bne.n	8101520 <HAL_PWREx_EnterSTOPMode+0xe0>
      return;
    }
#endif /* defined (DUAL_CORE) */

    /* Keep DSTOP mode when D1/CD domain enters Deepsleep */
    CLEAR_BIT (PWR->CPUCR, PWR_CPUCR_PDDS_D1);
 810146e:	4b2f      	ldr	r3, [pc, #188]	; (810152c <HAL_PWREx_EnterSTOPMode+0xec>)
 8101470:	691b      	ldr	r3, [r3, #16]
 8101472:	4a2e      	ldr	r2, [pc, #184]	; (810152c <HAL_PWREx_EnterSTOPMode+0xec>)
 8101474:	f023 0301 	bic.w	r3, r3, #1
 8101478:	6113      	str	r3, [r2, #16]

    /* Set SLEEPDEEP bit of Cortex System Control Register */
    SET_BIT (SCB->SCR, SCB_SCR_SLEEPDEEP_Msk);
 810147a:	4b2d      	ldr	r3, [pc, #180]	; (8101530 <HAL_PWREx_EnterSTOPMode+0xf0>)
 810147c:	691b      	ldr	r3, [r3, #16]
 810147e:	4a2c      	ldr	r2, [pc, #176]	; (8101530 <HAL_PWREx_EnterSTOPMode+0xf0>)
 8101480:	f043 0304 	orr.w	r3, r3, #4
 8101484:	6113      	str	r3, [r2, #16]
  \details Acts as a special kind of Data Memory Barrier.
           It completes when all explicit memory accesses before this instruction complete.
 */
__STATIC_FORCEINLINE void __DSB(void)
{
  __ASM volatile ("dsb 0xF":::"memory");
 8101486:	f3bf 8f4f 	dsb	sy
}
 810148a:	bf00      	nop
  __ASM volatile ("isb 0xF":::"memory");
 810148c:	f3bf 8f6f 	isb	sy
}
 8101490:	bf00      	nop
    /* Ensure that all instructions are done before entering STOP mode */
    __DSB ();
    __ISB ();

    /* Select Stop mode entry */
    if (STOPEntry == PWR_STOPENTRY_WFI)
 8101492:	7afb      	ldrb	r3, [r7, #11]
 8101494:	2b01      	cmp	r3, #1
 8101496:	d101      	bne.n	810149c <HAL_PWREx_EnterSTOPMode+0x5c>
    {
      /* Request Wait For Interrupt */
      __WFI ();
 8101498:	bf30      	wfi
 810149a:	e000      	b.n	810149e <HAL_PWREx_EnterSTOPMode+0x5e>
    }
    else
    {
      /* Request Wait For Event */
      __WFE ();
 810149c:	bf20      	wfe
    }

    /* Clear SLEEPDEEP bit of Cortex-Mx in the System Control Register */
    CLEAR_BIT (SCB->SCR, SCB_SCR_SLEEPDEEP_Msk);
 810149e:	4b24      	ldr	r3, [pc, #144]	; (8101530 <HAL_PWREx_EnterSTOPMode+0xf0>)
 81014a0:	691b      	ldr	r3, [r3, #16]
 81014a2:	4a23      	ldr	r2, [pc, #140]	; (8101530 <HAL_PWREx_EnterSTOPMode+0xf0>)
 81014a4:	f023 0304 	bic.w	r3, r3, #4
 81014a8:	6113      	str	r3, [r2, #16]
 81014aa:	e03c      	b.n	8101526 <HAL_PWREx_EnterSTOPMode+0xe6>
  }
#if defined (PWR_CPUCR_PDDS_D2)
  else if (Domain == PWR_D2_DOMAIN)
 81014ac:	687b      	ldr	r3, [r7, #4]
 81014ae:	2b01      	cmp	r3, #1
 81014b0:	d123      	bne.n	81014fa <HAL_PWREx_EnterSTOPMode+0xba>
  {
#if defined (DUAL_CORE)
    /* Check current core */
    if (HAL_GetCurrentCPUID () != CM4_CPUID)
 81014b2:	f7ff fda7 	bl	8101004 <HAL_GetCurrentCPUID>
 81014b6:	4603      	mov	r3, r0
 81014b8:	2b01      	cmp	r3, #1
 81014ba:	d133      	bne.n	8101524 <HAL_PWREx_EnterSTOPMode+0xe4>
      */
      return;
    }

    /* Keep DSTOP mode when D2 domain enters Deepsleep */
    CLEAR_BIT (PWR->CPU2CR, PWR_CPU2CR_PDDS_D2);
 81014bc:	4b1b      	ldr	r3, [pc, #108]	; (810152c <HAL_PWREx_EnterSTOPMode+0xec>)
 81014be:	695b      	ldr	r3, [r3, #20]
 81014c0:	4a1a      	ldr	r2, [pc, #104]	; (810152c <HAL_PWREx_EnterSTOPMode+0xec>)
 81014c2:	f023 0302 	bic.w	r3, r3, #2
 81014c6:	6153      	str	r3, [r2, #20]

    /* Set SLEEPDEEP bit of Cortex System Control Register */
    SET_BIT (SCB->SCR, SCB_SCR_SLEEPDEEP_Msk);
 81014c8:	4b19      	ldr	r3, [pc, #100]	; (8101530 <HAL_PWREx_EnterSTOPMode+0xf0>)
 81014ca:	691b      	ldr	r3, [r3, #16]
 81014cc:	4a18      	ldr	r2, [pc, #96]	; (8101530 <HAL_PWREx_EnterSTOPMode+0xf0>)
 81014ce:	f043 0304 	orr.w	r3, r3, #4
 81014d2:	6113      	str	r3, [r2, #16]
  __ASM volatile ("dsb 0xF":::"memory");
 81014d4:	f3bf 8f4f 	dsb	sy
}
 81014d8:	bf00      	nop
  __ASM volatile ("isb 0xF":::"memory");
 81014da:	f3bf 8f6f 	isb	sy
}
 81014de:	bf00      	nop
    /* Ensure that all instructions are done before entering STOP mode */
    __DSB ();
    __ISB ();

    /* Select Stop mode entry */
    if (STOPEntry == PWR_STOPENTRY_WFI)
 81014e0:	7afb      	ldrb	r3, [r7, #11]
 81014e2:	2b01      	cmp	r3, #1
 81014e4:	d101      	bne.n	81014ea <HAL_PWREx_EnterSTOPMode+0xaa>
    {
      /* Request Wait For Interrupt */
      __WFI ();
 81014e6:	bf30      	wfi
 81014e8:	e000      	b.n	81014ec <HAL_PWREx_EnterSTOPMode+0xac>
    }
    else
    {
      /* Request Wait For Event */
      __WFE ();
 81014ea:	bf20      	wfe
    }

    /* Clear SLEEPDEEP bit of Cortex-Mx in the System Control Register */
    CLEAR_BIT (SCB->SCR, SCB_SCR_SLEEPDEEP_Msk);
 81014ec:	4b10      	ldr	r3, [pc, #64]	; (8101530 <HAL_PWREx_EnterSTOPMode+0xf0>)
 81014ee:	691b      	ldr	r3, [r3, #16]
 81014f0:	4a0f      	ldr	r2, [pc, #60]	; (8101530 <HAL_PWREx_EnterSTOPMode+0xf0>)
 81014f2:	f023 0304 	bic.w	r3, r3, #4
 81014f6:	6113      	str	r3, [r2, #16]
 81014f8:	e015      	b.n	8101526 <HAL_PWREx_EnterSTOPMode+0xe6>
#endif /* defined (PWR_CPUCR_PDDS_D2) */
  else
  {
#if defined (DUAL_CORE)
    /* Check current core */
    if (HAL_GetCurrentCPUID () == CM7_CPUID)
 81014fa:	f7ff fd83 	bl	8101004 <HAL_GetCurrentCPUID>
 81014fe:	4603      	mov	r3, r0
 8101500:	2b03      	cmp	r3, #3
 8101502:	d106      	bne.n	8101512 <HAL_PWREx_EnterSTOPMode+0xd2>
    {
      /* Keep DSTOP mode when D3 domain enters Deepsleep */
      CLEAR_BIT (PWR->CPUCR, PWR_CPUCR_PDDS_D3);
 8101504:	4b09      	ldr	r3, [pc, #36]	; (810152c <HAL_PWREx_EnterSTOPMode+0xec>)
 8101506:	691b      	ldr	r3, [r3, #16]
 8101508:	4a08      	ldr	r2, [pc, #32]	; (810152c <HAL_PWREx_EnterSTOPMode+0xec>)
 810150a:	f023 0304 	bic.w	r3, r3, #4
 810150e:	6113      	str	r3, [r2, #16]
 8101510:	e009      	b.n	8101526 <HAL_PWREx_EnterSTOPMode+0xe6>
    }
    else
    {
      /* Keep DSTOP mode when D3 domain enters Deepsleep */
      CLEAR_BIT (PWR->CPU2CR, PWR_CPU2CR_PDDS_D3);
 8101512:	4b06      	ldr	r3, [pc, #24]	; (810152c <HAL_PWREx_EnterSTOPMode+0xec>)
 8101514:	695b      	ldr	r3, [r3, #20]
 8101516:	4a05      	ldr	r2, [pc, #20]	; (810152c <HAL_PWREx_EnterSTOPMode+0xec>)
 8101518:	f023 0304 	bic.w	r3, r3, #4
 810151c:	6153      	str	r3, [r2, #20]
 810151e:	e002      	b.n	8101526 <HAL_PWREx_EnterSTOPMode+0xe6>
      return;
 8101520:	bf00      	nop
 8101522:	e000      	b.n	8101526 <HAL_PWREx_EnterSTOPMode+0xe6>
      return;
 8101524:	bf00      	nop
#else
    /* Keep DSTOP mode when D3/SRD domain enters Deepsleep */
    CLEAR_BIT (PWR->CPUCR, PWR_CPUCR_PDDS_D3);
#endif  /* defined (DUAL_CORE) */
  }
}
 8101526:	3710      	adds	r7, #16
 8101528:	46bd      	mov	sp, r7
 810152a:	bd80      	pop	{r7, pc}
 810152c:	58024800 	.word	0x58024800
 8101530:	e000ed00 	.word	0xe000ed00

08101534 <HAL_PWREx_ClearPendingEvent>:
  *         enter low power mode using Wait For Event request.
  * @note   Cortex-M7 must be in CRUN mode when calling this API by Cortex-M4.
  * @retval None.
  */
void HAL_PWREx_ClearPendingEvent (void)
{
 8101534:	b580      	push	{r7, lr}
 8101536:	af00      	add	r7, sp, #0
#if defined (DUAL_CORE)
  /* Check the current Core */
  if (HAL_GetCurrentCPUID () == CM7_CPUID)
 8101538:	f7ff fd64 	bl	8101004 <HAL_GetCurrentCPUID>
 810153c:	4603      	mov	r3, r0
 810153e:	2b03      	cmp	r3, #3
 8101540:	d101      	bne.n	8101546 <HAL_PWREx_ClearPendingEvent+0x12>
  {
    __WFE ();
 8101542:	bf20      	wfe
    __WFE ();
  }
#else
  __WFE ();
#endif /* defined (DUAL_CORE) */
}
 8101544:	e001      	b.n	810154a <HAL_PWREx_ClearPendingEvent+0x16>
    __SEV ();
 8101546:	bf40      	sev
    __WFE ();
 8101548:	bf20      	wfe
}
 810154a:	bf00      	nop
 810154c:	bd80      	pop	{r7, pc}
	...

08101550 <HAL_RCC_GetSysClockFreq>:
  *
  *
  * @retval SYSCLK frequency
  */
uint32_t HAL_RCC_GetSysClockFreq(void)
{
 8101550:	b480      	push	{r7}
 8101552:	b089      	sub	sp, #36	; 0x24
 8101554:	af00      	add	r7, sp, #0
  float_t fracn1, pllvco;
  uint32_t sysclockfreq;

  /* Get SYSCLK source -------------------------------------------------------*/

  switch (RCC->CFGR & RCC_CFGR_SWS)
 8101556:	4bb3      	ldr	r3, [pc, #716]	; (8101824 <HAL_RCC_GetSysClockFreq+0x2d4>)
 8101558:	691b      	ldr	r3, [r3, #16]
 810155a:	f003 0338 	and.w	r3, r3, #56	; 0x38
 810155e:	2b18      	cmp	r3, #24
 8101560:	f200 8155 	bhi.w	810180e <HAL_RCC_GetSysClockFreq+0x2be>
 8101564:	a201      	add	r2, pc, #4	; (adr r2, 810156c <HAL_RCC_GetSysClockFreq+0x1c>)
 8101566:	f852 f023 	ldr.w	pc, [r2, r3, lsl #2]
 810156a:	bf00      	nop
 810156c:	081015d1 	.word	0x081015d1
 8101570:	0810180f 	.word	0x0810180f
 8101574:	0810180f 	.word	0x0810180f
 8101578:	0810180f 	.word	0x0810180f
 810157c:	0810180f 	.word	0x0810180f
 8101580:	0810180f 	.word	0x0810180f
 8101584:	0810180f 	.word	0x0810180f
 8101588:	0810180f 	.word	0x0810180f
 810158c:	081015f7 	.word	0x081015f7
 8101590:	0810180f 	.word	0x0810180f
 8101594:	0810180f 	.word	0x0810180f
 8101598:	0810180f 	.word	0x0810180f
 810159c:	0810180f 	.word	0x0810180f
 81015a0:	0810180f 	.word	0x0810180f
 81015a4:	0810180f 	.word	0x0810180f
 81015a8:	0810180f 	.word	0x0810180f
 81015ac:	081015fd 	.word	0x081015fd
 81015b0:	0810180f 	.word	0x0810180f
 81015b4:	0810180f 	.word	0x0810180f
 81015b8:	0810180f 	.word	0x0810180f
 81015bc:	0810180f 	.word	0x0810180f
 81015c0:	0810180f 	.word	0x0810180f
 81015c4:	0810180f 	.word	0x0810180f
 81015c8:	0810180f 	.word	0x0810180f
 81015cc:	08101603 	.word	0x08101603
  {
  case RCC_CFGR_SWS_HSI:  /* HSI used as system clock source */

   if (__HAL_RCC_GET_FLAG(RCC_FLAG_HSIDIV) != 0U)
 81015d0:	4b94      	ldr	r3, [pc, #592]	; (8101824 <HAL_RCC_GetSysClockFreq+0x2d4>)
 81015d2:	681b      	ldr	r3, [r3, #0]
 81015d4:	f003 0320 	and.w	r3, r3, #32
 81015d8:	2b00      	cmp	r3, #0
 81015da:	d009      	beq.n	81015f0 <HAL_RCC_GetSysClockFreq+0xa0>
      {
        sysclockfreq = (uint32_t) (HSI_VALUE >> (__HAL_RCC_GET_HSI_DIVIDER()>> 3));
 81015dc:	4b91      	ldr	r3, [pc, #580]	; (8101824 <HAL_RCC_GetSysClockFreq+0x2d4>)
 81015de:	681b      	ldr	r3, [r3, #0]
 81015e0:	08db      	lsrs	r3, r3, #3
 81015e2:	f003 0303 	and.w	r3, r3, #3
 81015e6:	4a90      	ldr	r2, [pc, #576]	; (8101828 <HAL_RCC_GetSysClockFreq+0x2d8>)
 81015e8:	fa22 f303 	lsr.w	r3, r2, r3
 81015ec:	61bb      	str	r3, [r7, #24]
      else
      {
        sysclockfreq = (uint32_t) HSI_VALUE;
      }

    break;
 81015ee:	e111      	b.n	8101814 <HAL_RCC_GetSysClockFreq+0x2c4>
        sysclockfreq = (uint32_t) HSI_VALUE;
 81015f0:	4b8d      	ldr	r3, [pc, #564]	; (8101828 <HAL_RCC_GetSysClockFreq+0x2d8>)
 81015f2:	61bb      	str	r3, [r7, #24]
    break;
 81015f4:	e10e      	b.n	8101814 <HAL_RCC_GetSysClockFreq+0x2c4>

  case RCC_CFGR_SWS_CSI:  /* CSI used as system clock  source */
    sysclockfreq = CSI_VALUE;
 81015f6:	4b8d      	ldr	r3, [pc, #564]	; (810182c <HAL_RCC_GetSysClockFreq+0x2dc>)
 81015f8:	61bb      	str	r3, [r7, #24]
    break;
 81015fa:	e10b      	b.n	8101814 <HAL_RCC_GetSysClockFreq+0x2c4>

  case RCC_CFGR_SWS_HSE:  /* HSE used as system clock  source */
    sysclockfreq = HSE_VALUE;
 81015fc:	4b8c      	ldr	r3, [pc, #560]	; (8101830 <HAL_RCC_GetSysClockFreq+0x2e0>)
 81015fe:	61bb      	str	r3, [r7, #24]
    break;
 8101600:	e108      	b.n	8101814 <HAL_RCC_GetSysClockFreq+0x2c4>
  case RCC_CFGR_SWS_PLL1:  /* PLL1 used as system clock  source */

    /* PLL_VCO = (HSE_VALUE or HSI_VALUE or CSI_VALUE/ PLLM) * PLLN
    SYSCLK = PLL_VCO / PLLR
    */
    pllsource = (RCC->PLLCKSELR & RCC_PLLCKSELR_PLLSRC);
 8101602:	4b88      	ldr	r3, [pc, #544]	; (8101824 <HAL_RCC_GetSysClockFreq+0x2d4>)
 8101604:	6a9b      	ldr	r3, [r3, #40]	; 0x28
 8101606:	f003 0303 	and.w	r3, r3, #3
 810160a:	617b      	str	r3, [r7, #20]
    pllm = ((RCC->PLLCKSELR & RCC_PLLCKSELR_DIVM1)>> 4)  ;
 810160c:	4b85      	ldr	r3, [pc, #532]	; (8101824 <HAL_RCC_GetSysClockFreq+0x2d4>)
 810160e:	6a9b      	ldr	r3, [r3, #40]	; 0x28
 8101610:	091b      	lsrs	r3, r3, #4
 8101612:	f003 033f 	and.w	r3, r3, #63	; 0x3f
 8101616:	613b      	str	r3, [r7, #16]
    pllfracen = ((RCC-> PLLCFGR & RCC_PLLCFGR_PLL1FRACEN)>>RCC_PLLCFGR_PLL1FRACEN_Pos);
 8101618:	4b82      	ldr	r3, [pc, #520]	; (8101824 <HAL_RCC_GetSysClockFreq+0x2d4>)
 810161a:	6adb      	ldr	r3, [r3, #44]	; 0x2c
 810161c:	f003 0301 	and.w	r3, r3, #1
 8101620:	60fb      	str	r3, [r7, #12]
    fracn1 = (float_t)(uint32_t)(pllfracen* ((RCC->PLL1FRACR & RCC_PLL1FRACR_FRACN1)>> 3));
 8101622:	4b80      	ldr	r3, [pc, #512]	; (8101824 <HAL_RCC_GetSysClockFreq+0x2d4>)
 8101624:	6b5b      	ldr	r3, [r3, #52]	; 0x34
 8101626:	08db      	lsrs	r3, r3, #3
 8101628:	f3c3 030c 	ubfx	r3, r3, #0, #13
 810162c:	68fa      	ldr	r2, [r7, #12]
 810162e:	fb02 f303 	mul.w	r3, r2, r3
 8101632:	ee07 3a90 	vmov	s15, r3
 8101636:	eef8 7a67 	vcvt.f32.u32	s15, s15
 810163a:	edc7 7a02 	vstr	s15, [r7, #8]

    if (pllm != 0U)
 810163e:	693b      	ldr	r3, [r7, #16]
 8101640:	2b00      	cmp	r3, #0
 8101642:	f000 80e1 	beq.w	8101808 <HAL_RCC_GetSysClockFreq+0x2b8>
 8101646:	697b      	ldr	r3, [r7, #20]
 8101648:	2b02      	cmp	r3, #2
 810164a:	f000 8083 	beq.w	8101754 <HAL_RCC_GetSysClockFreq+0x204>
 810164e:	697b      	ldr	r3, [r7, #20]
 8101650:	2b02      	cmp	r3, #2
 8101652:	f200 80a1 	bhi.w	8101798 <HAL_RCC_GetSysClockFreq+0x248>
 8101656:	697b      	ldr	r3, [r7, #20]
 8101658:	2b00      	cmp	r3, #0
 810165a:	d003      	beq.n	8101664 <HAL_RCC_GetSysClockFreq+0x114>
 810165c:	697b      	ldr	r3, [r7, #20]
 810165e:	2b01      	cmp	r3, #1
 8101660:	d056      	beq.n	8101710 <HAL_RCC_GetSysClockFreq+0x1c0>
 8101662:	e099      	b.n	8101798 <HAL_RCC_GetSysClockFreq+0x248>
    {
      switch (pllsource)
      {
      case RCC_PLLSOURCE_HSI:  /* HSI used as PLL clock source */

       if (__HAL_RCC_GET_FLAG(RCC_FLAG_HSIDIV) != 0U)
 8101664:	4b6f      	ldr	r3, [pc, #444]	; (8101824 <HAL_RCC_GetSysClockFreq+0x2d4>)
 8101666:	681b      	ldr	r3, [r3, #0]
 8101668:	f003 0320 	and.w	r3, r3, #32
 810166c:	2b00      	cmp	r3, #0
 810166e:	d02d      	beq.n	81016cc <HAL_RCC_GetSysClockFreq+0x17c>
        {
          hsivalue= (HSI_VALUE >> (__HAL_RCC_GET_HSI_DIVIDER()>> 3));
 8101670:	4b6c      	ldr	r3, [pc, #432]	; (8101824 <HAL_RCC_GetSysClockFreq+0x2d4>)
 8101672:	681b      	ldr	r3, [r3, #0]
 8101674:	08db      	lsrs	r3, r3, #3
 8101676:	f003 0303 	and.w	r3, r3, #3
 810167a:	4a6b      	ldr	r2, [pc, #428]	; (8101828 <HAL_RCC_GetSysClockFreq+0x2d8>)
 810167c:	fa22 f303 	lsr.w	r3, r2, r3
 8101680:	607b      	str	r3, [r7, #4]
          pllvco = ( (float_t)hsivalue / (float_t)pllm) * ((float_t)(uint32_t)(RCC->PLL1DIVR & RCC_PLL1DIVR_N1) + (fracn1/(float_t)0x2000) +(float_t)1 );
 8101682:	687b      	ldr	r3, [r7, #4]
 8101684:	ee07 3a90 	vmov	s15, r3
 8101688:	eef8 6a67 	vcvt.f32.u32	s13, s15
 810168c:	693b      	ldr	r3, [r7, #16]
 810168e:	ee07 3a90 	vmov	s15, r3
 8101692:	eef8 7a67 	vcvt.f32.u32	s15, s15
 8101696:	ee86 7aa7 	vdiv.f32	s14, s13, s15
 810169a:	4b62      	ldr	r3, [pc, #392]	; (8101824 <HAL_RCC_GetSysClockFreq+0x2d4>)
 810169c:	6b1b      	ldr	r3, [r3, #48]	; 0x30
 810169e:	f3c3 0308 	ubfx	r3, r3, #0, #9
 81016a2:	ee07 3a90 	vmov	s15, r3
 81016a6:	eef8 6a67 	vcvt.f32.u32	s13, s15
 81016aa:	ed97 6a02 	vldr	s12, [r7, #8]
 81016ae:	eddf 5a61 	vldr	s11, [pc, #388]	; 8101834 <HAL_RCC_GetSysClockFreq+0x2e4>
 81016b2:	eec6 7a25 	vdiv.f32	s15, s12, s11
 81016b6:	ee76 7aa7 	vadd.f32	s15, s13, s15
 81016ba:	eef7 6a00 	vmov.f32	s13, #112	; 0x3f800000  1.0
 81016be:	ee77 7aa6 	vadd.f32	s15, s15, s13
 81016c2:	ee67 7a27 	vmul.f32	s15, s14, s15
 81016c6:	edc7 7a07 	vstr	s15, [r7, #28]
        }
        else
        {
          pllvco = ((float_t)HSI_VALUE / (float_t)pllm) * ((float_t)(uint32_t)(RCC->PLL1DIVR & RCC_PLL1DIVR_N1) + (fracn1/(float_t)0x2000) +(float_t)1 );
        }
        break;
 81016ca:	e087      	b.n	81017dc <HAL_RCC_GetSysClockFreq+0x28c>
          pllvco = ((float_t)HSI_VALUE / (float_t)pllm) * ((float_t)(uint32_t)(RCC->PLL1DIVR & RCC_PLL1DIVR_N1) + (fracn1/(float_t)0x2000) +(float_t)1 );
 81016cc:	693b      	ldr	r3, [r7, #16]
 81016ce:	ee07 3a90 	vmov	s15, r3
 81016d2:	eef8 7a67 	vcvt.f32.u32	s15, s15
 81016d6:	eddf 6a58 	vldr	s13, [pc, #352]	; 8101838 <HAL_RCC_GetSysClockFreq+0x2e8>
 81016da:	ee86 7aa7 	vdiv.f32	s14, s13, s15
 81016de:	4b51      	ldr	r3, [pc, #324]	; (8101824 <HAL_RCC_GetSysClockFreq+0x2d4>)
 81016e0:	6b1b      	ldr	r3, [r3, #48]	; 0x30
 81016e2:	f3c3 0308 	ubfx	r3, r3, #0, #9
 81016e6:	ee07 3a90 	vmov	s15, r3
 81016ea:	eef8 6a67 	vcvt.f32.u32	s13, s15
 81016ee:	ed97 6a02 	vldr	s12, [r7, #8]
 81016f2:	eddf 5a50 	vldr	s11, [pc, #320]	; 8101834 <HAL_RCC_GetSysClockFreq+0x2e4>
 81016f6:	eec6 7a25 	vdiv.f32	s15, s12, s11
 81016fa:	ee76 7aa7 	vadd.f32	s15, s13, s15
 81016fe:	eef7 6a00 	vmov.f32	s13, #112	; 0x3f800000  1.0
 8101702:	ee77 7aa6 	vadd.f32	s15, s15, s13
 8101706:	ee67 7a27 	vmul.f32	s15, s14, s15
 810170a:	edc7 7a07 	vstr	s15, [r7, #28]
        break;
 810170e:	e065      	b.n	81017dc <HAL_RCC_GetSysClockFreq+0x28c>

      case RCC_PLLSOURCE_CSI:  /* CSI used as PLL clock source */
        pllvco = ((float_t)CSI_VALUE / (float_t)pllm) * ((float_t)(uint32_t)(RCC->PLL1DIVR & RCC_PLL1DIVR_N1) + (fracn1/(float_t)0x2000) +(float_t)1 );
 8101710:	693b      	ldr	r3, [r7, #16]
 8101712:	ee07 3a90 	vmov	s15, r3
 8101716:	eef8 7a67 	vcvt.f32.u32	s15, s15
 810171a:	eddf 6a48 	vldr	s13, [pc, #288]	; 810183c <HAL_RCC_GetSysClockFreq+0x2ec>
 810171e:	ee86 7aa7 	vdiv.f32	s14, s13, s15
 8101722:	4b40      	ldr	r3, [pc, #256]	; (8101824 <HAL_RCC_GetSysClockFreq+0x2d4>)
 8101724:	6b1b      	ldr	r3, [r3, #48]	; 0x30
 8101726:	f3c3 0308 	ubfx	r3, r3, #0, #9
 810172a:	ee07 3a90 	vmov	s15, r3
 810172e:	eef8 6a67 	vcvt.f32.u32	s13, s15
 8101732:	ed97 6a02 	vldr	s12, [r7, #8]
 8101736:	eddf 5a3f 	vldr	s11, [pc, #252]	; 8101834 <HAL_RCC_GetSysClockFreq+0x2e4>
 810173a:	eec6 7a25 	vdiv.f32	s15, s12, s11
 810173e:	ee76 7aa7 	vadd.f32	s15, s13, s15
 8101742:	eef7 6a00 	vmov.f32	s13, #112	; 0x3f800000  1.0
 8101746:	ee77 7aa6 	vadd.f32	s15, s15, s13
 810174a:	ee67 7a27 	vmul.f32	s15, s14, s15
 810174e:	edc7 7a07 	vstr	s15, [r7, #28]
        break;
 8101752:	e043      	b.n	81017dc <HAL_RCC_GetSysClockFreq+0x28c>

      case RCC_PLLSOURCE_HSE:  /* HSE used as PLL clock source */
        pllvco = ((float_t)HSE_VALUE / (float_t)pllm) * ((float_t)(uint32_t)(RCC->PLL1DIVR & RCC_PLL1DIVR_N1) + (fracn1/(float_t)0x2000) +(float_t)1 );
 8101754:	693b      	ldr	r3, [r7, #16]
 8101756:	ee07 3a90 	vmov	s15, r3
 810175a:	eef8 7a67 	vcvt.f32.u32	s15, s15
 810175e:	eddf 6a38 	vldr	s13, [pc, #224]	; 8101840 <HAL_RCC_GetSysClockFreq+0x2f0>
 8101762:	ee86 7aa7 	vdiv.f32	s14, s13, s15
 8101766:	4b2f      	ldr	r3, [pc, #188]	; (8101824 <HAL_RCC_GetSysClockFreq+0x2d4>)
 8101768:	6b1b      	ldr	r3, [r3, #48]	; 0x30
 810176a:	f3c3 0308 	ubfx	r3, r3, #0, #9
 810176e:	ee07 3a90 	vmov	s15, r3
 8101772:	eef8 6a67 	vcvt.f32.u32	s13, s15
 8101776:	ed97 6a02 	vldr	s12, [r7, #8]
 810177a:	eddf 5a2e 	vldr	s11, [pc, #184]	; 8101834 <HAL_RCC_GetSysClockFreq+0x2e4>
 810177e:	eec6 7a25 	vdiv.f32	s15, s12, s11
 8101782:	ee76 7aa7 	vadd.f32	s15, s13, s15
 8101786:	eef7 6a00 	vmov.f32	s13, #112	; 0x3f800000  1.0
 810178a:	ee77 7aa6 	vadd.f32	s15, s15, s13
 810178e:	ee67 7a27 	vmul.f32	s15, s14, s15
 8101792:	edc7 7a07 	vstr	s15, [r7, #28]
        break;
 8101796:	e021      	b.n	81017dc <HAL_RCC_GetSysClockFreq+0x28c>

      default:
        pllvco = ((float_t)CSI_VALUE / (float_t)pllm) * ((float_t)(uint32_t)(RCC->PLL1DIVR & RCC_PLL1DIVR_N1) + (fracn1/(float_t)0x2000) +(float_t)1 );
 8101798:	693b      	ldr	r3, [r7, #16]
 810179a:	ee07 3a90 	vmov	s15, r3
 810179e:	eef8 7a67 	vcvt.f32.u32	s15, s15
 81017a2:	eddf 6a26 	vldr	s13, [pc, #152]	; 810183c <HAL_RCC_GetSysClockFreq+0x2ec>
 81017a6:	ee86 7aa7 	vdiv.f32	s14, s13, s15
 81017aa:	4b1e      	ldr	r3, [pc, #120]	; (8101824 <HAL_RCC_GetSysClockFreq+0x2d4>)
 81017ac:	6b1b      	ldr	r3, [r3, #48]	; 0x30
 81017ae:	f3c3 0308 	ubfx	r3, r3, #0, #9
 81017b2:	ee07 3a90 	vmov	s15, r3
 81017b6:	eef8 6a67 	vcvt.f32.u32	s13, s15
 81017ba:	ed97 6a02 	vldr	s12, [r7, #8]
 81017be:	eddf 5a1d 	vldr	s11, [pc, #116]	; 8101834 <HAL_RCC_GetSysClockFreq+0x2e4>
 81017c2:	eec6 7a25 	vdiv.f32	s15, s12, s11
 81017c6:	ee76 7aa7 	vadd.f32	s15, s13, s15
 81017ca:	eef7 6a00 	vmov.f32	s13, #112	; 0x3f800000  1.0
 81017ce:	ee77 7aa6 	vadd.f32	s15, s15, s13
 81017d2:	ee67 7a27 	vmul.f32	s15, s14, s15
 81017d6:	edc7 7a07 	vstr	s15, [r7, #28]
        break;
 81017da:	bf00      	nop
      }
      pllp = (((RCC->PLL1DIVR & RCC_PLL1DIVR_P1) >>9) + 1U ) ;
 81017dc:	4b11      	ldr	r3, [pc, #68]	; (8101824 <HAL_RCC_GetSysClockFreq+0x2d4>)
 81017de:	6b1b      	ldr	r3, [r3, #48]	; 0x30
 81017e0:	0a5b      	lsrs	r3, r3, #9
 81017e2:	f003 037f 	and.w	r3, r3, #127	; 0x7f
 81017e6:	3301      	adds	r3, #1
 81017e8:	603b      	str	r3, [r7, #0]
      sysclockfreq =  (uint32_t)(float_t)(pllvco/(float_t)pllp);
 81017ea:	683b      	ldr	r3, [r7, #0]
 81017ec:	ee07 3a90 	vmov	s15, r3
 81017f0:	eeb8 7a67 	vcvt.f32.u32	s14, s15
 81017f4:	edd7 6a07 	vldr	s13, [r7, #28]
 81017f8:	eec6 7a87 	vdiv.f32	s15, s13, s14
 81017fc:	eefc 7ae7 	vcvt.u32.f32	s15, s15
 8101800:	ee17 3a90 	vmov	r3, s15
 8101804:	61bb      	str	r3, [r7, #24]
    }
    else
    {
      sysclockfreq = 0U;
    }
    break;
 8101806:	e005      	b.n	8101814 <HAL_RCC_GetSysClockFreq+0x2c4>
      sysclockfreq = 0U;
 8101808:	2300      	movs	r3, #0
 810180a:	61bb      	str	r3, [r7, #24]
    break;
 810180c:	e002      	b.n	8101814 <HAL_RCC_GetSysClockFreq+0x2c4>

  default:
    sysclockfreq = CSI_VALUE;
 810180e:	4b07      	ldr	r3, [pc, #28]	; (810182c <HAL_RCC_GetSysClockFreq+0x2dc>)
 8101810:	61bb      	str	r3, [r7, #24]
    break;
 8101812:	bf00      	nop
  }

  return sysclockfreq;
 8101814:	69bb      	ldr	r3, [r7, #24]
}
 8101816:	4618      	mov	r0, r3
 8101818:	3724      	adds	r7, #36	; 0x24
 810181a:	46bd      	mov	sp, r7
 810181c:	f85d 7b04 	ldr.w	r7, [sp], #4
 8101820:	4770      	bx	lr
 8101822:	bf00      	nop
 8101824:	58024400 	.word	0x58024400
 8101828:	03d09000 	.word	0x03d09000
 810182c:	003d0900 	.word	0x003d0900
 8101830:	007a1200 	.word	0x007a1200
 8101834:	46000000 	.word	0x46000000
 8101838:	4c742400 	.word	0x4c742400
 810183c:	4a742400 	.word	0x4a742400
 8101840:	4af42400 	.word	0x4af42400

08101844 <HAL_RCC_GetHCLKFreq>:
  * @note   The SystemD2Clock CMSIS variable is used to store System domain2 Clock Frequency
  *         and updated within this function
  * @retval HCLK frequency
  */
uint32_t HAL_RCC_GetHCLKFreq(void)
{
 8101844:	b580      	push	{r7, lr}
 8101846:	b082      	sub	sp, #8
 8101848:	af00      	add	r7, sp, #0
uint32_t common_system_clock;

#if defined(RCC_D1CFGR_D1CPRE)
  common_system_clock = HAL_RCC_GetSysClockFreq() >> (D1CorePrescTable[(RCC->D1CFGR & RCC_D1CFGR_D1CPRE)>> RCC_D1CFGR_D1CPRE_Pos] & 0x1FU);
 810184a:	f7ff fe81 	bl	8101550 <HAL_RCC_GetSysClockFreq>
 810184e:	4602      	mov	r2, r0
 8101850:	4b11      	ldr	r3, [pc, #68]	; (8101898 <HAL_RCC_GetHCLKFreq+0x54>)
 8101852:	699b      	ldr	r3, [r3, #24]
 8101854:	0a1b      	lsrs	r3, r3, #8
 8101856:	f003 030f 	and.w	r3, r3, #15
 810185a:	4910      	ldr	r1, [pc, #64]	; (810189c <HAL_RCC_GetHCLKFreq+0x58>)
 810185c:	5ccb      	ldrb	r3, [r1, r3]
 810185e:	f003 031f 	and.w	r3, r3, #31
 8101862:	fa22 f303 	lsr.w	r3, r2, r3
 8101866:	607b      	str	r3, [r7, #4]
#else
  common_system_clock = HAL_RCC_GetSysClockFreq() >> (D1CorePrescTable[(RCC->CDCFGR1 & RCC_CDCFGR1_CDCPRE)>> RCC_CDCFGR1_CDCPRE_Pos] & 0x1FU);
#endif

#if defined(RCC_D1CFGR_HPRE)
  SystemD2Clock = (common_system_clock >> ((D1CorePrescTable[(RCC->D1CFGR & RCC_D1CFGR_HPRE)>> RCC_D1CFGR_HPRE_Pos]) & 0x1FU));
 8101868:	4b0b      	ldr	r3, [pc, #44]	; (8101898 <HAL_RCC_GetHCLKFreq+0x54>)
 810186a:	699b      	ldr	r3, [r3, #24]
 810186c:	f003 030f 	and.w	r3, r3, #15
 8101870:	4a0a      	ldr	r2, [pc, #40]	; (810189c <HAL_RCC_GetHCLKFreq+0x58>)
 8101872:	5cd3      	ldrb	r3, [r2, r3]
 8101874:	f003 031f 	and.w	r3, r3, #31
 8101878:	687a      	ldr	r2, [r7, #4]
 810187a:	fa22 f303 	lsr.w	r3, r2, r3
 810187e:	4a08      	ldr	r2, [pc, #32]	; (81018a0 <HAL_RCC_GetHCLKFreq+0x5c>)
 8101880:	6013      	str	r3, [r2, #0]
#else
  SystemD2Clock = (common_system_clock >> ((D1CorePrescTable[(RCC->CDCFGR1 & RCC_CDCFGR1_HPRE)>> RCC_CDCFGR1_HPRE_Pos]) & 0x1FU));
#endif

#if defined(DUAL_CORE) && defined(CORE_CM4)
  SystemCoreClock = SystemD2Clock;
 8101882:	4b07      	ldr	r3, [pc, #28]	; (81018a0 <HAL_RCC_GetHCLKFreq+0x5c>)
 8101884:	681b      	ldr	r3, [r3, #0]
 8101886:	4a07      	ldr	r2, [pc, #28]	; (81018a4 <HAL_RCC_GetHCLKFreq+0x60>)
 8101888:	6013      	str	r3, [r2, #0]
#else
  SystemCoreClock = common_system_clock;
#endif /* DUAL_CORE && CORE_CM4 */

  return SystemD2Clock;
 810188a:	4b05      	ldr	r3, [pc, #20]	; (81018a0 <HAL_RCC_GetHCLKFreq+0x5c>)
 810188c:	681b      	ldr	r3, [r3, #0]
}
 810188e:	4618      	mov	r0, r3
 8101890:	3708      	adds	r7, #8
 8101892:	46bd      	mov	sp, r7
 8101894:	bd80      	pop	{r7, pc}
 8101896:	bf00      	nop
 8101898:	58024400 	.word	0x58024400
 810189c:	08107c98 	.word	0x08107c98
 81018a0:	10000004 	.word	0x10000004
 81018a4:	10000000 	.word	0x10000000

081018a8 <HAL_RCC_GetPCLK1Freq>:
  * @note   Each time PCLK1 changes, this function must be called to update the
  *         right PCLK1 value. Otherwise, any configuration based on this function will be incorrect.
  * @retval PCLK1 frequency
  */
uint32_t HAL_RCC_GetPCLK1Freq(void)
{
 81018a8:	b580      	push	{r7, lr}
 81018aa:	af00      	add	r7, sp, #0
#if defined (RCC_D2CFGR_D2PPRE1)
  /* Get HCLK source and Compute PCLK1 frequency ---------------------------*/
  return (HAL_RCC_GetHCLKFreq() >> ((D1CorePrescTable[(RCC->D2CFGR & RCC_D2CFGR_D2PPRE1)>> RCC_D2CFGR_D2PPRE1_Pos]) & 0x1FU));
 81018ac:	f7ff ffca 	bl	8101844 <HAL_RCC_GetHCLKFreq>
 81018b0:	4602      	mov	r2, r0
 81018b2:	4b06      	ldr	r3, [pc, #24]	; (81018cc <HAL_RCC_GetPCLK1Freq+0x24>)
 81018b4:	69db      	ldr	r3, [r3, #28]
 81018b6:	091b      	lsrs	r3, r3, #4
 81018b8:	f003 0307 	and.w	r3, r3, #7
 81018bc:	4904      	ldr	r1, [pc, #16]	; (81018d0 <HAL_RCC_GetPCLK1Freq+0x28>)
 81018be:	5ccb      	ldrb	r3, [r1, r3]
 81018c0:	f003 031f 	and.w	r3, r3, #31
 81018c4:	fa22 f303 	lsr.w	r3, r2, r3
#else
 /* Get HCLK source and Compute PCLK1 frequency ---------------------------*/
  return (HAL_RCC_GetHCLKFreq() >> ((D1CorePrescTable[(RCC->CDCFGR2 & RCC_CDCFGR2_CDPPRE1)>> RCC_CDCFGR2_CDPPRE1_Pos]) & 0x1FU));
#endif
}
 81018c8:	4618      	mov	r0, r3
 81018ca:	bd80      	pop	{r7, pc}
 81018cc:	58024400 	.word	0x58024400
 81018d0:	08107c98 	.word	0x08107c98

081018d4 <HAL_RCC_GetPCLK2Freq>:
  * @note   Each time PCLK2 changes, this function must be called to update the
  *         right PCLK2 value. Otherwise, any configuration based on this function will be incorrect.
  * @retval PCLK1 frequency
  */
uint32_t HAL_RCC_GetPCLK2Freq(void)
{
 81018d4:	b580      	push	{r7, lr}
 81018d6:	af00      	add	r7, sp, #0
  /* Get HCLK source and Compute PCLK1 frequency ---------------------------*/
#if defined(RCC_D2CFGR_D2PPRE2)
  return (HAL_RCC_GetHCLKFreq() >> ((D1CorePrescTable[(RCC->D2CFGR & RCC_D2CFGR_D2PPRE2)>> RCC_D2CFGR_D2PPRE2_Pos]) & 0x1FU));
 81018d8:	f7ff ffb4 	bl	8101844 <HAL_RCC_GetHCLKFreq>
 81018dc:	4602      	mov	r2, r0
 81018de:	4b06      	ldr	r3, [pc, #24]	; (81018f8 <HAL_RCC_GetPCLK2Freq+0x24>)
 81018e0:	69db      	ldr	r3, [r3, #28]
 81018e2:	0a1b      	lsrs	r3, r3, #8
 81018e4:	f003 0307 	and.w	r3, r3, #7
 81018e8:	4904      	ldr	r1, [pc, #16]	; (81018fc <HAL_RCC_GetPCLK2Freq+0x28>)
 81018ea:	5ccb      	ldrb	r3, [r1, r3]
 81018ec:	f003 031f 	and.w	r3, r3, #31
 81018f0:	fa22 f303 	lsr.w	r3, r2, r3
#else
  return (HAL_RCC_GetHCLKFreq() >> ((D1CorePrescTable[(RCC->CDCFGR2 & RCC_CDCFGR2_CDPPRE2)>> RCC_CDCFGR2_CDPPRE2_Pos]) & 0x1FU));
#endif
}
 81018f4:	4618      	mov	r0, r3
 81018f6:	bd80      	pop	{r7, pc}
 81018f8:	58024400 	.word	0x58024400
 81018fc:	08107c98 	.word	0x08107c98

08101900 <HAL_RCCEx_PeriphCLKConfig>:
  * (*) : Available on some STM32H7 lines only.
  *
  * @retval HAL status
  */
HAL_StatusTypeDef HAL_RCCEx_PeriphCLKConfig(RCC_PeriphCLKInitTypeDef  *PeriphClkInit)
{
 8101900:	b580      	push	{r7, lr}
 8101902:	b086      	sub	sp, #24
 8101904:	af00      	add	r7, sp, #0
 8101906:	6078      	str	r0, [r7, #4]
  uint32_t tmpreg;
  uint32_t tickstart;
  HAL_StatusTypeDef ret = HAL_OK;      /* Intermediate status */
 8101908:	2300      	movs	r3, #0
 810190a:	75fb      	strb	r3, [r7, #23]
  HAL_StatusTypeDef status = HAL_OK;   /* Final status */
 810190c:	2300      	movs	r3, #0
 810190e:	75bb      	strb	r3, [r7, #22]

  /*---------------------------- SPDIFRX configuration -------------------------------*/

  if(((PeriphClkInit->PeriphClockSelection) & RCC_PERIPHCLK_SPDIFRX) == RCC_PERIPHCLK_SPDIFRX)
 8101910:	687b      	ldr	r3, [r7, #4]
 8101912:	681b      	ldr	r3, [r3, #0]
 8101914:	f003 6300 	and.w	r3, r3, #134217728	; 0x8000000
 8101918:	2b00      	cmp	r3, #0
 810191a:	d03f      	beq.n	810199c <HAL_RCCEx_PeriphCLKConfig+0x9c>
  {

    switch(PeriphClkInit->SpdifrxClockSelection)
 810191c:	687b      	ldr	r3, [r7, #4]
 810191e:	6e5b      	ldr	r3, [r3, #100]	; 0x64
 8101920:	f5b3 1f40 	cmp.w	r3, #3145728	; 0x300000
 8101924:	d02a      	beq.n	810197c <HAL_RCCEx_PeriphCLKConfig+0x7c>
 8101926:	f5b3 1f40 	cmp.w	r3, #3145728	; 0x300000
 810192a:	d824      	bhi.n	8101976 <HAL_RCCEx_PeriphCLKConfig+0x76>
 810192c:	f5b3 1f00 	cmp.w	r3, #2097152	; 0x200000
 8101930:	d018      	beq.n	8101964 <HAL_RCCEx_PeriphCLKConfig+0x64>
 8101932:	f5b3 1f00 	cmp.w	r3, #2097152	; 0x200000
 8101936:	d81e      	bhi.n	8101976 <HAL_RCCEx_PeriphCLKConfig+0x76>
 8101938:	2b00      	cmp	r3, #0
 810193a:	d003      	beq.n	8101944 <HAL_RCCEx_PeriphCLKConfig+0x44>
 810193c:	f5b3 1f80 	cmp.w	r3, #1048576	; 0x100000
 8101940:	d007      	beq.n	8101952 <HAL_RCCEx_PeriphCLKConfig+0x52>
 8101942:	e018      	b.n	8101976 <HAL_RCCEx_PeriphCLKConfig+0x76>
    {
    case RCC_SPDIFRXCLKSOURCE_PLL:      /* PLL is used as clock source for SPDIFRX*/
      /* Enable PLL1Q Clock output generated form System PLL . */
      __HAL_RCC_PLLCLKOUT_ENABLE(RCC_PLL1_DIVQ);
 8101944:	4ba3      	ldr	r3, [pc, #652]	; (8101bd4 <HAL_RCCEx_PeriphCLKConfig+0x2d4>)
 8101946:	6adb      	ldr	r3, [r3, #44]	; 0x2c
 8101948:	4aa2      	ldr	r2, [pc, #648]	; (8101bd4 <HAL_RCCEx_PeriphCLKConfig+0x2d4>)
 810194a:	f443 3300 	orr.w	r3, r3, #131072	; 0x20000
 810194e:	62d3      	str	r3, [r2, #44]	; 0x2c

      /* SPDIFRX clock source configuration done later after clock selection check */
      break;
 8101950:	e015      	b.n	810197e <HAL_RCCEx_PeriphCLKConfig+0x7e>

    case RCC_SPDIFRXCLKSOURCE_PLL2: /* PLL2 is used as clock source for SPDIFRX*/

      ret = RCCEx_PLL2_Config(&(PeriphClkInit->PLL2),DIVIDER_R_UPDATE);
 8101952:	687b      	ldr	r3, [r7, #4]
 8101954:	3304      	adds	r3, #4
 8101956:	2102      	movs	r1, #2
 8101958:	4618      	mov	r0, r3
 810195a:	f001 f9d5 	bl	8102d08 <RCCEx_PLL2_Config>
 810195e:	4603      	mov	r3, r0
 8101960:	75fb      	strb	r3, [r7, #23]

      /* SPDIFRX clock source configuration done later after clock selection check */
      break;
 8101962:	e00c      	b.n	810197e <HAL_RCCEx_PeriphCLKConfig+0x7e>

    case RCC_SPDIFRXCLKSOURCE_PLL3:  /* PLL3 is used as clock source for SPDIFRX*/
      ret = RCCEx_PLL3_Config(&(PeriphClkInit->PLL3),DIVIDER_R_UPDATE);
 8101964:	687b      	ldr	r3, [r7, #4]
 8101966:	3324      	adds	r3, #36	; 0x24
 8101968:	2102      	movs	r1, #2
 810196a:	4618      	mov	r0, r3
 810196c:	f001 fa7e 	bl	8102e6c <RCCEx_PLL3_Config>
 8101970:	4603      	mov	r3, r0
 8101972:	75fb      	strb	r3, [r7, #23]

      /* SPDIFRX clock source configuration done later after clock selection check */
      break;
 8101974:	e003      	b.n	810197e <HAL_RCCEx_PeriphCLKConfig+0x7e>
      /* Internal OSC clock is used as source of SPDIFRX clock*/
      /* SPDIFRX clock source configuration done later after clock selection check */
      break;

    default:
      ret = HAL_ERROR;
 8101976:	2301      	movs	r3, #1
 8101978:	75fb      	strb	r3, [r7, #23]
      break;
 810197a:	e000      	b.n	810197e <HAL_RCCEx_PeriphCLKConfig+0x7e>
      break;
 810197c:	bf00      	nop
    }

    if(ret == HAL_OK)
 810197e:	7dfb      	ldrb	r3, [r7, #23]
 8101980:	2b00      	cmp	r3, #0
 8101982:	d109      	bne.n	8101998 <HAL_RCCEx_PeriphCLKConfig+0x98>
    {
      /* Set the source of SPDIFRX clock*/
      __HAL_RCC_SPDIFRX_CONFIG(PeriphClkInit->SpdifrxClockSelection);
 8101984:	4b93      	ldr	r3, [pc, #588]	; (8101bd4 <HAL_RCCEx_PeriphCLKConfig+0x2d4>)
 8101986:	6d1b      	ldr	r3, [r3, #80]	; 0x50
 8101988:	f423 1240 	bic.w	r2, r3, #3145728	; 0x300000
 810198c:	687b      	ldr	r3, [r7, #4]
 810198e:	6e5b      	ldr	r3, [r3, #100]	; 0x64
 8101990:	4990      	ldr	r1, [pc, #576]	; (8101bd4 <HAL_RCCEx_PeriphCLKConfig+0x2d4>)
 8101992:	4313      	orrs	r3, r2
 8101994:	650b      	str	r3, [r1, #80]	; 0x50
 8101996:	e001      	b.n	810199c <HAL_RCCEx_PeriphCLKConfig+0x9c>
    }
    else
    {
      /* set overall return value */
      status = ret;
 8101998:	7dfb      	ldrb	r3, [r7, #23]
 810199a:	75bb      	strb	r3, [r7, #22]
    }
  }

  /*---------------------------- SAI1 configuration -------------------------------*/
  if(((PeriphClkInit->PeriphClockSelection) & RCC_PERIPHCLK_SAI1) == RCC_PERIPHCLK_SAI1)
 810199c:	687b      	ldr	r3, [r7, #4]
 810199e:	681b      	ldr	r3, [r3, #0]
 81019a0:	f403 7380 	and.w	r3, r3, #256	; 0x100
 81019a4:	2b00      	cmp	r3, #0
 81019a6:	d03d      	beq.n	8101a24 <HAL_RCCEx_PeriphCLKConfig+0x124>
  {
    switch(PeriphClkInit->Sai1ClockSelection)
 81019a8:	687b      	ldr	r3, [r7, #4]
 81019aa:	6d5b      	ldr	r3, [r3, #84]	; 0x54
 81019ac:	2b04      	cmp	r3, #4
 81019ae:	d826      	bhi.n	81019fe <HAL_RCCEx_PeriphCLKConfig+0xfe>
 81019b0:	a201      	add	r2, pc, #4	; (adr r2, 81019b8 <HAL_RCCEx_PeriphCLKConfig+0xb8>)
 81019b2:	f852 f023 	ldr.w	pc, [r2, r3, lsl #2]
 81019b6:	bf00      	nop
 81019b8:	081019cd 	.word	0x081019cd
 81019bc:	081019db 	.word	0x081019db
 81019c0:	081019ed 	.word	0x081019ed
 81019c4:	08101a05 	.word	0x08101a05
 81019c8:	08101a05 	.word	0x08101a05
    {
    case RCC_SAI1CLKSOURCE_PLL:      /* PLL is used as clock source for SAI1*/
      /* Enable SAI Clock output generated form System PLL . */
      __HAL_RCC_PLLCLKOUT_ENABLE(RCC_PLL1_DIVQ);
 81019cc:	4b81      	ldr	r3, [pc, #516]	; (8101bd4 <HAL_RCCEx_PeriphCLKConfig+0x2d4>)
 81019ce:	6adb      	ldr	r3, [r3, #44]	; 0x2c
 81019d0:	4a80      	ldr	r2, [pc, #512]	; (8101bd4 <HAL_RCCEx_PeriphCLKConfig+0x2d4>)
 81019d2:	f443 3300 	orr.w	r3, r3, #131072	; 0x20000
 81019d6:	62d3      	str	r3, [r2, #44]	; 0x2c

      /* SAI1 clock source configuration done later after clock selection check */
      break;
 81019d8:	e015      	b.n	8101a06 <HAL_RCCEx_PeriphCLKConfig+0x106>

    case RCC_SAI1CLKSOURCE_PLL2: /* PLL2 is used as clock source for SAI1*/

      ret = RCCEx_PLL2_Config(&(PeriphClkInit->PLL2),DIVIDER_P_UPDATE);
 81019da:	687b      	ldr	r3, [r7, #4]
 81019dc:	3304      	adds	r3, #4
 81019de:	2100      	movs	r1, #0
 81019e0:	4618      	mov	r0, r3
 81019e2:	f001 f991 	bl	8102d08 <RCCEx_PLL2_Config>
 81019e6:	4603      	mov	r3, r0
 81019e8:	75fb      	strb	r3, [r7, #23]

      /* SAI1 clock source configuration done later after clock selection check */
      break;
 81019ea:	e00c      	b.n	8101a06 <HAL_RCCEx_PeriphCLKConfig+0x106>

    case RCC_SAI1CLKSOURCE_PLL3:  /* PLL3 is used as clock source for SAI1*/
      ret = RCCEx_PLL3_Config(&(PeriphClkInit->PLL3),DIVIDER_P_UPDATE);
 81019ec:	687b      	ldr	r3, [r7, #4]
 81019ee:	3324      	adds	r3, #36	; 0x24
 81019f0:	2100      	movs	r1, #0
 81019f2:	4618      	mov	r0, r3
 81019f4:	f001 fa3a 	bl	8102e6c <RCCEx_PLL3_Config>
 81019f8:	4603      	mov	r3, r0
 81019fa:	75fb      	strb	r3, [r7, #23]

      /* SAI1 clock source configuration done later after clock selection check */
      break;
 81019fc:	e003      	b.n	8101a06 <HAL_RCCEx_PeriphCLKConfig+0x106>
      /* HSI, HSE, or CSI oscillator is used as source of SAI1 clock */
      /* SAI1 clock source configuration done later after clock selection check */
      break;

    default:
      ret = HAL_ERROR;
 81019fe:	2301      	movs	r3, #1
 8101a00:	75fb      	strb	r3, [r7, #23]
      break;
 8101a02:	e000      	b.n	8101a06 <HAL_RCCEx_PeriphCLKConfig+0x106>
      break;
 8101a04:	bf00      	nop
    }

    if(ret == HAL_OK)
 8101a06:	7dfb      	ldrb	r3, [r7, #23]
 8101a08:	2b00      	cmp	r3, #0
 8101a0a:	d109      	bne.n	8101a20 <HAL_RCCEx_PeriphCLKConfig+0x120>
    {
      /* Set the source of SAI1 clock*/
      __HAL_RCC_SAI1_CONFIG(PeriphClkInit->Sai1ClockSelection);
 8101a0c:	4b71      	ldr	r3, [pc, #452]	; (8101bd4 <HAL_RCCEx_PeriphCLKConfig+0x2d4>)
 8101a0e:	6d1b      	ldr	r3, [r3, #80]	; 0x50
 8101a10:	f023 0207 	bic.w	r2, r3, #7
 8101a14:	687b      	ldr	r3, [r7, #4]
 8101a16:	6d5b      	ldr	r3, [r3, #84]	; 0x54
 8101a18:	496e      	ldr	r1, [pc, #440]	; (8101bd4 <HAL_RCCEx_PeriphCLKConfig+0x2d4>)
 8101a1a:	4313      	orrs	r3, r2
 8101a1c:	650b      	str	r3, [r1, #80]	; 0x50
 8101a1e:	e001      	b.n	8101a24 <HAL_RCCEx_PeriphCLKConfig+0x124>
    }
    else
    {
      /* set overall return value */
      status = ret;
 8101a20:	7dfb      	ldrb	r3, [r7, #23]
 8101a22:	75bb      	strb	r3, [r7, #22]
    }
  }

#if defined(SAI3)
  /*---------------------------- SAI2/3 configuration -------------------------------*/
  if(((PeriphClkInit->PeriphClockSelection) & RCC_PERIPHCLK_SAI23) == RCC_PERIPHCLK_SAI23)
 8101a24:	687b      	ldr	r3, [r7, #4]
 8101a26:	681b      	ldr	r3, [r3, #0]
 8101a28:	f403 7300 	and.w	r3, r3, #512	; 0x200
 8101a2c:	2b00      	cmp	r3, #0
 8101a2e:	d042      	beq.n	8101ab6 <HAL_RCCEx_PeriphCLKConfig+0x1b6>
  {
    switch(PeriphClkInit->Sai23ClockSelection)
 8101a30:	687b      	ldr	r3, [r7, #4]
 8101a32:	6d9b      	ldr	r3, [r3, #88]	; 0x58
 8101a34:	f5b3 7f80 	cmp.w	r3, #256	; 0x100
 8101a38:	d02b      	beq.n	8101a92 <HAL_RCCEx_PeriphCLKConfig+0x192>
 8101a3a:	f5b3 7f80 	cmp.w	r3, #256	; 0x100
 8101a3e:	d825      	bhi.n	8101a8c <HAL_RCCEx_PeriphCLKConfig+0x18c>
 8101a40:	2bc0      	cmp	r3, #192	; 0xc0
 8101a42:	d028      	beq.n	8101a96 <HAL_RCCEx_PeriphCLKConfig+0x196>
 8101a44:	2bc0      	cmp	r3, #192	; 0xc0
 8101a46:	d821      	bhi.n	8101a8c <HAL_RCCEx_PeriphCLKConfig+0x18c>
 8101a48:	2b80      	cmp	r3, #128	; 0x80
 8101a4a:	d016      	beq.n	8101a7a <HAL_RCCEx_PeriphCLKConfig+0x17a>
 8101a4c:	2b80      	cmp	r3, #128	; 0x80
 8101a4e:	d81d      	bhi.n	8101a8c <HAL_RCCEx_PeriphCLKConfig+0x18c>
 8101a50:	2b00      	cmp	r3, #0
 8101a52:	d002      	beq.n	8101a5a <HAL_RCCEx_PeriphCLKConfig+0x15a>
 8101a54:	2b40      	cmp	r3, #64	; 0x40
 8101a56:	d007      	beq.n	8101a68 <HAL_RCCEx_PeriphCLKConfig+0x168>
 8101a58:	e018      	b.n	8101a8c <HAL_RCCEx_PeriphCLKConfig+0x18c>
    {
    case RCC_SAI23CLKSOURCE_PLL:      /* PLL is used as clock source for SAI2/3 */
      /* Enable SAI Clock output generated form System PLL . */
      __HAL_RCC_PLLCLKOUT_ENABLE(RCC_PLL1_DIVQ);
 8101a5a:	4b5e      	ldr	r3, [pc, #376]	; (8101bd4 <HAL_RCCEx_PeriphCLKConfig+0x2d4>)
 8101a5c:	6adb      	ldr	r3, [r3, #44]	; 0x2c
 8101a5e:	4a5d      	ldr	r2, [pc, #372]	; (8101bd4 <HAL_RCCEx_PeriphCLKConfig+0x2d4>)
 8101a60:	f443 3300 	orr.w	r3, r3, #131072	; 0x20000
 8101a64:	62d3      	str	r3, [r2, #44]	; 0x2c

      /* SAI2/3 clock source configuration done later after clock selection check */
      break;
 8101a66:	e017      	b.n	8101a98 <HAL_RCCEx_PeriphCLKConfig+0x198>

    case RCC_SAI23CLKSOURCE_PLL2: /* PLL2 is used as clock source for SAI2/3 */

      ret = RCCEx_PLL2_Config(&(PeriphClkInit->PLL2),DIVIDER_P_UPDATE);
 8101a68:	687b      	ldr	r3, [r7, #4]
 8101a6a:	3304      	adds	r3, #4
 8101a6c:	2100      	movs	r1, #0
 8101a6e:	4618      	mov	r0, r3
 8101a70:	f001 f94a 	bl	8102d08 <RCCEx_PLL2_Config>
 8101a74:	4603      	mov	r3, r0
 8101a76:	75fb      	strb	r3, [r7, #23]

      /* SAI2/3 clock source configuration done later after clock selection check */
      break;
 8101a78:	e00e      	b.n	8101a98 <HAL_RCCEx_PeriphCLKConfig+0x198>

    case RCC_SAI23CLKSOURCE_PLL3:  /* PLL3 is used as clock source for SAI2/3 */
      ret = RCCEx_PLL3_Config(&(PeriphClkInit->PLL3),DIVIDER_P_UPDATE);
 8101a7a:	687b      	ldr	r3, [r7, #4]
 8101a7c:	3324      	adds	r3, #36	; 0x24
 8101a7e:	2100      	movs	r1, #0
 8101a80:	4618      	mov	r0, r3
 8101a82:	f001 f9f3 	bl	8102e6c <RCCEx_PLL3_Config>
 8101a86:	4603      	mov	r3, r0
 8101a88:	75fb      	strb	r3, [r7, #23]

      /* SAI2/3 clock source configuration done later after clock selection check */
      break;
 8101a8a:	e005      	b.n	8101a98 <HAL_RCCEx_PeriphCLKConfig+0x198>
      /* HSI, HSE, or CSI oscillator is used as source of SAI2/3 clock */
      /* SAI2/3 clock source configuration done later after clock selection check */
      break;

    default:
      ret = HAL_ERROR;
 8101a8c:	2301      	movs	r3, #1
 8101a8e:	75fb      	strb	r3, [r7, #23]
      break;
 8101a90:	e002      	b.n	8101a98 <HAL_RCCEx_PeriphCLKConfig+0x198>
      break;
 8101a92:	bf00      	nop
 8101a94:	e000      	b.n	8101a98 <HAL_RCCEx_PeriphCLKConfig+0x198>
      break;
 8101a96:	bf00      	nop
    }

    if(ret == HAL_OK)
 8101a98:	7dfb      	ldrb	r3, [r7, #23]
 8101a9a:	2b00      	cmp	r3, #0
 8101a9c:	d109      	bne.n	8101ab2 <HAL_RCCEx_PeriphCLKConfig+0x1b2>
    {
      /* Set the source of SAI2/3 clock*/
      __HAL_RCC_SAI23_CONFIG(PeriphClkInit->Sai23ClockSelection);
 8101a9e:	4b4d      	ldr	r3, [pc, #308]	; (8101bd4 <HAL_RCCEx_PeriphCLKConfig+0x2d4>)
 8101aa0:	6d1b      	ldr	r3, [r3, #80]	; 0x50
 8101aa2:	f423 72e0 	bic.w	r2, r3, #448	; 0x1c0
 8101aa6:	687b      	ldr	r3, [r7, #4]
 8101aa8:	6d9b      	ldr	r3, [r3, #88]	; 0x58
 8101aaa:	494a      	ldr	r1, [pc, #296]	; (8101bd4 <HAL_RCCEx_PeriphCLKConfig+0x2d4>)
 8101aac:	4313      	orrs	r3, r2
 8101aae:	650b      	str	r3, [r1, #80]	; 0x50
 8101ab0:	e001      	b.n	8101ab6 <HAL_RCCEx_PeriphCLKConfig+0x1b6>
    }
    else
    {
      /* set overall return value */
      status = ret;
 8101ab2:	7dfb      	ldrb	r3, [r7, #23]
 8101ab4:	75bb      	strb	r3, [r7, #22]
  }
#endif  /*SAI2B*/

#if defined(SAI4)
  /*---------------------------- SAI4A configuration -------------------------------*/
  if(((PeriphClkInit->PeriphClockSelection) & RCC_PERIPHCLK_SAI4A) == RCC_PERIPHCLK_SAI4A)
 8101ab6:	687b      	ldr	r3, [r7, #4]
 8101ab8:	681b      	ldr	r3, [r3, #0]
 8101aba:	f403 6380 	and.w	r3, r3, #1024	; 0x400
 8101abe:	2b00      	cmp	r3, #0
 8101ac0:	d049      	beq.n	8101b56 <HAL_RCCEx_PeriphCLKConfig+0x256>
  {
    switch(PeriphClkInit->Sai4AClockSelection)
 8101ac2:	687b      	ldr	r3, [r7, #4]
 8101ac4:	f8d3 30a4 	ldr.w	r3, [r3, #164]	; 0xa4
 8101ac8:	f5b3 0f00 	cmp.w	r3, #8388608	; 0x800000
 8101acc:	d030      	beq.n	8101b30 <HAL_RCCEx_PeriphCLKConfig+0x230>
 8101ace:	f5b3 0f00 	cmp.w	r3, #8388608	; 0x800000
 8101ad2:	d82a      	bhi.n	8101b2a <HAL_RCCEx_PeriphCLKConfig+0x22a>
 8101ad4:	f5b3 0fc0 	cmp.w	r3, #6291456	; 0x600000
 8101ad8:	d02c      	beq.n	8101b34 <HAL_RCCEx_PeriphCLKConfig+0x234>
 8101ada:	f5b3 0fc0 	cmp.w	r3, #6291456	; 0x600000
 8101ade:	d824      	bhi.n	8101b2a <HAL_RCCEx_PeriphCLKConfig+0x22a>
 8101ae0:	f5b3 0f80 	cmp.w	r3, #4194304	; 0x400000
 8101ae4:	d018      	beq.n	8101b18 <HAL_RCCEx_PeriphCLKConfig+0x218>
 8101ae6:	f5b3 0f80 	cmp.w	r3, #4194304	; 0x400000
 8101aea:	d81e      	bhi.n	8101b2a <HAL_RCCEx_PeriphCLKConfig+0x22a>
 8101aec:	2b00      	cmp	r3, #0
 8101aee:	d003      	beq.n	8101af8 <HAL_RCCEx_PeriphCLKConfig+0x1f8>
 8101af0:	f5b3 1f00 	cmp.w	r3, #2097152	; 0x200000
 8101af4:	d007      	beq.n	8101b06 <HAL_RCCEx_PeriphCLKConfig+0x206>
 8101af6:	e018      	b.n	8101b2a <HAL_RCCEx_PeriphCLKConfig+0x22a>
    {
    case RCC_SAI4ACLKSOURCE_PLL:      /* PLL is used as clock source for SAI2*/
      /* Enable SAI Clock output generated form System PLL . */
      __HAL_RCC_PLLCLKOUT_ENABLE(RCC_PLL1_DIVQ);
 8101af8:	4b36      	ldr	r3, [pc, #216]	; (8101bd4 <HAL_RCCEx_PeriphCLKConfig+0x2d4>)
 8101afa:	6adb      	ldr	r3, [r3, #44]	; 0x2c
 8101afc:	4a35      	ldr	r2, [pc, #212]	; (8101bd4 <HAL_RCCEx_PeriphCLKConfig+0x2d4>)
 8101afe:	f443 3300 	orr.w	r3, r3, #131072	; 0x20000
 8101b02:	62d3      	str	r3, [r2, #44]	; 0x2c

      /* SAI1 clock source configuration done later after clock selection check */
      break;
 8101b04:	e017      	b.n	8101b36 <HAL_RCCEx_PeriphCLKConfig+0x236>

    case RCC_SAI4ACLKSOURCE_PLL2: /* PLL2 is used as clock source for SAI2*/

      ret = RCCEx_PLL2_Config(&(PeriphClkInit->PLL2),DIVIDER_P_UPDATE);
 8101b06:	687b      	ldr	r3, [r7, #4]
 8101b08:	3304      	adds	r3, #4
 8101b0a:	2100      	movs	r1, #0
 8101b0c:	4618      	mov	r0, r3
 8101b0e:	f001 f8fb 	bl	8102d08 <RCCEx_PLL2_Config>
 8101b12:	4603      	mov	r3, r0
 8101b14:	75fb      	strb	r3, [r7, #23]

      /* SAI2 clock source configuration done later after clock selection check */
      break;
 8101b16:	e00e      	b.n	8101b36 <HAL_RCCEx_PeriphCLKConfig+0x236>

    case RCC_SAI4ACLKSOURCE_PLL3:  /* PLL3 is used as clock source for SAI2*/
      ret = RCCEx_PLL3_Config(&(PeriphClkInit->PLL3),DIVIDER_P_UPDATE);
 8101b18:	687b      	ldr	r3, [r7, #4]
 8101b1a:	3324      	adds	r3, #36	; 0x24
 8101b1c:	2100      	movs	r1, #0
 8101b1e:	4618      	mov	r0, r3
 8101b20:	f001 f9a4 	bl	8102e6c <RCCEx_PLL3_Config>
 8101b24:	4603      	mov	r3, r0
 8101b26:	75fb      	strb	r3, [r7, #23]

      /* SAI1 clock source configuration done later after clock selection check */
      break;
 8101b28:	e005      	b.n	8101b36 <HAL_RCCEx_PeriphCLKConfig+0x236>
      /* SAI4A clock source configuration done later after clock selection check */
      break;
#endif /* RCC_VER_3_0 */

    default:
      ret = HAL_ERROR;
 8101b2a:	2301      	movs	r3, #1
 8101b2c:	75fb      	strb	r3, [r7, #23]
      break;
 8101b2e:	e002      	b.n	8101b36 <HAL_RCCEx_PeriphCLKConfig+0x236>
      break;
 8101b30:	bf00      	nop
 8101b32:	e000      	b.n	8101b36 <HAL_RCCEx_PeriphCLKConfig+0x236>
      break;
 8101b34:	bf00      	nop
    }

    if(ret == HAL_OK)
 8101b36:	7dfb      	ldrb	r3, [r7, #23]
 8101b38:	2b00      	cmp	r3, #0
 8101b3a:	d10a      	bne.n	8101b52 <HAL_RCCEx_PeriphCLKConfig+0x252>
    {
      /* Set the source of SAI4A clock*/
      __HAL_RCC_SAI4A_CONFIG(PeriphClkInit->Sai4AClockSelection);
 8101b3c:	4b25      	ldr	r3, [pc, #148]	; (8101bd4 <HAL_RCCEx_PeriphCLKConfig+0x2d4>)
 8101b3e:	6d9b      	ldr	r3, [r3, #88]	; 0x58
 8101b40:	f423 0260 	bic.w	r2, r3, #14680064	; 0xe00000
 8101b44:	687b      	ldr	r3, [r7, #4]
 8101b46:	f8d3 30a4 	ldr.w	r3, [r3, #164]	; 0xa4
 8101b4a:	4922      	ldr	r1, [pc, #136]	; (8101bd4 <HAL_RCCEx_PeriphCLKConfig+0x2d4>)
 8101b4c:	4313      	orrs	r3, r2
 8101b4e:	658b      	str	r3, [r1, #88]	; 0x58
 8101b50:	e001      	b.n	8101b56 <HAL_RCCEx_PeriphCLKConfig+0x256>
    }
    else
    {
      /* set overall return value */
      status = ret;
 8101b52:	7dfb      	ldrb	r3, [r7, #23]
 8101b54:	75bb      	strb	r3, [r7, #22]
    }
  }
  /*---------------------------- SAI4B configuration -------------------------------*/
  if(((PeriphClkInit->PeriphClockSelection) & RCC_PERIPHCLK_SAI4B) == RCC_PERIPHCLK_SAI4B)
 8101b56:	687b      	ldr	r3, [r7, #4]
 8101b58:	681b      	ldr	r3, [r3, #0]
 8101b5a:	f403 6300 	and.w	r3, r3, #2048	; 0x800
 8101b5e:	2b00      	cmp	r3, #0
 8101b60:	d04b      	beq.n	8101bfa <HAL_RCCEx_PeriphCLKConfig+0x2fa>
  {
    switch(PeriphClkInit->Sai4BClockSelection)
 8101b62:	687b      	ldr	r3, [r7, #4]
 8101b64:	f8d3 30a8 	ldr.w	r3, [r3, #168]	; 0xa8
 8101b68:	f1b3 6f80 	cmp.w	r3, #67108864	; 0x4000000
 8101b6c:	d030      	beq.n	8101bd0 <HAL_RCCEx_PeriphCLKConfig+0x2d0>
 8101b6e:	f1b3 6f80 	cmp.w	r3, #67108864	; 0x4000000
 8101b72:	d82a      	bhi.n	8101bca <HAL_RCCEx_PeriphCLKConfig+0x2ca>
 8101b74:	f1b3 7f40 	cmp.w	r3, #50331648	; 0x3000000
 8101b78:	d02e      	beq.n	8101bd8 <HAL_RCCEx_PeriphCLKConfig+0x2d8>
 8101b7a:	f1b3 7f40 	cmp.w	r3, #50331648	; 0x3000000
 8101b7e:	d824      	bhi.n	8101bca <HAL_RCCEx_PeriphCLKConfig+0x2ca>
 8101b80:	f1b3 7f00 	cmp.w	r3, #33554432	; 0x2000000
 8101b84:	d018      	beq.n	8101bb8 <HAL_RCCEx_PeriphCLKConfig+0x2b8>
 8101b86:	f1b3 7f00 	cmp.w	r3, #33554432	; 0x2000000
 8101b8a:	d81e      	bhi.n	8101bca <HAL_RCCEx_PeriphCLKConfig+0x2ca>
 8101b8c:	2b00      	cmp	r3, #0
 8101b8e:	d003      	beq.n	8101b98 <HAL_RCCEx_PeriphCLKConfig+0x298>
 8101b90:	f1b3 7f80 	cmp.w	r3, #16777216	; 0x1000000
 8101b94:	d007      	beq.n	8101ba6 <HAL_RCCEx_PeriphCLKConfig+0x2a6>
 8101b96:	e018      	b.n	8101bca <HAL_RCCEx_PeriphCLKConfig+0x2ca>
    {
    case RCC_SAI4BCLKSOURCE_PLL:      /* PLL is used as clock source for SAI2*/
      /* Enable SAI Clock output generated form System PLL . */
      __HAL_RCC_PLLCLKOUT_ENABLE(RCC_PLL1_DIVQ);
 8101b98:	4b0e      	ldr	r3, [pc, #56]	; (8101bd4 <HAL_RCCEx_PeriphCLKConfig+0x2d4>)
 8101b9a:	6adb      	ldr	r3, [r3, #44]	; 0x2c
 8101b9c:	4a0d      	ldr	r2, [pc, #52]	; (8101bd4 <HAL_RCCEx_PeriphCLKConfig+0x2d4>)
 8101b9e:	f443 3300 	orr.w	r3, r3, #131072	; 0x20000
 8101ba2:	62d3      	str	r3, [r2, #44]	; 0x2c

      /* SAI1 clock source configuration done later after clock selection check */
      break;
 8101ba4:	e019      	b.n	8101bda <HAL_RCCEx_PeriphCLKConfig+0x2da>

    case RCC_SAI4BCLKSOURCE_PLL2: /* PLL2 is used as clock source for SAI2*/

      ret = RCCEx_PLL2_Config(&(PeriphClkInit->PLL2),DIVIDER_P_UPDATE);
 8101ba6:	687b      	ldr	r3, [r7, #4]
 8101ba8:	3304      	adds	r3, #4
 8101baa:	2100      	movs	r1, #0
 8101bac:	4618      	mov	r0, r3
 8101bae:	f001 f8ab 	bl	8102d08 <RCCEx_PLL2_Config>
 8101bb2:	4603      	mov	r3, r0
 8101bb4:	75fb      	strb	r3, [r7, #23]

      /* SAI2 clock source configuration done later after clock selection check */
      break;
 8101bb6:	e010      	b.n	8101bda <HAL_RCCEx_PeriphCLKConfig+0x2da>

    case RCC_SAI4BCLKSOURCE_PLL3:  /* PLL3 is used as clock source for SAI2*/
      ret = RCCEx_PLL3_Config(&(PeriphClkInit->PLL3), DIVIDER_P_UPDATE);
 8101bb8:	687b      	ldr	r3, [r7, #4]
 8101bba:	3324      	adds	r3, #36	; 0x24
 8101bbc:	2100      	movs	r1, #0
 8101bbe:	4618      	mov	r0, r3
 8101bc0:	f001 f954 	bl	8102e6c <RCCEx_PLL3_Config>
 8101bc4:	4603      	mov	r3, r0
 8101bc6:	75fb      	strb	r3, [r7, #23]

      /* SAI1 clock source configuration done later after clock selection check */
      break;
 8101bc8:	e007      	b.n	8101bda <HAL_RCCEx_PeriphCLKConfig+0x2da>
      /* SAI4B clock source configuration done later after clock selection check */
      break;
#endif /* RCC_VER_3_0 */

    default:
      ret = HAL_ERROR;
 8101bca:	2301      	movs	r3, #1
 8101bcc:	75fb      	strb	r3, [r7, #23]
      break;
 8101bce:	e004      	b.n	8101bda <HAL_RCCEx_PeriphCLKConfig+0x2da>
      break;
 8101bd0:	bf00      	nop
 8101bd2:	e002      	b.n	8101bda <HAL_RCCEx_PeriphCLKConfig+0x2da>
 8101bd4:	58024400 	.word	0x58024400
      break;
 8101bd8:	bf00      	nop
    }

    if(ret == HAL_OK)
 8101bda:	7dfb      	ldrb	r3, [r7, #23]
 8101bdc:	2b00      	cmp	r3, #0
 8101bde:	d10a      	bne.n	8101bf6 <HAL_RCCEx_PeriphCLKConfig+0x2f6>
    {
      /* Set the source of SAI4B clock*/
      __HAL_RCC_SAI4B_CONFIG(PeriphClkInit->Sai4BClockSelection);
 8101be0:	4b99      	ldr	r3, [pc, #612]	; (8101e48 <HAL_RCCEx_PeriphCLKConfig+0x548>)
 8101be2:	6d9b      	ldr	r3, [r3, #88]	; 0x58
 8101be4:	f023 62e0 	bic.w	r2, r3, #117440512	; 0x7000000
 8101be8:	687b      	ldr	r3, [r7, #4]
 8101bea:	f8d3 30a8 	ldr.w	r3, [r3, #168]	; 0xa8
 8101bee:	4996      	ldr	r1, [pc, #600]	; (8101e48 <HAL_RCCEx_PeriphCLKConfig+0x548>)
 8101bf0:	4313      	orrs	r3, r2
 8101bf2:	658b      	str	r3, [r1, #88]	; 0x58
 8101bf4:	e001      	b.n	8101bfa <HAL_RCCEx_PeriphCLKConfig+0x2fa>
    }
    else
    {
      /* set overall return value */
      status = ret;
 8101bf6:	7dfb      	ldrb	r3, [r7, #23]
 8101bf8:	75bb      	strb	r3, [r7, #22]
  }
#endif  /*SAI4*/

#if defined(QUADSPI)
  /*---------------------------- QSPI configuration -------------------------------*/
  if(((PeriphClkInit->PeriphClockSelection) & RCC_PERIPHCLK_QSPI) == RCC_PERIPHCLK_QSPI)
 8101bfa:	687b      	ldr	r3, [r7, #4]
 8101bfc:	681b      	ldr	r3, [r3, #0]
 8101bfe:	f003 7300 	and.w	r3, r3, #33554432	; 0x2000000
 8101c02:	2b00      	cmp	r3, #0
 8101c04:	d032      	beq.n	8101c6c <HAL_RCCEx_PeriphCLKConfig+0x36c>
  {
    switch(PeriphClkInit->QspiClockSelection)
 8101c06:	687b      	ldr	r3, [r7, #4]
 8101c08:	6c9b      	ldr	r3, [r3, #72]	; 0x48
 8101c0a:	2b30      	cmp	r3, #48	; 0x30
 8101c0c:	d01c      	beq.n	8101c48 <HAL_RCCEx_PeriphCLKConfig+0x348>
 8101c0e:	2b30      	cmp	r3, #48	; 0x30
 8101c10:	d817      	bhi.n	8101c42 <HAL_RCCEx_PeriphCLKConfig+0x342>
 8101c12:	2b20      	cmp	r3, #32
 8101c14:	d00c      	beq.n	8101c30 <HAL_RCCEx_PeriphCLKConfig+0x330>
 8101c16:	2b20      	cmp	r3, #32
 8101c18:	d813      	bhi.n	8101c42 <HAL_RCCEx_PeriphCLKConfig+0x342>
 8101c1a:	2b00      	cmp	r3, #0
 8101c1c:	d016      	beq.n	8101c4c <HAL_RCCEx_PeriphCLKConfig+0x34c>
 8101c1e:	2b10      	cmp	r3, #16
 8101c20:	d10f      	bne.n	8101c42 <HAL_RCCEx_PeriphCLKConfig+0x342>
    {
    case RCC_QSPICLKSOURCE_PLL:      /* PLL is used as clock source for QSPI*/
      /* Enable QSPI Clock output generated form System PLL . */
      __HAL_RCC_PLLCLKOUT_ENABLE(RCC_PLL1_DIVQ);
 8101c22:	4b89      	ldr	r3, [pc, #548]	; (8101e48 <HAL_RCCEx_PeriphCLKConfig+0x548>)
 8101c24:	6adb      	ldr	r3, [r3, #44]	; 0x2c
 8101c26:	4a88      	ldr	r2, [pc, #544]	; (8101e48 <HAL_RCCEx_PeriphCLKConfig+0x548>)
 8101c28:	f443 3300 	orr.w	r3, r3, #131072	; 0x20000
 8101c2c:	62d3      	str	r3, [r2, #44]	; 0x2c

      /* QSPI clock source configuration done later after clock selection check */
      break;
 8101c2e:	e00e      	b.n	8101c4e <HAL_RCCEx_PeriphCLKConfig+0x34e>

    case RCC_QSPICLKSOURCE_PLL2: /* PLL2 is used as clock source for QSPI*/

      ret = RCCEx_PLL2_Config(&(PeriphClkInit->PLL2),DIVIDER_R_UPDATE);
 8101c30:	687b      	ldr	r3, [r7, #4]
 8101c32:	3304      	adds	r3, #4
 8101c34:	2102      	movs	r1, #2
 8101c36:	4618      	mov	r0, r3
 8101c38:	f001 f866 	bl	8102d08 <RCCEx_PLL2_Config>
 8101c3c:	4603      	mov	r3, r0
 8101c3e:	75fb      	strb	r3, [r7, #23]

      /* QSPI clock source configuration done later after clock selection check */
      break;
 8101c40:	e005      	b.n	8101c4e <HAL_RCCEx_PeriphCLKConfig+0x34e>
    case RCC_QSPICLKSOURCE_D1HCLK:
      /* Domain1 HCLK  clock selected as QSPI kernel peripheral clock */
      break;

    default:
      ret = HAL_ERROR;
 8101c42:	2301      	movs	r3, #1
 8101c44:	75fb      	strb	r3, [r7, #23]
      break;
 8101c46:	e002      	b.n	8101c4e <HAL_RCCEx_PeriphCLKConfig+0x34e>
      break;
 8101c48:	bf00      	nop
 8101c4a:	e000      	b.n	8101c4e <HAL_RCCEx_PeriphCLKConfig+0x34e>
      break;
 8101c4c:	bf00      	nop
    }

    if(ret == HAL_OK)
 8101c4e:	7dfb      	ldrb	r3, [r7, #23]
 8101c50:	2b00      	cmp	r3, #0
 8101c52:	d109      	bne.n	8101c68 <HAL_RCCEx_PeriphCLKConfig+0x368>
    {
      /* Set the source of QSPI clock*/
      __HAL_RCC_QSPI_CONFIG(PeriphClkInit->QspiClockSelection);
 8101c54:	4b7c      	ldr	r3, [pc, #496]	; (8101e48 <HAL_RCCEx_PeriphCLKConfig+0x548>)
 8101c56:	6cdb      	ldr	r3, [r3, #76]	; 0x4c
 8101c58:	f023 0230 	bic.w	r2, r3, #48	; 0x30
 8101c5c:	687b      	ldr	r3, [r7, #4]
 8101c5e:	6c9b      	ldr	r3, [r3, #72]	; 0x48
 8101c60:	4979      	ldr	r1, [pc, #484]	; (8101e48 <HAL_RCCEx_PeriphCLKConfig+0x548>)
 8101c62:	4313      	orrs	r3, r2
 8101c64:	64cb      	str	r3, [r1, #76]	; 0x4c
 8101c66:	e001      	b.n	8101c6c <HAL_RCCEx_PeriphCLKConfig+0x36c>
    }
    else
    {
      /* set overall return value */
      status = ret;
 8101c68:	7dfb      	ldrb	r3, [r7, #23]
 8101c6a:	75bb      	strb	r3, [r7, #22]
    }
  }
#endif  /*OCTOSPI*/

  /*---------------------------- SPI1/2/3 configuration -------------------------------*/
  if(((PeriphClkInit->PeriphClockSelection) & RCC_PERIPHCLK_SPI123) == RCC_PERIPHCLK_SPI123)
 8101c6c:	687b      	ldr	r3, [r7, #4]
 8101c6e:	681b      	ldr	r3, [r3, #0]
 8101c70:	f403 5380 	and.w	r3, r3, #4096	; 0x1000
 8101c74:	2b00      	cmp	r3, #0
 8101c76:	d047      	beq.n	8101d08 <HAL_RCCEx_PeriphCLKConfig+0x408>
  {
    switch(PeriphClkInit->Spi123ClockSelection)
 8101c78:	687b      	ldr	r3, [r7, #4]
 8101c7a:	6ddb      	ldr	r3, [r3, #92]	; 0x5c
 8101c7c:	f5b3 4f80 	cmp.w	r3, #16384	; 0x4000
 8101c80:	d030      	beq.n	8101ce4 <HAL_RCCEx_PeriphCLKConfig+0x3e4>
 8101c82:	f5b3 4f80 	cmp.w	r3, #16384	; 0x4000
 8101c86:	d82a      	bhi.n	8101cde <HAL_RCCEx_PeriphCLKConfig+0x3de>
 8101c88:	f5b3 5f40 	cmp.w	r3, #12288	; 0x3000
 8101c8c:	d02c      	beq.n	8101ce8 <HAL_RCCEx_PeriphCLKConfig+0x3e8>
 8101c8e:	f5b3 5f40 	cmp.w	r3, #12288	; 0x3000
 8101c92:	d824      	bhi.n	8101cde <HAL_RCCEx_PeriphCLKConfig+0x3de>
 8101c94:	f5b3 5f00 	cmp.w	r3, #8192	; 0x2000
 8101c98:	d018      	beq.n	8101ccc <HAL_RCCEx_PeriphCLKConfig+0x3cc>
 8101c9a:	f5b3 5f00 	cmp.w	r3, #8192	; 0x2000
 8101c9e:	d81e      	bhi.n	8101cde <HAL_RCCEx_PeriphCLKConfig+0x3de>
 8101ca0:	2b00      	cmp	r3, #0
 8101ca2:	d003      	beq.n	8101cac <HAL_RCCEx_PeriphCLKConfig+0x3ac>
 8101ca4:	f5b3 5f80 	cmp.w	r3, #4096	; 0x1000
 8101ca8:	d007      	beq.n	8101cba <HAL_RCCEx_PeriphCLKConfig+0x3ba>
 8101caa:	e018      	b.n	8101cde <HAL_RCCEx_PeriphCLKConfig+0x3de>
    {
    case RCC_SPI123CLKSOURCE_PLL:      /* PLL is used as clock source for SPI1/2/3 */
      /* Enable SPI Clock output generated form System PLL . */
      __HAL_RCC_PLLCLKOUT_ENABLE(RCC_PLL1_DIVQ);
 8101cac:	4b66      	ldr	r3, [pc, #408]	; (8101e48 <HAL_RCCEx_PeriphCLKConfig+0x548>)
 8101cae:	6adb      	ldr	r3, [r3, #44]	; 0x2c
 8101cb0:	4a65      	ldr	r2, [pc, #404]	; (8101e48 <HAL_RCCEx_PeriphCLKConfig+0x548>)
 8101cb2:	f443 3300 	orr.w	r3, r3, #131072	; 0x20000
 8101cb6:	62d3      	str	r3, [r2, #44]	; 0x2c

      /* SPI1/2/3 clock source configuration done later after clock selection check */
      break;
 8101cb8:	e017      	b.n	8101cea <HAL_RCCEx_PeriphCLKConfig+0x3ea>

    case RCC_SPI123CLKSOURCE_PLL2: /* PLL2 is used as clock source for SPI1/2/3 */
      ret = RCCEx_PLL2_Config(&(PeriphClkInit->PLL2),DIVIDER_P_UPDATE);
 8101cba:	687b      	ldr	r3, [r7, #4]
 8101cbc:	3304      	adds	r3, #4
 8101cbe:	2100      	movs	r1, #0
 8101cc0:	4618      	mov	r0, r3
 8101cc2:	f001 f821 	bl	8102d08 <RCCEx_PLL2_Config>
 8101cc6:	4603      	mov	r3, r0
 8101cc8:	75fb      	strb	r3, [r7, #23]

      /* SPI1/2/3 clock source configuration done later after clock selection check */
      break;
 8101cca:	e00e      	b.n	8101cea <HAL_RCCEx_PeriphCLKConfig+0x3ea>

    case RCC_SPI123CLKSOURCE_PLL3:  /* PLL3 is used as clock source for SPI1/2/3 */
      ret = RCCEx_PLL3_Config(&(PeriphClkInit->PLL3),DIVIDER_P_UPDATE);
 8101ccc:	687b      	ldr	r3, [r7, #4]
 8101cce:	3324      	adds	r3, #36	; 0x24
 8101cd0:	2100      	movs	r1, #0
 8101cd2:	4618      	mov	r0, r3
 8101cd4:	f001 f8ca 	bl	8102e6c <RCCEx_PLL3_Config>
 8101cd8:	4603      	mov	r3, r0
 8101cda:	75fb      	strb	r3, [r7, #23]

      /* SPI1/2/3 clock source configuration done later after clock selection check */
      break;
 8101cdc:	e005      	b.n	8101cea <HAL_RCCEx_PeriphCLKConfig+0x3ea>
      /* HSI, HSE, or CSI oscillator is used as source of SPI1/2/3 clock */
      /* SPI1/2/3 clock source configuration done later after clock selection check */
      break;

    default:
      ret = HAL_ERROR;
 8101cde:	2301      	movs	r3, #1
 8101ce0:	75fb      	strb	r3, [r7, #23]
      break;
 8101ce2:	e002      	b.n	8101cea <HAL_RCCEx_PeriphCLKConfig+0x3ea>
      break;
 8101ce4:	bf00      	nop
 8101ce6:	e000      	b.n	8101cea <HAL_RCCEx_PeriphCLKConfig+0x3ea>
      break;
 8101ce8:	bf00      	nop
    }

    if(ret == HAL_OK)
 8101cea:	7dfb      	ldrb	r3, [r7, #23]
 8101cec:	2b00      	cmp	r3, #0
 8101cee:	d109      	bne.n	8101d04 <HAL_RCCEx_PeriphCLKConfig+0x404>
    {
      /* Set the source of SPI1/2/3 clock*/
      __HAL_RCC_SPI123_CONFIG(PeriphClkInit->Spi123ClockSelection);
 8101cf0:	4b55      	ldr	r3, [pc, #340]	; (8101e48 <HAL_RCCEx_PeriphCLKConfig+0x548>)
 8101cf2:	6d1b      	ldr	r3, [r3, #80]	; 0x50
 8101cf4:	f423 42e0 	bic.w	r2, r3, #28672	; 0x7000
 8101cf8:	687b      	ldr	r3, [r7, #4]
 8101cfa:	6ddb      	ldr	r3, [r3, #92]	; 0x5c
 8101cfc:	4952      	ldr	r1, [pc, #328]	; (8101e48 <HAL_RCCEx_PeriphCLKConfig+0x548>)
 8101cfe:	4313      	orrs	r3, r2
 8101d00:	650b      	str	r3, [r1, #80]	; 0x50
 8101d02:	e001      	b.n	8101d08 <HAL_RCCEx_PeriphCLKConfig+0x408>
    }
    else
    {
      /* set overall return value */
      status = ret;
 8101d04:	7dfb      	ldrb	r3, [r7, #23]
 8101d06:	75bb      	strb	r3, [r7, #22]
    }
  }

  /*---------------------------- SPI4/5 configuration -------------------------------*/
  if(((PeriphClkInit->PeriphClockSelection) & RCC_PERIPHCLK_SPI45) == RCC_PERIPHCLK_SPI45)
 8101d08:	687b      	ldr	r3, [r7, #4]
 8101d0a:	681b      	ldr	r3, [r3, #0]
 8101d0c:	f403 5300 	and.w	r3, r3, #8192	; 0x2000
 8101d10:	2b00      	cmp	r3, #0
 8101d12:	d049      	beq.n	8101da8 <HAL_RCCEx_PeriphCLKConfig+0x4a8>
  {
    switch(PeriphClkInit->Spi45ClockSelection)
 8101d14:	687b      	ldr	r3, [r7, #4]
 8101d16:	6e1b      	ldr	r3, [r3, #96]	; 0x60
 8101d18:	f5b3 2fa0 	cmp.w	r3, #327680	; 0x50000
 8101d1c:	d02e      	beq.n	8101d7c <HAL_RCCEx_PeriphCLKConfig+0x47c>
 8101d1e:	f5b3 2fa0 	cmp.w	r3, #327680	; 0x50000
 8101d22:	d828      	bhi.n	8101d76 <HAL_RCCEx_PeriphCLKConfig+0x476>
 8101d24:	f5b3 2f80 	cmp.w	r3, #262144	; 0x40000
 8101d28:	d02a      	beq.n	8101d80 <HAL_RCCEx_PeriphCLKConfig+0x480>
 8101d2a:	f5b3 2f80 	cmp.w	r3, #262144	; 0x40000
 8101d2e:	d822      	bhi.n	8101d76 <HAL_RCCEx_PeriphCLKConfig+0x476>
 8101d30:	f5b3 3f40 	cmp.w	r3, #196608	; 0x30000
 8101d34:	d026      	beq.n	8101d84 <HAL_RCCEx_PeriphCLKConfig+0x484>
 8101d36:	f5b3 3f40 	cmp.w	r3, #196608	; 0x30000
 8101d3a:	d81c      	bhi.n	8101d76 <HAL_RCCEx_PeriphCLKConfig+0x476>
 8101d3c:	f5b3 3f00 	cmp.w	r3, #131072	; 0x20000
 8101d40:	d010      	beq.n	8101d64 <HAL_RCCEx_PeriphCLKConfig+0x464>
 8101d42:	f5b3 3f00 	cmp.w	r3, #131072	; 0x20000
 8101d46:	d816      	bhi.n	8101d76 <HAL_RCCEx_PeriphCLKConfig+0x476>
 8101d48:	2b00      	cmp	r3, #0
 8101d4a:	d01d      	beq.n	8101d88 <HAL_RCCEx_PeriphCLKConfig+0x488>
 8101d4c:	f5b3 3f80 	cmp.w	r3, #65536	; 0x10000
 8101d50:	d111      	bne.n	8101d76 <HAL_RCCEx_PeriphCLKConfig+0x476>
      /* SPI4/5 clock source configuration done later after clock selection check */
      break;

    case RCC_SPI45CLKSOURCE_PLL2: /* PLL2 is used as clock source for SPI4/5 */

      ret = RCCEx_PLL2_Config(&(PeriphClkInit->PLL2),DIVIDER_Q_UPDATE);
 8101d52:	687b      	ldr	r3, [r7, #4]
 8101d54:	3304      	adds	r3, #4
 8101d56:	2101      	movs	r1, #1
 8101d58:	4618      	mov	r0, r3
 8101d5a:	f000 ffd5 	bl	8102d08 <RCCEx_PLL2_Config>
 8101d5e:	4603      	mov	r3, r0
 8101d60:	75fb      	strb	r3, [r7, #23]

      /* SPI4/5 clock source configuration done later after clock selection check */
      break;
 8101d62:	e012      	b.n	8101d8a <HAL_RCCEx_PeriphCLKConfig+0x48a>
    case RCC_SPI45CLKSOURCE_PLL3:  /* PLL3 is used as clock source for SPI4/5 */
      ret = RCCEx_PLL3_Config(&(PeriphClkInit->PLL3),DIVIDER_Q_UPDATE);
 8101d64:	687b      	ldr	r3, [r7, #4]
 8101d66:	3324      	adds	r3, #36	; 0x24
 8101d68:	2101      	movs	r1, #1
 8101d6a:	4618      	mov	r0, r3
 8101d6c:	f001 f87e 	bl	8102e6c <RCCEx_PLL3_Config>
 8101d70:	4603      	mov	r3, r0
 8101d72:	75fb      	strb	r3, [r7, #23]
      /* SPI4/5 clock source configuration done later after clock selection check */
      break;
 8101d74:	e009      	b.n	8101d8a <HAL_RCCEx_PeriphCLKConfig+0x48a>
      /* HSE,  oscillator is used as source of SPI4/5 clock */
      /* SPI4/5 clock source configuration done later after clock selection check */
      break;

    default:
      ret = HAL_ERROR;
 8101d76:	2301      	movs	r3, #1
 8101d78:	75fb      	strb	r3, [r7, #23]
      break;
 8101d7a:	e006      	b.n	8101d8a <HAL_RCCEx_PeriphCLKConfig+0x48a>
      break;
 8101d7c:	bf00      	nop
 8101d7e:	e004      	b.n	8101d8a <HAL_RCCEx_PeriphCLKConfig+0x48a>
      break;
 8101d80:	bf00      	nop
 8101d82:	e002      	b.n	8101d8a <HAL_RCCEx_PeriphCLKConfig+0x48a>
      break;
 8101d84:	bf00      	nop
 8101d86:	e000      	b.n	8101d8a <HAL_RCCEx_PeriphCLKConfig+0x48a>
      break;
 8101d88:	bf00      	nop
    }

    if(ret == HAL_OK)
 8101d8a:	7dfb      	ldrb	r3, [r7, #23]
 8101d8c:	2b00      	cmp	r3, #0
 8101d8e:	d109      	bne.n	8101da4 <HAL_RCCEx_PeriphCLKConfig+0x4a4>
    {
      /* Set the source of SPI4/5 clock*/
      __HAL_RCC_SPI45_CONFIG(PeriphClkInit->Spi45ClockSelection);
 8101d90:	4b2d      	ldr	r3, [pc, #180]	; (8101e48 <HAL_RCCEx_PeriphCLKConfig+0x548>)
 8101d92:	6d1b      	ldr	r3, [r3, #80]	; 0x50
 8101d94:	f423 22e0 	bic.w	r2, r3, #458752	; 0x70000
 8101d98:	687b      	ldr	r3, [r7, #4]
 8101d9a:	6e1b      	ldr	r3, [r3, #96]	; 0x60
 8101d9c:	492a      	ldr	r1, [pc, #168]	; (8101e48 <HAL_RCCEx_PeriphCLKConfig+0x548>)
 8101d9e:	4313      	orrs	r3, r2
 8101da0:	650b      	str	r3, [r1, #80]	; 0x50
 8101da2:	e001      	b.n	8101da8 <HAL_RCCEx_PeriphCLKConfig+0x4a8>
    }
    else
    {
      /* set overall return value */
      status = ret;
 8101da4:	7dfb      	ldrb	r3, [r7, #23]
 8101da6:	75bb      	strb	r3, [r7, #22]
    }
  }

  /*---------------------------- SPI6 configuration -------------------------------*/
  if(((PeriphClkInit->PeriphClockSelection) & RCC_PERIPHCLK_SPI6) == RCC_PERIPHCLK_SPI6)
 8101da8:	687b      	ldr	r3, [r7, #4]
 8101daa:	681b      	ldr	r3, [r3, #0]
 8101dac:	f403 4380 	and.w	r3, r3, #16384	; 0x4000
 8101db0:	2b00      	cmp	r3, #0
 8101db2:	d04d      	beq.n	8101e50 <HAL_RCCEx_PeriphCLKConfig+0x550>
  {
    switch(PeriphClkInit->Spi6ClockSelection)
 8101db4:	687b      	ldr	r3, [r7, #4]
 8101db6:	f8d3 30ac 	ldr.w	r3, [r3, #172]	; 0xac
 8101dba:	f1b3 4fa0 	cmp.w	r3, #1342177280	; 0x50000000
 8101dbe:	d02e      	beq.n	8101e1e <HAL_RCCEx_PeriphCLKConfig+0x51e>
 8101dc0:	f1b3 4fa0 	cmp.w	r3, #1342177280	; 0x50000000
 8101dc4:	d828      	bhi.n	8101e18 <HAL_RCCEx_PeriphCLKConfig+0x518>
 8101dc6:	f1b3 4f80 	cmp.w	r3, #1073741824	; 0x40000000
 8101dca:	d02a      	beq.n	8101e22 <HAL_RCCEx_PeriphCLKConfig+0x522>
 8101dcc:	f1b3 4f80 	cmp.w	r3, #1073741824	; 0x40000000
 8101dd0:	d822      	bhi.n	8101e18 <HAL_RCCEx_PeriphCLKConfig+0x518>
 8101dd2:	f1b3 5f40 	cmp.w	r3, #805306368	; 0x30000000
 8101dd6:	d026      	beq.n	8101e26 <HAL_RCCEx_PeriphCLKConfig+0x526>
 8101dd8:	f1b3 5f40 	cmp.w	r3, #805306368	; 0x30000000
 8101ddc:	d81c      	bhi.n	8101e18 <HAL_RCCEx_PeriphCLKConfig+0x518>
 8101dde:	f1b3 5f00 	cmp.w	r3, #536870912	; 0x20000000
 8101de2:	d010      	beq.n	8101e06 <HAL_RCCEx_PeriphCLKConfig+0x506>
 8101de4:	f1b3 5f00 	cmp.w	r3, #536870912	; 0x20000000
 8101de8:	d816      	bhi.n	8101e18 <HAL_RCCEx_PeriphCLKConfig+0x518>
 8101dea:	2b00      	cmp	r3, #0
 8101dec:	d01d      	beq.n	8101e2a <HAL_RCCEx_PeriphCLKConfig+0x52a>
 8101dee:	f1b3 5f80 	cmp.w	r3, #268435456	; 0x10000000
 8101df2:	d111      	bne.n	8101e18 <HAL_RCCEx_PeriphCLKConfig+0x518>
      /* SPI6 clock source configuration done later after clock selection check */
      break;

    case RCC_SPI6CLKSOURCE_PLL2: /* PLL2 is used as clock source for SPI6*/

      ret = RCCEx_PLL2_Config(&(PeriphClkInit->PLL2),DIVIDER_Q_UPDATE);
 8101df4:	687b      	ldr	r3, [r7, #4]
 8101df6:	3304      	adds	r3, #4
 8101df8:	2101      	movs	r1, #1
 8101dfa:	4618      	mov	r0, r3
 8101dfc:	f000 ff84 	bl	8102d08 <RCCEx_PLL2_Config>
 8101e00:	4603      	mov	r3, r0
 8101e02:	75fb      	strb	r3, [r7, #23]

      /* SPI6 clock source configuration done later after clock selection check */
      break;
 8101e04:	e012      	b.n	8101e2c <HAL_RCCEx_PeriphCLKConfig+0x52c>
    case RCC_SPI6CLKSOURCE_PLL3:  /* PLL3 is used as clock source for SPI6*/
      ret = RCCEx_PLL3_Config(&(PeriphClkInit->PLL3),DIVIDER_Q_UPDATE);
 8101e06:	687b      	ldr	r3, [r7, #4]
 8101e08:	3324      	adds	r3, #36	; 0x24
 8101e0a:	2101      	movs	r1, #1
 8101e0c:	4618      	mov	r0, r3
 8101e0e:	f001 f82d 	bl	8102e6c <RCCEx_PLL3_Config>
 8101e12:	4603      	mov	r3, r0
 8101e14:	75fb      	strb	r3, [r7, #23]
      /* SPI6 clock source configuration done later after clock selection check */
      break;
 8101e16:	e009      	b.n	8101e2c <HAL_RCCEx_PeriphCLKConfig+0x52c>
      /* SPI6 clock source configuration done later after clock selection check */
      break;
#endif

    default:
      ret = HAL_ERROR;
 8101e18:	2301      	movs	r3, #1
 8101e1a:	75fb      	strb	r3, [r7, #23]
      break;
 8101e1c:	e006      	b.n	8101e2c <HAL_RCCEx_PeriphCLKConfig+0x52c>
      break;
 8101e1e:	bf00      	nop
 8101e20:	e004      	b.n	8101e2c <HAL_RCCEx_PeriphCLKConfig+0x52c>
      break;
 8101e22:	bf00      	nop
 8101e24:	e002      	b.n	8101e2c <HAL_RCCEx_PeriphCLKConfig+0x52c>
      break;
 8101e26:	bf00      	nop
 8101e28:	e000      	b.n	8101e2c <HAL_RCCEx_PeriphCLKConfig+0x52c>
      break;
 8101e2a:	bf00      	nop
    }

    if(ret == HAL_OK)
 8101e2c:	7dfb      	ldrb	r3, [r7, #23]
 8101e2e:	2b00      	cmp	r3, #0
 8101e30:	d10c      	bne.n	8101e4c <HAL_RCCEx_PeriphCLKConfig+0x54c>
    {
      /* Set the source of SPI6 clock*/
      __HAL_RCC_SPI6_CONFIG(PeriphClkInit->Spi6ClockSelection);
 8101e32:	4b05      	ldr	r3, [pc, #20]	; (8101e48 <HAL_RCCEx_PeriphCLKConfig+0x548>)
 8101e34:	6d9b      	ldr	r3, [r3, #88]	; 0x58
 8101e36:	f023 42e0 	bic.w	r2, r3, #1879048192	; 0x70000000
 8101e3a:	687b      	ldr	r3, [r7, #4]
 8101e3c:	f8d3 30ac 	ldr.w	r3, [r3, #172]	; 0xac
 8101e40:	4901      	ldr	r1, [pc, #4]	; (8101e48 <HAL_RCCEx_PeriphCLKConfig+0x548>)
 8101e42:	4313      	orrs	r3, r2
 8101e44:	658b      	str	r3, [r1, #88]	; 0x58
 8101e46:	e003      	b.n	8101e50 <HAL_RCCEx_PeriphCLKConfig+0x550>
 8101e48:	58024400 	.word	0x58024400
    }
    else
    {
      /* set overall return value */
      status = ret;
 8101e4c:	7dfb      	ldrb	r3, [r7, #23]
 8101e4e:	75bb      	strb	r3, [r7, #22]
  }
#endif /*DSI*/

#if defined(FDCAN1) || defined(FDCAN2)
  /*---------------------------- FDCAN configuration -------------------------------*/
  if(((PeriphClkInit->PeriphClockSelection) & RCC_PERIPHCLK_FDCAN) == RCC_PERIPHCLK_FDCAN)
 8101e50:	687b      	ldr	r3, [r7, #4]
 8101e52:	681b      	ldr	r3, [r3, #0]
 8101e54:	f403 4300 	and.w	r3, r3, #32768	; 0x8000
 8101e58:	2b00      	cmp	r3, #0
 8101e5a:	d02f      	beq.n	8101ebc <HAL_RCCEx_PeriphCLKConfig+0x5bc>
  {
    switch(PeriphClkInit->FdcanClockSelection)
 8101e5c:	687b      	ldr	r3, [r7, #4]
 8101e5e:	6edb      	ldr	r3, [r3, #108]	; 0x6c
 8101e60:	f1b3 5f00 	cmp.w	r3, #536870912	; 0x20000000
 8101e64:	d00e      	beq.n	8101e84 <HAL_RCCEx_PeriphCLKConfig+0x584>
 8101e66:	f1b3 5f00 	cmp.w	r3, #536870912	; 0x20000000
 8101e6a:	d814      	bhi.n	8101e96 <HAL_RCCEx_PeriphCLKConfig+0x596>
 8101e6c:	2b00      	cmp	r3, #0
 8101e6e:	d015      	beq.n	8101e9c <HAL_RCCEx_PeriphCLKConfig+0x59c>
 8101e70:	f1b3 5f80 	cmp.w	r3, #268435456	; 0x10000000
 8101e74:	d10f      	bne.n	8101e96 <HAL_RCCEx_PeriphCLKConfig+0x596>
    {
    case RCC_FDCANCLKSOURCE_PLL:      /* PLL is used as clock source for FDCAN*/
      /* Enable FDCAN Clock output generated form System PLL . */
      __HAL_RCC_PLLCLKOUT_ENABLE(RCC_PLL1_DIVQ);
 8101e76:	4bb0      	ldr	r3, [pc, #704]	; (8102138 <HAL_RCCEx_PeriphCLKConfig+0x838>)
 8101e78:	6adb      	ldr	r3, [r3, #44]	; 0x2c
 8101e7a:	4aaf      	ldr	r2, [pc, #700]	; (8102138 <HAL_RCCEx_PeriphCLKConfig+0x838>)
 8101e7c:	f443 3300 	orr.w	r3, r3, #131072	; 0x20000
 8101e80:	62d3      	str	r3, [r2, #44]	; 0x2c

      /* FDCAN clock source configuration done later after clock selection check */
      break;
 8101e82:	e00c      	b.n	8101e9e <HAL_RCCEx_PeriphCLKConfig+0x59e>

    case RCC_FDCANCLKSOURCE_PLL2: /* PLL2 is used as clock source for FDCAN*/

      ret = RCCEx_PLL2_Config(&(PeriphClkInit->PLL2),DIVIDER_Q_UPDATE);
 8101e84:	687b      	ldr	r3, [r7, #4]
 8101e86:	3304      	adds	r3, #4
 8101e88:	2101      	movs	r1, #1
 8101e8a:	4618      	mov	r0, r3
 8101e8c:	f000 ff3c 	bl	8102d08 <RCCEx_PLL2_Config>
 8101e90:	4603      	mov	r3, r0
 8101e92:	75fb      	strb	r3, [r7, #23]

      /* FDCAN clock source configuration done later after clock selection check */
      break;
 8101e94:	e003      	b.n	8101e9e <HAL_RCCEx_PeriphCLKConfig+0x59e>
      /* HSE is used as clock source for FDCAN*/
      /* FDCAN clock source configuration done later after clock selection check */
      break;

    default:
      ret = HAL_ERROR;
 8101e96:	2301      	movs	r3, #1
 8101e98:	75fb      	strb	r3, [r7, #23]
      break;
 8101e9a:	e000      	b.n	8101e9e <HAL_RCCEx_PeriphCLKConfig+0x59e>
      break;
 8101e9c:	bf00      	nop
    }

    if(ret == HAL_OK)
 8101e9e:	7dfb      	ldrb	r3, [r7, #23]
 8101ea0:	2b00      	cmp	r3, #0
 8101ea2:	d109      	bne.n	8101eb8 <HAL_RCCEx_PeriphCLKConfig+0x5b8>
    {
      /* Set the source of FDCAN clock*/
      __HAL_RCC_FDCAN_CONFIG(PeriphClkInit->FdcanClockSelection);
 8101ea4:	4ba4      	ldr	r3, [pc, #656]	; (8102138 <HAL_RCCEx_PeriphCLKConfig+0x838>)
 8101ea6:	6d1b      	ldr	r3, [r3, #80]	; 0x50
 8101ea8:	f023 5240 	bic.w	r2, r3, #805306368	; 0x30000000
 8101eac:	687b      	ldr	r3, [r7, #4]
 8101eae:	6edb      	ldr	r3, [r3, #108]	; 0x6c
 8101eb0:	49a1      	ldr	r1, [pc, #644]	; (8102138 <HAL_RCCEx_PeriphCLKConfig+0x838>)
 8101eb2:	4313      	orrs	r3, r2
 8101eb4:	650b      	str	r3, [r1, #80]	; 0x50
 8101eb6:	e001      	b.n	8101ebc <HAL_RCCEx_PeriphCLKConfig+0x5bc>
    }
    else
    {
      /* set overall return value */
      status = ret;
 8101eb8:	7dfb      	ldrb	r3, [r7, #23]
 8101eba:	75bb      	strb	r3, [r7, #22]
    }
  }
#endif /*FDCAN1 || FDCAN2*/

  /*---------------------------- FMC configuration -------------------------------*/
  if(((PeriphClkInit->PeriphClockSelection) & RCC_PERIPHCLK_FMC) == RCC_PERIPHCLK_FMC)
 8101ebc:	687b      	ldr	r3, [r7, #4]
 8101ebe:	681b      	ldr	r3, [r3, #0]
 8101ec0:	f003 7380 	and.w	r3, r3, #16777216	; 0x1000000
 8101ec4:	2b00      	cmp	r3, #0
 8101ec6:	d032      	beq.n	8101f2e <HAL_RCCEx_PeriphCLKConfig+0x62e>
  {
    switch(PeriphClkInit->FmcClockSelection)
 8101ec8:	687b      	ldr	r3, [r7, #4]
 8101eca:	6c5b      	ldr	r3, [r3, #68]	; 0x44
 8101ecc:	2b03      	cmp	r3, #3
 8101ece:	d81b      	bhi.n	8101f08 <HAL_RCCEx_PeriphCLKConfig+0x608>
 8101ed0:	a201      	add	r2, pc, #4	; (adr r2, 8101ed8 <HAL_RCCEx_PeriphCLKConfig+0x5d8>)
 8101ed2:	f852 f023 	ldr.w	pc, [r2, r3, lsl #2]
 8101ed6:	bf00      	nop
 8101ed8:	08101f0f 	.word	0x08101f0f
 8101edc:	08101ee9 	.word	0x08101ee9
 8101ee0:	08101ef7 	.word	0x08101ef7
 8101ee4:	08101f0f 	.word	0x08101f0f
    {
    case RCC_FMCCLKSOURCE_PLL:      /* PLL is used as clock source for FMC*/
      /* Enable FMC Clock output generated form System PLL . */
      __HAL_RCC_PLLCLKOUT_ENABLE(RCC_PLL1_DIVQ);
 8101ee8:	4b93      	ldr	r3, [pc, #588]	; (8102138 <HAL_RCCEx_PeriphCLKConfig+0x838>)
 8101eea:	6adb      	ldr	r3, [r3, #44]	; 0x2c
 8101eec:	4a92      	ldr	r2, [pc, #584]	; (8102138 <HAL_RCCEx_PeriphCLKConfig+0x838>)
 8101eee:	f443 3300 	orr.w	r3, r3, #131072	; 0x20000
 8101ef2:	62d3      	str	r3, [r2, #44]	; 0x2c

      /* FMC clock source configuration done later after clock selection check */
      break;
 8101ef4:	e00c      	b.n	8101f10 <HAL_RCCEx_PeriphCLKConfig+0x610>

    case RCC_FMCCLKSOURCE_PLL2: /* PLL2 is used as clock source for FMC*/

      ret = RCCEx_PLL2_Config(&(PeriphClkInit->PLL2),DIVIDER_R_UPDATE);
 8101ef6:	687b      	ldr	r3, [r7, #4]
 8101ef8:	3304      	adds	r3, #4
 8101efa:	2102      	movs	r1, #2
 8101efc:	4618      	mov	r0, r3
 8101efe:	f000 ff03 	bl	8102d08 <RCCEx_PLL2_Config>
 8101f02:	4603      	mov	r3, r0
 8101f04:	75fb      	strb	r3, [r7, #23]

      /* FMC clock source configuration done later after clock selection check */
      break;
 8101f06:	e003      	b.n	8101f10 <HAL_RCCEx_PeriphCLKConfig+0x610>
    case RCC_FMCCLKSOURCE_HCLK:
      /* D1/CD HCLK  clock selected as FMC kernel peripheral clock */
      break;

    default:
      ret = HAL_ERROR;
 8101f08:	2301      	movs	r3, #1
 8101f0a:	75fb      	strb	r3, [r7, #23]
      break;
 8101f0c:	e000      	b.n	8101f10 <HAL_RCCEx_PeriphCLKConfig+0x610>
      break;
 8101f0e:	bf00      	nop
    }

    if(ret == HAL_OK)
 8101f10:	7dfb      	ldrb	r3, [r7, #23]
 8101f12:	2b00      	cmp	r3, #0
 8101f14:	d109      	bne.n	8101f2a <HAL_RCCEx_PeriphCLKConfig+0x62a>
    {
      /* Set the source of FMC clock*/
      __HAL_RCC_FMC_CONFIG(PeriphClkInit->FmcClockSelection);
 8101f16:	4b88      	ldr	r3, [pc, #544]	; (8102138 <HAL_RCCEx_PeriphCLKConfig+0x838>)
 8101f18:	6cdb      	ldr	r3, [r3, #76]	; 0x4c
 8101f1a:	f023 0203 	bic.w	r2, r3, #3
 8101f1e:	687b      	ldr	r3, [r7, #4]
 8101f20:	6c5b      	ldr	r3, [r3, #68]	; 0x44
 8101f22:	4985      	ldr	r1, [pc, #532]	; (8102138 <HAL_RCCEx_PeriphCLKConfig+0x838>)
 8101f24:	4313      	orrs	r3, r2
 8101f26:	64cb      	str	r3, [r1, #76]	; 0x4c
 8101f28:	e001      	b.n	8101f2e <HAL_RCCEx_PeriphCLKConfig+0x62e>
    }
    else
    {
      /* set overall return value */
      status = ret;
 8101f2a:	7dfb      	ldrb	r3, [r7, #23]
 8101f2c:	75bb      	strb	r3, [r7, #22]
    }
  }

  /*---------------------------- RTC configuration -------------------------------*/
  if(((PeriphClkInit->PeriphClockSelection) & RCC_PERIPHCLK_RTC) == RCC_PERIPHCLK_RTC)
 8101f2e:	687b      	ldr	r3, [r7, #4]
 8101f30:	681b      	ldr	r3, [r3, #0]
 8101f32:	f403 0380 	and.w	r3, r3, #4194304	; 0x400000
 8101f36:	2b00      	cmp	r3, #0
 8101f38:	f000 8088 	beq.w	810204c <HAL_RCCEx_PeriphCLKConfig+0x74c>
  {
    /* check for RTC Parameters used to output RTCCLK */
    assert_param(IS_RCC_RTCCLKSOURCE(PeriphClkInit->RTCClockSelection));

    /* Enable write access to Backup domain */
    SET_BIT(PWR->CR1, PWR_CR1_DBP);
 8101f3c:	4b7f      	ldr	r3, [pc, #508]	; (810213c <HAL_RCCEx_PeriphCLKConfig+0x83c>)
 8101f3e:	681b      	ldr	r3, [r3, #0]
 8101f40:	4a7e      	ldr	r2, [pc, #504]	; (810213c <HAL_RCCEx_PeriphCLKConfig+0x83c>)
 8101f42:	f443 7380 	orr.w	r3, r3, #256	; 0x100
 8101f46:	6013      	str	r3, [r2, #0]

    /* Wait for Backup domain Write protection disable */
    tickstart = HAL_GetTick();
 8101f48:	f7fe ff40 	bl	8100dcc <HAL_GetTick>
 8101f4c:	6138      	str	r0, [r7, #16]

    while((PWR->CR1 & PWR_CR1_DBP) == 0U)
 8101f4e:	e009      	b.n	8101f64 <HAL_RCCEx_PeriphCLKConfig+0x664>
    {
      if((HAL_GetTick() - tickstart) > RCC_DBP_TIMEOUT_VALUE)
 8101f50:	f7fe ff3c 	bl	8100dcc <HAL_GetTick>
 8101f54:	4602      	mov	r2, r0
 8101f56:	693b      	ldr	r3, [r7, #16]
 8101f58:	1ad3      	subs	r3, r2, r3
 8101f5a:	2b64      	cmp	r3, #100	; 0x64
 8101f5c:	d902      	bls.n	8101f64 <HAL_RCCEx_PeriphCLKConfig+0x664>
      {
        ret = HAL_TIMEOUT;
 8101f5e:	2303      	movs	r3, #3
 8101f60:	75fb      	strb	r3, [r7, #23]
        break;
 8101f62:	e005      	b.n	8101f70 <HAL_RCCEx_PeriphCLKConfig+0x670>
    while((PWR->CR1 & PWR_CR1_DBP) == 0U)
 8101f64:	4b75      	ldr	r3, [pc, #468]	; (810213c <HAL_RCCEx_PeriphCLKConfig+0x83c>)
 8101f66:	681b      	ldr	r3, [r3, #0]
 8101f68:	f403 7380 	and.w	r3, r3, #256	; 0x100
 8101f6c:	2b00      	cmp	r3, #0
 8101f6e:	d0ef      	beq.n	8101f50 <HAL_RCCEx_PeriphCLKConfig+0x650>
      }
    }

    if(ret == HAL_OK)
 8101f70:	7dfb      	ldrb	r3, [r7, #23]
 8101f72:	2b00      	cmp	r3, #0
 8101f74:	d168      	bne.n	8102048 <HAL_RCCEx_PeriphCLKConfig+0x748>
    {
      /* Reset the Backup domain only if the RTC Clock source selection is modified */
      if((RCC->BDCR & RCC_BDCR_RTCSEL) != (PeriphClkInit->RTCClockSelection & RCC_BDCR_RTCSEL))
 8101f76:	4b70      	ldr	r3, [pc, #448]	; (8102138 <HAL_RCCEx_PeriphCLKConfig+0x838>)
 8101f78:	6f1a      	ldr	r2, [r3, #112]	; 0x70
 8101f7a:	687b      	ldr	r3, [r7, #4]
 8101f7c:	f8d3 30b0 	ldr.w	r3, [r3, #176]	; 0xb0
 8101f80:	4053      	eors	r3, r2
 8101f82:	f403 7340 	and.w	r3, r3, #768	; 0x300
 8101f86:	2b00      	cmp	r3, #0
 8101f88:	d013      	beq.n	8101fb2 <HAL_RCCEx_PeriphCLKConfig+0x6b2>
      {
        /* Store the content of BDCR register before the reset of Backup Domain */
        tmpreg = (RCC->BDCR & ~(RCC_BDCR_RTCSEL));
 8101f8a:	4b6b      	ldr	r3, [pc, #428]	; (8102138 <HAL_RCCEx_PeriphCLKConfig+0x838>)
 8101f8c:	6f1b      	ldr	r3, [r3, #112]	; 0x70
 8101f8e:	f423 7340 	bic.w	r3, r3, #768	; 0x300
 8101f92:	60fb      	str	r3, [r7, #12]
        /* RTC Clock selection can be changed only if the Backup Domain is reset */
        __HAL_RCC_BACKUPRESET_FORCE();
 8101f94:	4b68      	ldr	r3, [pc, #416]	; (8102138 <HAL_RCCEx_PeriphCLKConfig+0x838>)
 8101f96:	6f1b      	ldr	r3, [r3, #112]	; 0x70
 8101f98:	4a67      	ldr	r2, [pc, #412]	; (8102138 <HAL_RCCEx_PeriphCLKConfig+0x838>)
 8101f9a:	f443 3380 	orr.w	r3, r3, #65536	; 0x10000
 8101f9e:	6713      	str	r3, [r2, #112]	; 0x70
        __HAL_RCC_BACKUPRESET_RELEASE();
 8101fa0:	4b65      	ldr	r3, [pc, #404]	; (8102138 <HAL_RCCEx_PeriphCLKConfig+0x838>)
 8101fa2:	6f1b      	ldr	r3, [r3, #112]	; 0x70
 8101fa4:	4a64      	ldr	r2, [pc, #400]	; (8102138 <HAL_RCCEx_PeriphCLKConfig+0x838>)
 8101fa6:	f423 3380 	bic.w	r3, r3, #65536	; 0x10000
 8101faa:	6713      	str	r3, [r2, #112]	; 0x70
        /* Restore the Content of BDCR register */
        RCC->BDCR = tmpreg;
 8101fac:	4a62      	ldr	r2, [pc, #392]	; (8102138 <HAL_RCCEx_PeriphCLKConfig+0x838>)
 8101fae:	68fb      	ldr	r3, [r7, #12]
 8101fb0:	6713      	str	r3, [r2, #112]	; 0x70
      }

      /* If LSE is selected as RTC clock source (and enabled prior to Backup Domain reset), wait for LSE reactivation */
      if(PeriphClkInit->RTCClockSelection == RCC_RTCCLKSOURCE_LSE)
 8101fb2:	687b      	ldr	r3, [r7, #4]
 8101fb4:	f8d3 30b0 	ldr.w	r3, [r3, #176]	; 0xb0
 8101fb8:	f5b3 7f80 	cmp.w	r3, #256	; 0x100
 8101fbc:	d115      	bne.n	8101fea <HAL_RCCEx_PeriphCLKConfig+0x6ea>
      {
        /* Get Start Tick*/
        tickstart = HAL_GetTick();
 8101fbe:	f7fe ff05 	bl	8100dcc <HAL_GetTick>
 8101fc2:	6138      	str	r0, [r7, #16]

        /* Wait till LSE is ready */
        while(__HAL_RCC_GET_FLAG(RCC_FLAG_LSERDY) == 0U)
 8101fc4:	e00b      	b.n	8101fde <HAL_RCCEx_PeriphCLKConfig+0x6de>
        {
          if((HAL_GetTick() - tickstart) > RCC_LSE_TIMEOUT_VALUE)
 8101fc6:	f7fe ff01 	bl	8100dcc <HAL_GetTick>
 8101fca:	4602      	mov	r2, r0
 8101fcc:	693b      	ldr	r3, [r7, #16]
 8101fce:	1ad3      	subs	r3, r2, r3
 8101fd0:	f241 3288 	movw	r2, #5000	; 0x1388
 8101fd4:	4293      	cmp	r3, r2
 8101fd6:	d902      	bls.n	8101fde <HAL_RCCEx_PeriphCLKConfig+0x6de>
          {
            ret = HAL_TIMEOUT;
 8101fd8:	2303      	movs	r3, #3
 8101fda:	75fb      	strb	r3, [r7, #23]
            break;
 8101fdc:	e005      	b.n	8101fea <HAL_RCCEx_PeriphCLKConfig+0x6ea>
        while(__HAL_RCC_GET_FLAG(RCC_FLAG_LSERDY) == 0U)
 8101fde:	4b56      	ldr	r3, [pc, #344]	; (8102138 <HAL_RCCEx_PeriphCLKConfig+0x838>)
 8101fe0:	6f1b      	ldr	r3, [r3, #112]	; 0x70
 8101fe2:	f003 0302 	and.w	r3, r3, #2
 8101fe6:	2b00      	cmp	r3, #0
 8101fe8:	d0ed      	beq.n	8101fc6 <HAL_RCCEx_PeriphCLKConfig+0x6c6>
          }
        }
      }

      if(ret == HAL_OK)
 8101fea:	7dfb      	ldrb	r3, [r7, #23]
 8101fec:	2b00      	cmp	r3, #0
 8101fee:	d128      	bne.n	8102042 <HAL_RCCEx_PeriphCLKConfig+0x742>
      {
        __HAL_RCC_RTC_CONFIG(PeriphClkInit->RTCClockSelection);
 8101ff0:	687b      	ldr	r3, [r7, #4]
 8101ff2:	f8d3 30b0 	ldr.w	r3, [r3, #176]	; 0xb0
 8101ff6:	f403 7340 	and.w	r3, r3, #768	; 0x300
 8101ffa:	f5b3 7f40 	cmp.w	r3, #768	; 0x300
 8101ffe:	d10f      	bne.n	8102020 <HAL_RCCEx_PeriphCLKConfig+0x720>
 8102000:	4b4d      	ldr	r3, [pc, #308]	; (8102138 <HAL_RCCEx_PeriphCLKConfig+0x838>)
 8102002:	691b      	ldr	r3, [r3, #16]
 8102004:	f423 527c 	bic.w	r2, r3, #16128	; 0x3f00
 8102008:	687b      	ldr	r3, [r7, #4]
 810200a:	f8d3 30b0 	ldr.w	r3, [r3, #176]	; 0xb0
 810200e:	091b      	lsrs	r3, r3, #4
 8102010:	f023 437f 	bic.w	r3, r3, #4278190080	; 0xff000000
 8102014:	f023 0330 	bic.w	r3, r3, #48	; 0x30
 8102018:	4947      	ldr	r1, [pc, #284]	; (8102138 <HAL_RCCEx_PeriphCLKConfig+0x838>)
 810201a:	4313      	orrs	r3, r2
 810201c:	610b      	str	r3, [r1, #16]
 810201e:	e005      	b.n	810202c <HAL_RCCEx_PeriphCLKConfig+0x72c>
 8102020:	4b45      	ldr	r3, [pc, #276]	; (8102138 <HAL_RCCEx_PeriphCLKConfig+0x838>)
 8102022:	691b      	ldr	r3, [r3, #16]
 8102024:	4a44      	ldr	r2, [pc, #272]	; (8102138 <HAL_RCCEx_PeriphCLKConfig+0x838>)
 8102026:	f423 537c 	bic.w	r3, r3, #16128	; 0x3f00
 810202a:	6113      	str	r3, [r2, #16]
 810202c:	4b42      	ldr	r3, [pc, #264]	; (8102138 <HAL_RCCEx_PeriphCLKConfig+0x838>)
 810202e:	6f1a      	ldr	r2, [r3, #112]	; 0x70
 8102030:	687b      	ldr	r3, [r7, #4]
 8102032:	f8d3 30b0 	ldr.w	r3, [r3, #176]	; 0xb0
 8102036:	f3c3 030b 	ubfx	r3, r3, #0, #12
 810203a:	493f      	ldr	r1, [pc, #252]	; (8102138 <HAL_RCCEx_PeriphCLKConfig+0x838>)
 810203c:	4313      	orrs	r3, r2
 810203e:	670b      	str	r3, [r1, #112]	; 0x70
 8102040:	e004      	b.n	810204c <HAL_RCCEx_PeriphCLKConfig+0x74c>
      }
      else
      {
        /* set overall return value */
        status = ret;
 8102042:	7dfb      	ldrb	r3, [r7, #23]
 8102044:	75bb      	strb	r3, [r7, #22]
 8102046:	e001      	b.n	810204c <HAL_RCCEx_PeriphCLKConfig+0x74c>
      }
    }
    else
    {
      /* set overall return value */
      status = ret;
 8102048:	7dfb      	ldrb	r3, [r7, #23]
 810204a:	75bb      	strb	r3, [r7, #22]
    }
  }


  /*-------------------------- USART1/6 configuration --------------------------*/
  if(((PeriphClkInit->PeriphClockSelection) & RCC_PERIPHCLK_USART16) == RCC_PERIPHCLK_USART16)
 810204c:	687b      	ldr	r3, [r7, #4]
 810204e:	681b      	ldr	r3, [r3, #0]
 8102050:	f003 0301 	and.w	r3, r3, #1
 8102054:	2b00      	cmp	r3, #0
 8102056:	f000 8083 	beq.w	8102160 <HAL_RCCEx_PeriphCLKConfig+0x860>
  {
    switch(PeriphClkInit->Usart16ClockSelection)
 810205a:	687b      	ldr	r3, [r7, #4]
 810205c:	6f9b      	ldr	r3, [r3, #120]	; 0x78
 810205e:	2b28      	cmp	r3, #40	; 0x28
 8102060:	d866      	bhi.n	8102130 <HAL_RCCEx_PeriphCLKConfig+0x830>
 8102062:	a201      	add	r2, pc, #4	; (adr r2, 8102068 <HAL_RCCEx_PeriphCLKConfig+0x768>)
 8102064:	f852 f023 	ldr.w	pc, [r2, r3, lsl #2]
 8102068:	08102141 	.word	0x08102141
 810206c:	08102131 	.word	0x08102131
 8102070:	08102131 	.word	0x08102131
 8102074:	08102131 	.word	0x08102131
 8102078:	08102131 	.word	0x08102131
 810207c:	08102131 	.word	0x08102131
 8102080:	08102131 	.word	0x08102131
 8102084:	08102131 	.word	0x08102131
 8102088:	0810210d 	.word	0x0810210d
 810208c:	08102131 	.word	0x08102131
 8102090:	08102131 	.word	0x08102131
 8102094:	08102131 	.word	0x08102131
 8102098:	08102131 	.word	0x08102131
 810209c:	08102131 	.word	0x08102131
 81020a0:	08102131 	.word	0x08102131
 81020a4:	08102131 	.word	0x08102131
 81020a8:	0810211f 	.word	0x0810211f
 81020ac:	08102131 	.word	0x08102131
 81020b0:	08102131 	.word	0x08102131
 81020b4:	08102131 	.word	0x08102131
 81020b8:	08102131 	.word	0x08102131
 81020bc:	08102131 	.word	0x08102131
 81020c0:	08102131 	.word	0x08102131
 81020c4:	08102131 	.word	0x08102131
 81020c8:	08102141 	.word	0x08102141
 81020cc:	08102131 	.word	0x08102131
 81020d0:	08102131 	.word	0x08102131
 81020d4:	08102131 	.word	0x08102131
 81020d8:	08102131 	.word	0x08102131
 81020dc:	08102131 	.word	0x08102131
 81020e0:	08102131 	.word	0x08102131
 81020e4:	08102131 	.word	0x08102131
 81020e8:	08102141 	.word	0x08102141
 81020ec:	08102131 	.word	0x08102131
 81020f0:	08102131 	.word	0x08102131
 81020f4:	08102131 	.word	0x08102131
 81020f8:	08102131 	.word	0x08102131
 81020fc:	08102131 	.word	0x08102131
 8102100:	08102131 	.word	0x08102131
 8102104:	08102131 	.word	0x08102131
 8102108:	08102141 	.word	0x08102141
    case RCC_USART16CLKSOURCE_PCLK2: /* CD/D2 PCLK2 as clock source for USART1/6 */
      /* USART1/6 clock source configuration done later after clock selection check */
      break;

    case RCC_USART16CLKSOURCE_PLL2: /* PLL2 is used as clock source for USART1/6 */
      ret = RCCEx_PLL2_Config(&(PeriphClkInit->PLL2),DIVIDER_Q_UPDATE);
