Archive member included to satisfy reference by file (symbol)

c:/st/stm32cubeide_1.9.0/stm32cubeide/plugins/com.st.stm32cube.ide.mcu.externaltools.gnu-tools-for-stm32.10.3-2021.10.win32_1.0.0.202111181127/tools/bin/../lib/gcc/arm-none-eabi/10.3.1/../../../../arm-none-eabi/lib/thumb/v7e-m+dp/hard\libc_nano.a(lib_a-errno.o)
                              ./Core/Src/syscalls.o (__errno)
c:/st/stm32cubeide_1.9.0/stm32cubeide/plugins/com.st.stm32cube.ide.mcu.externaltools.gnu-tools-for-stm32.10.3-2021.10.win32_1.0.0.202111181127/tools/bin/../lib/gcc/arm-none-eabi/10.3.1/../../../../arm-none-eabi/lib/thumb/v7e-m+dp/hard\libc_nano.a(lib_a-exit.o)
                              c:/st/stm32cubeide_1.9.0/stm32cubeide/plugins/com.st.stm32cube.ide.mcu.externaltools.gnu-tools-for-stm32.10.3-2021.10.win32_1.0.0.202111181127/tools/bin/../lib/gcc/arm-none-eabi/10.3.1/../../../../arm-none-eabi/lib/thumb/v7e-m+dp/hard/crt0.o (exit)
c:/st/stm32cubeide_1.9.0/stm32cubeide/plugins/com.st.stm32cube.ide.mcu.externaltools.gnu-tools-for-stm32.10.3-2021.10.win32_1.0.0.202111181127/tools/bin/../lib/gcc/arm-none-eabi/10.3.1/../../../../arm-none-eabi/lib/thumb/v7e-m+dp/hard\libc_nano.a(lib_a-impure.o)
                              c:/st/stm32cubeide_1.9.0/stm32cubeide/plugins/com.st.stm32cube.ide.mcu.externaltools.gnu-tools-for-stm32.10.3-2021.10.win32_1.0.0.202111181127/tools/bin/../lib/gcc/arm-none-eabi/10.3.1/../../../../arm-none-eabi/lib/thumb/v7e-m+dp/hard\libc_nano.a(lib_a-exit.o) (_global_impure_ptr)
c:/st/stm32cubeide_1.9.0/stm32cubeide/plugins/com.st.stm32cube.ide.mcu.externaltools.gnu-tools-for-stm32.10.3-2021.10.win32_1.0.0.202111181127/tools/bin/../lib/gcc/arm-none-eabi/10.3.1/../../../../arm-none-eabi/lib/thumb/v7e-m+dp/hard\libc_nano.a(lib_a-init.o)
                              c:/st/stm32cubeide_1.9.0/stm32cubeide/plugins/com.st.stm32cube.ide.mcu.externaltools.gnu-tools-for-stm32.10.3-2021.10.win32_1.0.0.202111181127/tools/bin/../lib/gcc/arm-none-eabi/10.3.1/../../../../arm-none-eabi/lib/thumb/v7e-m+dp/hard/crt0.o (__libc_init_array)
c:/st/stm32cubeide_1.9.0/stm32cubeide/plugins/com.st.stm32cube.ide.mcu.externaltools.gnu-tools-for-stm32.10.3-2021.10.win32_1.0.0.202111181127/tools/bin/../lib/gcc/arm-none-eabi/10.3.1/../../../../arm-none-eabi/lib/thumb/v7e-m+dp/hard\libc_nano.a(lib_a-memset.o)
                              c:/st/stm32cubeide_1.9.0/stm32cubeide/plugins/com.st.stm32cube.ide.mcu.externaltools.gnu-tools-for-stm32.10.3-2021.10.win32_1.0.0.202111181127/tools/bin/../lib/gcc/arm-none-eabi/10.3.1/../../../../arm-none-eabi/lib/thumb/v7e-m+dp/hard/crt0.o (memset)
c:/st/stm32cubeide_1.9.0/stm32cubeide/plugins/com.st.stm32cube.ide.mcu.externaltools.gnu-tools-for-stm32.10.3-2021.10.win32_1.0.0.202111181127/tools/bin/../lib/gcc/arm-none-eabi/10.3.1/../../../../arm-none-eabi/lib/thumb/v7e-m+dp/hard\libc_nano.a(lib_a-strlen.o)
                              ./USBX/App/ux_device_descriptors.o (strlen)
c:/st/stm32cubeide_1.9.0/stm32cubeide/plugins/com.st.stm32cube.ide.mcu.externaltools.gnu-tools-for-stm32.10.3-2021.10.win32_1.0.0.202111181127/tools/bin/../lib/gcc/arm-none-eabi/10.3.1/thumb/v7e-m+dp/hard\libgcc.a(_aeabi_uldivmod.o)
                              ./Drivers/STM32H7xx_HAL_Driver/stm32h7xx_hal_uart.o (__aeabi_uldivmod)
c:/st/stm32cubeide_1.9.0/stm32cubeide/plugins/com.st.stm32cube.ide.mcu.externaltools.gnu-tools-for-stm32.10.3-2021.10.win32_1.0.0.202111181127/tools/bin/../lib/gcc/arm-none-eabi/10.3.1/thumb/v7e-m+dp/hard\libgcc.a(_udivmoddi4.o)
                              c:/st/stm32cubeide_1.9.0/stm32cubeide/plugins/com.st.stm32cube.ide.mcu.externaltools.gnu-tools-for-stm32.10.3-2021.10.win32_1.0.0.202111181127/tools/bin/../lib/gcc/arm-none-eabi/10.3.1/thumb/v7e-m+dp/hard\libgcc.a(_aeabi_uldivmod.o) (__udivmoddi4)
c:/st/stm32cubeide_1.9.0/stm32cubeide/plugins/com.st.stm32cube.ide.mcu.externaltools.gnu-tools-for-stm32.10.3-2021.10.win32_1.0.0.202111181127/tools/bin/../lib/gcc/arm-none-eabi/10.3.1/thumb/v7e-m+dp/hard\libgcc.a(_dvmd_tls.o)
                              c:/st/stm32cubeide_1.9.0/stm32cubeide/plugins/com.st.stm32cube.ide.mcu.externaltools.gnu-tools-for-stm32.10.3-2021.10.win32_1.0.0.202111181127/tools/bin/../lib/gcc/arm-none-eabi/10.3.1/thumb/v7e-m+dp/hard\libgcc.a(_aeabi_uldivmod.o) (__aeabi_ldiv0)

Discarded input sections

 .text          0x0000000000000000        0x0 c:/st/stm32cubeide_1.9.0/stm32cubeide/plugins/com.st.stm32cube.ide.mcu.externaltools.gnu-tools-for-stm32.10.3-2021.10.win32_1.0.0.202111181127/tools/bin/../lib/gcc/arm-none-eabi/10.3.1/thumb/v7e-m+dp/hard/crti.o
 .data          0x0000000000000000        0x0 c:/st/stm32cubeide_1.9.0/stm32cubeide/plugins/com.st.stm32cube.ide.mcu.externaltools.gnu-tools-for-stm32.10.3-2021.10.win32_1.0.0.202111181127/tools/bin/../lib/gcc/arm-none-eabi/10.3.1/thumb/v7e-m+dp/hard/crti.o
 .bss           0x0000000000000000        0x0 c:/st/stm32cubeide_1.9.0/stm32cubeide/plugins/com.st.stm32cube.ide.mcu.externaltools.gnu-tools-for-stm32.10.3-2021.10.win32_1.0.0.202111181127/tools/bin/../lib/gcc/arm-none-eabi/10.3.1/thumb/v7e-m+dp/hard/crti.o
 .data          0x0000000000000000        0x4 c:/st/stm32cubeide_1.9.0/stm32cubeide/plugins/com.st.stm32cube.ide.mcu.externaltools.gnu-tools-for-stm32.10.3-2021.10.win32_1.0.0.202111181127/tools/bin/../lib/gcc/arm-none-eabi/10.3.1/thumb/v7e-m+dp/hard/crtbegin.o
 .rodata        0x0000000000000000       0x24 c:/st/stm32cubeide_1.9.0/stm32cubeide/plugins/com.st.stm32cube.ide.mcu.externaltools.gnu-tools-for-stm32.10.3-2021.10.win32_1.0.0.202111181127/tools/bin/../lib/gcc/arm-none-eabi/10.3.1/thumb/v7e-m+dp/hard/crtbegin.o
 .text          0x0000000000000000       0x7c c:/st/stm32cubeide_1.9.0/stm32cubeide/plugins/com.st.stm32cube.ide.mcu.externaltools.gnu-tools-for-stm32.10.3-2021.10.win32_1.0.0.202111181127/tools/bin/../lib/gcc/arm-none-eabi/10.3.1/../../../../arm-none-eabi/lib/thumb/v7e-m+dp/hard/crt0.o
 .data          0x0000000000000000        0x0 c:/st/stm32cubeide_1.9.0/stm32cubeide/plugins/com.st.stm32cube.ide.mcu.externaltools.gnu-tools-for-stm32.10.3-2021.10.win32_1.0.0.202111181127/tools/bin/../lib/gcc/arm-none-eabi/10.3.1/../../../../arm-none-eabi/lib/thumb/v7e-m+dp/hard/crt0.o
 .bss           0x0000000000000000        0x0 c:/st/stm32cubeide_1.9.0/stm32cubeide/plugins/com.st.stm32cube.ide.mcu.externaltools.gnu-tools-for-stm32.10.3-2021.10.win32_1.0.0.202111181127/tools/bin/../lib/gcc/arm-none-eabi/10.3.1/../../../../arm-none-eabi/lib/thumb/v7e-m+dp/hard/crt0.o
 .ARM.extab     0x0000000000000000        0x0 c:/st/stm32cubeide_1.9.0/stm32cubeide/plugins/com.st.stm32cube.ide.mcu.externaltools.gnu-tools-for-stm32.10.3-2021.10.win32_1.0.0.202111181127/tools/bin/../lib/gcc/arm-none-eabi/10.3.1/../../../../arm-none-eabi/lib/thumb/v7e-m+dp/hard/crt0.o
 .ARM.exidx     0x0000000000000000       0x10 c:/st/stm32cubeide_1.9.0/stm32cubeide/plugins/com.st.stm32cube.ide.mcu.externaltools.gnu-tools-for-stm32.10.3-2021.10.win32_1.0.0.202111181127/tools/bin/../lib/gcc/arm-none-eabi/10.3.1/../../../../arm-none-eabi/lib/thumb/v7e-m+dp/hard/crt0.o
 .ARM.attributes
                0x0000000000000000       0x1c c:/st/stm32cubeide_1.9.0/stm32cubeide/plugins/com.st.stm32cube.ide.mcu.externaltools.gnu-tools-for-stm32.10.3-2021.10.win32_1.0.0.202111181127/tools/bin/../lib/gcc/arm-none-eabi/10.3.1/../../../../arm-none-eabi/lib/thumb/v7e-m+dp/hard/crt0.o
 .group         0x0000000000000000        0xc ./AZURE_RTOS/App/app_azure_rtos.o
 .group         0x0000000000000000        0xc ./AZURE_RTOS/App/app_azure_rtos.o
 .group         0x0000000000000000        0xc ./AZURE_RTOS/App/app_azure_rtos.o
 .group         0x0000000000000000        0xc ./AZURE_RTOS/App/app_azure_rtos.o
 .group         0x0000000000000000        0xc ./AZURE_RTOS/App/app_azure_rtos.o
 .group         0x0000000000000000        0xc ./AZURE_RTOS/App/app_azure_rtos.o
Memory Configuration

Name             Origin             Length             Attributes
RAM_D1           0x0000000024000000 0x0000000000080000 xrw
FLASH            0x0000000008000000 0x0000000000100000 xr
DTCMRAM          0x0000000020000000 0x0000000000020000 xrw
RAM_D2           0x0000000030000000 0x0000000000048000 xrw
RAM_D3           0x0000000038000000 0x0000000000010000 xrw
ITCMRAM          0x0000000000000000 0x0000000000010000 xrw
*default*        0x0000000000000000 0xffffffffffffffff

Linker script and memory map

LOAD c:/st/stm32cubeide_1.9.0/stm32cubeide/plugins/com.st.stm32cube.ide.mcu.externaltools.gnu-tools-for-stm32.10.3-2021.10.win32_1.0.0.202111181127/tools/bin/../lib/gcc/arm-none-eabi/10.3.1/thumb/v7e-m+dp/hard/crti.o
LOAD c:/st/stm32cubeide_1.9.0/stm32cubeide/plugins/com.st.stm32cube.ide.mcu.externaltools.gnu-tools-for-stm32.10.3-2021.10.win32_1.0.0.202111181127/tools/bin/../lib/gcc/arm-none-eabi/10.3.1/thumb/v7e-m+dp/hard/crtbegin.o
LOAD c:/st/stm32cubeide_1.9.0/stm32cubeide/plugins/com.st.stm32cube.ide.mcu.externaltools.gnu-tools-for-stm32.10.3-2021.10.win32_1.0.0.202111181127/tools/bin/../lib/gcc/arm-none-eabi/10.3.1/../../../../arm-none-eabi/lib/thumb/v7e-m+dp/hard/crt0.o
LOAD ./AZURE_RTOS/App/app_azure_rtos.o
LOAD ./Common/Src/system_stm32h7xx_dualcore_boot_cm4_cm7.o
LOAD ./Core/Src/app_threadx.o
LOAD ./Core/Src/dma.o
LOAD ./Core/Src/gpio.o
LOAD ./Core/Src/main.o
LOAD ./Core/Src/stm32h7xx_hal_msp.o
LOAD ./Core/Src/stm32h7xx_hal_timebase_tim.o
LOAD ./Core/Src/stm32h7xx_it.o
LOAD ./Core/Src/syscalls.o
LOAD ./Core/Src/sysmem.o
LOAD ./Core/Src/tx_initialize_low_level.o
LOAD ./Core/Src/usart.o
LOAD ./Core/Src/usb_otg.o
LOAD ./Core/Startup/startup_stm32h745zitx.o
LOAD ./Drivers/STM32H7xx_HAL_Driver/stm32h7xx_hal.o
LOAD ./Drivers/STM32H7xx_HAL_Driver/stm32h7xx_hal_cortex.o
LOAD ./Drivers/STM32H7xx_HAL_Driver/stm32h7xx_hal_dma.o
LOAD ./Drivers/STM32H7xx_HAL_Driver/stm32h7xx_hal_dma_ex.o
LOAD ./Drivers/STM32H7xx_HAL_Driver/stm32h7xx_hal_exti.o
LOAD ./Drivers/STM32H7xx_HAL_Driver/stm32h7xx_hal_flash.o
LOAD ./Drivers/STM32H7xx_HAL_Driver/stm32h7xx_hal_flash_ex.o
LOAD ./Drivers/STM32H7xx_HAL_Driver/stm32h7xx_hal_gpio.o
LOAD ./Drivers/STM32H7xx_HAL_Driver/stm32h7xx_hal_hsem.o
LOAD ./Drivers/STM32H7xx_HAL_Driver/stm32h7xx_hal_i2c.o
LOAD ./Drivers/STM32H7xx_HAL_Driver/stm32h7xx_hal_i2c_ex.o
LOAD ./Drivers/STM32H7xx_HAL_Driver/stm32h7xx_hal_mdma.o
LOAD ./Drivers/STM32H7xx_HAL_Driver/stm32h7xx_hal_pcd.o
LOAD ./Drivers/STM32H7xx_HAL_Driver/stm32h7xx_hal_pcd_ex.o
LOAD ./Drivers/STM32H7xx_HAL_Driver/stm32h7xx_hal_pwr.o
LOAD ./Drivers/STM32H7xx_HAL_Driver/stm32h7xx_hal_pwr_ex.o
LOAD ./Drivers/STM32H7xx_HAL_Driver/stm32h7xx_hal_rcc.o
LOAD ./Drivers/STM32H7xx_HAL_Driver/stm32h7xx_hal_rcc_ex.o
LOAD ./Drivers/STM32H7xx_HAL_Driver/stm32h7xx_hal_tim.o
LOAD ./Drivers/STM32H7xx_HAL_Driver/stm32h7xx_hal_tim_ex.o
LOAD ./Drivers/STM32H7xx_HAL_Driver/stm32h7xx_hal_uart.o
LOAD ./Drivers/STM32H7xx_HAL_Driver/stm32h7xx_hal_uart_ex.o
LOAD ./Drivers/STM32H7xx_HAL_Driver/stm32h7xx_ll_usb.o
LOAD ./Middlewares/ThreadX/RTOS/ThreadX/Core/tx_block_allocate.o
LOAD ./Middlewares/ThreadX/RTOS/ThreadX/Core/tx_block_pool_cleanup.o
LOAD ./Middlewares/ThreadX/RTOS/ThreadX/Core/tx_block_pool_create.o
LOAD ./Middlewares/ThreadX/RTOS/ThreadX/Core/tx_block_pool_delete.o
LOAD ./Middlewares/ThreadX/RTOS/ThreadX/Core/tx_block_pool_info_get.o
LOAD ./Middlewares/ThreadX/RTOS/ThreadX/Core/tx_block_pool_initialize.o
LOAD ./Middlewares/ThreadX/RTOS/ThreadX/Core/tx_block_pool_prioritize.o
LOAD ./Middlewares/ThreadX/RTOS/ThreadX/Core/tx_block_release.o
LOAD ./Middlewares/ThreadX/RTOS/ThreadX/Core/tx_byte_allocate.o
LOAD ./Middlewares/ThreadX/RTOS/ThreadX/Core/tx_byte_pool_cleanup.o
LOAD ./Middlewares/ThreadX/RTOS/ThreadX/Core/tx_byte_pool_create.o
LOAD ./Middlewares/ThreadX/RTOS/ThreadX/Core/tx_byte_pool_delete.o
LOAD ./Middlewares/ThreadX/RTOS/ThreadX/Core/tx_byte_pool_info_get.o
LOAD ./Middlewares/ThreadX/RTOS/ThreadX/Core/tx_byte_pool_initialize.o
LOAD ./Middlewares/ThreadX/RTOS/ThreadX/Core/tx_byte_pool_prioritize.o
LOAD ./Middlewares/ThreadX/RTOS/ThreadX/Core/tx_byte_pool_search.o
LOAD ./Middlewares/ThreadX/RTOS/ThreadX/Core/tx_byte_release.o
LOAD ./Middlewares/ThreadX/RTOS/ThreadX/Core/tx_event_flags_cleanup.o
LOAD ./Middlewares/ThreadX/RTOS/ThreadX/Core/tx_event_flags_create.o
LOAD ./Middlewares/ThreadX/RTOS/ThreadX/Core/tx_event_flags_delete.o
LOAD ./Middlewares/ThreadX/RTOS/ThreadX/Core/tx_event_flags_get.o
LOAD ./Middlewares/ThreadX/RTOS/ThreadX/Core/tx_event_flags_info_get.o
LOAD ./Middlewares/ThreadX/RTOS/ThreadX/Core/tx_event_flags_initialize.o
LOAD ./Middlewares/ThreadX/RTOS/ThreadX/Core/tx_event_flags_set.o
LOAD ./Middlewares/ThreadX/RTOS/ThreadX/Core/tx_event_flags_set_notify.o
LOAD ./Middlewares/ThreadX/RTOS/ThreadX/Core/tx_initialize_high_level.o
LOAD ./Middlewares/ThreadX/RTOS/ThreadX/Core/tx_initialize_kernel_enter.o
LOAD ./Middlewares/ThreadX/RTOS/ThreadX/Core/tx_initialize_kernel_setup.o
LOAD ./Middlewares/ThreadX/RTOS/ThreadX/Core/tx_mutex_cleanup.o
LOAD ./Middlewares/ThreadX/RTOS/ThreadX/Core/tx_mutex_create.o
LOAD ./Middlewares/ThreadX/RTOS/ThreadX/Core/tx_mutex_delete.o
LOAD ./Middlewares/ThreadX/RTOS/ThreadX/Core/tx_mutex_get.o
LOAD ./Middlewares/ThreadX/RTOS/ThreadX/Core/tx_mutex_info_get.o
LOAD ./Middlewares/ThreadX/RTOS/ThreadX/Core/tx_mutex_initialize.o
LOAD ./Middlewares/ThreadX/RTOS/ThreadX/Core/tx_mutex_prioritize.o
LOAD ./Middlewares/ThreadX/RTOS/ThreadX/Core/tx_mutex_priority_change.o
LOAD ./Middlewares/ThreadX/RTOS/ThreadX/Core/tx_mutex_put.o
LOAD ./Middlewares/ThreadX/RTOS/ThreadX/Core/tx_queue_cleanup.o
LOAD ./Middlewares/ThreadX/RTOS/ThreadX/Core/tx_queue_create.o
LOAD ./Middlewares/ThreadX/RTOS/ThreadX/Core/tx_queue_delete.o
LOAD ./Middlewares/ThreadX/RTOS/ThreadX/Core/tx_queue_flush.o
LOAD ./Middlewares/ThreadX/RTOS/ThreadX/Core/tx_queue_front_send.o
LOAD ./Middlewares/ThreadX/RTOS/ThreadX/Core/tx_queue_info_get.o
LOAD ./Middlewares/ThreadX/RTOS/ThreadX/Core/tx_queue_initialize.o
LOAD ./Middlewares/ThreadX/RTOS/ThreadX/Core/tx_queue_prioritize.o
LOAD ./Middlewares/ThreadX/RTOS/ThreadX/Core/tx_queue_receive.o
LOAD ./Middlewares/ThreadX/RTOS/ThreadX/Core/tx_queue_send.o
LOAD ./Middlewares/ThreadX/RTOS/ThreadX/Core/tx_queue_send_notify.o
LOAD ./Middlewares/ThreadX/RTOS/ThreadX/Core/tx_semaphore_ceiling_put.o
LOAD ./Middlewares/ThreadX/RTOS/ThreadX/Core/tx_semaphore_cleanup.o
LOAD ./Middlewares/ThreadX/RTOS/ThreadX/Core/tx_semaphore_create.o
LOAD ./Middlewares/ThreadX/RTOS/ThreadX/Core/tx_semaphore_delete.o
LOAD ./Middlewares/ThreadX/RTOS/ThreadX/Core/tx_semaphore_get.o
LOAD ./Middlewares/ThreadX/RTOS/ThreadX/Core/tx_semaphore_info_get.o
LOAD ./Middlewares/ThreadX/RTOS/ThreadX/Core/tx_semaphore_initialize.o
LOAD ./Middlewares/ThreadX/RTOS/ThreadX/Core/tx_semaphore_prioritize.o
LOAD ./Middlewares/ThreadX/RTOS/ThreadX/Core/tx_semaphore_put.o
LOAD ./Middlewares/ThreadX/RTOS/ThreadX/Core/tx_semaphore_put_notify.o
LOAD ./Middlewares/ThreadX/RTOS/ThreadX/Core/tx_thread_context_restore.o
LOAD ./Middlewares/ThreadX/RTOS/ThreadX/Core/tx_thread_context_save.o
LOAD ./Middlewares/ThreadX/RTOS/ThreadX/Core/tx_thread_create.o
LOAD ./Middlewares/ThreadX/RTOS/ThreadX/Core/tx_thread_delete.o
LOAD ./Middlewares/ThreadX/RTOS/ThreadX/Core/tx_thread_entry_exit_notify.o
LOAD ./Middlewares/ThreadX/RTOS/ThreadX/Core/tx_thread_identify.o
LOAD ./Middlewares/ThreadX/RTOS/ThreadX/Core/tx_thread_info_get.o
LOAD ./Middlewares/ThreadX/RTOS/ThreadX/Core/tx_thread_initialize.o
LOAD ./Middlewares/ThreadX/RTOS/ThreadX/Core/tx_thread_interrupt_control.o
LOAD ./Middlewares/ThreadX/RTOS/ThreadX/Core/tx_thread_preemption_change.o
LOAD ./Middlewares/ThreadX/RTOS/ThreadX/Core/tx_thread_priority_change.o
LOAD ./Middlewares/ThreadX/RTOS/ThreadX/Core/tx_thread_relinquish.o
LOAD ./Middlewares/ThreadX/RTOS/ThreadX/Core/tx_thread_reset.o
LOAD ./Middlewares/ThreadX/RTOS/ThreadX/Core/tx_thread_resume.o
LOAD ./Middlewares/ThreadX/RTOS/ThreadX/Core/tx_thread_schedule.o
LOAD ./Middlewares/ThreadX/RTOS/ThreadX/Core/tx_thread_shell_entry.o
LOAD ./Middlewares/ThreadX/RTOS/ThreadX/Core/tx_thread_sleep.o
LOAD ./Middlewares/ThreadX/RTOS/ThreadX/Core/tx_thread_stack_analyze.o
LOAD ./Middlewares/ThreadX/RTOS/ThreadX/Core/tx_thread_stack_build.o
LOAD ./Middlewares/ThreadX/RTOS/ThreadX/Core/tx_thread_stack_error_handler.o
LOAD ./Middlewares/ThreadX/RTOS/ThreadX/Core/tx_thread_stack_error_notify.o
LOAD ./Middlewares/ThreadX/RTOS/ThreadX/Core/tx_thread_suspend.o
LOAD ./Middlewares/ThreadX/RTOS/ThreadX/Core/tx_thread_system_preempt_check.o
LOAD ./Middlewares/ThreadX/RTOS/ThreadX/Core/tx_thread_system_resume.o
LOAD ./Middlewares/ThreadX/RTOS/ThreadX/Core/tx_thread_system_return.o
LOAD ./Middlewares/ThreadX/RTOS/ThreadX/Core/tx_thread_system_suspend.o
LOAD ./Middlewares/ThreadX/RTOS/ThreadX/Core/tx_thread_terminate.o
LOAD ./Middlewares/ThreadX/RTOS/ThreadX/Core/tx_thread_time_slice.o
LOAD ./Middlewares/ThreadX/RTOS/ThreadX/Core/tx_thread_time_slice_change.o
LOAD ./Middlewares/ThreadX/RTOS/ThreadX/Core/tx_thread_timeout.o
LOAD ./Middlewares/ThreadX/RTOS/ThreadX/Core/tx_thread_wait_abort.o
LOAD ./Middlewares/ThreadX/RTOS/ThreadX/Core/tx_time_get.o
LOAD ./Middlewares/ThreadX/RTOS/ThreadX/Core/tx_time_set.o
LOAD ./Middlewares/ThreadX/RTOS/ThreadX/Core/tx_timer_activate.o
LOAD ./Middlewares/ThreadX/RTOS/ThreadX/Core/tx_timer_change.o
LOAD ./Middlewares/ThreadX/RTOS/ThreadX/Core/tx_timer_create.o
LOAD ./Middlewares/ThreadX/RTOS/ThreadX/Core/tx_timer_deactivate.o
LOAD ./Middlewares/ThreadX/RTOS/ThreadX/Core/tx_timer_delete.o
LOAD ./Middlewares/ThreadX/RTOS/ThreadX/Core/tx_timer_expiration_process.o
LOAD ./Middlewares/ThreadX/RTOS/ThreadX/Core/tx_timer_info_get.o
LOAD ./Middlewares/ThreadX/RTOS/ThreadX/Core/tx_timer_initialize.o
LOAD ./Middlewares/ThreadX/RTOS/ThreadX/Core/tx_timer_interrupt.o
LOAD ./Middlewares/ThreadX/RTOS/ThreadX/Core/tx_timer_system_activate.o
LOAD ./Middlewares/ThreadX/RTOS/ThreadX/Core/tx_timer_system_deactivate.o
LOAD ./Middlewares/ThreadX/RTOS/ThreadX/Core/tx_timer_thread_entry.o
LOAD ./Middlewares/ThreadX/RTOS/ThreadX/Core/txe_block_allocate.o
LOAD ./Middlewares/ThreadX/RTOS/ThreadX/Core/txe_block_pool_create.o
LOAD ./Middlewares/ThreadX/RTOS/ThreadX/Core/txe_block_pool_delete.o
LOAD ./Middlewares/ThreadX/RTOS/ThreadX/Core/txe_block_pool_info_get.o
LOAD ./Middlewares/ThreadX/RTOS/ThreadX/Core/txe_block_pool_prioritize.o
LOAD ./Middlewares/ThreadX/RTOS/ThreadX/Core/txe_block_release.o
LOAD ./Middlewares/ThreadX/RTOS/ThreadX/Core/txe_byte_allocate.o
LOAD ./Middlewares/ThreadX/RTOS/ThreadX/Core/txe_byte_pool_create.o
LOAD ./Middlewares/ThreadX/RTOS/ThreadX/Core/txe_byte_pool_delete.o
LOAD ./Middlewares/ThreadX/RTOS/ThreadX/Core/txe_byte_pool_info_get.o
LOAD ./Middlewares/ThreadX/RTOS/ThreadX/Core/txe_byte_pool_prioritize.o
LOAD ./Middlewares/ThreadX/RTOS/ThreadX/Core/txe_byte_release.o
LOAD ./Middlewares/ThreadX/RTOS/ThreadX/Core/txe_event_flags_create.o
LOAD ./Middlewares/ThreadX/RTOS/ThreadX/Core/txe_event_flags_delete.o
LOAD ./Middlewares/ThreadX/RTOS/ThreadX/Core/txe_event_flags_get.o
LOAD ./Middlewares/ThreadX/RTOS/ThreadX/Core/txe_event_flags_info_get.o
LOAD ./Middlewares/ThreadX/RTOS/ThreadX/Core/txe_event_flags_set.o
LOAD ./Middlewares/ThreadX/RTOS/ThreadX/Core/txe_event_flags_set_notify.o
LOAD ./Middlewares/ThreadX/RTOS/ThreadX/Core/txe_mutex_create.o
LOAD ./Middlewares/ThreadX/RTOS/ThreadX/Core/txe_mutex_delete.o
LOAD ./Middlewares/ThreadX/RTOS/ThreadX/Core/txe_mutex_get.o
LOAD ./Middlewares/ThreadX/RTOS/ThreadX/Core/txe_mutex_info_get.o
LOAD ./Middlewares/ThreadX/RTOS/ThreadX/Core/txe_mutex_prioritize.o
LOAD ./Middlewares/ThreadX/RTOS/ThreadX/Core/txe_mutex_put.o
LOAD ./Middlewares/ThreadX/RTOS/ThreadX/Core/txe_queue_create.o
LOAD ./Middlewares/ThreadX/RTOS/ThreadX/Core/txe_queue_delete.o
LOAD ./Middlewares/ThreadX/RTOS/ThreadX/Core/txe_queue_flush.o
LOAD ./Middlewares/ThreadX/RTOS/ThreadX/Core/txe_queue_front_send.o
LOAD ./Middlewares/ThreadX/RTOS/ThreadX/Core/txe_queue_info_get.o
LOAD ./Middlewares/ThreadX/RTOS/ThreadX/Core/txe_queue_prioritize.o
LOAD ./Middlewares/ThreadX/RTOS/ThreadX/Core/txe_queue_receive.o
LOAD ./Middlewares/ThreadX/RTOS/ThreadX/Core/txe_queue_send.o
LOAD ./Middlewares/ThreadX/RTOS/ThreadX/Core/txe_queue_send_notify.o
LOAD ./Middlewares/ThreadX/RTOS/ThreadX/Core/txe_semaphore_ceiling_put.o
LOAD ./Middlewares/ThreadX/RTOS/ThreadX/Core/txe_semaphore_create.o
LOAD ./Middlewares/ThreadX/RTOS/ThreadX/Core/txe_semaphore_delete.o
LOAD ./Middlewares/ThreadX/RTOS/ThreadX/Core/txe_semaphore_get.o
LOAD ./Middlewares/ThreadX/RTOS/ThreadX/Core/txe_semaphore_info_get.o
LOAD ./Middlewares/ThreadX/RTOS/ThreadX/Core/txe_semaphore_prioritize.o
LOAD ./Middlewares/ThreadX/RTOS/ThreadX/Core/txe_semaphore_put.o
LOAD ./Middlewares/ThreadX/RTOS/ThreadX/Core/txe_semaphore_put_notify.o
LOAD ./Middlewares/ThreadX/RTOS/ThreadX/Core/txe_thread_create.o
LOAD ./Middlewares/ThreadX/RTOS/ThreadX/Core/txe_thread_delete.o
LOAD ./Middlewares/ThreadX/RTOS/ThreadX/Core/txe_thread_entry_exit_notify.o
LOAD ./Middlewares/ThreadX/RTOS/ThreadX/Core/txe_thread_info_get.o
LOAD ./Middlewares/ThreadX/RTOS/ThreadX/Core/txe_thread_preemption_change.o
LOAD ./Middlewares/ThreadX/RTOS/ThreadX/Core/txe_thread_priority_change.o
LOAD ./Middlewares/ThreadX/RTOS/ThreadX/Core/txe_thread_relinquish.o
LOAD ./Middlewares/ThreadX/RTOS/ThreadX/Core/txe_thread_reset.o
LOAD ./Middlewares/ThreadX/RTOS/ThreadX/Core/txe_thread_resume.o
LOAD ./Middlewares/ThreadX/RTOS/ThreadX/Core/txe_thread_suspend.o
LOAD ./Middlewares/ThreadX/RTOS/ThreadX/Core/txe_thread_terminate.o
LOAD ./Middlewares/ThreadX/RTOS/ThreadX/Core/txe_thread_time_slice_change.o
LOAD ./Middlewares/ThreadX/RTOS/ThreadX/Core/txe_thread_wait_abort.o
LOAD ./Middlewares/ThreadX/RTOS/ThreadX/Core/txe_timer_activate.o
LOAD ./Middlewares/ThreadX/RTOS/ThreadX/Core/txe_timer_change.o
LOAD ./Middlewares/ThreadX/RTOS/ThreadX/Core/txe_timer_create.o
LOAD ./Middlewares/ThreadX/RTOS/ThreadX/Core/txe_timer_deactivate.o
LOAD ./Middlewares/ThreadX/RTOS/ThreadX/Core/txe_timer_delete.o
LOAD ./Middlewares/ThreadX/RTOS/ThreadX/Core/txe_timer_info_get.o
LOAD ./Middlewares/USBX/USB/USBX/CoreSystem/ux_system_error_handler.o
LOAD ./Middlewares/USBX/USB/USBX/CoreSystem/ux_system_initialize.o
LOAD ./Middlewares/USBX/USB/USBX/CoreSystem/ux_system_tasks_run.o
LOAD ./Middlewares/USBX/USB/USBX/CoreSystem/ux_system_uninitialize.o
LOAD ./Middlewares/USBX/USB/USBX/CoreSystem/ux_utility_debug_callback_register.o
LOAD ./Middlewares/USBX/USB/USBX/CoreSystem/ux_utility_debug_log.o
LOAD ./Middlewares/USBX/USB/USBX/CoreSystem/ux_utility_delay_ms.o
LOAD ./Middlewares/USBX/USB/USBX/CoreSystem/ux_utility_descriptor_pack.o
LOAD ./Middlewares/USBX/USB/USBX/CoreSystem/ux_utility_descriptor_parse.o
LOAD ./Middlewares/USBX/USB/USBX/CoreSystem/ux_utility_error_callback_register.o
LOAD ./Middlewares/USBX/USB/USBX/CoreSystem/ux_utility_event_flags_create.o
LOAD ./Middlewares/USBX/USB/USBX/CoreSystem/ux_utility_event_flags_delete.o
LOAD ./Middlewares/USBX/USB/USBX/CoreSystem/ux_utility_event_flags_get.o
LOAD ./Middlewares/USBX/USB/USBX/CoreSystem/ux_utility_event_flags_set.o
LOAD ./Middlewares/USBX/USB/USBX/CoreSystem/ux_utility_long_get.o
LOAD ./Middlewares/USBX/USB/USBX/CoreSystem/ux_utility_long_get_big_endian.o
LOAD ./Middlewares/USBX/USB/USBX/CoreSystem/ux_utility_long_put.o
LOAD ./Middlewares/USBX/USB/USBX/CoreSystem/ux_utility_long_put_big_endian.o
LOAD ./Middlewares/USBX/USB/USBX/CoreSystem/ux_utility_memory_allocate.o
LOAD ./Middlewares/USBX/USB/USBX/CoreSystem/ux_utility_memory_allocate_add_safe.o
LOAD ./Middlewares/USBX/USB/USBX/CoreSystem/ux_utility_memory_allocate_mulc_safe.o
LOAD ./Middlewares/USBX/USB/USBX/CoreSystem/ux_utility_memory_allocate_mulv_safe.o
LOAD ./Middlewares/USBX/USB/USBX/CoreSystem/ux_utility_memory_compare.o
LOAD ./Middlewares/USBX/USB/USBX/CoreSystem/ux_utility_memory_copy.o
LOAD ./Middlewares/USBX/USB/USBX/CoreSystem/ux_utility_memory_free.o
LOAD ./Middlewares/USBX/USB/USBX/CoreSystem/ux_utility_memory_free_block_best_get.o
LOAD ./Middlewares/USBX/USB/USBX/CoreSystem/ux_utility_memory_set.o
LOAD ./Middlewares/USBX/USB/USBX/CoreSystem/ux_utility_mutex_create.o
LOAD ./Middlewares/USBX/USB/USBX/CoreSystem/ux_utility_mutex_delete.o
LOAD ./Middlewares/USBX/USB/USBX/CoreSystem/ux_utility_mutex_off.o
LOAD ./Middlewares/USBX/USB/USBX/CoreSystem/ux_utility_mutex_on.o
LOAD ./Middlewares/USBX/USB/USBX/CoreSystem/ux_utility_pci_class_scan.o
LOAD ./Middlewares/USBX/USB/USBX/CoreSystem/ux_utility_pci_read.o
LOAD ./Middlewares/USBX/USB/USBX/CoreSystem/ux_utility_pci_write.o
LOAD ./Middlewares/USBX/USB/USBX/CoreSystem/ux_utility_physical_address.o
LOAD ./Middlewares/USBX/USB/USBX/CoreSystem/ux_utility_semaphore_create.o
LOAD ./Middlewares/USBX/USB/USBX/CoreSystem/ux_utility_semaphore_delete.o
LOAD ./Middlewares/USBX/USB/USBX/CoreSystem/ux_utility_semaphore_get.o
LOAD ./Middlewares/USBX/USB/USBX/CoreSystem/ux_utility_semaphore_put.o
LOAD ./Middlewares/USBX/USB/USBX/CoreSystem/ux_utility_set_interrupt_handler.o
LOAD ./Middlewares/USBX/USB/USBX/CoreSystem/ux_utility_short_get.o
LOAD ./Middlewares/USBX/USB/USBX/CoreSystem/ux_utility_short_get_big_endian.o
LOAD ./Middlewares/USBX/USB/USBX/CoreSystem/ux_utility_short_put.o
LOAD ./Middlewares/USBX/USB/USBX/CoreSystem/ux_utility_short_put_big_endian.o
LOAD ./Middlewares/USBX/USB/USBX/CoreSystem/ux_utility_string_length_check.o
LOAD ./Middlewares/USBX/USB/USBX/CoreSystem/ux_utility_string_length_get.o
LOAD ./Middlewares/USBX/USB/USBX/CoreSystem/ux_utility_string_to_unicode.o
LOAD ./Middlewares/USBX/USB/USBX/CoreSystem/ux_utility_thread_create.o
LOAD ./Middlewares/USBX/USB/USBX/CoreSystem/ux_utility_thread_delete.o
LOAD ./Middlewares/USBX/USB/USBX/CoreSystem/ux_utility_thread_identify.o
LOAD ./Middlewares/USBX/USB/USBX/CoreSystem/ux_utility_thread_relinquish.o
LOAD ./Middlewares/USBX/USB/USBX/CoreSystem/ux_utility_thread_resume.o
LOAD ./Middlewares/USBX/USB/USBX/CoreSystem/ux_utility_thread_schedule_other.o
LOAD ./Middlewares/USBX/USB/USBX/CoreSystem/ux_utility_thread_sleep.o
LOAD ./Middlewares/USBX/USB/USBX/CoreSystem/ux_utility_thread_suspend.o
LOAD ./Middlewares/USBX/USB/USBX/CoreSystem/ux_utility_timer_create.o
LOAD ./Middlewares/USBX/USB/USBX/CoreSystem/ux_utility_unicode_to_string.o
LOAD ./Middlewares/USBX/USB/USBX/CoreSystem/ux_utility_virtual_address.o
LOAD ./Middlewares/USBX/USB/USBX/UX Device Class CDC ACM/ux_device_class_cdc_acm_activate.o
LOAD ./Middlewares/USBX/USB/USBX/UX Device Class CDC ACM/ux_device_class_cdc_acm_bulkin_thread.o
LOAD ./Middlewares/USBX/USB/USBX/UX Device Class CDC ACM/ux_device_class_cdc_acm_bulkout_thread.o
LOAD ./Middlewares/USBX/USB/USBX/UX Device Class CDC ACM/ux_device_class_cdc_acm_control_request.o
LOAD ./Middlewares/USBX/USB/USBX/UX Device Class CDC ACM/ux_device_class_cdc_acm_deactivate.o
LOAD ./Middlewares/USBX/USB/USBX/UX Device Class CDC ACM/ux_device_class_cdc_acm_entry.o
LOAD ./Middlewares/USBX/USB/USBX/UX Device Class CDC ACM/ux_device_class_cdc_acm_initialize.o
LOAD ./Middlewares/USBX/USB/USBX/UX Device Class CDC ACM/ux_device_class_cdc_acm_ioctl.o
LOAD ./Middlewares/USBX/USB/USBX/UX Device Class CDC ACM/ux_device_class_cdc_acm_read.o
LOAD ./Middlewares/USBX/USB/USBX/UX Device Class CDC ACM/ux_device_class_cdc_acm_read_run.o
LOAD ./Middlewares/USBX/USB/USBX/UX Device Class CDC ACM/ux_device_class_cdc_acm_tasks_run.o
LOAD ./Middlewares/USBX/USB/USBX/UX Device Class CDC ACM/ux_device_class_cdc_acm_unitialize.o
LOAD ./Middlewares/USBX/USB/USBX/UX Device Class CDC ACM/ux_device_class_cdc_acm_write.o
LOAD ./Middlewares/USBX/USB/USBX/UX Device Class CDC ACM/ux_device_class_cdc_acm_write_run.o
LOAD ./Middlewares/USBX/USB/USBX/UX Device Class CDC ACM/ux_device_class_cdc_acm_write_with_callback.o
LOAD ./Middlewares/USBX/USB/USBX/UX Device Controllers/ux_dcd_stm32_callback.o
LOAD ./Middlewares/USBX/USB/USBX/UX Device Controllers/ux_dcd_stm32_endpoint_create.o
LOAD ./Middlewares/USBX/USB/USBX/UX Device Controllers/ux_dcd_stm32_endpoint_destroy.o
LOAD ./Middlewares/USBX/USB/USBX/UX Device Controllers/ux_dcd_stm32_endpoint_reset.o
LOAD ./Middlewares/USBX/USB/USBX/UX Device Controllers/ux_dcd_stm32_endpoint_stall.o
LOAD ./Middlewares/USBX/USB/USBX/UX Device Controllers/ux_dcd_stm32_endpoint_status.o
LOAD ./Middlewares/USBX/USB/USBX/UX Device Controllers/ux_dcd_stm32_frame_number_get.o
LOAD ./Middlewares/USBX/USB/USBX/UX Device Controllers/ux_dcd_stm32_function.o
LOAD ./Middlewares/USBX/USB/USBX/UX Device Controllers/ux_dcd_stm32_initialize.o
LOAD ./Middlewares/USBX/USB/USBX/UX Device Controllers/ux_dcd_stm32_initialize_complete.o
LOAD ./Middlewares/USBX/USB/USBX/UX Device Controllers/ux_dcd_stm32_interrupt_handler.o
LOAD ./Middlewares/USBX/USB/USBX/UX Device Controllers/ux_dcd_stm32_transfer_abort.o
LOAD ./Middlewares/USBX/USB/USBX/UX Device Controllers/ux_dcd_stm32_transfer_request.o
LOAD ./Middlewares/USBX/USB/USBX/UX Device Controllers/ux_dcd_stm32_transfer_run.o
LOAD ./Middlewares/USBX/USB/USBX/UX Device Controllers/ux_dcd_stm32_uninitialize.o
LOAD ./Middlewares/USBX/USB/USBX/UX Device CoreStack/ux_device_stack_alternate_setting_get.o
LOAD ./Middlewares/USBX/USB/USBX/UX Device CoreStack/ux_device_stack_alternate_setting_set.o
LOAD ./Middlewares/USBX/USB/USBX/UX Device CoreStack/ux_device_stack_class_register.o
LOAD ./Middlewares/USBX/USB/USBX/UX Device CoreStack/ux_device_stack_class_unregister.o
LOAD ./Middlewares/USBX/USB/USBX/UX Device CoreStack/ux_device_stack_clear_feature.o
LOAD ./Middlewares/USBX/USB/USBX/UX Device CoreStack/ux_device_stack_configuration_get.o
LOAD ./Middlewares/USBX/USB/USBX/UX Device CoreStack/ux_device_stack_configuration_set.o
LOAD ./Middlewares/USBX/USB/USBX/UX Device CoreStack/ux_device_stack_control_request_process.o
LOAD ./Middlewares/USBX/USB/USBX/UX Device CoreStack/ux_device_stack_descriptor_send.o
LOAD ./Middlewares/USBX/USB/USBX/UX Device CoreStack/ux_device_stack_disconnect.o
LOAD ./Middlewares/USBX/USB/USBX/UX Device CoreStack/ux_device_stack_endpoint_stall.o
LOAD ./Middlewares/USBX/USB/USBX/UX Device CoreStack/ux_device_stack_get_status.o
LOAD ./Middlewares/USBX/USB/USBX/UX Device CoreStack/ux_device_stack_host_wakeup.o
LOAD ./Middlewares/USBX/USB/USBX/UX Device CoreStack/ux_device_stack_initialize.o
LOAD ./Middlewares/USBX/USB/USBX/UX Device CoreStack/ux_device_stack_interface_delete.o
LOAD ./Middlewares/USBX/USB/USBX/UX Device CoreStack/ux_device_stack_interface_get.o
LOAD ./Middlewares/USBX/USB/USBX/UX Device CoreStack/ux_device_stack_interface_set.o
LOAD ./Middlewares/USBX/USB/USBX/UX Device CoreStack/ux_device_stack_interface_start.o
LOAD ./Middlewares/USBX/USB/USBX/UX Device CoreStack/ux_device_stack_microsoft_extension_register.o
LOAD ./Middlewares/USBX/USB/USBX/UX Device CoreStack/ux_device_stack_set_feature.o
LOAD ./Middlewares/USBX/USB/USBX/UX Device CoreStack/ux_device_stack_tasks_run.o
LOAD ./Middlewares/USBX/USB/USBX/UX Device CoreStack/ux_device_stack_transfer_abort.o
LOAD ./Middlewares/USBX/USB/USBX/UX Device CoreStack/ux_device_stack_transfer_all_request_abort.o
LOAD ./Middlewares/USBX/USB/USBX/UX Device CoreStack/ux_device_stack_transfer_request.o
LOAD ./Middlewares/USBX/USB/USBX/UX Device CoreStack/ux_device_stack_transfer_run.o
LOAD ./Middlewares/USBX/USB/USBX/UX Device CoreStack/ux_device_stack_uninitialize.o
LOAD ./USBX/App/app_usbx_device.o
LOAD ./USBX/App/ux_device_cdc_acm.o
LOAD ./USBX/App/ux_device_descriptors.o
START GROUP
LOAD c:/st/stm32cubeide_1.9.0/stm32cubeide/plugins/com.st.stm32cube.ide.mcu.externaltools.gnu-tools-for-stm32.10.3-2021.10.win32_1.0.0.202111181127/tools/bin/../lib/gcc/arm-none-eabi/10.3.1/../../../../arm-none-eabi/lib/thumb/v7e-m+dp/hard\libc_nano.a
LOAD c:/st/stm32cubeide_1.9.0/stm32cubeide/plugins/com.st.stm32cube.ide.mcu.externaltools.gnu-tools-for-stm32.10.3-2021.10.win32_1.0.0.202111181127/tools/bin/../lib/gcc/arm-none-eabi/10.3.1/../../../../arm-none-eabi/lib/thumb/v7e-m+dp/hard\libm.a
END GROUP
START GROUP
LOAD c:/st/stm32cubeide_1.9.0/stm32cubeide/plugins/com.st.stm32cube.ide.mcu.externaltools.gnu-tools-for-stm32.10.3-2021.10.win32_1.0.0.202111181127/tools/bin/../lib/gcc/arm-none-eabi/10.3.1/thumb/v7e-m+dp/hard\libgcc.a
LOAD c:/st/stm32cubeide_1.9.0/stm32cubeide/plugins/com.st.stm32cube.ide.mcu.externaltools.gnu-tools-for-stm32.10.3-2021.10.win32_1.0.0.202111181127/tools/bin/../lib/gcc/arm-none-eabi/10.3.1/../../../../arm-none-eabi/lib/thumb/v7e-m+dp/hard\libc_nano.a
END GROUP
START GROUP
LOAD c:/st/stm32cubeide_1.9.0/stm32cubeide/plugins/com.st.stm32cube.ide.mcu.externaltools.gnu-tools-for-stm32.10.3-2021.10.win32_1.0.0.202111181127/tools/bin/../lib/gcc/arm-none-eabi/10.3.1/thumb/v7e-m+dp/hard\libgcc.a
LOAD c:/st/stm32cubeide_1.9.0/stm32cubeide/plugins/com.st.stm32cube.ide.mcu.externaltools.gnu-tools-for-stm32.10.3-2021.10.win32_1.0.0.202111181127/tools/bin/../lib/gcc/arm-none-eabi/10.3.1/../../../../arm-none-eabi/lib/thumb/v7e-m+dp/hard\libc_nano.a
LOAD c:/st/stm32cubeide_1.9.0/stm32cubeide/plugins/com.st.stm32cube.ide.mcu.externaltools.gnu-tools-for-stm32.10.3-2021.10.win32_1.0.0.202111181127/tools/bin/../lib/gcc/arm-none-eabi/10.3.1/../../../../arm-none-eabi/lib/thumb/v7e-m+dp/hard\libnosys.a
END GROUP
START GROUP
LOAD c:/st/stm32cubeide_1.9.0/stm32cubeide/plugins/com.st.stm32cube.ide.mcu.externaltools.gnu-tools-for-stm32.10.3-2021.10.win32_1.0.0.202111181127/tools/bin/../lib/gcc/arm-none-eabi/10.3.1/thumb/v7e-m+dp/hard\libgcc.a
LOAD c:/st/stm32cubeide_1.9.0/stm32cubeide/plugins/com.st.stm32cube.ide.mcu.externaltools.gnu-tools-for-stm32.10.3-2021.10.win32_1.0.0.202111181127/tools/bin/../lib/gcc/arm-none-eabi/10.3.1/../../../../arm-none-eabi/lib/thumb/v7e-m+dp/hard\libc_nano.a
LOAD c:/st/stm32cubeide_1.9.0/stm32cubeide/plugins/com.st.stm32cube.ide.mcu.externaltools.gnu-tools-for-stm32.10.3-2021.10.win32_1.0.0.202111181127/tools/bin/../lib/gcc/arm-none-eabi/10.3.1/../../../../arm-none-eabi/lib/thumb/v7e-m+dp/hard\libnosys.a
END GROUP
LOAD c:/st/stm32cubeide_1.9.0/stm32cubeide/plugins/com.st.stm32cube.ide.mcu.externaltools.gnu-tools-for-stm32.10.3-2021.10.win32_1.0.0.202111181127/tools/bin/../lib/gcc/arm-none-eabi/10.3.1/thumb/v7e-m+dp/hard/crtend.o
LOAD c:/st/stm32cubeide_1.9.0/stm32cubeide/plugins/com.st.stm32cube.ide.mcu.externaltools.gnu-tools-for-stm32.10.3-2021.10.win32_1.0.0.202111181127/tools/bin/../lib/gcc/arm-none-eabi/10.3.1/thumb/v7e-m+dp/hard/crtn.o
                0x0000000024080000                _estack = (ORIGIN (RAM_D1) + LENGTH (RAM_D1))
                0x0000000000000200                _Min_Heap_Size = 0x200
                0x0000000000000400                _Min_Stack_Size = 0x400

.isr_vector     0x0000000008000000      0x298
                0x0000000008000000                . = ALIGN (0x4)
 *(.isr_vector)
 .isr_vector    0x0000000008000000      0x298 ./Core/Startup/startup_stm32h745zitx.o
                0x0000000008000000                g_pfnVectors
                0x0000000008000298                . = ALIGN (0x4)

.text           0x00000000080002a0    0x157c0
                0x00000000080002a0                . = ALIGN (0x4)
 *(.text)
 .text          0x00000000080002a0       0x40 c:/st/stm32cubeide_1.9.0/stm32cubeide/plugins/com.st.stm32cube.ide.mcu.externaltools.gnu-tools-for-stm32.10.3-2021.10.win32_1.0.0.202111181127/tools/bin/../lib/gcc/arm-none-eabi/10.3.1/thumb/v7e-m+dp/hard/crtbegin.o
 .text          0x00000000080002e0       0x80 ./Core/Src/tx_initialize_low_level.o
                0x00000000080002e0                _tx_initialize_low_level
                0x0000000008000324                __tx_BadHandler
                0x0000000008000328                __tx_HardfaultHandler
                0x000000000800032c                __tx_SVCallHandler
                0x0000000008000330                __tx_IntHandler
                0x0000000008000338                __tx_SysTickHandler
                0x0000000008000338                SysTick_Handler
                0x0000000008000344                __tx_NMIHandler
                0x0000000008000348                __tx_DBGHandler
 .text          0x0000000008000360       0xc0 ./Middlewares/ThreadX/RTOS/ThreadX/Core/tx_thread_schedule.o
                0x0000000008000360                _tx_thread_schedule
                0x000000000800038c                PendSV_Handler
                0x000000000800038c                __tx_PendSVHandler
                0x000000000800040e                tx_thread_fpu_disable
                0x000000000800040e                tx_thread_fpu_enable
 .text          0x0000000008000420       0x40 ./Middlewares/ThreadX/RTOS/ThreadX/Core/tx_thread_stack_build.o
                0x0000000008000420                _tx_thread_stack_build
 .text          0x0000000008000460       0xb8 ./Middlewares/ThreadX/RTOS/ThreadX/Core/tx_timer_interrupt.o
                0x0000000008000460                _tx_timer_interrupt
 .text          0x0000000008000518       0x10 c:/st/stm32cubeide_1.9.0/stm32cubeide/plugins/com.st.stm32cube.ide.mcu.externaltools.gnu-tools-for-stm32.10.3-2021.10.win32_1.0.0.202111181127/tools/bin/../lib/gcc/arm-none-eabi/10.3.1/../../../../arm-none-eabi/lib/thumb/v7e-m+dp/hard\libc_nano.a(lib_a-strlen.o)
                0x0000000008000518                strlen
 .text          0x0000000008000528       0x30 c:/st/stm32cubeide_1.9.0/stm32cubeide/plugins/com.st.stm32cube.ide.mcu.externaltools.gnu-tools-for-stm32.10.3-2021.10.win32_1.0.0.202111181127/tools/bin/../lib/gcc/arm-none-eabi/10.3.1/thumb/v7e-m+dp/hard\libgcc.a(_aeabi_uldivmod.o)
                0x0000000008000528                __aeabi_uldivmod
 .text          0x0000000008000558      0x2d0 c:/st/stm32cubeide_1.9.0/stm32cubeide/plugins/com.st.stm32cube.ide.mcu.externaltools.gnu-tools-for-stm32.10.3-2021.10.win32_1.0.0.202111181127/tools/bin/../lib/gcc/arm-none-eabi/10.3.1/thumb/v7e-m+dp/hard\libgcc.a(_udivmoddi4.o)
                0x0000000008000558                __udivmoddi4
 .text          0x0000000008000828        0x4 c:/st/stm32cubeide_1.9.0/stm32cubeide/plugins/com.st.stm32cube.ide.mcu.externaltools.gnu-tools-for-stm32.10.3-2021.10.win32_1.0.0.202111181127/tools/bin/../lib/gcc/arm-none-eabi/10.3.1/thumb/v7e-m+dp/hard\libgcc.a(_dvmd_tls.o)
                0x0000000008000828                __aeabi_idiv0
                0x0000000008000828                __aeabi_ldiv0
 *(.text*)
 .text.tx_application_define
                0x000000000800082c       0x84 ./AZURE_RTOS/App/app_azure_rtos.o
                0x000000000800082c                tx_application_define
 .text.SystemInit
                0x00000000080008b0      0x12c ./Common/Src/system_stm32h7xx_dualcore_boot_cm4_cm7.o
                0x00000000080008b0                SystemInit
 .text.App_ThreadX_Init
                0x00000000080009dc       0x1e ./Core/Src/app_threadx.o
                0x00000000080009dc                App_ThreadX_Init
 .text.MX_ThreadX_Init
                0x00000000080009fa        0xc ./Core/Src/app_threadx.o
                0x00000000080009fa                MX_ThreadX_Init
 *fill*         0x0000000008000a06        0x2 
 .text.MX_DMA_Init
                0x0000000008000a08       0x40 ./Core/Src/dma.o
                0x0000000008000a08                MX_DMA_Init
 .text.MX_GPIO_Init
                0x0000000008000a48       0x70 ./Core/Src/gpio.o
                0x0000000008000a48                MX_GPIO_Init
 .text.main     0x0000000008000ab8      0x16c ./Core/Src/main.o
                0x0000000008000ab8                main
 .text.SystemClock_Config
                0x0000000008000c24      0x160 ./Core/Src/main.o
                0x0000000008000c24                SystemClock_Config
 .text.MPU_Config
                0x0000000008000d84       0x84 ./Core/Src/main.o
 .text.HAL_TIM_PeriodElapsedCallback
                0x0000000008000e08       0x24 ./Core/Src/main.o
                0x0000000008000e08                HAL_TIM_PeriodElapsedCallback
 .text.Error_Handler
                0x0000000008000e2c        0xa ./Core/Src/main.o
                0x0000000008000e2c                Error_Handler
 *fill*         0x0000000008000e36        0x2 
 .text.HAL_MspInit
                0x0000000008000e38       0x34 ./Core/Src/stm32h7xx_hal_msp.o
                0x0000000008000e38                HAL_MspInit
 .text.HAL_InitTick
                0x0000000008000e6c       0xd8 ./Core/Src/stm32h7xx_hal_timebase_tim.o
                0x0000000008000e6c                HAL_InitTick
 .text.NMI_Handler
                0x0000000008000f44        0x6 ./Core/Src/stm32h7xx_it.o
                0x0000000008000f44                NMI_Handler
 .text.HardFault_Handler
                0x0000000008000f4a        0x6 ./Core/Src/stm32h7xx_it.o
                0x0000000008000f4a                HardFault_Handler
 .text.MemManage_Handler
                0x0000000008000f50        0x6 ./Core/Src/stm32h7xx_it.o
                0x0000000008000f50                MemManage_Handler
 .text.BusFault_Handler
                0x0000000008000f56        0x6 ./Core/Src/stm32h7xx_it.o
                0x0000000008000f56                BusFault_Handler
 .text.UsageFault_Handler
                0x0000000008000f5c        0x6 ./Core/Src/stm32h7xx_it.o
                0x0000000008000f5c                UsageFault_Handler
 .text.DebugMon_Handler
                0x0000000008000f62        0xe ./Core/Src/stm32h7xx_it.o
                0x0000000008000f62                DebugMon_Handler
 .text.DMA1_Stream0_IRQHandler
                0x0000000008000f70       0x14 ./Core/Src/stm32h7xx_it.o
                0x0000000008000f70                DMA1_Stream0_IRQHandler
 .text.USART3_IRQHandler
                0x0000000008000f84       0x14 ./Core/Src/stm32h7xx_it.o
                0x0000000008000f84                USART3_IRQHandler
 .text.TIM6_DAC_IRQHandler
                0x0000000008000f98       0x14 ./Core/Src/stm32h7xx_it.o
                0x0000000008000f98                TIM6_DAC_IRQHandler
 .text.OTG_FS_IRQHandler
                0x0000000008000fac       0x14 ./Core/Src/stm32h7xx_it.o
                0x0000000008000fac                OTG_FS_IRQHandler
 .text.MX_USART3_UART_Init
                0x0000000008000fc0       0x98 ./Core/Src/usart.o
                0x0000000008000fc0                MX_USART3_UART_Init
 .text.HAL_UART_MspInit
                0x0000000008001058      0x13c ./Core/Src/usart.o
                0x0000000008001058                HAL_UART_MspInit
 .text.HAL_UART_MspDeInit
                0x0000000008001194       0x50 ./Core/Src/usart.o
                0x0000000008001194                HAL_UART_MspDeInit
 .text.MX_USB_OTG_FS_PCD_Init
                0x00000000080011e4       0x74 ./Core/Src/usb_otg.o
                0x00000000080011e4                MX_USB_OTG_FS_PCD_Init
 .text.HAL_PCD_MspInit
                0x0000000008001258       0xe4 ./Core/Src/usb_otg.o
                0x0000000008001258                HAL_PCD_MspInit
 .text.Reset_Handler
                0x000000000800133c       0x50 ./Core/Startup/startup_stm32h745zitx.o
                0x000000000800133c                Reset_Handler
 .text.Default_Handler
                0x000000000800138c        0x2 ./Core/Startup/startup_stm32h745zitx.o
                0x000000000800138c                RTC_Alarm_IRQHandler
                0x000000000800138c                EXTI2_IRQHandler
                0x000000000800138c                TIM8_CC_IRQHandler
                0x000000000800138c                HRTIM1_Master_IRQHandler
                0x000000000800138c                UART8_IRQHandler
                0x000000000800138c                SPI4_IRQHandler
                0x000000000800138c                TIM1_CC_IRQHandler
                0x000000000800138c                BDMA_Channel6_IRQHandler
                0x000000000800138c                DMA2_Stream5_IRQHandler
                0x000000000800138c                HRTIM1_FLT_IRQHandler
                0x000000000800138c                JPEG_IRQHandler
                0x000000000800138c                DMA1_Stream5_IRQHandler
                0x000000000800138c                BDMA_Channel1_IRQHandler
                0x000000000800138c                HRTIM1_TIMD_IRQHandler
                0x000000000800138c                TAMP_STAMP_IRQHandler
                0x000000000800138c                EXTI3_IRQHandler
                0x000000000800138c                LPTIM4_IRQHandler
                0x000000000800138c                TIM8_TRG_COM_TIM14_IRQHandler
                0x000000000800138c                LPTIM2_IRQHandler
                0x000000000800138c                DFSDM1_FLT1_IRQHandler
                0x000000000800138c                DMAMUX2_OVR_IRQHandler
                0x000000000800138c                TIM8_UP_TIM13_IRQHandler
                0x000000000800138c                I2C3_ER_IRQHandler
                0x000000000800138c                DFSDM1_FLT2_IRQHandler
                0x000000000800138c                MDMA_IRQHandler
                0x000000000800138c                LPTIM3_IRQHandler
                0x000000000800138c                HSEM1_IRQHandler
                0x000000000800138c                EXTI0_IRQHandler
                0x000000000800138c                I2C2_EV_IRQHandler
                0x000000000800138c                DMA1_Stream2_IRQHandler
                0x000000000800138c                FPU_IRQHandler
                0x000000000800138c                OTG_HS_WKUP_IRQHandler
                0x000000000800138c                FDCAN1_IT1_IRQHandler
                0x000000000800138c                LTDC_ER_IRQHandler
                0x000000000800138c                DMA2_Stream2_IRQHandler
                0x000000000800138c                HRTIM1_TIME_IRQHandler
                0x000000000800138c                SPI1_IRQHandler
                0x000000000800138c                DCMI_IRQHandler
                0x000000000800138c                HRTIM1_TIMC_IRQHandler
                0x000000000800138c                DMA2_Stream3_IRQHandler
                0x000000000800138c                SAI2_IRQHandler
                0x000000000800138c                DFSDM1_FLT3_IRQHandler
                0x000000000800138c                USART6_IRQHandler
                0x000000000800138c                TIM17_IRQHandler
                0x000000000800138c                BDMA_Channel7_IRQHandler
                0x000000000800138c                LPTIM5_IRQHandler
                0x000000000800138c                UART5_IRQHandler
                0x000000000800138c                ADC3_IRQHandler
                0x000000000800138c                DMA2_Stream0_IRQHandler
                0x000000000800138c                TIM4_IRQHandler
                0x000000000800138c                BDMA_Channel2_IRQHandler
                0x000000000800138c                QUADSPI_IRQHandler
                0x000000000800138c                I2C1_EV_IRQHandler
                0x000000000800138c                DMA1_Stream6_IRQHandler
                0x000000000800138c                DMAMUX1_OVR_IRQHandler
                0x000000000800138c                DMA1_Stream1_IRQHandler
                0x000000000800138c                TIM16_IRQHandler
                0x000000000800138c                UART4_IRQHandler
                0x000000000800138c                BDMA_Channel5_IRQHandler
                0x000000000800138c                TIM3_IRQHandler
                0x000000000800138c                RCC_IRQHandler
                0x000000000800138c                TIM8_BRK_TIM12_IRQHandler
                0x000000000800138c                TIM1_TRG_COM_IRQHandler
                0x000000000800138c                Default_Handler
                0x000000000800138c                ECC_IRQHandler
                0x000000000800138c                CEC_IRQHandler
                0x000000000800138c                EXTI15_10_IRQHandler
                0x000000000800138c                BDMA_Channel0_IRQHandler
                0x000000000800138c                ADC_IRQHandler
                0x000000000800138c                DMA1_Stream7_IRQHandler
                0x000000000800138c                HRTIM1_TIMA_IRQHandler
                0x000000000800138c                SPI5_IRQHandler
                0x000000000800138c                TIM7_IRQHandler
                0x000000000800138c                SDMMC1_IRQHandler
                0x000000000800138c                TIM5_IRQHandler
                0x000000000800138c                DMA2_Stream7_IRQHandler
                0x000000000800138c                TIM15_IRQHandler
                0x000000000800138c                PVD_AVD_IRQHandler
                0x000000000800138c                I2C3_EV_IRQHandler
                0x000000000800138c                EXTI9_5_IRQHandler
                0x000000000800138c                RTC_WKUP_IRQHandler
                0x000000000800138c                LTDC_IRQHandler
                0x000000000800138c                SAI3_IRQHandler
                0x000000000800138c                ETH_WKUP_IRQHandler
                0x000000000800138c                SPDIF_RX_IRQHandler
                0x000000000800138c                SPI2_IRQHandler
                0x000000000800138c                OTG_HS_EP1_IN_IRQHandler
                0x000000000800138c                SVC_Handler
                0x000000000800138c                CRS_IRQHandler
                0x000000000800138c                CM7_SEV_IRQHandler
                0x000000000800138c                EXTI4_IRQHandler
                0x000000000800138c                RNG_IRQHandler
                0x000000000800138c                CM4_SEV_IRQHandler
                0x000000000800138c                HRTIM1_TIMB_IRQHandler
                0x000000000800138c                FDCAN2_IT1_IRQHandler
                0x000000000800138c                ETH_IRQHandler
                0x000000000800138c                TIM1_UP_IRQHandler
                0x000000000800138c                WWDG_RST_IRQHandler
                0x000000000800138c                BDMA_Channel4_IRQHandler
                0x000000000800138c                OTG_HS_EP1_OUT_IRQHandler
                0x000000000800138c                WWDG_IRQHandler
                0x000000000800138c                SPI6_IRQHandler
                0x000000000800138c                MDIOS_IRQHandler
                0x000000000800138c                I2C4_EV_IRQHandler
                0x000000000800138c                FDCAN2_IT0_IRQHandler
                0x000000000800138c                LPUART1_IRQHandler
                0x000000000800138c                FDCAN1_IT0_IRQHandler
                0x000000000800138c                TIM2_IRQHandler
                0x000000000800138c                OTG_FS_WKUP_IRQHandler
                0x000000000800138c                OTG_HS_IRQHandler
                0x000000000800138c                HSEM2_IRQHandler
                0x000000000800138c                DMA2D_IRQHandler
                0x000000000800138c                TIM1_BRK_IRQHandler
                0x000000000800138c                EXTI1_IRQHandler
                0x000000000800138c                SDMMC2_IRQHandler
                0x000000000800138c                OTG_FS_EP1_OUT_IRQHandler
                0x000000000800138c                BDMA_Channel3_IRQHandler
                0x000000000800138c                HOLD_CORE_IRQHandler
                0x000000000800138c                UART7_IRQHandler
                0x000000000800138c                MDIOS_WKUP_IRQHandler
                0x000000000800138c                USART2_IRQHandler
                0x000000000800138c                DFSDM1_FLT0_IRQHandler
                0x000000000800138c                SAI4_IRQHandler
                0x000000000800138c                I2C2_ER_IRQHandler
                0x000000000800138c                DMA2_Stream1_IRQHandler
                0x000000000800138c                FLASH_IRQHandler
                0x000000000800138c                DMA2_Stream4_IRQHandler
                0x000000000800138c                USART1_IRQHandler
                0x000000000800138c                SPI3_IRQHandler
                0x000000000800138c                WAKEUP_PIN_IRQHandler
                0x000000000800138c                DMA1_Stream4_IRQHandler
                0x000000000800138c                OTG_FS_EP1_IN_IRQHandler
                0x000000000800138c                I2C1_ER_IRQHandler
                0x000000000800138c                FMC_IRQHandler
                0x000000000800138c                FDCAN_CAL_IRQHandler
                0x000000000800138c                SWPMI1_IRQHandler
                0x000000000800138c                COMP1_IRQHandler
                0x000000000800138c                LPTIM1_IRQHandler
                0x000000000800138c                I2C4_ER_IRQHandler
                0x000000000800138c                DMA2_Stream6_IRQHandler
                0x000000000800138c                SAI1_IRQHandler
                0x000000000800138c                DMA1_Stream3_IRQHandler
 *fill*         0x000000000800138e        0x2 
 .text.HAL_Init
                0x0000000008001390       0x78 ./Drivers/STM32H7xx_HAL_Driver/stm32h7xx_hal.o
                0x0000000008001390                HAL_Init
 .text.HAL_IncTick
                0x0000000008001408       0x28 ./Drivers/STM32H7xx_HAL_Driver/stm32h7xx_hal.o
                0x0000000008001408                HAL_IncTick
 .text.HAL_GetTick
                0x0000000008001430       0x18 ./Drivers/STM32H7xx_HAL_Driver/stm32h7xx_hal.o
                0x0000000008001430                HAL_GetTick
 .text.HAL_Delay
                0x0000000008001448       0x48 ./Drivers/STM32H7xx_HAL_Driver/stm32h7xx_hal.o
                0x0000000008001448                HAL_Delay
 .text.HAL_GetREVID
                0x0000000008001490       0x18 ./Drivers/STM32H7xx_HAL_Driver/stm32h7xx_hal.o
                0x0000000008001490                HAL_GetREVID
 .text.__NVIC_SetPriorityGrouping
                0x00000000080014a8       0x48 ./Drivers/STM32H7xx_HAL_Driver/stm32h7xx_hal_cortex.o
 .text.__NVIC_GetPriorityGrouping
                0x00000000080014f0       0x1c ./Drivers/STM32H7xx_HAL_Driver/stm32h7xx_hal_cortex.o
 .text.__NVIC_EnableIRQ
                0x000000000800150c       0x3c ./Drivers/STM32H7xx_HAL_Driver/stm32h7xx_hal_cortex.o
 .text.__NVIC_DisableIRQ
                0x0000000008001548       0x48 ./Drivers/STM32H7xx_HAL_Driver/stm32h7xx_hal_cortex.o
 .text.__NVIC_SetPriority
                0x0000000008001590       0x54 ./Drivers/STM32H7xx_HAL_Driver/stm32h7xx_hal_cortex.o
 .text.NVIC_EncodePriority
                0x00000000080015e4       0x66 ./Drivers/STM32H7xx_HAL_Driver/stm32h7xx_hal_cortex.o
 .text.HAL_NVIC_SetPriorityGrouping
                0x000000000800164a       0x16 ./Drivers/STM32H7xx_HAL_Driver/stm32h7xx_hal_cortex.o
                0x000000000800164a                HAL_NVIC_SetPriorityGrouping
 .text.HAL_NVIC_SetPriority
                0x0000000008001660       0x34 ./Drivers/STM32H7xx_HAL_Driver/stm32h7xx_hal_cortex.o
                0x0000000008001660                HAL_NVIC_SetPriority
 .text.HAL_NVIC_EnableIRQ
                0x0000000008001694       0x1c ./Drivers/STM32H7xx_HAL_Driver/stm32h7xx_hal_cortex.o
                0x0000000008001694                HAL_NVIC_EnableIRQ
 .text.HAL_NVIC_DisableIRQ
                0x00000000080016b0       0x1c ./Drivers/STM32H7xx_HAL_Driver/stm32h7xx_hal_cortex.o
                0x00000000080016b0                HAL_NVIC_DisableIRQ
 .text.HAL_MPU_Disable
                0x00000000080016cc       0x30 ./Drivers/STM32H7xx_HAL_Driver/stm32h7xx_hal_cortex.o
                0x00000000080016cc                HAL_MPU_Disable
 .text.HAL_MPU_Enable
                0x00000000080016fc       0x40 ./Drivers/STM32H7xx_HAL_Driver/stm32h7xx_hal_cortex.o
                0x00000000080016fc                HAL_MPU_Enable
 .text.HAL_MPU_ConfigRegion
                0x000000000800173c       0x88 ./Drivers/STM32H7xx_HAL_Driver/stm32h7xx_hal_cortex.o
                0x000000000800173c                HAL_MPU_ConfigRegion
 .text.HAL_DMA_Init
                0x00000000080017c4      0x6b8 ./Drivers/STM32H7xx_HAL_Driver/stm32h7xx_hal_dma.o
                0x00000000080017c4                HAL_DMA_Init
 .text.HAL_DMA_DeInit
                0x0000000008001e7c      0x36c ./Drivers/STM32H7xx_HAL_Driver/stm32h7xx_hal_dma.o
                0x0000000008001e7c                HAL_DMA_DeInit
 .text.HAL_DMA_Start_IT
                0x00000000080021e8      0x4d4 ./Drivers/STM32H7xx_HAL_Driver/stm32h7xx_hal_dma.o
                0x00000000080021e8                HAL_DMA_Start_IT
 .text.HAL_DMA_Abort
                0x00000000080026bc      0x63c ./Drivers/STM32H7xx_HAL_Driver/stm32h7xx_hal_dma.o
                0x00000000080026bc                HAL_DMA_Abort
 .text.HAL_DMA_Abort_IT
                0x0000000008002cf8      0x48c ./Drivers/STM32H7xx_HAL_Driver/stm32h7xx_hal_dma.o
                0x0000000008002cf8                HAL_DMA_Abort_IT
 .text.HAL_DMA_IRQHandler
                0x0000000008003184      0xe54 ./Drivers/STM32H7xx_HAL_Driver/stm32h7xx_hal_dma.o
                0x0000000008003184                HAL_DMA_IRQHandler
 .text.DMA_SetConfig
                0x0000000008003fd8      0x358 ./Drivers/STM32H7xx_HAL_Driver/stm32h7xx_hal_dma.o
 .text.DMA_CalcBaseAndBitshift
                0x0000000008004330      0x164 ./Drivers/STM32H7xx_HAL_Driver/stm32h7xx_hal_dma.o
 .text.DMA_CheckFifoParam
                0x0000000008004494       0xf8 ./Drivers/STM32H7xx_HAL_Driver/stm32h7xx_hal_dma.o
 .text.DMA_CalcDMAMUXChannelBaseAndMask
                0x000000000800458c      0x134 ./Drivers/STM32H7xx_HAL_Driver/stm32h7xx_hal_dma.o
 .text.DMA_CalcDMAMUXRequestGenBaseAndMask
                0x00000000080046c0       0xe8 ./Drivers/STM32H7xx_HAL_Driver/stm32h7xx_hal_dma.o
 .text.HAL_GPIO_Init
                0x00000000080047a8      0x360 ./Drivers/STM32H7xx_HAL_Driver/stm32h7xx_hal_gpio.o
                0x00000000080047a8                HAL_GPIO_Init
 .text.HAL_GPIO_DeInit
                0x0000000008004b08      0x214 ./Drivers/STM32H7xx_HAL_Driver/stm32h7xx_hal_gpio.o
                0x0000000008004b08                HAL_GPIO_DeInit
 .text.HAL_HSEM_FastTake
                0x0000000008004d1c       0x34 ./Drivers/STM32H7xx_HAL_Driver/stm32h7xx_hal_hsem.o
                0x0000000008004d1c                HAL_HSEM_FastTake
 .text.HAL_HSEM_Release
                0x0000000008004d50       0x28 ./Drivers/STM32H7xx_HAL_Driver/stm32h7xx_hal_hsem.o
                0x0000000008004d50                HAL_HSEM_Release
 .text.HAL_PCD_Init
                0x0000000008004d78      0x248 ./Drivers/STM32H7xx_HAL_Driver/stm32h7xx_hal_pcd.o
                0x0000000008004d78                HAL_PCD_Init
 .text.HAL_PCD_Start
                0x0000000008004fc0       0x66 ./Drivers/STM32H7xx_HAL_Driver/stm32h7xx_hal_pcd.o
                0x0000000008004fc0                HAL_PCD_Start
 .text.HAL_PCD_Stop
                0x0000000008005026       0x72 ./Drivers/STM32H7xx_HAL_Driver/stm32h7xx_hal_pcd.o
                0x0000000008005026                HAL_PCD_Stop
 .text.HAL_PCD_IRQHandler
                0x0000000008005098      0x998 ./Drivers/STM32H7xx_HAL_Driver/stm32h7xx_hal_pcd.o
                0x0000000008005098                HAL_PCD_IRQHandler
 .text.HAL_PCD_SOFCallback
                0x0000000008005a30       0x14 ./Drivers/STM32H7xx_HAL_Driver/stm32h7xx_hal_pcd.o
                0x0000000008005a30                HAL_PCD_SOFCallback
 .text.HAL_PCD_SuspendCallback
                0x0000000008005a44       0x14 ./Drivers/STM32H7xx_HAL_Driver/stm32h7xx_hal_pcd.o
                0x0000000008005a44                HAL_PCD_SuspendCallback
 .text.HAL_PCD_ResumeCallback
                0x0000000008005a58       0x14 ./Drivers/STM32H7xx_HAL_Driver/stm32h7xx_hal_pcd.o
                0x0000000008005a58                HAL_PCD_ResumeCallback
 .text.HAL_PCD_ISOOUTIncompleteCallback
                0x0000000008005a6c       0x18 ./Drivers/STM32H7xx_HAL_Driver/stm32h7xx_hal_pcd.o
                0x0000000008005a6c                HAL_PCD_ISOOUTIncompleteCallback
 .text.HAL_PCD_ISOINIncompleteCallback
                0x0000000008005a84       0x18 ./Drivers/STM32H7xx_HAL_Driver/stm32h7xx_hal_pcd.o
                0x0000000008005a84                HAL_PCD_ISOINIncompleteCallback
 .text.HAL_PCD_ConnectCallback
                0x0000000008005a9c       0x14 ./Drivers/STM32H7xx_HAL_Driver/stm32h7xx_hal_pcd.o
                0x0000000008005a9c                HAL_PCD_ConnectCallback
 .text.HAL_PCD_SetAddress
                0x0000000008005ab0       0x4a ./Drivers/STM32H7xx_HAL_Driver/stm32h7xx_hal_pcd.o
                0x0000000008005ab0                HAL_PCD_SetAddress
 .text.HAL_PCD_EP_Open
                0x0000000008005afa       0xd0 ./Drivers/STM32H7xx_HAL_Driver/stm32h7xx_hal_pcd.o
                0x0000000008005afa                HAL_PCD_EP_Open
 .text.HAL_PCD_EP_Close
                0x0000000008005bca       0x94 ./Drivers/STM32H7xx_HAL_Driver/stm32h7xx_hal_pcd.o
                0x0000000008005bca                HAL_PCD_EP_Close
 .text.HAL_PCD_EP_Receive
                0x0000000008005c5e       0x96 ./Drivers/STM32H7xx_HAL_Driver/stm32h7xx_hal_pcd.o
                0x0000000008005c5e                HAL_PCD_EP_Receive
 .text.HAL_PCD_EP_GetRxCount
                0x0000000008005cf4       0x30 ./Drivers/STM32H7xx_HAL_Driver/stm32h7xx_hal_pcd.o
                0x0000000008005cf4                HAL_PCD_EP_GetRxCount
 .text.HAL_PCD_EP_Transmit
                0x0000000008005d24       0x94 ./Drivers/STM32H7xx_HAL_Driver/stm32h7xx_hal_pcd.o
                0x0000000008005d24                HAL_PCD_EP_Transmit
 .text.HAL_PCD_EP_SetStall
                0x0000000008005db8       0xc8 ./Drivers/STM32H7xx_HAL_Driver/stm32h7xx_hal_pcd.o
                0x0000000008005db8                HAL_PCD_EP_SetStall
 .text.HAL_PCD_EP_ClrStall
                0x0000000008005e80       0xac ./Drivers/STM32H7xx_HAL_Driver/stm32h7xx_hal_pcd.o
                0x0000000008005e80                HAL_PCD_EP_ClrStall
 .text.HAL_PCD_EP_Abort
                0x0000000008005f2c       0x62 ./Drivers/STM32H7xx_HAL_Driver/stm32h7xx_hal_pcd.o
                0x0000000008005f2c                HAL_PCD_EP_Abort
 .text.HAL_PCD_EP_Flush
                0x0000000008005f8e       0x5a ./Drivers/STM32H7xx_HAL_Driver/stm32h7xx_hal_pcd.o
                0x0000000008005f8e                HAL_PCD_EP_Flush
 .text.PCD_WriteEmptyTxFifo
                0x0000000008005fe8      0x11a ./Drivers/STM32H7xx_HAL_Driver/stm32h7xx_hal_pcd.o
 *fill*         0x0000000008006102        0x2 
 .text.PCD_EP_OutXfrComplete_int
                0x0000000008006104      0x1d0 ./Drivers/STM32H7xx_HAL_Driver/stm32h7xx_hal_pcd.o
 .text.PCD_EP_OutSetupPacket_int
                0x00000000080062d4       0x8c ./Drivers/STM32H7xx_HAL_Driver/stm32h7xx_hal_pcd.o
 .text.HAL_PCDEx_SetTxFiFo
                0x0000000008006360       0x8e ./Drivers/STM32H7xx_HAL_Driver/stm32h7xx_hal_pcd_ex.o
                0x0000000008006360                HAL_PCDEx_SetTxFiFo
 .text.HAL_PCDEx_SetRxFiFo
                0x00000000080063ee       0x22 ./Drivers/STM32H7xx_HAL_Driver/stm32h7xx_hal_pcd_ex.o
                0x00000000080063ee                HAL_PCDEx_SetRxFiFo
 .text.HAL_PCDEx_ActivateLPM
                0x0000000008006410       0x48 ./Drivers/STM32H7xx_HAL_Driver/stm32h7xx_hal_pcd_ex.o
                0x0000000008006410                HAL_PCDEx_ActivateLPM
 .text.HAL_PCDEx_LPM_Callback
                0x0000000008006458       0x18 ./Drivers/STM32H7xx_HAL_Driver/stm32h7xx_hal_pcd_ex.o
                0x0000000008006458                HAL_PCDEx_LPM_Callback
 .text.HAL_PWREx_ConfigSupply
                0x0000000008006470       0xb4 ./Drivers/STM32H7xx_HAL_Driver/stm32h7xx_hal_pwr_ex.o
                0x0000000008006470                HAL_PWREx_ConfigSupply
 .text.HAL_PWREx_EnableUSBVoltageDetector
                0x0000000008006524       0x20 ./Drivers/STM32H7xx_HAL_Driver/stm32h7xx_hal_pwr_ex.o
                0x0000000008006524                HAL_PWREx_EnableUSBVoltageDetector
 .text.HAL_RCC_OscConfig
                0x0000000008006544      0x85c ./Drivers/STM32H7xx_HAL_Driver/stm32h7xx_hal_rcc.o
                0x0000000008006544                HAL_RCC_OscConfig
 .text.HAL_RCC_ClockConfig
                0x0000000008006da0      0x36c ./Drivers/STM32H7xx_HAL_Driver/stm32h7xx_hal_rcc.o
                0x0000000008006da0                HAL_RCC_ClockConfig
 .text.HAL_RCC_GetSysClockFreq
                0x000000000800710c      0x2f4 ./Drivers/STM32H7xx_HAL_Driver/stm32h7xx_hal_rcc.o
                0x000000000800710c                HAL_RCC_GetSysClockFreq
 .text.HAL_RCC_GetHCLKFreq
                0x0000000008007400       0x60 ./Drivers/STM32H7xx_HAL_Driver/stm32h7xx_hal_rcc.o
                0x0000000008007400                HAL_RCC_GetHCLKFreq
 .text.HAL_RCC_GetPCLK1Freq
                0x0000000008007460       0x2c ./Drivers/STM32H7xx_HAL_Driver/stm32h7xx_hal_rcc.o
                0x0000000008007460                HAL_RCC_GetPCLK1Freq
 .text.HAL_RCC_GetPCLK2Freq
                0x000000000800748c       0x2c ./Drivers/STM32H7xx_HAL_Driver/stm32h7xx_hal_rcc.o
                0x000000000800748c                HAL_RCC_GetPCLK2Freq
 .text.HAL_RCC_GetClockConfig
                0x00000000080074b8       0x84 ./Drivers/STM32H7xx_HAL_Driver/stm32h7xx_hal_rcc.o
                0x00000000080074b8                HAL_RCC_GetClockConfig
 .text.HAL_RCCEx_PeriphCLKConfig
                0x000000000800753c      0xe8c ./Drivers/STM32H7xx_HAL_Driver/stm32h7xx_hal_rcc_ex.o
                0x000000000800753c                HAL_RCCEx_PeriphCLKConfig
 .text.HAL_RCCEx_GetD3PCLK1Freq
                0x00000000080083c8       0x2c ./Drivers/STM32H7xx_HAL_Driver/stm32h7xx_hal_rcc_ex.o
                0x00000000080083c8                HAL_RCCEx_GetD3PCLK1Freq
 .text.HAL_RCCEx_GetPLL2ClockFreq
                0x00000000080083f4      0x2a8 ./Drivers/STM32H7xx_HAL_Driver/stm32h7xx_hal_rcc_ex.o
                0x00000000080083f4                HAL_RCCEx_GetPLL2ClockFreq
 .text.HAL_RCCEx_GetPLL3ClockFreq
                0x000000000800869c      0x2a8 ./Drivers/STM32H7xx_HAL_Driver/stm32h7xx_hal_rcc_ex.o
                0x000000000800869c                HAL_RCCEx_GetPLL3ClockFreq
 .text.HAL_RCCEx_CRSConfig
                0x0000000008008944       0xac ./Drivers/STM32H7xx_HAL_Driver/stm32h7xx_hal_rcc_ex.o
                0x0000000008008944                HAL_RCCEx_CRSConfig
 .text.RCCEx_PLL2_Config
                0x00000000080089f0      0x164 ./Drivers/STM32H7xx_HAL_Driver/stm32h7xx_hal_rcc_ex.o
 .text.RCCEx_PLL3_Config
                0x0000000008008b54      0x164 ./Drivers/STM32H7xx_HAL_Driver/stm32h7xx_hal_rcc_ex.o
 .text.HAL_TIM_Base_Init
                0x0000000008008cb8       0xae ./Drivers/STM32H7xx_HAL_Driver/stm32h7xx_hal_tim.o
                0x0000000008008cb8                HAL_TIM_Base_Init
 .text.HAL_TIM_Base_MspInit
                0x0000000008008d66       0x14 ./Drivers/STM32H7xx_HAL_Driver/stm32h7xx_hal_tim.o
                0x0000000008008d66                HAL_TIM_Base_MspInit
 *fill*         0x0000000008008d7a        0x2 
 .text.HAL_TIM_Base_Start_IT
                0x0000000008008d7c       0xf0 ./Drivers/STM32H7xx_HAL_Driver/stm32h7xx_hal_tim.o
                0x0000000008008d7c                HAL_TIM_Base_Start_IT
 .text.HAL_TIM_IRQHandler
                0x0000000008008e6c      0x23e ./Drivers/STM32H7xx_HAL_Driver/stm32h7xx_hal_tim.o
                0x0000000008008e6c                HAL_TIM_IRQHandler
 .text.HAL_TIM_OC_DelayElapsedCallback
                0x00000000080090aa       0x14 ./Drivers/STM32H7xx_HAL_Driver/stm32h7xx_hal_tim.o
                0x00000000080090aa                HAL_TIM_OC_DelayElapsedCallback
 .text.HAL_TIM_IC_CaptureCallback
                0x00000000080090be       0x14 ./Drivers/STM32H7xx_HAL_Driver/stm32h7xx_hal_tim.o
                0x00000000080090be                HAL_TIM_IC_CaptureCallback
 .text.HAL_TIM_PWM_PulseFinishedCallback
                0x00000000080090d2       0x14 ./Drivers/STM32H7xx_HAL_Driver/stm32h7xx_hal_tim.o
                0x00000000080090d2                HAL_TIM_PWM_PulseFinishedCallback
 .text.HAL_TIM_TriggerCallback
                0x00000000080090e6       0x14 ./Drivers/STM32H7xx_HAL_Driver/stm32h7xx_hal_tim.o
                0x00000000080090e6                HAL_TIM_TriggerCallback
 *fill*         0x00000000080090fa        0x2 
 .text.TIM_Base_SetConfig
                0x00000000080090fc      0x134 ./Drivers/STM32H7xx_HAL_Driver/stm32h7xx_hal_tim.o
                0x00000000080090fc                TIM_Base_SetConfig
 .text.HAL_TIMEx_CommutCallback
                0x0000000008009230       0x14 ./Drivers/STM32H7xx_HAL_Driver/stm32h7xx_hal_tim_ex.o
                0x0000000008009230                HAL_TIMEx_CommutCallback
 .text.HAL_TIMEx_BreakCallback
                0x0000000008009244       0x14 ./Drivers/STM32H7xx_HAL_Driver/stm32h7xx_hal_tim_ex.o
                0x0000000008009244                HAL_TIMEx_BreakCallback
 .text.HAL_TIMEx_Break2Callback
                0x0000000008009258       0x14 ./Drivers/STM32H7xx_HAL_Driver/stm32h7xx_hal_tim_ex.o
                0x0000000008009258                HAL_TIMEx_Break2Callback
 .text.HAL_UART_Init
                0x000000000800926c       0xa0 ./Drivers/STM32H7xx_HAL_Driver/stm32h7xx_hal_uart.o
                0x000000000800926c                HAL_UART_Init
 .text.HAL_UART_DeInit
                0x000000000800930c       0x78 ./Drivers/STM32H7xx_HAL_Driver/stm32h7xx_hal_uart.o
                0x000000000800930c                HAL_UART_DeInit
 .text.HAL_UART_Receive_IT
                0x0000000008009384       0xac ./Drivers/STM32H7xx_HAL_Driver/stm32h7xx_hal_uart.o
                0x0000000008009384                HAL_UART_Receive_IT
 .text.HAL_UART_Transmit_DMA
                0x0000000008009430      0x124 ./Drivers/STM32H7xx_HAL_Driver/stm32h7xx_hal_uart.o
                0x0000000008009430                HAL_UART_Transmit_DMA
 .text.HAL_UART_IRQHandler
                0x0000000008009554      0x73c ./Drivers/STM32H7xx_HAL_Driver/stm32h7xx_hal_uart.o
                0x0000000008009554                HAL_UART_IRQHandler
 .text.HAL_UART_TxHalfCpltCallback
                0x0000000008009c90       0x14 ./Drivers/STM32H7xx_HAL_Driver/stm32h7xx_hal_uart.o
                0x0000000008009c90                HAL_UART_TxHalfCpltCallback
 .text.HAL_UARTEx_RxEventCallback
                0x0000000008009ca4       0x18 ./Drivers/STM32H7xx_HAL_Driver/stm32h7xx_hal_uart.o
                0x0000000008009ca4                HAL_UARTEx_RxEventCallback
 .text.UART_SetConfig
                0x0000000008009cbc      0xad0 ./Drivers/STM32H7xx_HAL_Driver/stm32h7xx_hal_uart.o
                0x0000000008009cbc                UART_SetConfig
 .text.UART_AdvFeatureConfig
                0x000000000800a78c      0x144 ./Drivers/STM32H7xx_HAL_Driver/stm32h7xx_hal_uart.o
                0x000000000800a78c                UART_AdvFeatureConfig
 .text.UART_CheckIdleState
                0x000000000800a8d0       0x96 ./Drivers/STM32H7xx_HAL_Driver/stm32h7xx_hal_uart.o
                0x000000000800a8d0                UART_CheckIdleState
 .text.UART_WaitOnFlagUntilTimeout
                0x000000000800a966      0x190 ./Drivers/STM32H7xx_HAL_Driver/stm32h7xx_hal_uart.o
                0x000000000800a966                UART_WaitOnFlagUntilTimeout
 *fill*         0x000000000800aaf6        0x2 
 .text.UART_Start_Receive_IT
                0x000000000800aaf8      0x254 ./Drivers/STM32H7xx_HAL_Driver/stm32h7xx_hal_uart.o
                0x000000000800aaf8                UART_Start_Receive_IT
 .text.UART_EndTxTransfer
                0x000000000800ad4c       0x82 ./Drivers/STM32H7xx_HAL_Driver/stm32h7xx_hal_uart.o
 *fill*         0x000000000800adce        0x2 
 .text.UART_EndRxTransfer
                0x000000000800add0       0xcc ./Drivers/STM32H7xx_HAL_Driver/stm32h7xx_hal_uart.o
 .text.UART_DMATransmitCplt
                0x000000000800ae9c       0x96 ./Drivers/STM32H7xx_HAL_Driver/stm32h7xx_hal_uart.o
 .text.UART_DMATxHalfCplt
                0x000000000800af32       0x1c ./Drivers/STM32H7xx_HAL_Driver/stm32h7xx_hal_uart.o
 .text.UART_DMAError
                0x000000000800af4e       0x80 ./Drivers/STM32H7xx_HAL_Driver/stm32h7xx_hal_uart.o
 .text.UART_DMAAbortOnError
                0x000000000800afce       0x2c ./Drivers/STM32H7xx_HAL_Driver/stm32h7xx_hal_uart.o
 .text.UART_EndTransmit_IT
                0x000000000800affa       0x56 ./Drivers/STM32H7xx_HAL_Driver/stm32h7xx_hal_uart.o
 .text.UART_RxISR_8BIT
                0x000000000800b050      0x160 ./Drivers/STM32H7xx_HAL_Driver/stm32h7xx_hal_uart.o
 .text.UART_RxISR_16BIT
                0x000000000800b1b0      0x160 ./Drivers/STM32H7xx_HAL_Driver/stm32h7xx_hal_uart.o
 .text.UART_RxISR_8BIT_FIFOEN
                0x000000000800b310      0x2f8 ./Drivers/STM32H7xx_HAL_Driver/stm32h7xx_hal_uart.o
 .text.UART_RxISR_16BIT_FIFOEN
                0x000000000800b608      0x300 ./Drivers/STM32H7xx_HAL_Driver/stm32h7xx_hal_uart.o
 .text.HAL_UARTEx_WakeupCallback
                0x000000000800b908       0x14 ./Drivers/STM32H7xx_HAL_Driver/stm32h7xx_hal_uart_ex.o
                0x000000000800b908                HAL_UARTEx_WakeupCallback
 .text.HAL_UARTEx_RxFifoFullCallback
                0x000000000800b91c       0x14 ./Drivers/STM32H7xx_HAL_Driver/stm32h7xx_hal_uart_ex.o
                0x000000000800b91c                HAL_UARTEx_RxFifoFullCallback
 .text.HAL_UARTEx_TxFifoEmptyCallback
                0x000000000800b930       0x14 ./Drivers/STM32H7xx_HAL_Driver/stm32h7xx_hal_uart_ex.o
                0x000000000800b930                HAL_UARTEx_TxFifoEmptyCallback
 .text.HAL_UARTEx_DisableFifoMode
                0x000000000800b944       0x72 ./Drivers/STM32H7xx_HAL_Driver/stm32h7xx_hal_uart_ex.o
                0x000000000800b944                HAL_UARTEx_DisableFifoMode
 .text.HAL_UARTEx_SetTxFifoThreshold
                0x000000000800b9b6       0x7c ./Drivers/STM32H7xx_HAL_Driver/stm32h7xx_hal_uart_ex.o
                0x000000000800b9b6                HAL_UARTEx_SetTxFifoThreshold
 .text.HAL_UARTEx_SetRxFifoThreshold
                0x000000000800ba32       0x7c ./Drivers/STM32H7xx_HAL_Driver/stm32h7xx_hal_uart_ex.o
                0x000000000800ba32                HAL_UARTEx_SetRxFifoThreshold
 *fill*         0x000000000800baae        0x2 
 .text.UARTEx_SetNbDataToProcess
                0x000000000800bab0       0x9c ./Drivers/STM32H7xx_HAL_Driver/stm32h7xx_hal_uart_ex.o
 .text.USB_CoreInit
                0x000000000800bb4c       0xdc ./Drivers/STM32H7xx_HAL_Driver/stm32h7xx_ll_usb.o
                0x000000000800bb4c                USB_CoreInit
 .text.USB_SetTurnaroundTime
                0x000000000800bc28      0x144 ./Drivers/STM32H7xx_HAL_Driver/stm32h7xx_ll_usb.o
                0x000000000800bc28                USB_SetTurnaroundTime
 .text.USB_EnableGlobalInt
                0x000000000800bd6c       0x22 ./Drivers/STM32H7xx_HAL_Driver/stm32h7xx_ll_usb.o
                0x000000000800bd6c                USB_EnableGlobalInt
 .text.USB_DisableGlobalInt
                0x000000000800bd8e       0x22 ./Drivers/STM32H7xx_HAL_Driver/stm32h7xx_ll_usb.o
                0x000000000800bd8e                USB_DisableGlobalInt
 .text.USB_SetCurrentMode
                0x000000000800bdb0       0x98 ./Drivers/STM32H7xx_HAL_Driver/stm32h7xx_ll_usb.o
                0x000000000800bdb0                USB_SetCurrentMode
 .text.USB_DevInit
                0x000000000800be48      0x2bc ./Drivers/STM32H7xx_HAL_Driver/stm32h7xx_ll_usb.o
                0x000000000800be48                USB_DevInit
 .text.USB_FlushTxFifo
                0x000000000800c104       0x68 ./Drivers/STM32H7xx_HAL_Driver/stm32h7xx_ll_usb.o
                0x000000000800c104                USB_FlushTxFifo
 .text.USB_FlushRxFifo
                0x000000000800c16c       0x60 ./Drivers/STM32H7xx_HAL_Driver/stm32h7xx_ll_usb.o
                0x000000000800c16c                USB_FlushRxFifo
 .text.USB_SetDevSpeed
                0x000000000800c1cc       0x32 ./Drivers/STM32H7xx_HAL_Driver/stm32h7xx_ll_usb.o
                0x000000000800c1cc                USB_SetDevSpeed
 .text.USB_GetDevSpeed
                0x000000000800c1fe       0x4a ./Drivers/STM32H7xx_HAL_Driver/stm32h7xx_ll_usb.o
                0x000000000800c1fe                USB_GetDevSpeed
 .text.USB_ActivateEndpoint
                0x000000000800c248      0x110 ./Drivers/STM32H7xx_HAL_Driver/stm32h7xx_ll_usb.o
                0x000000000800c248                USB_ActivateEndpoint
 .text.USB_DeactivateEndpoint
                0x000000000800c358      0x1b8 ./Drivers/STM32H7xx_HAL_Driver/stm32h7xx_ll_usb.o
                0x000000000800c358                USB_DeactivateEndpoint
 .text.USB_EPStartXfer
                0x000000000800c510      0x4a0 ./Drivers/STM32H7xx_HAL_Driver/stm32h7xx_ll_usb.o
                0x000000000800c510                USB_EPStartXfer
 .text.USB_EP0StartXfer
                0x000000000800c9b0      0x2b8 ./Drivers/STM32H7xx_HAL_Driver/stm32h7xx_ll_usb.o
                0x000000000800c9b0                USB_EP0StartXfer
 .text.USB_EPStopXfer
                0x000000000800cc68      0x154 ./Drivers/STM32H7xx_HAL_Driver/stm32h7xx_ll_usb.o
                0x000000000800cc68                USB_EPStopXfer
 .text.USB_WritePacket
                0x000000000800cdbc       0x7c ./Drivers/STM32H7xx_HAL_Driver/stm32h7xx_ll_usb.o
                0x000000000800cdbc                USB_WritePacket
 .text.USB_ReadPacket
                0x000000000800ce38       0xb0 ./Drivers/STM32H7xx_HAL_Driver/stm32h7xx_ll_usb.o
                0x000000000800ce38                USB_ReadPacket
 .text.USB_EPSetStall
                0x000000000800cee8       0xdc ./Drivers/STM32H7xx_HAL_Driver/stm32h7xx_ll_usb.o
                0x000000000800cee8                USB_EPSetStall
 .text.USB_EPClearStall
                0x000000000800cfc4       0xcc ./Drivers/STM32H7xx_HAL_Driver/stm32h7xx_ll_usb.o
                0x000000000800cfc4                USB_EPClearStall
 .text.USB_SetDevAddress
                0x000000000800d090       0x4c ./Drivers/STM32H7xx_HAL_Driver/stm32h7xx_ll_usb.o
                0x000000000800d090                USB_SetDevAddress
 .text.USB_DevConnect
                0x000000000800d0dc       0x42 ./Drivers/STM32H7xx_HAL_Driver/stm32h7xx_ll_usb.o
                0x000000000800d0dc                USB_DevConnect
 .text.USB_DevDisconnect
                0x000000000800d11e       0x42 ./Drivers/STM32H7xx_HAL_Driver/stm32h7xx_ll_usb.o
                0x000000000800d11e                USB_DevDisconnect
 .text.USB_ReadInterrupts
                0x000000000800d160       0x26 ./Drivers/STM32H7xx_HAL_Driver/stm32h7xx_ll_usb.o
                0x000000000800d160                USB_ReadInterrupts
 .text.USB_ReadDevAllOutEpInterrupt
                0x000000000800d186       0x34 ./Drivers/STM32H7xx_HAL_Driver/stm32h7xx_ll_usb.o
                0x000000000800d186                USB_ReadDevAllOutEpInterrupt
 .text.USB_ReadDevAllInEpInterrupt
                0x000000000800d1ba       0x34 ./Drivers/STM32H7xx_HAL_Driver/stm32h7xx_ll_usb.o
                0x000000000800d1ba                USB_ReadDevAllInEpInterrupt
 .text.USB_ReadDevOutEPInterrupt
                0x000000000800d1ee       0x3c ./Drivers/STM32H7xx_HAL_Driver/stm32h7xx_ll_usb.o
                0x000000000800d1ee                USB_ReadDevOutEPInterrupt
 .text.USB_ReadDevInEPInterrupt
                0x000000000800d22a       0x5c ./Drivers/STM32H7xx_HAL_Driver/stm32h7xx_ll_usb.o
                0x000000000800d22a                USB_ReadDevInEPInterrupt
 .text.USB_GetMode
                0x000000000800d286       0x1c ./Drivers/STM32H7xx_HAL_Driver/stm32h7xx_ll_usb.o
                0x000000000800d286                USB_GetMode
 *fill*         0x000000000800d2a2        0x2 
 .text.USB_ActivateSetup
                0x000000000800d2a4       0x48 ./Drivers/STM32H7xx_HAL_Driver/stm32h7xx_ll_usb.o
                0x000000000800d2a4                USB_ActivateSetup
 .text.USB_EP0_OutStart
                0x000000000800d2ec       0xbc ./Drivers/STM32H7xx_HAL_Driver/stm32h7xx_ll_usb.o
                0x000000000800d2ec                USB_EP0_OutStart
 .text.USB_CoreReset
                0x000000000800d3a8       0x68 ./Drivers/STM32H7xx_HAL_Driver/stm32h7xx_ll_usb.o
 .text._tx_byte_allocate
                0x000000000800d410      0x18c ./Middlewares/ThreadX/RTOS/ThreadX/Core/tx_byte_allocate.o
                0x000000000800d410                _tx_byte_allocate
 .text._tx_byte_pool_cleanup
                0x000000000800d59c       0xf8 ./Middlewares/ThreadX/RTOS/ThreadX/Core/tx_byte_pool_cleanup.o
                0x000000000800d59c                _tx_byte_pool_cleanup
 .text._tx_byte_pool_create
                0x000000000800d694      0x12c ./Middlewares/ThreadX/RTOS/ThreadX/Core/tx_byte_pool_create.o
                0x000000000800d694                _tx_byte_pool_create
 .text._tx_byte_pool_search
                0x000000000800d7c0      0x21c ./Middlewares/ThreadX/RTOS/ThreadX/Core/tx_byte_pool_search.o
                0x000000000800d7c0                _tx_byte_pool_search
 .text._tx_event_flags_cleanup
                0x000000000800d9dc      0x10c ./Middlewares/ThreadX/RTOS/ThreadX/Core/tx_event_flags_cleanup.o
                0x000000000800d9dc                _tx_event_flags_cleanup
 .text._tx_event_flags_create
                0x000000000800dae8       0x9c ./Middlewares/ThreadX/RTOS/ThreadX/Core/tx_event_flags_create.o
                0x000000000800dae8                _tx_event_flags_create
 .text._tx_event_flags_get
                0x000000000800db84      0x1c4 ./Middlewares/ThreadX/RTOS/ThreadX/Core/tx_event_flags_get.o
                0x000000000800db84                _tx_event_flags_get
 .text._tx_event_flags_set
                0x000000000800dd48      0x424 ./Middlewares/ThreadX/RTOS/ThreadX/Core/tx_event_flags_set.o
                0x000000000800dd48                _tx_event_flags_set
 .text._tx_initialize_high_level
                0x000000000800e16c       0x88 ./Middlewares/ThreadX/RTOS/ThreadX/Core/tx_initialize_high_level.o
                0x000000000800e16c                _tx_initialize_high_level
 .text._tx_initialize_kernel_enter
                0x000000000800e1f4       0x54 ./Middlewares/ThreadX/RTOS/ThreadX/Core/tx_initialize_kernel_enter.o
                0x000000000800e1f4                _tx_initialize_kernel_enter
 .text._tx_mutex_cleanup
                0x000000000800e248       0xf8 ./Middlewares/ThreadX/RTOS/ThreadX/Core/tx_mutex_cleanup.o
                0x000000000800e248                _tx_mutex_cleanup
 .text._tx_mutex_thread_release
                0x000000000800e340       0x88 ./Middlewares/ThreadX/RTOS/ThreadX/Core/tx_mutex_cleanup.o
                0x000000000800e340                _tx_mutex_thread_release
 .text._tx_mutex_create
                0x000000000800e3c8       0xb4 ./Middlewares/ThreadX/RTOS/ThreadX/Core/tx_mutex_create.o
                0x000000000800e3c8                _tx_mutex_create
 .text._tx_mutex_delete
                0x000000000800e47c      0x154 ./Middlewares/ThreadX/RTOS/ThreadX/Core/tx_mutex_delete.o
                0x000000000800e47c                _tx_mutex_delete
 .text._tx_mutex_get
                0x000000000800e5d0      0x210 ./Middlewares/ThreadX/RTOS/ThreadX/Core/tx_mutex_get.o
                0x000000000800e5d0                _tx_mutex_get
 .text._tx_mutex_prioritize
                0x000000000800e7e0      0x164 ./Middlewares/ThreadX/RTOS/ThreadX/Core/tx_mutex_prioritize.o
                0x000000000800e7e0                _tx_mutex_prioritize
 .text._tx_mutex_priority_change
                0x000000000800e944      0x17c ./Middlewares/ThreadX/RTOS/ThreadX/Core/tx_mutex_priority_change.o
                0x000000000800e944                _tx_mutex_priority_change
 .text._tx_mutex_put
                0x000000000800eac0      0x44c ./Middlewares/ThreadX/RTOS/ThreadX/Core/tx_mutex_put.o
                0x000000000800eac0                _tx_mutex_put
 .text._tx_semaphore_cleanup
                0x000000000800ef0c       0xf8 ./Middlewares/ThreadX/RTOS/ThreadX/Core/tx_semaphore_cleanup.o
                0x000000000800ef0c                _tx_semaphore_cleanup
 .text._tx_semaphore_create
                0x000000000800f004       0xa4 ./Middlewares/ThreadX/RTOS/ThreadX/Core/tx_semaphore_create.o
                0x000000000800f004                _tx_semaphore_create
 .text._tx_semaphore_delete
                0x000000000800f0a8      0x120 ./Middlewares/ThreadX/RTOS/ThreadX/Core/tx_semaphore_delete.o
                0x000000000800f0a8                _tx_semaphore_delete
 .text._tx_semaphore_get
                0x000000000800f1c8      0x124 ./Middlewares/ThreadX/RTOS/ThreadX/Core/tx_semaphore_get.o
                0x000000000800f1c8                _tx_semaphore_get
 .text._tx_semaphore_put
                0x000000000800f2ec       0xb0 ./Middlewares/ThreadX/RTOS/ThreadX/Core/tx_semaphore_put.o
                0x000000000800f2ec                _tx_semaphore_put
 .text._tx_thread_create
                0x000000000800f39c      0x1ec ./Middlewares/ThreadX/RTOS/ThreadX/Core/tx_thread_create.o
                0x000000000800f39c                _tx_thread_create
 .text._tx_thread_identify
                0x000000000800f588       0x3c ./Middlewares/ThreadX/RTOS/ThreadX/Core/tx_thread_identify.o
                0x000000000800f588                _tx_thread_identify
 .text._tx_thread_info_get
                0x000000000800f5c4       0xae ./Middlewares/ThreadX/RTOS/ThreadX/Core/tx_thread_info_get.o
                0x000000000800f5c4                _tx_thread_info_get
 *fill*         0x000000000800f672        0x2 
 .text._tx_thread_initialize
                0x000000000800f674       0x78 ./Middlewares/ThreadX/RTOS/ThreadX/Core/tx_thread_initialize.o
                0x000000000800f674                _tx_thread_initialize
 .text._tx_thread_shell_entry
                0x000000000800f6ec       0x98 ./Middlewares/ThreadX/RTOS/ThreadX/Core/tx_thread_shell_entry.o
                0x000000000800f6ec                _tx_thread_shell_entry
 .text._tx_thread_sleep
                0x000000000800f784      0x100 ./Middlewares/ThreadX/RTOS/ThreadX/Core/tx_thread_sleep.o
                0x000000000800f784                _tx_thread_sleep
 .text._tx_thread_system_preempt_check
                0x000000000800f884       0x74 ./Middlewares/ThreadX/RTOS/ThreadX/Core/tx_thread_system_preempt_check.o
                0x000000000800f884                _tx_thread_system_preempt_check
 .text._tx_thread_system_resume
                0x000000000800f8f8      0x200 ./Middlewares/ThreadX/RTOS/ThreadX/Core/tx_thread_system_resume.o
                0x000000000800f8f8                _tx_thread_system_resume
 .text._tx_thread_system_suspend
                0x000000000800faf8      0x230 ./Middlewares/ThreadX/RTOS/ThreadX/Core/tx_thread_system_suspend.o
                0x000000000800faf8                _tx_thread_system_suspend
 .text._tx_thread_time_slice
                0x000000000800fd28       0xa4 ./Middlewares/ThreadX/RTOS/ThreadX/Core/tx_thread_time_slice.o
                0x000000000800fd28                _tx_thread_time_slice
 .text._tx_thread_timeout
                0x000000000800fdcc       0x78 ./Middlewares/ThreadX/RTOS/ThreadX/Core/tx_thread_timeout.o
                0x000000000800fdcc                _tx_thread_timeout
 .text._tx_timer_expiration_process
                0x000000000800fe44       0x44 ./Middlewares/ThreadX/RTOS/ThreadX/Core/tx_timer_expiration_process.o
                0x000000000800fe44                _tx_timer_expiration_process
 .text._tx_timer_initialize
                0x000000000800fe88       0xf8 ./Middlewares/ThreadX/RTOS/ThreadX/Core/tx_timer_initialize.o
                0x000000000800fe88                _tx_timer_initialize
 .text._tx_timer_system_activate
                0x000000000800ff80       0xc4 ./Middlewares/ThreadX/RTOS/ThreadX/Core/tx_timer_system_activate.o
                0x000000000800ff80                _tx_timer_system_activate
 .text._tx_timer_system_deactivate
                0x0000000008010044       0x6e ./Middlewares/ThreadX/RTOS/ThreadX/Core/tx_timer_system_deactivate.o
                0x0000000008010044                _tx_timer_system_deactivate
 *fill*         0x00000000080100b2        0x2 
 .text._tx_timer_thread_entry
                0x00000000080100b4      0x1fc ./Middlewares/ThreadX/RTOS/ThreadX/Core/tx_timer_thread_entry.o
                0x00000000080100b4                _tx_timer_thread_entry
 .text._txe_byte_allocate
                0x00000000080102b0       0xe8 ./Middlewares/ThreadX/RTOS/ThreadX/Core/txe_byte_allocate.o
                0x00000000080102b0                _txe_byte_allocate
 .text._txe_byte_pool_create
                0x0000000008010398      0x140 ./Middlewares/ThreadX/RTOS/ThreadX/Core/txe_byte_pool_create.o
                0x0000000008010398                _txe_byte_pool_create
 .text._txe_event_flags_create
                0x00000000080104d8      0x124 ./Middlewares/ThreadX/RTOS/ThreadX/Core/txe_event_flags_create.o
                0x00000000080104d8                _txe_event_flags_create
 .text._txe_event_flags_get
                0x00000000080105fc       0xac ./Middlewares/ThreadX/RTOS/ThreadX/Core/txe_event_flags_get.o
                0x00000000080105fc                _txe_event_flags_get
 .text._txe_event_flags_set
                0x00000000080106a8       0x5c ./Middlewares/ThreadX/RTOS/ThreadX/Core/txe_event_flags_set.o
                0x00000000080106a8                _txe_event_flags_set
 .text._txe_mutex_create
                0x0000000008010704      0x13c ./Middlewares/ThreadX/RTOS/ThreadX/Core/txe_mutex_create.o
                0x0000000008010704                _txe_mutex_create
 .text._txe_mutex_delete
                0x0000000008010840       0x7c ./Middlewares/ThreadX/RTOS/ThreadX/Core/txe_mutex_delete.o
                0x0000000008010840                _txe_mutex_delete
 .text._txe_mutex_get
                0x00000000080108bc       0xb4 ./Middlewares/ThreadX/RTOS/ThreadX/Core/txe_mutex_get.o
                0x00000000080108bc                _txe_mutex_get
 .text._txe_mutex_put
                0x0000000008010970       0x74 ./Middlewares/ThreadX/RTOS/ThreadX/Core/txe_mutex_put.o
                0x0000000008010970                _txe_mutex_put
 .text._txe_semaphore_create
                0x00000000080109e4      0x12c ./Middlewares/ThreadX/RTOS/ThreadX/Core/txe_semaphore_create.o
                0x00000000080109e4                _txe_semaphore_create
 .text._txe_semaphore_delete
                0x0000000008010b10       0x7c ./Middlewares/ThreadX/RTOS/ThreadX/Core/txe_semaphore_delete.o
                0x0000000008010b10                _txe_semaphore_delete
 .text._txe_semaphore_get
                0x0000000008010b8c       0x84 ./Middlewares/ThreadX/RTOS/ThreadX/Core/txe_semaphore_get.o
                0x0000000008010b8c                _txe_semaphore_get
 .text._txe_semaphore_put
                0x0000000008010c10       0x3c ./Middlewares/ThreadX/RTOS/ThreadX/Core/txe_semaphore_put.o
                0x0000000008010c10                _txe_semaphore_put
 .text._txe_thread_create
                0x0000000008010c4c      0x1e4 ./Middlewares/ThreadX/RTOS/ThreadX/Core/txe_thread_create.o
                0x0000000008010c4c                _txe_thread_create
 .text._txe_thread_info_get
                0x0000000008010e30       0x5c ./Middlewares/ThreadX/RTOS/ThreadX/Core/txe_thread_info_get.o
                0x0000000008010e30                _txe_thread_info_get
 .text._ux_system_error_handler
                0x0000000008010e8c       0x44 ./Middlewares/USBX/USB/USBX/CoreSystem/ux_system_error_handler.o
                0x0000000008010e8c                _ux_system_error_handler
 .text._ux_system_initialize
                0x0000000008010ed0      0x164 ./Middlewares/USBX/USB/USBX/CoreSystem/ux_system_initialize.o
                0x0000000008010ed0                _ux_system_initialize
 .text._ux_utility_delay_ms
                0x0000000008011034       0x34 ./Middlewares/USBX/USB/USBX/CoreSystem/ux_utility_delay_ms.o
                0x0000000008011034                _ux_utility_delay_ms
 .text._ux_utility_descriptor_parse
                0x0000000008011068       0x70 ./Middlewares/USBX/USB/USBX/CoreSystem/ux_utility_descriptor_parse.o
                0x0000000008011068                _ux_utility_descriptor_parse
 .text._ux_utility_long_get
                0x00000000080110d8       0x4c ./Middlewares/USBX/USB/USBX/CoreSystem/ux_utility_long_get.o
                0x00000000080110d8                _ux_utility_long_get
 .text._ux_utility_long_put
                0x0000000008011124       0x48 ./Middlewares/USBX/USB/USBX/CoreSystem/ux_utility_long_put.o
                0x0000000008011124                _ux_utility_long_put
 .text._ux_utility_memory_allocate
                0x000000000801116c      0x208 ./Middlewares/USBX/USB/USBX/CoreSystem/ux_utility_memory_allocate.o
                0x000000000801116c                _ux_utility_memory_allocate
 .text._ux_utility_memory_allocate_mulc_safe
                0x0000000008011374       0x4a ./Middlewares/USBX/USB/USBX/CoreSystem/ux_utility_memory_allocate_mulc_safe.o
                0x0000000008011374                _ux_utility_memory_allocate_mulc_safe
 .text._ux_utility_memory_compare
                0x00000000080113be       0x46 ./Middlewares/USBX/USB/USBX/CoreSystem/ux_utility_memory_compare.o
                0x00000000080113be                _ux_utility_memory_compare
 .text._ux_utility_memory_copy
                0x0000000008011404       0x3c ./Middlewares/USBX/USB/USBX/CoreSystem/ux_utility_memory_copy.o
                0x0000000008011404                _ux_utility_memory_copy
 .text._ux_utility_memory_free
                0x0000000008011440      0x138 ./Middlewares/USBX/USB/USBX/CoreSystem/ux_utility_memory_free.o
                0x0000000008011440                _ux_utility_memory_free
 .text._ux_utility_memory_free_block_best_get
                0x0000000008011578       0x84 ./Middlewares/USBX/USB/USBX/CoreSystem/ux_utility_memory_free_block_best_get.o
                0x0000000008011578                _ux_utility_memory_free_block_best_get
 .text._ux_utility_memory_set
                0x00000000080115fc       0x34 ./Middlewares/USBX/USB/USBX/CoreSystem/ux_utility_memory_set.o
                0x00000000080115fc                _ux_utility_memory_set
 .text._ux_utility_mutex_create
                0x0000000008011630       0x32 ./Middlewares/USBX/USB/USBX/CoreSystem/ux_utility_mutex_create.o
                0x0000000008011630                _ux_utility_mutex_create
 .text._ux_utility_mutex_delete
                0x0000000008011662       0x1a ./Middlewares/USBX/USB/USBX/CoreSystem/ux_utility_mutex_delete.o
                0x0000000008011662                _ux_utility_mutex_delete
 .text._ux_utility_mutex_off
                0x000000000801167c       0x16 ./Middlewares/USBX/USB/USBX/CoreSystem/ux_utility_mutex_off.o
                0x000000000801167c                _ux_utility_mutex_off
 .text._ux_utility_mutex_on
                0x0000000008011692       0x2e ./Middlewares/USBX/USB/USBX/CoreSystem/ux_utility_mutex_on.o
                0x0000000008011692                _ux_utility_mutex_on
 .text._ux_utility_semaphore_create
                0x00000000080116c0       0x34 ./Middlewares/USBX/USB/USBX/CoreSystem/ux_utility_semaphore_create.o
                0x00000000080116c0                _ux_utility_semaphore_create
 .text._ux_utility_semaphore_delete
                0x00000000080116f4       0x1a ./Middlewares/USBX/USB/USBX/CoreSystem/ux_utility_semaphore_delete.o
                0x00000000080116f4                _ux_utility_semaphore_delete
 *fill*         0x000000000801170e        0x2 
 .text._ux_utility_semaphore_get
                0x0000000008011710       0x70 ./Middlewares/USBX/USB/USBX/CoreSystem/ux_utility_semaphore_get.o
                0x0000000008011710                _ux_utility_semaphore_get
 .text._ux_utility_semaphore_put
                0x0000000008011780       0x1a ./Middlewares/USBX/USB/USBX/CoreSystem/ux_utility_semaphore_put.o
                0x0000000008011780                _ux_utility_semaphore_put
 .text._ux_utility_short_get
                0x000000000801179a       0x30 ./Middlewares/USBX/USB/USBX/CoreSystem/ux_utility_short_get.o
                0x000000000801179a                _ux_utility_short_get
 .text._ux_utility_string_length_check
                0x00000000080117ca       0x5a ./Middlewares/USBX/USB/USBX/CoreSystem/ux_utility_string_length_check.o
                0x00000000080117ca                _ux_utility_string_length_check
 .text._ux_utility_string_length_get
                0x0000000008011824       0x32 ./Middlewares/USBX/USB/USBX/CoreSystem/ux_utility_string_length_get.o
                0x0000000008011824                _ux_utility_string_length_get
 .text._ux_device_class_cdc_acm_activate
                0x0000000008011856       0x40 ./Middlewares/USBX/USB/USBX/UX Device Class CDC ACM/ux_device_class_cdc_acm_activate.o
                0x0000000008011856                _ux_device_class_cdc_acm_activate
 *fill*         0x0000000008011896        0x2 
 .text._ux_device_class_cdc_acm_control_request
                0x0000000008011898      0x160 ./Middlewares/USBX/USB/USBX/UX Device Class CDC ACM/ux_device_class_cdc_acm_control_request.o
                0x0000000008011898                _ux_device_class_cdc_acm_control_request
 .text._ux_device_class_cdc_acm_deactivate
                0x00000000080119f8       0x82 ./Middlewares/USBX/USB/USBX/UX Device Class CDC ACM/ux_device_class_cdc_acm_deactivate.o
                0x00000000080119f8                _ux_device_class_cdc_acm_deactivate
 *fill*         0x0000000008011a7a        0x2 
 .text._ux_device_class_cdc_acm_entry
                0x0000000008011a7c       0x8c ./Middlewares/USBX/USB/USBX/UX Device Class CDC ACM/ux_device_class_cdc_acm_entry.o
                0x0000000008011a7c                _ux_device_class_cdc_acm_entry
 .text._ux_device_class_cdc_acm_initialize
                0x0000000008011b08       0xc0 ./Middlewares/USBX/USB/USBX/UX Device Class CDC ACM/ux_device_class_cdc_acm_initialize.o
                0x0000000008011b08                _ux_device_class_cdc_acm_initialize
 .text._ux_device_class_cdc_acm_ioctl
                0x0000000008011bc8      0x198 ./Middlewares/USBX/USB/USBX/UX Device Class CDC ACM/ux_device_class_cdc_acm_ioctl.o
                0x0000000008011bc8                _ux_device_class_cdc_acm_ioctl
 .text._ux_device_class_cdc_acm_read
                0x0000000008011d60      0x124 ./Middlewares/USBX/USB/USBX/UX Device Class CDC ACM/ux_device_class_cdc_acm_read.o
                0x0000000008011d60                _ux_device_class_cdc_acm_read
 .text._ux_device_class_cdc_acm_uninitialize
                0x0000000008011e84       0x3e ./Middlewares/USBX/USB/USBX/UX Device Class CDC ACM/ux_device_class_cdc_acm_unitialize.o
                0x0000000008011e84                _ux_device_class_cdc_acm_uninitialize
 *fill*         0x0000000008011ec2        0x2 
 .text._ux_device_class_cdc_acm_write
                0x0000000008011ec4      0x130 ./Middlewares/USBX/USB/USBX/UX Device Class CDC ACM/ux_device_class_cdc_acm_write.o
                0x0000000008011ec4                _ux_device_class_cdc_acm_write
 .text._ux_dcd_stm32_setup_in
                0x0000000008011ff4       0x24 ./Middlewares/USBX/USB/USBX/UX Device Controllers/ux_dcd_stm32_callback.o
 .text._ux_dcd_stm32_setup_out
                0x0000000008012018       0x3e ./Middlewares/USBX/USB/USBX/UX Device Controllers/ux_dcd_stm32_callback.o
 .text._ux_dcd_stm32_setup_status
                0x0000000008012056       0x38 ./Middlewares/USBX/USB/USBX/UX Device Controllers/ux_dcd_stm32_callback.o
 *fill*         0x000000000801208e        0x2 
 .text.HAL_PCD_SetupStageCallback
                0x0000000008012090       0xf4 ./Middlewares/USBX/USB/USBX/UX Device Controllers/ux_dcd_stm32_callback.o
                0x0000000008012090                HAL_PCD_SetupStageCallback
 .text.HAL_PCD_DataInStageCallback
                0x0000000008012184      0x144 ./Middlewares/USBX/USB/USBX/UX Device Controllers/ux_dcd_stm32_callback.o
                0x0000000008012184                HAL_PCD_DataInStageCallback
 .text.HAL_PCD_DataOutStageCallback
                0x00000000080122c8      0x100 ./Middlewares/USBX/USB/USBX/UX Device Controllers/ux_dcd_stm32_callback.o
                0x00000000080122c8                HAL_PCD_DataOutStageCallback
 .text.HAL_PCD_ResetCallback
                0x00000000080123c8       0x60 ./Middlewares/USBX/USB/USBX/UX Device Controllers/ux_dcd_stm32_callback.o
                0x00000000080123c8                HAL_PCD_ResetCallback
 .text.HAL_PCD_DisconnectCallback
                0x0000000008012428       0x24 ./Middlewares/USBX/USB/USBX/UX Device Controllers/ux_dcd_stm32_callback.o
                0x0000000008012428                HAL_PCD_DisconnectCallback
 .text._stm32_ed_get
                0x000000000801244c       0x66 ./Middlewares/USBX/USB/USBX/UX Device Controllers/ux_dcd_stm32_endpoint_create.o
 .text._ux_dcd_stm32_endpoint_create
                0x00000000080124b2       0x9e ./Middlewares/USBX/USB/USBX/UX Device Controllers/ux_dcd_stm32_endpoint_create.o
                0x00000000080124b2                _ux_dcd_stm32_endpoint_create
 .text._ux_dcd_stm32_endpoint_destroy
                0x0000000008012550       0x34 ./Middlewares/USBX/USB/USBX/UX Device Controllers/ux_dcd_stm32_endpoint_destroy.o
                0x0000000008012550                _ux_dcd_stm32_endpoint_destroy
 .text._ux_dcd_stm32_endpoint_reset
                0x0000000008012584       0x82 ./Middlewares/USBX/USB/USBX/UX Device Controllers/ux_dcd_stm32_endpoint_reset.o
                0x0000000008012584                _ux_dcd_stm32_endpoint_reset
 .text._ux_dcd_stm32_endpoint_stall
                0x0000000008012606       0x40 ./Middlewares/USBX/USB/USBX/UX Device Controllers/ux_dcd_stm32_endpoint_stall.o
                0x0000000008012606                _ux_dcd_stm32_endpoint_stall
 .text._stm32_ed_get
                0x0000000008012646       0x66 ./Middlewares/USBX/USB/USBX/UX Device Controllers/ux_dcd_stm32_endpoint_status.o
 .text._ux_dcd_stm32_endpoint_status
                0x00000000080126ac       0x3e ./Middlewares/USBX/USB/USBX/UX Device Controllers/ux_dcd_stm32_endpoint_status.o
                0x00000000080126ac                _ux_dcd_stm32_endpoint_status
 .text._ux_dcd_stm32_frame_number_get
                0x00000000080126ea       0x18 ./Middlewares/USBX/USB/USBX/UX Device Controllers/ux_dcd_stm32_frame_number_get.o
                0x00000000080126ea                _ux_dcd_stm32_frame_number_get
 *fill*         0x0000000008012702        0x2 
 .text._ux_dcd_stm32_function
                0x0000000008012704      0x11c ./Middlewares/USBX/USB/USBX/UX Device Controllers/ux_dcd_stm32_function.o
                0x0000000008012704                _ux_dcd_stm32_function
 .text._ux_dcd_stm32_initialize
                0x0000000008012820       0x60 ./Middlewares/USBX/USB/USBX/UX Device Controllers/ux_dcd_stm32_initialize.o
                0x0000000008012820                _ux_dcd_stm32_initialize
 .text._ux_dcd_stm32_initialize_complete
                0x0000000008012880      0x194 ./Middlewares/USBX/USB/USBX/UX Device Controllers/ux_dcd_stm32_initialize_complete.o
                0x0000000008012880                _ux_dcd_stm32_initialize_complete
 .text._ux_dcd_stm32_transfer_abort
                0x0000000008012a14       0x42 ./Middlewares/USBX/USB/USBX/UX Device Controllers/ux_dcd_stm32_transfer_abort.o
                0x0000000008012a14                _ux_dcd_stm32_transfer_abort
 .text._ux_dcd_stm32_transfer_request
                0x0000000008012a56       0xd2 ./Middlewares/USBX/USB/USBX/UX Device Controllers/ux_dcd_stm32_transfer_request.o
                0x0000000008012a56                _ux_dcd_stm32_transfer_request
 .text._ux_device_stack_alternate_setting_get
                0x0000000008012b28       0x7c ./Middlewares/USBX/USB/USBX/UX Device CoreStack/ux_device_stack_alternate_setting_get.o
                0x0000000008012b28                _ux_device_stack_alternate_setting_get
 .text._ux_device_stack_alternate_setting_set
                0x0000000008012ba4      0x460 ./Middlewares/USBX/USB/USBX/UX Device CoreStack/ux_device_stack_alternate_setting_set.o
                0x0000000008012ba4                _ux_device_stack_alternate_setting_set
 .text._ux_device_stack_class_register
                0x0000000008013004       0xa4 ./Middlewares/USBX/USB/USBX/UX Device CoreStack/ux_device_stack_class_register.o
                0x0000000008013004                _ux_device_stack_class_register
 .text._ux_device_stack_clear_feature
                0x00000000080130a8       0xbc ./Middlewares/USBX/USB/USBX/UX Device CoreStack/ux_device_stack_clear_feature.o
                0x00000000080130a8                _ux_device_stack_clear_feature
 .text._ux_device_stack_configuration_get
                0x0000000008013164       0x48 ./Middlewares/USBX/USB/USBX/UX Device CoreStack/ux_device_stack_configuration_get.o
                0x0000000008013164                _ux_device_stack_configuration_get
 .text._ux_device_stack_configuration_set
                0x00000000080131ac      0x34c ./Middlewares/USBX/USB/USBX/UX Device CoreStack/ux_device_stack_configuration_set.o
                0x00000000080131ac                _ux_device_stack_configuration_set
 .text._ux_device_stack_control_request_process
                0x00000000080134f8      0x290 ./Middlewares/USBX/USB/USBX/UX Device CoreStack/ux_device_stack_control_request_process.o
                0x00000000080134f8                _ux_device_stack_control_request_process
 .text._ux_device_stack_descriptor_send
                0x0000000008013788      0x468 ./Middlewares/USBX/USB/USBX/UX Device CoreStack/ux_device_stack_descriptor_send.o
                0x0000000008013788                _ux_device_stack_descriptor_send
 .text._ux_device_stack_disconnect
                0x0000000008013bf0       0xb4 ./Middlewares/USBX/USB/USBX/UX Device CoreStack/ux_device_stack_disconnect.o
                0x0000000008013bf0                _ux_device_stack_disconnect
 .text._ux_device_stack_endpoint_stall
                0x0000000008013ca4       0x70 ./Middlewares/USBX/USB/USBX/UX Device CoreStack/ux_device_stack_endpoint_stall.o
                0x0000000008013ca4                _ux_device_stack_endpoint_stall
 .text._ux_device_stack_get_status
                0x0000000008013d14       0xf8 ./Middlewares/USBX/USB/USBX/UX Device CoreStack/ux_device_stack_get_status.o
                0x0000000008013d14                _ux_device_stack_get_status
 .text._ux_device_stack_initialize
                0x0000000008013e0c      0x35c ./Middlewares/USBX/USB/USBX/UX Device CoreStack/ux_device_stack_initialize.o
                0x0000000008013e0c                _ux_device_stack_initialize
 .text._ux_device_stack_interface_delete
                0x0000000008014168       0x90 ./Middlewares/USBX/USB/USBX/UX Device CoreStack/ux_device_stack_interface_delete.o
                0x0000000008014168                _ux_device_stack_interface_delete
 .text._ux_device_stack_interface_set
                0x00000000080141f8      0x224 ./Middlewares/USBX/USB/USBX/UX Device CoreStack/ux_device_stack_interface_set.o
                0x00000000080141f8                _ux_device_stack_interface_set
 .text._ux_device_stack_interface_start
                0x000000000801441c       0xa4 ./Middlewares/USBX/USB/USBX/UX Device CoreStack/ux_device_stack_interface_start.o
                0x000000000801441c                _ux_device_stack_interface_start
 .text._ux_device_stack_set_feature
                0x00000000080144c0       0xb8 ./Middlewares/USBX/USB/USBX/UX Device CoreStack/ux_device_stack_set_feature.o
                0x00000000080144c0                _ux_device_stack_set_feature
 .text._ux_device_stack_transfer_abort
                0x0000000008014578       0x74 ./Middlewares/USBX/USB/USBX/UX Device CoreStack/ux_device_stack_transfer_abort.o
                0x0000000008014578                _ux_device_stack_transfer_abort
 .text._ux_device_stack_transfer_all_request_abort
                0x00000000080145ec       0x22 ./Middlewares/USBX/USB/USBX/UX Device CoreStack/ux_device_stack_transfer_all_request_abort.o
                0x00000000080145ec                _ux_device_stack_transfer_all_request_abort
 *fill*         0x000000000801460e        0x2 
 .text._ux_device_stack_transfer_request
                0x0000000008014610      0x114 ./Middlewares/USBX/USB/USBX/UX Device CoreStack/ux_device_stack_transfer_request.o
                0x0000000008014610                _ux_device_stack_transfer_request
 .text.MX_USBX_Device_Init
                0x0000000008014724      0x20c ./USBX/App/app_usbx_device.o
                0x0000000008014724                MX_USBX_Device_Init
 .text.usbx_app_thread_entry
                0x0000000008014930       0x14 ./USBX/App/app_usbx_device.o
                0x0000000008014930                usbx_app_thread_entry
 .text.MX_USB_Device_Init
                0x0000000008014944       0x50 ./USBX/App/app_usbx_device.o
                0x0000000008014944                MX_USB_Device_Init
 .text.CDC_Init_FS
                0x0000000008014994       0x94 ./USBX/App/ux_device_cdc_acm.o
                0x0000000008014994                CDC_Init_FS
 .text.CDC_DeInit_FS
                0x0000000008014a28       0x1c ./USBX/App/ux_device_cdc_acm.o
                0x0000000008014a28                CDC_DeInit_FS
 .text.ux_app_parameters_change
                0x0000000008014a44       0x90 ./USBX/App/ux_device_cdc_acm.o
                0x0000000008014a44                ux_app_parameters_change
 .text.usbx_cdc_acm_read_thread_entry
                0x0000000008014ad4       0xb8 ./USBX/App/ux_device_cdc_acm.o
                0x0000000008014ad4                usbx_cdc_acm_read_thread_entry
 .text.usbx_cdc_acm_write_thread_entry
                0x0000000008014b8c       0xc8 ./USBX/App/ux_device_cdc_acm.o
                0x0000000008014b8c                usbx_cdc_acm_write_thread_entry
 .text.HAL_UART_TxCpltCallback
                0x0000000008014c54       0x28 ./USBX/App/ux_device_cdc_acm.o
                0x0000000008014c54                HAL_UART_TxCpltCallback
 .text.HAL_UART_RxCpltCallback
                0x0000000008014c7c       0x6c ./USBX/App/ux_device_cdc_acm.o
                0x0000000008014c7c                HAL_UART_RxCpltCallback
 .text.HAL_UART_ErrorCallback
                0x0000000008014ce8       0x14 ./USBX/App/ux_device_cdc_acm.o
                0x0000000008014ce8                HAL_UART_ErrorCallback
 .text.USBD_CDC_VCP_Config
                0x0000000008014cfc      0x104 ./USBX/App/ux_device_cdc_acm.o
 .text.USBD_Get_Device_Framework_Speed
                0x0000000008014e00       0x84 ./USBX/App/ux_device_descriptors.o
                0x0000000008014e00                USBD_Get_Device_Framework_Speed
 .text.USBD_Get_String_Framework
                0x0000000008014e84      0x108 ./USBX/App/ux_device_descriptors.o
                0x0000000008014e84                USBD_Get_String_Framework
 .text.USBD_Get_Language_Id_Framework
                0x0000000008014f8c       0x44 ./USBX/App/ux_device_descriptors.o
                0x0000000008014f8c                USBD_Get_Language_Id_Framework
 .text.USBD_Desc_GetString
                0x0000000008014fd0       0x66 ./USBX/App/ux_device_descriptors.o
 .text.USBD_Desc_GetLen
                0x0000000008015036       0x34 ./USBX/App/ux_device_descriptors.o
 *fill*         0x000000000801506a        0x2 
 .text.USBD_Device_Framework_Builder
                0x000000000801506c      0x200 ./USBX/App/ux_device_descriptors.o
 .text.USBD_FrameWork_AddClass
                0x000000000801526c       0x96 ./USBX/App/ux_device_descriptors.o
 .text.USBD_FrameWork_AddToConfDesc
                0x0000000008015302      0x118 ./USBX/App/ux_device_descriptors.o
 .text.USBD_FrameWork_FindFreeIFNbr
                0x000000000801541a       0x5a ./USBX/App/ux_device_descriptors.o
 .text.USBD_FrameWork_AddConfDesc
                0x0000000008015474       0x5a ./USBX/App/ux_device_descriptors.o
 .text.USBD_FrameWork_AssignEp
                0x00000000080154ce       0xe6 ./USBX/App/ux_device_descriptors.o
 .text.USBD_FrameWork_CDCDesc
                0x00000000080155b4      0x43c ./USBX/App/ux_device_descriptors.o
 .text.__libc_init_array
                0x00000000080159f0       0x48 c:/st/stm32cubeide_1.9.0/stm32cubeide/plugins/com.st.stm32cube.ide.mcu.externaltools.gnu-tools-for-stm32.10.3-2021.10.win32_1.0.0.202111181127/tools/bin/../lib/gcc/arm-none-eabi/10.3.1/../../../../arm-none-eabi/lib/thumb/v7e-m+dp/hard\libc_nano.a(lib_a-init.o)
                0x00000000080159f0                __libc_init_array
 .text.memset   0x0000000008015a38       0x10 c:/st/stm32cubeide_1.9.0/stm32cubeide/plugins/com.st.stm32cube.ide.mcu.externaltools.gnu-tools-for-stm32.10.3-2021.10.win32_1.0.0.202111181127/tools/bin/../lib/gcc/arm-none-eabi/10.3.1/../../../../arm-none-eabi/lib/thumb/v7e-m+dp/hard\libc_nano.a(lib_a-memset.o)
                0x0000000008015a38                memset
 *(.glue_7)
 .glue_7        0x0000000008015a48        0x0 linker stubs
 *(.glue_7t)
 .glue_7t       0x0000000008015a48        0x0 linker stubs
 *(.eh_frame)
 .eh_frame      0x0000000008015a48        0x0 c:/st/stm32cubeide_1.9.0/stm32cubeide/plugins/com.st.stm32cube.ide.mcu.externaltools.gnu-tools-for-stm32.10.3-2021.10.win32_1.0.0.202111181127/tools/bin/../lib/gcc/arm-none-eabi/10.3.1/thumb/v7e-m+dp/hard/crtbegin.o
 *(.init)
 .init          0x0000000008015a48        0x4 c:/st/stm32cubeide_1.9.0/stm32cubeide/plugins/com.st.stm32cube.ide.mcu.externaltools.gnu-tools-for-stm32.10.3-2021.10.win32_1.0.0.202111181127/tools/bin/../lib/gcc/arm-none-eabi/10.3.1/thumb/v7e-m+dp/hard/crti.o
                0x0000000008015a48                _init
 .init          0x0000000008015a4c        0x8 c:/st/stm32cubeide_1.9.0/stm32cubeide/plugins/com.st.stm32cube.ide.mcu.externaltools.gnu-tools-for-stm32.10.3-2021.10.win32_1.0.0.202111181127/tools/bin/../lib/gcc/arm-none-eabi/10.3.1/thumb/v7e-m+dp/hard/crtn.o
 *(.fini)
 .fini          0x0000000008015a54        0x4 c:/st/stm32cubeide_1.9.0/stm32cubeide/plugins/com.st.stm32cube.ide.mcu.externaltools.gnu-tools-for-stm32.10.3-2021.10.win32_1.0.0.202111181127/tools/bin/../lib/gcc/arm-none-eabi/10.3.1/thumb/v7e-m+dp/hard/crti.o
                0x0000000008015a54                _fini
 .fini          0x0000000008015a58        0x8 c:/st/stm32cubeide_1.9.0/stm32cubeide/plugins/com.st.stm32cube.ide.mcu.externaltools.gnu-tools-for-stm32.10.3-2021.10.win32_1.0.0.202111181127/tools/bin/../lib/gcc/arm-none-eabi/10.3.1/thumb/v7e-m+dp/hard/crtn.o
                0x0000000008015a60                . = ALIGN (0x4)
                0x0000000008015a60                _etext = .

.vfp11_veneer   0x0000000008015a60        0x0
 .vfp11_veneer  0x0000000008015a60        0x0 linker stubs

.v4_bx          0x0000000008015a60        0x0
 .v4_bx         0x0000000008015a60        0x0 linker stubs

.iplt           0x0000000008015a60        0x0
 .iplt          0x0000000008015a60        0x0 c:/st/stm32cubeide_1.9.0/stm32cubeide/plugins/com.st.stm32cube.ide.mcu.externaltools.gnu-tools-for-stm32.10.3-2021.10.win32_1.0.0.202111181127/tools/bin/../lib/gcc/arm-none-eabi/10.3.1/thumb/v7e-m+dp/hard/crtbegin.o

.rodata         0x0000000008015a60      0x198
                0x0000000008015a60                . = ALIGN (0x4)
 *(.rodata)
 .rodata        0x0000000008015a60       0x27 ./AZURE_RTOS/App/app_azure_rtos.o
 *fill*         0x0000000008015a87        0x1 
 .rodata        0x0000000008015a88       0x14 ./Middlewares/ThreadX/RTOS/ThreadX/Core/tx_timer_initialize.o
 .rodata        0x0000000008015a9c       0x10 ./Middlewares/USBX/USB/USBX/CoreSystem/ux_system_initialize.o
 .rodata        0x0000000008015aac       0x41 ./Middlewares/USBX/USB/USBX/UX Device Class CDC ACM/ux_device_class_cdc_acm_initialize.o
 *fill*         0x0000000008015aed        0x3 
 .rodata        0x0000000008015af0       0x1e ./Middlewares/USBX/USB/USBX/UX Device CoreStack/ux_device_stack_initialize.o
 *fill*         0x0000000008015b0e        0x2 
 .rodata        0x0000000008015b10       0x6f ./USBX/App/app_usbx_device.o
 *fill*         0x0000000008015b7f        0x1 
 .rodata        0x0000000008015b80       0x37 ./USBX/App/ux_device_descriptors.o
 *(.rodata*)
 *fill*         0x0000000008015bb7        0x1 
 .rodata.D1CorePrescTable
                0x0000000008015bb8       0x10 ./Common/Src/system_stm32h7xx_dualcore_boot_cm4_cm7.o
                0x0000000008015bb8                D1CorePrescTable
 .rodata.flagBitshiftOffset.0
                0x0000000008015bc8        0x8 ./Drivers/STM32H7xx_HAL_Driver/stm32h7xx_hal_dma.o
 .rodata.UARTPrescTable
                0x0000000008015bd0       0x18 ./Drivers/STM32H7xx_HAL_Driver/stm32h7xx_hal_uart.o
                0x0000000008015bd0                UARTPrescTable
 .rodata.numerator.1
                0x0000000008015be8        0x8 ./Drivers/STM32H7xx_HAL_Driver/stm32h7xx_hal_uart_ex.o
 .rodata.denominator.0
                0x0000000008015bf0        0x8 ./Drivers/STM32H7xx_HAL_Driver/stm32h7xx_hal_uart_ex.o
                0x0000000008015bf8                . = ALIGN (0x4)

.ARM.extab      0x0000000008015bf8        0x0
                0x0000000008015bf8                . = ALIGN (0x4)
 *(.ARM.extab* .gnu.linkonce.armextab.*)
                0x0000000008015bf8                . = ALIGN (0x4)

.ARM            0x0000000008015bf8        0x8
                0x0000000008015bf8                . = ALIGN (0x4)
                0x0000000008015bf8                __exidx_start = .
 *(.ARM.exidx*)
 .ARM.exidx     0x0000000008015bf8        0x8 c:/st/stm32cubeide_1.9.0/stm32cubeide/plugins/com.st.stm32cube.ide.mcu.externaltools.gnu-tools-for-stm32.10.3-2021.10.win32_1.0.0.202111181127/tools/bin/../lib/gcc/arm-none-eabi/10.3.1/thumb/v7e-m+dp/hard\libgcc.a(_udivmoddi4.o)
                0x0000000008015c00                __exidx_end = .
                0x0000000008015c00                . = ALIGN (0x4)

.rel.dyn        0x0000000008015c00        0x0
 .rel.iplt      0x0000000008015c00        0x0 c:/st/stm32cubeide_1.9.0/stm32cubeide/plugins/com.st.stm32cube.ide.mcu.externaltools.gnu-tools-for-stm32.10.3-2021.10.win32_1.0.0.202111181127/tools/bin/../lib/gcc/arm-none-eabi/10.3.1/thumb/v7e-m+dp/hard/crtbegin.o

.preinit_array  0x0000000008015c00        0x0
                0x0000000008015c00                . = ALIGN (0x4)
                0x0000000008015c00                PROVIDE (__preinit_array_start = .)
 *(.preinit_array*)
                0x0000000008015c00                PROVIDE (__preinit_array_end = .)
                0x0000000008015c00                . = ALIGN (0x4)

.init_array     0x0000000008015c00        0x4
                0x0000000008015c00                . = ALIGN (0x4)
                0x0000000008015c00                PROVIDE (__init_array_start = .)
 *(SORT_BY_NAME(.init_array.*))
 *(.init_array*)
 .init_array    0x0000000008015c00        0x4 c:/st/stm32cubeide_1.9.0/stm32cubeide/plugins/com.st.stm32cube.ide.mcu.externaltools.gnu-tools-for-stm32.10.3-2021.10.win32_1.0.0.202111181127/tools/bin/../lib/gcc/arm-none-eabi/10.3.1/thumb/v7e-m+dp/hard/crtbegin.o
                0x0000000008015c04                PROVIDE (__init_array_end = .)
                0x0000000008015c04                . = ALIGN (0x4)

.fini_array     0x0000000008015c04        0x4
                0x0000000008015c04                . = ALIGN (0x4)
                [!provide]                        PROVIDE (__fini_array_start = .)
 *(SORT_BY_NAME(.fini_array.*))
 *(.fini_array*)
 .fini_array    0x0000000008015c04        0x4 c:/st/stm32cubeide_1.9.0/stm32cubeide/plugins/com.st.stm32cube.ide.mcu.externaltools.gnu-tools-for-stm32.10.3-2021.10.win32_1.0.0.202111181127/tools/bin/../lib/gcc/arm-none-eabi/10.3.1/thumb/v7e-m+dp/hard/crtbegin.o
                [!provide]                        PROVIDE (__fini_array_end = .)
                0x0000000008015c08                . = ALIGN (0x4)
                0x0000000008015c08                _sidata = LOADADDR (.data)

.data           0x0000000024000000       0x78 load address 0x0000000008015c08
                0x0000000024000000                . = ALIGN (0x4)
                0x0000000024000000                _sdata = .
 *(.data)
 *(.data*)
 .data.SystemCoreClock
                0x0000000024000000        0x4 ./Common/Src/system_stm32h7xx_dualcore_boot_cm4_cm7.o
                0x0000000024000000                SystemCoreClock
 .data.SystemD2Clock
                0x0000000024000004        0x4 ./Common/Src/system_stm32h7xx_dualcore_boot_cm4_cm7.o
                0x0000000024000004                SystemD2Clock
 .data.uwTickPrio
                0x0000000024000008        0x4 ./Drivers/STM32H7xx_HAL_Driver/stm32h7xx_hal.o
                0x0000000024000008                uwTickPrio
 .data.uwTickFreq
                0x000000002400000c        0x1 ./Drivers/STM32H7xx_HAL_Driver/stm32h7xx_hal.o
                0x000000002400000c                uwTickFreq
 *fill*         0x000000002400000d        0x3 
 .data._tx_thread_system_state
                0x0000000024000010        0x4 ./Middlewares/ThreadX/RTOS/ThreadX/Core/tx_thread_initialize.o
                0x0000000024000010                _tx_thread_system_state
 .data._ux_system_endpoint_descriptor_structure
                0x0000000024000014        0x6 ./Middlewares/USBX/USB/USBX/CoreSystem/ux_system_initialize.o
                0x0000000024000014                _ux_system_endpoint_descriptor_structure
 *fill*         0x000000002400001a        0x2 
 .data._ux_system_device_descriptor_structure
                0x000000002400001c        0xe ./Middlewares/USBX/USB/USBX/CoreSystem/ux_system_initialize.o
                0x000000002400001c                _ux_system_device_descriptor_structure
 *fill*         0x000000002400002a        0x2 
 .data._ux_system_configuration_descriptor_structure
                0x000000002400002c        0x8 ./Middlewares/USBX/USB/USBX/CoreSystem/ux_system_initialize.o
                0x000000002400002c                _ux_system_configuration_descriptor_structure
 .data._ux_system_interface_descriptor_structure
                0x0000000024000034        0x9 ./Middlewares/USBX/USB/USBX/CoreSystem/ux_system_initialize.o
                0x0000000024000034                _ux_system_interface_descriptor_structure
 *fill*         0x000000002400003d        0x3 
 .data._ux_system_bos_descriptor_structure
                0x0000000024000040        0x4 ./Middlewares/USBX/USB/USBX/CoreSystem/ux_system_initialize.o
                0x0000000024000040                _ux_system_bos_descriptor_structure
 .data._ux_system_slave_class_cdc_acm_name
                0x0000000024000044       0x17 ./Middlewares/USBX/USB/USBX/UX Device CoreStack/ux_device_stack_initialize.o
                0x0000000024000044                _ux_system_slave_class_cdc_acm_name
 *fill*         0x000000002400005b        0x1 
 .data.CDC_VCP_LineCoding
                0x000000002400005c        0x8 ./USBX/App/ux_device_cdc_acm.o
                0x000000002400005c                CDC_VCP_LineCoding
 .data.UserClassInstance
                0x0000000024000064        0x9 ./USBX/App/ux_device_descriptors.o
                0x0000000024000064                UserClassInstance
 *fill*         0x000000002400006d        0x3 
 .data.pDevFrameWorkDesc_FS
                0x0000000024000070        0x4 ./USBX/App/ux_device_descriptors.o
 .data.pDevFrameWorkDesc_HS
                0x0000000024000074        0x4 ./USBX/App/ux_device_descriptors.o
 *(.RamFunc)
 *(.RamFunc*)
                0x0000000024000078                . = ALIGN (0x4)
                0x0000000024000078                _edata = .

.igot.plt       0x0000000024000078        0x0 load address 0x0000000008015c80
 .igot.plt      0x0000000024000078        0x0 c:/st/stm32cubeide_1.9.0/stm32cubeide/plugins/com.st.stm32cube.ide.mcu.externaltools.gnu-tools-for-stm32.10.3-2021.10.win32_1.0.0.202111181127/tools/bin/../lib/gcc/arm-none-eabi/10.3.1/thumb/v7e-m+dp/hard/crtbegin.o
                0x0000000024000078                . = ALIGN (0x4)

.bss            0x0000000024000078     0x1b5c load address 0x0000000008015c80
                0x0000000024000078                _sbss = .
                0x0000000024000078                __bss_start__ = _sbss
 *(.bss)
 .bss           0x0000000024000078       0x1c c:/st/stm32cubeide_1.9.0/stm32cubeide/plugins/com.st.stm32cube.ide.mcu.externaltools.gnu-tools-for-stm32.10.3-2021.10.win32_1.0.0.202111181127/tools/bin/../lib/gcc/arm-none-eabi/10.3.1/thumb/v7e-m+dp/hard/crtbegin.o
 *(.bss*)
 .bss.tx_byte_pool_buffer
                0x0000000024000094      0x400 ./AZURE_RTOS/App/app_azure_rtos.o
 .bss.tx_app_byte_pool
                0x0000000024000494       0x34 ./AZURE_RTOS/App/app_azure_rtos.o
 .bss.ux_device_app_byte_pool
                0x00000000240004c8       0x34 ./AZURE_RTOS/App/app_azure_rtos.o
 .bss.htim6     0x00000000240004fc       0x4c ./Core/Src/stm32h7xx_hal_timebase_tim.o
                0x00000000240004fc                htim6
 .bss.huart3    0x0000000024000548       0x90 ./Core/Src/usart.o
                0x0000000024000548                huart3
 .bss.hdma_usart3_tx
                0x00000000240005d8       0x78 ./Core/Src/usart.o
                0x00000000240005d8                hdma_usart3_tx
 .bss.uwTick    0x0000000024000650        0x4 ./Drivers/STM32H7xx_HAL_Driver/stm32h7xx_hal.o
                0x0000000024000650                uwTick
 .bss._tx_semaphore_created_ptr
                0x0000000024000654        0x4 ./Middlewares/ThreadX/RTOS/ThreadX/Core/tx_initialize_high_level.o
                0x0000000024000654                _tx_semaphore_created_ptr
 .bss._tx_semaphore_created_count
                0x0000000024000658        0x4 ./Middlewares/ThreadX/RTOS/ThreadX/Core/tx_initialize_high_level.o
                0x0000000024000658                _tx_semaphore_created_count
 .bss._tx_queue_created_ptr
                0x000000002400065c        0x4 ./Middlewares/ThreadX/RTOS/ThreadX/Core/tx_initialize_high_level.o
                0x000000002400065c                _tx_queue_created_ptr
 .bss._tx_queue_created_count
                0x0000000024000660        0x4 ./Middlewares/ThreadX/RTOS/ThreadX/Core/tx_initialize_high_level.o
                0x0000000024000660                _tx_queue_created_count
 .bss._tx_event_flags_created_ptr
                0x0000000024000664        0x4 ./Middlewares/ThreadX/RTOS/ThreadX/Core/tx_initialize_high_level.o
                0x0000000024000664                _tx_event_flags_created_ptr
 .bss._tx_event_flags_created_count
                0x0000000024000668        0x4 ./Middlewares/ThreadX/RTOS/ThreadX/Core/tx_initialize_high_level.o
                0x0000000024000668                _tx_event_flags_created_count
 .bss._tx_mutex_created_ptr
                0x000000002400066c        0x4 ./Middlewares/ThreadX/RTOS/ThreadX/Core/tx_initialize_high_level.o
                0x000000002400066c                _tx_mutex_created_ptr
 .bss._tx_mutex_created_count
                0x0000000024000670        0x4 ./Middlewares/ThreadX/RTOS/ThreadX/Core/tx_initialize_high_level.o
                0x0000000024000670                _tx_mutex_created_count
 .bss._tx_block_pool_created_ptr
                0x0000000024000674        0x4 ./Middlewares/ThreadX/RTOS/ThreadX/Core/tx_initialize_high_level.o
                0x0000000024000674                _tx_block_pool_created_ptr
 .bss._tx_block_pool_created_count
                0x0000000024000678        0x4 ./Middlewares/ThreadX/RTOS/ThreadX/Core/tx_initialize_high_level.o
                0x0000000024000678                _tx_block_pool_created_count
 .bss._tx_byte_pool_created_ptr
                0x000000002400067c        0x4 ./Middlewares/ThreadX/RTOS/ThreadX/Core/tx_initialize_high_level.o
                0x000000002400067c                _tx_byte_pool_created_ptr
 .bss._tx_byte_pool_created_count
                0x0000000024000680        0x4 ./Middlewares/ThreadX/RTOS/ThreadX/Core/tx_initialize_high_level.o
                0x0000000024000680                _tx_byte_pool_created_count
 .bss._tx_initialize_unused_memory
                0x0000000024000684        0x4 ./Middlewares/ThreadX/RTOS/ThreadX/Core/tx_initialize_high_level.o
                0x0000000024000684                _tx_initialize_unused_memory
 .bss._tx_thread_system_stack_ptr
                0x0000000024000688        0x4 ./Middlewares/ThreadX/RTOS/ThreadX/Core/tx_thread_initialize.o
                0x0000000024000688                _tx_thread_system_stack_ptr
 .bss._tx_thread_current_ptr
                0x000000002400068c        0x4 ./Middlewares/ThreadX/RTOS/ThreadX/Core/tx_thread_initialize.o
                0x000000002400068c                _tx_thread_current_ptr
 .bss._tx_thread_execute_ptr
                0x0000000024000690        0x4 ./Middlewares/ThreadX/RTOS/ThreadX/Core/tx_thread_initialize.o
                0x0000000024000690                _tx_thread_execute_ptr
 .bss._tx_thread_created_ptr
                0x0000000024000694        0x4 ./Middlewares/ThreadX/RTOS/ThreadX/Core/tx_thread_initialize.o
                0x0000000024000694                _tx_thread_created_ptr
 .bss._tx_thread_created_count
                0x0000000024000698        0x4 ./Middlewares/ThreadX/RTOS/ThreadX/Core/tx_thread_initialize.o
                0x0000000024000698                _tx_thread_created_count
 .bss._tx_thread_priority_maps
                0x000000002400069c        0x4 ./Middlewares/ThreadX/RTOS/ThreadX/Core/tx_thread_initialize.o
                0x000000002400069c                _tx_thread_priority_maps
 .bss._tx_thread_highest_priority
                0x00000000240006a0        0x4 ./Middlewares/ThreadX/RTOS/ThreadX/Core/tx_thread_initialize.o
                0x00000000240006a0                _tx_thread_highest_priority
 .bss._tx_thread_priority_list
                0x00000000240006a4       0x80 ./Middlewares/ThreadX/RTOS/ThreadX/Core/tx_thread_initialize.o
                0x00000000240006a4                _tx_thread_priority_list
 .bss._tx_thread_preempt_disable
                0x0000000024000724        0x4 ./Middlewares/ThreadX/RTOS/ThreadX/Core/tx_thread_initialize.o
                0x0000000024000724                _tx_thread_preempt_disable
 .bss._tx_thread_mutex_release
                0x0000000024000728        0x4 ./Middlewares/ThreadX/RTOS/ThreadX/Core/tx_thread_initialize.o
                0x0000000024000728                _tx_thread_mutex_release
 .bss._tx_build_options
                0x000000002400072c        0x4 ./Middlewares/ThreadX/RTOS/ThreadX/Core/tx_thread_initialize.o
                0x000000002400072c                _tx_build_options
 .bss._tx_timer_system_clock
                0x0000000024000730        0x4 ./Middlewares/ThreadX/RTOS/ThreadX/Core/tx_timer_initialize.o
                0x0000000024000730                _tx_timer_system_clock
 .bss._tx_timer_expired_time_slice
                0x0000000024000734        0x4 ./Middlewares/ThreadX/RTOS/ThreadX/Core/tx_timer_initialize.o
                0x0000000024000734                _tx_timer_expired_time_slice
 .bss._tx_timer_list
                0x0000000024000738       0x80 ./Middlewares/ThreadX/RTOS/ThreadX/Core/tx_timer_initialize.o
                0x0000000024000738                _tx_timer_list
 .bss._tx_timer_list_start
                0x00000000240007b8        0x4 ./Middlewares/ThreadX/RTOS/ThreadX/Core/tx_timer_initialize.o
                0x00000000240007b8                _tx_timer_list_start
 .bss._tx_timer_list_end
                0x00000000240007bc        0x4 ./Middlewares/ThreadX/RTOS/ThreadX/Core/tx_timer_initialize.o
                0x00000000240007bc                _tx_timer_list_end
 .bss._tx_timer_current_ptr
                0x00000000240007c0        0x4 ./Middlewares/ThreadX/RTOS/ThreadX/Core/tx_timer_initialize.o
                0x00000000240007c0                _tx_timer_current_ptr
 .bss._tx_timer_expired
                0x00000000240007c4        0x4 ./Middlewares/ThreadX/RTOS/ThreadX/Core/tx_timer_initialize.o
                0x00000000240007c4                _tx_timer_expired
 .bss._tx_timer_created_ptr
                0x00000000240007c8        0x4 ./Middlewares/ThreadX/RTOS/ThreadX/Core/tx_timer_initialize.o
                0x00000000240007c8                _tx_timer_created_ptr
 .bss._tx_timer_created_count
                0x00000000240007cc        0x4 ./Middlewares/ThreadX/RTOS/ThreadX/Core/tx_timer_initialize.o
                0x00000000240007cc                _tx_timer_created_count
 .bss._tx_timer_expired_timer_ptr
                0x00000000240007d0        0x4 ./Middlewares/ThreadX/RTOS/ThreadX/Core/tx_timer_initialize.o
                0x00000000240007d0                _tx_timer_expired_timer_ptr
 .bss._tx_timer_thread
                0x00000000240007d4       0xb0 ./Middlewares/ThreadX/RTOS/ThreadX/Core/tx_timer_initialize.o
                0x00000000240007d4                _tx_timer_thread
 .bss._tx_timer_stack_start
                0x0000000024000884        0x4 ./Middlewares/ThreadX/RTOS/ThreadX/Core/tx_timer_initialize.o
                0x0000000024000884                _tx_timer_stack_start
 .bss._tx_timer_stack_size
                0x0000000024000888        0x4 ./Middlewares/ThreadX/RTOS/ThreadX/Core/tx_timer_initialize.o
                0x0000000024000888                _tx_timer_stack_size
 .bss._tx_timer_priority
                0x000000002400088c        0x4 ./Middlewares/ThreadX/RTOS/ThreadX/Core/tx_timer_initialize.o
                0x000000002400088c                _tx_timer_priority
 .bss._tx_timer_thread_stack_area
                0x0000000024000890      0x400 ./Middlewares/ThreadX/RTOS/ThreadX/Core/tx_timer_initialize.o
                0x0000000024000890                _tx_timer_thread_stack_area
 .bss._tx_timer_time_slice
                0x0000000024000c90        0x4 ./Middlewares/ThreadX/RTOS/ThreadX/Core/tx_timer_initialize.o
                0x0000000024000c90                _tx_timer_time_slice
 .bss._ux_system
                0x0000000024000c94        0x4 ./Middlewares/USBX/USB/USBX/CoreSystem/ux_system_initialize.o
                0x0000000024000c94                _ux_system
 .bss._ux_system_slave
                0x0000000024000c98        0x4 ./Middlewares/USBX/USB/USBX/UX Device CoreStack/ux_device_stack_initialize.o
                0x0000000024000c98                _ux_system_slave
 .bss.ux_app_thread
                0x0000000024000c9c       0xb0 ./USBX/App/app_usbx_device.o
                0x0000000024000c9c                ux_app_thread
 .bss.ux_cdc_read_thread
                0x0000000024000d4c       0xb0 ./USBX/App/app_usbx_device.o
                0x0000000024000d4c                ux_cdc_read_thread
 .bss.ux_cdc_write_thread
                0x0000000024000dfc       0xb0 ./USBX/App/app_usbx_device.o
                0x0000000024000dfc                ux_cdc_write_thread
 .bss.EventFlag
                0x0000000024000eac       0x24 ./USBX/App/app_usbx_device.o
                0x0000000024000eac                EventFlag
 .bss.cdc_acm_parameter
                0x0000000024000ed0        0xc ./USBX/App/app_usbx_device.o
                0x0000000024000ed0                cdc_acm_parameter
 .bss.UserTxBufferFS
                0x0000000024000edc      0x800 ./USBX/App/ux_device_cdc_acm.o
                0x0000000024000edc                UserTxBufferFS
 .bss.UserTxBufPtrIn
                0x00000000240016dc        0x4 ./USBX/App/ux_device_cdc_acm.o
                0x00000000240016dc                UserTxBufPtrIn
 .bss.UserTxBufPtrOut
                0x00000000240016e0        0x4 ./USBX/App/ux_device_cdc_acm.o
                0x00000000240016e0                UserTxBufPtrOut
 .bss.USBD_Device_FS
                0x00000000240016e4      0x11c ./USBX/App/ux_device_descriptors.o
                0x00000000240016e4                USBD_Device_FS
 .bss.USBD_Device_HS
                0x0000000024001800      0x11c ./USBX/App/ux_device_descriptors.o
                0x0000000024001800                USBD_Device_HS
 .bss.DevFrameWorkDesc_FS
                0x000000002400191c       0xc8 ./USBX/App/ux_device_descriptors.o
 .bss.DevFrameWorkDesc_HS
                0x00000000240019e4       0xc8 ./USBX/App/ux_device_descriptors.o
 .bss.USBD_string_framework
                0x0000000024001aac      0x100 ./USBX/App/ux_device_descriptors.o
                0x0000000024001aac                USBD_string_framework
 .bss.USBD_language_id_framework
                0x0000000024001bac        0x2 ./USBX/App/ux_device_descriptors.o
                0x0000000024001bac                USBD_language_id_framework
 *fill*         0x0000000024001bae        0x2 
 .bss.pDevDesc.8
                0x0000000024001bb0        0x4 ./USBX/App/ux_device_descriptors.o
 .bss.pDevQualDesc.7
                0x0000000024001bb4        0x4 ./USBX/App/ux_device_descriptors.o
 .bss.pIadDesc.6
                0x0000000024001bb8        0x4 ./USBX/App/ux_device_descriptors.o
 .bss.pIfDesc.5
                0x0000000024001bbc        0x4 ./USBX/App/ux_device_descriptors.o
 .bss.pHeadDesc.4
                0x0000000024001bc0        0x4 ./USBX/App/ux_device_descriptors.o
 .bss.pCallMgmDesc.3
                0x0000000024001bc4        0x4 ./USBX/App/ux_device_descriptors.o
 .bss.pACMDesc.2
                0x0000000024001bc8        0x4 ./USBX/App/ux_device_descriptors.o
 .bss.pUnionDesc.1
                0x0000000024001bcc        0x4 ./USBX/App/ux_device_descriptors.o
 .bss.pEpDesc.0
                0x0000000024001bd0        0x4 ./USBX/App/ux_device_descriptors.o
 *(COMMON)
                0x0000000024001bd4                . = ALIGN (0x4)
                0x0000000024001bd4                _ebss = .
                0x0000000024001bd4                __bss_end__ = _ebss

._user_heap_stack
                0x0000000024001bd4      0x604 load address 0x0000000008015c80
                0x0000000024001bd8                . = ALIGN (0x8)
 *fill*         0x0000000024001bd4        0x4 
                [!provide]                        PROVIDE (end = .)
                0x0000000024001bd8                PROVIDE (_end = .)
                0x0000000024001dd8                . = (. + _Min_Heap_Size)
 *fill*         0x0000000024001bd8      0x200 
                0x00000000240021d8                . = (. + _Min_Stack_Size)
 *fill*         0x0000000024001dd8      0x400 
                0x00000000240021d8                . = ALIGN (0x8)

.usbx_data      0x0000000024027000      0x50c
 *(.UsbHpcdSection)
 .UsbHpcdSection
                0x0000000024027000      0x50c ./Core/Src/usb_otg.o
                0x0000000024027000                hpcd_USB_OTG_FS

.uart_bss       0x0000000024028000      0x800
 *(.UsbxAppSection)
 .UsbxAppSection
                0x0000000024028000      0x800 ./USBX/App/ux_device_cdc_acm.o
                0x0000000024028000                UserRxBufferFS

.usbx_bss       0x0000000024029000     0x2c00
 *(.UsbxPoolSection)
 .UsbxPoolSection
                0x0000000024029000     0x2c00 ./AZURE_RTOS/App/app_azure_rtos.o

/DISCARD/
 libc.a(*)
 libm.a(*)
 libgcc.a(*)

.ARM.attributes
                0x0000000000000000       0x2e
 *(.ARM.attributes)
 .ARM.attributes
                0x0000000000000000       0x1e c:/st/stm32cubeide_1.9.0/stm32cubeide/plugins/com.st.stm32cube.ide.mcu.externaltools.gnu-tools-for-stm32.10.3-2021.10.win32_1.0.0.202111181127/tools/bin/../lib/gcc/arm-none-eabi/10.3.1/thumb/v7e-m+dp/hard/crti.o
 .ARM.attributes
                0x000000000000001e       0x32 c:/st/stm32cubeide_1.9.0/stm32cubeide/plugins/com.st.stm32cube.ide.mcu.externaltools.gnu-tools-for-stm32.10.3-2021.10.win32_1.0.0.202111181127/tools/bin/../lib/gcc/arm-none-eabi/10.3.1/thumb/v7e-m+dp/hard/crtbegin.o
 .ARM.attributes
                0x0000000000000050       0x32 ./AZURE_RTOS/App/app_azure_rtos.o
 .ARM.attributes
                0x0000000000000082       0x32 ./Common/Src/system_stm32h7xx_dualcore_boot_cm4_cm7.o
 .ARM.attributes
                0x00000000000000b4       0x32 ./Core/Src/app_threadx.o
 .ARM.attributes
                0x00000000000000e6       0x32 ./Core/Src/dma.o
 .ARM.attributes
                0x0000000000000118       0x32 ./Core/Src/gpio.o
 .ARM.attributes
                0x000000000000014a       0x32 ./Core/Src/main.o
 .ARM.attributes
                0x000000000000017c       0x32 ./Core/Src/stm32h7xx_hal_msp.o
 .ARM.attributes
                0x00000000000001ae       0x32 ./Core/Src/stm32h7xx_hal_timebase_tim.o
 .ARM.attributes
                0x00000000000001e0       0x32 ./Core/Src/stm32h7xx_it.o
 .ARM.attributes
                0x0000000000000212       0x1e ./Core/Src/tx_initialize_low_level.o
 .ARM.attributes
                0x0000000000000230       0x32 ./Core/Src/usart.o
 .ARM.attributes
                0x0000000000000262       0x32 ./Core/Src/usb_otg.o
 .ARM.attributes
                0x0000000000000294       0x21 ./Core/Startup/startup_stm32h745zitx.o
 .ARM.attributes
                0x00000000000002b5       0x32 ./Drivers/STM32H7xx_HAL_Driver/stm32h7xx_hal.o
 .ARM.attributes
                0x00000000000002e7       0x32 ./Drivers/STM32H7xx_HAL_Driver/stm32h7xx_hal_cortex.o
 .ARM.attributes
                0x0000000000000319       0x32 ./Drivers/STM32H7xx_HAL_Driver/stm32h7xx_hal_dma.o
 .ARM.attributes
                0x000000000000034b       0x32 ./Drivers/STM32H7xx_HAL_Driver/stm32h7xx_hal_gpio.o
 .ARM.attributes
                0x000000000000037d       0x32 ./Drivers/STM32H7xx_HAL_Driver/stm32h7xx_hal_hsem.o
 .ARM.attributes
                0x00000000000003af       0x32 ./Drivers/STM32H7xx_HAL_Driver/stm32h7xx_hal_pcd.o
 .ARM.attributes
                0x00000000000003e1       0x32 ./Drivers/STM32H7xx_HAL_Driver/stm32h7xx_hal_pcd_ex.o
 .ARM.attributes
                0x0000000000000413       0x32 ./Drivers/STM32H7xx_HAL_Driver/stm32h7xx_hal_pwr_ex.o
 .ARM.attributes
                0x0000000000000445       0x32 ./Drivers/STM32H7xx_HAL_Driver/stm32h7xx_hal_rcc.o
 .ARM.attributes
                0x0000000000000477       0x32 ./Drivers/STM32H7xx_HAL_Driver/stm32h7xx_hal_rcc_ex.o
 .ARM.attributes
                0x00000000000004a9       0x32 ./Drivers/STM32H7xx_HAL_Driver/stm32h7xx_hal_tim.o
 .ARM.attributes
                0x00000000000004db       0x32 ./Drivers/STM32H7xx_HAL_Driver/stm32h7xx_hal_tim_ex.o
 .ARM.attributes
                0x000000000000050d       0x32 ./Drivers/STM32H7xx_HAL_Driver/stm32h7xx_hal_uart.o
 .ARM.attributes
                0x000000000000053f       0x32 ./Drivers/STM32H7xx_HAL_Driver/stm32h7xx_hal_uart_ex.o
 .ARM.attributes
                0x0000000000000571       0x32 ./Drivers/STM32H7xx_HAL_Driver/stm32h7xx_ll_usb.o
 .ARM.attributes
                0x00000000000005a3       0x32 ./Middlewares/ThreadX/RTOS/ThreadX/Core/tx_byte_allocate.o
 .ARM.attributes
                0x00000000000005d5       0x32 ./Middlewares/ThreadX/RTOS/ThreadX/Core/tx_byte_pool_cleanup.o
 .ARM.attributes
                0x0000000000000607       0x32 ./Middlewares/ThreadX/RTOS/ThreadX/Core/tx_byte_pool_create.o
 .ARM.attributes
                0x0000000000000639       0x32 ./Middlewares/ThreadX/RTOS/ThreadX/Core/tx_byte_pool_search.o
 .ARM.attributes
                0x000000000000066b       0x32 ./Middlewares/ThreadX/RTOS/ThreadX/Core/tx_event_flags_cleanup.o
 .ARM.attributes
                0x000000000000069d       0x32 ./Middlewares/ThreadX/RTOS/ThreadX/Core/tx_event_flags_create.o
 .ARM.attributes
                0x00000000000006cf       0x32 ./Middlewares/ThreadX/RTOS/ThreadX/Core/tx_event_flags_get.o
 .ARM.attributes
                0x0000000000000701       0x32 ./Middlewares/ThreadX/RTOS/ThreadX/Core/tx_event_flags_set.o
 .ARM.attributes
                0x0000000000000733       0x32 ./Middlewares/ThreadX/RTOS/ThreadX/Core/tx_initialize_high_level.o
 .ARM.attributes
                0x0000000000000765       0x32 ./Middlewares/ThreadX/RTOS/ThreadX/Core/tx_initialize_kernel_enter.o
 .ARM.attributes
                0x0000000000000797       0x32 ./Middlewares/ThreadX/RTOS/ThreadX/Core/tx_mutex_cleanup.o
 .ARM.attributes
                0x00000000000007c9       0x32 ./Middlewares/ThreadX/RTOS/ThreadX/Core/tx_mutex_create.o
 .ARM.attributes
                0x00000000000007fb       0x32 ./Middlewares/ThreadX/RTOS/ThreadX/Core/tx_mutex_delete.o
 .ARM.attributes
                0x000000000000082d       0x32 ./Middlewares/ThreadX/RTOS/ThreadX/Core/tx_mutex_get.o
 .ARM.attributes
                0x000000000000085f       0x32 ./Middlewares/ThreadX/RTOS/ThreadX/Core/tx_mutex_prioritize.o
 .ARM.attributes
                0x0000000000000891       0x32 ./Middlewares/ThreadX/RTOS/ThreadX/Core/tx_mutex_priority_change.o
 .ARM.attributes
                0x00000000000008c3       0x32 ./Middlewares/ThreadX/RTOS/ThreadX/Core/tx_mutex_put.o
 .ARM.attributes
                0x00000000000008f5       0x32 ./Middlewares/ThreadX/RTOS/ThreadX/Core/tx_semaphore_cleanup.o
 .ARM.attributes
                0x0000000000000927       0x32 ./Middlewares/ThreadX/RTOS/ThreadX/Core/tx_semaphore_create.o
 .ARM.attributes
                0x0000000000000959       0x32 ./Middlewares/ThreadX/RTOS/ThreadX/Core/tx_semaphore_delete.o
 .ARM.attributes
                0x000000000000098b       0x32 ./Middlewares/ThreadX/RTOS/ThreadX/Core/tx_semaphore_get.o
 .ARM.attributes
                0x00000000000009bd       0x32 ./Middlewares/ThreadX/RTOS/ThreadX/Core/tx_semaphore_put.o
 .ARM.attributes
                0x00000000000009ef       0x32 ./Middlewares/ThreadX/RTOS/ThreadX/Core/tx_thread_create.o
 .ARM.attributes
                0x0000000000000a21       0x32 ./Middlewares/ThreadX/RTOS/ThreadX/Core/tx_thread_identify.o
 .ARM.attributes
                0x0000000000000a53       0x32 ./Middlewares/ThreadX/RTOS/ThreadX/Core/tx_thread_info_get.o
 .ARM.attributes
                0x0000000000000a85       0x32 ./Middlewares/ThreadX/RTOS/ThreadX/Core/tx_thread_initialize.o
 .ARM.attributes
                0x0000000000000ab7       0x1e ./Middlewares/ThreadX/RTOS/ThreadX/Core/tx_thread_schedule.o
 .ARM.attributes
                0x0000000000000ad5       0x32 ./Middlewares/ThreadX/RTOS/ThreadX/Core/tx_thread_shell_entry.o
 .ARM.attributes
                0x0000000000000b07       0x32 ./Middlewares/ThreadX/RTOS/ThreadX/Core/tx_thread_sleep.o
 .ARM.attributes
                0x0000000000000b39       0x1e ./Middlewares/ThreadX/RTOS/ThreadX/Core/tx_thread_stack_build.o
 .ARM.attributes
                0x0000000000000b57       0x32 ./Middlewares/ThreadX/RTOS/ThreadX/Core/tx_thread_system_preempt_check.o
 .ARM.attributes
                0x0000000000000b89       0x32 ./Middlewares/ThreadX/RTOS/ThreadX/Core/tx_thread_system_resume.o
 .ARM.attributes
                0x0000000000000bbb       0x32 ./Middlewares/ThreadX/RTOS/ThreadX/Core/tx_thread_system_suspend.o
 .ARM.attributes
                0x0000000000000bed       0x32 ./Middlewares/ThreadX/RTOS/ThreadX/Core/tx_thread_time_slice.o
 .ARM.attributes
                0x0000000000000c1f       0x32 ./Middlewares/ThreadX/RTOS/ThreadX/Core/tx_thread_timeout.o
 .ARM.attributes
                0x0000000000000c51       0x32 ./Middlewares/ThreadX/RTOS/ThreadX/Core/tx_timer_expiration_process.o
 .ARM.attributes
                0x0000000000000c83       0x32 ./Middlewares/ThreadX/RTOS/ThreadX/Core/tx_timer_initialize.o
 .ARM.attributes
                0x0000000000000cb5       0x1e ./Middlewares/ThreadX/RTOS/ThreadX/Core/tx_timer_interrupt.o
 .ARM.attributes
                0x0000000000000cd3       0x32 ./Middlewares/ThreadX/RTOS/ThreadX/Core/tx_timer_system_activate.o
 .ARM.attributes
                0x0000000000000d05       0x32 ./Middlewares/ThreadX/RTOS/ThreadX/Core/tx_timer_system_deactivate.o
 .ARM.attributes
                0x0000000000000d37       0x32 ./Middlewares/ThreadX/RTOS/ThreadX/Core/tx_timer_thread_entry.o
 .ARM.attributes
                0x0000000000000d69       0x32 ./Middlewares/ThreadX/RTOS/ThreadX/Core/txe_byte_allocate.o
 .ARM.attributes
                0x0000000000000d9b       0x32 ./Middlewares/ThreadX/RTOS/ThreadX/Core/txe_byte_pool_create.o
 .ARM.attributes
                0x0000000000000dcd       0x32 ./Middlewares/ThreadX/RTOS/ThreadX/Core/txe_event_flags_create.o
 .ARM.attributes
                0x0000000000000dff       0x32 ./Middlewares/ThreadX/RTOS/ThreadX/Core/txe_event_flags_get.o
 .ARM.attributes
                0x0000000000000e31       0x32 ./Middlewares/ThreadX/RTOS/ThreadX/Core/txe_event_flags_set.o
 .ARM.attributes
                0x0000000000000e63       0x32 ./Middlewares/ThreadX/RTOS/ThreadX/Core/txe_mutex_create.o
 .ARM.attributes
                0x0000000000000e95       0x32 ./Middlewares/ThreadX/RTOS/ThreadX/Core/txe_mutex_delete.o
 .ARM.attributes
                0x0000000000000ec7       0x32 ./Middlewares/ThreadX/RTOS/ThreadX/Core/txe_mutex_get.o
 .ARM.attributes
                0x0000000000000ef9       0x32 ./Middlewares/ThreadX/RTOS/ThreadX/Core/txe_mutex_put.o
 .ARM.attributes
                0x0000000000000f2b       0x32 ./Middlewares/ThreadX/RTOS/ThreadX/Core/txe_semaphore_create.o
 .ARM.attributes
                0x0000000000000f5d       0x32 ./Middlewares/ThreadX/RTOS/ThreadX/Core/txe_semaphore_delete.o
 .ARM.attributes
                0x0000000000000f8f       0x32 ./Middlewares/ThreadX/RTOS/ThreadX/Core/txe_semaphore_get.o
 .ARM.attributes
                0x0000000000000fc1       0x32 ./Middlewares/ThreadX/RTOS/ThreadX/Core/txe_semaphore_put.o
 .ARM.attributes
                0x0000000000000ff3       0x32 ./Middlewares/ThreadX/RTOS/ThreadX/Core/txe_thread_create.o
 .ARM.attributes
                0x0000000000001025       0x32 ./Middlewares/ThreadX/RTOS/ThreadX/Core/txe_thread_info_get.o
 .ARM.attributes
                0x0000000000001057       0x32 ./Middlewares/USBX/USB/USBX/CoreSystem/ux_system_error_handler.o
 .ARM.attributes
                0x0000000000001089       0x32 ./Middlewares/USBX/USB/USBX/CoreSystem/ux_system_initialize.o
 .ARM.attributes
                0x00000000000010bb       0x32 ./Middlewares/USBX/USB/USBX/CoreSystem/ux_utility_delay_ms.o
 .ARM.attributes
                0x00000000000010ed       0x32 ./Middlewares/USBX/USB/USBX/CoreSystem/ux_utility_descriptor_parse.o
 .ARM.attributes
                0x000000000000111f       0x32 ./Middlewares/USBX/USB/USBX/CoreSystem/ux_utility_long_get.o
 .ARM.attributes
                0x0000000000001151       0x32 ./Middlewares/USBX/USB/USBX/CoreSystem/ux_utility_long_put.o
 .ARM.attributes
                0x0000000000001183       0x32 ./Middlewares/USBX/USB/USBX/CoreSystem/ux_utility_memory_allocate.o
 .ARM.attributes
                0x00000000000011b5       0x32 ./Middlewares/USBX/USB/USBX/CoreSystem/ux_utility_memory_allocate_mulc_safe.o
 .ARM.attributes
                0x00000000000011e7       0x32 ./Middlewares/USBX/USB/USBX/CoreSystem/ux_utility_memory_compare.o
 .ARM.attributes
                0x0000000000001219       0x32 ./Middlewares/USBX/USB/USBX/CoreSystem/ux_utility_memory_copy.o
 .ARM.attributes
                0x000000000000124b       0x32 ./Middlewares/USBX/USB/USBX/CoreSystem/ux_utility_memory_free.o
 .ARM.attributes
                0x000000000000127d       0x32 ./Middlewares/USBX/USB/USBX/CoreSystem/ux_utility_memory_free_block_best_get.o
 .ARM.attributes
                0x00000000000012af       0x32 ./Middlewares/USBX/USB/USBX/CoreSystem/ux_utility_memory_set.o
 .ARM.attributes
                0x00000000000012e1       0x32 ./Middlewares/USBX/USB/USBX/CoreSystem/ux_utility_mutex_create.o
 .ARM.attributes
                0x0000000000001313       0x32 ./Middlewares/USBX/USB/USBX/CoreSystem/ux_utility_mutex_delete.o
 .ARM.attributes
                0x0000000000001345       0x32 ./Middlewares/USBX/USB/USBX/CoreSystem/ux_utility_mutex_off.o
 .ARM.attributes
                0x0000000000001377       0x32 ./Middlewares/USBX/USB/USBX/CoreSystem/ux_utility_mutex_on.o
 .ARM.attributes
                0x00000000000013a9       0x32 ./Middlewares/USBX/USB/USBX/CoreSystem/ux_utility_semaphore_create.o
 .ARM.attributes
                0x00000000000013db       0x32 ./Middlewares/USBX/USB/USBX/CoreSystem/ux_utility_semaphore_delete.o
 .ARM.attributes
                0x000000000000140d       0x32 ./Middlewares/USBX/USB/USBX/CoreSystem/ux_utility_semaphore_get.o
 .ARM.attributes
                0x000000000000143f       0x32 ./Middlewares/USBX/USB/USBX/CoreSystem/ux_utility_semaphore_put.o
 .ARM.attributes
                0x0000000000001471       0x32 ./Middlewares/USBX/USB/USBX/CoreSystem/ux_utility_short_get.o
 .ARM.attributes
                0x00000000000014a3       0x32 ./Middlewares/USBX/USB/USBX/CoreSystem/ux_utility_string_length_check.o
 .ARM.attributes
                0x00000000000014d5       0x32 ./Middlewares/USBX/USB/USBX/CoreSystem/ux_utility_string_length_get.o
 .ARM.attributes
                0x0000000000001507       0x32 ./Middlewares/USBX/USB/USBX/UX Device Class CDC ACM/ux_device_class_cdc_acm_activate.o
 .ARM.attributes
                0x0000000000001539       0x32 ./Middlewares/USBX/USB/USBX/UX Device Class CDC ACM/ux_device_class_cdc_acm_control_request.o
 .ARM.attributes
                0x000000000000156b       0x32 ./Middlewares/USBX/USB/USBX/UX Device Class CDC ACM/ux_device_class_cdc_acm_deactivate.o
 .ARM.attributes
                0x000000000000159d       0x32 ./Middlewares/USBX/USB/USBX/UX Device Class CDC ACM/ux_device_class_cdc_acm_entry.o
 .ARM.attributes
                0x00000000000015cf       0x32 ./Middlewares/USBX/USB/USBX/UX Device Class CDC ACM/ux_device_class_cdc_acm_initialize.o
 .ARM.attributes
                0x0000000000001601       0x32 ./Middlewares/USBX/USB/USBX/UX Device Class CDC ACM/ux_device_class_cdc_acm_ioctl.o
 .ARM.attributes
                0x0000000000001633       0x32 ./Middlewares/USBX/USB/USBX/UX Device Class CDC ACM/ux_device_class_cdc_acm_read.o
 .ARM.attributes
                0x0000000000001665       0x32 ./Middlewares/USBX/USB/USBX/UX Device Class CDC ACM/ux_device_class_cdc_acm_unitialize.o
 .ARM.attributes
                0x0000000000001697       0x32 ./Middlewares/USBX/USB/USBX/UX Device Class CDC ACM/ux_device_class_cdc_acm_write.o
 .ARM.attributes
                0x00000000000016c9       0x32 ./Middlewares/USBX/USB/USBX/UX Device Controllers/ux_dcd_stm32_callback.o
 .ARM.attributes
                0x00000000000016fb       0x32 ./Middlewares/USBX/USB/USBX/UX Device Controllers/ux_dcd_stm32_endpoint_create.o
 .ARM.attributes
                0x000000000000172d       0x32 ./Middlewares/USBX/USB/USBX/UX Device Controllers/ux_dcd_stm32_endpoint_destroy.o
 .ARM.attributes
                0x000000000000175f       0x32 ./Middlewares/USBX/USB/USBX/UX Device Controllers/ux_dcd_stm32_endpoint_reset.o
 .ARM.attributes
                0x0000000000001791       0x32 ./Middlewares/USBX/USB/USBX/UX Device Controllers/ux_dcd_stm32_endpoint_stall.o
 .ARM.attributes
                0x00000000000017c3       0x32 ./Middlewares/USBX/USB/USBX/UX Device Controllers/ux_dcd_stm32_endpoint_status.o
 .ARM.attributes
                0x00000000000017f5       0x32 ./Middlewares/USBX/USB/USBX/UX Device Controllers/ux_dcd_stm32_frame_number_get.o
 .ARM.attributes
                0x0000000000001827       0x32 ./Middlewares/USBX/USB/USBX/UX Device Controllers/ux_dcd_stm32_function.o
 .ARM.attributes
                0x0000000000001859       0x32 ./Middlewares/USBX/USB/USBX/UX Device Controllers/ux_dcd_stm32_initialize.o
 .ARM.attributes
                0x000000000000188b       0x32 ./Middlewares/USBX/USB/USBX/UX Device Controllers/ux_dcd_stm32_initialize_complete.o
 .ARM.attributes
                0x00000000000018bd       0x32 ./Middlewares/USBX/USB/USBX/UX Device Controllers/ux_dcd_stm32_transfer_abort.o
 .ARM.attributes
                0x00000000000018ef       0x32 ./Middlewares/USBX/USB/USBX/UX Device Controllers/ux_dcd_stm32_transfer_request.o
 .ARM.attributes
                0x0000000000001921       0x32 ./Middlewares/USBX/USB/USBX/UX Device CoreStack/ux_device_stack_alternate_setting_get.o
 .ARM.attributes
                0x0000000000001953       0x32 ./Middlewares/USBX/USB/USBX/UX Device CoreStack/ux_device_stack_alternate_setting_set.o
 .ARM.attributes
                0x0000000000001985       0x32 ./Middlewares/USBX/USB/USBX/UX Device CoreStack/ux_device_stack_class_register.o
 .ARM.attributes
                0x00000000000019b7       0x32 ./Middlewares/USBX/USB/USBX/UX Device CoreStack/ux_device_stack_clear_feature.o
 .ARM.attributes
                0x00000000000019e9       0x32 ./Middlewares/USBX/USB/USBX/UX Device CoreStack/ux_device_stack_configuration_get.o
 .ARM.attributes
                0x0000000000001a1b       0x32 ./Middlewares/USBX/USB/USBX/UX Device CoreStack/ux_device_stack_configuration_set.o
 .ARM.attributes
                0x0000000000001a4d       0x32 ./Middlewares/USBX/USB/USBX/UX Device CoreStack/ux_device_stack_control_request_process.o
 .ARM.attributes
                0x0000000000001a7f       0x32 ./Middlewares/USBX/USB/USBX/UX Device CoreStack/ux_device_stack_descriptor_send.o
 .ARM.attributes
                0x0000000000001ab1       0x32 ./Middlewares/USBX/USB/USBX/UX Device CoreStack/ux_device_stack_disconnect.o
 .ARM.attributes
                0x0000000000001ae3       0x32 ./Middlewares/USBX/USB/USBX/UX Device CoreStack/ux_device_stack_endpoint_stall.o
 .ARM.attributes
                0x0000000000001b15       0x32 ./Middlewares/USBX/USB/USBX/UX Device CoreStack/ux_device_stack_get_status.o
 .ARM.attributes
                0x0000000000001b47       0x32 ./Middlewares/USBX/USB/USBX/UX Device CoreStack/ux_device_stack_initialize.o
 .ARM.attributes
                0x0000000000001b79       0x32 ./Middlewares/USBX/USB/USBX/UX Device CoreStack/ux_device_stack_interface_delete.o
 .ARM.attributes
                0x0000000000001bab       0x32 ./Middlewares/USBX/USB/USBX/UX Device CoreStack/ux_device_stack_interface_set.o
 .ARM.attributes
                0x0000000000001bdd       0x32 ./Middlewares/USBX/USB/USBX/UX Device CoreStack/ux_device_stack_interface_start.o
 .ARM.attributes
                0x0000000000001c0f       0x32 ./Middlewares/USBX/USB/USBX/UX Device CoreStack/ux_device_stack_set_feature.o
 .ARM.attributes
                0x0000000000001c41       0x32 ./Middlewares/USBX/USB/USBX/UX Device CoreStack/ux_device_stack_transfer_abort.o
 .ARM.attributes
                0x0000000000001c73       0x32 ./Middlewares/USBX/USB/USBX/UX Device CoreStack/ux_device_stack_transfer_all_request_abort.o
 .ARM.attributes
                0x0000000000001ca5       0x32 ./Middlewares/USBX/USB/USBX/UX Device CoreStack/ux_device_stack_transfer_request.o
 .ARM.attributes
                0x0000000000001cd7       0x32 ./USBX/App/app_usbx_device.o
 .ARM.attributes
                0x0000000000001d09       0x32 ./USBX/App/ux_device_cdc_acm.o
 .ARM.attributes
                0x0000000000001d3b       0x32 ./USBX/App/ux_device_descriptors.o
 .ARM.attributes
                0x0000000000001d6d       0x32 c:/st/stm32cubeide_1.9.0/stm32cubeide/plugins/com.st.stm32cube.ide.mcu.externaltools.gnu-tools-for-stm32.10.3-2021.10.win32_1.0.0.202111181127/tools/bin/../lib/gcc/arm-none-eabi/10.3.1/../../../../arm-none-eabi/lib/thumb/v7e-m+dp/hard\libc_nano.a(lib_a-init.o)
 .ARM.attributes
                0x0000000000001d9f       0x32 c:/st/stm32cubeide_1.9.0/stm32cubeide/plugins/com.st.stm32cube.ide.mcu.externaltools.gnu-tools-for-stm32.10.3-2021.10.win32_1.0.0.202111181127/tools/bin/../lib/gcc/arm-none-eabi/10.3.1/../../../../arm-none-eabi/lib/thumb/v7e-m+dp/hard\libc_nano.a(lib_a-memset.o)
 .ARM.attributes
                0x0000000000001dd1       0x17 c:/st/stm32cubeide_1.9.0/stm32cubeide/plugins/com.st.stm32cube.ide.mcu.externaltools.gnu-tools-for-stm32.10.3-2021.10.win32_1.0.0.202111181127/tools/bin/../lib/gcc/arm-none-eabi/10.3.1/../../../../arm-none-eabi/lib/thumb/v7e-m+dp/hard\libc_nano.a(lib_a-strlen.o)
 .ARM.attributes
                0x0000000000001de8       0x1e c:/st/stm32cubeide_1.9.0/stm32cubeide/plugins/com.st.stm32cube.ide.mcu.externaltools.gnu-tools-for-stm32.10.3-2021.10.win32_1.0.0.202111181127/tools/bin/../lib/gcc/arm-none-eabi/10.3.1/thumb/v7e-m+dp/hard\libgcc.a(_aeabi_uldivmod.o)
 .ARM.attributes
                0x0000000000001e06       0x32 c:/st/stm32cubeide_1.9.0/stm32cubeide/plugins/com.st.stm32cube.ide.mcu.externaltools.gnu-tools-for-stm32.10.3-2021.10.win32_1.0.0.202111181127/tools/bin/../lib/gcc/arm-none-eabi/10.3.1/thumb/v7e-m+dp/hard\libgcc.a(_udivmoddi4.o)
 .ARM.attributes
                0x0000000000001e38       0x1e c:/st/stm32cubeide_1.9.0/stm32cubeide/plugins/com.st.stm32cube.ide.mcu.externaltools.gnu-tools-for-stm32.10.3-2021.10.win32_1.0.0.202111181127/tools/bin/../lib/gcc/arm-none-eabi/10.3.1/thumb/v7e-m+dp/hard\libgcc.a(_dvmd_tls.o)
 .ARM.attributes
                0x0000000000001e56       0x1e c:/st/stm32cubeide_1.9.0/stm32cubeide/plugins/com.st.stm32cube.ide.mcu.externaltools.gnu-tools-for-stm32.10.3-2021.10.win32_1.0.0.202111181127/tools/bin/../lib/gcc/arm-none-eabi/10.3.1/thumb/v7e-m+dp/hard/crtn.o
OUTPUT(CDC_AZURE_2_CM7.elf elf32-littlearm)
LOAD linker stubs
LOAD c:/st/stm32cubeide_1.9.0/stm32cubeide/plugins/com.st.stm32cube.ide.mcu.externaltools.gnu-tools-for-stm32.10.3-2021.10.win32_1.0.0.202111181127/tools/bin/../lib/gcc/arm-none-eabi/10.3.1/../../../../arm-none-eabi/lib/thumb/v7e-m+dp/hard\libc.a
LOAD c:/st/stm32cubeide_1.9.0/stm32cubeide/plugins/com.st.stm32cube.ide.mcu.externaltools.gnu-tools-for-stm32.10.3-2021.10.win32_1.0.0.202111181127/tools/bin/../lib/gcc/arm-none-eabi/10.3.1/../../../../arm-none-eabi/lib/thumb/v7e-m+dp/hard\libm.a
LOAD c:/st/stm32cubeide_1.9.0/stm32cubeide/plugins/com.st.stm32cube.ide.mcu.externaltools.gnu-tools-for-stm32.10.3-2021.10.win32_1.0.0.202111181127/tools/bin/../lib/gcc/arm-none-eabi/10.3.1/thumb/v7e-m+dp/hard\libgcc.a

.debug_info     0x0000000000000000    0x68513
 .debug_info    0x0000000000000000      0x663 ./AZURE_RTOS/App/app_azure_rtos.o
 .debug_info    0x0000000000000663      0xdca ./Common/Src/system_stm32h7xx_dualcore_boot_cm4_cm7.o
 .debug_info    0x000000000000142d      0x5b5 ./Core/Src/app_threadx.o
 .debug_info    0x00000000000019e2      0x885 ./Core/Src/dma.o
 .debug_info    0x0000000000002267      0x4de ./Core/Src/gpio.o
 .debug_info    0x0000000000002745     0x1868 ./Core/Src/main.o
 .debug_info    0x0000000000003fad      0x4a4 ./Core/Src/stm32h7xx_hal_msp.o
 .debug_info    0x0000000000004451     0x1117 ./Core/Src/stm32h7xx_hal_timebase_tim.o
 .debug_info    0x0000000000005568     0x1162 ./Core/Src/stm32h7xx_it.o
 .debug_info    0x00000000000066ca       0x26 ./Core/Src/tx_initialize_low_level.o
 .debug_info    0x00000000000066f0     0x156f ./Core/Src/usart.o
 .debug_info    0x0000000000007c5f     0x135d ./Core/Src/usb_otg.o
 .debug_info    0x0000000000008fbc       0x22 ./Core/Startup/startup_stm32h745zitx.o
 .debug_info    0x0000000000008fde     0x1826 ./Drivers/STM32H7xx_HAL_Driver/stm32h7xx_hal.o
 .debug_info    0x000000000000a804     0x118b ./Drivers/STM32H7xx_HAL_Driver/stm32h7xx_hal_cortex.o
 .debug_info    0x000000000000b98f      0xce8 ./Drivers/STM32H7xx_HAL_Driver/stm32h7xx_hal_dma.o
 .debug_info    0x000000000000c677      0xde0 ./Drivers/STM32H7xx_HAL_Driver/stm32h7xx_hal_gpio.o
 .debug_info    0x000000000000d457      0x3fd ./Drivers/STM32H7xx_HAL_Driver/stm32h7xx_hal_hsem.o
 .debug_info    0x000000000000d854     0x169b ./Drivers/STM32H7xx_HAL_Driver/stm32h7xx_hal_pcd.o
 .debug_info    0x000000000000eeef      0x8fb ./Drivers/STM32H7xx_HAL_Driver/stm32h7xx_hal_pcd_ex.o
 .debug_info    0x000000000000f7ea     0x12c2 ./Drivers/STM32H7xx_HAL_Driver/stm32h7xx_hal_pwr_ex.o
 .debug_info    0x0000000000010aac      0xf48 ./Drivers/STM32H7xx_HAL_Driver/stm32h7xx_hal_rcc.o
 .debug_info    0x00000000000119f4     0x1394 ./Drivers/STM32H7xx_HAL_Driver/stm32h7xx_hal_rcc_ex.o
 .debug_info    0x0000000000012d88     0x2dd1 ./Drivers/STM32H7xx_HAL_Driver/stm32h7xx_hal_tim.o
 .debug_info    0x0000000000015b59     0x18f4 ./Drivers/STM32H7xx_HAL_Driver/stm32h7xx_hal_tim_ex.o
 .debug_info    0x000000000001744d     0x4c42 ./Drivers/STM32H7xx_HAL_Driver/stm32h7xx_hal_uart.o
 .debug_info    0x000000000001c08f     0x100b ./Drivers/STM32H7xx_HAL_Driver/stm32h7xx_hal_uart_ex.o
 .debug_info    0x000000000001d09a     0x1b2b ./Drivers/STM32H7xx_HAL_Driver/stm32h7xx_ll_usb.o
 .debug_info    0x000000000001ebc5      0x7e8 ./Middlewares/ThreadX/RTOS/ThreadX/Core/tx_byte_allocate.o
 .debug_info    0x000000000001f3ad      0x6f3 ./Middlewares/ThreadX/RTOS/ThreadX/Core/tx_byte_pool_cleanup.o
 .debug_info    0x000000000001faa0      0x70a ./Middlewares/ThreadX/RTOS/ThreadX/Core/tx_byte_pool_create.o
 .debug_info    0x00000000000201aa      0x79a ./Middlewares/ThreadX/RTOS/ThreadX/Core/tx_byte_pool_search.o
 .debug_info    0x0000000000020944      0x6b8 ./Middlewares/ThreadX/RTOS/ThreadX/Core/tx_event_flags_cleanup.o
 .debug_info    0x0000000000020ffc      0x65a ./Middlewares/ThreadX/RTOS/ThreadX/Core/tx_event_flags_create.o
 .debug_info    0x0000000000021656      0x778 ./Middlewares/ThreadX/RTOS/ThreadX/Core/tx_event_flags_get.o
 .debug_info    0x0000000000021dce      0x8c7 ./Middlewares/ThreadX/RTOS/ThreadX/Core/tx_event_flags_set.o
 .debug_info    0x0000000000022695      0x96c ./Middlewares/ThreadX/RTOS/ThreadX/Core/tx_initialize_high_level.o
 .debug_info    0x0000000000023001      0x106 ./Middlewares/ThreadX/RTOS/ThreadX/Core/tx_initialize_kernel_enter.o
 .debug_info    0x0000000000023107      0x71d ./Middlewares/ThreadX/RTOS/ThreadX/Core/tx_mutex_cleanup.o
 .debug_info    0x0000000000023824      0x606 ./Middlewares/ThreadX/RTOS/ThreadX/Core/tx_mutex_create.o
 .debug_info    0x0000000000023e2a      0x70f ./Middlewares/ThreadX/RTOS/ThreadX/Core/tx_mutex_delete.o
 .debug_info    0x0000000000024539      0x6a7 ./Middlewares/ThreadX/RTOS/ThreadX/Core/tx_mutex_get.o
 .debug_info    0x0000000000024be0      0x66b ./Middlewares/ThreadX/RTOS/ThreadX/Core/tx_mutex_prioritize.o
 .debug_info    0x000000000002524b      0x6a5 ./Middlewares/ThreadX/RTOS/ThreadX/Core/tx_mutex_priority_change.o
 .debug_info    0x00000000000258f0      0x8a0 ./Middlewares/ThreadX/RTOS/ThreadX/Core/tx_mutex_put.o
 .debug_info    0x0000000000026190      0x68d ./Middlewares/ThreadX/RTOS/ThreadX/Core/tx_semaphore_cleanup.o
 .debug_info    0x000000000002681d      0x64d ./Middlewares/ThreadX/RTOS/ThreadX/Core/tx_semaphore_create.o
 .debug_info    0x0000000000026e6a      0x708 ./Middlewares/ThreadX/RTOS/ThreadX/Core/tx_semaphore_delete.o
 .debug_info    0x0000000000027572      0x6b8 ./Middlewares/ThreadX/RTOS/ThreadX/Core/tx_semaphore_get.o
 .debug_info    0x0000000000027c2a      0x64b ./Middlewares/ThreadX/RTOS/ThreadX/Core/tx_semaphore_put.o
 .debug_info    0x0000000000028275      0x7ac ./Middlewares/ThreadX/RTOS/ThreadX/Core/tx_thread_create.o
 .debug_info    0x0000000000028a21      0x550 ./Middlewares/ThreadX/RTOS/ThreadX/Core/tx_thread_identify.o
 .debug_info    0x0000000000028f71      0x5d3 ./Middlewares/ThreadX/RTOS/ThreadX/Core/tx_thread_info_get.o
 .debug_info    0x0000000000029544      0x670 ./Middlewares/ThreadX/RTOS/ThreadX/Core/tx_thread_initialize.o
 .debug_info    0x0000000000029bb4       0x26 ./Middlewares/ThreadX/RTOS/ThreadX/Core/tx_thread_schedule.o
 .debug_info    0x0000000000029bda      0x61e ./Middlewares/ThreadX/RTOS/ThreadX/Core/tx_thread_shell_entry.o
 .debug_info    0x000000000002a1f8      0x67f ./Middlewares/ThreadX/RTOS/ThreadX/Core/tx_thread_sleep.o
 .debug_info    0x000000000002a877       0x26 ./Middlewares/ThreadX/RTOS/ThreadX/Core/tx_thread_stack_build.o
 .debug_info    0x000000000002a89d      0x5d0 ./Middlewares/ThreadX/RTOS/ThreadX/Core/tx_thread_system_preempt_check.o
 .debug_info    0x000000000002ae6d      0x7af ./Middlewares/ThreadX/RTOS/ThreadX/Core/tx_thread_system_resume.o
 .debug_info    0x000000000002b61c      0x87d ./Middlewares/ThreadX/RTOS/ThreadX/Core/tx_thread_system_suspend.o
 .debug_info    0x000000000002be99      0x59b ./Middlewares/ThreadX/RTOS/ThreadX/Core/tx_thread_time_slice.o
 .debug_info    0x000000000002c434      0x5ae ./Middlewares/ThreadX/RTOS/ThreadX/Core/tx_thread_timeout.o
 .debug_info    0x000000000002c9e2      0x561 ./Middlewares/ThreadX/RTOS/ThreadX/Core/tx_timer_expiration_process.o
 .debug_info    0x000000000002cf43      0x745 ./Middlewares/ThreadX/RTOS/ThreadX/Core/tx_timer_initialize.o
 .debug_info    0x000000000002d688       0x26 ./Middlewares/ThreadX/RTOS/ThreadX/Core/tx_timer_interrupt.o
 .debug_info    0x000000000002d6ae      0x1d1 ./Middlewares/ThreadX/RTOS/ThreadX/Core/tx_timer_system_activate.o
 .debug_info    0x000000000002d87f      0x180 ./Middlewares/ThreadX/RTOS/ThreadX/Core/tx_timer_system_deactivate.o
 .debug_info    0x000000000002d9ff      0x76a ./Middlewares/ThreadX/RTOS/ThreadX/Core/tx_timer_thread_entry.o
 .debug_info    0x000000000002e169      0x68d ./Middlewares/ThreadX/RTOS/ThreadX/Core/txe_byte_allocate.o
 .debug_info    0x000000000002e7f6      0x7df ./Middlewares/ThreadX/RTOS/ThreadX/Core/txe_byte_pool_create.o
 .debug_info    0x000000000002efd5      0x76c ./Middlewares/ThreadX/RTOS/ThreadX/Core/txe_event_flags_create.o
 .debug_info    0x000000000002f741      0x61d ./Middlewares/ThreadX/RTOS/ThreadX/Core/txe_event_flags_get.o
 .debug_info    0x000000000002fd5e      0x57c ./Middlewares/ThreadX/RTOS/ThreadX/Core/txe_event_flags_set.o
 .debug_info    0x00000000000302da      0x6ee ./Middlewares/ThreadX/RTOS/ThreadX/Core/txe_mutex_create.o
 .debug_info    0x00000000000309c8      0x534 ./Middlewares/ThreadX/RTOS/ThreadX/Core/txe_mutex_delete.o
 .debug_info    0x0000000000030efc      0x582 ./Middlewares/ThreadX/RTOS/ThreadX/Core/txe_mutex_get.o
 .debug_info    0x000000000003147e      0x529 ./Middlewares/ThreadX/RTOS/ThreadX/Core/txe_mutex_put.o
 .debug_info    0x00000000000319a7      0x765 ./Middlewares/ThreadX/RTOS/ThreadX/Core/txe_semaphore_create.o
 .debug_info    0x000000000003210c      0x5ab ./Middlewares/ThreadX/RTOS/ThreadX/Core/txe_semaphore_delete.o
 .debug_info    0x00000000000326b7      0x5bf ./Middlewares/ThreadX/RTOS/ThreadX/Core/txe_semaphore_get.o
 .debug_info    0x0000000000032c76      0x538 ./Middlewares/ThreadX/RTOS/ThreadX/Core/txe_semaphore_put.o
 .debug_info    0x00000000000331ae      0x7ac ./Middlewares/ThreadX/RTOS/ThreadX/Core/txe_thread_create.o
 .debug_info    0x000000000003395a      0x566 ./Middlewares/ThreadX/RTOS/ThreadX/Core/txe_thread_info_get.o
 .debug_info    0x0000000000033ec0      0x5f2 ./Middlewares/USBX/USB/USBX/CoreSystem/ux_system_error_handler.o
 .debug_info    0x00000000000344b2     0x14de ./Middlewares/USBX/USB/USBX/CoreSystem/ux_system_initialize.o
 .debug_info    0x0000000000035990       0xde ./Middlewares/USBX/USB/USBX/CoreSystem/ux_utility_delay_ms.o
 .debug_info    0x0000000000035a6e      0x123 ./Middlewares/USBX/USB/USBX/CoreSystem/ux_utility_descriptor_parse.o
 .debug_info    0x0000000000035b91       0xd1 ./Middlewares/USBX/USB/USBX/CoreSystem/ux_utility_long_get.o
 .debug_info    0x0000000000035c62       0xcd ./Middlewares/USBX/USB/USBX/CoreSystem/ux_utility_long_put.o
 .debug_info    0x0000000000035d2f      0x6fe ./Middlewares/USBX/USB/USBX/CoreSystem/ux_utility_memory_allocate.o
 .debug_info    0x000000000003642d       0xff ./Middlewares/USBX/USB/USBX/CoreSystem/ux_utility_memory_allocate_mulc_safe.o
 .debug_info    0x000000000003652c      0x10c ./Middlewares/USBX/USB/USBX/CoreSystem/ux_utility_memory_compare.o
 .debug_info    0x0000000000036638       0xfc ./Middlewares/USBX/USB/USBX/CoreSystem/ux_utility_memory_copy.o
 .debug_info    0x0000000000036734      0x669 ./Middlewares/USBX/USB/USBX/CoreSystem/ux_utility_memory_free.o
 .debug_info    0x0000000000036d9d      0x605 ./Middlewares/USBX/USB/USBX/CoreSystem/ux_utility_memory_free_block_best_get.o
 .debug_info    0x00000000000373a2       0xed ./Middlewares/USBX/USB/USBX/CoreSystem/ux_utility_memory_set.o
 .debug_info    0x000000000003748f      0x4fc ./Middlewares/USBX/USB/USBX/CoreSystem/ux_utility_mutex_create.o
 .debug_info    0x000000000003798b      0x4c1 ./Middlewares/USBX/USB/USBX/CoreSystem/ux_utility_mutex_delete.o
 .debug_info    0x0000000000037e4c      0x4ae ./Middlewares/USBX/USB/USBX/CoreSystem/ux_utility_mutex_off.o
 .debug_info    0x00000000000382fa      0x4df ./Middlewares/USBX/USB/USBX/CoreSystem/ux_utility_mutex_on.o
 .debug_info    0x00000000000387d9      0x582 ./Middlewares/USBX/USB/USBX/CoreSystem/ux_utility_semaphore_create.o
 .debug_info    0x0000000000038d5b      0x538 ./Middlewares/USBX/USB/USBX/CoreSystem/ux_utility_semaphore_delete.o
 .debug_info    0x0000000000039293      0x787 ./Middlewares/USBX/USB/USBX/CoreSystem/ux_utility_semaphore_get.o
 .debug_info    0x0000000000039a1a      0x538 ./Middlewares/USBX/USB/USBX/CoreSystem/ux_utility_semaphore_put.o
 .debug_info    0x0000000000039f52       0xdd ./Middlewares/USBX/USB/USBX/CoreSystem/ux_utility_short_get.o
 .debug_info    0x000000000003a02f      0x116 ./Middlewares/USBX/USB/USBX/CoreSystem/ux_utility_string_length_check.o
 .debug_info    0x000000000003a145       0xd1 ./Middlewares/USBX/USB/USBX/CoreSystem/ux_utility_string_length_get.o
 .debug_info    0x000000000003a216      0xd35 ./Middlewares/USBX/USB/USBX/UX Device Class CDC ACM/ux_device_class_cdc_acm_activate.o
 .debug_info    0x000000000003af4b     0x10e4 ./Middlewares/USBX/USB/USBX/UX Device Class CDC ACM/ux_device_class_cdc_acm_control_request.o
 .debug_info    0x000000000003c02f      0xda2 ./Middlewares/USBX/USB/USBX/UX Device Class CDC ACM/ux_device_class_cdc_acm_deactivate.o
 .debug_info    0x000000000003cdd1      0xc42 ./Middlewares/USBX/USB/USBX/UX Device Class CDC ACM/ux_device_class_cdc_acm_entry.o
 .debug_info    0x000000000003da13      0xdb3 ./Middlewares/USBX/USB/USBX/UX Device Class CDC ACM/ux_device_class_cdc_acm_initialize.o
 .debug_info    0x000000000003e7c6      0xe46 ./Middlewares/USBX/USB/USBX/UX Device Class CDC ACM/ux_device_class_cdc_acm_ioctl.o
 .debug_info    0x000000000003f60c     0x1113 ./Middlewares/USBX/USB/USBX/UX Device Class CDC ACM/ux_device_class_cdc_acm_read.o
 .debug_info    0x000000000004071f      0xd54 ./Middlewares/USBX/USB/USBX/UX Device Class CDC ACM/ux_device_class_cdc_acm_unitialize.o
 .debug_info    0x0000000000041473     0x1113 ./Middlewares/USBX/USB/USBX/UX Device Class CDC ACM/ux_device_class_cdc_acm_write.o
 .debug_info    0x0000000000042586     0x18de ./Middlewares/USBX/USB/USBX/UX Device Controllers/ux_dcd_stm32_callback.o
 .debug_info    0x0000000000043e64     0x13a4 ./Middlewares/USBX/USB/USBX/UX Device Controllers/ux_dcd_stm32_endpoint_create.o
 .debug_info    0x0000000000045208     0x132e ./Middlewares/USBX/USB/USBX/UX Device Controllers/ux_dcd_stm32_endpoint_destroy.o
 .debug_info    0x0000000000046536     0x141d ./Middlewares/USBX/USB/USBX/UX Device Controllers/ux_dcd_stm32_endpoint_reset.o
 .debug_info    0x0000000000047953     0x132e ./Middlewares/USBX/USB/USBX/UX Device Controllers/ux_dcd_stm32_endpoint_stall.o
 .debug_info    0x0000000000048c81     0x1329 ./Middlewares/USBX/USB/USBX/UX Device Controllers/ux_dcd_stm32_endpoint_status.o
 .debug_info    0x0000000000049faa     0x12b2 ./Middlewares/USBX/USB/USBX/UX Device Controllers/ux_dcd_stm32_frame_number_get.o
 .debug_info    0x000000000004b25c     0x1473 ./Middlewares/USBX/USB/USBX/UX Device Controllers/ux_dcd_stm32_function.o
 .debug_info    0x000000000004c6cf     0x1567 ./Middlewares/USBX/USB/USBX/UX Device Controllers/ux_dcd_stm32_initialize.o
 .debug_info    0x000000000004dc36     0x15fc ./Middlewares/USBX/USB/USBX/UX Device Controllers/ux_dcd_stm32_initialize_complete.o
 .debug_info    0x000000000004f232     0x134c ./Middlewares/USBX/USB/USBX/UX Device Controllers/ux_dcd_stm32_transfer_abort.o
 .debug_info    0x000000000005057e     0x1390 ./Middlewares/USBX/USB/USBX/UX Device Controllers/ux_dcd_stm32_transfer_request.o
 .debug_info    0x000000000005190e      0xf56 ./Middlewares/USBX/USB/USBX/UX Device CoreStack/ux_device_stack_alternate_setting_get.o
 .debug_info    0x0000000000052864     0x10ef ./Middlewares/USBX/USB/USBX/UX Device CoreStack/ux_device_stack_alternate_setting_set.o
 .debug_info    0x0000000000053953      0xf73 ./Middlewares/USBX/USB/USBX/UX Device CoreStack/ux_device_stack_class_register.o
 .debug_info    0x00000000000548c6      0xf47 ./Middlewares/USBX/USB/USBX/UX Device CoreStack/ux_device_stack_clear_feature.o
 .debug_info    0x000000000005580d      0xf25 ./Middlewares/USBX/USB/USBX/UX Device CoreStack/ux_device_stack_configuration_get.o
 .debug_info    0x0000000000056732     0x1060 ./Middlewares/USBX/USB/USBX/UX Device CoreStack/ux_device_stack_configuration_set.o
 .debug_info    0x0000000000057792     0x10d0 ./Middlewares/USBX/USB/USBX/UX Device CoreStack/ux_device_stack_control_request_process.o
 .debug_info    0x0000000000058862     0x1135 ./Middlewares/USBX/USB/USBX/UX Device CoreStack/ux_device_stack_descriptor_send.o
 .debug_info    0x0000000000059997      0xf49 ./Middlewares/USBX/USB/USBX/UX Device CoreStack/ux_device_stack_disconnect.o
 .debug_info    0x000000000005a8e0      0xf9a ./Middlewares/USBX/USB/USBX/UX Device CoreStack/ux_device_stack_endpoint_stall.o
 .debug_info    0x000000000005b87a      0xf76 ./Middlewares/USBX/USB/USBX/UX Device CoreStack/ux_device_stack_get_status.o
 .debug_info    0x000000000005c7f0     0x129f ./Middlewares/USBX/USB/USBX/UX Device CoreStack/ux_device_stack_initialize.o
 .debug_info    0x000000000005da8f      0xf1a ./Middlewares/USBX/USB/USBX/UX Device CoreStack/ux_device_stack_interface_delete.o
 .debug_info    0x000000000005e9a9     0x103e ./Middlewares/USBX/USB/USBX/UX Device CoreStack/ux_device_stack_interface_set.o
 .debug_info    0x000000000005f9e7      0xf0f ./Middlewares/USBX/USB/USBX/UX Device CoreStack/ux_device_stack_interface_start.o
 .debug_info    0x00000000000608f6      0xf47 ./Middlewares/USBX/USB/USBX/UX Device CoreStack/ux_device_stack_set_feature.o
 .debug_info    0x000000000006183d      0xfd3 ./Middlewares/USBX/USB/USBX/UX Device CoreStack/ux_device_stack_transfer_abort.o
 .debug_info    0x0000000000062810      0xc10 ./Middlewares/USBX/USB/USBX/UX Device CoreStack/ux_device_stack_transfer_all_request_abort.o
 .debug_info    0x0000000000063420     0x1018 ./Middlewares/USBX/USB/USBX/UX Device CoreStack/ux_device_stack_transfer_request.o
 .debug_info    0x0000000000064438     0x170a ./USBX/App/app_usbx_device.o
 .debug_info    0x0000000000065b42     0x1c94 ./USBX/App/ux_device_cdc_acm.o
 .debug_info    0x00000000000677d6      0xd3d ./USBX/App/ux_device_descriptors.o

.debug_abbrev   0x0000000000000000     0xe0eb
 .debug_abbrev  0x0000000000000000      0x11d ./AZURE_RTOS/App/app_azure_rtos.o
 .debug_abbrev  0x000000000000011d      0x147 ./Common/Src/system_stm32h7xx_dualcore_boot_cm4_cm7.o
 .debug_abbrev  0x0000000000000264      0x10b ./Core/Src/app_threadx.o
 .debug_abbrev  0x000000000000036f      0x11b ./Core/Src/dma.o
 .debug_abbrev  0x000000000000048a       0xe5 ./Core/Src/gpio.o
 .debug_abbrev  0x000000000000056f      0x33e ./Core/Src/main.o
 .debug_abbrev  0x00000000000008ad       0xda ./Core/Src/stm32h7xx_hal_msp.o
 .debug_abbrev  0x0000000000000987      0x206 ./Core/Src/stm32h7xx_hal_timebase_tim.o
 .debug_abbrev  0x0000000000000b8d      0x1c9 ./Core/Src/stm32h7xx_it.o
 .debug_abbrev  0x0000000000000d56       0x14 ./Core/Src/tx_initialize_low_level.o
 .debug_abbrev  0x0000000000000d6a      0x24f ./Core/Src/usart.o
 .debug_abbrev  0x0000000000000fb9      0x24e ./Core/Src/usb_otg.o
 .debug_abbrev  0x0000000000001207       0x12 ./Core/Startup/startup_stm32h745zitx.o
 .debug_abbrev  0x0000000000001219      0x289 ./Drivers/STM32H7xx_HAL_Driver/stm32h7xx_hal.o
 .debug_abbrev  0x00000000000014a2      0x329 ./Drivers/STM32H7xx_HAL_Driver/stm32h7xx_hal_cortex.o
 .debug_abbrev  0x00000000000017cb      0x239 ./Drivers/STM32H7xx_HAL_Driver/stm32h7xx_hal_dma.o
 .debug_abbrev  0x0000000000001a04      0x1ec ./Drivers/STM32H7xx_HAL_Driver/stm32h7xx_hal_gpio.o
 .debug_abbrev  0x0000000000001bf0      0x1d0 ./Drivers/STM32H7xx_HAL_Driver/stm32h7xx_hal_hsem.o
 .debug_abbrev  0x0000000000001dc0      0x2d2 ./Drivers/STM32H7xx_HAL_Driver/stm32h7xx_hal_pcd.o
 .debug_abbrev  0x0000000000002092      0x24a ./Drivers/STM32H7xx_HAL_Driver/stm32h7xx_hal_pcd_ex.o
 .debug_abbrev  0x00000000000022dc      0x2bc ./Drivers/STM32H7xx_HAL_Driver/stm32h7xx_hal_pwr_ex.o
 .debug_abbrev  0x0000000000002598      0x2b8 ./Drivers/STM32H7xx_HAL_Driver/stm32h7xx_hal_rcc.o
 .debug_abbrev  0x0000000000002850      0x25c ./Drivers/STM32H7xx_HAL_Driver/stm32h7xx_hal_rcc_ex.o
 .debug_abbrev  0x0000000000002aac      0x25d ./Drivers/STM32H7xx_HAL_Driver/stm32h7xx_hal_tim.o
 .debug_abbrev  0x0000000000002d09      0x265 ./Drivers/STM32H7xx_HAL_Driver/stm32h7xx_hal_tim_ex.o
 .debug_abbrev  0x0000000000002f6e      0x325 ./Drivers/STM32H7xx_HAL_Driver/stm32h7xx_hal_uart.o
 .debug_abbrev  0x0000000000003293      0x2bd ./Drivers/STM32H7xx_HAL_Driver/stm32h7xx_hal_uart_ex.o
 .debug_abbrev  0x0000000000003550      0x296 ./Drivers/STM32H7xx_HAL_Driver/stm32h7xx_ll_usb.o
 .debug_abbrev  0x00000000000037e6      0x1ca ./Middlewares/ThreadX/RTOS/ThreadX/Core/tx_byte_allocate.o
 .debug_abbrev  0x00000000000039b0      0x19a ./Middlewares/ThreadX/RTOS/ThreadX/Core/tx_byte_pool_cleanup.o
 .debug_abbrev  0x0000000000003b4a      0x197 ./Middlewares/ThreadX/RTOS/ThreadX/Core/tx_byte_pool_create.o
 .debug_abbrev  0x0000000000003ce1      0x182 ./Middlewares/ThreadX/RTOS/ThreadX/Core/tx_byte_pool_search.o
 .debug_abbrev  0x0000000000003e63      0x19a ./Middlewares/ThreadX/RTOS/ThreadX/Core/tx_event_flags_cleanup.o
 .debug_abbrev  0x0000000000003ffd      0x197 ./Middlewares/ThreadX/RTOS/ThreadX/Core/tx_event_flags_create.o
 .debug_abbrev  0x0000000000004194      0x1b3 ./Middlewares/ThreadX/RTOS/ThreadX/Core/tx_event_flags_get.o
 .debug_abbrev  0x0000000000004347      0x1b1 ./Middlewares/ThreadX/RTOS/ThreadX/Core/tx_event_flags_set.o
 .debug_abbrev  0x00000000000044f8      0x102 ./Middlewares/ThreadX/RTOS/ThreadX/Core/tx_initialize_high_level.o
 .debug_abbrev  0x00000000000045fa       0xcc ./Middlewares/ThreadX/RTOS/ThreadX/Core/tx_initialize_kernel_enter.o
 .debug_abbrev  0x00000000000046c6      0x202 ./Middlewares/ThreadX/RTOS/ThreadX/Core/tx_mutex_cleanup.o
 .debug_abbrev  0x00000000000048c8      0x1bf ./Middlewares/ThreadX/RTOS/ThreadX/Core/tx_mutex_create.o
 .debug_abbrev  0x0000000000004a87      0x1d9 ./Middlewares/ThreadX/RTOS/ThreadX/Core/tx_mutex_delete.o
 .debug_abbrev  0x0000000000004c60      0x1b3 ./Middlewares/ThreadX/RTOS/ThreadX/Core/tx_mutex_get.o
 .debug_abbrev  0x0000000000004e13      0x19a ./Middlewares/ThreadX/RTOS/ThreadX/Core/tx_mutex_prioritize.o
 .debug_abbrev  0x0000000000004fad      0x19b ./Middlewares/ThreadX/RTOS/ThreadX/Core/tx_mutex_priority_change.o
 .debug_abbrev  0x0000000000005148      0x1dd ./Middlewares/ThreadX/RTOS/ThreadX/Core/tx_mutex_put.o
 .debug_abbrev  0x0000000000005325      0x19a ./Middlewares/ThreadX/RTOS/ThreadX/Core/tx_semaphore_cleanup.o
 .debug_abbrev  0x00000000000054bf      0x197 ./Middlewares/ThreadX/RTOS/ThreadX/Core/tx_semaphore_create.o
 .debug_abbrev  0x0000000000005656      0x1c2 ./Middlewares/ThreadX/RTOS/ThreadX/Core/tx_semaphore_delete.o
 .debug_abbrev  0x0000000000005818      0x1b1 ./Middlewares/ThreadX/RTOS/ThreadX/Core/tx_semaphore_get.o
 .debug_abbrev  0x00000000000059c9      0x19c ./Middlewares/ThreadX/RTOS/ThreadX/Core/tx_semaphore_put.o
 .debug_abbrev  0x0000000000005b65      0x1cf ./Middlewares/ThreadX/RTOS/ThreadX/Core/tx_thread_create.o
 .debug_abbrev  0x0000000000005d34      0x16f ./Middlewares/ThreadX/RTOS/ThreadX/Core/tx_thread_identify.o
 .debug_abbrev  0x0000000000005ea3      0x16d ./Middlewares/ThreadX/RTOS/ThreadX/Core/tx_thread_info_get.o
 .debug_abbrev  0x0000000000006010      0x113 ./Middlewares/ThreadX/RTOS/ThreadX/Core/tx_thread_initialize.o
 .debug_abbrev  0x0000000000006123       0x14 ./Middlewares/ThreadX/RTOS/ThreadX/Core/tx_thread_schedule.o
 .debug_abbrev  0x0000000000006137      0x194 ./Middlewares/ThreadX/RTOS/ThreadX/Core/tx_thread_shell_entry.o
 .debug_abbrev  0x00000000000062cb      0x1af ./Middlewares/ThreadX/RTOS/ThreadX/Core/tx_thread_sleep.o
 .debug_abbrev  0x000000000000647a       0x14 ./Middlewares/ThreadX/RTOS/ThreadX/Core/tx_thread_stack_build.o
 .debug_abbrev  0x000000000000648e      0x196 ./Middlewares/ThreadX/RTOS/ThreadX/Core/tx_thread_system_preempt_check.o
 .debug_abbrev  0x0000000000006624      0x1e8 ./Middlewares/ThreadX/RTOS/ThreadX/Core/tx_thread_system_resume.o
 .debug_abbrev  0x000000000000680c      0x1e3 ./Middlewares/ThreadX/RTOS/ThreadX/Core/tx_thread_system_suspend.o
 .debug_abbrev  0x00000000000069ef      0x192 ./Middlewares/ThreadX/RTOS/ThreadX/Core/tx_thread_time_slice.o
 .debug_abbrev  0x0000000000006b81      0x19a ./Middlewares/ThreadX/RTOS/ThreadX/Core/tx_thread_timeout.o
 .debug_abbrev  0x0000000000006d1b      0x19c ./Middlewares/ThreadX/RTOS/ThreadX/Core/tx_timer_expiration_process.o
 .debug_abbrev  0x0000000000006eb7      0x136 ./Middlewares/ThreadX/RTOS/ThreadX/Core/tx_timer_initialize.o
 .debug_abbrev  0x0000000000006fed       0x14 ./Middlewares/ThreadX/RTOS/ThreadX/Core/tx_timer_interrupt.o
 .debug_abbrev  0x0000000000007001       0xd5 ./Middlewares/ThreadX/RTOS/ThreadX/Core/tx_timer_system_activate.o
 .debug_abbrev  0x00000000000070d6       0xc2 ./Middlewares/ThreadX/RTOS/ThreadX/Core/tx_timer_system_deactivate.o
 .debug_abbrev  0x0000000000007198      0x1c4 ./Middlewares/ThreadX/RTOS/ThreadX/Core/tx_timer_thread_entry.o
 .debug_abbrev  0x000000000000735c      0x160 ./Middlewares/ThreadX/RTOS/ThreadX/Core/txe_byte_allocate.o
 .debug_abbrev  0x00000000000074bc      0x1d5 ./Middlewares/ThreadX/RTOS/ThreadX/Core/txe_byte_pool_create.o
 .debug_abbrev  0x0000000000007691      0x1d5 ./Middlewares/ThreadX/RTOS/ThreadX/Core/txe_event_flags_create.o
 .debug_abbrev  0x0000000000007866      0x14d ./Middlewares/ThreadX/RTOS/ThreadX/Core/txe_event_flags_get.o
 .debug_abbrev  0x00000000000079b3       0xe2 ./Middlewares/ThreadX/RTOS/ThreadX/Core/txe_event_flags_set.o
 .debug_abbrev  0x0000000000007a95      0x1d5 ./Middlewares/ThreadX/RTOS/ThreadX/Core/txe_mutex_create.o
 .debug_abbrev  0x0000000000007c6a      0x14d ./Middlewares/ThreadX/RTOS/ThreadX/Core/txe_mutex_delete.o
 .debug_abbrev  0x0000000000007db7      0x160 ./Middlewares/ThreadX/RTOS/ThreadX/Core/txe_mutex_get.o
 .debug_abbrev  0x0000000000007f17      0x14d ./Middlewares/ThreadX/RTOS/ThreadX/Core/txe_mutex_put.o
 .debug_abbrev  0x0000000000008064      0x1d5 ./Middlewares/ThreadX/RTOS/ThreadX/Core/txe_semaphore_create.o
 .debug_abbrev  0x0000000000008239      0x14d ./Middlewares/ThreadX/RTOS/ThreadX/Core/txe_semaphore_delete.o
 .debug_abbrev  0x0000000000008386      0x14d ./Middlewares/ThreadX/RTOS/ThreadX/Core/txe_semaphore_get.o
 .debug_abbrev  0x00000000000084d3       0xe2 ./Middlewares/ThreadX/RTOS/ThreadX/Core/txe_semaphore_put.o
 .debug_abbrev  0x00000000000085b5      0x1d7 ./Middlewares/ThreadX/RTOS/ThreadX/Core/txe_thread_create.o
 .debug_abbrev  0x000000000000878c       0xe2 ./Middlewares/ThreadX/RTOS/ThreadX/Core/txe_thread_info_get.o
 .debug_abbrev  0x000000000000886e       0xcb ./Middlewares/USBX/USB/USBX/CoreSystem/ux_system_error_handler.o
 .debug_abbrev  0x0000000000008939      0x181 ./Middlewares/USBX/USB/USBX/CoreSystem/ux_system_initialize.o
 .debug_abbrev  0x0000000000008aba       0x96 ./Middlewares/USBX/USB/USBX/CoreSystem/ux_utility_delay_ms.o
 .debug_abbrev  0x0000000000008b50       0x8e ./Middlewares/USBX/USB/USBX/CoreSystem/ux_utility_descriptor_parse.o
 .debug_abbrev  0x0000000000008bde       0x83 ./Middlewares/USBX/USB/USBX/CoreSystem/ux_utility_long_get.o
 .debug_abbrev  0x0000000000008c61       0x70 ./Middlewares/USBX/USB/USBX/CoreSystem/ux_utility_long_put.o
 .debug_abbrev  0x0000000000008cd1      0x11f ./Middlewares/USBX/USB/USBX/CoreSystem/ux_utility_memory_allocate.o
 .debug_abbrev  0x0000000000008df0       0x8e ./Middlewares/USBX/USB/USBX/CoreSystem/ux_utility_memory_allocate_mulc_safe.o
 .debug_abbrev  0x0000000000008e7e       0x8a ./Middlewares/USBX/USB/USBX/CoreSystem/ux_utility_memory_compare.o
 .debug_abbrev  0x0000000000008f08       0x88 ./Middlewares/USBX/USB/USBX/CoreSystem/ux_utility_memory_copy.o
 .debug_abbrev  0x0000000000008f90      0x106 ./Middlewares/USBX/USB/USBX/CoreSystem/ux_utility_memory_free.o
 .debug_abbrev  0x0000000000009096       0xde ./Middlewares/USBX/USB/USBX/CoreSystem/ux_utility_memory_free_block_best_get.o
 .debug_abbrev  0x0000000000009174       0x88 ./Middlewares/USBX/USB/USBX/CoreSystem/ux_utility_memory_set.o
 .debug_abbrev  0x00000000000091fc       0xf7 ./Middlewares/USBX/USB/USBX/CoreSystem/ux_utility_mutex_create.o
 .debug_abbrev  0x00000000000092f3       0xe2 ./Middlewares/USBX/USB/USBX/CoreSystem/ux_utility_mutex_delete.o
 .debug_abbrev  0x00000000000093d5       0xcf ./Middlewares/USBX/USB/USBX/CoreSystem/ux_utility_mutex_off.o
 .debug_abbrev  0x00000000000094a4       0xf5 ./Middlewares/USBX/USB/USBX/CoreSystem/ux_utility_mutex_on.o
 .debug_abbrev  0x0000000000009599       0xf7 ./Middlewares/USBX/USB/USBX/CoreSystem/ux_utility_semaphore_create.o
 .debug_abbrev  0x0000000000009690       0xe2 ./Middlewares/USBX/USB/USBX/CoreSystem/ux_utility_semaphore_delete.o
 .debug_abbrev  0x0000000000009772      0x10a ./Middlewares/USBX/USB/USBX/CoreSystem/ux_utility_semaphore_get.o
 .debug_abbrev  0x000000000000987c       0xe2 ./Middlewares/USBX/USB/USBX/CoreSystem/ux_utility_semaphore_put.o
 .debug_abbrev  0x000000000000995e       0x83 ./Middlewares/USBX/USB/USBX/CoreSystem/ux_utility_short_get.o
 .debug_abbrev  0x00000000000099e1       0xa1 ./Middlewares/USBX/USB/USBX/CoreSystem/ux_utility_string_length_check.o
 .debug_abbrev  0x0000000000009a82       0x83 ./Middlewares/USBX/USB/USBX/CoreSystem/ux_utility_string_length_get.o
 .debug_abbrev  0x0000000000009b05      0x12e ./Middlewares/USBX/USB/USBX/UX Device Class CDC ACM/ux_device_class_cdc_acm_activate.o
 .debug_abbrev  0x0000000000009c33      0x16d ./Middlewares/USBX/USB/USBX/UX Device Class CDC ACM/ux_device_class_cdc_acm_control_request.o
 .debug_abbrev  0x0000000000009da0      0x15c ./Middlewares/USBX/USB/USBX/UX Device Class CDC ACM/ux_device_class_cdc_acm_deactivate.o
 .debug_abbrev  0x0000000000009efc      0x121 ./Middlewares/USBX/USB/USBX/UX Device Class CDC ACM/ux_device_class_cdc_acm_entry.o
 .debug_abbrev  0x000000000000a01d      0x15a ./Middlewares/USBX/USB/USBX/UX Device Class CDC ACM/ux_device_class_cdc_acm_initialize.o
 .debug_abbrev  0x000000000000a177      0x15a ./Middlewares/USBX/USB/USBX/UX Device Class CDC ACM/ux_device_class_cdc_acm_ioctl.o
 .debug_abbrev  0x000000000000a2d1      0x182 ./Middlewares/USBX/USB/USBX/UX Device Class CDC ACM/ux_device_class_cdc_acm_read.o
 .debug_abbrev  0x000000000000a453      0x15a ./Middlewares/USBX/USB/USBX/UX Device Class CDC ACM/ux_device_class_cdc_acm_unitialize.o
 .debug_abbrev  0x000000000000a5ad      0x182 ./Middlewares/USBX/USB/USBX/UX Device Class CDC ACM/ux_device_class_cdc_acm_write.o
 .debug_abbrev  0x000000000000a72f      0x2bd ./Middlewares/USBX/USB/USBX/UX Device Controllers/ux_dcd_stm32_callback.o
 .debug_abbrev  0x000000000000a9ec      0x1f5 ./Middlewares/USBX/USB/USBX/UX Device Controllers/ux_dcd_stm32_endpoint_create.o
 .debug_abbrev  0x000000000000abe1      0x1c8 ./Middlewares/USBX/USB/USBX/UX Device Controllers/ux_dcd_stm32_endpoint_destroy.o
 .debug_abbrev  0x000000000000ada9      0x290 ./Middlewares/USBX/USB/USBX/UX Device Controllers/ux_dcd_stm32_endpoint_reset.o
 .debug_abbrev  0x000000000000b039      0x1c8 ./Middlewares/USBX/USB/USBX/UX Device Controllers/ux_dcd_stm32_endpoint_stall.o
 .debug_abbrev  0x000000000000b201      0x1de ./Middlewares/USBX/USB/USBX/UX Device Controllers/ux_dcd_stm32_endpoint_status.o
 .debug_abbrev  0x000000000000b3df      0x1a0 ./Middlewares/USBX/USB/USBX/UX Device Controllers/ux_dcd_stm32_frame_number_get.o
 .debug_abbrev  0x000000000000b57f      0x205 ./Middlewares/USBX/USB/USBX/UX Device Controllers/ux_dcd_stm32_function.o
 .debug_abbrev  0x000000000000b784      0x1ec ./Middlewares/USBX/USB/USBX/UX Device Controllers/ux_dcd_stm32_initialize.o
 .debug_abbrev  0x000000000000b970      0x1f5 ./Middlewares/USBX/USB/USBX/UX Device Controllers/ux_dcd_stm32_initialize_complete.o
 .debug_abbrev  0x000000000000bb65      0x1c8 ./Middlewares/USBX/USB/USBX/UX Device Controllers/ux_dcd_stm32_transfer_abort.o
 .debug_abbrev  0x000000000000bd2d      0x1df ./Middlewares/USBX/USB/USBX/UX Device Controllers/ux_dcd_stm32_transfer_request.o
 .debug_abbrev  0x000000000000bf0c      0x136 ./Middlewares/USBX/USB/USBX/UX Device CoreStack/ux_device_stack_alternate_setting_get.o
 .debug_abbrev  0x000000000000c042      0x176 ./Middlewares/USBX/USB/USBX/UX Device CoreStack/ux_device_stack_alternate_setting_set.o
 .debug_abbrev  0x000000000000c1b8      0x149 ./Middlewares/USBX/USB/USBX/UX Device CoreStack/ux_device_stack_class_register.o
 .debug_abbrev  0x000000000000c301      0x130 ./Middlewares/USBX/USB/USBX/UX Device CoreStack/ux_device_stack_clear_feature.o
 .debug_abbrev  0x000000000000c431      0x125 ./Middlewares/USBX/USB/USBX/UX Device CoreStack/ux_device_stack_configuration_get.o
 .debug_abbrev  0x000000000000c556      0x161 ./Middlewares/USBX/USB/USBX/UX Device CoreStack/ux_device_stack_configuration_set.o
 .debug_abbrev  0x000000000000c6b7      0x15c ./Middlewares/USBX/USB/USBX/UX Device CoreStack/ux_device_stack_control_request_process.o
 .debug_abbrev  0x000000000000c813      0x176 ./Middlewares/USBX/USB/USBX/UX Device CoreStack/ux_device_stack_descriptor_send.o
 .debug_abbrev  0x000000000000c989      0x136 ./Middlewares/USBX/USB/USBX/UX Device CoreStack/ux_device_stack_disconnect.o
 .debug_abbrev  0x000000000000cabf      0x1d0 ./Middlewares/USBX/USB/USBX/UX Device CoreStack/ux_device_stack_endpoint_stall.o
 .debug_abbrev  0x000000000000cc8f      0x147 ./Middlewares/USBX/USB/USBX/UX Device CoreStack/ux_device_stack_get_status.o
 .debug_abbrev  0x000000000000cdd6      0x19c ./Middlewares/USBX/USB/USBX/UX Device CoreStack/ux_device_stack_initialize.o
 .debug_abbrev  0x000000000000cf72      0x130 ./Middlewares/USBX/USB/USBX/UX Device CoreStack/ux_device_stack_interface_delete.o
 .debug_abbrev  0x000000000000d0a2      0x161 ./Middlewares/USBX/USB/USBX/UX Device CoreStack/ux_device_stack_interface_set.o
 .debug_abbrev  0x000000000000d203      0x11f ./Middlewares/USBX/USB/USBX/UX Device CoreStack/ux_device_stack_interface_start.o
 .debug_abbrev  0x000000000000d322      0x130 ./Middlewares/USBX/USB/USBX/UX Device CoreStack/ux_device_stack_set_feature.o
 .debug_abbrev  0x000000000000d452      0x1e7 ./Middlewares/USBX/USB/USBX/UX Device CoreStack/ux_device_stack_transfer_abort.o
 .debug_abbrev  0x000000000000d639      0x123 ./Middlewares/USBX/USB/USBX/UX Device CoreStack/ux_device_stack_transfer_all_request_abort.o
 .debug_abbrev  0x000000000000d75c      0x1e5 ./Middlewares/USBX/USB/USBX/UX Device CoreStack/ux_device_stack_transfer_request.o
 .debug_abbrev  0x000000000000d941      0x2aa ./USBX/App/app_usbx_device.o
 .debug_abbrev  0x000000000000dbeb      0x27d ./USBX/App/ux_device_cdc_acm.o
 .debug_abbrev  0x000000000000de68      0x283 ./USBX/App/ux_device_descriptors.o

.debug_aranges  0x0000000000000000     0x25b8
 .debug_aranges
                0x0000000000000000       0x20 ./AZURE_RTOS/App/app_azure_rtos.o
 .debug_aranges
                0x0000000000000020       0x28 ./Common/Src/system_stm32h7xx_dualcore_boot_cm4_cm7.o
 .debug_aranges
                0x0000000000000048       0x28 ./Core/Src/app_threadx.o
 .debug_aranges
                0x0000000000000070       0x20 ./Core/Src/dma.o
 .debug_aranges
                0x0000000000000090       0x20 ./Core/Src/gpio.o
 .debug_aranges
                0x00000000000000b0       0x40 ./Core/Src/main.o
 .debug_aranges
                0x00000000000000f0       0x20 ./Core/Src/stm32h7xx_hal_msp.o
 .debug_aranges
                0x0000000000000110       0x30 ./Core/Src/stm32h7xx_hal_timebase_tim.o
 .debug_aranges
                0x0000000000000140       0x68 ./Core/Src/stm32h7xx_it.o
 .debug_aranges
                0x00000000000001a8       0x20 ./Core/Src/tx_initialize_low_level.o
 .debug_aranges
                0x00000000000001c8       0x30 ./Core/Src/usart.o
 .debug_aranges
                0x00000000000001f8       0x30 ./Core/Src/usb_otg.o
 .debug_aranges
                0x0000000000000228       0x28 ./Core/Startup/startup_stm32h745zitx.o
 .debug_aranges
                0x0000000000000250      0x200 ./Drivers/STM32H7xx_HAL_Driver/stm32h7xx_hal.o
 .debug_aranges
                0x0000000000000450      0x120 ./Drivers/STM32H7xx_HAL_Driver/stm32h7xx_hal_cortex.o
 .debug_aranges
                0x0000000000000570       0xa0 ./Drivers/STM32H7xx_HAL_Driver/stm32h7xx_hal_dma.o
 .debug_aranges
                0x0000000000000610       0x58 ./Drivers/STM32H7xx_HAL_Driver/stm32h7xx_hal_gpio.o
 .debug_aranges
                0x0000000000000668       0x70 ./Drivers/STM32H7xx_HAL_Driver/stm32h7xx_hal_hsem.o
 .debug_aranges
                0x00000000000006d8      0x140 ./Drivers/STM32H7xx_HAL_Driver/stm32h7xx_hal_pcd.o
 .debug_aranges
