
CDC_AZURE_2_CM7.elf:     file format elf32-littlearm

Sections:
Idx Name          Size      VMA       LMA       File off  Algn
  0 .isr_vector   00000298  08000000  08000000  00010000  2**0
                  CONTENTS, ALLOC, LOAD, READONLY, DATA
  1 .text         000157c0  080002a0  080002a0  000102a0  2**4
                  CONTENTS, ALLOC, LOAD, READONLY, CODE
  2 .rodata       00000198  08015a60  08015a60  00025a60  2**2
                  CONTENTS, ALLOC, LOAD, READONLY, DATA
  3 .ARM.extab    00000000  08015bf8  08015bf8  00030078  2**0
                  CONTENTS
  4 .ARM          00000008  08015bf8  08015bf8  00025bf8  2**2
                  CONTENTS, ALLOC, LOAD, READONLY, DATA
  5 .preinit_array 00000000  08015c00  08015c00  00030078  2**0
                  CONTENTS, ALLOC, LOAD, DATA
  6 .init_array   00000004  08015c00  08015c00  00025c00  2**2
                  CONTENTS, ALLOC, LOAD, DATA
  7 .fini_array   00000004  08015c04  08015c04  00025c04  2**2
                  CONTENTS, ALLOC, LOAD, DATA
  8 .data         00000078  24000000  08015c08  00030000  2**2
                  CONTENTS, ALLOC, LOAD, DATA
  9 .bss          00001b5c  24000078  08015c80  00030078  2**2
                  ALLOC
 10 ._user_heap_stack 00000604  24001bd4  08015c80  00031bd4  2**0
                  ALLOC
 11 .usbx_data    0000050c  24027000  24027000  00037000  2**2
                  ALLOC
 12 .uart_bss     00000800  24028000  24028000  00037000  2**2
                  ALLOC
 13 .usbx_bss     00002c00  24029000  24029000  00037000  2**2
                  ALLOC
 14 .ARM.attributes 0000002e  00000000  00000000  00030078  2**0
                  CONTENTS, READONLY
 15 .debug_info   00068513  00000000  00000000  000300a6  2**0
                  CONTENTS, READONLY, DEBUGGING, OCTETS
 16 .debug_abbrev 0000e0eb  00000000  00000000  000985b9  2**0
                  CONTENTS, READONLY, DEBUGGING, OCTETS
 17 .debug_aranges 000025b8  00000000  00000000  000a66a8  2**3
                  CONTENTS, READONLY, DEBUGGING, OCTETS
 18 .debug_ranges 00001c58  00000000  00000000  000a8c60  2**3
                  CONTENTS, READONLY, DEBUGGING, OCTETS
 19 .debug_macro  000510af  00000000  00000000  000aa8b8  2**0
                  CONTENTS, READONLY, DEBUGGING, OCTETS
 20 .debug_line   00059fc9  00000000  00000000  000fb967  2**0
                  CONTENTS, READONLY, DEBUGGING, OCTETS
 21 .debug_str    0019cf44  00000000  00000000  00155930  2**0
                  CONTENTS, READONLY, DEBUGGING, OCTETS
 22 .comment      00000050  00000000  00000000  002f2874  2**0
                  CONTENTS, READONLY
 23 .debug_frame  0000763c  00000000  00000000  002f28c4  2**2
                  CONTENTS, READONLY, DEBUGGING, OCTETS

Disassembly of section .text:

080002a0 <__do_global_dtors_aux>:
 80002a0:	b510      	push	{r4, lr}
 80002a2:	4c05      	ldr	r4, [pc, #20]	; (80002b8 <__do_global_dtors_aux+0x18>)
 80002a4:	7823      	ldrb	r3, [r4, #0]
 80002a6:	b933      	cbnz	r3, 80002b6 <__do_global_dtors_aux+0x16>
 80002a8:	4b04      	ldr	r3, [pc, #16]	; (80002bc <__do_global_dtors_aux+0x1c>)
 80002aa:	b113      	cbz	r3, 80002b2 <__do_global_dtors_aux+0x12>
 80002ac:	4804      	ldr	r0, [pc, #16]	; (80002c0 <__do_global_dtors_aux+0x20>)
 80002ae:	f3af 8000 	nop.w
 80002b2:	2301      	movs	r3, #1
 80002b4:	7023      	strb	r3, [r4, #0]
 80002b6:	bd10      	pop	{r4, pc}
 80002b8:	24000078 	.word	0x24000078
 80002bc:	00000000 	.word	0x00000000
 80002c0:	08015a48 	.word	0x08015a48

080002c4 <frame_dummy>:
 80002c4:	b508      	push	{r3, lr}
 80002c6:	4b03      	ldr	r3, [pc, #12]	; (80002d4 <frame_dummy+0x10>)
 80002c8:	b11b      	cbz	r3, 80002d2 <frame_dummy+0xe>
 80002ca:	4903      	ldr	r1, [pc, #12]	; (80002d8 <frame_dummy+0x14>)
 80002cc:	4803      	ldr	r0, [pc, #12]	; (80002dc <frame_dummy+0x18>)
 80002ce:	f3af 8000 	nop.w
 80002d2:	bd08      	pop	{r3, pc}
 80002d4:	00000000 	.word	0x00000000
 80002d8:	2400007c 	.word	0x2400007c
 80002dc:	08015a48 	.word	0x08015a48

080002e0 <_tx_initialize_low_level>:
    .thumb_func
_tx_initialize_low_level:
@
@    /* Disable interrupts during ThreadX initialization.  */
@
    CPSID   i
 80002e0:	b672      	cpsid	i
    STR     r1, [r0]                                @ Setup first unused memory pointer
#endif
@
@    /* Setup Vector Table Offset Register.  */
@
    MOV     r0, #0xE000E000                         @ Build address of NVIC registers
 80002e2:	f04f 20e0 	mov.w	r0, #3758153728	; 0xe000e000
    LDR     r1, =g_pfnVectors                           @ Pickup address of vector table
 80002e6:	4919      	ldr	r1, [pc, #100]	; (800034c <__tx_DBGHandler+0x4>)
    STR     r1, [r0, #0xD08]                        @ Set vector table address
 80002e8:	f8c0 1d08 	str.w	r1, [r0, #3336]	; 0xd08
@
@    /* Set system stack pointer from vector value.  */
@
    LDR     r0, =_tx_thread_system_stack_ptr        @ Build address of system stack pointer
 80002ec:	4818      	ldr	r0, [pc, #96]	; (8000350 <__tx_DBGHandler+0x8>)
    LDR     r1, =g_pfnVectors                           @ Pickup address of vector table
 80002ee:	4917      	ldr	r1, [pc, #92]	; (800034c <__tx_DBGHandler+0x4>)
    LDR     r1, [r1]                                @ Pickup reset stack pointer
 80002f0:	6809      	ldr	r1, [r1, #0]
    STR     r1, [r0]                                @ Save system stack pointer
 80002f2:	6001      	str	r1, [r0, #0]
@
@    /* Enable the cycle count register.  */
@
    LDR     r0, =0xE0001000                         @ Build address of DWT register
 80002f4:	4817      	ldr	r0, [pc, #92]	; (8000354 <__tx_DBGHandler+0xc>)
    LDR     r1, [r0]                                @ Pickup the current value
 80002f6:	6801      	ldr	r1, [r0, #0]
    ORR     r1, r1, #1                              @ Set the CYCCNTENA bit
 80002f8:	f041 0101 	orr.w	r1, r1, #1
    STR     r1, [r0]                                @ Enable the cycle count register
 80002fc:	6001      	str	r1, [r0, #0]
@
@    /* Configure SysTick for 100Hz clock, or 16384 cycles if no reference.  */
@
    MOV     r0, #0xE000E000                         @ Build address of NVIC registers
 80002fe:	f04f 20e0 	mov.w	r0, #3758153728	; 0xe000e000
    LDR     r1, =SYSTICK_CYCLES
 8000302:	4915      	ldr	r1, [pc, #84]	; (8000358 <__tx_DBGHandler+0x10>)
    STR     r1, [r0, #0x14]                         @ Setup SysTick Reload Value
 8000304:	6141      	str	r1, [r0, #20]
    MOV     r1, #0x7                                @ Build SysTick Control Enable Value
 8000306:	f04f 0107 	mov.w	r1, #7
    STR     r1, [r0, #0x10]                         @ Setup SysTick Control
 800030a:	6101      	str	r1, [r0, #16]
@
@    /* Configure handler priorities.  */
@
    LDR     r1, =0x00000000                         @ Rsrv, UsgF, BusF, MemM
 800030c:	f04f 0100 	mov.w	r1, #0
    STR     r1, [r0, #0xD18]                        @ Setup System Handlers 4-7 Priority Registers
 8000310:	f8c0 1d18 	str.w	r1, [r0, #3352]	; 0xd18

    LDR     r1, =0xFF000000                         @ SVCl, Rsrv, Rsrv, Rsrv
 8000314:	f04f 417f 	mov.w	r1, #4278190080	; 0xff000000
    STR     r1, [r0, #0xD1C]                        @ Setup System Handlers 8-11 Priority Registers
 8000318:	f8c0 1d1c 	str.w	r1, [r0, #3356]	; 0xd1c
                                                    @ Note: SVC must be lowest priority, which is 0xFF

    LDR     r1, =0x40FF0000                         @ SysT, PnSV, Rsrv, DbgM
 800031c:	490f      	ldr	r1, [pc, #60]	; (800035c <__tx_DBGHandler+0x14>)
    STR     r1, [r0, #0xD20]                        @ Setup System Handlers 12-15 Priority Registers
 800031e:	f8c0 1d20 	str.w	r1, [r0, #3360]	; 0xd20
                                                    @ Note: PnSV must be lowest priority, which is 0xFF
@
@    /* Return to caller.  */
@
    BX      lr
 8000322:	4770      	bx	lr

08000324 <__tx_BadHandler>:
@/* Define shells for each of the unused vectors.  */
@
    .global  __tx_BadHandler
    .thumb_func
__tx_BadHandler:
    B       __tx_BadHandler
 8000324:	f7ff bffe 	b.w	8000324 <__tx_BadHandler>

08000328 <__tx_HardfaultHandler>:
@ /* added to catch the hardfault */

    .global  __tx_HardfaultHandler
    .thumb_func
__tx_HardfaultHandler:
    B       __tx_HardfaultHandler
 8000328:	f7ff bffe 	b.w	8000328 <__tx_HardfaultHandler>

0800032c <__tx_SVCallHandler>:
@ /* added to catch the SVC */

    .global  __tx_SVCallHandler
    .thumb_func
__tx_SVCallHandler:
    B       __tx_SVCallHandler
 800032c:	f7ff bffe 	b.w	800032c <__tx_SVCallHandler>

08000330 <__tx_IntHandler>:
    .global  __tx_IntHandler
    .thumb_func
__tx_IntHandler:
@ VOID InterruptHandler (VOID)
@ {
    PUSH    {r0, lr}
 8000330:	b501      	push	{r0, lr}
@    /* BL <your C Function>.... */

#ifdef TX_EXECUTION_PROFILE_ENABLE
    BL      _tx_execution_isr_exit              @ Call the ISR exit function
#endif
    POP     {r0, lr}
 8000332:	e8bd 4001 	ldmia.w	sp!, {r0, lr}
    BX      LR
 8000336:	4770      	bx	lr

08000338 <SysTick_Handler>:
    .thumb_func
SysTick_Handler:
@ VOID TimerInterruptHandler (VOID)
@ {
@
    PUSH    {r0, lr}
 8000338:	b501      	push	{r0, lr}
#ifdef TX_EXECUTION_PROFILE_ENABLE
    BL      _tx_execution_isr_enter             @ Call the ISR enter function
#endif
    BL      _tx_timer_interrupt
 800033a:	f000 f891 	bl	8000460 <_tx_timer_interrupt>
#ifdef TX_EXECUTION_PROFILE_ENABLE
    BL      _tx_execution_isr_exit              @ Call the ISR exit function
#endif
    POP     {r0, lr}
 800033e:	e8bd 4001 	ldmia.w	sp!, {r0, lr}
    BX      LR
 8000342:	4770      	bx	lr

08000344 <__tx_NMIHandler>:

@ /* NMI, DBG handlers */
    .global  __tx_NMIHandler
    .thumb_func
__tx_NMIHandler:
    B       __tx_NMIHandler
 8000344:	f7ff bffe 	b.w	8000344 <__tx_NMIHandler>

08000348 <__tx_DBGHandler>:

    .global  __tx_DBGHandler
    .thumb_func
__tx_DBGHandler:
    B       __tx_DBGHandler
 8000348:	f7ff bffe 	b.w	8000348 <__tx_DBGHandler>
    LDR     r1, =g_pfnVectors                           @ Pickup address of vector table
 800034c:	08000000 	.word	0x08000000
    LDR     r0, =_tx_thread_system_stack_ptr        @ Build address of system stack pointer
 8000350:	24000688 	.word	0x24000688
    LDR     r0, =0xE0001000                         @ Build address of DWT register
 8000354:	e0001000 	.word	0xe0001000
    LDR     r1, =SYSTICK_CYCLES
 8000358:	00493dff 	.word	0x00493dff
    LDR     r1, =0x40FF0000                         @ SysT, PnSV, Rsrv, DbgM
 800035c:	40ff0000 	.word	0x40ff0000

08000360 <_tx_thread_schedule>:
       from the first schedule request. Subsequent scheduling occurs
       from the PendSV handling routine below. */

    /* Clear the preempt-disable flag to enable rescheduling after initialization on Cortex-M targets.  */

    MOV     r0, #0                                  // Build value for TX_FALSE
 8000360:	f04f 0000 	mov.w	r0, #0
    LDR     r2, =_tx_thread_preempt_disable         // Build address of preempt disable flag
 8000364:	4a2a      	ldr	r2, [pc, #168]	; (8000410 <tx_thread_fpu_disable+0x2>)
    STR     r0, [r2, #0]                            // Clear preempt disable flag
 8000366:	6010      	str	r0, [r2, #0]

    /* Clear CONTROL.FPCA bit so VFP registers aren't unnecessarily stacked.  */

#ifdef __ARM_FP
    MRS     r0, CONTROL                             // Pickup current CONTROL register
 8000368:	f3ef 8014 	mrs	r0, CONTROL
    BIC     r0, r0, #4                              // Clear the FPCA bit
 800036c:	f020 0004 	bic.w	r0, r0, #4
    MSR     CONTROL, r0                             // Setup new CONTROL register
 8000370:	f380 8814 	msr	CONTROL, r0
#endif

    /* Enable interrupts */
    CPSIE   i
 8000374:	b662      	cpsie	i

    /* Enter the scheduler for the first time.  */

    MOV     r0, #0x10000000                         // Load PENDSVSET bit
 8000376:	f04f 5080 	mov.w	r0, #268435456	; 0x10000000
    MOV     r1, #0xE000E000                         // Load NVIC base
 800037a:	f04f 21e0 	mov.w	r1, #3758153728	; 0xe000e000
    STR     r0, [r1, #0xD04]                        // Set PENDSVBIT in ICSR
 800037e:	f8c1 0d04 	str.w	r0, [r1, #3332]	; 0xd04
    DSB                                             // Complete all memory accesses
 8000382:	f3bf 8f4f 	dsb	sy
    ISB                                             // Flush pipeline
 8000386:	f3bf 8f6f 	isb	sy

0800038a <__tx_wait_here>:

    /* Wait here for the PendSV to take place.  */

__tx_wait_here:
    B       __tx_wait_here                          // Wait for the PendSV to happen
 800038a:	e7fe      	b.n	800038a <__tx_wait_here>

0800038c <PendSV_Handler>:
    BL      _tx_execution_thread_exit               // Call the thread exit function
    POP     {r0, lr}                                // Recover LR
    CPSIE   i                                       // Enable interrupts
#endif

    LDR     r0, =_tx_thread_current_ptr             // Build current thread pointer address
 800038c:	4821      	ldr	r0, [pc, #132]	; (8000414 <tx_thread_fpu_disable+0x6>)
    LDR     r2, =_tx_thread_execute_ptr             // Build execute thread pointer address
 800038e:	4a22      	ldr	r2, [pc, #136]	; (8000418 <tx_thread_fpu_disable+0xa>)
    MOV     r3, #0                                  // Build NULL value
 8000390:	f04f 0300 	mov.w	r3, #0
    LDR     r1, [r0]                                // Pickup current thread pointer
 8000394:	6801      	ldr	r1, [r0, #0]

    /* Determine if there is a current thread to finish preserving.  */

    CBZ     r1, __tx_ts_new                         // If NULL, skip preservation
 8000396:	b191      	cbz	r1, 80003be <__tx_ts_new>

    /* Recover PSP and preserve current thread context.  */

    STR     r3, [r0]                                // Set _tx_thread_current_ptr to NULL
 8000398:	6003      	str	r3, [r0, #0]
    MRS     r12, PSP                                // Pickup PSP pointer (thread's stack pointer)
 800039a:	f3ef 8c09 	mrs	ip, PSP
    STMDB   r12!, {r4-r11}                          // Save its remaining registers
 800039e:	e92c 0ff0 	stmdb	ip!, {r4, r5, r6, r7, r8, r9, sl, fp}
#ifdef __ARM_FP
    TST     LR, #0x10                               // Determine if the VFP extended frame is present
 80003a2:	f01e 0f10 	tst.w	lr, #16
    BNE     _skip_vfp_save
 80003a6:	d101      	bne.n	80003ac <_skip_vfp_save>
    VSTMDB  r12!,{s16-s31}                          // Yes, save additional VFP registers
 80003a8:	ed2c 8a10 	vstmdb	ip!, {s16-s31}

080003ac <_skip_vfp_save>:
_skip_vfp_save:
#endif
    LDR     r4, =_tx_timer_time_slice               // Build address of time-slice variable
 80003ac:	4c1b      	ldr	r4, [pc, #108]	; (800041c <tx_thread_fpu_disable+0xe>)
    STMDB   r12!, {LR}                              // Save LR on the stack
 80003ae:	f84c ed04 	str.w	lr, [ip, #-4]!

    /* Determine if time-slice is active. If it isn't, skip time handling processing.  */

    LDR     r5, [r4]                                // Pickup current time-slice
 80003b2:	6825      	ldr	r5, [r4, #0]
    STR     r12, [r1, #8]                           // Save the thread stack pointer
 80003b4:	f8c1 c008 	str.w	ip, [r1, #8]
    CBZ     r5, __tx_ts_new                         // If not active, skip processing
 80003b8:	b10d      	cbz	r5, 80003be <__tx_ts_new>

    /* Time-slice is active, save the current thread's time-slice and clear the global time-slice variable.  */

    STR     r5, [r1, #24]                           // Save current time-slice
 80003ba:	618d      	str	r5, [r1, #24]

    /* Clear the global time-slice.  */

    STR     r3, [r4]                                // Clear time-slice
 80003bc:	6023      	str	r3, [r4, #0]

080003be <__tx_ts_new>:

__tx_ts_new:

    /* Now we are looking for a new thread to execute!  */

    CPSID   i                                       // Disable interrupts
 80003be:	b672      	cpsid	i
    LDR     r1, [r2]                                // Is there another thread ready to execute?
 80003c0:	6811      	ldr	r1, [r2, #0]
    CBZ     r1, __tx_ts_wait                        // No, skip to the wait processing
 80003c2:	b1b1      	cbz	r1, 80003f2 <__tx_ts_wait>

    /* Yes, another thread is ready for else, make the current thread the new thread.  */

    STR     r1, [r0]                                // Setup the current thread pointer to the new thread
 80003c4:	6001      	str	r1, [r0, #0]
    CPSIE   i                                       // Enable interrupts
 80003c6:	b662      	cpsie	i

080003c8 <__tx_ts_restore>:

    /* Increment the thread run count.  */

__tx_ts_restore:
    LDR     r7, [r1, #4]                            // Pickup the current thread run count
 80003c8:	684f      	ldr	r7, [r1, #4]
    LDR     r4, =_tx_timer_time_slice               // Build address of time-slice variable
 80003ca:	4c14      	ldr	r4, [pc, #80]	; (800041c <tx_thread_fpu_disable+0xe>)
    LDR     r5, [r1, #24]                           // Pickup thread's current time-slice
 80003cc:	698d      	ldr	r5, [r1, #24]
    ADD     r7, r7, #1                              // Increment the thread run count
 80003ce:	f107 0701 	add.w	r7, r7, #1
    STR     r7, [r1, #4]                            // Store the new run count
 80003d2:	604f      	str	r7, [r1, #4]

    /* Setup global time-slice with thread's current time-slice.  */

    STR     r5, [r4]                                // Setup global time-slice
 80003d4:	6025      	str	r5, [r4, #0]
    POP     {r0, r1}                                // Recover r0 and r1
#endif

    /* Restore the thread context and PSP.  */

    LDR     r12, [r1, #8]                           // Pickup thread's stack pointer
 80003d6:	f8d1 c008 	ldr.w	ip, [r1, #8]
    LDMIA   r12!, {LR}                              // Pickup LR
 80003da:	f85c eb04 	ldr.w	lr, [ip], #4
#ifdef __ARM_FP
    TST     LR, #0x10                               // Determine if the VFP extended frame is present
 80003de:	f01e 0f10 	tst.w	lr, #16
    BNE     _skip_vfp_restore                       // If not, skip VFP restore
 80003e2:	d101      	bne.n	80003e8 <_skip_vfp_restore>
    VLDMIA  r12!, {s16-s31}                         // Yes, restore additional VFP registers
 80003e4:	ecbc 8a10 	vldmia	ip!, {s16-s31}

080003e8 <_skip_vfp_restore>:
_skip_vfp_restore:
#endif
    LDMIA   r12!, {r4-r11}                          // Recover thread's registers
 80003e8:	e8bc 0ff0 	ldmia.w	ip!, {r4, r5, r6, r7, r8, r9, sl, fp}
    MSR     PSP, r12                                // Setup the thread's stack pointer
 80003ec:	f38c 8809 	msr	PSP, ip

    /* Return to thread.  */

    BX      lr                                      // Return to thread!
 80003f0:	4770      	bx	lr

080003f2 <__tx_ts_wait>:
    /* The following is the idle wait processing... in this case, no threads are ready for execution and the
       system will simply be idle until an interrupt occurs that makes a thread ready. Note that interrupts
       are disabled to allow use of WFI for waiting for a thread to arrive.  */

__tx_ts_wait:
    CPSID   i                                       // Disable interrupts
 80003f2:	b672      	cpsid	i
    LDR     r1, [r2]                                // Pickup the next thread to execute pointer
 80003f4:	6811      	ldr	r1, [r2, #0]
    STR     r1, [r0]                                // Store it in the current pointer
 80003f6:	6001      	str	r1, [r0, #0]
    CBNZ    r1, __tx_ts_ready                       // If non-NULL, a new thread is ready!
 80003f8:	b909      	cbnz	r1, 80003fe <__tx_ts_ready>
    PUSH    {r0-r3}
    BL      tx_low_power_exit                       // Exit low power mode
    POP     {r0-r3}
#endif

    CPSIE   i                                       // Enable interrupts
 80003fa:	b662      	cpsie	i
    B       __tx_ts_wait                            // Loop to continue waiting
 80003fc:	e7f9      	b.n	80003f2 <__tx_ts_wait>

080003fe <__tx_ts_ready>:

    /* At this point, we have a new thread ready to go. Clear any newly pended PendSV - since we are
       already in the handler!  */

__tx_ts_ready:
    MOV     r7, #0x08000000                         // Build clear PendSV value
 80003fe:	f04f 6700 	mov.w	r7, #134217728	; 0x8000000
    MOV     r8, #0xE000E000                         // Build base NVIC address
 8000402:	f04f 28e0 	mov.w	r8, #3758153728	; 0xe000e000
    STR     r7, [r8, #0xD04]                        // Clear any PendSV
 8000406:	f8c8 7d04 	str.w	r7, [r8, #3332]	; 0xd04

    /* Re-enable interrupts and restore new thread.  */

    CPSIE   i                                       // Enable interrupts
 800040a:	b662      	cpsie	i
    B       __tx_ts_restore                         // Restore the thread
 800040c:	e7dc      	b.n	80003c8 <__tx_ts_restore>

0800040e <tx_thread_fpu_disable>:
tx_thread_fpu_disable:

    /* Automatic VPF logic is supported, this function is present only for
       backward compatibility purposes and therefore simply returns.  */

    BX      LR                                      // Return to caller
 800040e:	4770      	bx	lr
    LDR     r2, =_tx_thread_preempt_disable         // Build address of preempt disable flag
 8000410:	24000724 	.word	0x24000724
    LDR     r0, =_tx_thread_current_ptr             // Build current thread pointer address
 8000414:	2400068c 	.word	0x2400068c
    LDR     r2, =_tx_thread_execute_ptr             // Build execute thread pointer address
 8000418:	24000690 	.word	0x24000690
    LDR     r4, =_tx_timer_time_slice               // Build address of time-slice variable
 800041c:	24000c90 	.word	0x24000c90

08000420 <_tx_thread_stack_build>:
                       pc          Initial value for pc
                       xPSR        Initial value for xPSR

    Stack Bottom: (higher memory address)  */

    LDR     r2, [r0, #16]                           // Pickup end of stack area
 8000420:	6902      	ldr	r2, [r0, #16]
    BIC     r2, r2, #0x7                            // Align frame for 8-byte alignment
 8000422:	f022 0207 	bic.w	r2, r2, #7
    SUB     r2, r2, #68                             // Subtract frame size
 8000426:	f1a2 0244 	sub.w	r2, r2, #68	; 0x44
    LDR     r3, =0xFFFFFFFD                         // Build initial LR value
 800042a:	f06f 0302 	mvn.w	r3, #2
    STR     r3, [r2, #0]                            // Save on the stack
 800042e:	6013      	str	r3, [r2, #0]

    /* Actually build the stack frame.  */

    MOV     r3, #0                                  // Build initial register value
 8000430:	f04f 0300 	mov.w	r3, #0
    STR     r3, [r2, #4]                            // Store initial r4
 8000434:	6053      	str	r3, [r2, #4]
    STR     r3, [r2, #8]                            // Store initial r5
 8000436:	6093      	str	r3, [r2, #8]
    STR     r3, [r2, #12]                           // Store initial r6
 8000438:	60d3      	str	r3, [r2, #12]
    STR     r3, [r2, #16]                           // Store initial r7
 800043a:	6113      	str	r3, [r2, #16]
    STR     r3, [r2, #20]                           // Store initial r8
 800043c:	6153      	str	r3, [r2, #20]
    STR     r3, [r2, #24]                           // Store initial r9
 800043e:	6193      	str	r3, [r2, #24]
    STR     r3, [r2, #28]                           // Store initial r10
 8000440:	61d3      	str	r3, [r2, #28]
    STR     r3, [r2, #32]                           // Store initial r11
 8000442:	6213      	str	r3, [r2, #32]

    /* Hardware stack follows.  */

    STR     r3, [r2, #36]                           // Store initial r0
 8000444:	6253      	str	r3, [r2, #36]	; 0x24
    STR     r3, [r2, #40]                           // Store initial r1
 8000446:	6293      	str	r3, [r2, #40]	; 0x28
    STR     r3, [r2, #44]                           // Store initial r2
 8000448:	62d3      	str	r3, [r2, #44]	; 0x2c
    STR     r3, [r2, #48]                           // Store initial r3
 800044a:	6313      	str	r3, [r2, #48]	; 0x30
    STR     r3, [r2, #52]                           // Store initial r12
 800044c:	6353      	str	r3, [r2, #52]	; 0x34
    MOV     r3, #0xFFFFFFFF                         // Poison EXC_RETURN value
 800044e:	f04f 33ff 	mov.w	r3, #4294967295
    STR     r3, [r2, #56]                           // Store initial lr
 8000452:	6393      	str	r3, [r2, #56]	; 0x38
    STR     r1, [r2, #60]                           // Store initial pc
 8000454:	63d1      	str	r1, [r2, #60]	; 0x3c
    MOV     r3, #0x01000000                         // Only T-bit need be set
 8000456:	f04f 7380 	mov.w	r3, #16777216	; 0x1000000
    STR     r3, [r2, #64]                           // Store initial xPSR
 800045a:	6413      	str	r3, [r2, #64]	; 0x40

    /* Setup stack pointer.  */
    // thread_ptr -> tx_thread_stack_ptr =  r2;

    STR     r2, [r0, #8]                            // Save stack pointer in thread's
 800045c:	6082      	str	r2, [r0, #8]
                                                    //   control block
    BX      lr                                      // Return to caller
 800045e:	4770      	bx	lr

08000460 <_tx_timer_interrupt>:
       for use.  */

    /* Increment the system clock.  */
    // _tx_timer_system_clock++;

    LDR     r1, =_tx_timer_system_clock             // Pickup address of system clock
 8000460:	4922      	ldr	r1, [pc, #136]	; (80004ec <__tx_timer_nothing_expired+0x6>)
    LDR     r0, [r1, #0]                            // Pickup system clock
 8000462:	6808      	ldr	r0, [r1, #0]
    ADD     r0, r0, #1                              // Increment system clock
 8000464:	f100 0001 	add.w	r0, r0, #1
    STR     r0, [r1, #0]                            // Store new system clock
 8000468:	6008      	str	r0, [r1, #0]

    /* Test for time-slice expiration.  */
    // if (_tx_timer_time_slice)
    // {

    LDR     r3, =_tx_timer_time_slice               // Pickup address of time-slice
 800046a:	4b21      	ldr	r3, [pc, #132]	; (80004f0 <__tx_timer_nothing_expired+0xa>)
    LDR     r2, [r3, #0]                            // Pickup time-slice
 800046c:	681a      	ldr	r2, [r3, #0]
    CBZ     r2, __tx_timer_no_time_slice            // Is it non-active?
 800046e:	b13a      	cbz	r2, 8000480 <__tx_timer_no_time_slice>
                                                    // Yes, skip time-slice processing

       /* Decrement the time_slice.  */
       // _tx_timer_time_slice--;

    SUB     r2, r2, #1                              // Decrement the time-slice
 8000470:	f1a2 0201 	sub.w	r2, r2, #1
    STR     r2, [r3, #0]                            // Store new time-slice value
 8000474:	601a      	str	r2, [r3, #0]

       /* Check for expiration.  */
       // if (__tx_timer_time_slice == 0)

    CBNZ    r2, __tx_timer_no_time_slice            // Has it expired?
 8000476:	b91a      	cbnz	r2, 8000480 <__tx_timer_no_time_slice>
                                                    // No, skip expiration processing

       /* Set the time-slice expired flag.  */
       // _tx_timer_expired_time_slice =  TX_TRUE;

    LDR     r3, =_tx_timer_expired_time_slice       // Pickup address of expired flag
 8000478:	4b1e      	ldr	r3, [pc, #120]	; (80004f4 <__tx_timer_nothing_expired+0xe>)
    MOV     r0, #1                                  // Build expired value
 800047a:	f04f 0001 	mov.w	r0, #1
    STR     r0, [r3, #0]                            // Set time-slice expiration flag
 800047e:	6018      	str	r0, [r3, #0]

08000480 <__tx_timer_no_time_slice>:

    /* Test for timer expiration.  */
    // if (*_tx_timer_current_ptr)
    // {

    LDR     r1, =_tx_timer_current_ptr              // Pickup current timer pointer address
 8000480:	491d      	ldr	r1, [pc, #116]	; (80004f8 <__tx_timer_nothing_expired+0x12>)
    LDR     r0, [r1, #0]                            // Pickup current timer
 8000482:	6808      	ldr	r0, [r1, #0]
    LDR     r2, [r0, #0]                            // Pickup timer list entry
 8000484:	6802      	ldr	r2, [r0, #0]
    CBZ     r2, __tx_timer_no_timer                 // Is there anything in the list?
 8000486:	b122      	cbz	r2, 8000492 <__tx_timer_no_timer>
                                                    // No, just increment the timer

        /* Set expiration flag.  */
        // _tx_timer_expired =  TX_TRUE;

    LDR     r3, =_tx_timer_expired                  // Pickup expiration flag address
 8000488:	4b1c      	ldr	r3, [pc, #112]	; (80004fc <__tx_timer_nothing_expired+0x16>)
    MOV     r2, #1                                  // Build expired value
 800048a:	f04f 0201 	mov.w	r2, #1
    STR     r2, [r3, #0]                            // Set expired flag
 800048e:	601a      	str	r2, [r3, #0]
    B       __tx_timer_done                         // Finished timer processing
 8000490:	e008      	b.n	80004a4 <__tx_timer_done>

08000492 <__tx_timer_no_timer>:
__tx_timer_no_timer:

        /* No timer expired, increment the timer pointer.  */
        // _tx_timer_current_ptr++;

    ADD     r0, r0, #4                              // Move to next timer
 8000492:	f100 0004 	add.w	r0, r0, #4

        /* Check for wrap-around.  */
        // if (_tx_timer_current_ptr == _tx_timer_list_end)

    LDR     r3, =_tx_timer_list_end                 // Pickup addr of timer list end
 8000496:	4b1a      	ldr	r3, [pc, #104]	; (8000500 <__tx_timer_nothing_expired+0x1a>)
    LDR     r2, [r3, #0]                            // Pickup list end
 8000498:	681a      	ldr	r2, [r3, #0]
    CMP     r0, r2                                  // Are we at list end?
 800049a:	4290      	cmp	r0, r2
    BNE     __tx_timer_skip_wrap                    // No, skip wrap-around logic
 800049c:	d101      	bne.n	80004a2 <__tx_timer_skip_wrap>

            /* Wrap to beginning of list.  */
            // _tx_timer_current_ptr =  _tx_timer_list_start;

    LDR     r3, =_tx_timer_list_start               // Pickup addr of timer list start
 800049e:	4b19      	ldr	r3, [pc, #100]	; (8000504 <__tx_timer_nothing_expired+0x1e>)
    LDR     r0, [r3, #0]                            // Set current pointer to list start
 80004a0:	6818      	ldr	r0, [r3, #0]

080004a2 <__tx_timer_skip_wrap>:

__tx_timer_skip_wrap:

    STR     r0, [r1, #0]                            // Store new current timer pointer
 80004a2:	6008      	str	r0, [r1, #0]

080004a4 <__tx_timer_done>:

    /* See if anything has expired.  */
    // if ((_tx_timer_expired_time_slice) || (_tx_timer_expired))
    // {

    LDR     r3, =_tx_timer_expired_time_slice       // Pickup addr of expired flag
 80004a4:	4b13      	ldr	r3, [pc, #76]	; (80004f4 <__tx_timer_nothing_expired+0xe>)
    LDR     r2, [r3, #0]                            // Pickup time-slice expired flag
 80004a6:	681a      	ldr	r2, [r3, #0]
    CBNZ    r2, __tx_something_expired              // Did a time-slice expire?
 80004a8:	b912      	cbnz	r2, 80004b0 <__tx_something_expired>
                                                    // If non-zero, time-slice expired
    LDR     r1, =_tx_timer_expired                  // Pickup addr of other expired flag
 80004aa:	4914      	ldr	r1, [pc, #80]	; (80004fc <__tx_timer_nothing_expired+0x16>)
    LDR     r0, [r1, #0]                            // Pickup timer expired flag
 80004ac:	6808      	ldr	r0, [r1, #0]
    CBZ     r0, __tx_timer_nothing_expired          // Did a timer expire?
 80004ae:	b1d0      	cbz	r0, 80004e6 <__tx_timer_nothing_expired>

080004b0 <__tx_something_expired>:
                                                    // No, nothing expired

__tx_something_expired:

    STMDB   sp!, {r0, lr}                           // Save the lr register on the stack
 80004b0:	e92d 4001 	stmdb	sp!, {r0, lr}

    /* Did a timer expire?  */
    // if (_tx_timer_expired)
    // {

    LDR     r1, =_tx_timer_expired                  // Pickup addr of expired flag
 80004b4:	4911      	ldr	r1, [pc, #68]	; (80004fc <__tx_timer_nothing_expired+0x16>)
    LDR     r0, [r1, #0]                            // Pickup timer expired flag
 80004b6:	6808      	ldr	r0, [r1, #0]
    CBZ     r0, __tx_timer_dont_activate            // Check for timer expiration
 80004b8:	b108      	cbz	r0, 80004be <__tx_timer_dont_activate>
                                                    // If not set, skip timer activation

        /* Process timer expiration.  */
        // _tx_timer_expiration_process();

    BL      _tx_timer_expiration_process            // Call the timer expiration handling routine
 80004ba:	f00f fcc3 	bl	800fe44 <_tx_timer_expiration_process>

080004be <__tx_timer_dont_activate>:

    /* Did time slice expire?  */
    // if (_tx_timer_expired_time_slice)
    // {

    LDR     r3, =_tx_timer_expired_time_slice       // Pickup addr of time-slice expired
 80004be:	4b0d      	ldr	r3, [pc, #52]	; (80004f4 <__tx_timer_nothing_expired+0xe>)
    LDR     r2, [r3, #0]                            // Pickup the actual flag
 80004c0:	681a      	ldr	r2, [r3, #0]
    CBZ     r2, __tx_timer_not_ts_expiration        // See if the flag is set
 80004c2:	b172      	cbz	r2, 80004e2 <__tx_timer_not_ts_expiration>
                                                    // No, skip time-slice processing

        /* Time slice interrupted thread.  */
        // _tx_thread_time_slice();

    BL      _tx_thread_time_slice                   // Call time-slice processing
 80004c4:	f00f fc30 	bl	800fd28 <_tx_thread_time_slice>
    LDR     r0, =_tx_thread_preempt_disable         // Build address of preempt disable flag
 80004c8:	480f      	ldr	r0, [pc, #60]	; (8000508 <__tx_timer_nothing_expired+0x22>)
    LDR     r1, [r0]                                // Is the preempt disable flag set?
 80004ca:	6801      	ldr	r1, [r0, #0]
    CBNZ    r1, __tx_timer_skip_time_slice          // Yes, skip the PendSV logic
 80004cc:	b949      	cbnz	r1, 80004e2 <__tx_timer_not_ts_expiration>
    LDR     r0, =_tx_thread_current_ptr             // Build current thread pointer address
 80004ce:	480f      	ldr	r0, [pc, #60]	; (800050c <__tx_timer_nothing_expired+0x26>)
    LDR     r1, [r0]                                // Pickup the current thread pointer
 80004d0:	6801      	ldr	r1, [r0, #0]
    LDR     r2, =_tx_thread_execute_ptr             // Build execute thread pointer address
 80004d2:	4a0f      	ldr	r2, [pc, #60]	; (8000510 <__tx_timer_nothing_expired+0x2a>)
    LDR     r3, [r2]                                // Pickup the execute thread pointer
 80004d4:	6813      	ldr	r3, [r2, #0]
    LDR     r0, =0xE000ED04                         // Build address of control register
 80004d6:	480f      	ldr	r0, [pc, #60]	; (8000514 <__tx_timer_nothing_expired+0x2e>)
    LDR     r2, =0x10000000                         // Build value for PendSV bit
 80004d8:	f04f 5280 	mov.w	r2, #268435456	; 0x10000000
    CMP     r1, r3                                  // Are they the same?
 80004dc:	4299      	cmp	r1, r3
    BEQ     __tx_timer_skip_time_slice              // If the same, there was no time-slice performed
 80004de:	d000      	beq.n	80004e2 <__tx_timer_not_ts_expiration>
    STR     r2, [r0]                                // Not the same, issue the PendSV for preemption
 80004e0:	6002      	str	r2, [r0, #0]

080004e2 <__tx_timer_not_ts_expiration>:

    // }

__tx_timer_not_ts_expiration:

    LDMIA   sp!, {r0, lr}                           // Recover lr register (r0 is just there for
 80004e2:	e8bd 4001 	ldmia.w	sp!, {r0, lr}

080004e6 <__tx_timer_nothing_expired>:

    // }

__tx_timer_nothing_expired:

    DSB                                             // Complete all memory access
 80004e6:	f3bf 8f4f 	dsb	sy
    BX      lr                                      // Return to caller
 80004ea:	4770      	bx	lr
    LDR     r1, =_tx_timer_system_clock             // Pickup address of system clock
 80004ec:	24000730 	.word	0x24000730
    LDR     r3, =_tx_timer_time_slice               // Pickup address of time-slice
 80004f0:	24000c90 	.word	0x24000c90
    LDR     r3, =_tx_timer_expired_time_slice       // Pickup address of expired flag
 80004f4:	24000734 	.word	0x24000734
    LDR     r1, =_tx_timer_current_ptr              // Pickup current timer pointer address
 80004f8:	240007c0 	.word	0x240007c0
    LDR     r3, =_tx_timer_expired                  // Pickup expiration flag address
 80004fc:	240007c4 	.word	0x240007c4
    LDR     r3, =_tx_timer_list_end                 // Pickup addr of timer list end
 8000500:	240007bc 	.word	0x240007bc
    LDR     r3, =_tx_timer_list_start               // Pickup addr of timer list start
 8000504:	240007b8 	.word	0x240007b8
    LDR     r0, =_tx_thread_preempt_disable         // Build address of preempt disable flag
 8000508:	24000724 	.word	0x24000724
    LDR     r0, =_tx_thread_current_ptr             // Build current thread pointer address
 800050c:	2400068c 	.word	0x2400068c
    LDR     r2, =_tx_thread_execute_ptr             // Build execute thread pointer address
 8000510:	24000690 	.word	0x24000690
    LDR     r0, =0xE000ED04                         // Build address of control register
 8000514:	e000ed04 	.word	0xe000ed04

08000518 <strlen>:
 8000518:	4603      	mov	r3, r0
 800051a:	f813 2b01 	ldrb.w	r2, [r3], #1
 800051e:	2a00      	cmp	r2, #0
 8000520:	d1fb      	bne.n	800051a <strlen+0x2>
 8000522:	1a18      	subs	r0, r3, r0
 8000524:	3801      	subs	r0, #1
 8000526:	4770      	bx	lr

08000528 <__aeabi_uldivmod>:
 8000528:	b953      	cbnz	r3, 8000540 <__aeabi_uldivmod+0x18>
 800052a:	b94a      	cbnz	r2, 8000540 <__aeabi_uldivmod+0x18>
 800052c:	2900      	cmp	r1, #0
 800052e:	bf08      	it	eq
 8000530:	2800      	cmpeq	r0, #0
 8000532:	bf1c      	itt	ne
 8000534:	f04f 31ff 	movne.w	r1, #4294967295
 8000538:	f04f 30ff 	movne.w	r0, #4294967295
 800053c:	f000 b974 	b.w	8000828 <__aeabi_idiv0>
 8000540:	f1ad 0c08 	sub.w	ip, sp, #8
 8000544:	e96d ce04 	strd	ip, lr, [sp, #-16]!
 8000548:	f000 f806 	bl	8000558 <__udivmoddi4>
 800054c:	f8dd e004 	ldr.w	lr, [sp, #4]
 8000550:	e9dd 2302 	ldrd	r2, r3, [sp, #8]
 8000554:	b004      	add	sp, #16
 8000556:	4770      	bx	lr

08000558 <__udivmoddi4>:
 8000558:	e92d 47f0 	stmdb	sp!, {r4, r5, r6, r7, r8, r9, sl, lr}
 800055c:	9d08      	ldr	r5, [sp, #32]
 800055e:	4604      	mov	r4, r0
 8000560:	468e      	mov	lr, r1
 8000562:	2b00      	cmp	r3, #0
 8000564:	d14d      	bne.n	8000602 <__udivmoddi4+0xaa>
 8000566:	428a      	cmp	r2, r1
 8000568:	4694      	mov	ip, r2
 800056a:	d969      	bls.n	8000640 <__udivmoddi4+0xe8>
 800056c:	fab2 f282 	clz	r2, r2
 8000570:	b152      	cbz	r2, 8000588 <__udivmoddi4+0x30>
 8000572:	fa01 f302 	lsl.w	r3, r1, r2
 8000576:	f1c2 0120 	rsb	r1, r2, #32
 800057a:	fa20 f101 	lsr.w	r1, r0, r1
 800057e:	fa0c fc02 	lsl.w	ip, ip, r2
 8000582:	ea41 0e03 	orr.w	lr, r1, r3
 8000586:	4094      	lsls	r4, r2
 8000588:	ea4f 481c 	mov.w	r8, ip, lsr #16
 800058c:	0c21      	lsrs	r1, r4, #16
 800058e:	fbbe f6f8 	udiv	r6, lr, r8
 8000592:	fa1f f78c 	uxth.w	r7, ip
 8000596:	fb08 e316 	mls	r3, r8, r6, lr
 800059a:	ea41 4303 	orr.w	r3, r1, r3, lsl #16
 800059e:	fb06 f107 	mul.w	r1, r6, r7
 80005a2:	4299      	cmp	r1, r3
 80005a4:	d90a      	bls.n	80005bc <__udivmoddi4+0x64>
 80005a6:	eb1c 0303 	adds.w	r3, ip, r3
 80005aa:	f106 30ff 	add.w	r0, r6, #4294967295
 80005ae:	f080 811f 	bcs.w	80007f0 <__udivmoddi4+0x298>
 80005b2:	4299      	cmp	r1, r3
 80005b4:	f240 811c 	bls.w	80007f0 <__udivmoddi4+0x298>
 80005b8:	3e02      	subs	r6, #2
 80005ba:	4463      	add	r3, ip
 80005bc:	1a5b      	subs	r3, r3, r1
 80005be:	b2a4      	uxth	r4, r4
 80005c0:	fbb3 f0f8 	udiv	r0, r3, r8
 80005c4:	fb08 3310 	mls	r3, r8, r0, r3
 80005c8:	ea44 4403 	orr.w	r4, r4, r3, lsl #16
 80005cc:	fb00 f707 	mul.w	r7, r0, r7
 80005d0:	42a7      	cmp	r7, r4
 80005d2:	d90a      	bls.n	80005ea <__udivmoddi4+0x92>
 80005d4:	eb1c 0404 	adds.w	r4, ip, r4
 80005d8:	f100 33ff 	add.w	r3, r0, #4294967295
 80005dc:	f080 810a 	bcs.w	80007f4 <__udivmoddi4+0x29c>
 80005e0:	42a7      	cmp	r7, r4
 80005e2:	f240 8107 	bls.w	80007f4 <__udivmoddi4+0x29c>
 80005e6:	4464      	add	r4, ip
 80005e8:	3802      	subs	r0, #2
 80005ea:	ea40 4006 	orr.w	r0, r0, r6, lsl #16
 80005ee:	1be4      	subs	r4, r4, r7
 80005f0:	2600      	movs	r6, #0
 80005f2:	b11d      	cbz	r5, 80005fc <__udivmoddi4+0xa4>
 80005f4:	40d4      	lsrs	r4, r2
 80005f6:	2300      	movs	r3, #0
 80005f8:	e9c5 4300 	strd	r4, r3, [r5]
 80005fc:	4631      	mov	r1, r6
 80005fe:	e8bd 87f0 	ldmia.w	sp!, {r4, r5, r6, r7, r8, r9, sl, pc}
 8000602:	428b      	cmp	r3, r1
 8000604:	d909      	bls.n	800061a <__udivmoddi4+0xc2>
 8000606:	2d00      	cmp	r5, #0
 8000608:	f000 80ef 	beq.w	80007ea <__udivmoddi4+0x292>
 800060c:	2600      	movs	r6, #0
 800060e:	e9c5 0100 	strd	r0, r1, [r5]
 8000612:	4630      	mov	r0, r6
 8000614:	4631      	mov	r1, r6
 8000616:	e8bd 87f0 	ldmia.w	sp!, {r4, r5, r6, r7, r8, r9, sl, pc}
 800061a:	fab3 f683 	clz	r6, r3
 800061e:	2e00      	cmp	r6, #0
 8000620:	d14a      	bne.n	80006b8 <__udivmoddi4+0x160>
 8000622:	428b      	cmp	r3, r1
 8000624:	d302      	bcc.n	800062c <__udivmoddi4+0xd4>
 8000626:	4282      	cmp	r2, r0
 8000628:	f200 80f9 	bhi.w	800081e <__udivmoddi4+0x2c6>
 800062c:	1a84      	subs	r4, r0, r2
 800062e:	eb61 0303 	sbc.w	r3, r1, r3
 8000632:	2001      	movs	r0, #1
 8000634:	469e      	mov	lr, r3
 8000636:	2d00      	cmp	r5, #0
 8000638:	d0e0      	beq.n	80005fc <__udivmoddi4+0xa4>
 800063a:	e9c5 4e00 	strd	r4, lr, [r5]
 800063e:	e7dd      	b.n	80005fc <__udivmoddi4+0xa4>
 8000640:	b902      	cbnz	r2, 8000644 <__udivmoddi4+0xec>
 8000642:	deff      	udf	#255	; 0xff
 8000644:	fab2 f282 	clz	r2, r2
 8000648:	2a00      	cmp	r2, #0
 800064a:	f040 8092 	bne.w	8000772 <__udivmoddi4+0x21a>
 800064e:	eba1 010c 	sub.w	r1, r1, ip
 8000652:	ea4f 471c 	mov.w	r7, ip, lsr #16
 8000656:	fa1f fe8c 	uxth.w	lr, ip
 800065a:	2601      	movs	r6, #1
 800065c:	0c20      	lsrs	r0, r4, #16
 800065e:	fbb1 f3f7 	udiv	r3, r1, r7
 8000662:	fb07 1113 	mls	r1, r7, r3, r1
 8000666:	ea40 4101 	orr.w	r1, r0, r1, lsl #16
 800066a:	fb0e f003 	mul.w	r0, lr, r3
 800066e:	4288      	cmp	r0, r1
 8000670:	d908      	bls.n	8000684 <__udivmoddi4+0x12c>
 8000672:	eb1c 0101 	adds.w	r1, ip, r1
 8000676:	f103 38ff 	add.w	r8, r3, #4294967295
 800067a:	d202      	bcs.n	8000682 <__udivmoddi4+0x12a>
 800067c:	4288      	cmp	r0, r1
 800067e:	f200 80cb 	bhi.w	8000818 <__udivmoddi4+0x2c0>
 8000682:	4643      	mov	r3, r8
 8000684:	1a09      	subs	r1, r1, r0
 8000686:	b2a4      	uxth	r4, r4
 8000688:	fbb1 f0f7 	udiv	r0, r1, r7
 800068c:	fb07 1110 	mls	r1, r7, r0, r1
 8000690:	ea44 4401 	orr.w	r4, r4, r1, lsl #16
 8000694:	fb0e fe00 	mul.w	lr, lr, r0
 8000698:	45a6      	cmp	lr, r4
 800069a:	d908      	bls.n	80006ae <__udivmoddi4+0x156>
 800069c:	eb1c 0404 	adds.w	r4, ip, r4
 80006a0:	f100 31ff 	add.w	r1, r0, #4294967295
 80006a4:	d202      	bcs.n	80006ac <__udivmoddi4+0x154>
 80006a6:	45a6      	cmp	lr, r4
 80006a8:	f200 80bb 	bhi.w	8000822 <__udivmoddi4+0x2ca>
 80006ac:	4608      	mov	r0, r1
 80006ae:	eba4 040e 	sub.w	r4, r4, lr
 80006b2:	ea40 4003 	orr.w	r0, r0, r3, lsl #16
 80006b6:	e79c      	b.n	80005f2 <__udivmoddi4+0x9a>
 80006b8:	f1c6 0720 	rsb	r7, r6, #32
 80006bc:	40b3      	lsls	r3, r6
 80006be:	fa22 fc07 	lsr.w	ip, r2, r7
 80006c2:	ea4c 0c03 	orr.w	ip, ip, r3
 80006c6:	fa20 f407 	lsr.w	r4, r0, r7
 80006ca:	fa01 f306 	lsl.w	r3, r1, r6
 80006ce:	431c      	orrs	r4, r3
 80006d0:	40f9      	lsrs	r1, r7
 80006d2:	ea4f 491c 	mov.w	r9, ip, lsr #16
 80006d6:	fa00 f306 	lsl.w	r3, r0, r6
 80006da:	fbb1 f8f9 	udiv	r8, r1, r9
 80006de:	0c20      	lsrs	r0, r4, #16
 80006e0:	fa1f fe8c 	uxth.w	lr, ip
 80006e4:	fb09 1118 	mls	r1, r9, r8, r1
 80006e8:	ea40 4101 	orr.w	r1, r0, r1, lsl #16
 80006ec:	fb08 f00e 	mul.w	r0, r8, lr
 80006f0:	4288      	cmp	r0, r1
 80006f2:	fa02 f206 	lsl.w	r2, r2, r6
 80006f6:	d90b      	bls.n	8000710 <__udivmoddi4+0x1b8>
 80006f8:	eb1c 0101 	adds.w	r1, ip, r1
 80006fc:	f108 3aff 	add.w	sl, r8, #4294967295
 8000700:	f080 8088 	bcs.w	8000814 <__udivmoddi4+0x2bc>
 8000704:	4288      	cmp	r0, r1
 8000706:	f240 8085 	bls.w	8000814 <__udivmoddi4+0x2bc>
 800070a:	f1a8 0802 	sub.w	r8, r8, #2
 800070e:	4461      	add	r1, ip
 8000710:	1a09      	subs	r1, r1, r0
 8000712:	b2a4      	uxth	r4, r4
 8000714:	fbb1 f0f9 	udiv	r0, r1, r9
 8000718:	fb09 1110 	mls	r1, r9, r0, r1
 800071c:	ea44 4101 	orr.w	r1, r4, r1, lsl #16
 8000720:	fb00 fe0e 	mul.w	lr, r0, lr
 8000724:	458e      	cmp	lr, r1
 8000726:	d908      	bls.n	800073a <__udivmoddi4+0x1e2>
 8000728:	eb1c 0101 	adds.w	r1, ip, r1
 800072c:	f100 34ff 	add.w	r4, r0, #4294967295
 8000730:	d26c      	bcs.n	800080c <__udivmoddi4+0x2b4>
 8000732:	458e      	cmp	lr, r1
 8000734:	d96a      	bls.n	800080c <__udivmoddi4+0x2b4>
 8000736:	3802      	subs	r0, #2
 8000738:	4461      	add	r1, ip
 800073a:	ea40 4008 	orr.w	r0, r0, r8, lsl #16
 800073e:	fba0 9402 	umull	r9, r4, r0, r2
 8000742:	eba1 010e 	sub.w	r1, r1, lr
 8000746:	42a1      	cmp	r1, r4
 8000748:	46c8      	mov	r8, r9
 800074a:	46a6      	mov	lr, r4
 800074c:	d356      	bcc.n	80007fc <__udivmoddi4+0x2a4>
 800074e:	d053      	beq.n	80007f8 <__udivmoddi4+0x2a0>
 8000750:	b15d      	cbz	r5, 800076a <__udivmoddi4+0x212>
 8000752:	ebb3 0208 	subs.w	r2, r3, r8
 8000756:	eb61 010e 	sbc.w	r1, r1, lr
 800075a:	fa01 f707 	lsl.w	r7, r1, r7
 800075e:	fa22 f306 	lsr.w	r3, r2, r6
 8000762:	40f1      	lsrs	r1, r6
 8000764:	431f      	orrs	r7, r3
 8000766:	e9c5 7100 	strd	r7, r1, [r5]
 800076a:	2600      	movs	r6, #0
 800076c:	4631      	mov	r1, r6
 800076e:	e8bd 87f0 	ldmia.w	sp!, {r4, r5, r6, r7, r8, r9, sl, pc}
 8000772:	f1c2 0320 	rsb	r3, r2, #32
 8000776:	40d8      	lsrs	r0, r3
 8000778:	fa0c fc02 	lsl.w	ip, ip, r2
 800077c:	fa21 f303 	lsr.w	r3, r1, r3
 8000780:	4091      	lsls	r1, r2
 8000782:	4301      	orrs	r1, r0
 8000784:	ea4f 471c 	mov.w	r7, ip, lsr #16
 8000788:	fa1f fe8c 	uxth.w	lr, ip
 800078c:	fbb3 f0f7 	udiv	r0, r3, r7
 8000790:	fb07 3610 	mls	r6, r7, r0, r3
 8000794:	0c0b      	lsrs	r3, r1, #16
 8000796:	ea43 4306 	orr.w	r3, r3, r6, lsl #16
 800079a:	fb00 f60e 	mul.w	r6, r0, lr
 800079e:	429e      	cmp	r6, r3
 80007a0:	fa04 f402 	lsl.w	r4, r4, r2
 80007a4:	d908      	bls.n	80007b8 <__udivmoddi4+0x260>
 80007a6:	eb1c 0303 	adds.w	r3, ip, r3
 80007aa:	f100 38ff 	add.w	r8, r0, #4294967295
 80007ae:	d22f      	bcs.n	8000810 <__udivmoddi4+0x2b8>
 80007b0:	429e      	cmp	r6, r3
 80007b2:	d92d      	bls.n	8000810 <__udivmoddi4+0x2b8>
 80007b4:	3802      	subs	r0, #2
 80007b6:	4463      	add	r3, ip
 80007b8:	1b9b      	subs	r3, r3, r6
 80007ba:	b289      	uxth	r1, r1
 80007bc:	fbb3 f6f7 	udiv	r6, r3, r7
 80007c0:	fb07 3316 	mls	r3, r7, r6, r3
 80007c4:	ea41 4103 	orr.w	r1, r1, r3, lsl #16
 80007c8:	fb06 f30e 	mul.w	r3, r6, lr
 80007cc:	428b      	cmp	r3, r1
 80007ce:	d908      	bls.n	80007e2 <__udivmoddi4+0x28a>
 80007d0:	eb1c 0101 	adds.w	r1, ip, r1
 80007d4:	f106 38ff 	add.w	r8, r6, #4294967295
 80007d8:	d216      	bcs.n	8000808 <__udivmoddi4+0x2b0>
 80007da:	428b      	cmp	r3, r1
 80007dc:	d914      	bls.n	8000808 <__udivmoddi4+0x2b0>
 80007de:	3e02      	subs	r6, #2
 80007e0:	4461      	add	r1, ip
 80007e2:	1ac9      	subs	r1, r1, r3
 80007e4:	ea46 4600 	orr.w	r6, r6, r0, lsl #16
 80007e8:	e738      	b.n	800065c <__udivmoddi4+0x104>
 80007ea:	462e      	mov	r6, r5
 80007ec:	4628      	mov	r0, r5
 80007ee:	e705      	b.n	80005fc <__udivmoddi4+0xa4>
 80007f0:	4606      	mov	r6, r0
 80007f2:	e6e3      	b.n	80005bc <__udivmoddi4+0x64>
 80007f4:	4618      	mov	r0, r3
 80007f6:	e6f8      	b.n	80005ea <__udivmoddi4+0x92>
 80007f8:	454b      	cmp	r3, r9
 80007fa:	d2a9      	bcs.n	8000750 <__udivmoddi4+0x1f8>
 80007fc:	ebb9 0802 	subs.w	r8, r9, r2
 8000800:	eb64 0e0c 	sbc.w	lr, r4, ip
 8000804:	3801      	subs	r0, #1
 8000806:	e7a3      	b.n	8000750 <__udivmoddi4+0x1f8>
 8000808:	4646      	mov	r6, r8
 800080a:	e7ea      	b.n	80007e2 <__udivmoddi4+0x28a>
 800080c:	4620      	mov	r0, r4
 800080e:	e794      	b.n	800073a <__udivmoddi4+0x1e2>
 8000810:	4640      	mov	r0, r8
 8000812:	e7d1      	b.n	80007b8 <__udivmoddi4+0x260>
 8000814:	46d0      	mov	r8, sl
 8000816:	e77b      	b.n	8000710 <__udivmoddi4+0x1b8>
 8000818:	3b02      	subs	r3, #2
 800081a:	4461      	add	r1, ip
 800081c:	e732      	b.n	8000684 <__udivmoddi4+0x12c>
 800081e:	4630      	mov	r0, r6
 8000820:	e709      	b.n	8000636 <__udivmoddi4+0xde>
 8000822:	4464      	add	r4, ip
 8000824:	3802      	subs	r0, #2
 8000826:	e742      	b.n	80006ae <__udivmoddi4+0x156>

08000828 <__aeabi_idiv0>:
 8000828:	4770      	bx	lr
 800082a:	bf00      	nop

0800082c <tx_application_define>:
  * @brief  Define the initial system.
  * @param  first_unused_memory : Pointer to the first unused memory
  * @retval None
  */
VOID tx_application_define(VOID *first_unused_memory)
{
 800082c:	b580      	push	{r7, lr}
 800082e:	b086      	sub	sp, #24
 8000830:	af02      	add	r7, sp, #8
 8000832:	6078      	str	r0, [r7, #4]
  /* USER CODE BEGIN  tx_application_define_1*/

  /* USER CODE END  tx_application_define_1 */
#if (USE_STATIC_ALLOCATION == 1)
  UINT status = TX_SUCCESS;
 8000834:	2300      	movs	r3, #0
 8000836:	60fb      	str	r3, [r7, #12]
  VOID *memory_ptr;

  if (tx_byte_pool_create(&tx_app_byte_pool, "Tx App memory pool", tx_byte_pool_buffer, TX_APP_MEM_POOL_SIZE) != TX_SUCCESS)
 8000838:	2334      	movs	r3, #52	; 0x34
 800083a:	9300      	str	r3, [sp, #0]
 800083c:	f44f 6380 	mov.w	r3, #1024	; 0x400
 8000840:	4a15      	ldr	r2, [pc, #84]	; (8000898 <tx_application_define+0x6c>)
 8000842:	4916      	ldr	r1, [pc, #88]	; (800089c <tx_application_define+0x70>)
 8000844:	4816      	ldr	r0, [pc, #88]	; (80008a0 <tx_application_define+0x74>)
 8000846:	f00f fda7 	bl	8010398 <_txe_byte_pool_create>
 800084a:	4603      	mov	r3, r0
 800084c:	2b00      	cmp	r3, #0
 800084e:	d109      	bne.n	8000864 <tx_application_define+0x38>
  {
    /* USER CODE BEGIN TX_Byte_Pool_Success */

    /* USER CODE END TX_Byte_Pool_Success */

    memory_ptr = (VOID *)&tx_app_byte_pool;
 8000850:	4b13      	ldr	r3, [pc, #76]	; (80008a0 <tx_application_define+0x74>)
 8000852:	60bb      	str	r3, [r7, #8]
    status = App_ThreadX_Init(memory_ptr);
 8000854:	68b8      	ldr	r0, [r7, #8]
 8000856:	f000 f8c1 	bl	80009dc <App_ThreadX_Init>
 800085a:	60f8      	str	r0, [r7, #12]
    if (status != TX_SUCCESS)
 800085c:	68fb      	ldr	r3, [r7, #12]
 800085e:	2b00      	cmp	r3, #0
 8000860:	d000      	beq.n	8000864 <tx_application_define+0x38>
    {
      /* USER CODE BEGIN  App_ThreadX_Init_Error */
      while(1)
 8000862:	e7fe      	b.n	8000862 <tx_application_define+0x36>

    /* USER CODE END  App_ThreadX_Init_Success */

  }

  if (tx_byte_pool_create(&ux_device_app_byte_pool, "Ux App memory pool", ux_device_byte_pool_buffer, UX_DEVICE_APP_MEM_POOL_SIZE) != TX_SUCCESS)
 8000864:	2334      	movs	r3, #52	; 0x34
 8000866:	9300      	str	r3, [sp, #0]
 8000868:	f44f 5330 	mov.w	r3, #11264	; 0x2c00
 800086c:	4a0d      	ldr	r2, [pc, #52]	; (80008a4 <tx_application_define+0x78>)
 800086e:	490e      	ldr	r1, [pc, #56]	; (80008a8 <tx_application_define+0x7c>)
 8000870:	480e      	ldr	r0, [pc, #56]	; (80008ac <tx_application_define+0x80>)
 8000872:	f00f fd91 	bl	8010398 <_txe_byte_pool_create>
 8000876:	4603      	mov	r3, r0
 8000878:	2b00      	cmp	r3, #0
 800087a:	d109      	bne.n	8000890 <tx_application_define+0x64>
  {
    /* USER CODE BEGIN UX_Device_Byte_Pool_Success */

    /* USER CODE END UX_Device_Byte_Pool_Success */

    memory_ptr = (VOID *)&ux_device_app_byte_pool;
 800087c:	4b0b      	ldr	r3, [pc, #44]	; (80008ac <tx_application_define+0x80>)
 800087e:	60bb      	str	r3, [r7, #8]
    status = MX_USBX_Device_Init(memory_ptr);
 8000880:	68b8      	ldr	r0, [r7, #8]
 8000882:	f013 ff4f 	bl	8014724 <MX_USBX_Device_Init>
 8000886:	60f8      	str	r0, [r7, #12]
    if (status != UX_SUCCESS)
 8000888:	68fb      	ldr	r3, [r7, #12]
 800088a:	2b00      	cmp	r3, #0
 800088c:	d000      	beq.n	8000890 <tx_application_define+0x64>
    {
      /* USER CODE BEGIN  MX_USBX_Device_Init_Error */
      while(1)
 800088e:	e7fe      	b.n	800088e <tx_application_define+0x62>
  /* USER CODE BEGIN DYNAMIC_MEM_ALLOC */
  (void)first_unused_memory;
  /* USER CODE END DYNAMIC_MEM_ALLOC */
#endif

}
 8000890:	bf00      	nop
 8000892:	3710      	adds	r7, #16
 8000894:	46bd      	mov	sp, r7
 8000896:	bd80      	pop	{r7, pc}
 8000898:	24000094 	.word	0x24000094
 800089c:	08015a60 	.word	0x08015a60
 80008a0:	24000494 	.word	0x24000494
 80008a4:	24029000 	.word	0x24029000
 80008a8:	08015a74 	.word	0x08015a74
 80008ac:	240004c8 	.word	0x240004c8

080008b0 <SystemInit>:
  *         configuration.
  * @param  None
  * @retval None
  */
void SystemInit (void)
{
 80008b0:	b480      	push	{r7}
 80008b2:	af00      	add	r7, sp, #0
  /* FPU settings ------------------------------------------------------------*/
  #if (__FPU_PRESENT == 1) && (__FPU_USED == 1)
    SCB->CPACR |= ((3UL << (10*2))|(3UL << (11*2)));  /* set CP10 and CP11 Full Access */
 80008b4:	4b3d      	ldr	r3, [pc, #244]	; (80009ac <SystemInit+0xfc>)
 80008b6:	f8d3 3088 	ldr.w	r3, [r3, #136]	; 0x88
 80008ba:	4a3c      	ldr	r2, [pc, #240]	; (80009ac <SystemInit+0xfc>)
 80008bc:	f443 0370 	orr.w	r3, r3, #15728640	; 0xf00000
 80008c0:	f8c2 3088 	str.w	r3, [r2, #136]	; 0x88
  #endif

    /*SEVONPEND enabled so that an interrupt coming from the CPU(n) interrupt signal is
     detectable by the CPU after a WFI/WFE instruction.*/
 SCB->SCR |= SCB_SCR_SEVONPEND_Msk;
 80008c4:	4b39      	ldr	r3, [pc, #228]	; (80009ac <SystemInit+0xfc>)
 80008c6:	691b      	ldr	r3, [r3, #16]
 80008c8:	4a38      	ldr	r2, [pc, #224]	; (80009ac <SystemInit+0xfc>)
 80008ca:	f043 0310 	orr.w	r3, r3, #16
 80008ce:	6113      	str	r3, [r2, #16]

#if defined(CORE_CM7)
  /* Reset the RCC clock configuration to the default reset state ------------*/
   /* Increasing the CPU frequency */
  if(FLASH_LATENCY_DEFAULT  > (READ_BIT((FLASH->ACR), FLASH_ACR_LATENCY)))
 80008d0:	4b37      	ldr	r3, [pc, #220]	; (80009b0 <SystemInit+0x100>)
 80008d2:	681b      	ldr	r3, [r3, #0]
 80008d4:	f003 030f 	and.w	r3, r3, #15
 80008d8:	2b06      	cmp	r3, #6
 80008da:	d807      	bhi.n	80008ec <SystemInit+0x3c>
  {
    /* Program the new number of wait states to the LATENCY bits in the FLASH_ACR register */
    MODIFY_REG(FLASH->ACR, FLASH_ACR_LATENCY, (uint32_t)(FLASH_LATENCY_DEFAULT));
 80008dc:	4b34      	ldr	r3, [pc, #208]	; (80009b0 <SystemInit+0x100>)
 80008de:	681b      	ldr	r3, [r3, #0]
 80008e0:	f023 030f 	bic.w	r3, r3, #15
 80008e4:	4a32      	ldr	r2, [pc, #200]	; (80009b0 <SystemInit+0x100>)
 80008e6:	f043 0307 	orr.w	r3, r3, #7
 80008ea:	6013      	str	r3, [r2, #0]
  }

  /* Set HSION bit */
  RCC->CR |= RCC_CR_HSION;
 80008ec:	4b31      	ldr	r3, [pc, #196]	; (80009b4 <SystemInit+0x104>)
 80008ee:	681b      	ldr	r3, [r3, #0]
 80008f0:	4a30      	ldr	r2, [pc, #192]	; (80009b4 <SystemInit+0x104>)
 80008f2:	f043 0301 	orr.w	r3, r3, #1
 80008f6:	6013      	str	r3, [r2, #0]

  /* Reset CFGR register */
  RCC->CFGR = 0x00000000;
 80008f8:	4b2e      	ldr	r3, [pc, #184]	; (80009b4 <SystemInit+0x104>)
 80008fa:	2200      	movs	r2, #0
 80008fc:	611a      	str	r2, [r3, #16]

  /* Reset HSEON, HSECSSON, CSION, HSI48ON, CSIKERON, PLL1ON, PLL2ON and PLL3ON bits */
  RCC->CR &= 0xEAF6ED7FU;
 80008fe:	4b2d      	ldr	r3, [pc, #180]	; (80009b4 <SystemInit+0x104>)
 8000900:	681a      	ldr	r2, [r3, #0]
 8000902:	492c      	ldr	r1, [pc, #176]	; (80009b4 <SystemInit+0x104>)
 8000904:	4b2c      	ldr	r3, [pc, #176]	; (80009b8 <SystemInit+0x108>)
 8000906:	4013      	ands	r3, r2
 8000908:	600b      	str	r3, [r1, #0]

   /* Decreasing the number of wait states because of lower CPU frequency */
  if(FLASH_LATENCY_DEFAULT  < (READ_BIT((FLASH->ACR), FLASH_ACR_LATENCY)))
 800090a:	4b29      	ldr	r3, [pc, #164]	; (80009b0 <SystemInit+0x100>)
 800090c:	681b      	ldr	r3, [r3, #0]
 800090e:	f003 0308 	and.w	r3, r3, #8
 8000912:	2b00      	cmp	r3, #0
 8000914:	d007      	beq.n	8000926 <SystemInit+0x76>
  {
    /* Program the new number of wait states to the LATENCY bits in the FLASH_ACR register */
    MODIFY_REG(FLASH->ACR, FLASH_ACR_LATENCY, (uint32_t)(FLASH_LATENCY_DEFAULT));
 8000916:	4b26      	ldr	r3, [pc, #152]	; (80009b0 <SystemInit+0x100>)
 8000918:	681b      	ldr	r3, [r3, #0]
 800091a:	f023 030f 	bic.w	r3, r3, #15
 800091e:	4a24      	ldr	r2, [pc, #144]	; (80009b0 <SystemInit+0x100>)
 8000920:	f043 0307 	orr.w	r3, r3, #7
 8000924:	6013      	str	r3, [r2, #0]
  }

  /* Reset D1CFGR register */
  RCC->D1CFGR = 0x00000000;
 8000926:	4b23      	ldr	r3, [pc, #140]	; (80009b4 <SystemInit+0x104>)
 8000928:	2200      	movs	r2, #0
 800092a:	619a      	str	r2, [r3, #24]

  /* Reset D2CFGR register */
  RCC->D2CFGR = 0x00000000;
 800092c:	4b21      	ldr	r3, [pc, #132]	; (80009b4 <SystemInit+0x104>)
 800092e:	2200      	movs	r2, #0
 8000930:	61da      	str	r2, [r3, #28]

  /* Reset D3CFGR register */
  RCC->D3CFGR = 0x00000000;
 8000932:	4b20      	ldr	r3, [pc, #128]	; (80009b4 <SystemInit+0x104>)
 8000934:	2200      	movs	r2, #0
 8000936:	621a      	str	r2, [r3, #32]

  /* Reset PLLCKSELR register */
  RCC->PLLCKSELR = 0x02020200;
 8000938:	4b1e      	ldr	r3, [pc, #120]	; (80009b4 <SystemInit+0x104>)
 800093a:	4a20      	ldr	r2, [pc, #128]	; (80009bc <SystemInit+0x10c>)
 800093c:	629a      	str	r2, [r3, #40]	; 0x28

  /* Reset PLLCFGR register */
  RCC->PLLCFGR = 0x01FF0000;
 800093e:	4b1d      	ldr	r3, [pc, #116]	; (80009b4 <SystemInit+0x104>)
 8000940:	4a1f      	ldr	r2, [pc, #124]	; (80009c0 <SystemInit+0x110>)
 8000942:	62da      	str	r2, [r3, #44]	; 0x2c
  /* Reset PLL1DIVR register */
  RCC->PLL1DIVR = 0x01010280;
 8000944:	4b1b      	ldr	r3, [pc, #108]	; (80009b4 <SystemInit+0x104>)
 8000946:	4a1f      	ldr	r2, [pc, #124]	; (80009c4 <SystemInit+0x114>)
 8000948:	631a      	str	r2, [r3, #48]	; 0x30
  /* Reset PLL1FRACR register */
  RCC->PLL1FRACR = 0x00000000;
 800094a:	4b1a      	ldr	r3, [pc, #104]	; (80009b4 <SystemInit+0x104>)
 800094c:	2200      	movs	r2, #0
 800094e:	635a      	str	r2, [r3, #52]	; 0x34

  /* Reset PLL2DIVR register */
  RCC->PLL2DIVR = 0x01010280;
 8000950:	4b18      	ldr	r3, [pc, #96]	; (80009b4 <SystemInit+0x104>)
 8000952:	4a1c      	ldr	r2, [pc, #112]	; (80009c4 <SystemInit+0x114>)
 8000954:	639a      	str	r2, [r3, #56]	; 0x38

  /* Reset PLL2FRACR register */

  RCC->PLL2FRACR = 0x00000000;
 8000956:	4b17      	ldr	r3, [pc, #92]	; (80009b4 <SystemInit+0x104>)
 8000958:	2200      	movs	r2, #0
 800095a:	63da      	str	r2, [r3, #60]	; 0x3c
  /* Reset PLL3DIVR register */
  RCC->PLL3DIVR = 0x01010280;
 800095c:	4b15      	ldr	r3, [pc, #84]	; (80009b4 <SystemInit+0x104>)
 800095e:	4a19      	ldr	r2, [pc, #100]	; (80009c4 <SystemInit+0x114>)
 8000960:	641a      	str	r2, [r3, #64]	; 0x40

  /* Reset PLL3FRACR register */
  RCC->PLL3FRACR = 0x00000000;
 8000962:	4b14      	ldr	r3, [pc, #80]	; (80009b4 <SystemInit+0x104>)
 8000964:	2200      	movs	r2, #0
 8000966:	645a      	str	r2, [r3, #68]	; 0x44

  /* Reset HSEBYP bit */
  RCC->CR &= 0xFFFBFFFFU;
 8000968:	4b12      	ldr	r3, [pc, #72]	; (80009b4 <SystemInit+0x104>)
 800096a:	681b      	ldr	r3, [r3, #0]
 800096c:	4a11      	ldr	r2, [pc, #68]	; (80009b4 <SystemInit+0x104>)
 800096e:	f423 2380 	bic.w	r3, r3, #262144	; 0x40000
 8000972:	6013      	str	r3, [r2, #0]

  /* Disable all interrupts */
  RCC->CIER = 0x00000000;
 8000974:	4b0f      	ldr	r3, [pc, #60]	; (80009b4 <SystemInit+0x104>)
 8000976:	2200      	movs	r2, #0
 8000978:	661a      	str	r2, [r3, #96]	; 0x60

  /* Enable CortexM7 HSEM EXTI line (line 78)*/
  EXTI_D2->EMR3 |= 0x4000UL;
 800097a:	4b13      	ldr	r3, [pc, #76]	; (80009c8 <SystemInit+0x118>)
 800097c:	6a5b      	ldr	r3, [r3, #36]	; 0x24
 800097e:	4a12      	ldr	r2, [pc, #72]	; (80009c8 <SystemInit+0x118>)
 8000980:	f443 4380 	orr.w	r3, r3, #16384	; 0x4000
 8000984:	6253      	str	r3, [r2, #36]	; 0x24

  if((DBGMCU->IDCODE & 0xFFFF0000U) < 0x20000000U)
 8000986:	4b11      	ldr	r3, [pc, #68]	; (80009cc <SystemInit+0x11c>)
 8000988:	681a      	ldr	r2, [r3, #0]
 800098a:	4b11      	ldr	r3, [pc, #68]	; (80009d0 <SystemInit+0x120>)
 800098c:	4013      	ands	r3, r2
 800098e:	f1b3 5f00 	cmp.w	r3, #536870912	; 0x20000000
 8000992:	d202      	bcs.n	800099a <SystemInit+0xea>
  {
    /* if stm32h7 revY*/
    /* Change  the switch matrix read issuing capability to 1 for the AXI SRAM target (Target 7) */
    *((__IO uint32_t*)0x51008108) = 0x000000001U;
 8000994:	4b0f      	ldr	r3, [pc, #60]	; (80009d4 <SystemInit+0x124>)
 8000996:	2201      	movs	r2, #1
 8000998:	601a      	str	r2, [r3, #0]
  /*
   * Disable the FMC bank1 (enabled after reset).
   * This, prevents CPU speculation access on this bank which blocks the use of FMC during
   * 24us. During this time the others FMC master (such as LTDC) cannot use it!
   */
  FMC_Bank1_R->BTCR[0] = 0x000030D2;
 800099a:	4b0f      	ldr	r3, [pc, #60]	; (80009d8 <SystemInit+0x128>)
 800099c:	f243 02d2 	movw	r2, #12498	; 0x30d2
 80009a0:	601a      	str	r2, [r3, #0]
#endif /* USER_VECT_TAB_ADDRESS */

#else
#error Please #define CORE_CM4 or CORE_CM7
#endif /* CORE_CM4 */
}
 80009a2:	bf00      	nop
 80009a4:	46bd      	mov	sp, r7
 80009a6:	f85d 7b04 	ldr.w	r7, [sp], #4
 80009aa:	4770      	bx	lr
 80009ac:	e000ed00 	.word	0xe000ed00
 80009b0:	52002000 	.word	0x52002000
 80009b4:	58024400 	.word	0x58024400
 80009b8:	eaf6ed7f 	.word	0xeaf6ed7f
 80009bc:	02020200 	.word	0x02020200
 80009c0:	01ff0000 	.word	0x01ff0000
 80009c4:	01010280 	.word	0x01010280
 80009c8:	580000c0 	.word	0x580000c0
 80009cc:	5c001000 	.word	0x5c001000
 80009d0:	ffff0000 	.word	0xffff0000
 80009d4:	51008108 	.word	0x51008108
 80009d8:	52004000 	.word	0x52004000

080009dc <App_ThreadX_Init>:
  * @brief  Application ThreadX Initialization.
  * @param memory_ptr: memory pointer
  * @retval int
  */
UINT App_ThreadX_Init(VOID *memory_ptr)
{
 80009dc:	b480      	push	{r7}
 80009de:	b085      	sub	sp, #20
 80009e0:	af00      	add	r7, sp, #0
 80009e2:	6078      	str	r0, [r7, #4]
  UINT ret = TX_SUCCESS;
 80009e4:	2300      	movs	r3, #0
 80009e6:	60fb      	str	r3, [r7, #12]
  TX_BYTE_POOL *byte_pool = (TX_BYTE_POOL*)memory_ptr;
 80009e8:	687b      	ldr	r3, [r7, #4]
 80009ea:	60bb      	str	r3, [r7, #8]

  /* USER CODE BEGIN App_ThreadX_Init */

  /* USER CODE END App_ThreadX_Init */

  return ret;
 80009ec:	68fb      	ldr	r3, [r7, #12]
}
 80009ee:	4618      	mov	r0, r3
 80009f0:	3714      	adds	r7, #20
 80009f2:	46bd      	mov	sp, r7
 80009f4:	f85d 7b04 	ldr.w	r7, [sp], #4
 80009f8:	4770      	bx	lr

080009fa <MX_ThreadX_Init>:
  * @brief  MX_ThreadX_Init
  * @param  None
  * @retval None
  */
void MX_ThreadX_Init(void)
{
 80009fa:	b580      	push	{r7, lr}
 80009fc:	af00      	add	r7, sp, #0
  /* USER CODE BEGIN  Before_Kernel_Start */

  /* USER CODE END  Before_Kernel_Start */

  tx_kernel_enter();
 80009fe:	f00d fbf9 	bl	800e1f4 <_tx_initialize_kernel_enter>

  /* USER CODE BEGIN  Kernel_Start_Error */

  /* USER CODE END  Kernel_Start_Error */
}
 8000a02:	bf00      	nop
 8000a04:	bd80      	pop	{r7, pc}
	...

08000a08 <MX_DMA_Init>:

/**
  * Enable DMA controller clock
  */
void MX_DMA_Init(void)
{
 8000a08:	b580      	push	{r7, lr}
 8000a0a:	b082      	sub	sp, #8
 8000a0c:	af00      	add	r7, sp, #0

  /* DMA controller clock enable */
  __HAL_RCC_DMA1_CLK_ENABLE();
 8000a0e:	4b0d      	ldr	r3, [pc, #52]	; (8000a44 <MX_DMA_Init+0x3c>)
 8000a10:	f8d3 30d8 	ldr.w	r3, [r3, #216]	; 0xd8
 8000a14:	4a0b      	ldr	r2, [pc, #44]	; (8000a44 <MX_DMA_Init+0x3c>)
 8000a16:	f043 0301 	orr.w	r3, r3, #1
 8000a1a:	f8c2 30d8 	str.w	r3, [r2, #216]	; 0xd8
 8000a1e:	4b09      	ldr	r3, [pc, #36]	; (8000a44 <MX_DMA_Init+0x3c>)
 8000a20:	f8d3 30d8 	ldr.w	r3, [r3, #216]	; 0xd8
 8000a24:	f003 0301 	and.w	r3, r3, #1
 8000a28:	607b      	str	r3, [r7, #4]
 8000a2a:	687b      	ldr	r3, [r7, #4]

  /* DMA interrupt init */
  /* DMA1_Stream0_IRQn interrupt configuration */
  HAL_NVIC_SetPriority(DMA1_Stream0_IRQn, 0, 0);
 8000a2c:	2200      	movs	r2, #0
 8000a2e:	2100      	movs	r1, #0
 8000a30:	200b      	movs	r0, #11
 8000a32:	f000 fe15 	bl	8001660 <HAL_NVIC_SetPriority>
  HAL_NVIC_EnableIRQ(DMA1_Stream0_IRQn);
 8000a36:	200b      	movs	r0, #11
 8000a38:	f000 fe2c 	bl	8001694 <HAL_NVIC_EnableIRQ>

}
 8000a3c:	bf00      	nop
 8000a3e:	3708      	adds	r7, #8
 8000a40:	46bd      	mov	sp, r7
 8000a42:	bd80      	pop	{r7, pc}
 8000a44:	58024400 	.word	0x58024400

08000a48 <MX_GPIO_Init>:
/** Configure pins
     PH0-OSC_IN (PH0)   ------> RCC_OSC_IN
     PH1-OSC_OUT (PH1)   ------> RCC_OSC_OUT
*/
void MX_GPIO_Init(void)
{
 8000a48:	b480      	push	{r7}
 8000a4a:	b085      	sub	sp, #20
 8000a4c:	af00      	add	r7, sp, #0

  /* GPIO Ports Clock Enable */
  __HAL_RCC_GPIOH_CLK_ENABLE();
 8000a4e:	4b19      	ldr	r3, [pc, #100]	; (8000ab4 <MX_GPIO_Init+0x6c>)
 8000a50:	f8d3 30e0 	ldr.w	r3, [r3, #224]	; 0xe0
 8000a54:	4a17      	ldr	r2, [pc, #92]	; (8000ab4 <MX_GPIO_Init+0x6c>)
 8000a56:	f043 0380 	orr.w	r3, r3, #128	; 0x80
 8000a5a:	f8c2 30e0 	str.w	r3, [r2, #224]	; 0xe0
 8000a5e:	4b15      	ldr	r3, [pc, #84]	; (8000ab4 <MX_GPIO_Init+0x6c>)
 8000a60:	f8d3 30e0 	ldr.w	r3, [r3, #224]	; 0xe0
 8000a64:	f003 0380 	and.w	r3, r3, #128	; 0x80
 8000a68:	60fb      	str	r3, [r7, #12]
 8000a6a:	68fb      	ldr	r3, [r7, #12]
  __HAL_RCC_GPIOD_CLK_ENABLE();
 8000a6c:	4b11      	ldr	r3, [pc, #68]	; (8000ab4 <MX_GPIO_Init+0x6c>)
 8000a6e:	f8d3 30e0 	ldr.w	r3, [r3, #224]	; 0xe0
 8000a72:	4a10      	ldr	r2, [pc, #64]	; (8000ab4 <MX_GPIO_Init+0x6c>)
 8000a74:	f043 0308 	orr.w	r3, r3, #8
 8000a78:	f8c2 30e0 	str.w	r3, [r2, #224]	; 0xe0
 8000a7c:	4b0d      	ldr	r3, [pc, #52]	; (8000ab4 <MX_GPIO_Init+0x6c>)
 8000a7e:	f8d3 30e0 	ldr.w	r3, [r3, #224]	; 0xe0
 8000a82:	f003 0308 	and.w	r3, r3, #8
 8000a86:	60bb      	str	r3, [r7, #8]
 8000a88:	68bb      	ldr	r3, [r7, #8]
  __HAL_RCC_GPIOA_CLK_ENABLE();
 8000a8a:	4b0a      	ldr	r3, [pc, #40]	; (8000ab4 <MX_GPIO_Init+0x6c>)
 8000a8c:	f8d3 30e0 	ldr.w	r3, [r3, #224]	; 0xe0
 8000a90:	4a08      	ldr	r2, [pc, #32]	; (8000ab4 <MX_GPIO_Init+0x6c>)
 8000a92:	f043 0301 	orr.w	r3, r3, #1
 8000a96:	f8c2 30e0 	str.w	r3, [r2, #224]	; 0xe0
 8000a9a:	4b06      	ldr	r3, [pc, #24]	; (8000ab4 <MX_GPIO_Init+0x6c>)
 8000a9c:	f8d3 30e0 	ldr.w	r3, [r3, #224]	; 0xe0
 8000aa0:	f003 0301 	and.w	r3, r3, #1
 8000aa4:	607b      	str	r3, [r7, #4]
 8000aa6:	687b      	ldr	r3, [r7, #4]

}
 8000aa8:	bf00      	nop
 8000aaa:	3714      	adds	r7, #20
 8000aac:	46bd      	mov	sp, r7
 8000aae:	f85d 7b04 	ldr.w	r7, [sp], #4
 8000ab2:	4770      	bx	lr
 8000ab4:	58024400 	.word	0x58024400

08000ab8 <main>:
/**
  * @brief  The application entry point.
  * @retval int
  */
int main(void)
{
 8000ab8:	b580      	push	{r7, lr}
 8000aba:	b086      	sub	sp, #24
 8000abc:	af00      	add	r7, sp, #0
/* USER CODE BEGIN Boot_Mode_Sequence_0 */
  int32_t timeout;
/* USER CODE END Boot_Mode_Sequence_0 */

  /* MPU Configuration--------------------------------------------------------*/
  MPU_Config();
 8000abe:	f000 f961 	bl	8000d84 <MPU_Config>
  \details Turns on I-Cache
  */
__STATIC_FORCEINLINE void SCB_EnableICache (void)
{
  #if defined (__ICACHE_PRESENT) && (__ICACHE_PRESENT == 1U)
    if (SCB->CCR & SCB_CCR_IC_Msk) return;  /* return if ICache is already enabled */
 8000ac2:	4b56      	ldr	r3, [pc, #344]	; (8000c1c <main+0x164>)
 8000ac4:	695b      	ldr	r3, [r3, #20]
 8000ac6:	f403 3300 	and.w	r3, r3, #131072	; 0x20000
 8000aca:	2b00      	cmp	r3, #0
 8000acc:	d11b      	bne.n	8000b06 <main+0x4e>
  \details Acts as a special kind of Data Memory Barrier.
           It completes when all explicit memory accesses before this instruction complete.
 */
__STATIC_FORCEINLINE void __DSB(void)
{
  __ASM volatile ("dsb 0xF":::"memory");
 8000ace:	f3bf 8f4f 	dsb	sy
}
 8000ad2:	bf00      	nop
  __ASM volatile ("isb 0xF":::"memory");
 8000ad4:	f3bf 8f6f 	isb	sy
}
 8000ad8:	bf00      	nop

    __DSB();
    __ISB();
    SCB->ICIALLU = 0UL;                     /* invalidate I-Cache */
 8000ada:	4b50      	ldr	r3, [pc, #320]	; (8000c1c <main+0x164>)
 8000adc:	2200      	movs	r2, #0
 8000ade:	f8c3 2250 	str.w	r2, [r3, #592]	; 0x250
  __ASM volatile ("dsb 0xF":::"memory");
 8000ae2:	f3bf 8f4f 	dsb	sy
}
 8000ae6:	bf00      	nop
  __ASM volatile ("isb 0xF":::"memory");
 8000ae8:	f3bf 8f6f 	isb	sy
}
 8000aec:	bf00      	nop
    __DSB();
    __ISB();
    SCB->CCR |=  (uint32_t)SCB_CCR_IC_Msk;  /* enable I-Cache */
 8000aee:	4b4b      	ldr	r3, [pc, #300]	; (8000c1c <main+0x164>)
 8000af0:	695b      	ldr	r3, [r3, #20]
 8000af2:	4a4a      	ldr	r2, [pc, #296]	; (8000c1c <main+0x164>)
 8000af4:	f443 3300 	orr.w	r3, r3, #131072	; 0x20000
 8000af8:	6153      	str	r3, [r2, #20]
  __ASM volatile ("dsb 0xF":::"memory");
 8000afa:	f3bf 8f4f 	dsb	sy
}
 8000afe:	bf00      	nop
  __ASM volatile ("isb 0xF":::"memory");
 8000b00:	f3bf 8f6f 	isb	sy
}
 8000b04:	e000      	b.n	8000b08 <main+0x50>
    if (SCB->CCR & SCB_CCR_IC_Msk) return;  /* return if ICache is already enabled */
 8000b06:	bf00      	nop
  #if defined (__DCACHE_PRESENT) && (__DCACHE_PRESENT == 1U)
    uint32_t ccsidr;
    uint32_t sets;
    uint32_t ways;

    if (SCB->CCR & SCB_CCR_DC_Msk) return;  /* return if DCache is already enabled */
 8000b08:	4b44      	ldr	r3, [pc, #272]	; (8000c1c <main+0x164>)
 8000b0a:	695b      	ldr	r3, [r3, #20]
 8000b0c:	f403 3380 	and.w	r3, r3, #65536	; 0x10000
 8000b10:	2b00      	cmp	r3, #0
 8000b12:	d138      	bne.n	8000b86 <main+0xce>

    SCB->CSSELR = 0U;                       /* select Level 1 data cache */
 8000b14:	4b41      	ldr	r3, [pc, #260]	; (8000c1c <main+0x164>)
 8000b16:	2200      	movs	r2, #0
 8000b18:	f8c3 2084 	str.w	r2, [r3, #132]	; 0x84
  __ASM volatile ("dsb 0xF":::"memory");
 8000b1c:	f3bf 8f4f 	dsb	sy
}
 8000b20:	bf00      	nop
    __DSB();

    ccsidr = SCB->CCSIDR;
 8000b22:	4b3e      	ldr	r3, [pc, #248]	; (8000c1c <main+0x164>)
 8000b24:	f8d3 3080 	ldr.w	r3, [r3, #128]	; 0x80
 8000b28:	613b      	str	r3, [r7, #16]

                                            /* invalidate D-Cache */
    sets = (uint32_t)(CCSIDR_SETS(ccsidr));
 8000b2a:	693b      	ldr	r3, [r7, #16]
 8000b2c:	0b5b      	lsrs	r3, r3, #13
 8000b2e:	f3c3 030e 	ubfx	r3, r3, #0, #15
 8000b32:	60fb      	str	r3, [r7, #12]
    do {
      ways = (uint32_t)(CCSIDR_WAYS(ccsidr));
 8000b34:	693b      	ldr	r3, [r7, #16]
 8000b36:	08db      	lsrs	r3, r3, #3
 8000b38:	f3c3 0309 	ubfx	r3, r3, #0, #10
 8000b3c:	60bb      	str	r3, [r7, #8]
      do {
        SCB->DCISW = (((sets << SCB_DCISW_SET_Pos) & SCB_DCISW_SET_Msk) |
 8000b3e:	68fb      	ldr	r3, [r7, #12]
 8000b40:	015a      	lsls	r2, r3, #5
 8000b42:	f643 73e0 	movw	r3, #16352	; 0x3fe0
 8000b46:	4013      	ands	r3, r2
                      ((ways << SCB_DCISW_WAY_Pos) & SCB_DCISW_WAY_Msk)  );
 8000b48:	68ba      	ldr	r2, [r7, #8]
 8000b4a:	0792      	lsls	r2, r2, #30
        SCB->DCISW = (((sets << SCB_DCISW_SET_Pos) & SCB_DCISW_SET_Msk) |
 8000b4c:	4933      	ldr	r1, [pc, #204]	; (8000c1c <main+0x164>)
 8000b4e:	4313      	orrs	r3, r2
 8000b50:	f8c1 3260 	str.w	r3, [r1, #608]	; 0x260
        #if defined ( __CC_ARM )
          __schedule_barrier();
        #endif
      } while (ways-- != 0U);
 8000b54:	68bb      	ldr	r3, [r7, #8]
 8000b56:	1e5a      	subs	r2, r3, #1
 8000b58:	60ba      	str	r2, [r7, #8]
 8000b5a:	2b00      	cmp	r3, #0
 8000b5c:	d1ef      	bne.n	8000b3e <main+0x86>
    } while(sets-- != 0U);
 8000b5e:	68fb      	ldr	r3, [r7, #12]
 8000b60:	1e5a      	subs	r2, r3, #1
 8000b62:	60fa      	str	r2, [r7, #12]
 8000b64:	2b00      	cmp	r3, #0
 8000b66:	d1e5      	bne.n	8000b34 <main+0x7c>
  __ASM volatile ("dsb 0xF":::"memory");
 8000b68:	f3bf 8f4f 	dsb	sy
}
 8000b6c:	bf00      	nop
    __DSB();

    SCB->CCR |=  (uint32_t)SCB_CCR_DC_Msk;  /* enable D-Cache */
 8000b6e:	4b2b      	ldr	r3, [pc, #172]	; (8000c1c <main+0x164>)
 8000b70:	695b      	ldr	r3, [r3, #20]
 8000b72:	4a2a      	ldr	r2, [pc, #168]	; (8000c1c <main+0x164>)
 8000b74:	f443 3380 	orr.w	r3, r3, #65536	; 0x10000
 8000b78:	6153      	str	r3, [r2, #20]
  __ASM volatile ("dsb 0xF":::"memory");
 8000b7a:	f3bf 8f4f 	dsb	sy
}
 8000b7e:	bf00      	nop
  __ASM volatile ("isb 0xF":::"memory");
 8000b80:	f3bf 8f6f 	isb	sy
}
 8000b84:	e000      	b.n	8000b88 <main+0xd0>
    if (SCB->CCR & SCB_CCR_DC_Msk) return;  /* return if DCache is already enabled */
 8000b86:	bf00      	nop
  /* Enable D-Cache---------------------------------------------------------*/
  SCB_EnableDCache();

/* USER CODE BEGIN Boot_Mode_Sequence_1 */
  /* Wait until CPU2 boots and enters in stop mode or timeout*/
  timeout = 0xFFFF;
 8000b88:	f64f 73ff 	movw	r3, #65535	; 0xffff
 8000b8c:	617b      	str	r3, [r7, #20]
  while((__HAL_RCC_GET_FLAG(RCC_FLAG_D2CKRDY) != RESET) && (timeout-- > 0));
 8000b8e:	bf00      	nop
 8000b90:	4b23      	ldr	r3, [pc, #140]	; (8000c20 <main+0x168>)
 8000b92:	681b      	ldr	r3, [r3, #0]
 8000b94:	f403 4300 	and.w	r3, r3, #32768	; 0x8000
 8000b98:	2b00      	cmp	r3, #0
 8000b9a:	d004      	beq.n	8000ba6 <main+0xee>
 8000b9c:	697b      	ldr	r3, [r7, #20]
 8000b9e:	1e5a      	subs	r2, r3, #1
 8000ba0:	617a      	str	r2, [r7, #20]
 8000ba2:	2b00      	cmp	r3, #0
 8000ba4:	dcf4      	bgt.n	8000b90 <main+0xd8>
  if ( timeout < 0 )
 8000ba6:	697b      	ldr	r3, [r7, #20]
 8000ba8:	2b00      	cmp	r3, #0
 8000baa:	da01      	bge.n	8000bb0 <main+0xf8>
  {
  Error_Handler();
 8000bac:	f000 f93e 	bl	8000e2c <Error_Handler>
  }
/* USER CODE END Boot_Mode_Sequence_1 */
  /* MCU Configuration--------------------------------------------------------*/

  /* Reset of all peripherals, Initializes the Flash interface and the Systick. */
  HAL_Init();
 8000bb0:	f000 fbee 	bl	8001390 <HAL_Init>
  /* USER CODE BEGIN Init */

  /* USER CODE END Init */

  /* Configure the system clock */
  SystemClock_Config();
 8000bb4:	f000 f836 	bl	8000c24 <SystemClock_Config>
/* USER CODE BEGIN Boot_Mode_Sequence_2 */
/* When system initialization is finished, Cortex-M7 will release Cortex-M4 by means of
HSEM notification */
/*HW semaphore Clock enable*/
__HAL_RCC_HSEM_CLK_ENABLE();
 8000bb8:	4b19      	ldr	r3, [pc, #100]	; (8000c20 <main+0x168>)
 8000bba:	f8d3 30e0 	ldr.w	r3, [r3, #224]	; 0xe0
 8000bbe:	4a18      	ldr	r2, [pc, #96]	; (8000c20 <main+0x168>)
 8000bc0:	f043 7300 	orr.w	r3, r3, #33554432	; 0x2000000
 8000bc4:	f8c2 30e0 	str.w	r3, [r2, #224]	; 0xe0
 8000bc8:	4b15      	ldr	r3, [pc, #84]	; (8000c20 <main+0x168>)
 8000bca:	f8d3 30e0 	ldr.w	r3, [r3, #224]	; 0xe0
 8000bce:	f003 7300 	and.w	r3, r3, #33554432	; 0x2000000
 8000bd2:	607b      	str	r3, [r7, #4]
 8000bd4:	687b      	ldr	r3, [r7, #4]
/*Take HSEM */
HAL_HSEM_FastTake(HSEM_ID_0);
 8000bd6:	2000      	movs	r0, #0
 8000bd8:	f004 f8a0 	bl	8004d1c <HAL_HSEM_FastTake>
/*Release HSEM in order to notify the CPU2(CM4)*/
HAL_HSEM_Release(HSEM_ID_0,0);
 8000bdc:	2100      	movs	r1, #0
 8000bde:	2000      	movs	r0, #0
 8000be0:	f004 f8b6 	bl	8004d50 <HAL_HSEM_Release>
/* wait until CPU2 wakes up from stop mode */
timeout = 0xFFFF;
 8000be4:	f64f 73ff 	movw	r3, #65535	; 0xffff
 8000be8:	617b      	str	r3, [r7, #20]
while((__HAL_RCC_GET_FLAG(RCC_FLAG_D2CKRDY) == RESET) && (timeout-- > 0));
 8000bea:	bf00      	nop
 8000bec:	4b0c      	ldr	r3, [pc, #48]	; (8000c20 <main+0x168>)
 8000bee:	681b      	ldr	r3, [r3, #0]
 8000bf0:	f403 4300 	and.w	r3, r3, #32768	; 0x8000
 8000bf4:	2b00      	cmp	r3, #0
 8000bf6:	d104      	bne.n	8000c02 <main+0x14a>
 8000bf8:	697b      	ldr	r3, [r7, #20]
 8000bfa:	1e5a      	subs	r2, r3, #1
 8000bfc:	617a      	str	r2, [r7, #20]
 8000bfe:	2b00      	cmp	r3, #0
 8000c00:	dcf4      	bgt.n	8000bec <main+0x134>
if ( timeout < 0 )
 8000c02:	697b      	ldr	r3, [r7, #20]
 8000c04:	2b00      	cmp	r3, #0
 8000c06:	da01      	bge.n	8000c0c <main+0x154>
{
Error_Handler();
 8000c08:	f000 f910 	bl	8000e2c <Error_Handler>
  /* USER CODE BEGIN SysInit */

  /* USER CODE END SysInit */

  /* Initialize all configured peripherals */
  MX_GPIO_Init();
 8000c0c:	f7ff ff1c 	bl	8000a48 <MX_GPIO_Init>
  MX_DMA_Init();
 8000c10:	f7ff fefa 	bl	8000a08 <MX_DMA_Init>
  /* USER CODE BEGIN 2 */

  /* USER CODE END 2 */

  MX_ThreadX_Init();
 8000c14:	f7ff fef1 	bl	80009fa <MX_ThreadX_Init>

  /* We should never get here as control is now taken by the scheduler */
  /* Infinite loop */
  /* USER CODE BEGIN WHILE */
  while (1)
 8000c18:	e7fe      	b.n	8000c18 <main+0x160>
 8000c1a:	bf00      	nop
 8000c1c:	e000ed00 	.word	0xe000ed00
 8000c20:	58024400 	.word	0x58024400

08000c24 <SystemClock_Config>:
/**
  * @brief System Clock Configuration
  * @retval None
  */
void SystemClock_Config(void)
{
 8000c24:	b580      	push	{r7, lr}
 8000c26:	b0a4      	sub	sp, #144	; 0x90
 8000c28:	af00      	add	r7, sp, #0
  RCC_OscInitTypeDef RCC_OscInitStruct = {0};
 8000c2a:	f107 0344 	add.w	r3, r7, #68	; 0x44
 8000c2e:	224c      	movs	r2, #76	; 0x4c
 8000c30:	2100      	movs	r1, #0
 8000c32:	4618      	mov	r0, r3
 8000c34:	f014 ff00 	bl	8015a38 <memset>
  RCC_ClkInitTypeDef RCC_ClkInitStruct = {0};
 8000c38:	f107 0324 	add.w	r3, r7, #36	; 0x24
 8000c3c:	2220      	movs	r2, #32
 8000c3e:	2100      	movs	r1, #0
 8000c40:	4618      	mov	r0, r3
 8000c42:	f014 fef9 	bl	8015a38 <memset>
  RCC_CRSInitTypeDef RCC_CRSInitStruct = {0};
 8000c46:	f107 030c 	add.w	r3, r7, #12
 8000c4a:	2200      	movs	r2, #0
 8000c4c:	601a      	str	r2, [r3, #0]
 8000c4e:	605a      	str	r2, [r3, #4]
 8000c50:	609a      	str	r2, [r3, #8]
 8000c52:	60da      	str	r2, [r3, #12]
 8000c54:	611a      	str	r2, [r3, #16]
 8000c56:	615a      	str	r2, [r3, #20]

  /** Supply configuration update enable
  */
  HAL_PWREx_ConfigSupply(PWR_DIRECT_SMPS_SUPPLY);
 8000c58:	2004      	movs	r0, #4
 8000c5a:	f005 fc09 	bl	8006470 <HAL_PWREx_ConfigSupply>

  /** Configure the main internal regulator output voltage
  */
  __HAL_PWR_VOLTAGESCALING_CONFIG(PWR_REGULATOR_VOLTAGE_SCALE0);
 8000c5e:	2300      	movs	r3, #0
 8000c60:	60bb      	str	r3, [r7, #8]
 8000c62:	4b45      	ldr	r3, [pc, #276]	; (8000d78 <SystemClock_Config+0x154>)
 8000c64:	699b      	ldr	r3, [r3, #24]
 8000c66:	4a44      	ldr	r2, [pc, #272]	; (8000d78 <SystemClock_Config+0x154>)
 8000c68:	f443 4340 	orr.w	r3, r3, #49152	; 0xc000
 8000c6c:	6193      	str	r3, [r2, #24]
 8000c6e:	4b42      	ldr	r3, [pc, #264]	; (8000d78 <SystemClock_Config+0x154>)
 8000c70:	699b      	ldr	r3, [r3, #24]
 8000c72:	f403 4340 	and.w	r3, r3, #49152	; 0xc000
 8000c76:	60bb      	str	r3, [r7, #8]
 8000c78:	4b40      	ldr	r3, [pc, #256]	; (8000d7c <SystemClock_Config+0x158>)
 8000c7a:	6adb      	ldr	r3, [r3, #44]	; 0x2c
 8000c7c:	4a3f      	ldr	r2, [pc, #252]	; (8000d7c <SystemClock_Config+0x158>)
 8000c7e:	f043 0301 	orr.w	r3, r3, #1
 8000c82:	62d3      	str	r3, [r2, #44]	; 0x2c
 8000c84:	4b3d      	ldr	r3, [pc, #244]	; (8000d7c <SystemClock_Config+0x158>)
 8000c86:	6adb      	ldr	r3, [r3, #44]	; 0x2c
 8000c88:	f003 0301 	and.w	r3, r3, #1
 8000c8c:	60bb      	str	r3, [r7, #8]
 8000c8e:	68bb      	ldr	r3, [r7, #8]

  while(!__HAL_PWR_GET_FLAG(PWR_FLAG_VOSRDY)) {}
 8000c90:	bf00      	nop
 8000c92:	4b39      	ldr	r3, [pc, #228]	; (8000d78 <SystemClock_Config+0x154>)
 8000c94:	699b      	ldr	r3, [r3, #24]
 8000c96:	f403 5300 	and.w	r3, r3, #8192	; 0x2000
 8000c9a:	f5b3 5f00 	cmp.w	r3, #8192	; 0x2000
 8000c9e:	d1f8      	bne.n	8000c92 <SystemClock_Config+0x6e>

  /** Initializes the RCC Oscillators according to the specified parameters
  * in the RCC_OscInitTypeDef structure.
  */
  RCC_OscInitStruct.OscillatorType = RCC_OSCILLATORTYPE_HSI48|RCC_OSCILLATORTYPE_HSE;
 8000ca0:	2321      	movs	r3, #33	; 0x21
 8000ca2:	647b      	str	r3, [r7, #68]	; 0x44
  RCC_OscInitStruct.HSEState = RCC_HSE_ON;
 8000ca4:	f44f 3380 	mov.w	r3, #65536	; 0x10000
 8000ca8:	64bb      	str	r3, [r7, #72]	; 0x48
  RCC_OscInitStruct.HSI48State = RCC_HSI48_ON;
 8000caa:	2301      	movs	r3, #1
 8000cac:	65fb      	str	r3, [r7, #92]	; 0x5c
  RCC_OscInitStruct.PLL.PLLState = RCC_PLL_ON;
 8000cae:	2302      	movs	r3, #2
 8000cb0:	66bb      	str	r3, [r7, #104]	; 0x68
  RCC_OscInitStruct.PLL.PLLSource = RCC_PLLSOURCE_HSE;
 8000cb2:	2302      	movs	r3, #2
 8000cb4:	66fb      	str	r3, [r7, #108]	; 0x6c
  RCC_OscInitStruct.PLL.PLLM = 1;
 8000cb6:	2301      	movs	r3, #1
 8000cb8:	673b      	str	r3, [r7, #112]	; 0x70
  RCC_OscInitStruct.PLL.PLLN = 120;
 8000cba:	2378      	movs	r3, #120	; 0x78
 8000cbc:	677b      	str	r3, [r7, #116]	; 0x74
  RCC_OscInitStruct.PLL.PLLP = 2;
 8000cbe:	2302      	movs	r3, #2
 8000cc0:	67bb      	str	r3, [r7, #120]	; 0x78
  RCC_OscInitStruct.PLL.PLLQ = 2;
 8000cc2:	2302      	movs	r3, #2
 8000cc4:	67fb      	str	r3, [r7, #124]	; 0x7c
  RCC_OscInitStruct.PLL.PLLR = 2;
 8000cc6:	2302      	movs	r3, #2
 8000cc8:	f8c7 3080 	str.w	r3, [r7, #128]	; 0x80
  RCC_OscInitStruct.PLL.PLLRGE = RCC_PLL1VCIRANGE_3;
 8000ccc:	230c      	movs	r3, #12
 8000cce:	f8c7 3084 	str.w	r3, [r7, #132]	; 0x84
  RCC_OscInitStruct.PLL.PLLVCOSEL = RCC_PLL1VCOWIDE;
 8000cd2:	2300      	movs	r3, #0
 8000cd4:	f8c7 3088 	str.w	r3, [r7, #136]	; 0x88
  RCC_OscInitStruct.PLL.PLLFRACN = 0;
 8000cd8:	2300      	movs	r3, #0
 8000cda:	f8c7 308c 	str.w	r3, [r7, #140]	; 0x8c
  if (HAL_RCC_OscConfig(&RCC_OscInitStruct) != HAL_OK)
 8000cde:	f107 0344 	add.w	r3, r7, #68	; 0x44
 8000ce2:	4618      	mov	r0, r3
 8000ce4:	f005 fc2e 	bl	8006544 <HAL_RCC_OscConfig>
 8000ce8:	4603      	mov	r3, r0
 8000cea:	2b00      	cmp	r3, #0
 8000cec:	d001      	beq.n	8000cf2 <SystemClock_Config+0xce>
  {
    Error_Handler();
 8000cee:	f000 f89d 	bl	8000e2c <Error_Handler>
  }

  /** Initializes the CPU, AHB and APB buses clocks
  */
  RCC_ClkInitStruct.ClockType = RCC_CLOCKTYPE_HCLK|RCC_CLOCKTYPE_SYSCLK
 8000cf2:	233f      	movs	r3, #63	; 0x3f
 8000cf4:	627b      	str	r3, [r7, #36]	; 0x24
                              |RCC_CLOCKTYPE_PCLK1|RCC_CLOCKTYPE_PCLK2
                              |RCC_CLOCKTYPE_D3PCLK1|RCC_CLOCKTYPE_D1PCLK1;
  RCC_ClkInitStruct.SYSCLKSource = RCC_SYSCLKSOURCE_PLLCLK;
 8000cf6:	2303      	movs	r3, #3
 8000cf8:	62bb      	str	r3, [r7, #40]	; 0x28
  RCC_ClkInitStruct.SYSCLKDivider = RCC_SYSCLK_DIV1;
 8000cfa:	2300      	movs	r3, #0
 8000cfc:	62fb      	str	r3, [r7, #44]	; 0x2c
  RCC_ClkInitStruct.AHBCLKDivider = RCC_HCLK_DIV2;
 8000cfe:	2308      	movs	r3, #8
 8000d00:	633b      	str	r3, [r7, #48]	; 0x30
  RCC_ClkInitStruct.APB3CLKDivider = RCC_APB3_DIV2;
 8000d02:	2340      	movs	r3, #64	; 0x40
 8000d04:	637b      	str	r3, [r7, #52]	; 0x34
  RCC_ClkInitStruct.APB1CLKDivider = RCC_APB1_DIV2;
 8000d06:	2340      	movs	r3, #64	; 0x40
 8000d08:	63bb      	str	r3, [r7, #56]	; 0x38
  RCC_ClkInitStruct.APB2CLKDivider = RCC_APB2_DIV2;
 8000d0a:	f44f 6380 	mov.w	r3, #1024	; 0x400
 8000d0e:	63fb      	str	r3, [r7, #60]	; 0x3c
  RCC_ClkInitStruct.APB4CLKDivider = RCC_APB4_DIV2;
 8000d10:	2340      	movs	r3, #64	; 0x40
 8000d12:	643b      	str	r3, [r7, #64]	; 0x40

  if (HAL_RCC_ClockConfig(&RCC_ClkInitStruct, FLASH_LATENCY_4) != HAL_OK)
 8000d14:	f107 0324 	add.w	r3, r7, #36	; 0x24
 8000d18:	2104      	movs	r1, #4
 8000d1a:	4618      	mov	r0, r3
 8000d1c:	f006 f840 	bl	8006da0 <HAL_RCC_ClockConfig>
 8000d20:	4603      	mov	r3, r0
 8000d22:	2b00      	cmp	r3, #0
 8000d24:	d001      	beq.n	8000d2a <SystemClock_Config+0x106>
  {
    Error_Handler();
 8000d26:	f000 f881 	bl	8000e2c <Error_Handler>
  }

  /** Enable the SYSCFG APB clock
  */
  __HAL_RCC_CRS_CLK_ENABLE();
 8000d2a:	4b15      	ldr	r3, [pc, #84]	; (8000d80 <SystemClock_Config+0x15c>)
 8000d2c:	f8d3 30ec 	ldr.w	r3, [r3, #236]	; 0xec
 8000d30:	4a13      	ldr	r2, [pc, #76]	; (8000d80 <SystemClock_Config+0x15c>)
 8000d32:	f043 0302 	orr.w	r3, r3, #2
 8000d36:	f8c2 30ec 	str.w	r3, [r2, #236]	; 0xec
 8000d3a:	4b11      	ldr	r3, [pc, #68]	; (8000d80 <SystemClock_Config+0x15c>)
 8000d3c:	f8d3 30ec 	ldr.w	r3, [r3, #236]	; 0xec
 8000d40:	f003 0302 	and.w	r3, r3, #2
 8000d44:	607b      	str	r3, [r7, #4]
 8000d46:	687b      	ldr	r3, [r7, #4]

  /** Configures CRS
  */
  RCC_CRSInitStruct.Prescaler = RCC_CRS_SYNC_DIV1;
 8000d48:	2300      	movs	r3, #0
 8000d4a:	60fb      	str	r3, [r7, #12]
  RCC_CRSInitStruct.Source = RCC_CRS_SYNC_SOURCE_USB2;
 8000d4c:	f04f 5340 	mov.w	r3, #805306368	; 0x30000000
 8000d50:	613b      	str	r3, [r7, #16]
  RCC_CRSInitStruct.Polarity = RCC_CRS_SYNC_POLARITY_RISING;
 8000d52:	2300      	movs	r3, #0
 8000d54:	617b      	str	r3, [r7, #20]
  RCC_CRSInitStruct.ReloadValue = __HAL_RCC_CRS_RELOADVALUE_CALCULATE(48000000,1000);
 8000d56:	f64b 337f 	movw	r3, #47999	; 0xbb7f
 8000d5a:	61bb      	str	r3, [r7, #24]
  RCC_CRSInitStruct.ErrorLimitValue = 34;
 8000d5c:	2322      	movs	r3, #34	; 0x22
 8000d5e:	61fb      	str	r3, [r7, #28]
  RCC_CRSInitStruct.HSI48CalibrationValue = 32;
 8000d60:	2320      	movs	r3, #32
 8000d62:	623b      	str	r3, [r7, #32]

  HAL_RCCEx_CRSConfig(&RCC_CRSInitStruct);
 8000d64:	f107 030c 	add.w	r3, r7, #12
 8000d68:	4618      	mov	r0, r3
 8000d6a:	f007 fdeb 	bl	8008944 <HAL_RCCEx_CRSConfig>
}
 8000d6e:	bf00      	nop
 8000d70:	3790      	adds	r7, #144	; 0x90
 8000d72:	46bd      	mov	sp, r7
 8000d74:	bd80      	pop	{r7, pc}
 8000d76:	bf00      	nop
 8000d78:	58024800 	.word	0x58024800
 8000d7c:	58000400 	.word	0x58000400
 8000d80:	58024400 	.word	0x58024400

08000d84 <MPU_Config>:
  /* Enables the MPU */
  //HAL_MPU_Enable(MPU_HFNMI_PRIVDEF);

//}
void MPU_Config(void)
{
 8000d84:	b580      	push	{r7, lr}
 8000d86:	b084      	sub	sp, #16
 8000d88:	af00      	add	r7, sp, #0
  MPU_Region_InitTypeDef MPU_InitStruct = {0};
 8000d8a:	463b      	mov	r3, r7
 8000d8c:	2200      	movs	r2, #0
 8000d8e:	601a      	str	r2, [r3, #0]
 8000d90:	605a      	str	r2, [r3, #4]
 8000d92:	609a      	str	r2, [r3, #8]
 8000d94:	60da      	str	r2, [r3, #12]

  /* Disables the MPU */
  HAL_MPU_Disable();
 8000d96:	f000 fc99 	bl	80016cc <HAL_MPU_Disable>

  /** Initializes and configures the Region and the memory to be protected
  */
  MPU_InitStruct.Enable = MPU_REGION_ENABLE;
 8000d9a:	2301      	movs	r3, #1
 8000d9c:	703b      	strb	r3, [r7, #0]
  MPU_InitStruct.Number = MPU_REGION_NUMBER0;
 8000d9e:	2300      	movs	r3, #0
 8000da0:	707b      	strb	r3, [r7, #1]
  MPU_InitStruct.BaseAddress = 0x0;
 8000da2:	2300      	movs	r3, #0
 8000da4:	607b      	str	r3, [r7, #4]
  MPU_InitStruct.Size = MPU_REGION_SIZE_4GB;
 8000da6:	231f      	movs	r3, #31
 8000da8:	723b      	strb	r3, [r7, #8]
  MPU_InitStruct.SubRegionDisable = 0x87;
 8000daa:	2387      	movs	r3, #135	; 0x87
 8000dac:	727b      	strb	r3, [r7, #9]
  MPU_InitStruct.TypeExtField = MPU_TEX_LEVEL0;
 8000dae:	2300      	movs	r3, #0
 8000db0:	72bb      	strb	r3, [r7, #10]
  MPU_InitStruct.AccessPermission = MPU_REGION_NO_ACCESS;
 8000db2:	2300      	movs	r3, #0
 8000db4:	72fb      	strb	r3, [r7, #11]
  MPU_InitStruct.DisableExec = MPU_INSTRUCTION_ACCESS_DISABLE;
 8000db6:	2301      	movs	r3, #1
 8000db8:	733b      	strb	r3, [r7, #12]
  MPU_InitStruct.IsShareable = MPU_ACCESS_SHAREABLE;
 8000dba:	2301      	movs	r3, #1
 8000dbc:	737b      	strb	r3, [r7, #13]
  MPU_InitStruct.IsCacheable = MPU_ACCESS_NOT_CACHEABLE;
 8000dbe:	2300      	movs	r3, #0
 8000dc0:	73bb      	strb	r3, [r7, #14]
  MPU_InitStruct.IsBufferable = MPU_ACCESS_NOT_BUFFERABLE;
 8000dc2:	2300      	movs	r3, #0
 8000dc4:	73fb      	strb	r3, [r7, #15]

  HAL_MPU_ConfigRegion(&MPU_InitStruct);
 8000dc6:	463b      	mov	r3, r7
 8000dc8:	4618      	mov	r0, r3
 8000dca:	f000 fcb7 	bl	800173c <HAL_MPU_ConfigRegion>

  /** Initializes and configures the Region and the memory to be protected
  */
  MPU_InitStruct.Number = MPU_REGION_NUMBER1;
 8000dce:	2301      	movs	r3, #1
 8000dd0:	707b      	strb	r3, [r7, #1]
  MPU_InitStruct.BaseAddress = 0x24027000;
 8000dd2:	4b0c      	ldr	r3, [pc, #48]	; (8000e04 <MPU_Config+0x80>)
 8000dd4:	607b      	str	r3, [r7, #4]
  MPU_InitStruct.Size = MPU_REGION_SIZE_64KB;
 8000dd6:	230f      	movs	r3, #15
 8000dd8:	723b      	strb	r3, [r7, #8]
  MPU_InitStruct.SubRegionDisable = 0x0;
 8000dda:	2300      	movs	r3, #0
 8000ddc:	727b      	strb	r3, [r7, #9]
  MPU_InitStruct.TypeExtField = MPU_TEX_LEVEL1;
 8000dde:	2301      	movs	r3, #1
 8000de0:	72bb      	strb	r3, [r7, #10]
  MPU_InitStruct.AccessPermission = MPU_REGION_FULL_ACCESS;
 8000de2:	2303      	movs	r3, #3
 8000de4:	72fb      	strb	r3, [r7, #11]
  MPU_InitStruct.DisableExec = MPU_INSTRUCTION_ACCESS_ENABLE;
 8000de6:	2300      	movs	r3, #0
 8000de8:	733b      	strb	r3, [r7, #12]
  MPU_InitStruct.IsShareable = MPU_ACCESS_NOT_SHAREABLE;
 8000dea:	2300      	movs	r3, #0
 8000dec:	737b      	strb	r3, [r7, #13]

  HAL_MPU_ConfigRegion(&MPU_InitStruct);
 8000dee:	463b      	mov	r3, r7
 8000df0:	4618      	mov	r0, r3
 8000df2:	f000 fca3 	bl	800173c <HAL_MPU_ConfigRegion>
  /* Enables the MPU */
  HAL_MPU_Enable(MPU_HFNMI_PRIVDEF);
 8000df6:	2006      	movs	r0, #6
 8000df8:	f000 fc80 	bl	80016fc <HAL_MPU_Enable>

}
 8000dfc:	bf00      	nop
 8000dfe:	3710      	adds	r7, #16
 8000e00:	46bd      	mov	sp, r7
 8000e02:	bd80      	pop	{r7, pc}
 8000e04:	24027000 	.word	0x24027000

08000e08 <HAL_TIM_PeriodElapsedCallback>:
  * a global variable "uwTick" used as application time base.
  * @param  htim : TIM handle
  * @retval None
  */
void HAL_TIM_PeriodElapsedCallback(TIM_HandleTypeDef *htim)
{
 8000e08:	b580      	push	{r7, lr}
 8000e0a:	b082      	sub	sp, #8
 8000e0c:	af00      	add	r7, sp, #0
 8000e0e:	6078      	str	r0, [r7, #4]
  /* USER CODE BEGIN Callback 0 */

  /* USER CODE END Callback 0 */
  if (htim->Instance == TIM6) {
 8000e10:	687b      	ldr	r3, [r7, #4]
 8000e12:	681b      	ldr	r3, [r3, #0]
 8000e14:	4a04      	ldr	r2, [pc, #16]	; (8000e28 <HAL_TIM_PeriodElapsedCallback+0x20>)
 8000e16:	4293      	cmp	r3, r2
 8000e18:	d101      	bne.n	8000e1e <HAL_TIM_PeriodElapsedCallback+0x16>
    HAL_IncTick();
 8000e1a:	f000 faf5 	bl	8001408 <HAL_IncTick>
  }
  /* USER CODE BEGIN Callback 1 */

  /* USER CODE END Callback 1 */
}
 8000e1e:	bf00      	nop
 8000e20:	3708      	adds	r7, #8
 8000e22:	46bd      	mov	sp, r7
 8000e24:	bd80      	pop	{r7, pc}
 8000e26:	bf00      	nop
 8000e28:	40001000 	.word	0x40001000

08000e2c <Error_Handler>:
/**
  * @brief  This function is executed in case of error occurrence.
  * @retval None
  */
void Error_Handler(void)
{
 8000e2c:	b480      	push	{r7}
 8000e2e:	af00      	add	r7, sp, #0
  __ASM volatile ("cpsid i" : : : "memory");
 8000e30:	b672      	cpsid	i
}
 8000e32:	bf00      	nop
  /* USER CODE BEGIN Error_Handler_Debug */
  /* User can add his own implementation to report the HAL error return state */
  __disable_irq();
  while (1)
 8000e34:	e7fe      	b.n	8000e34 <Error_Handler+0x8>
	...

08000e38 <HAL_MspInit>:
/* USER CODE END 0 */
/**
  * Initializes the Global MSP.
  */
void HAL_MspInit(void)
{
 8000e38:	b480      	push	{r7}
 8000e3a:	b083      	sub	sp, #12
 8000e3c:	af00      	add	r7, sp, #0
  /* USER CODE BEGIN MspInit 0 */

  /* USER CODE END MspInit 0 */

  __HAL_RCC_SYSCFG_CLK_ENABLE();
 8000e3e:	4b0a      	ldr	r3, [pc, #40]	; (8000e68 <HAL_MspInit+0x30>)
 8000e40:	f8d3 30f4 	ldr.w	r3, [r3, #244]	; 0xf4
 8000e44:	4a08      	ldr	r2, [pc, #32]	; (8000e68 <HAL_MspInit+0x30>)
 8000e46:	f043 0302 	orr.w	r3, r3, #2
 8000e4a:	f8c2 30f4 	str.w	r3, [r2, #244]	; 0xf4
 8000e4e:	4b06      	ldr	r3, [pc, #24]	; (8000e68 <HAL_MspInit+0x30>)
 8000e50:	f8d3 30f4 	ldr.w	r3, [r3, #244]	; 0xf4
 8000e54:	f003 0302 	and.w	r3, r3, #2
 8000e58:	607b      	str	r3, [r7, #4]
 8000e5a:	687b      	ldr	r3, [r7, #4]
  /* System interrupt init*/

  /* USER CODE BEGIN MspInit 1 */

  /* USER CODE END MspInit 1 */
}
 8000e5c:	bf00      	nop
 8000e5e:	370c      	adds	r7, #12
 8000e60:	46bd      	mov	sp, r7
 8000e62:	f85d 7b04 	ldr.w	r7, [sp], #4
 8000e66:	4770      	bx	lr
 8000e68:	58024400 	.word	0x58024400

08000e6c <HAL_InitTick>:
  *         reset by HAL_Init() or at any time when clock is configured, by HAL_RCC_ClockConfig().
  * @param  TickPriority: Tick interrupt priority.
  * @retval HAL status
  */
HAL_StatusTypeDef HAL_InitTick(uint32_t TickPriority)
{
 8000e6c:	b580      	push	{r7, lr}
 8000e6e:	b090      	sub	sp, #64	; 0x40
 8000e70:	af00      	add	r7, sp, #0
 8000e72:	6078      	str	r0, [r7, #4]
  uint32_t              uwTimclock, uwAPB1Prescaler;

  uint32_t              uwPrescalerValue;
  uint32_t              pFLatency;
/*Configure the TIM6 IRQ priority */
  if (TickPriority < (1UL << __NVIC_PRIO_BITS))
 8000e74:	687b      	ldr	r3, [r7, #4]
 8000e76:	2b0f      	cmp	r3, #15
 8000e78:	d827      	bhi.n	8000eca <HAL_InitTick+0x5e>
  {
  HAL_NVIC_SetPriority(TIM6_DAC_IRQn, TickPriority ,0U);
 8000e7a:	2200      	movs	r2, #0
 8000e7c:	6879      	ldr	r1, [r7, #4]
 8000e7e:	2036      	movs	r0, #54	; 0x36
 8000e80:	f000 fbee 	bl	8001660 <HAL_NVIC_SetPriority>

  /* Enable the TIM6 global Interrupt */
  HAL_NVIC_EnableIRQ(TIM6_DAC_IRQn);
 8000e84:	2036      	movs	r0, #54	; 0x36
 8000e86:	f000 fc05 	bl	8001694 <HAL_NVIC_EnableIRQ>
    uwTickPrio = TickPriority;
 8000e8a:	4a29      	ldr	r2, [pc, #164]	; (8000f30 <HAL_InitTick+0xc4>)
 8000e8c:	687b      	ldr	r3, [r7, #4]
 8000e8e:	6013      	str	r3, [r2, #0]
  {
    return HAL_ERROR;
  }

  /* Enable TIM6 clock */
  __HAL_RCC_TIM6_CLK_ENABLE();
 8000e90:	4b28      	ldr	r3, [pc, #160]	; (8000f34 <HAL_InitTick+0xc8>)
 8000e92:	f8d3 30e8 	ldr.w	r3, [r3, #232]	; 0xe8
 8000e96:	4a27      	ldr	r2, [pc, #156]	; (8000f34 <HAL_InitTick+0xc8>)
 8000e98:	f043 0310 	orr.w	r3, r3, #16
 8000e9c:	f8c2 30e8 	str.w	r3, [r2, #232]	; 0xe8
 8000ea0:	4b24      	ldr	r3, [pc, #144]	; (8000f34 <HAL_InitTick+0xc8>)
 8000ea2:	f8d3 30e8 	ldr.w	r3, [r3, #232]	; 0xe8
 8000ea6:	f003 0310 	and.w	r3, r3, #16
 8000eaa:	60fb      	str	r3, [r7, #12]
 8000eac:	68fb      	ldr	r3, [r7, #12]

  /* Get clock configuration */
  HAL_RCC_GetClockConfig(&clkconfig, &pFLatency);
 8000eae:	f107 0210 	add.w	r2, r7, #16
 8000eb2:	f107 0314 	add.w	r3, r7, #20
 8000eb6:	4611      	mov	r1, r2
 8000eb8:	4618      	mov	r0, r3
 8000eba:	f006 fafd 	bl	80074b8 <HAL_RCC_GetClockConfig>

  /* Get APB1 prescaler */
  uwAPB1Prescaler = clkconfig.APB1CLKDivider;
 8000ebe:	6abb      	ldr	r3, [r7, #40]	; 0x28
 8000ec0:	63bb      	str	r3, [r7, #56]	; 0x38
  /* Compute TIM6 clock */
  if (uwAPB1Prescaler == RCC_HCLK_DIV1)
 8000ec2:	6bbb      	ldr	r3, [r7, #56]	; 0x38
 8000ec4:	2b00      	cmp	r3, #0
 8000ec6:	d106      	bne.n	8000ed6 <HAL_InitTick+0x6a>
 8000ec8:	e001      	b.n	8000ece <HAL_InitTick+0x62>
    return HAL_ERROR;
 8000eca:	2301      	movs	r3, #1
 8000ecc:	e02b      	b.n	8000f26 <HAL_InitTick+0xba>
  {
    uwTimclock = HAL_RCC_GetPCLK1Freq();
 8000ece:	f006 fac7 	bl	8007460 <HAL_RCC_GetPCLK1Freq>
 8000ed2:	63f8      	str	r0, [r7, #60]	; 0x3c
 8000ed4:	e004      	b.n	8000ee0 <HAL_InitTick+0x74>
  }
  else
  {
    uwTimclock = 2UL * HAL_RCC_GetPCLK1Freq();
 8000ed6:	f006 fac3 	bl	8007460 <HAL_RCC_GetPCLK1Freq>
 8000eda:	4603      	mov	r3, r0
 8000edc:	005b      	lsls	r3, r3, #1
 8000ede:	63fb      	str	r3, [r7, #60]	; 0x3c
  }

  /* Compute the prescaler value to have TIM6 counter clock equal to 1MHz */
  uwPrescalerValue = (uint32_t) ((uwTimclock / 1000000U) - 1U);
 8000ee0:	6bfb      	ldr	r3, [r7, #60]	; 0x3c
 8000ee2:	4a15      	ldr	r2, [pc, #84]	; (8000f38 <HAL_InitTick+0xcc>)
 8000ee4:	fba2 2303 	umull	r2, r3, r2, r3
 8000ee8:	0c9b      	lsrs	r3, r3, #18
 8000eea:	3b01      	subs	r3, #1
 8000eec:	637b      	str	r3, [r7, #52]	; 0x34

  /* Initialize TIM6 */
  htim6.Instance = TIM6;
 8000eee:	4b13      	ldr	r3, [pc, #76]	; (8000f3c <HAL_InitTick+0xd0>)
 8000ef0:	4a13      	ldr	r2, [pc, #76]	; (8000f40 <HAL_InitTick+0xd4>)
 8000ef2:	601a      	str	r2, [r3, #0]
  + Period = [(TIM6CLK/1000) - 1]. to have a (1/1000) s time base.
  + Prescaler = (uwTimclock/1000000 - 1) to have a 1MHz counter clock.
  + ClockDivision = 0
  + Counter direction = Up
  */
  htim6.Init.Period = (1000000U / 1000U) - 1U;
 8000ef4:	4b11      	ldr	r3, [pc, #68]	; (8000f3c <HAL_InitTick+0xd0>)
 8000ef6:	f240 32e7 	movw	r2, #999	; 0x3e7
 8000efa:	60da      	str	r2, [r3, #12]
  htim6.Init.Prescaler = uwPrescalerValue;
 8000efc:	4a0f      	ldr	r2, [pc, #60]	; (8000f3c <HAL_InitTick+0xd0>)
 8000efe:	6b7b      	ldr	r3, [r7, #52]	; 0x34
 8000f00:	6053      	str	r3, [r2, #4]
  htim6.Init.ClockDivision = 0;
 8000f02:	4b0e      	ldr	r3, [pc, #56]	; (8000f3c <HAL_InitTick+0xd0>)
 8000f04:	2200      	movs	r2, #0
 8000f06:	611a      	str	r2, [r3, #16]
  htim6.Init.CounterMode = TIM_COUNTERMODE_UP;
 8000f08:	4b0c      	ldr	r3, [pc, #48]	; (8000f3c <HAL_InitTick+0xd0>)
 8000f0a:	2200      	movs	r2, #0
 8000f0c:	609a      	str	r2, [r3, #8]

  if(HAL_TIM_Base_Init(&htim6) == HAL_OK)
 8000f0e:	480b      	ldr	r0, [pc, #44]	; (8000f3c <HAL_InitTick+0xd0>)
 8000f10:	f007 fed2 	bl	8008cb8 <HAL_TIM_Base_Init>
 8000f14:	4603      	mov	r3, r0
 8000f16:	2b00      	cmp	r3, #0
 8000f18:	d104      	bne.n	8000f24 <HAL_InitTick+0xb8>
  {
    /* Start the TIM time Base generation in interrupt mode */
    return HAL_TIM_Base_Start_IT(&htim6);
 8000f1a:	4808      	ldr	r0, [pc, #32]	; (8000f3c <HAL_InitTick+0xd0>)
 8000f1c:	f007 ff2e 	bl	8008d7c <HAL_TIM_Base_Start_IT>
 8000f20:	4603      	mov	r3, r0
 8000f22:	e000      	b.n	8000f26 <HAL_InitTick+0xba>
  }

  /* Return function status */
  return HAL_ERROR;
 8000f24:	2301      	movs	r3, #1
}
 8000f26:	4618      	mov	r0, r3
 8000f28:	3740      	adds	r7, #64	; 0x40
 8000f2a:	46bd      	mov	sp, r7
 8000f2c:	bd80      	pop	{r7, pc}
 8000f2e:	bf00      	nop
 8000f30:	24000008 	.word	0x24000008
 8000f34:	58024400 	.word	0x58024400
 8000f38:	431bde83 	.word	0x431bde83
 8000f3c:	240004fc 	.word	0x240004fc
 8000f40:	40001000 	.word	0x40001000

08000f44 <NMI_Handler>:
/******************************************************************************/
/**
  * @brief This function handles Non maskable interrupt.
  */
void NMI_Handler(void)
{
 8000f44:	b480      	push	{r7}
 8000f46:	af00      	add	r7, sp, #0
  /* USER CODE BEGIN NonMaskableInt_IRQn 0 */

  /* USER CODE END NonMaskableInt_IRQn 0 */
  /* USER CODE BEGIN NonMaskableInt_IRQn 1 */
  while (1)
 8000f48:	e7fe      	b.n	8000f48 <NMI_Handler+0x4>

08000f4a <HardFault_Handler>:

/**
  * @brief This function handles Hard fault interrupt.
  */
void HardFault_Handler(void)
{
 8000f4a:	b480      	push	{r7}
 8000f4c:	af00      	add	r7, sp, #0
  /* USER CODE BEGIN HardFault_IRQn 0 */

  /* USER CODE END HardFault_IRQn 0 */
  while (1)
 8000f4e:	e7fe      	b.n	8000f4e <HardFault_Handler+0x4>

08000f50 <MemManage_Handler>:

/**
  * @brief This function handles Memory management fault.
  */
void MemManage_Handler(void)
{
 8000f50:	b480      	push	{r7}
 8000f52:	af00      	add	r7, sp, #0
  /* USER CODE BEGIN MemoryManagement_IRQn 0 */

  /* USER CODE END MemoryManagement_IRQn 0 */
  while (1)
 8000f54:	e7fe      	b.n	8000f54 <MemManage_Handler+0x4>

08000f56 <BusFault_Handler>:

/**
  * @brief This function handles Pre-fetch fault, memory access fault.
  */
void BusFault_Handler(void)
{
 8000f56:	b480      	push	{r7}
 8000f58:	af00      	add	r7, sp, #0
  /* USER CODE BEGIN BusFault_IRQn 0 */

  /* USER CODE END BusFault_IRQn 0 */
  while (1)
 8000f5a:	e7fe      	b.n	8000f5a <BusFault_Handler+0x4>

08000f5c <UsageFault_Handler>:

/**
  * @brief This function handles Undefined instruction or illegal state.
  */
void UsageFault_Handler(void)
{
 8000f5c:	b480      	push	{r7}
 8000f5e:	af00      	add	r7, sp, #0
  /* USER CODE BEGIN UsageFault_IRQn 0 */

  /* USER CODE END UsageFault_IRQn 0 */
  while (1)
 8000f60:	e7fe      	b.n	8000f60 <UsageFault_Handler+0x4>

08000f62 <DebugMon_Handler>:

/**
  * @brief This function handles Debug monitor.
  */
void DebugMon_Handler(void)
{
 8000f62:	b480      	push	{r7}
 8000f64:	af00      	add	r7, sp, #0

  /* USER CODE END DebugMonitor_IRQn 0 */
  /* USER CODE BEGIN DebugMonitor_IRQn 1 */

  /* USER CODE END DebugMonitor_IRQn 1 */
}
 8000f66:	bf00      	nop
 8000f68:	46bd      	mov	sp, r7
 8000f6a:	f85d 7b04 	ldr.w	r7, [sp], #4
 8000f6e:	4770      	bx	lr

08000f70 <DMA1_Stream0_IRQHandler>:

/**
  * @brief This function handles DMA1 stream0 global interrupt.
  */
void DMA1_Stream0_IRQHandler(void)
{
 8000f70:	b580      	push	{r7, lr}
 8000f72:	af00      	add	r7, sp, #0
  /* USER CODE BEGIN DMA1_Stream0_IRQn 0 */

  /* USER CODE END DMA1_Stream0_IRQn 0 */
  HAL_DMA_IRQHandler(&hdma_usart3_tx);
 8000f74:	4802      	ldr	r0, [pc, #8]	; (8000f80 <DMA1_Stream0_IRQHandler+0x10>)
 8000f76:	f002 f905 	bl	8003184 <HAL_DMA_IRQHandler>
  /* USER CODE BEGIN DMA1_Stream0_IRQn 1 */

  /* USER CODE END DMA1_Stream0_IRQn 1 */
}
 8000f7a:	bf00      	nop
 8000f7c:	bd80      	pop	{r7, pc}
 8000f7e:	bf00      	nop
 8000f80:	240005d8 	.word	0x240005d8

08000f84 <USART3_IRQHandler>:

/**
  * @brief This function handles USART3 global interrupt.
  */
void USART3_IRQHandler(void)
{
 8000f84:	b580      	push	{r7, lr}
 8000f86:	af00      	add	r7, sp, #0
  /* USER CODE BEGIN USART3_IRQn 0 */

  /* USER CODE END USART3_IRQn 0 */
  HAL_UART_IRQHandler(&huart3);
 8000f88:	4802      	ldr	r0, [pc, #8]	; (8000f94 <USART3_IRQHandler+0x10>)
 8000f8a:	f008 fae3 	bl	8009554 <HAL_UART_IRQHandler>
  /* USER CODE BEGIN USART3_IRQn 1 */

  /* USER CODE END USART3_IRQn 1 */
}
 8000f8e:	bf00      	nop
 8000f90:	bd80      	pop	{r7, pc}
 8000f92:	bf00      	nop
 8000f94:	24000548 	.word	0x24000548

08000f98 <TIM6_DAC_IRQHandler>:

/**
  * @brief This function handles TIM6 global interrupt, DAC1_CH1 and DAC1_CH2 underrun error interrupts.
  */
void TIM6_DAC_IRQHandler(void)
{
 8000f98:	b580      	push	{r7, lr}
 8000f9a:	af00      	add	r7, sp, #0
  /* USER CODE BEGIN TIM6_DAC_IRQn 0 */

  /* USER CODE END TIM6_DAC_IRQn 0 */
  HAL_TIM_IRQHandler(&htim6);
 8000f9c:	4802      	ldr	r0, [pc, #8]	; (8000fa8 <TIM6_DAC_IRQHandler+0x10>)
 8000f9e:	f007 ff65 	bl	8008e6c <HAL_TIM_IRQHandler>
  /* USER CODE BEGIN TIM6_DAC_IRQn 1 */

  /* USER CODE END TIM6_DAC_IRQn 1 */
}
 8000fa2:	bf00      	nop
 8000fa4:	bd80      	pop	{r7, pc}
 8000fa6:	bf00      	nop
 8000fa8:	240004fc 	.word	0x240004fc

08000fac <OTG_FS_IRQHandler>:

/**
  * @brief This function handles USB On The Go FS global interrupt.
  */
void OTG_FS_IRQHandler(void)
{
 8000fac:	b580      	push	{r7, lr}
 8000fae:	af00      	add	r7, sp, #0
  /* USER CODE BEGIN OTG_FS_IRQn 0 */

  /* USER CODE END OTG_FS_IRQn 0 */
  HAL_PCD_IRQHandler(&hpcd_USB_OTG_FS);
 8000fb0:	4802      	ldr	r0, [pc, #8]	; (8000fbc <OTG_FS_IRQHandler+0x10>)
 8000fb2:	f004 f871 	bl	8005098 <HAL_PCD_IRQHandler>
  /* USER CODE BEGIN OTG_FS_IRQn 1 */

  /* USER CODE END OTG_FS_IRQn 1 */
}
 8000fb6:	bf00      	nop
 8000fb8:	bd80      	pop	{r7, pc}
 8000fba:	bf00      	nop
 8000fbc:	24027000 	.word	0x24027000

08000fc0 <MX_USART3_UART_Init>:
DMA_HandleTypeDef hdma_usart3_tx;

/* USART3 init function */

void MX_USART3_UART_Init(void)
{
 8000fc0:	b580      	push	{r7, lr}
 8000fc2:	af00      	add	r7, sp, #0
  /* USER CODE END USART3_Init 0 */

  /* USER CODE BEGIN USART3_Init 1 */

  /* USER CODE END USART3_Init 1 */
  huart3.Instance = USART3;
 8000fc4:	4b22      	ldr	r3, [pc, #136]	; (8001050 <MX_USART3_UART_Init+0x90>)
 8000fc6:	4a23      	ldr	r2, [pc, #140]	; (8001054 <MX_USART3_UART_Init+0x94>)
 8000fc8:	601a      	str	r2, [r3, #0]
  huart3.Init.BaudRate = 115200;
 8000fca:	4b21      	ldr	r3, [pc, #132]	; (8001050 <MX_USART3_UART_Init+0x90>)
 8000fcc:	f44f 32e1 	mov.w	r2, #115200	; 0x1c200
 8000fd0:	605a      	str	r2, [r3, #4]
  huart3.Init.WordLength = UART_WORDLENGTH_8B;
 8000fd2:	4b1f      	ldr	r3, [pc, #124]	; (8001050 <MX_USART3_UART_Init+0x90>)
 8000fd4:	2200      	movs	r2, #0
 8000fd6:	609a      	str	r2, [r3, #8]
  huart3.Init.StopBits = UART_STOPBITS_1;
 8000fd8:	4b1d      	ldr	r3, [pc, #116]	; (8001050 <MX_USART3_UART_Init+0x90>)
 8000fda:	2200      	movs	r2, #0
 8000fdc:	60da      	str	r2, [r3, #12]
  huart3.Init.Parity = UART_PARITY_NONE;
 8000fde:	4b1c      	ldr	r3, [pc, #112]	; (8001050 <MX_USART3_UART_Init+0x90>)
 8000fe0:	2200      	movs	r2, #0
 8000fe2:	611a      	str	r2, [r3, #16]
  huart3.Init.Mode = UART_MODE_TX_RX;
 8000fe4:	4b1a      	ldr	r3, [pc, #104]	; (8001050 <MX_USART3_UART_Init+0x90>)
 8000fe6:	220c      	movs	r2, #12
 8000fe8:	615a      	str	r2, [r3, #20]
  huart3.Init.HwFlowCtl = UART_HWCONTROL_NONE;
 8000fea:	4b19      	ldr	r3, [pc, #100]	; (8001050 <MX_USART3_UART_Init+0x90>)
 8000fec:	2200      	movs	r2, #0
 8000fee:	619a      	str	r2, [r3, #24]
  huart3.Init.OverSampling = UART_OVERSAMPLING_16;
 8000ff0:	4b17      	ldr	r3, [pc, #92]	; (8001050 <MX_USART3_UART_Init+0x90>)
 8000ff2:	2200      	movs	r2, #0
 8000ff4:	61da      	str	r2, [r3, #28]
  huart3.Init.OneBitSampling = UART_ONE_BIT_SAMPLE_DISABLE;
 8000ff6:	4b16      	ldr	r3, [pc, #88]	; (8001050 <MX_USART3_UART_Init+0x90>)
 8000ff8:	2200      	movs	r2, #0
 8000ffa:	621a      	str	r2, [r3, #32]
  huart3.Init.ClockPrescaler = UART_PRESCALER_DIV1;
 8000ffc:	4b14      	ldr	r3, [pc, #80]	; (8001050 <MX_USART3_UART_Init+0x90>)
 8000ffe:	2200      	movs	r2, #0
 8001000:	625a      	str	r2, [r3, #36]	; 0x24
  huart3.AdvancedInit.AdvFeatureInit = UART_ADVFEATURE_NO_INIT;
 8001002:	4b13      	ldr	r3, [pc, #76]	; (8001050 <MX_USART3_UART_Init+0x90>)
 8001004:	2200      	movs	r2, #0
 8001006:	629a      	str	r2, [r3, #40]	; 0x28
  if (HAL_UART_Init(&huart3) != HAL_OK)
 8001008:	4811      	ldr	r0, [pc, #68]	; (8001050 <MX_USART3_UART_Init+0x90>)
 800100a:	f008 f92f 	bl	800926c <HAL_UART_Init>
 800100e:	4603      	mov	r3, r0
 8001010:	2b00      	cmp	r3, #0
 8001012:	d001      	beq.n	8001018 <MX_USART3_UART_Init+0x58>
  {
    Error_Handler();
 8001014:	f7ff ff0a 	bl	8000e2c <Error_Handler>
  }
  if (HAL_UARTEx_SetTxFifoThreshold(&huart3, UART_TXFIFO_THRESHOLD_1_8) != HAL_OK)
 8001018:	2100      	movs	r1, #0
 800101a:	480d      	ldr	r0, [pc, #52]	; (8001050 <MX_USART3_UART_Init+0x90>)
 800101c:	f00a fccb 	bl	800b9b6 <HAL_UARTEx_SetTxFifoThreshold>
 8001020:	4603      	mov	r3, r0
 8001022:	2b00      	cmp	r3, #0
 8001024:	d001      	beq.n	800102a <MX_USART3_UART_Init+0x6a>
  {
    Error_Handler();
 8001026:	f7ff ff01 	bl	8000e2c <Error_Handler>
  }
  if (HAL_UARTEx_SetRxFifoThreshold(&huart3, UART_RXFIFO_THRESHOLD_1_8) != HAL_OK)
 800102a:	2100      	movs	r1, #0
 800102c:	4808      	ldr	r0, [pc, #32]	; (8001050 <MX_USART3_UART_Init+0x90>)
 800102e:	f00a fd00 	bl	800ba32 <HAL_UARTEx_SetRxFifoThreshold>
 8001032:	4603      	mov	r3, r0
 8001034:	2b00      	cmp	r3, #0
 8001036:	d001      	beq.n	800103c <MX_USART3_UART_Init+0x7c>
  {
    Error_Handler();
 8001038:	f7ff fef8 	bl	8000e2c <Error_Handler>
  }
  if (HAL_UARTEx_DisableFifoMode(&huart3) != HAL_OK)
 800103c:	4804      	ldr	r0, [pc, #16]	; (8001050 <MX_USART3_UART_Init+0x90>)
 800103e:	f00a fc81 	bl	800b944 <HAL_UARTEx_DisableFifoMode>
 8001042:	4603      	mov	r3, r0
 8001044:	2b00      	cmp	r3, #0
 8001046:	d001      	beq.n	800104c <MX_USART3_UART_Init+0x8c>
  {
    Error_Handler();
 8001048:	f7ff fef0 	bl	8000e2c <Error_Handler>
  }
  /* USER CODE BEGIN USART3_Init 2 */

  /* USER CODE END USART3_Init 2 */

}
 800104c:	bf00      	nop
 800104e:	bd80      	pop	{r7, pc}
 8001050:	24000548 	.word	0x24000548
 8001054:	40004800 	.word	0x40004800

08001058 <HAL_UART_MspInit>:

void HAL_UART_MspInit(UART_HandleTypeDef* uartHandle)
{
 8001058:	b580      	push	{r7, lr}
 800105a:	b0b8      	sub	sp, #224	; 0xe0
 800105c:	af00      	add	r7, sp, #0
 800105e:	6078      	str	r0, [r7, #4]

  GPIO_InitTypeDef GPIO_InitStruct = {0};
 8001060:	f107 03cc 	add.w	r3, r7, #204	; 0xcc
 8001064:	2200      	movs	r2, #0
 8001066:	601a      	str	r2, [r3, #0]
 8001068:	605a      	str	r2, [r3, #4]
 800106a:	609a      	str	r2, [r3, #8]
 800106c:	60da      	str	r2, [r3, #12]
 800106e:	611a      	str	r2, [r3, #16]
  RCC_PeriphCLKInitTypeDef PeriphClkInitStruct = {0};
 8001070:	f107 0310 	add.w	r3, r7, #16
 8001074:	22bc      	movs	r2, #188	; 0xbc
 8001076:	2100      	movs	r1, #0
 8001078:	4618      	mov	r0, r3
 800107a:	f014 fcdd 	bl	8015a38 <memset>
  if(uartHandle->Instance==USART3)
 800107e:	687b      	ldr	r3, [r7, #4]
 8001080:	681b      	ldr	r3, [r3, #0]
 8001082:	4a3f      	ldr	r2, [pc, #252]	; (8001180 <HAL_UART_MspInit+0x128>)
 8001084:	4293      	cmp	r3, r2
 8001086:	d177      	bne.n	8001178 <HAL_UART_MspInit+0x120>

  /* USER CODE END USART3_MspInit 0 */

  /** Initializes the peripherals clock
  */
    PeriphClkInitStruct.PeriphClockSelection = RCC_PERIPHCLK_USART3;
 8001088:	2302      	movs	r3, #2
 800108a:	613b      	str	r3, [r7, #16]
    PeriphClkInitStruct.Usart234578ClockSelection = RCC_USART234578CLKSOURCE_D2PCLK1;
 800108c:	2300      	movs	r3, #0
 800108e:	f8c7 3084 	str.w	r3, [r7, #132]	; 0x84
    if (HAL_RCCEx_PeriphCLKConfig(&PeriphClkInitStruct) != HAL_OK)
 8001092:	f107 0310 	add.w	r3, r7, #16
 8001096:	4618      	mov	r0, r3
 8001098:	f006 fa50 	bl	800753c <HAL_RCCEx_PeriphCLKConfig>
 800109c:	4603      	mov	r3, r0
 800109e:	2b00      	cmp	r3, #0
 80010a0:	d001      	beq.n	80010a6 <HAL_UART_MspInit+0x4e>
    {
      Error_Handler();
 80010a2:	f7ff fec3 	bl	8000e2c <Error_Handler>
    }

    /* USART3 clock enable */
    __HAL_RCC_USART3_CLK_ENABLE();
 80010a6:	4b37      	ldr	r3, [pc, #220]	; (8001184 <HAL_UART_MspInit+0x12c>)
 80010a8:	f8d3 30e8 	ldr.w	r3, [r3, #232]	; 0xe8
 80010ac:	4a35      	ldr	r2, [pc, #212]	; (8001184 <HAL_UART_MspInit+0x12c>)
 80010ae:	f443 2380 	orr.w	r3, r3, #262144	; 0x40000
 80010b2:	f8c2 30e8 	str.w	r3, [r2, #232]	; 0xe8
 80010b6:	4b33      	ldr	r3, [pc, #204]	; (8001184 <HAL_UART_MspInit+0x12c>)
 80010b8:	f8d3 30e8 	ldr.w	r3, [r3, #232]	; 0xe8
 80010bc:	f403 2380 	and.w	r3, r3, #262144	; 0x40000
 80010c0:	60fb      	str	r3, [r7, #12]
 80010c2:	68fb      	ldr	r3, [r7, #12]

    __HAL_RCC_GPIOD_CLK_ENABLE();
 80010c4:	4b2f      	ldr	r3, [pc, #188]	; (8001184 <HAL_UART_MspInit+0x12c>)
 80010c6:	f8d3 30e0 	ldr.w	r3, [r3, #224]	; 0xe0
 80010ca:	4a2e      	ldr	r2, [pc, #184]	; (8001184 <HAL_UART_MspInit+0x12c>)
 80010cc:	f043 0308 	orr.w	r3, r3, #8
 80010d0:	f8c2 30e0 	str.w	r3, [r2, #224]	; 0xe0
 80010d4:	4b2b      	ldr	r3, [pc, #172]	; (8001184 <HAL_UART_MspInit+0x12c>)
 80010d6:	f8d3 30e0 	ldr.w	r3, [r3, #224]	; 0xe0
 80010da:	f003 0308 	and.w	r3, r3, #8
 80010de:	60bb      	str	r3, [r7, #8]
 80010e0:	68bb      	ldr	r3, [r7, #8]
    /**USART3 GPIO Configuration
    PD8     ------> USART3_TX
    PD9     ------> USART3_RX
    */
    GPIO_InitStruct.Pin = GPIO_PIN_8|GPIO_PIN_9;
 80010e2:	f44f 7340 	mov.w	r3, #768	; 0x300
 80010e6:	f8c7 30cc 	str.w	r3, [r7, #204]	; 0xcc
    GPIO_InitStruct.Mode = GPIO_MODE_AF_PP;
 80010ea:	2302      	movs	r3, #2
 80010ec:	f8c7 30d0 	str.w	r3, [r7, #208]	; 0xd0
    GPIO_InitStruct.Pull = GPIO_PULLUP;
 80010f0:	2301      	movs	r3, #1
 80010f2:	f8c7 30d4 	str.w	r3, [r7, #212]	; 0xd4
    GPIO_InitStruct.Speed = GPIO_SPEED_FREQ_VERY_HIGH;
 80010f6:	2303      	movs	r3, #3
 80010f8:	f8c7 30d8 	str.w	r3, [r7, #216]	; 0xd8
    GPIO_InitStruct.Alternate = GPIO_AF7_USART3;
 80010fc:	2307      	movs	r3, #7
 80010fe:	f8c7 30dc 	str.w	r3, [r7, #220]	; 0xdc
    HAL_GPIO_Init(GPIOD, &GPIO_InitStruct);
 8001102:	f107 03cc 	add.w	r3, r7, #204	; 0xcc
 8001106:	4619      	mov	r1, r3
 8001108:	481f      	ldr	r0, [pc, #124]	; (8001188 <HAL_UART_MspInit+0x130>)
 800110a:	f003 fb4d 	bl	80047a8 <HAL_GPIO_Init>

    /* USART3 DMA Init */
    /* USART3_TX Init */
    hdma_usart3_tx.Instance = DMA1_Stream0;
 800110e:	4b1f      	ldr	r3, [pc, #124]	; (800118c <HAL_UART_MspInit+0x134>)
 8001110:	4a1f      	ldr	r2, [pc, #124]	; (8001190 <HAL_UART_MspInit+0x138>)
 8001112:	601a      	str	r2, [r3, #0]
    hdma_usart3_tx.Init.Request = DMA_REQUEST_USART3_TX;
 8001114:	4b1d      	ldr	r3, [pc, #116]	; (800118c <HAL_UART_MspInit+0x134>)
 8001116:	222e      	movs	r2, #46	; 0x2e
 8001118:	605a      	str	r2, [r3, #4]
    hdma_usart3_tx.Init.Direction = DMA_MEMORY_TO_PERIPH;
 800111a:	4b1c      	ldr	r3, [pc, #112]	; (800118c <HAL_UART_MspInit+0x134>)
 800111c:	2240      	movs	r2, #64	; 0x40
 800111e:	609a      	str	r2, [r3, #8]
    hdma_usart3_tx.Init.PeriphInc = DMA_PINC_DISABLE;
 8001120:	4b1a      	ldr	r3, [pc, #104]	; (800118c <HAL_UART_MspInit+0x134>)
 8001122:	2200      	movs	r2, #0
 8001124:	60da      	str	r2, [r3, #12]
    hdma_usart3_tx.Init.MemInc = DMA_MINC_ENABLE;
 8001126:	4b19      	ldr	r3, [pc, #100]	; (800118c <HAL_UART_MspInit+0x134>)
 8001128:	f44f 6280 	mov.w	r2, #1024	; 0x400
 800112c:	611a      	str	r2, [r3, #16]
    hdma_usart3_tx.Init.PeriphDataAlignment = DMA_PDATAALIGN_BYTE;
 800112e:	4b17      	ldr	r3, [pc, #92]	; (800118c <HAL_UART_MspInit+0x134>)
 8001130:	2200      	movs	r2, #0
 8001132:	615a      	str	r2, [r3, #20]
    hdma_usart3_tx.Init.MemDataAlignment = DMA_MDATAALIGN_BYTE;
 8001134:	4b15      	ldr	r3, [pc, #84]	; (800118c <HAL_UART_MspInit+0x134>)
 8001136:	2200      	movs	r2, #0
 8001138:	619a      	str	r2, [r3, #24]
    hdma_usart3_tx.Init.Mode = DMA_NORMAL;
 800113a:	4b14      	ldr	r3, [pc, #80]	; (800118c <HAL_UART_MspInit+0x134>)
 800113c:	2200      	movs	r2, #0
 800113e:	61da      	str	r2, [r3, #28]
    hdma_usart3_tx.Init.Priority = DMA_PRIORITY_LOW;
 8001140:	4b12      	ldr	r3, [pc, #72]	; (800118c <HAL_UART_MspInit+0x134>)
 8001142:	2200      	movs	r2, #0
 8001144:	621a      	str	r2, [r3, #32]
    hdma_usart3_tx.Init.FIFOMode = DMA_FIFOMODE_DISABLE;
 8001146:	4b11      	ldr	r3, [pc, #68]	; (800118c <HAL_UART_MspInit+0x134>)
 8001148:	2200      	movs	r2, #0
 800114a:	625a      	str	r2, [r3, #36]	; 0x24
    if (HAL_DMA_Init(&hdma_usart3_tx) != HAL_OK)
 800114c:	480f      	ldr	r0, [pc, #60]	; (800118c <HAL_UART_MspInit+0x134>)
 800114e:	f000 fb39 	bl	80017c4 <HAL_DMA_Init>
 8001152:	4603      	mov	r3, r0
 8001154:	2b00      	cmp	r3, #0
 8001156:	d001      	beq.n	800115c <HAL_UART_MspInit+0x104>
    {
      Error_Handler();
 8001158:	f7ff fe68 	bl	8000e2c <Error_Handler>
    }

    __HAL_LINKDMA(uartHandle,hdmatx,hdma_usart3_tx);
 800115c:	687b      	ldr	r3, [r7, #4]
 800115e:	4a0b      	ldr	r2, [pc, #44]	; (800118c <HAL_UART_MspInit+0x134>)
 8001160:	679a      	str	r2, [r3, #120]	; 0x78
 8001162:	4a0a      	ldr	r2, [pc, #40]	; (800118c <HAL_UART_MspInit+0x134>)
 8001164:	687b      	ldr	r3, [r7, #4]
 8001166:	6393      	str	r3, [r2, #56]	; 0x38

    /* USART3 interrupt Init */
    HAL_NVIC_SetPriority(USART3_IRQn, 5, 0);
 8001168:	2200      	movs	r2, #0
 800116a:	2105      	movs	r1, #5
 800116c:	2027      	movs	r0, #39	; 0x27
 800116e:	f000 fa77 	bl	8001660 <HAL_NVIC_SetPriority>
    HAL_NVIC_EnableIRQ(USART3_IRQn);
 8001172:	2027      	movs	r0, #39	; 0x27
 8001174:	f000 fa8e 	bl	8001694 <HAL_NVIC_EnableIRQ>
  /* USER CODE BEGIN USART3_MspInit 1 */

  /* USER CODE END USART3_MspInit 1 */
  }
}
 8001178:	bf00      	nop
 800117a:	37e0      	adds	r7, #224	; 0xe0
 800117c:	46bd      	mov	sp, r7
 800117e:	bd80      	pop	{r7, pc}
 8001180:	40004800 	.word	0x40004800
 8001184:	58024400 	.word	0x58024400
 8001188:	58020c00 	.word	0x58020c00
 800118c:	240005d8 	.word	0x240005d8
 8001190:	40020010 	.word	0x40020010

08001194 <HAL_UART_MspDeInit>:

void HAL_UART_MspDeInit(UART_HandleTypeDef* uartHandle)
{
 8001194:	b580      	push	{r7, lr}
 8001196:	b082      	sub	sp, #8
 8001198:	af00      	add	r7, sp, #0
 800119a:	6078      	str	r0, [r7, #4]

  if(uartHandle->Instance==USART3)
 800119c:	687b      	ldr	r3, [r7, #4]
 800119e:	681b      	ldr	r3, [r3, #0]
 80011a0:	4a0d      	ldr	r2, [pc, #52]	; (80011d8 <HAL_UART_MspDeInit+0x44>)
 80011a2:	4293      	cmp	r3, r2
 80011a4:	d114      	bne.n	80011d0 <HAL_UART_MspDeInit+0x3c>
  {
  /* USER CODE BEGIN USART3_MspDeInit 0 */

  /* USER CODE END USART3_MspDeInit 0 */
    /* Peripheral clock disable */
    __HAL_RCC_USART3_CLK_DISABLE();
 80011a6:	4b0d      	ldr	r3, [pc, #52]	; (80011dc <HAL_UART_MspDeInit+0x48>)
 80011a8:	f8d3 30e8 	ldr.w	r3, [r3, #232]	; 0xe8
 80011ac:	4a0b      	ldr	r2, [pc, #44]	; (80011dc <HAL_UART_MspDeInit+0x48>)
 80011ae:	f423 2380 	bic.w	r3, r3, #262144	; 0x40000
 80011b2:	f8c2 30e8 	str.w	r3, [r2, #232]	; 0xe8

    /**USART3 GPIO Configuration
    PD8     ------> USART3_TX
    PD9     ------> USART3_RX
    */
    HAL_GPIO_DeInit(GPIOD, GPIO_PIN_8|GPIO_PIN_9);
 80011b6:	f44f 7140 	mov.w	r1, #768	; 0x300
 80011ba:	4809      	ldr	r0, [pc, #36]	; (80011e0 <HAL_UART_MspDeInit+0x4c>)
 80011bc:	f003 fca4 	bl	8004b08 <HAL_GPIO_DeInit>

    /* USART3 DMA DeInit */
    HAL_DMA_DeInit(uartHandle->hdmatx);
 80011c0:	687b      	ldr	r3, [r7, #4]
 80011c2:	6f9b      	ldr	r3, [r3, #120]	; 0x78
 80011c4:	4618      	mov	r0, r3
 80011c6:	f000 fe59 	bl	8001e7c <HAL_DMA_DeInit>

    /* USART3 interrupt Deinit */
    HAL_NVIC_DisableIRQ(USART3_IRQn);
 80011ca:	2027      	movs	r0, #39	; 0x27
 80011cc:	f000 fa70 	bl	80016b0 <HAL_NVIC_DisableIRQ>
  /* USER CODE BEGIN USART3_MspDeInit 1 */

  /* USER CODE END USART3_MspDeInit 1 */
  }
}
 80011d0:	bf00      	nop
 80011d2:	3708      	adds	r7, #8
 80011d4:	46bd      	mov	sp, r7
 80011d6:	bd80      	pop	{r7, pc}
 80011d8:	40004800 	.word	0x40004800
 80011dc:	58024400 	.word	0x58024400
 80011e0:	58020c00 	.word	0x58020c00

080011e4 <MX_USB_OTG_FS_PCD_Init>:
PCD_HandleTypeDef hpcd_USB_OTG_FS;

/* USB_OTG_FS init function */

void MX_USB_OTG_FS_PCD_Init(void)
{
 80011e4:	b580      	push	{r7, lr}
 80011e6:	af00      	add	r7, sp, #0
  /* USER CODE BEGIN USB_OTG_FS_Init 0 */

  /* USER CODE END USB_OTG_FS_Init 0 */

  /* USER CODE BEGIN USB_OTG_FS_Init 1 */
	memset(&hpcd_USB_OTG_FS, 0x0, sizeof(PCD_HandleTypeDef));
 80011e8:	f240 520c 	movw	r2, #1292	; 0x50c
 80011ec:	2100      	movs	r1, #0
 80011ee:	4818      	ldr	r0, [pc, #96]	; (8001250 <MX_USB_OTG_FS_PCD_Init+0x6c>)
 80011f0:	f014 fc22 	bl	8015a38 <memset>
  /* USER CODE END USB_OTG_FS_Init 1 */
  hpcd_USB_OTG_FS.Instance = USB_OTG_FS;
 80011f4:	4b16      	ldr	r3, [pc, #88]	; (8001250 <MX_USB_OTG_FS_PCD_Init+0x6c>)
 80011f6:	4a17      	ldr	r2, [pc, #92]	; (8001254 <MX_USB_OTG_FS_PCD_Init+0x70>)
 80011f8:	601a      	str	r2, [r3, #0]
  hpcd_USB_OTG_FS.Init.dev_endpoints = 9;
 80011fa:	4b15      	ldr	r3, [pc, #84]	; (8001250 <MX_USB_OTG_FS_PCD_Init+0x6c>)
 80011fc:	2209      	movs	r2, #9
 80011fe:	605a      	str	r2, [r3, #4]
  hpcd_USB_OTG_FS.Init.speed = PCD_SPEED_FULL;
 8001200:	4b13      	ldr	r3, [pc, #76]	; (8001250 <MX_USB_OTG_FS_PCD_Init+0x6c>)
 8001202:	2202      	movs	r2, #2
 8001204:	60da      	str	r2, [r3, #12]
  hpcd_USB_OTG_FS.Init.dma_enable = DISABLE;
 8001206:	4b12      	ldr	r3, [pc, #72]	; (8001250 <MX_USB_OTG_FS_PCD_Init+0x6c>)
 8001208:	2200      	movs	r2, #0
 800120a:	611a      	str	r2, [r3, #16]
  hpcd_USB_OTG_FS.Init.phy_itface = USB_OTG_EMBEDDED_PHY;
 800120c:	4b10      	ldr	r3, [pc, #64]	; (8001250 <MX_USB_OTG_FS_PCD_Init+0x6c>)
 800120e:	2202      	movs	r2, #2
 8001210:	619a      	str	r2, [r3, #24]
  hpcd_USB_OTG_FS.Init.Sof_enable = DISABLE;
 8001212:	4b0f      	ldr	r3, [pc, #60]	; (8001250 <MX_USB_OTG_FS_PCD_Init+0x6c>)
 8001214:	2200      	movs	r2, #0
 8001216:	61da      	str	r2, [r3, #28]
  hpcd_USB_OTG_FS.Init.low_power_enable = DISABLE;
 8001218:	4b0d      	ldr	r3, [pc, #52]	; (8001250 <MX_USB_OTG_FS_PCD_Init+0x6c>)
 800121a:	2200      	movs	r2, #0
 800121c:	621a      	str	r2, [r3, #32]
  hpcd_USB_OTG_FS.Init.lpm_enable = DISABLE;
 800121e:	4b0c      	ldr	r3, [pc, #48]	; (8001250 <MX_USB_OTG_FS_PCD_Init+0x6c>)
 8001220:	2200      	movs	r2, #0
 8001222:	625a      	str	r2, [r3, #36]	; 0x24
  hpcd_USB_OTG_FS.Init.battery_charging_enable = DISABLE;
 8001224:	4b0a      	ldr	r3, [pc, #40]	; (8001250 <MX_USB_OTG_FS_PCD_Init+0x6c>)
 8001226:	2200      	movs	r2, #0
 8001228:	629a      	str	r2, [r3, #40]	; 0x28
  hpcd_USB_OTG_FS.Init.vbus_sensing_enable = DISABLE;
 800122a:	4b09      	ldr	r3, [pc, #36]	; (8001250 <MX_USB_OTG_FS_PCD_Init+0x6c>)
 800122c:	2200      	movs	r2, #0
 800122e:	62da      	str	r2, [r3, #44]	; 0x2c
  hpcd_USB_OTG_FS.Init.use_dedicated_ep1 = DISABLE;
 8001230:	4b07      	ldr	r3, [pc, #28]	; (8001250 <MX_USB_OTG_FS_PCD_Init+0x6c>)
 8001232:	2200      	movs	r2, #0
 8001234:	631a      	str	r2, [r3, #48]	; 0x30
  hpcd_USB_OTG_FS.Init.use_external_vbus = DISABLE;
 8001236:	4b06      	ldr	r3, [pc, #24]	; (8001250 <MX_USB_OTG_FS_PCD_Init+0x6c>)
 8001238:	2200      	movs	r2, #0
 800123a:	635a      	str	r2, [r3, #52]	; 0x34
  if (HAL_PCD_Init(&hpcd_USB_OTG_FS) != HAL_OK)
 800123c:	4804      	ldr	r0, [pc, #16]	; (8001250 <MX_USB_OTG_FS_PCD_Init+0x6c>)
 800123e:	f003 fd9b 	bl	8004d78 <HAL_PCD_Init>
 8001242:	4603      	mov	r3, r0
 8001244:	2b00      	cmp	r3, #0
 8001246:	d001      	beq.n	800124c <MX_USB_OTG_FS_PCD_Init+0x68>
  {
    Error_Handler();
 8001248:	f7ff fdf0 	bl	8000e2c <Error_Handler>
  }
  /* USER CODE BEGIN USB_OTG_FS_Init 2 */

  /* USER CODE END USB_OTG_FS_Init 2 */

}
 800124c:	bf00      	nop
 800124e:	bd80      	pop	{r7, pc}
 8001250:	24027000 	.word	0x24027000
 8001254:	40080000 	.word	0x40080000

08001258 <HAL_PCD_MspInit>:

void HAL_PCD_MspInit(PCD_HandleTypeDef* pcdHandle)
{
 8001258:	b580      	push	{r7, lr}
 800125a:	b0b8      	sub	sp, #224	; 0xe0
 800125c:	af00      	add	r7, sp, #0
 800125e:	6078      	str	r0, [r7, #4]

  GPIO_InitTypeDef GPIO_InitStruct = {0};
 8001260:	f107 03cc 	add.w	r3, r7, #204	; 0xcc
 8001264:	2200      	movs	r2, #0
 8001266:	601a      	str	r2, [r3, #0]
 8001268:	605a      	str	r2, [r3, #4]
 800126a:	609a      	str	r2, [r3, #8]
 800126c:	60da      	str	r2, [r3, #12]
 800126e:	611a      	str	r2, [r3, #16]
  RCC_PeriphCLKInitTypeDef PeriphClkInitStruct = {0};
 8001270:	f107 0310 	add.w	r3, r7, #16
 8001274:	22bc      	movs	r2, #188	; 0xbc
 8001276:	2100      	movs	r1, #0
 8001278:	4618      	mov	r0, r3
 800127a:	f014 fbdd 	bl	8015a38 <memset>
  if(pcdHandle->Instance==USB_OTG_FS)
 800127e:	687b      	ldr	r3, [r7, #4]
 8001280:	681b      	ldr	r3, [r3, #0]
 8001282:	4a2b      	ldr	r2, [pc, #172]	; (8001330 <HAL_PCD_MspInit+0xd8>)
 8001284:	4293      	cmp	r3, r2
 8001286:	d14e      	bne.n	8001326 <HAL_PCD_MspInit+0xce>

  /* USER CODE END USB_OTG_FS_MspInit 0 */

  /** Initializes the peripherals clock
  */
    PeriphClkInitStruct.PeriphClockSelection = RCC_PERIPHCLK_USB;
 8001288:	f44f 2380 	mov.w	r3, #262144	; 0x40000
 800128c:	613b      	str	r3, [r7, #16]
    PeriphClkInitStruct.UsbClockSelection = RCC_USBCLKSOURCE_HSI48;
 800128e:	f44f 1340 	mov.w	r3, #3145728	; 0x300000
 8001292:	f8c7 3094 	str.w	r3, [r7, #148]	; 0x94
    if (HAL_RCCEx_PeriphCLKConfig(&PeriphClkInitStruct) != HAL_OK)
 8001296:	f107 0310 	add.w	r3, r7, #16
 800129a:	4618      	mov	r0, r3
 800129c:	f006 f94e 	bl	800753c <HAL_RCCEx_PeriphCLKConfig>
 80012a0:	4603      	mov	r3, r0
 80012a2:	2b00      	cmp	r3, #0
 80012a4:	d001      	beq.n	80012aa <HAL_PCD_MspInit+0x52>
    {
      Error_Handler();
 80012a6:	f7ff fdc1 	bl	8000e2c <Error_Handler>
    }

  /** Enable USB Voltage detector
  */
    HAL_PWREx_EnableUSBVoltageDetector();
 80012aa:	f005 f93b 	bl	8006524 <HAL_PWREx_EnableUSBVoltageDetector>

    __HAL_RCC_GPIOA_CLK_ENABLE();
 80012ae:	4b21      	ldr	r3, [pc, #132]	; (8001334 <HAL_PCD_MspInit+0xdc>)
 80012b0:	f8d3 30e0 	ldr.w	r3, [r3, #224]	; 0xe0
 80012b4:	4a1f      	ldr	r2, [pc, #124]	; (8001334 <HAL_PCD_MspInit+0xdc>)
 80012b6:	f043 0301 	orr.w	r3, r3, #1
 80012ba:	f8c2 30e0 	str.w	r3, [r2, #224]	; 0xe0
 80012be:	4b1d      	ldr	r3, [pc, #116]	; (8001334 <HAL_PCD_MspInit+0xdc>)
 80012c0:	f8d3 30e0 	ldr.w	r3, [r3, #224]	; 0xe0
 80012c4:	f003 0301 	and.w	r3, r3, #1
 80012c8:	60fb      	str	r3, [r7, #12]
 80012ca:	68fb      	ldr	r3, [r7, #12]
    /**USB_OTG_FS GPIO Configuration
    PA11     ------> USB_OTG_FS_DM
    PA12     ------> USB_OTG_FS_DP
    */
    GPIO_InitStruct.Pin = GPIO_PIN_11|GPIO_PIN_12;
 80012cc:	f44f 53c0 	mov.w	r3, #6144	; 0x1800
 80012d0:	f8c7 30cc 	str.w	r3, [r7, #204]	; 0xcc
    GPIO_InitStruct.Mode = GPIO_MODE_AF_PP;
 80012d4:	2302      	movs	r3, #2
 80012d6:	f8c7 30d0 	str.w	r3, [r7, #208]	; 0xd0
    GPIO_InitStruct.Pull = GPIO_NOPULL;
 80012da:	2300      	movs	r3, #0
 80012dc:	f8c7 30d4 	str.w	r3, [r7, #212]	; 0xd4
    GPIO_InitStruct.Speed = GPIO_SPEED_FREQ_LOW;
 80012e0:	2300      	movs	r3, #0
 80012e2:	f8c7 30d8 	str.w	r3, [r7, #216]	; 0xd8
    GPIO_InitStruct.Alternate = GPIO_AF10_OTG1_FS;
 80012e6:	230a      	movs	r3, #10
 80012e8:	f8c7 30dc 	str.w	r3, [r7, #220]	; 0xdc
    HAL_GPIO_Init(GPIOA, &GPIO_InitStruct);
 80012ec:	f107 03cc 	add.w	r3, r7, #204	; 0xcc
 80012f0:	4619      	mov	r1, r3
 80012f2:	4811      	ldr	r0, [pc, #68]	; (8001338 <HAL_PCD_MspInit+0xe0>)
 80012f4:	f003 fa58 	bl	80047a8 <HAL_GPIO_Init>

    /* USB_OTG_FS clock enable */
    __HAL_RCC_USB_OTG_FS_CLK_ENABLE();
 80012f8:	4b0e      	ldr	r3, [pc, #56]	; (8001334 <HAL_PCD_MspInit+0xdc>)
 80012fa:	f8d3 30d8 	ldr.w	r3, [r3, #216]	; 0xd8
 80012fe:	4a0d      	ldr	r2, [pc, #52]	; (8001334 <HAL_PCD_MspInit+0xdc>)
 8001300:	f043 6300 	orr.w	r3, r3, #134217728	; 0x8000000
 8001304:	f8c2 30d8 	str.w	r3, [r2, #216]	; 0xd8
 8001308:	4b0a      	ldr	r3, [pc, #40]	; (8001334 <HAL_PCD_MspInit+0xdc>)
 800130a:	f8d3 30d8 	ldr.w	r3, [r3, #216]	; 0xd8
 800130e:	f003 6300 	and.w	r3, r3, #134217728	; 0x8000000
 8001312:	60bb      	str	r3, [r7, #8]
 8001314:	68bb      	ldr	r3, [r7, #8]

    /* USB_OTG_FS interrupt Init */
    HAL_NVIC_SetPriority(OTG_FS_IRQn, 6, 0);
 8001316:	2200      	movs	r2, #0
 8001318:	2106      	movs	r1, #6
 800131a:	2065      	movs	r0, #101	; 0x65
 800131c:	f000 f9a0 	bl	8001660 <HAL_NVIC_SetPriority>
    HAL_NVIC_EnableIRQ(OTG_FS_IRQn);
 8001320:	2065      	movs	r0, #101	; 0x65
 8001322:	f000 f9b7 	bl	8001694 <HAL_NVIC_EnableIRQ>
  /* USER CODE BEGIN USB_OTG_FS_MspInit 1 */

  /* USER CODE END USB_OTG_FS_MspInit 1 */
  }
}
 8001326:	bf00      	nop
 8001328:	37e0      	adds	r7, #224	; 0xe0
 800132a:	46bd      	mov	sp, r7
 800132c:	bd80      	pop	{r7, pc}
 800132e:	bf00      	nop
 8001330:	40080000 	.word	0x40080000
 8001334:	58024400 	.word	0x58024400
 8001338:	58020000 	.word	0x58020000

0800133c <Reset_Handler>:

    .section  .text.Reset_Handler
  .weak  Reset_Handler
  .type  Reset_Handler, %function
Reset_Handler:
  ldr   sp, =_estack      /* set stack pointer */
 800133c:	f8df d034 	ldr.w	sp, [pc, #52]	; 8001374 <LoopFillZerobss+0xe>

/* Call the clock system initialization function.*/
  bl  SystemInit
 8001340:	f7ff fab6 	bl	80008b0 <SystemInit>

/* Copy the data segment initializers from flash to SRAM */
  ldr r0, =_sdata
 8001344:	480c      	ldr	r0, [pc, #48]	; (8001378 <LoopFillZerobss+0x12>)
  ldr r1, =_edata
 8001346:	490d      	ldr	r1, [pc, #52]	; (800137c <LoopFillZerobss+0x16>)
  ldr r2, =_sidata
 8001348:	4a0d      	ldr	r2, [pc, #52]	; (8001380 <LoopFillZerobss+0x1a>)
  movs r3, #0
 800134a:	2300      	movs	r3, #0
  b LoopCopyDataInit
 800134c:	e002      	b.n	8001354 <LoopCopyDataInit>

0800134e <CopyDataInit>:

CopyDataInit:
  ldr r4, [r2, r3]
 800134e:	58d4      	ldr	r4, [r2, r3]
  str r4, [r0, r3]
 8001350:	50c4      	str	r4, [r0, r3]
  adds r3, r3, #4
 8001352:	3304      	adds	r3, #4

08001354 <LoopCopyDataInit>:

LoopCopyDataInit:
  adds r4, r0, r3
 8001354:	18c4      	adds	r4, r0, r3
  cmp r4, r1
 8001356:	428c      	cmp	r4, r1
  bcc CopyDataInit
 8001358:	d3f9      	bcc.n	800134e <CopyDataInit>
/* Zero fill the bss segment. */
  ldr r2, =_sbss
 800135a:	4a0a      	ldr	r2, [pc, #40]	; (8001384 <LoopFillZerobss+0x1e>)
  ldr r4, =_ebss
 800135c:	4c0a      	ldr	r4, [pc, #40]	; (8001388 <LoopFillZerobss+0x22>)
  movs r3, #0
 800135e:	2300      	movs	r3, #0
  b LoopFillZerobss
 8001360:	e001      	b.n	8001366 <LoopFillZerobss>

08001362 <FillZerobss>:

FillZerobss:
  str  r3, [r2]
 8001362:	6013      	str	r3, [r2, #0]
  adds r2, r2, #4
 8001364:	3204      	adds	r2, #4

08001366 <LoopFillZerobss>:

LoopFillZerobss:
  cmp r2, r4
 8001366:	42a2      	cmp	r2, r4
  bcc FillZerobss
 8001368:	d3fb      	bcc.n	8001362 <FillZerobss>

/* Call static constructors */
    bl __libc_init_array
 800136a:	f014 fb41 	bl	80159f0 <__libc_init_array>
/* Call the application's entry point.*/
  bl  main
 800136e:	f7ff fba3 	bl	8000ab8 <main>
  bx  lr
 8001372:	4770      	bx	lr
  ldr   sp, =_estack      /* set stack pointer */
 8001374:	24080000 	.word	0x24080000
  ldr r0, =_sdata
 8001378:	24000000 	.word	0x24000000
  ldr r1, =_edata
 800137c:	24000078 	.word	0x24000078
  ldr r2, =_sidata
 8001380:	08015c08 	.word	0x08015c08
  ldr r2, =_sbss
 8001384:	24000078 	.word	0x24000078
  ldr r4, =_ebss
 8001388:	24001bd4 	.word	0x24001bd4

0800138c <ADC3_IRQHandler>:
 * @retval None
*/
    .section  .text.Default_Handler,"ax",%progbits
Default_Handler:
Infinite_Loop:
  b  Infinite_Loop
 800138c:	e7fe      	b.n	800138c <ADC3_IRQHandler>
	...

08001390 <HAL_Init>:
  *         need to ensure that the SysTick time base is always set to 1 millisecond
  *         to have correct HAL operation.
  * @retval HAL status
  */
HAL_StatusTypeDef HAL_Init(void)
{
 8001390:	b580      	push	{r7, lr}
 8001392:	b082      	sub	sp, #8
 8001394:	af00      	add	r7, sp, #0
   __HAL_ART_CONFIG_BASE_ADDRESS(0x08100000UL);  /* Configure the Cortex-M4 ART Base address to the Flash Bank 2 : */
   __HAL_ART_ENABLE();                           /* Enable the Cortex-M4 ART */
#endif /* DUAL_CORE &&  CORE_CM4 */

  /* Set Interrupt Group Priority */
  HAL_NVIC_SetPriorityGrouping(NVIC_PRIORITYGROUP_4);
 8001396:	2003      	movs	r0, #3
 8001398:	f000 f957 	bl	800164a <HAL_NVIC_SetPriorityGrouping>

  /* Update the SystemCoreClock global variable */
#if defined(RCC_D1CFGR_D1CPRE)
  common_system_clock = HAL_RCC_GetSysClockFreq() >> ((D1CorePrescTable[(RCC->D1CFGR & RCC_D1CFGR_D1CPRE)>> RCC_D1CFGR_D1CPRE_Pos]) & 0x1FU);
 800139c:	f005 feb6 	bl	800710c <HAL_RCC_GetSysClockFreq>
 80013a0:	4602      	mov	r2, r0
 80013a2:	4b15      	ldr	r3, [pc, #84]	; (80013f8 <HAL_Init+0x68>)
 80013a4:	699b      	ldr	r3, [r3, #24]
 80013a6:	0a1b      	lsrs	r3, r3, #8
 80013a8:	f003 030f 	and.w	r3, r3, #15
 80013ac:	4913      	ldr	r1, [pc, #76]	; (80013fc <HAL_Init+0x6c>)
 80013ae:	5ccb      	ldrb	r3, [r1, r3]
 80013b0:	f003 031f 	and.w	r3, r3, #31
 80013b4:	fa22 f303 	lsr.w	r3, r2, r3
 80013b8:	607b      	str	r3, [r7, #4]
  common_system_clock = HAL_RCC_GetSysClockFreq() >> ((D1CorePrescTable[(RCC->CDCFGR1 & RCC_CDCFGR1_CDCPRE)>> RCC_CDCFGR1_CDCPRE_Pos]) & 0x1FU);
#endif

  /* Update the SystemD2Clock global variable */
#if defined(RCC_D1CFGR_HPRE)
  SystemD2Clock = (common_system_clock >> ((D1CorePrescTable[(RCC->D1CFGR & RCC_D1CFGR_HPRE)>> RCC_D1CFGR_HPRE_Pos]) & 0x1FU));
 80013ba:	4b0f      	ldr	r3, [pc, #60]	; (80013f8 <HAL_Init+0x68>)
 80013bc:	699b      	ldr	r3, [r3, #24]
 80013be:	f003 030f 	and.w	r3, r3, #15
 80013c2:	4a0e      	ldr	r2, [pc, #56]	; (80013fc <HAL_Init+0x6c>)
 80013c4:	5cd3      	ldrb	r3, [r2, r3]
 80013c6:	f003 031f 	and.w	r3, r3, #31
 80013ca:	687a      	ldr	r2, [r7, #4]
 80013cc:	fa22 f303 	lsr.w	r3, r2, r3
 80013d0:	4a0b      	ldr	r2, [pc, #44]	; (8001400 <HAL_Init+0x70>)
 80013d2:	6013      	str	r3, [r2, #0]
#endif

#if defined(DUAL_CORE) && defined(CORE_CM4)
  SystemCoreClock = SystemD2Clock;
#else
  SystemCoreClock = common_system_clock;
 80013d4:	4a0b      	ldr	r2, [pc, #44]	; (8001404 <HAL_Init+0x74>)
 80013d6:	687b      	ldr	r3, [r7, #4]
 80013d8:	6013      	str	r3, [r2, #0]
#endif /* DUAL_CORE && CORE_CM4 */

  /* Use systick as time base source and configure 1ms tick (default clock after Reset is HSI) */
  if(HAL_InitTick(TICK_INT_PRIORITY) != HAL_OK)
 80013da:	200f      	movs	r0, #15
 80013dc:	f7ff fd46 	bl	8000e6c <HAL_InitTick>
 80013e0:	4603      	mov	r3, r0
 80013e2:	2b00      	cmp	r3, #0
 80013e4:	d001      	beq.n	80013ea <HAL_Init+0x5a>
  {
    return HAL_ERROR;
 80013e6:	2301      	movs	r3, #1
 80013e8:	e002      	b.n	80013f0 <HAL_Init+0x60>
  }

  /* Init the low level hardware */
  HAL_MspInit();
 80013ea:	f7ff fd25 	bl	8000e38 <HAL_MspInit>

  /* Return function status */
  return HAL_OK;
 80013ee:	2300      	movs	r3, #0
}
 80013f0:	4618      	mov	r0, r3
 80013f2:	3708      	adds	r7, #8
 80013f4:	46bd      	mov	sp, r7
 80013f6:	bd80      	pop	{r7, pc}
 80013f8:	58024400 	.word	0x58024400
 80013fc:	08015bb8 	.word	0x08015bb8
 8001400:	24000004 	.word	0x24000004
 8001404:	24000000 	.word	0x24000000

08001408 <HAL_IncTick>:
 * @note This function is declared as __weak to be overwritten in case of other
  *      implementations in user file.
  * @retval None
  */
__weak void HAL_IncTick(void)
{
 8001408:	b480      	push	{r7}
 800140a:	af00      	add	r7, sp, #0
  uwTick += (uint32_t)uwTickFreq;
 800140c:	4b06      	ldr	r3, [pc, #24]	; (8001428 <HAL_IncTick+0x20>)
 800140e:	781b      	ldrb	r3, [r3, #0]
 8001410:	461a      	mov	r2, r3
 8001412:	4b06      	ldr	r3, [pc, #24]	; (800142c <HAL_IncTick+0x24>)
 8001414:	681b      	ldr	r3, [r3, #0]
 8001416:	4413      	add	r3, r2
 8001418:	4a04      	ldr	r2, [pc, #16]	; (800142c <HAL_IncTick+0x24>)
 800141a:	6013      	str	r3, [r2, #0]
}
 800141c:	bf00      	nop
 800141e:	46bd      	mov	sp, r7
 8001420:	f85d 7b04 	ldr.w	r7, [sp], #4
 8001424:	4770      	bx	lr
 8001426:	bf00      	nop
 8001428:	2400000c 	.word	0x2400000c
 800142c:	24000650 	.word	0x24000650

08001430 <HAL_GetTick>:
  * @note This function is declared as __weak to be overwritten in case of other
  *       implementations in user file.
  * @retval tick value
  */
__weak uint32_t HAL_GetTick(void)
{
 8001430:	b480      	push	{r7}
 8001432:	af00      	add	r7, sp, #0
  return uwTick;
 8001434:	4b03      	ldr	r3, [pc, #12]	; (8001444 <HAL_GetTick+0x14>)
 8001436:	681b      	ldr	r3, [r3, #0]
}
 8001438:	4618      	mov	r0, r3
 800143a:	46bd      	mov	sp, r7
 800143c:	f85d 7b04 	ldr.w	r7, [sp], #4
 8001440:	4770      	bx	lr
 8001442:	bf00      	nop
 8001444:	24000650 	.word	0x24000650

08001448 <HAL_Delay>:
  *       implementations in user file.
  * @param Delay  specifies the delay time length, in milliseconds.
  * @retval None
  */
__weak void HAL_Delay(uint32_t Delay)
{
 8001448:	b580      	push	{r7, lr}
 800144a:	b084      	sub	sp, #16
 800144c:	af00      	add	r7, sp, #0
 800144e:	6078      	str	r0, [r7, #4]
  uint32_t tickstart = HAL_GetTick();
 8001450:	f7ff ffee 	bl	8001430 <HAL_GetTick>
 8001454:	60b8      	str	r0, [r7, #8]
  uint32_t wait = Delay;
 8001456:	687b      	ldr	r3, [r7, #4]
 8001458:	60fb      	str	r3, [r7, #12]

  /* Add a freq to guarantee minimum wait */
  if (wait < HAL_MAX_DELAY)
 800145a:	68fb      	ldr	r3, [r7, #12]
 800145c:	f1b3 3fff 	cmp.w	r3, #4294967295
 8001460:	d005      	beq.n	800146e <HAL_Delay+0x26>
  {
    wait += (uint32_t)(uwTickFreq);
 8001462:	4b0a      	ldr	r3, [pc, #40]	; (800148c <HAL_Delay+0x44>)
 8001464:	781b      	ldrb	r3, [r3, #0]
 8001466:	461a      	mov	r2, r3
 8001468:	68fb      	ldr	r3, [r7, #12]
 800146a:	4413      	add	r3, r2
 800146c:	60fb      	str	r3, [r7, #12]
  }

  while ((HAL_GetTick() - tickstart) < wait)
 800146e:	bf00      	nop
 8001470:	f7ff ffde 	bl	8001430 <HAL_GetTick>
 8001474:	4602      	mov	r2, r0
 8001476:	68bb      	ldr	r3, [r7, #8]
 8001478:	1ad3      	subs	r3, r2, r3
 800147a:	68fa      	ldr	r2, [r7, #12]
 800147c:	429a      	cmp	r2, r3
 800147e:	d8f7      	bhi.n	8001470 <HAL_Delay+0x28>
  {
  }
}
 8001480:	bf00      	nop
 8001482:	bf00      	nop
 8001484:	3710      	adds	r7, #16
 8001486:	46bd      	mov	sp, r7
 8001488:	bd80      	pop	{r7, pc}
 800148a:	bf00      	nop
 800148c:	2400000c 	.word	0x2400000c

08001490 <HAL_GetREVID>:
/**
  * @brief  Returns the device revision identifier.
  * @retval Device revision identifier
  */
uint32_t HAL_GetREVID(void)
{
 8001490:	b480      	push	{r7}
 8001492:	af00      	add	r7, sp, #0
   return((DBGMCU->IDCODE) >> 16);
 8001494:	4b03      	ldr	r3, [pc, #12]	; (80014a4 <HAL_GetREVID+0x14>)
 8001496:	681b      	ldr	r3, [r3, #0]
 8001498:	0c1b      	lsrs	r3, r3, #16
}
 800149a:	4618      	mov	r0, r3
 800149c:	46bd      	mov	sp, r7
 800149e:	f85d 7b04 	ldr.w	r7, [sp], #4
 80014a2:	4770      	bx	lr
 80014a4:	5c001000 	.word	0x5c001000

080014a8 <__NVIC_SetPriorityGrouping>:
{
 80014a8:	b480      	push	{r7}
 80014aa:	b085      	sub	sp, #20
 80014ac:	af00      	add	r7, sp, #0
 80014ae:	6078      	str	r0, [r7, #4]
  uint32_t PriorityGroupTmp = (PriorityGroup & (uint32_t)0x07UL);             /* only values 0..7 are used          */
 80014b0:	687b      	ldr	r3, [r7, #4]
 80014b2:	f003 0307 	and.w	r3, r3, #7
 80014b6:	60fb      	str	r3, [r7, #12]
  reg_value  =  SCB->AIRCR;                                                   /* read old register configuration    */
 80014b8:	4b0b      	ldr	r3, [pc, #44]	; (80014e8 <__NVIC_SetPriorityGrouping+0x40>)
 80014ba:	68db      	ldr	r3, [r3, #12]
 80014bc:	60bb      	str	r3, [r7, #8]
  reg_value &= ~((uint32_t)(SCB_AIRCR_VECTKEY_Msk | SCB_AIRCR_PRIGROUP_Msk)); /* clear bits to change               */
 80014be:	68ba      	ldr	r2, [r7, #8]
 80014c0:	f64f 03ff 	movw	r3, #63743	; 0xf8ff
 80014c4:	4013      	ands	r3, r2
 80014c6:	60bb      	str	r3, [r7, #8]
                (PriorityGroupTmp << SCB_AIRCR_PRIGROUP_Pos)  );              /* Insert write key and priority group */
 80014c8:	68fb      	ldr	r3, [r7, #12]
 80014ca:	021a      	lsls	r2, r3, #8
                ((uint32_t)0x5FAUL << SCB_AIRCR_VECTKEY_Pos) |
 80014cc:	68bb      	ldr	r3, [r7, #8]
 80014ce:	431a      	orrs	r2, r3
  reg_value  =  (reg_value                                   |
 80014d0:	4b06      	ldr	r3, [pc, #24]	; (80014ec <__NVIC_SetPriorityGrouping+0x44>)
 80014d2:	4313      	orrs	r3, r2
 80014d4:	60bb      	str	r3, [r7, #8]
  SCB->AIRCR =  reg_value;
 80014d6:	4a04      	ldr	r2, [pc, #16]	; (80014e8 <__NVIC_SetPriorityGrouping+0x40>)
 80014d8:	68bb      	ldr	r3, [r7, #8]
 80014da:	60d3      	str	r3, [r2, #12]
}
 80014dc:	bf00      	nop
 80014de:	3714      	adds	r7, #20
 80014e0:	46bd      	mov	sp, r7
 80014e2:	f85d 7b04 	ldr.w	r7, [sp], #4
 80014e6:	4770      	bx	lr
 80014e8:	e000ed00 	.word	0xe000ed00
 80014ec:	05fa0000 	.word	0x05fa0000

080014f0 <__NVIC_GetPriorityGrouping>:
{
 80014f0:	b480      	push	{r7}
 80014f2:	af00      	add	r7, sp, #0
  return ((uint32_t)((SCB->AIRCR & SCB_AIRCR_PRIGROUP_Msk) >> SCB_AIRCR_PRIGROUP_Pos));
 80014f4:	4b04      	ldr	r3, [pc, #16]	; (8001508 <__NVIC_GetPriorityGrouping+0x18>)
 80014f6:	68db      	ldr	r3, [r3, #12]
 80014f8:	0a1b      	lsrs	r3, r3, #8
 80014fa:	f003 0307 	and.w	r3, r3, #7
}
 80014fe:	4618      	mov	r0, r3
 8001500:	46bd      	mov	sp, r7
 8001502:	f85d 7b04 	ldr.w	r7, [sp], #4
 8001506:	4770      	bx	lr
 8001508:	e000ed00 	.word	0xe000ed00

0800150c <__NVIC_EnableIRQ>:
{
 800150c:	b480      	push	{r7}
 800150e:	b083      	sub	sp, #12
 8001510:	af00      	add	r7, sp, #0
 8001512:	4603      	mov	r3, r0
 8001514:	80fb      	strh	r3, [r7, #6]
  if ((int32_t)(IRQn) >= 0)
 8001516:	f9b7 3006 	ldrsh.w	r3, [r7, #6]
 800151a:	2b00      	cmp	r3, #0
 800151c:	db0b      	blt.n	8001536 <__NVIC_EnableIRQ+0x2a>
    NVIC->ISER[(((uint32_t)IRQn) >> 5UL)] = (uint32_t)(1UL << (((uint32_t)IRQn) & 0x1FUL));
 800151e:	88fb      	ldrh	r3, [r7, #6]
 8001520:	f003 021f 	and.w	r2, r3, #31
 8001524:	4907      	ldr	r1, [pc, #28]	; (8001544 <__NVIC_EnableIRQ+0x38>)
 8001526:	f9b7 3006 	ldrsh.w	r3, [r7, #6]
 800152a:	095b      	lsrs	r3, r3, #5
 800152c:	2001      	movs	r0, #1
 800152e:	fa00 f202 	lsl.w	r2, r0, r2
 8001532:	f841 2023 	str.w	r2, [r1, r3, lsl #2]
}
 8001536:	bf00      	nop
 8001538:	370c      	adds	r7, #12
 800153a:	46bd      	mov	sp, r7
 800153c:	f85d 7b04 	ldr.w	r7, [sp], #4
 8001540:	4770      	bx	lr
 8001542:	bf00      	nop
 8001544:	e000e100 	.word	0xe000e100

08001548 <__NVIC_DisableIRQ>:
{
 8001548:	b480      	push	{r7}
 800154a:	b083      	sub	sp, #12
 800154c:	af00      	add	r7, sp, #0
 800154e:	4603      	mov	r3, r0
 8001550:	80fb      	strh	r3, [r7, #6]
  if ((int32_t)(IRQn) >= 0)
 8001552:	f9b7 3006 	ldrsh.w	r3, [r7, #6]
 8001556:	2b00      	cmp	r3, #0
 8001558:	db12      	blt.n	8001580 <__NVIC_DisableIRQ+0x38>
    NVIC->ICER[(((uint32_t)IRQn) >> 5UL)] = (uint32_t)(1UL << (((uint32_t)IRQn) & 0x1FUL));
 800155a:	88fb      	ldrh	r3, [r7, #6]
 800155c:	f003 021f 	and.w	r2, r3, #31
 8001560:	490a      	ldr	r1, [pc, #40]	; (800158c <__NVIC_DisableIRQ+0x44>)
 8001562:	f9b7 3006 	ldrsh.w	r3, [r7, #6]
 8001566:	095b      	lsrs	r3, r3, #5
 8001568:	2001      	movs	r0, #1
 800156a:	fa00 f202 	lsl.w	r2, r0, r2
 800156e:	3320      	adds	r3, #32
 8001570:	f841 2023 	str.w	r2, [r1, r3, lsl #2]
  __ASM volatile ("dsb 0xF":::"memory");
 8001574:	f3bf 8f4f 	dsb	sy
}
 8001578:	bf00      	nop
  __ASM volatile ("isb 0xF":::"memory");
 800157a:	f3bf 8f6f 	isb	sy
}
 800157e:	bf00      	nop
}
 8001580:	bf00      	nop
 8001582:	370c      	adds	r7, #12
 8001584:	46bd      	mov	sp, r7
 8001586:	f85d 7b04 	ldr.w	r7, [sp], #4
 800158a:	4770      	bx	lr
 800158c:	e000e100 	.word	0xe000e100

08001590 <__NVIC_SetPriority>:
{
 8001590:	b480      	push	{r7}
 8001592:	b083      	sub	sp, #12
 8001594:	af00      	add	r7, sp, #0
 8001596:	4603      	mov	r3, r0
 8001598:	6039      	str	r1, [r7, #0]
 800159a:	80fb      	strh	r3, [r7, #6]
  if ((int32_t)(IRQn) >= 0)
 800159c:	f9b7 3006 	ldrsh.w	r3, [r7, #6]
 80015a0:	2b00      	cmp	r3, #0
 80015a2:	db0a      	blt.n	80015ba <__NVIC_SetPriority+0x2a>
    NVIC->IP[((uint32_t)IRQn)]                = (uint8_t)((priority << (8U - __NVIC_PRIO_BITS)) & (uint32_t)0xFFUL);
 80015a4:	683b      	ldr	r3, [r7, #0]
 80015a6:	b2da      	uxtb	r2, r3
 80015a8:	490c      	ldr	r1, [pc, #48]	; (80015dc <__NVIC_SetPriority+0x4c>)
 80015aa:	f9b7 3006 	ldrsh.w	r3, [r7, #6]
 80015ae:	0112      	lsls	r2, r2, #4
 80015b0:	b2d2      	uxtb	r2, r2
 80015b2:	440b      	add	r3, r1
 80015b4:	f883 2300 	strb.w	r2, [r3, #768]	; 0x300
}
 80015b8:	e00a      	b.n	80015d0 <__NVIC_SetPriority+0x40>
    SCB->SHPR[(((uint32_t)IRQn) & 0xFUL)-4UL] = (uint8_t)((priority << (8U - __NVIC_PRIO_BITS)) & (uint32_t)0xFFUL);
 80015ba:	683b      	ldr	r3, [r7, #0]
 80015bc:	b2da      	uxtb	r2, r3
 80015be:	4908      	ldr	r1, [pc, #32]	; (80015e0 <__NVIC_SetPriority+0x50>)
 80015c0:	88fb      	ldrh	r3, [r7, #6]
 80015c2:	f003 030f 	and.w	r3, r3, #15
 80015c6:	3b04      	subs	r3, #4
 80015c8:	0112      	lsls	r2, r2, #4
 80015ca:	b2d2      	uxtb	r2, r2
 80015cc:	440b      	add	r3, r1
 80015ce:	761a      	strb	r2, [r3, #24]
}
 80015d0:	bf00      	nop
 80015d2:	370c      	adds	r7, #12
 80015d4:	46bd      	mov	sp, r7
 80015d6:	f85d 7b04 	ldr.w	r7, [sp], #4
 80015da:	4770      	bx	lr
 80015dc:	e000e100 	.word	0xe000e100
 80015e0:	e000ed00 	.word	0xe000ed00

080015e4 <NVIC_EncodePriority>:
{
 80015e4:	b480      	push	{r7}
 80015e6:	b089      	sub	sp, #36	; 0x24
 80015e8:	af00      	add	r7, sp, #0
 80015ea:	60f8      	str	r0, [r7, #12]
 80015ec:	60b9      	str	r1, [r7, #8]
 80015ee:	607a      	str	r2, [r7, #4]
  uint32_t PriorityGroupTmp = (PriorityGroup & (uint32_t)0x07UL);   /* only values 0..7 are used          */
 80015f0:	68fb      	ldr	r3, [r7, #12]
 80015f2:	f003 0307 	and.w	r3, r3, #7
 80015f6:	61fb      	str	r3, [r7, #28]
  PreemptPriorityBits = ((7UL - PriorityGroupTmp) > (uint32_t)(__NVIC_PRIO_BITS)) ? (uint32_t)(__NVIC_PRIO_BITS) : (uint32_t)(7UL - PriorityGroupTmp);
 80015f8:	69fb      	ldr	r3, [r7, #28]
 80015fa:	f1c3 0307 	rsb	r3, r3, #7
 80015fe:	2b04      	cmp	r3, #4
 8001600:	bf28      	it	cs
 8001602:	2304      	movcs	r3, #4
 8001604:	61bb      	str	r3, [r7, #24]
  SubPriorityBits     = ((PriorityGroupTmp + (uint32_t)(__NVIC_PRIO_BITS)) < (uint32_t)7UL) ? (uint32_t)0UL : (uint32_t)((PriorityGroupTmp - 7UL) + (uint32_t)(__NVIC_PRIO_BITS));
 8001606:	69fb      	ldr	r3, [r7, #28]
 8001608:	3304      	adds	r3, #4
 800160a:	2b06      	cmp	r3, #6
 800160c:	d902      	bls.n	8001614 <NVIC_EncodePriority+0x30>
 800160e:	69fb      	ldr	r3, [r7, #28]
 8001610:	3b03      	subs	r3, #3
 8001612:	e000      	b.n	8001616 <NVIC_EncodePriority+0x32>
 8001614:	2300      	movs	r3, #0
 8001616:	617b      	str	r3, [r7, #20]
           ((PreemptPriority & (uint32_t)((1UL << (PreemptPriorityBits)) - 1UL)) << SubPriorityBits) |
 8001618:	f04f 32ff 	mov.w	r2, #4294967295
 800161c:	69bb      	ldr	r3, [r7, #24]
 800161e:	fa02 f303 	lsl.w	r3, r2, r3
 8001622:	43da      	mvns	r2, r3
 8001624:	68bb      	ldr	r3, [r7, #8]
 8001626:	401a      	ands	r2, r3
 8001628:	697b      	ldr	r3, [r7, #20]
 800162a:	409a      	lsls	r2, r3
           ((SubPriority     & (uint32_t)((1UL << (SubPriorityBits    )) - 1UL)))
 800162c:	f04f 31ff 	mov.w	r1, #4294967295
 8001630:	697b      	ldr	r3, [r7, #20]
 8001632:	fa01 f303 	lsl.w	r3, r1, r3
 8001636:	43d9      	mvns	r1, r3
 8001638:	687b      	ldr	r3, [r7, #4]
 800163a:	400b      	ands	r3, r1
           ((PreemptPriority & (uint32_t)((1UL << (PreemptPriorityBits)) - 1UL)) << SubPriorityBits) |
 800163c:	4313      	orrs	r3, r2
}
 800163e:	4618      	mov	r0, r3
 8001640:	3724      	adds	r7, #36	; 0x24
 8001642:	46bd      	mov	sp, r7
 8001644:	f85d 7b04 	ldr.w	r7, [sp], #4
 8001648:	4770      	bx	lr

0800164a <HAL_NVIC_SetPriorityGrouping>:
  * @note   When the NVIC_PriorityGroup_0 is selected, IRQ preemption is no more possible.
  *         The pending IRQ priority will be managed only by the subpriority.
  * @retval None
  */
void HAL_NVIC_SetPriorityGrouping(uint32_t PriorityGroup)
{
 800164a:	b580      	push	{r7, lr}
 800164c:	b082      	sub	sp, #8
 800164e:	af00      	add	r7, sp, #0
 8001650:	6078      	str	r0, [r7, #4]
  /* Check the parameters */
  assert_param(IS_NVIC_PRIORITY_GROUP(PriorityGroup));

  /* Set the PRIGROUP[10:8] bits according to the PriorityGroup parameter value */
  NVIC_SetPriorityGrouping(PriorityGroup);
 8001652:	6878      	ldr	r0, [r7, #4]
 8001654:	f7ff ff28 	bl	80014a8 <__NVIC_SetPriorityGrouping>
}
 8001658:	bf00      	nop
 800165a:	3708      	adds	r7, #8
 800165c:	46bd      	mov	sp, r7
 800165e:	bd80      	pop	{r7, pc}

08001660 <HAL_NVIC_SetPriority>:
  *         This parameter can be a value between 0 and 15
  *         A lower priority value indicates a higher priority.
  * @retval None
  */
void HAL_NVIC_SetPriority(IRQn_Type IRQn, uint32_t PreemptPriority, uint32_t SubPriority)
{
 8001660:	b580      	push	{r7, lr}
 8001662:	b086      	sub	sp, #24
 8001664:	af00      	add	r7, sp, #0
 8001666:	4603      	mov	r3, r0
 8001668:	60b9      	str	r1, [r7, #8]
 800166a:	607a      	str	r2, [r7, #4]
 800166c:	81fb      	strh	r3, [r7, #14]

  /* Check the parameters */
  assert_param(IS_NVIC_SUB_PRIORITY(SubPriority));
  assert_param(IS_NVIC_PREEMPTION_PRIORITY(PreemptPriority));

  prioritygroup = NVIC_GetPriorityGrouping();
 800166e:	f7ff ff3f 	bl	80014f0 <__NVIC_GetPriorityGrouping>
 8001672:	6178      	str	r0, [r7, #20]

  NVIC_SetPriority(IRQn, NVIC_EncodePriority(prioritygroup, PreemptPriority, SubPriority));
 8001674:	687a      	ldr	r2, [r7, #4]
 8001676:	68b9      	ldr	r1, [r7, #8]
 8001678:	6978      	ldr	r0, [r7, #20]
 800167a:	f7ff ffb3 	bl	80015e4 <NVIC_EncodePriority>
 800167e:	4602      	mov	r2, r0
 8001680:	f9b7 300e 	ldrsh.w	r3, [r7, #14]
 8001684:	4611      	mov	r1, r2
 8001686:	4618      	mov	r0, r3
 8001688:	f7ff ff82 	bl	8001590 <__NVIC_SetPriority>
}
 800168c:	bf00      	nop
 800168e:	3718      	adds	r7, #24
 8001690:	46bd      	mov	sp, r7
 8001692:	bd80      	pop	{r7, pc}

08001694 <HAL_NVIC_EnableIRQ>:
  *         This parameter can be an enumerator of IRQn_Type enumeration
  *         (For the complete STM32 Devices IRQ Channels list, please refer to the appropriate CMSIS device file (stm32h7xxxx.h))
  * @retval None
  */
void HAL_NVIC_EnableIRQ(IRQn_Type IRQn)
{
 8001694:	b580      	push	{r7, lr}
 8001696:	b082      	sub	sp, #8
 8001698:	af00      	add	r7, sp, #0
 800169a:	4603      	mov	r3, r0
 800169c:	80fb      	strh	r3, [r7, #6]
  /* Check the parameters */
  assert_param(IS_NVIC_DEVICE_IRQ(IRQn));

  /* Enable interrupt */
  NVIC_EnableIRQ(IRQn);
 800169e:	f9b7 3006 	ldrsh.w	r3, [r7, #6]
 80016a2:	4618      	mov	r0, r3
 80016a4:	f7ff ff32 	bl	800150c <__NVIC_EnableIRQ>
}
 80016a8:	bf00      	nop
 80016aa:	3708      	adds	r7, #8
 80016ac:	46bd      	mov	sp, r7
 80016ae:	bd80      	pop	{r7, pc}

080016b0 <HAL_NVIC_DisableIRQ>:
  *         This parameter can be an enumerator of IRQn_Type enumeration
  *         (For the complete STM32 Devices IRQ Channels list, please refer to the appropriate CMSIS device file (stm32h7xxxx.h))
  * @retval None
  */
void HAL_NVIC_DisableIRQ(IRQn_Type IRQn)
{
 80016b0:	b580      	push	{r7, lr}
 80016b2:	b082      	sub	sp, #8
 80016b4:	af00      	add	r7, sp, #0
 80016b6:	4603      	mov	r3, r0
 80016b8:	80fb      	strh	r3, [r7, #6]
  /* Check the parameters */
  assert_param(IS_NVIC_DEVICE_IRQ(IRQn));

  /* Disable interrupt */
  NVIC_DisableIRQ(IRQn);
 80016ba:	f9b7 3006 	ldrsh.w	r3, [r7, #6]
 80016be:	4618      	mov	r0, r3
 80016c0:	f7ff ff42 	bl	8001548 <__NVIC_DisableIRQ>
}
 80016c4:	bf00      	nop
 80016c6:	3708      	adds	r7, #8
 80016c8:	46bd      	mov	sp, r7
 80016ca:	bd80      	pop	{r7, pc}

080016cc <HAL_MPU_Disable>:
/**
  * @brief  Disables the MPU
  * @retval None
  */
void HAL_MPU_Disable(void)
{
 80016cc:	b480      	push	{r7}
 80016ce:	af00      	add	r7, sp, #0
  \details Ensures the apparent order of the explicit memory operations before
           and after the instruction, without ensuring their completion.
 */
__STATIC_FORCEINLINE void __DMB(void)
{
  __ASM volatile ("dmb 0xF":::"memory");
 80016d0:	f3bf 8f5f 	dmb	sy
}
 80016d4:	bf00      	nop
  /* Make sure outstanding transfers are done */
  __DMB();

  /* Disable fault exceptions */
  SCB->SHCSR &= ~SCB_SHCSR_MEMFAULTENA_Msk;
 80016d6:	4b07      	ldr	r3, [pc, #28]	; (80016f4 <HAL_MPU_Disable+0x28>)
 80016d8:	6a5b      	ldr	r3, [r3, #36]	; 0x24
 80016da:	4a06      	ldr	r2, [pc, #24]	; (80016f4 <HAL_MPU_Disable+0x28>)
 80016dc:	f423 3380 	bic.w	r3, r3, #65536	; 0x10000
 80016e0:	6253      	str	r3, [r2, #36]	; 0x24

  /* Disable the MPU and clear the control register*/
  MPU->CTRL = 0;
 80016e2:	4b05      	ldr	r3, [pc, #20]	; (80016f8 <HAL_MPU_Disable+0x2c>)
 80016e4:	2200      	movs	r2, #0
 80016e6:	605a      	str	r2, [r3, #4]
}
 80016e8:	bf00      	nop
 80016ea:	46bd      	mov	sp, r7
 80016ec:	f85d 7b04 	ldr.w	r7, [sp], #4
 80016f0:	4770      	bx	lr
 80016f2:	bf00      	nop
 80016f4:	e000ed00 	.word	0xe000ed00
 80016f8:	e000ed90 	.word	0xe000ed90

080016fc <HAL_MPU_Enable>:
  *            @arg MPU_PRIVILEGED_DEFAULT
  *            @arg MPU_HFNMI_PRIVDEF
  * @retval None
  */
void HAL_MPU_Enable(uint32_t MPU_Control)
{
 80016fc:	b480      	push	{r7}
 80016fe:	b083      	sub	sp, #12
 8001700:	af00      	add	r7, sp, #0
 8001702:	6078      	str	r0, [r7, #4]
  /* Enable the MPU */
  MPU->CTRL = MPU_Control | MPU_CTRL_ENABLE_Msk;
 8001704:	4a0b      	ldr	r2, [pc, #44]	; (8001734 <HAL_MPU_Enable+0x38>)
 8001706:	687b      	ldr	r3, [r7, #4]
 8001708:	f043 0301 	orr.w	r3, r3, #1
 800170c:	6053      	str	r3, [r2, #4]

  /* Enable fault exceptions */
  SCB->SHCSR |= SCB_SHCSR_MEMFAULTENA_Msk;
 800170e:	4b0a      	ldr	r3, [pc, #40]	; (8001738 <HAL_MPU_Enable+0x3c>)
 8001710:	6a5b      	ldr	r3, [r3, #36]	; 0x24
 8001712:	4a09      	ldr	r2, [pc, #36]	; (8001738 <HAL_MPU_Enable+0x3c>)
 8001714:	f443 3380 	orr.w	r3, r3, #65536	; 0x10000
 8001718:	6253      	str	r3, [r2, #36]	; 0x24
  __ASM volatile ("dsb 0xF":::"memory");
 800171a:	f3bf 8f4f 	dsb	sy
}
 800171e:	bf00      	nop
  __ASM volatile ("isb 0xF":::"memory");
 8001720:	f3bf 8f6f 	isb	sy
}
 8001724:	bf00      	nop

  /* Ensure MPU setting take effects */
  __DSB();
  __ISB();
}
 8001726:	bf00      	nop
 8001728:	370c      	adds	r7, #12
 800172a:	46bd      	mov	sp, r7
 800172c:	f85d 7b04 	ldr.w	r7, [sp], #4
 8001730:	4770      	bx	lr
 8001732:	bf00      	nop
 8001734:	e000ed90 	.word	0xe000ed90
 8001738:	e000ed00 	.word	0xe000ed00

0800173c <HAL_MPU_ConfigRegion>:
  * @param  MPU_Init Pointer to a MPU_Region_InitTypeDef structure that contains
  *                  the initialization and configuration information.
  * @retval None
  */
void HAL_MPU_ConfigRegion(MPU_Region_InitTypeDef *MPU_Init)
{
 800173c:	b480      	push	{r7}
 800173e:	b083      	sub	sp, #12
 8001740:	af00      	add	r7, sp, #0
 8001742:	6078      	str	r0, [r7, #4]
  /* Check the parameters */
  assert_param(IS_MPU_REGION_NUMBER(MPU_Init->Number));
  assert_param(IS_MPU_REGION_ENABLE(MPU_Init->Enable));

  /* Set the Region number */
  MPU->RNR = MPU_Init->Number;
 8001744:	687b      	ldr	r3, [r7, #4]
 8001746:	785a      	ldrb	r2, [r3, #1]
 8001748:	4b1d      	ldr	r3, [pc, #116]	; (80017c0 <HAL_MPU_ConfigRegion+0x84>)
 800174a:	609a      	str	r2, [r3, #8]

  if ((MPU_Init->Enable) != 0UL)
 800174c:	687b      	ldr	r3, [r7, #4]
 800174e:	781b      	ldrb	r3, [r3, #0]
 8001750:	2b00      	cmp	r3, #0
 8001752:	d029      	beq.n	80017a8 <HAL_MPU_ConfigRegion+0x6c>
    assert_param(IS_MPU_ACCESS_CACHEABLE(MPU_Init->IsCacheable));
    assert_param(IS_MPU_ACCESS_BUFFERABLE(MPU_Init->IsBufferable));
    assert_param(IS_MPU_SUB_REGION_DISABLE(MPU_Init->SubRegionDisable));
    assert_param(IS_MPU_REGION_SIZE(MPU_Init->Size));

    MPU->RBAR = MPU_Init->BaseAddress;
 8001754:	4a1a      	ldr	r2, [pc, #104]	; (80017c0 <HAL_MPU_ConfigRegion+0x84>)
 8001756:	687b      	ldr	r3, [r7, #4]
 8001758:	685b      	ldr	r3, [r3, #4]
 800175a:	60d3      	str	r3, [r2, #12]
    MPU->RASR = ((uint32_t)MPU_Init->DisableExec             << MPU_RASR_XN_Pos)   |
 800175c:	687b      	ldr	r3, [r7, #4]
 800175e:	7b1b      	ldrb	r3, [r3, #12]
 8001760:	071a      	lsls	r2, r3, #28
                ((uint32_t)MPU_Init->AccessPermission        << MPU_RASR_AP_Pos)   |
 8001762:	687b      	ldr	r3, [r7, #4]
 8001764:	7adb      	ldrb	r3, [r3, #11]
 8001766:	061b      	lsls	r3, r3, #24
    MPU->RASR = ((uint32_t)MPU_Init->DisableExec             << MPU_RASR_XN_Pos)   |
 8001768:	431a      	orrs	r2, r3
                ((uint32_t)MPU_Init->TypeExtField            << MPU_RASR_TEX_Pos)  |
 800176a:	687b      	ldr	r3, [r7, #4]
 800176c:	7a9b      	ldrb	r3, [r3, #10]
 800176e:	04db      	lsls	r3, r3, #19
                ((uint32_t)MPU_Init->AccessPermission        << MPU_RASR_AP_Pos)   |
 8001770:	431a      	orrs	r2, r3
                ((uint32_t)MPU_Init->IsShareable             << MPU_RASR_S_Pos)    |
 8001772:	687b      	ldr	r3, [r7, #4]
 8001774:	7b5b      	ldrb	r3, [r3, #13]
 8001776:	049b      	lsls	r3, r3, #18
                ((uint32_t)MPU_Init->TypeExtField            << MPU_RASR_TEX_Pos)  |
 8001778:	431a      	orrs	r2, r3
                ((uint32_t)MPU_Init->IsCacheable             << MPU_RASR_C_Pos)    |
 800177a:	687b      	ldr	r3, [r7, #4]
 800177c:	7b9b      	ldrb	r3, [r3, #14]
 800177e:	045b      	lsls	r3, r3, #17
                ((uint32_t)MPU_Init->IsShareable             << MPU_RASR_S_Pos)    |
 8001780:	431a      	orrs	r2, r3
                ((uint32_t)MPU_Init->IsBufferable            << MPU_RASR_B_Pos)    |
 8001782:	687b      	ldr	r3, [r7, #4]
 8001784:	7bdb      	ldrb	r3, [r3, #15]
 8001786:	041b      	lsls	r3, r3, #16
                ((uint32_t)MPU_Init->IsCacheable             << MPU_RASR_C_Pos)    |
 8001788:	431a      	orrs	r2, r3
                ((uint32_t)MPU_Init->SubRegionDisable        << MPU_RASR_SRD_Pos)  |
 800178a:	687b      	ldr	r3, [r7, #4]
 800178c:	7a5b      	ldrb	r3, [r3, #9]
 800178e:	021b      	lsls	r3, r3, #8
                ((uint32_t)MPU_Init->IsBufferable            << MPU_RASR_B_Pos)    |
 8001790:	431a      	orrs	r2, r3
                ((uint32_t)MPU_Init->Size                    << MPU_RASR_SIZE_Pos) |
 8001792:	687b      	ldr	r3, [r7, #4]
 8001794:	7a1b      	ldrb	r3, [r3, #8]
 8001796:	005b      	lsls	r3, r3, #1
                ((uint32_t)MPU_Init->SubRegionDisable        << MPU_RASR_SRD_Pos)  |
 8001798:	4313      	orrs	r3, r2
                ((uint32_t)MPU_Init->Enable                  << MPU_RASR_ENABLE_Pos);
 800179a:	687a      	ldr	r2, [r7, #4]
 800179c:	7812      	ldrb	r2, [r2, #0]
 800179e:	4611      	mov	r1, r2
    MPU->RASR = ((uint32_t)MPU_Init->DisableExec             << MPU_RASR_XN_Pos)   |
 80017a0:	4a07      	ldr	r2, [pc, #28]	; (80017c0 <HAL_MPU_ConfigRegion+0x84>)
                ((uint32_t)MPU_Init->Size                    << MPU_RASR_SIZE_Pos) |
 80017a2:	430b      	orrs	r3, r1
    MPU->RASR = ((uint32_t)MPU_Init->DisableExec             << MPU_RASR_XN_Pos)   |
 80017a4:	6113      	str	r3, [r2, #16]
  else
  {
    MPU->RBAR = 0x00;
    MPU->RASR = 0x00;
  }
}
 80017a6:	e005      	b.n	80017b4 <HAL_MPU_ConfigRegion+0x78>
    MPU->RBAR = 0x00;
 80017a8:	4b05      	ldr	r3, [pc, #20]	; (80017c0 <HAL_MPU_ConfigRegion+0x84>)
 80017aa:	2200      	movs	r2, #0
 80017ac:	60da      	str	r2, [r3, #12]
    MPU->RASR = 0x00;
 80017ae:	4b04      	ldr	r3, [pc, #16]	; (80017c0 <HAL_MPU_ConfigRegion+0x84>)
 80017b0:	2200      	movs	r2, #0
 80017b2:	611a      	str	r2, [r3, #16]
}
 80017b4:	bf00      	nop
 80017b6:	370c      	adds	r7, #12
 80017b8:	46bd      	mov	sp, r7
 80017ba:	f85d 7b04 	ldr.w	r7, [sp], #4
 80017be:	4770      	bx	lr
 80017c0:	e000ed90 	.word	0xe000ed90

080017c4 <HAL_DMA_Init>:
  * @param  hdma: Pointer to a DMA_HandleTypeDef structure that contains
  *               the configuration information for the specified DMA Stream.
  * @retval HAL status
  */
HAL_StatusTypeDef HAL_DMA_Init(DMA_HandleTypeDef *hdma)
{
 80017c4:	b580      	push	{r7, lr}
 80017c6:	b086      	sub	sp, #24
 80017c8:	af00      	add	r7, sp, #0
 80017ca:	6078      	str	r0, [r7, #4]
  uint32_t registerValue;
  uint32_t tickstart = HAL_GetTick();
 80017cc:	f7ff fe30 	bl	8001430 <HAL_GetTick>
 80017d0:	6138      	str	r0, [r7, #16]
  DMA_Base_Registers *regs_dma;
  BDMA_Base_Registers *regs_bdma;

  /* Check the DMA peripheral handle */
  if(hdma == NULL)
 80017d2:	687b      	ldr	r3, [r7, #4]
 80017d4:	2b00      	cmp	r3, #0
 80017d6:	d101      	bne.n	80017dc <HAL_DMA_Init+0x18>
  {
    return HAL_ERROR;
 80017d8:	2301      	movs	r3, #1
 80017da:	e316      	b.n	8001e0a <HAL_DMA_Init+0x646>
  assert_param(IS_DMA_PERIPHERAL_DATA_SIZE(hdma->Init.PeriphDataAlignment));
  assert_param(IS_DMA_MEMORY_DATA_SIZE(hdma->Init.MemDataAlignment));
  assert_param(IS_DMA_MODE(hdma->Init.Mode));
  assert_param(IS_DMA_PRIORITY(hdma->Init.Priority));

  if(IS_DMA_STREAM_INSTANCE(hdma->Instance) != 0U) /* DMA1 or DMA2 instance */
 80017dc:	687b      	ldr	r3, [r7, #4]
 80017de:	681b      	ldr	r3, [r3, #0]
 80017e0:	4a66      	ldr	r2, [pc, #408]	; (800197c <HAL_DMA_Init+0x1b8>)
 80017e2:	4293      	cmp	r3, r2
 80017e4:	d04a      	beq.n	800187c <HAL_DMA_Init+0xb8>
 80017e6:	687b      	ldr	r3, [r7, #4]
 80017e8:	681b      	ldr	r3, [r3, #0]
 80017ea:	4a65      	ldr	r2, [pc, #404]	; (8001980 <HAL_DMA_Init+0x1bc>)
 80017ec:	4293      	cmp	r3, r2
 80017ee:	d045      	beq.n	800187c <HAL_DMA_Init+0xb8>
 80017f0:	687b      	ldr	r3, [r7, #4]
 80017f2:	681b      	ldr	r3, [r3, #0]
 80017f4:	4a63      	ldr	r2, [pc, #396]	; (8001984 <HAL_DMA_Init+0x1c0>)
 80017f6:	4293      	cmp	r3, r2
 80017f8:	d040      	beq.n	800187c <HAL_DMA_Init+0xb8>
 80017fa:	687b      	ldr	r3, [r7, #4]
 80017fc:	681b      	ldr	r3, [r3, #0]
 80017fe:	4a62      	ldr	r2, [pc, #392]	; (8001988 <HAL_DMA_Init+0x1c4>)
 8001800:	4293      	cmp	r3, r2
 8001802:	d03b      	beq.n	800187c <HAL_DMA_Init+0xb8>
 8001804:	687b      	ldr	r3, [r7, #4]
 8001806:	681b      	ldr	r3, [r3, #0]
 8001808:	4a60      	ldr	r2, [pc, #384]	; (800198c <HAL_DMA_Init+0x1c8>)
 800180a:	4293      	cmp	r3, r2
 800180c:	d036      	beq.n	800187c <HAL_DMA_Init+0xb8>
 800180e:	687b      	ldr	r3, [r7, #4]
 8001810:	681b      	ldr	r3, [r3, #0]
 8001812:	4a5f      	ldr	r2, [pc, #380]	; (8001990 <HAL_DMA_Init+0x1cc>)
 8001814:	4293      	cmp	r3, r2
 8001816:	d031      	beq.n	800187c <HAL_DMA_Init+0xb8>
 8001818:	687b      	ldr	r3, [r7, #4]
 800181a:	681b      	ldr	r3, [r3, #0]
 800181c:	4a5d      	ldr	r2, [pc, #372]	; (8001994 <HAL_DMA_Init+0x1d0>)
 800181e:	4293      	cmp	r3, r2
 8001820:	d02c      	beq.n	800187c <HAL_DMA_Init+0xb8>
 8001822:	687b      	ldr	r3, [r7, #4]
 8001824:	681b      	ldr	r3, [r3, #0]
 8001826:	4a5c      	ldr	r2, [pc, #368]	; (8001998 <HAL_DMA_Init+0x1d4>)
 8001828:	4293      	cmp	r3, r2
 800182a:	d027      	beq.n	800187c <HAL_DMA_Init+0xb8>
 800182c:	687b      	ldr	r3, [r7, #4]
 800182e:	681b      	ldr	r3, [r3, #0]
 8001830:	4a5a      	ldr	r2, [pc, #360]	; (800199c <HAL_DMA_Init+0x1d8>)
 8001832:	4293      	cmp	r3, r2
 8001834:	d022      	beq.n	800187c <HAL_DMA_Init+0xb8>
 8001836:	687b      	ldr	r3, [r7, #4]
 8001838:	681b      	ldr	r3, [r3, #0]
 800183a:	4a59      	ldr	r2, [pc, #356]	; (80019a0 <HAL_DMA_Init+0x1dc>)
 800183c:	4293      	cmp	r3, r2
 800183e:	d01d      	beq.n	800187c <HAL_DMA_Init+0xb8>
 8001840:	687b      	ldr	r3, [r7, #4]
 8001842:	681b      	ldr	r3, [r3, #0]
 8001844:	4a57      	ldr	r2, [pc, #348]	; (80019a4 <HAL_DMA_Init+0x1e0>)
 8001846:	4293      	cmp	r3, r2
 8001848:	d018      	beq.n	800187c <HAL_DMA_Init+0xb8>
 800184a:	687b      	ldr	r3, [r7, #4]
 800184c:	681b      	ldr	r3, [r3, #0]
 800184e:	4a56      	ldr	r2, [pc, #344]	; (80019a8 <HAL_DMA_Init+0x1e4>)
 8001850:	4293      	cmp	r3, r2
 8001852:	d013      	beq.n	800187c <HAL_DMA_Init+0xb8>
 8001854:	687b      	ldr	r3, [r7, #4]
 8001856:	681b      	ldr	r3, [r3, #0]
 8001858:	4a54      	ldr	r2, [pc, #336]	; (80019ac <HAL_DMA_Init+0x1e8>)
 800185a:	4293      	cmp	r3, r2
 800185c:	d00e      	beq.n	800187c <HAL_DMA_Init+0xb8>
 800185e:	687b      	ldr	r3, [r7, #4]
 8001860:	681b      	ldr	r3, [r3, #0]
 8001862:	4a53      	ldr	r2, [pc, #332]	; (80019b0 <HAL_DMA_Init+0x1ec>)
 8001864:	4293      	cmp	r3, r2
 8001866:	d009      	beq.n	800187c <HAL_DMA_Init+0xb8>
 8001868:	687b      	ldr	r3, [r7, #4]
 800186a:	681b      	ldr	r3, [r3, #0]
 800186c:	4a51      	ldr	r2, [pc, #324]	; (80019b4 <HAL_DMA_Init+0x1f0>)
 800186e:	4293      	cmp	r3, r2
 8001870:	d004      	beq.n	800187c <HAL_DMA_Init+0xb8>
 8001872:	687b      	ldr	r3, [r7, #4]
 8001874:	681b      	ldr	r3, [r3, #0]
 8001876:	4a50      	ldr	r2, [pc, #320]	; (80019b8 <HAL_DMA_Init+0x1f4>)
 8001878:	4293      	cmp	r3, r2
 800187a:	d101      	bne.n	8001880 <HAL_DMA_Init+0xbc>
 800187c:	2301      	movs	r3, #1
 800187e:	e000      	b.n	8001882 <HAL_DMA_Init+0xbe>
 8001880:	2300      	movs	r3, #0
 8001882:	2b00      	cmp	r3, #0
 8001884:	f000 813b 	beq.w	8001afe <HAL_DMA_Init+0x33a>
      assert_param(IS_DMA_MEMORY_BURST(hdma->Init.MemBurst));
      assert_param(IS_DMA_PERIPHERAL_BURST(hdma->Init.PeriphBurst));
    }

    /* Change DMA peripheral state */
    hdma->State = HAL_DMA_STATE_BUSY;
 8001888:	687b      	ldr	r3, [r7, #4]
 800188a:	2202      	movs	r2, #2
 800188c:	f883 2035 	strb.w	r2, [r3, #53]	; 0x35

    /* Allocate lock resource */
    __HAL_UNLOCK(hdma);
 8001890:	687b      	ldr	r3, [r7, #4]
 8001892:	2200      	movs	r2, #0
 8001894:	f883 2034 	strb.w	r2, [r3, #52]	; 0x34

    /* Disable the peripheral */
    __HAL_DMA_DISABLE(hdma);
 8001898:	687b      	ldr	r3, [r7, #4]
 800189a:	681b      	ldr	r3, [r3, #0]
 800189c:	4a37      	ldr	r2, [pc, #220]	; (800197c <HAL_DMA_Init+0x1b8>)
 800189e:	4293      	cmp	r3, r2
 80018a0:	d04a      	beq.n	8001938 <HAL_DMA_Init+0x174>
 80018a2:	687b      	ldr	r3, [r7, #4]
 80018a4:	681b      	ldr	r3, [r3, #0]
 80018a6:	4a36      	ldr	r2, [pc, #216]	; (8001980 <HAL_DMA_Init+0x1bc>)
 80018a8:	4293      	cmp	r3, r2
 80018aa:	d045      	beq.n	8001938 <HAL_DMA_Init+0x174>
 80018ac:	687b      	ldr	r3, [r7, #4]
 80018ae:	681b      	ldr	r3, [r3, #0]
 80018b0:	4a34      	ldr	r2, [pc, #208]	; (8001984 <HAL_DMA_Init+0x1c0>)
 80018b2:	4293      	cmp	r3, r2
 80018b4:	d040      	beq.n	8001938 <HAL_DMA_Init+0x174>
 80018b6:	687b      	ldr	r3, [r7, #4]
 80018b8:	681b      	ldr	r3, [r3, #0]
 80018ba:	4a33      	ldr	r2, [pc, #204]	; (8001988 <HAL_DMA_Init+0x1c4>)
 80018bc:	4293      	cmp	r3, r2
 80018be:	d03b      	beq.n	8001938 <HAL_DMA_Init+0x174>
 80018c0:	687b      	ldr	r3, [r7, #4]
 80018c2:	681b      	ldr	r3, [r3, #0]
 80018c4:	4a31      	ldr	r2, [pc, #196]	; (800198c <HAL_DMA_Init+0x1c8>)
 80018c6:	4293      	cmp	r3, r2
 80018c8:	d036      	beq.n	8001938 <HAL_DMA_Init+0x174>
 80018ca:	687b      	ldr	r3, [r7, #4]
 80018cc:	681b      	ldr	r3, [r3, #0]
 80018ce:	4a30      	ldr	r2, [pc, #192]	; (8001990 <HAL_DMA_Init+0x1cc>)
 80018d0:	4293      	cmp	r3, r2
 80018d2:	d031      	beq.n	8001938 <HAL_DMA_Init+0x174>
 80018d4:	687b      	ldr	r3, [r7, #4]
 80018d6:	681b      	ldr	r3, [r3, #0]
 80018d8:	4a2e      	ldr	r2, [pc, #184]	; (8001994 <HAL_DMA_Init+0x1d0>)
 80018da:	4293      	cmp	r3, r2
 80018dc:	d02c      	beq.n	8001938 <HAL_DMA_Init+0x174>
 80018de:	687b      	ldr	r3, [r7, #4]
 80018e0:	681b      	ldr	r3, [r3, #0]
 80018e2:	4a2d      	ldr	r2, [pc, #180]	; (8001998 <HAL_DMA_Init+0x1d4>)
 80018e4:	4293      	cmp	r3, r2
 80018e6:	d027      	beq.n	8001938 <HAL_DMA_Init+0x174>
 80018e8:	687b      	ldr	r3, [r7, #4]
 80018ea:	681b      	ldr	r3, [r3, #0]
 80018ec:	4a2b      	ldr	r2, [pc, #172]	; (800199c <HAL_DMA_Init+0x1d8>)
 80018ee:	4293      	cmp	r3, r2
 80018f0:	d022      	beq.n	8001938 <HAL_DMA_Init+0x174>
 80018f2:	687b      	ldr	r3, [r7, #4]
 80018f4:	681b      	ldr	r3, [r3, #0]
 80018f6:	4a2a      	ldr	r2, [pc, #168]	; (80019a0 <HAL_DMA_Init+0x1dc>)
 80018f8:	4293      	cmp	r3, r2
 80018fa:	d01d      	beq.n	8001938 <HAL_DMA_Init+0x174>
 80018fc:	687b      	ldr	r3, [r7, #4]
 80018fe:	681b      	ldr	r3, [r3, #0]
 8001900:	4a28      	ldr	r2, [pc, #160]	; (80019a4 <HAL_DMA_Init+0x1e0>)
 8001902:	4293      	cmp	r3, r2
 8001904:	d018      	beq.n	8001938 <HAL_DMA_Init+0x174>
 8001906:	687b      	ldr	r3, [r7, #4]
 8001908:	681b      	ldr	r3, [r3, #0]
 800190a:	4a27      	ldr	r2, [pc, #156]	; (80019a8 <HAL_DMA_Init+0x1e4>)
 800190c:	4293      	cmp	r3, r2
 800190e:	d013      	beq.n	8001938 <HAL_DMA_Init+0x174>
 8001910:	687b      	ldr	r3, [r7, #4]
 8001912:	681b      	ldr	r3, [r3, #0]
 8001914:	4a25      	ldr	r2, [pc, #148]	; (80019ac <HAL_DMA_Init+0x1e8>)
 8001916:	4293      	cmp	r3, r2
 8001918:	d00e      	beq.n	8001938 <HAL_DMA_Init+0x174>
 800191a:	687b      	ldr	r3, [r7, #4]
 800191c:	681b      	ldr	r3, [r3, #0]
 800191e:	4a24      	ldr	r2, [pc, #144]	; (80019b0 <HAL_DMA_Init+0x1ec>)
 8001920:	4293      	cmp	r3, r2
 8001922:	d009      	beq.n	8001938 <HAL_DMA_Init+0x174>
 8001924:	687b      	ldr	r3, [r7, #4]
 8001926:	681b      	ldr	r3, [r3, #0]
 8001928:	4a22      	ldr	r2, [pc, #136]	; (80019b4 <HAL_DMA_Init+0x1f0>)
 800192a:	4293      	cmp	r3, r2
 800192c:	d004      	beq.n	8001938 <HAL_DMA_Init+0x174>
 800192e:	687b      	ldr	r3, [r7, #4]
 8001930:	681b      	ldr	r3, [r3, #0]
 8001932:	4a21      	ldr	r2, [pc, #132]	; (80019b8 <HAL_DMA_Init+0x1f4>)
 8001934:	4293      	cmp	r3, r2
 8001936:	d108      	bne.n	800194a <HAL_DMA_Init+0x186>
 8001938:	687b      	ldr	r3, [r7, #4]
 800193a:	681b      	ldr	r3, [r3, #0]
 800193c:	681a      	ldr	r2, [r3, #0]
 800193e:	687b      	ldr	r3, [r7, #4]
 8001940:	681b      	ldr	r3, [r3, #0]
 8001942:	f022 0201 	bic.w	r2, r2, #1
 8001946:	601a      	str	r2, [r3, #0]
 8001948:	e007      	b.n	800195a <HAL_DMA_Init+0x196>
 800194a:	687b      	ldr	r3, [r7, #4]
 800194c:	681b      	ldr	r3, [r3, #0]
 800194e:	681a      	ldr	r2, [r3, #0]
 8001950:	687b      	ldr	r3, [r7, #4]
 8001952:	681b      	ldr	r3, [r3, #0]
 8001954:	f022 0201 	bic.w	r2, r2, #1
 8001958:	601a      	str	r2, [r3, #0]

    /* Check if the DMA Stream is effectively disabled */
    while((((DMA_Stream_TypeDef   *)hdma->Instance)->CR & DMA_SxCR_EN) != 0U)
 800195a:	e02f      	b.n	80019bc <HAL_DMA_Init+0x1f8>
    {
      /* Check for the Timeout */
      if((HAL_GetTick() - tickstart ) > HAL_TIMEOUT_DMA_ABORT)
 800195c:	f7ff fd68 	bl	8001430 <HAL_GetTick>
 8001960:	4602      	mov	r2, r0
 8001962:	693b      	ldr	r3, [r7, #16]
 8001964:	1ad3      	subs	r3, r2, r3
 8001966:	2b05      	cmp	r3, #5
 8001968:	d928      	bls.n	80019bc <HAL_DMA_Init+0x1f8>
      {
        /* Update error code */
        hdma->ErrorCode = HAL_DMA_ERROR_TIMEOUT;
 800196a:	687b      	ldr	r3, [r7, #4]
 800196c:	2220      	movs	r2, #32
 800196e:	655a      	str	r2, [r3, #84]	; 0x54

        /* Change the DMA state */
        hdma->State = HAL_DMA_STATE_ERROR;
 8001970:	687b      	ldr	r3, [r7, #4]
 8001972:	2203      	movs	r2, #3
 8001974:	f883 2035 	strb.w	r2, [r3, #53]	; 0x35

        return HAL_ERROR;
 8001978:	2301      	movs	r3, #1
 800197a:	e246      	b.n	8001e0a <HAL_DMA_Init+0x646>
 800197c:	40020010 	.word	0x40020010
 8001980:	40020028 	.word	0x40020028
 8001984:	40020040 	.word	0x40020040
 8001988:	40020058 	.word	0x40020058
 800198c:	40020070 	.word	0x40020070
 8001990:	40020088 	.word	0x40020088
 8001994:	400200a0 	.word	0x400200a0
 8001998:	400200b8 	.word	0x400200b8
 800199c:	40020410 	.word	0x40020410
 80019a0:	40020428 	.word	0x40020428
 80019a4:	40020440 	.word	0x40020440
 80019a8:	40020458 	.word	0x40020458
 80019ac:	40020470 	.word	0x40020470
 80019b0:	40020488 	.word	0x40020488
 80019b4:	400204a0 	.word	0x400204a0
 80019b8:	400204b8 	.word	0x400204b8
    while((((DMA_Stream_TypeDef   *)hdma->Instance)->CR & DMA_SxCR_EN) != 0U)
 80019bc:	687b      	ldr	r3, [r7, #4]
 80019be:	681b      	ldr	r3, [r3, #0]
 80019c0:	681b      	ldr	r3, [r3, #0]
 80019c2:	f003 0301 	and.w	r3, r3, #1
 80019c6:	2b00      	cmp	r3, #0
 80019c8:	d1c8      	bne.n	800195c <HAL_DMA_Init+0x198>
      }
    }

    /* Get the CR register value */
    registerValue = ((DMA_Stream_TypeDef   *)hdma->Instance)->CR;
 80019ca:	687b      	ldr	r3, [r7, #4]
 80019cc:	681b      	ldr	r3, [r3, #0]
 80019ce:	681b      	ldr	r3, [r3, #0]
 80019d0:	617b      	str	r3, [r7, #20]

    /* Clear CHSEL, MBURST, PBURST, PL, MSIZE, PSIZE, MINC, PINC, CIRC, DIR, CT and DBM bits */
    registerValue &= ((uint32_t)~(DMA_SxCR_MBURST | DMA_SxCR_PBURST | \
 80019d2:	697a      	ldr	r2, [r7, #20]
 80019d4:	4b83      	ldr	r3, [pc, #524]	; (8001be4 <HAL_DMA_Init+0x420>)
 80019d6:	4013      	ands	r3, r2
 80019d8:	617b      	str	r3, [r7, #20]
                        DMA_SxCR_PL    | DMA_SxCR_MSIZE  | DMA_SxCR_PSIZE  | \
                        DMA_SxCR_MINC  | DMA_SxCR_PINC   | DMA_SxCR_CIRC   | \
                        DMA_SxCR_DIR   | DMA_SxCR_CT     | DMA_SxCR_DBM));

    /* Prepare the DMA Stream configuration */
    registerValue |=  hdma->Init.Direction           |
 80019da:	687b      	ldr	r3, [r7, #4]
 80019dc:	689a      	ldr	r2, [r3, #8]
            hdma->Init.PeriphInc           | hdma->Init.MemInc           |
 80019de:	687b      	ldr	r3, [r7, #4]
 80019e0:	68db      	ldr	r3, [r3, #12]
    registerValue |=  hdma->Init.Direction           |
 80019e2:	431a      	orrs	r2, r3
            hdma->Init.PeriphInc           | hdma->Init.MemInc           |
 80019e4:	687b      	ldr	r3, [r7, #4]
 80019e6:	691b      	ldr	r3, [r3, #16]
 80019e8:	431a      	orrs	r2, r3
            hdma->Init.PeriphDataAlignment | hdma->Init.MemDataAlignment |
 80019ea:	687b      	ldr	r3, [r7, #4]
 80019ec:	695b      	ldr	r3, [r3, #20]
            hdma->Init.PeriphInc           | hdma->Init.MemInc           |
 80019ee:	431a      	orrs	r2, r3
            hdma->Init.PeriphDataAlignment | hdma->Init.MemDataAlignment |
 80019f0:	687b      	ldr	r3, [r7, #4]
 80019f2:	699b      	ldr	r3, [r3, #24]
 80019f4:	431a      	orrs	r2, r3
            hdma->Init.Mode                | hdma->Init.Priority;
 80019f6:	687b      	ldr	r3, [r7, #4]
 80019f8:	69db      	ldr	r3, [r3, #28]
            hdma->Init.PeriphDataAlignment | hdma->Init.MemDataAlignment |
 80019fa:	431a      	orrs	r2, r3
            hdma->Init.Mode                | hdma->Init.Priority;
 80019fc:	687b      	ldr	r3, [r7, #4]
 80019fe:	6a1b      	ldr	r3, [r3, #32]
 8001a00:	4313      	orrs	r3, r2
    registerValue |=  hdma->Init.Direction           |
 8001a02:	697a      	ldr	r2, [r7, #20]
 8001a04:	4313      	orrs	r3, r2
 8001a06:	617b      	str	r3, [r7, #20]

    /* the Memory burst and peripheral burst are not used when the FIFO is disabled */
    if(hdma->Init.FIFOMode == DMA_FIFOMODE_ENABLE)
 8001a08:	687b      	ldr	r3, [r7, #4]
 8001a0a:	6a5b      	ldr	r3, [r3, #36]	; 0x24
 8001a0c:	2b04      	cmp	r3, #4
 8001a0e:	d107      	bne.n	8001a20 <HAL_DMA_Init+0x25c>
    {
      /* Get memory burst and peripheral burst */
      registerValue |=  hdma->Init.MemBurst | hdma->Init.PeriphBurst;
 8001a10:	687b      	ldr	r3, [r7, #4]
 8001a12:	6ada      	ldr	r2, [r3, #44]	; 0x2c
 8001a14:	687b      	ldr	r3, [r7, #4]
 8001a16:	6b1b      	ldr	r3, [r3, #48]	; 0x30
 8001a18:	4313      	orrs	r3, r2
 8001a1a:	697a      	ldr	r2, [r7, #20]
 8001a1c:	4313      	orrs	r3, r2
 8001a1e:	617b      	str	r3, [r7, #20]
    }

    /* Work around for Errata 2.22: UART/USART- DMA transfer lock: DMA stream could be
                                    lock when transferring data to/from USART/UART */
#if (STM32H7_DEV_ID == 0x450UL)
    if((DBGMCU->IDCODE & 0xFFFF0000U) >= 0x20000000U)
 8001a20:	4b71      	ldr	r3, [pc, #452]	; (8001be8 <HAL_DMA_Init+0x424>)
 8001a22:	681a      	ldr	r2, [r3, #0]
 8001a24:	4b71      	ldr	r3, [pc, #452]	; (8001bec <HAL_DMA_Init+0x428>)
 8001a26:	4013      	ands	r3, r2
 8001a28:	f1b3 5f00 	cmp.w	r3, #536870912	; 0x20000000
 8001a2c:	d328      	bcc.n	8001a80 <HAL_DMA_Init+0x2bc>
    {
#endif /* STM32H7_DEV_ID == 0x450UL */
      if(IS_DMA_UART_USART_REQUEST(hdma->Init.Request) != 0U)
 8001a2e:	687b      	ldr	r3, [r7, #4]
 8001a30:	685b      	ldr	r3, [r3, #4]
 8001a32:	2b28      	cmp	r3, #40	; 0x28
 8001a34:	d903      	bls.n	8001a3e <HAL_DMA_Init+0x27a>
 8001a36:	687b      	ldr	r3, [r7, #4]
 8001a38:	685b      	ldr	r3, [r3, #4]
 8001a3a:	2b2e      	cmp	r3, #46	; 0x2e
 8001a3c:	d917      	bls.n	8001a6e <HAL_DMA_Init+0x2aa>
 8001a3e:	687b      	ldr	r3, [r7, #4]
 8001a40:	685b      	ldr	r3, [r3, #4]
 8001a42:	2b3e      	cmp	r3, #62	; 0x3e
 8001a44:	d903      	bls.n	8001a4e <HAL_DMA_Init+0x28a>
 8001a46:	687b      	ldr	r3, [r7, #4]
 8001a48:	685b      	ldr	r3, [r3, #4]
 8001a4a:	2b42      	cmp	r3, #66	; 0x42
 8001a4c:	d90f      	bls.n	8001a6e <HAL_DMA_Init+0x2aa>
 8001a4e:	687b      	ldr	r3, [r7, #4]
 8001a50:	685b      	ldr	r3, [r3, #4]
 8001a52:	2b46      	cmp	r3, #70	; 0x46
 8001a54:	d903      	bls.n	8001a5e <HAL_DMA_Init+0x29a>
 8001a56:	687b      	ldr	r3, [r7, #4]
 8001a58:	685b      	ldr	r3, [r3, #4]
 8001a5a:	2b48      	cmp	r3, #72	; 0x48
 8001a5c:	d907      	bls.n	8001a6e <HAL_DMA_Init+0x2aa>
 8001a5e:	687b      	ldr	r3, [r7, #4]
 8001a60:	685b      	ldr	r3, [r3, #4]
 8001a62:	2b4e      	cmp	r3, #78	; 0x4e
 8001a64:	d905      	bls.n	8001a72 <HAL_DMA_Init+0x2ae>
 8001a66:	687b      	ldr	r3, [r7, #4]
 8001a68:	685b      	ldr	r3, [r3, #4]
 8001a6a:	2b52      	cmp	r3, #82	; 0x52
 8001a6c:	d801      	bhi.n	8001a72 <HAL_DMA_Init+0x2ae>
 8001a6e:	2301      	movs	r3, #1
 8001a70:	e000      	b.n	8001a74 <HAL_DMA_Init+0x2b0>
 8001a72:	2300      	movs	r3, #0
 8001a74:	2b00      	cmp	r3, #0
 8001a76:	d003      	beq.n	8001a80 <HAL_DMA_Init+0x2bc>
      {
        registerValue |= DMA_SxCR_TRBUFF;
 8001a78:	697b      	ldr	r3, [r7, #20]
 8001a7a:	f443 1380 	orr.w	r3, r3, #1048576	; 0x100000
 8001a7e:	617b      	str	r3, [r7, #20]
#if (STM32H7_DEV_ID == 0x450UL)
    }
#endif /* STM32H7_DEV_ID == 0x450UL */

    /* Write to DMA Stream CR register */
    ((DMA_Stream_TypeDef   *)hdma->Instance)->CR = registerValue;
 8001a80:	687b      	ldr	r3, [r7, #4]
 8001a82:	681b      	ldr	r3, [r3, #0]
 8001a84:	697a      	ldr	r2, [r7, #20]
 8001a86:	601a      	str	r2, [r3, #0]

    /* Get the FCR register value */
    registerValue = ((DMA_Stream_TypeDef   *)hdma->Instance)->FCR;
 8001a88:	687b      	ldr	r3, [r7, #4]
 8001a8a:	681b      	ldr	r3, [r3, #0]
 8001a8c:	695b      	ldr	r3, [r3, #20]
 8001a8e:	617b      	str	r3, [r7, #20]

    /* Clear Direct mode and FIFO threshold bits */
    registerValue &= (uint32_t)~(DMA_SxFCR_DMDIS | DMA_SxFCR_FTH);
 8001a90:	697b      	ldr	r3, [r7, #20]
 8001a92:	f023 0307 	bic.w	r3, r3, #7
 8001a96:	617b      	str	r3, [r7, #20]

    /* Prepare the DMA Stream FIFO configuration */
    registerValue |= hdma->Init.FIFOMode;
 8001a98:	687b      	ldr	r3, [r7, #4]
 8001a9a:	6a5b      	ldr	r3, [r3, #36]	; 0x24
 8001a9c:	697a      	ldr	r2, [r7, #20]
 8001a9e:	4313      	orrs	r3, r2
 8001aa0:	617b      	str	r3, [r7, #20]

    /* the FIFO threshold is not used when the FIFO mode is disabled */
    if(hdma->Init.FIFOMode == DMA_FIFOMODE_ENABLE)
 8001aa2:	687b      	ldr	r3, [r7, #4]
 8001aa4:	6a5b      	ldr	r3, [r3, #36]	; 0x24
 8001aa6:	2b04      	cmp	r3, #4
 8001aa8:	d117      	bne.n	8001ada <HAL_DMA_Init+0x316>
    {
      /* Get the FIFO threshold */
      registerValue |= hdma->Init.FIFOThreshold;
 8001aaa:	687b      	ldr	r3, [r7, #4]
 8001aac:	6a9b      	ldr	r3, [r3, #40]	; 0x28
 8001aae:	697a      	ldr	r2, [r7, #20]
 8001ab0:	4313      	orrs	r3, r2
 8001ab2:	617b      	str	r3, [r7, #20]

      /* Check compatibility between FIFO threshold level and size of the memory burst */
      /* for INCR4, INCR8, INCR16 */
      if(hdma->Init.MemBurst != DMA_MBURST_SINGLE)
 8001ab4:	687b      	ldr	r3, [r7, #4]
 8001ab6:	6adb      	ldr	r3, [r3, #44]	; 0x2c
 8001ab8:	2b00      	cmp	r3, #0
 8001aba:	d00e      	beq.n	8001ada <HAL_DMA_Init+0x316>
      {
        if (DMA_CheckFifoParam(hdma) != HAL_OK)
 8001abc:	6878      	ldr	r0, [r7, #4]
 8001abe:	f002 fce9 	bl	8004494 <DMA_CheckFifoParam>
 8001ac2:	4603      	mov	r3, r0
 8001ac4:	2b00      	cmp	r3, #0
 8001ac6:	d008      	beq.n	8001ada <HAL_DMA_Init+0x316>
        {
          /* Update error code */
          hdma->ErrorCode = HAL_DMA_ERROR_PARAM;
 8001ac8:	687b      	ldr	r3, [r7, #4]
 8001aca:	2240      	movs	r2, #64	; 0x40
 8001acc:	655a      	str	r2, [r3, #84]	; 0x54

          /* Change the DMA state */
          hdma->State = HAL_DMA_STATE_READY;
 8001ace:	687b      	ldr	r3, [r7, #4]
 8001ad0:	2201      	movs	r2, #1
 8001ad2:	f883 2035 	strb.w	r2, [r3, #53]	; 0x35

          return HAL_ERROR;
 8001ad6:	2301      	movs	r3, #1
 8001ad8:	e197      	b.n	8001e0a <HAL_DMA_Init+0x646>
        }
      }
    }

    /* Write to DMA Stream FCR */
    ((DMA_Stream_TypeDef   *)hdma->Instance)->FCR = registerValue;
 8001ada:	687b      	ldr	r3, [r7, #4]
 8001adc:	681b      	ldr	r3, [r3, #0]
 8001ade:	697a      	ldr	r2, [r7, #20]
 8001ae0:	615a      	str	r2, [r3, #20]

    /* Initialize StreamBaseAddress and StreamIndex parameters to be used to calculate
       DMA steam Base Address needed by HAL_DMA_IRQHandler() and HAL_DMA_PollForTransfer() */
    regs_dma = (DMA_Base_Registers *)DMA_CalcBaseAndBitshift(hdma);
 8001ae2:	6878      	ldr	r0, [r7, #4]
 8001ae4:	f002 fc24 	bl	8004330 <DMA_CalcBaseAndBitshift>
 8001ae8:	4603      	mov	r3, r0
 8001aea:	60bb      	str	r3, [r7, #8]

    /* Clear all interrupt flags */
    regs_dma->IFCR = 0x3FUL << (hdma->StreamIndex & 0x1FU);
 8001aec:	687b      	ldr	r3, [r7, #4]
 8001aee:	6ddb      	ldr	r3, [r3, #92]	; 0x5c
 8001af0:	f003 031f 	and.w	r3, r3, #31
 8001af4:	223f      	movs	r2, #63	; 0x3f
 8001af6:	409a      	lsls	r2, r3
 8001af8:	68bb      	ldr	r3, [r7, #8]
 8001afa:	609a      	str	r2, [r3, #8]
 8001afc:	e0cd      	b.n	8001c9a <HAL_DMA_Init+0x4d6>
  }
  else if(IS_BDMA_CHANNEL_INSTANCE(hdma->Instance) != 0U) /* BDMA instance(s) */
 8001afe:	687b      	ldr	r3, [r7, #4]
 8001b00:	681b      	ldr	r3, [r3, #0]
 8001b02:	4a3b      	ldr	r2, [pc, #236]	; (8001bf0 <HAL_DMA_Init+0x42c>)
 8001b04:	4293      	cmp	r3, r2
 8001b06:	d022      	beq.n	8001b4e <HAL_DMA_Init+0x38a>
 8001b08:	687b      	ldr	r3, [r7, #4]
 8001b0a:	681b      	ldr	r3, [r3, #0]
 8001b0c:	4a39      	ldr	r2, [pc, #228]	; (8001bf4 <HAL_DMA_Init+0x430>)
 8001b0e:	4293      	cmp	r3, r2
 8001b10:	d01d      	beq.n	8001b4e <HAL_DMA_Init+0x38a>
 8001b12:	687b      	ldr	r3, [r7, #4]
 8001b14:	681b      	ldr	r3, [r3, #0]
 8001b16:	4a38      	ldr	r2, [pc, #224]	; (8001bf8 <HAL_DMA_Init+0x434>)
 8001b18:	4293      	cmp	r3, r2
 8001b1a:	d018      	beq.n	8001b4e <HAL_DMA_Init+0x38a>
 8001b1c:	687b      	ldr	r3, [r7, #4]
 8001b1e:	681b      	ldr	r3, [r3, #0]
 8001b20:	4a36      	ldr	r2, [pc, #216]	; (8001bfc <HAL_DMA_Init+0x438>)
 8001b22:	4293      	cmp	r3, r2
 8001b24:	d013      	beq.n	8001b4e <HAL_DMA_Init+0x38a>
 8001b26:	687b      	ldr	r3, [r7, #4]
 8001b28:	681b      	ldr	r3, [r3, #0]
 8001b2a:	4a35      	ldr	r2, [pc, #212]	; (8001c00 <HAL_DMA_Init+0x43c>)
 8001b2c:	4293      	cmp	r3, r2
 8001b2e:	d00e      	beq.n	8001b4e <HAL_DMA_Init+0x38a>
 8001b30:	687b      	ldr	r3, [r7, #4]
 8001b32:	681b      	ldr	r3, [r3, #0]
 8001b34:	4a33      	ldr	r2, [pc, #204]	; (8001c04 <HAL_DMA_Init+0x440>)
 8001b36:	4293      	cmp	r3, r2
 8001b38:	d009      	beq.n	8001b4e <HAL_DMA_Init+0x38a>
 8001b3a:	687b      	ldr	r3, [r7, #4]
 8001b3c:	681b      	ldr	r3, [r3, #0]
 8001b3e:	4a32      	ldr	r2, [pc, #200]	; (8001c08 <HAL_DMA_Init+0x444>)
 8001b40:	4293      	cmp	r3, r2
 8001b42:	d004      	beq.n	8001b4e <HAL_DMA_Init+0x38a>
 8001b44:	687b      	ldr	r3, [r7, #4]
 8001b46:	681b      	ldr	r3, [r3, #0]
 8001b48:	4a30      	ldr	r2, [pc, #192]	; (8001c0c <HAL_DMA_Init+0x448>)
 8001b4a:	4293      	cmp	r3, r2
 8001b4c:	d101      	bne.n	8001b52 <HAL_DMA_Init+0x38e>
 8001b4e:	2301      	movs	r3, #1
 8001b50:	e000      	b.n	8001b54 <HAL_DMA_Init+0x390>
 8001b52:	2300      	movs	r3, #0
 8001b54:	2b00      	cmp	r3, #0
 8001b56:	f000 8097 	beq.w	8001c88 <HAL_DMA_Init+0x4c4>
  {
    if(IS_BDMA_CHANNEL_DMAMUX_INSTANCE(hdma->Instance) != 0U)
 8001b5a:	687b      	ldr	r3, [r7, #4]
 8001b5c:	681b      	ldr	r3, [r3, #0]
 8001b5e:	4a24      	ldr	r2, [pc, #144]	; (8001bf0 <HAL_DMA_Init+0x42c>)
 8001b60:	4293      	cmp	r3, r2
 8001b62:	d021      	beq.n	8001ba8 <HAL_DMA_Init+0x3e4>
 8001b64:	687b      	ldr	r3, [r7, #4]
 8001b66:	681b      	ldr	r3, [r3, #0]
 8001b68:	4a22      	ldr	r2, [pc, #136]	; (8001bf4 <HAL_DMA_Init+0x430>)
 8001b6a:	4293      	cmp	r3, r2
 8001b6c:	d01c      	beq.n	8001ba8 <HAL_DMA_Init+0x3e4>
 8001b6e:	687b      	ldr	r3, [r7, #4]
 8001b70:	681b      	ldr	r3, [r3, #0]
 8001b72:	4a21      	ldr	r2, [pc, #132]	; (8001bf8 <HAL_DMA_Init+0x434>)
 8001b74:	4293      	cmp	r3, r2
 8001b76:	d017      	beq.n	8001ba8 <HAL_DMA_Init+0x3e4>
 8001b78:	687b      	ldr	r3, [r7, #4]
 8001b7a:	681b      	ldr	r3, [r3, #0]
 8001b7c:	4a1f      	ldr	r2, [pc, #124]	; (8001bfc <HAL_DMA_Init+0x438>)
 8001b7e:	4293      	cmp	r3, r2
 8001b80:	d012      	beq.n	8001ba8 <HAL_DMA_Init+0x3e4>
 8001b82:	687b      	ldr	r3, [r7, #4]
 8001b84:	681b      	ldr	r3, [r3, #0]
 8001b86:	4a1e      	ldr	r2, [pc, #120]	; (8001c00 <HAL_DMA_Init+0x43c>)
 8001b88:	4293      	cmp	r3, r2
 8001b8a:	d00d      	beq.n	8001ba8 <HAL_DMA_Init+0x3e4>
 8001b8c:	687b      	ldr	r3, [r7, #4]
 8001b8e:	681b      	ldr	r3, [r3, #0]
 8001b90:	4a1c      	ldr	r2, [pc, #112]	; (8001c04 <HAL_DMA_Init+0x440>)
 8001b92:	4293      	cmp	r3, r2
 8001b94:	d008      	beq.n	8001ba8 <HAL_DMA_Init+0x3e4>
 8001b96:	687b      	ldr	r3, [r7, #4]
 8001b98:	681b      	ldr	r3, [r3, #0]
 8001b9a:	4a1b      	ldr	r2, [pc, #108]	; (8001c08 <HAL_DMA_Init+0x444>)
 8001b9c:	4293      	cmp	r3, r2
 8001b9e:	d003      	beq.n	8001ba8 <HAL_DMA_Init+0x3e4>
 8001ba0:	687b      	ldr	r3, [r7, #4]
 8001ba2:	681b      	ldr	r3, [r3, #0]
 8001ba4:	4a19      	ldr	r2, [pc, #100]	; (8001c0c <HAL_DMA_Init+0x448>)
 8001ba6:	4293      	cmp	r3, r2
 8001ba8:	bf00      	nop
      /* Check the request parameter */
      assert_param(IS_BDMA_REQUEST(hdma->Init.Request));
    }

    /* Change DMA peripheral state */
    hdma->State = HAL_DMA_STATE_BUSY;
 8001baa:	687b      	ldr	r3, [r7, #4]
 8001bac:	2202      	movs	r2, #2
 8001bae:	f883 2035 	strb.w	r2, [r3, #53]	; 0x35

    /* Allocate lock resource */
    __HAL_UNLOCK(hdma);
 8001bb2:	687b      	ldr	r3, [r7, #4]
 8001bb4:	2200      	movs	r2, #0
 8001bb6:	f883 2034 	strb.w	r2, [r3, #52]	; 0x34

    /* Get the CR register value */
    registerValue = ((BDMA_Channel_TypeDef *)hdma->Instance)->CCR;
 8001bba:	687b      	ldr	r3, [r7, #4]
 8001bbc:	681b      	ldr	r3, [r3, #0]
 8001bbe:	681b      	ldr	r3, [r3, #0]
 8001bc0:	617b      	str	r3, [r7, #20]

    /* Clear PL, MSIZE, PSIZE, MINC, PINC, CIRC, DIR, MEM2MEM, DBM and CT bits */
    registerValue &= ((uint32_t)~(BDMA_CCR_PL    | BDMA_CCR_MSIZE   | BDMA_CCR_PSIZE  | \
 8001bc2:	697a      	ldr	r2, [r7, #20]
 8001bc4:	4b12      	ldr	r3, [pc, #72]	; (8001c10 <HAL_DMA_Init+0x44c>)
 8001bc6:	4013      	ands	r3, r2
 8001bc8:	617b      	str	r3, [r7, #20]
                                  BDMA_CCR_MINC  | BDMA_CCR_PINC    | BDMA_CCR_CIRC   | \
                                  BDMA_CCR_DIR   | BDMA_CCR_MEM2MEM | BDMA_CCR_DBM    | \
                                  BDMA_CCR_CT));

    /* Prepare the DMA Channel configuration */
    registerValue |=  DMA_TO_BDMA_DIRECTION(hdma->Init.Direction)            |
 8001bca:	687b      	ldr	r3, [r7, #4]
 8001bcc:	689b      	ldr	r3, [r3, #8]
 8001bce:	2b40      	cmp	r3, #64	; 0x40
 8001bd0:	d020      	beq.n	8001c14 <HAL_DMA_Init+0x450>
 8001bd2:	687b      	ldr	r3, [r7, #4]
 8001bd4:	689b      	ldr	r3, [r3, #8]
 8001bd6:	2b80      	cmp	r3, #128	; 0x80
 8001bd8:	d102      	bne.n	8001be0 <HAL_DMA_Init+0x41c>
 8001bda:	f44f 4380 	mov.w	r3, #16384	; 0x4000
 8001bde:	e01a      	b.n	8001c16 <HAL_DMA_Init+0x452>
 8001be0:	2300      	movs	r3, #0
 8001be2:	e018      	b.n	8001c16 <HAL_DMA_Init+0x452>
 8001be4:	fe10803f 	.word	0xfe10803f
 8001be8:	5c001000 	.word	0x5c001000
 8001bec:	ffff0000 	.word	0xffff0000
 8001bf0:	58025408 	.word	0x58025408
 8001bf4:	5802541c 	.word	0x5802541c
 8001bf8:	58025430 	.word	0x58025430
 8001bfc:	58025444 	.word	0x58025444
 8001c00:	58025458 	.word	0x58025458
 8001c04:	5802546c 	.word	0x5802546c
 8001c08:	58025480 	.word	0x58025480
 8001c0c:	58025494 	.word	0x58025494
 8001c10:	fffe000f 	.word	0xfffe000f
 8001c14:	2310      	movs	r3, #16
                      DMA_TO_BDMA_PERIPHERAL_INC(hdma->Init.PeriphInc)       |
 8001c16:	687a      	ldr	r2, [r7, #4]
 8001c18:	68d2      	ldr	r2, [r2, #12]
 8001c1a:	08d2      	lsrs	r2, r2, #3
    registerValue |=  DMA_TO_BDMA_DIRECTION(hdma->Init.Direction)            |
 8001c1c:	431a      	orrs	r2, r3
                      DMA_TO_BDMA_MEMORY_INC(hdma->Init.MemInc)              |
 8001c1e:	687b      	ldr	r3, [r7, #4]
 8001c20:	691b      	ldr	r3, [r3, #16]
 8001c22:	08db      	lsrs	r3, r3, #3
                      DMA_TO_BDMA_PERIPHERAL_INC(hdma->Init.PeriphInc)       |
 8001c24:	431a      	orrs	r2, r3
                      DMA_TO_BDMA_PDATA_SIZE(hdma->Init.PeriphDataAlignment) |
 8001c26:	687b      	ldr	r3, [r7, #4]
 8001c28:	695b      	ldr	r3, [r3, #20]
 8001c2a:	08db      	lsrs	r3, r3, #3
                      DMA_TO_BDMA_MEMORY_INC(hdma->Init.MemInc)              |
 8001c2c:	431a      	orrs	r2, r3
                      DMA_TO_BDMA_MDATA_SIZE(hdma->Init.MemDataAlignment)    |
 8001c2e:	687b      	ldr	r3, [r7, #4]
 8001c30:	699b      	ldr	r3, [r3, #24]
 8001c32:	08db      	lsrs	r3, r3, #3
                      DMA_TO_BDMA_PDATA_SIZE(hdma->Init.PeriphDataAlignment) |
 8001c34:	431a      	orrs	r2, r3
                      DMA_TO_BDMA_MODE(hdma->Init.Mode)                      |
 8001c36:	687b      	ldr	r3, [r7, #4]
 8001c38:	69db      	ldr	r3, [r3, #28]
 8001c3a:	08db      	lsrs	r3, r3, #3
                      DMA_TO_BDMA_MDATA_SIZE(hdma->Init.MemDataAlignment)    |
 8001c3c:	431a      	orrs	r2, r3
                      DMA_TO_BDMA_PRIORITY(hdma->Init.Priority);
 8001c3e:	687b      	ldr	r3, [r7, #4]
 8001c40:	6a1b      	ldr	r3, [r3, #32]
 8001c42:	091b      	lsrs	r3, r3, #4
                      DMA_TO_BDMA_MODE(hdma->Init.Mode)                      |
 8001c44:	4313      	orrs	r3, r2
    registerValue |=  DMA_TO_BDMA_DIRECTION(hdma->Init.Direction)            |
 8001c46:	697a      	ldr	r2, [r7, #20]
 8001c48:	4313      	orrs	r3, r2
 8001c4a:	617b      	str	r3, [r7, #20]

    /* Write to DMA Channel CR register */
    ((BDMA_Channel_TypeDef *)hdma->Instance)->CCR = registerValue;
 8001c4c:	687b      	ldr	r3, [r7, #4]
 8001c4e:	681b      	ldr	r3, [r3, #0]
 8001c50:	697a      	ldr	r2, [r7, #20]
 8001c52:	601a      	str	r2, [r3, #0]

    /* calculation of the channel index */
    hdma->StreamIndex = (((uint32_t)((uint32_t*)hdma->Instance) - (uint32_t)BDMA_Channel0) / ((uint32_t)BDMA_Channel1 - (uint32_t)BDMA_Channel0)) << 2U;
 8001c54:	687b      	ldr	r3, [r7, #4]
 8001c56:	681b      	ldr	r3, [r3, #0]
 8001c58:	461a      	mov	r2, r3
 8001c5a:	4b6e      	ldr	r3, [pc, #440]	; (8001e14 <HAL_DMA_Init+0x650>)
 8001c5c:	4413      	add	r3, r2
 8001c5e:	4a6e      	ldr	r2, [pc, #440]	; (8001e18 <HAL_DMA_Init+0x654>)
 8001c60:	fba2 2303 	umull	r2, r3, r2, r3
 8001c64:	091b      	lsrs	r3, r3, #4
 8001c66:	009a      	lsls	r2, r3, #2
 8001c68:	687b      	ldr	r3, [r7, #4]
 8001c6a:	65da      	str	r2, [r3, #92]	; 0x5c

    /* Initialize StreamBaseAddress and StreamIndex parameters to be used to calculate
    DMA steam Base Address needed by HAL_DMA_IRQHandler() and HAL_DMA_PollForTransfer() */
    regs_bdma = (BDMA_Base_Registers *)DMA_CalcBaseAndBitshift(hdma);
 8001c6c:	6878      	ldr	r0, [r7, #4]
 8001c6e:	f002 fb5f 	bl	8004330 <DMA_CalcBaseAndBitshift>
 8001c72:	4603      	mov	r3, r0
 8001c74:	60fb      	str	r3, [r7, #12]

    /* Clear all interrupt flags */
    regs_bdma->IFCR = ((BDMA_IFCR_CGIF0) << (hdma->StreamIndex & 0x1FU));
 8001c76:	687b      	ldr	r3, [r7, #4]
 8001c78:	6ddb      	ldr	r3, [r3, #92]	; 0x5c
 8001c7a:	f003 031f 	and.w	r3, r3, #31
 8001c7e:	2201      	movs	r2, #1
 8001c80:	409a      	lsls	r2, r3
 8001c82:	68fb      	ldr	r3, [r7, #12]
 8001c84:	605a      	str	r2, [r3, #4]
 8001c86:	e008      	b.n	8001c9a <HAL_DMA_Init+0x4d6>
  }
  else
  {
    hdma->ErrorCode = HAL_DMA_ERROR_PARAM;
 8001c88:	687b      	ldr	r3, [r7, #4]
 8001c8a:	2240      	movs	r2, #64	; 0x40
 8001c8c:	655a      	str	r2, [r3, #84]	; 0x54
    hdma->State     = HAL_DMA_STATE_ERROR;
 8001c8e:	687b      	ldr	r3, [r7, #4]
 8001c90:	2203      	movs	r2, #3
 8001c92:	f883 2035 	strb.w	r2, [r3, #53]	; 0x35

    return HAL_ERROR;
 8001c96:	2301      	movs	r3, #1
 8001c98:	e0b7      	b.n	8001e0a <HAL_DMA_Init+0x646>
  }

  if(IS_DMA_DMAMUX_ALL_INSTANCE(hdma->Instance) != 0U) /* No DMAMUX available for BDMA1 */
 8001c9a:	687b      	ldr	r3, [r7, #4]
 8001c9c:	681b      	ldr	r3, [r3, #0]
 8001c9e:	4a5f      	ldr	r2, [pc, #380]	; (8001e1c <HAL_DMA_Init+0x658>)
 8001ca0:	4293      	cmp	r3, r2
 8001ca2:	d072      	beq.n	8001d8a <HAL_DMA_Init+0x5c6>
 8001ca4:	687b      	ldr	r3, [r7, #4]
 8001ca6:	681b      	ldr	r3, [r3, #0]
 8001ca8:	4a5d      	ldr	r2, [pc, #372]	; (8001e20 <HAL_DMA_Init+0x65c>)
 8001caa:	4293      	cmp	r3, r2
 8001cac:	d06d      	beq.n	8001d8a <HAL_DMA_Init+0x5c6>
 8001cae:	687b      	ldr	r3, [r7, #4]
 8001cb0:	681b      	ldr	r3, [r3, #0]
 8001cb2:	4a5c      	ldr	r2, [pc, #368]	; (8001e24 <HAL_DMA_Init+0x660>)
 8001cb4:	4293      	cmp	r3, r2
 8001cb6:	d068      	beq.n	8001d8a <HAL_DMA_Init+0x5c6>
 8001cb8:	687b      	ldr	r3, [r7, #4]
 8001cba:	681b      	ldr	r3, [r3, #0]
 8001cbc:	4a5a      	ldr	r2, [pc, #360]	; (8001e28 <HAL_DMA_Init+0x664>)
 8001cbe:	4293      	cmp	r3, r2
 8001cc0:	d063      	beq.n	8001d8a <HAL_DMA_Init+0x5c6>
 8001cc2:	687b      	ldr	r3, [r7, #4]
 8001cc4:	681b      	ldr	r3, [r3, #0]
 8001cc6:	4a59      	ldr	r2, [pc, #356]	; (8001e2c <HAL_DMA_Init+0x668>)
 8001cc8:	4293      	cmp	r3, r2
 8001cca:	d05e      	beq.n	8001d8a <HAL_DMA_Init+0x5c6>
 8001ccc:	687b      	ldr	r3, [r7, #4]
 8001cce:	681b      	ldr	r3, [r3, #0]
 8001cd0:	4a57      	ldr	r2, [pc, #348]	; (8001e30 <HAL_DMA_Init+0x66c>)
 8001cd2:	4293      	cmp	r3, r2
 8001cd4:	d059      	beq.n	8001d8a <HAL_DMA_Init+0x5c6>
 8001cd6:	687b      	ldr	r3, [r7, #4]
 8001cd8:	681b      	ldr	r3, [r3, #0]
 8001cda:	4a56      	ldr	r2, [pc, #344]	; (8001e34 <HAL_DMA_Init+0x670>)
 8001cdc:	4293      	cmp	r3, r2
 8001cde:	d054      	beq.n	8001d8a <HAL_DMA_Init+0x5c6>
 8001ce0:	687b      	ldr	r3, [r7, #4]
 8001ce2:	681b      	ldr	r3, [r3, #0]
 8001ce4:	4a54      	ldr	r2, [pc, #336]	; (8001e38 <HAL_DMA_Init+0x674>)
 8001ce6:	4293      	cmp	r3, r2
 8001ce8:	d04f      	beq.n	8001d8a <HAL_DMA_Init+0x5c6>
 8001cea:	687b      	ldr	r3, [r7, #4]
 8001cec:	681b      	ldr	r3, [r3, #0]
 8001cee:	4a53      	ldr	r2, [pc, #332]	; (8001e3c <HAL_DMA_Init+0x678>)
 8001cf0:	4293      	cmp	r3, r2
 8001cf2:	d04a      	beq.n	8001d8a <HAL_DMA_Init+0x5c6>
 8001cf4:	687b      	ldr	r3, [r7, #4]
 8001cf6:	681b      	ldr	r3, [r3, #0]
 8001cf8:	4a51      	ldr	r2, [pc, #324]	; (8001e40 <HAL_DMA_Init+0x67c>)
 8001cfa:	4293      	cmp	r3, r2
 8001cfc:	d045      	beq.n	8001d8a <HAL_DMA_Init+0x5c6>
 8001cfe:	687b      	ldr	r3, [r7, #4]
 8001d00:	681b      	ldr	r3, [r3, #0]
 8001d02:	4a50      	ldr	r2, [pc, #320]	; (8001e44 <HAL_DMA_Init+0x680>)
 8001d04:	4293      	cmp	r3, r2
 8001d06:	d040      	beq.n	8001d8a <HAL_DMA_Init+0x5c6>
 8001d08:	687b      	ldr	r3, [r7, #4]
 8001d0a:	681b      	ldr	r3, [r3, #0]
 8001d0c:	4a4e      	ldr	r2, [pc, #312]	; (8001e48 <HAL_DMA_Init+0x684>)
 8001d0e:	4293      	cmp	r3, r2
 8001d10:	d03b      	beq.n	8001d8a <HAL_DMA_Init+0x5c6>
 8001d12:	687b      	ldr	r3, [r7, #4]
 8001d14:	681b      	ldr	r3, [r3, #0]
 8001d16:	4a4d      	ldr	r2, [pc, #308]	; (8001e4c <HAL_DMA_Init+0x688>)
 8001d18:	4293      	cmp	r3, r2
 8001d1a:	d036      	beq.n	8001d8a <HAL_DMA_Init+0x5c6>
 8001d1c:	687b      	ldr	r3, [r7, #4]
 8001d1e:	681b      	ldr	r3, [r3, #0]
 8001d20:	4a4b      	ldr	r2, [pc, #300]	; (8001e50 <HAL_DMA_Init+0x68c>)
 8001d22:	4293      	cmp	r3, r2
 8001d24:	d031      	beq.n	8001d8a <HAL_DMA_Init+0x5c6>
 8001d26:	687b      	ldr	r3, [r7, #4]
 8001d28:	681b      	ldr	r3, [r3, #0]
 8001d2a:	4a4a      	ldr	r2, [pc, #296]	; (8001e54 <HAL_DMA_Init+0x690>)
 8001d2c:	4293      	cmp	r3, r2
 8001d2e:	d02c      	beq.n	8001d8a <HAL_DMA_Init+0x5c6>
 8001d30:	687b      	ldr	r3, [r7, #4]
 8001d32:	681b      	ldr	r3, [r3, #0]
 8001d34:	4a48      	ldr	r2, [pc, #288]	; (8001e58 <HAL_DMA_Init+0x694>)
 8001d36:	4293      	cmp	r3, r2
 8001d38:	d027      	beq.n	8001d8a <HAL_DMA_Init+0x5c6>
 8001d3a:	687b      	ldr	r3, [r7, #4]
 8001d3c:	681b      	ldr	r3, [r3, #0]
 8001d3e:	4a47      	ldr	r2, [pc, #284]	; (8001e5c <HAL_DMA_Init+0x698>)
 8001d40:	4293      	cmp	r3, r2
 8001d42:	d022      	beq.n	8001d8a <HAL_DMA_Init+0x5c6>
 8001d44:	687b      	ldr	r3, [r7, #4]
 8001d46:	681b      	ldr	r3, [r3, #0]
 8001d48:	4a45      	ldr	r2, [pc, #276]	; (8001e60 <HAL_DMA_Init+0x69c>)
 8001d4a:	4293      	cmp	r3, r2
 8001d4c:	d01d      	beq.n	8001d8a <HAL_DMA_Init+0x5c6>
 8001d4e:	687b      	ldr	r3, [r7, #4]
 8001d50:	681b      	ldr	r3, [r3, #0]
 8001d52:	4a44      	ldr	r2, [pc, #272]	; (8001e64 <HAL_DMA_Init+0x6a0>)
 8001d54:	4293      	cmp	r3, r2
 8001d56:	d018      	beq.n	8001d8a <HAL_DMA_Init+0x5c6>
 8001d58:	687b      	ldr	r3, [r7, #4]
 8001d5a:	681b      	ldr	r3, [r3, #0]
 8001d5c:	4a42      	ldr	r2, [pc, #264]	; (8001e68 <HAL_DMA_Init+0x6a4>)
 8001d5e:	4293      	cmp	r3, r2
 8001d60:	d013      	beq.n	8001d8a <HAL_DMA_Init+0x5c6>
 8001d62:	687b      	ldr	r3, [r7, #4]
 8001d64:	681b      	ldr	r3, [r3, #0]
 8001d66:	4a41      	ldr	r2, [pc, #260]	; (8001e6c <HAL_DMA_Init+0x6a8>)
 8001d68:	4293      	cmp	r3, r2
 8001d6a:	d00e      	beq.n	8001d8a <HAL_DMA_Init+0x5c6>
 8001d6c:	687b      	ldr	r3, [r7, #4]
 8001d6e:	681b      	ldr	r3, [r3, #0]
 8001d70:	4a3f      	ldr	r2, [pc, #252]	; (8001e70 <HAL_DMA_Init+0x6ac>)
 8001d72:	4293      	cmp	r3, r2
 8001d74:	d009      	beq.n	8001d8a <HAL_DMA_Init+0x5c6>
 8001d76:	687b      	ldr	r3, [r7, #4]
 8001d78:	681b      	ldr	r3, [r3, #0]
 8001d7a:	4a3e      	ldr	r2, [pc, #248]	; (8001e74 <HAL_DMA_Init+0x6b0>)
 8001d7c:	4293      	cmp	r3, r2
 8001d7e:	d004      	beq.n	8001d8a <HAL_DMA_Init+0x5c6>
 8001d80:	687b      	ldr	r3, [r7, #4]
 8001d82:	681b      	ldr	r3, [r3, #0]
 8001d84:	4a3c      	ldr	r2, [pc, #240]	; (8001e78 <HAL_DMA_Init+0x6b4>)
 8001d86:	4293      	cmp	r3, r2
 8001d88:	d101      	bne.n	8001d8e <HAL_DMA_Init+0x5ca>
 8001d8a:	2301      	movs	r3, #1
 8001d8c:	e000      	b.n	8001d90 <HAL_DMA_Init+0x5cc>
 8001d8e:	2300      	movs	r3, #0
 8001d90:	2b00      	cmp	r3, #0
 8001d92:	d032      	beq.n	8001dfa <HAL_DMA_Init+0x636>
  {
    /* Initialize parameters for DMAMUX channel :
    DMAmuxChannel, DMAmuxChannelStatus and DMAmuxChannelStatusMask
    */
    DMA_CalcDMAMUXChannelBaseAndMask(hdma);
 8001d94:	6878      	ldr	r0, [r7, #4]
 8001d96:	f002 fbf9 	bl	800458c <DMA_CalcDMAMUXChannelBaseAndMask>

    if(hdma->Init.Direction == DMA_MEMORY_TO_MEMORY)
 8001d9a:	687b      	ldr	r3, [r7, #4]
 8001d9c:	689b      	ldr	r3, [r3, #8]
 8001d9e:	2b80      	cmp	r3, #128	; 0x80
 8001da0:	d102      	bne.n	8001da8 <HAL_DMA_Init+0x5e4>
    {
      /* if memory to memory force the request to 0*/
      hdma->Init.Request = DMA_REQUEST_MEM2MEM;
 8001da2:	687b      	ldr	r3, [r7, #4]
 8001da4:	2200      	movs	r2, #0
 8001da6:	605a      	str	r2, [r3, #4]
    }

